{
  "contracts/Merchant.sol": {
    "Merchant": {
      "abi": [
        {
          "inputs": [
            {
              "internalType": "contract IMerchantEvents",
              "name": "events_",
              "type": "address"
            },
            {
              "internalType": "contract IWalletEvents",
              "name": "walletEvents_",
              "type": "address"
            }
          ],
          "stateMutability": "nonpayable",
          "type": "constructor"
        },
        {
          "inputs": [],
          "name": "EnforcedPause",
          "type": "error"
        },
        {
          "inputs": [],
          "name": "ExpectedPause",
          "type": "error"
        },
        {
          "inputs": [
            {
              "internalType": "address",
              "name": "owner",
              "type": "address"
            }
          ],
          "name": "OwnableInvalidOwner",
          "type": "error"
        },
        {
          "inputs": [
            {
              "internalType": "address",
              "name": "account",
              "type": "address"
            }
          ],
          "name": "OwnableUnauthorizedAccount",
          "type": "error"
        },
        {
          "anonymous": false,
          "inputs": [
            {
              "indexed": true,
              "internalType": "address",
              "name": "previousOwner",
              "type": "address"
            },
            {
              "indexed": true,
              "internalType": "address",
              "name": "newOwner",
              "type": "address"
            }
          ],
          "name": "OwnershipTransferred",
          "type": "event"
        },
        {
          "anonymous": false,
          "inputs": [
            {
              "indexed": false,
              "internalType": "address",
              "name": "account",
              "type": "address"
            }
          ],
          "name": "Paused",
          "type": "event"
        },
        {
          "anonymous": false,
          "inputs": [
            {
              "indexed": false,
              "internalType": "address",
              "name": "account",
              "type": "address"
            }
          ],
          "name": "Unpaused",
          "type": "event"
        },
        {
          "inputs": [
            {
              "components": [
                {
                  "components": [
                    {
                      "internalType": "uint8",
                      "name": "schemaVersion",
                      "type": "uint8"
                    },
                    {
                      "internalType": "string",
                      "name": "value",
                      "type": "string"
                    }
                  ],
                  "internalType": "struct Types.Metadata",
                  "name": "metadata",
                  "type": "tuple"
                },
                {
                  "internalType": "address[]",
                  "name": "tokens",
                  "type": "address[]"
                },
                {
                  "internalType": "address[]",
                  "name": "signers",
                  "type": "address[]"
                },
                {
                  "internalType": "uint256",
                  "name": "minSigners",
                  "type": "uint256"
                }
              ],
              "internalType": "struct Params.CreateMerchant",
              "name": "params",
              "type": "tuple"
            }
          ],
          "name": "create",
          "outputs": [],
          "stateMutability": "payable",
          "type": "function"
        },
        {
          "inputs": [
            {
              "components": [
                {
                  "internalType": "address",
                  "name": "token",
                  "type": "address"
                },
                {
                  "internalType": "uint256",
                  "name": "interval",
                  "type": "uint256"
                },
                {
                  "internalType": "uint256",
                  "name": "amount",
                  "type": "uint256"
                },
                {
                  "internalType": "uint256",
                  "name": "gracePeriod",
                  "type": "uint256"
                },
                {
                  "internalType": "string",
                  "name": "description",
                  "type": "string"
                }
              ],
              "internalType": "struct Params.CreateSubscription",
              "name": "params",
              "type": "tuple"
            }
          ],
          "name": "createSubscription",
          "outputs": [
            {
              "internalType": "bytes32",
              "name": "subscriptionId",
              "type": "bytes32"
            }
          ],
          "stateMutability": "nonpayable",
          "type": "function"
        },
        {
          "inputs": [
            {
              "components": [
                {
                  "internalType": "bytes32",
                  "name": "subscriptionId",
                  "type": "bytes32"
                }
              ],
              "internalType": "struct Params.DeleteSubscription",
              "name": "params",
              "type": "tuple"
            }
          ],
          "name": "deleteSubscription",
          "outputs": [],
          "stateMutability": "nonpayable",
          "type": "function"
        },
        {
          "inputs": [
            {
              "internalType": "address",
              "name": "merchant",
              "type": "address"
            }
          ],
          "name": "getMerchant",
          "outputs": [
            {
              "components": [
                {
                  "components": [
                    {
                      "internalType": "uint8",
                      "name": "schemaVersion",
                      "type": "uint8"
                    },
                    {
                      "internalType": "string",
                      "name": "value",
                      "type": "string"
                    }
                  ],
                  "internalType": "struct Types.Metadata",
                  "name": "metadata",
                  "type": "tuple"
                },
                {
                  "internalType": "address",
                  "name": "wallet",
                  "type": "address"
                }
              ],
              "internalType": "struct Types.MerchantConfig",
              "name": "",
              "type": "tuple"
            }
          ],
          "stateMutability": "view",
          "type": "function"
        },
        {
          "inputs": [
            {
              "internalType": "bytes32",
              "name": "subscriptionId",
              "type": "bytes32"
            }
          ],
          "name": "getSubscription",
          "outputs": [
            {
              "components": [
                {
                  "internalType": "address",
                  "name": "token",
                  "type": "address"
                },
                {
                  "internalType": "uint256",
                  "name": "interval",
                  "type": "uint256"
                },
                {
                  "internalType": "uint256",
                  "name": "amount",
                  "type": "uint256"
                },
                {
                  "internalType": "uint256",
                  "name": "gracePeriod",
                  "type": "uint256"
                },
                {
                  "internalType": "string",
                  "name": "description",
                  "type": "string"
                },
                {
                  "internalType": "address",
                  "name": "merchant",
                  "type": "address"
                },
                {
                  "internalType": "bool",
                  "name": "active",
                  "type": "bool"
                }
              ],
              "internalType": "struct Types.Subscription",
              "name": "",
              "type": "tuple"
            }
          ],
          "stateMutability": "view",
          "type": "function"
        },
        {
          "inputs": [
            {
              "internalType": "address",
              "name": "merchant",
              "type": "address"
            }
          ],
          "name": "getWallet",
          "outputs": [
            {
              "internalType": "address",
              "name": "",
              "type": "address"
            }
          ],
          "stateMutability": "view",
          "type": "function"
        },
        {
          "inputs": [],
          "name": "owner",
          "outputs": [
            {
              "internalType": "address",
              "name": "",
              "type": "address"
            }
          ],
          "stateMutability": "view",
          "type": "function"
        },
        {
          "inputs": [],
          "name": "pause",
          "outputs": [],
          "stateMutability": "nonpayable",
          "type": "function"
        },
        {
          "inputs": [],
          "name": "paused",
          "outputs": [
            {
              "internalType": "bool",
              "name": "",
              "type": "bool"
            }
          ],
          "stateMutability": "view",
          "type": "function"
        },
        {
          "inputs": [],
          "name": "renounceOwnership",
          "outputs": [],
          "stateMutability": "nonpayable",
          "type": "function"
        },
        {
          "inputs": [
            {
              "internalType": "address",
              "name": "newOwner",
              "type": "address"
            }
          ],
          "name": "transferOwnership",
          "outputs": [],
          "stateMutability": "nonpayable",
          "type": "function"
        },
        {
          "inputs": [],
          "name": "unpause",
          "outputs": [],
          "stateMutability": "nonpayable",
          "type": "function"
        },
        {
          "inputs": [
            {
              "components": [
                {
                  "components": [
                    {
                      "internalType": "uint8",
                      "name": "schemaVersion",
                      "type": "uint8"
                    },
                    {
                      "internalType": "string",
                      "name": "value",
                      "type": "string"
                    }
                  ],
                  "internalType": "struct Types.Metadata",
                  "name": "metadata",
                  "type": "tuple"
                }
              ],
              "internalType": "struct Params.UpdateMerchant",
              "name": "params",
              "type": "tuple"
            }
          ],
          "name": "update",
          "outputs": [],
          "stateMutability": "nonpayable",
          "type": "function"
        },
        {
          "inputs": [
            {
              "components": [
                {
                  "internalType": "bytes32",
                  "name": "subscriptionId",
                  "type": "bytes32"
                },
                {
                  "internalType": "uint256",
                  "name": "amount",
                  "type": "uint256"
                },
                {
                  "internalType": "uint256",
                  "name": "gracePeriod",
                  "type": "uint256"
                },
                {
                  "internalType": "string",
                  "name": "description",
                  "type": "string"
                },
                {
                  "internalType": "bool",
                  "name": "active",
                  "type": "bool"
                }
              ],
              "internalType": "struct Params.UpdateSubscription",
              "name": "params",
              "type": "tuple"
            }
          ],
          "name": "updateSubscription",
          "outputs": [],
          "stateMutability": "nonpayable",
          "type": "function"
        }
      ],
      "evm": {
        "bytecode": {
          "linkReferences": {
            "contracts/libs/HashLib.sol": {
              "HashLib": [
                {
                  "length": 20,
                  "start": 1141
                }
              ]
            }
          },
          "object": "60803461011057601f61314f38819003918201601f19168301916001600160401b038311848410176101155780849260409485528339810103126101105780516001600160a01b038116919082900361011057602001516001600160a01b03811690819003610110576000549133156100fa576001600160a81b0319831633600881811b610100600160a81b03169290921760009081556040519591929190911c6001600160a01b0316907f8be0079c531659141344cd1fd0a4f28419497f9722a3daafe3b4186f6b6457e09080a360018060a01b0319600154161760015560018060a01b03196002541617600255613023908161012c8239f35b631e4fbdf760e01b600052600060045260246000fd5b600080fd5b634e487b7160e01b600052604160045260246000fdfe608080604052600436101561001357600080fd5b600090813560e01c90816304d0a6471461152f575080631f32768e1461141d5780632e275b3c14610f8257806331443e0d14610e2f5780633f4ba83a14610db0578063595c4e6314610b115780635c975abb14610aef578063715018a614610a855780638456cb5914610a2c5780638da5cb5b14610a035780639ef2dda61461073b578063b2734eaf1461066d578063ba4950d8146101895763f2fde38b146100bb57600080fd5b34610186576020366003190112610186576100d4611569565b6100dc6119e3565b6001600160a01b03811690811561015a576001600160a01b039074ffffffffffffffffffffffffffffffffffffffff0084549160081b1674ffffffffffffffffffffffffffffffffffffffff0019821617845560081c167f8be0079c531659141344cd1fd0a4f28419497f9722a3daafe3b4186f6b6457e08380a380f35b6024837f1e4fbdf700000000000000000000000000000000000000000000000000000000815280600452fd5b80fd5b50346101865760203660031901126101865760043567ffffffffffffffff81116106695760a0600319823603011261066957604051906101c882611643565b6101d481600401611584565b825260248101356020830152604481013560408301526064810135606083015260848101359067ffffffffffffffff82116106655760046102189236920101611681565b60808201526102256119ad565b33825260056020526102516001600160a01b03600260408520015416151561024b611937565b90611899565b600354906001820180921161065157816003556001600160a01b0381511690602081015191604082015192606083015190608084015160405193610294856115d9565b8452602084019182526040840195865260608401928352608084019081523360a085015260c084019260018452604096602061033989516102d58b8261165f565b600881527f4d65726368616e74000000000000000000000000000000000000000000000000838201528a519b8c9283927fd3d17522000000000000000000000000000000000000000000000000000000008452606060048501526064840190611598565b903360248401526044830152038173__$e8a316a189340483dbc2c3c1eb5060a774$__5af4988915610647578a9961060f575b50888a526004602052878a20936001600160a01b03808851161673ffffffffffffffffffffffffffffffffffffffff198654161785555160018501555160028401555160038301555180519067ffffffffffffffff82116105fb576103d460048401546117bb565b601f81116105bd575b5060209089601f841160011461053c57610469969594610423856001600160a01b0396879660a09660059692610531575b50508160011b916000199060031b1c19161790565b60048201555b01940151161673ffffffffffffffffffffffffffffffffffffffff1983541617825551151560ff60a01b1960ff60a01b835492151560a01b169116179055565b836001600160a01b03600154169160208101519260408201516080606084015193015194823b1561052d5784906104f18851978896879586947f263d1fa00000000000000000000000000000000000000000000000000000000086528d600487015233602487015260448601526064850152608484015260c060a484015260c4830190611598565b03925af180156105235761050a575b6020838351908152f35b61051584809261165f565b61051f5782610500565b8280fd5b82513d86823e3d90fd5b8480fd5b01519050388061040e565b5090600484018a52808a20918a5b601f19851681106105a557506104699695946001856001600160a01b03969560a0956005958998601f1981161061058c575b505050811b016004820155610429565b015160001960f88460031b161c1916905538808061057c565b9192602060018192868501518155019401920161054a565b6105eb90600485018b5260208b20601f850160051c810191602086106105f1575b601f0160051c0190611920565b386103dd565b90915081906105de565b602489634e487b7160e01b81526041600452fd5b9098506020813d60201161063f575b8161062b6020938361165f565b8101031261063b5751973861036c565b8980fd5b3d915061061e565b88513d8c823e3d90fd5b602483634e487b7160e01b81526011600452fd5b8380fd5b5080fd5b503461018657602036600319011261018657604061072f916001600160a01b03610695611569565b82602085516106a38161160b565b86516106ae8161160b565b838152606083820152815201521681526005602052206001600160a01b036002604051926106db8461160b565b6040516106e78161160b565b60ff82541681526106fa600183016117f5565b60208201528452015416602082019081526001600160a01b036040519384936020855251604060208601526060850190611798565b91511660408301520390f35b5034610186576020366003190112610186576004359067ffffffffffffffff82116101865760a060031983360301126101865760405161077a81611643565b826004013581526020810160248401358152604082019360448101358552606481013567ffffffffffffffff811161052d576107be60849160043691850101611681565b9160608501928352013592831515840361052d57608081019384526107e16119ad565b33855260056020526108076001600160a01b03600260408820015416151561024b611937565b80518552600460205260408520956005870194610832336001600160a01b038854161461024b611972565b8451600289015581516003890155600484519801885167ffffffffffffffff81116105fb5761086182546117bb565b601f81116109d3575b506020601f821160011461096b57816108c49493926108a0928c9d8d926105315750508160011b916000199060031b1c19161790565b90555b51151580969060ff60a01b1960ff60a01b835492151560a01b169116179055565b6001600160a01b0360015416915193519051925194823b156109675786948591610934604051988997889687957f28dc3d8900000000000000000000000000000000000000000000000000000000875260048701526024860152604485015260a0606485015260a4840190611598565b90608483015203925af1801561095c5761094b5750f35b816109559161165f565b6101865780f35b6040513d84823e3d90fd5b8680fd5b828a52808a209a601f1983168b5b8181106109bb57509b60019284926108c49796958e9f106109a2575b505050811b0190556108a3565b015160001960f88460031b161c19169055388080610995565b838301518e556001909d019c60209384019301610979565b6109fd90838b5260208b20601f840160051c810191602085106105f157601f0160051c0190611920565b3861086a565b50346101865780600319360112610186576001600160a01b036020915460081c16604051908152f35b5034610186578060031936011261018657610a456119e3565b610a4d6119ad565b600160ff198254161781557f62e78cea01bee320cd4e420270b5ea74000d11b0c9f74754ebdbfc544b05a2586020604051338152a180f35b5034610186578060031936011261018657610a9e6119e3565b806001600160a01b03815474ffffffffffffffffffffffffffffffffffffffff00198116835560081c167f8be0079c531659141344cd1fd0a4f28419497f9722a3daafe3b4186f6b6457e08280a380f35b503461018657806003193601126101865760ff60209154166040519015158152f35b5034610186576020366003190112610186576004359067ffffffffffffffff821161018657602060031983360301126101865760405191610b5183611627565b806004013567ffffffffffffffff811161051f57610b74913691016004016116d8565b8252610b7e6119ad565b3381526005602052610ba46001600160a01b03600260408420015416151561024b611937565b81519133825260056020526001600160a01b036002604084200154169260405190610bce8261160b565b81526020810193845233835260056020526040832090519360ff85511660ff1983541617825560206001830195015194855167ffffffffffffffff8111610d9c57610c1982546117bb565b601f8111610d6c575b506020601f8211600114610cfc5792600292610c61836001600160a01b03969487958b9c8c926105315750508160011b916000199060031b1c19161790565b90555b51169201911673ffffffffffffffffffffffffffffffffffffffff198254161790556001600160a01b0360015416905190803b15610cf857610ce783929183926040519485809481937fade33fd9000000000000000000000000000000000000000000000000000000008352336004840152604060248401526044830190611798565b03925af1801561095c5761094b5750f35b5050fd5b82875280872097601f198316885b818110610d54575083899a6001600160a01b03979460029794899760019510610d3b575b505050811b019055610c64565b015160001960f88460031b161c19169055388080610d2e565b838301518b556001909a019960209384019301610d0a565b610d969083885260208820601f840160051c810191602085106105f157601f0160051c0190611920565b38610c22565b602486634e487b7160e01b81526041600452fd5b5034610186578060031936011261018657610dc96119e3565b805460ff811615610e075760ff191681557f5db9ee0a495bf2e6ff9c91a7834c1ba4fdd244a5e8aa4e537bd38aeae4b073aa6020604051338152a180f35b6004827f8dfc202b000000000000000000000000000000000000000000000000000000008152fd5b50346101865760203660031901126101865780604051610e4e81611627565b6004358152610e5b6119ad565b3382526005602052610e816001600160a01b03600260408520015416151561024b611937565b805182526004602052610ea8336001600160a01b036005604086200154161461024b611972565b805182526004602052816005604082208281558260018201558260028201558260038201558260048201610edc81546117bb565b80610f41575b50505001556001600160a01b03600154169051813b15610cf85782916024839260405194859384927fc6a6602c00000000000000000000000000000000000000000000000000000000845260048401525af1801561095c5761094b5750f35b601f8111600114610f575750555b823880610ee2565b81835260208320610f7291601f01861c810190600101611920565b8082528160208120915555610f4f565b506020366003190112610186576004359067ffffffffffffffff82116101865760806003198336030112610186576040516080810181811067ffffffffffffffff82111761140957604052826004013567ffffffffffffffff811161051f57610ff190600436918601016116d8565b8152602483013567ffffffffffffffff811161051f576110179060043691860101611728565b60208201908152604484013567ffffffffffffffff8111610665576110429060043691870101611728565b9060408301918252606460608401950135855261105d6119ad565b33845260056020526001600160a01b0360026040862001541615916110ba60409384519061108b868361165f565b600382527f34303400000000000000000000000000000000000000000000000000000000006020830152611899565b6001600160a01b036002541682519082518851908651936115c5938486019486861067ffffffffffffffff8711176113f557926111186080936111269389989796611a298a39875233602088015260a08c88015260a08701906118e3565b9085820360608701526118e3565b920152039034f09384156113eb576001600160a01b038060015416951694803b156109675786809160248751809481937f8411905a0000000000000000000000000000000000000000000000000000000083528b60048401525af180156113e1576113cd575b5080519684519761119c8961160b565b88526020880197868952338852600560205285882090519860ff8a511660ff198354161782556020600183019a0151998a519a67ffffffffffffffff8c116113b9578a8c6111ea84546117bb565b601f8111611388575b505050602090601f8d1160011461131657926002926112358e8e9f8f956001600160a01b03988997926105315750508160011b916000199060031b1c19161790565b90555b51169201911673ffffffffffffffffffffffffffffffffffffffff198254161790556001600160a01b0360015416915193519251905190823b156113125787946112c7926112f087936112de8a519b8c998a9889977f0c2343ce0000000000000000000000000000000000000000000000000000000089523360048a015260c060248a015260c4890190611798565b9160448801526003198783030160648801526118e3565b848103600319016084860152906118e3565b9060a483015203925af1908115611309575061094b5750f35b513d84823e3d90fd5b8780fd5b828c52818c209c9190601f1983168d5b8181106113705750838e9f6001600160a01b03979460029794899760019510611357575b505050811b019055611238565b015160001960f88460031b161c1916905538808061134a565b929e8f83015181556001019e60200192602001611326565b602083866113b1955220906020601f840160051c830193106105f157601f0160051c0190611920565b8a8c386111f3565b60248b634e487b7160e01b81526041600452fd5b866113da9197929761165f565b943861118c565b85513d89823e3d90fd5b83513d87823e3d90fd5b60248c634e487b7160e01b81526041600452fd5b602483634e487b7160e01b81526041600452fd5b5034610186576020366003190112610186576040816001600160a01b039260c08351611448816115d9565b8281528260208201528285820152826060820152606060808201528260a08201520152600435815260046020522060405190611483826115d9565b828154168252600181015490602083019182528361151b6002830154926040860193845260038101546060870190815260056114c1600484016117f5565b926080890193845201549460a0880196858716885260ff60c08a019760a01c1615158752604051998a9960208b52511660208a01525160408901525160608801525160808701525160e060a0870152610100860190611598565b92511660c084015251151560e08301520390f35b905034610669576020366003190112610669576001600160a01b03600260406020948361155a611569565b16815260058652200154168152f35b600435906001600160a01b038216820361157f57565b600080fd5b35906001600160a01b038216820361157f57565b919082519283825260005b8481106115c4575050826000602080949584010152601f8019910116010190565b806020809284010151828286010152016115a3565b60e0810190811067ffffffffffffffff8211176115f557604052565b634e487b7160e01b600052604160045260246000fd5b6040810190811067ffffffffffffffff8211176115f557604052565b6020810190811067ffffffffffffffff8211176115f557604052565b60a0810190811067ffffffffffffffff8211176115f557604052565b90601f8019910116810190811067ffffffffffffffff8211176115f557604052565b81601f8201121561157f5780359067ffffffffffffffff82116115f557604051926116b6601f8401601f19166020018561165f565b8284526020838301011161157f57816000926020809301838601378301015290565b919060408382031261157f57604051906116f18261160b565b8193803560ff8116810361157f57835260208101359167ffffffffffffffff831161157f576020926117239201611681565b910152565b9080601f8301121561157f5781359167ffffffffffffffff83116115f5578260051b906040519361175c602084018661165f565b845260208085019282010192831161157f57602001905b8282106117805750505090565b6020809161178d84611584565b815201910190611773565b90604060206117b89360ff81511684520151918160208201520190611598565b90565b90600182811c921680156117eb575b60208310146117d557565b634e487b7160e01b600052602260045260246000fd5b91607f16916117ca565b9060405191826000825492611809846117bb565b80845293600181169081156118775750600114611830575b5061182e9250038361165f565b565b90506000929192526020600020906000915b81831061185b57505090602061182e9282010138611821565b6020919350806001915483858901015201910190918492611842565b90506020925061182e94915060ff191682840152151560051b82010138611821565b156118a15750565b6118df906040519182917f08c379a0000000000000000000000000000000000000000000000000000000008352602060048401526024830190611598565b0390fd5b906020808351928381520192019060005b8181106119015750505090565b82516001600160a01b03168452602093840193909201916001016118f4565b81811061192b575050565b60008155600101611920565b6040519061194660408361165f565b600382527f34303500000000000000000000000000000000000000000000000000000000006020830152565b6040519061198160408361165f565b600182527f32000000000000000000000000000000000000000000000000000000000000006020830152565b60ff600054166119b957565b7fd93c06650000000000000000000000000000000000000000000000000000000060005260046000fd5b6001600160a01b0360005460081c1633036119fa57565b7f118cdaa7000000000000000000000000000000000000000000000000000000006000523360045260246000fdfe60806040526115c580380380610014816102da565b92833981019060a0818303126102d55780516001600160a01b03811692908390036102d557610045602083016102ff565b60408301519093906001600160401b0381116102d55782610067918501610313565b60608401519092906001600160401b0381116102d55760809161008b918601610313565b930151936001600160a01b031680156102bf57600080546001600160a01b03198116831782556001600160a01b0316907f8be0079c531659141344cd1fd0a4f28419497f9722a3daafe3b4186f6b6457e09080a36101046100ec60406102da565b600381526203830360ec1b602082015285151561037d565b61012a835185111561011660406102da565b9060018252601b60f91b602083015261037d565b600180546001600160a01b0319169190911790558051906001600160401b038211610246576801000000000000000082116102465760025482600255808310610279575b506020016002600052602060002060005b83811061025c5784518690866001600160401b038211610246576801000000000000000082116102465760035482600355808310610200575b506020016003600052602060002060005b8381106101e357846004556040516111e490816103e18239f35b82516001600160a01b0316818301556020909201916001016101c9565b60036000527fc2575a0e9e593c00f959f8c92f12db2869c3395a3b0502d05e2516446f71f85b9081019083015b81811061023a57506101b8565b6000815560010161022d565b634e487b7160e01b600052604160045260246000fd5b82516001600160a01b03168183015560209092019160010161017f565b60026000527f405787fa12a823e0f2b7631cc41b3ba8828b3321ca811111fa75cd3aa3bb5ace9081019083015b8181106102b3575061016e565b600081556001016102a6565b631e4fbdf760e01b600052600060045260246000fd5b600080fd5b6040519190601f01601f191682016001600160401b0381118382101761024657604052565b51906001600160a01b03821682036102d557565b9080601f830112156102d5578151916001600160401b038311610246578260051b906020806103438185016102da565b8096815201928201019283116102d557602001905b8282106103655750505090565b60208091610372846102ff565b815201910190610358565b156103855750565b6040519062461bcd60e51b8252602060048301528181519182602483015260005b8381106103c85750508160006044809484010152601f80199101168101030190fd5b602082820181015160448784010152859350016103a656fe6080604052600436101561001b575b361561001957600080fd5b005b6000803560e01c806311ff708d14610c955780632104ebf1146109db57806326b3293f1461080d57806344cbf1771461065f578063715018a6146105f95780637df73e27146105d55780638da5cb5b146105af57806394cf795e14610519578063de41691c14610348578063ec4673d114610186578063f2fde38b146100db5763f9eaee0d146100ab575061000e565b346100d85760203660031901126100d85760206100ce6100c9610f22565b611108565b6040519015158152f35b80fd5b50346100d85760203660031901126100d8576001600160a01b036100fd610f22565b61010561116c565b16801561015a576001600160a01b0382548273ffffffffffffffffffffffffffffffffffffffff198216178455167f8be0079c531659141344cd1fd0a4f28419497f9722a3daafe3b4186f6b6457e08380a380f35b6024827f1e4fbdf700000000000000000000000000000000000000000000000000000000815280600452fd5b50346100d85760203660031901126100d857600435906101e66101a833611087565b604051906101b7604083610eea565b600182527f32000000000000000000000000000000000000000000000000000000000000006020830152610ff2565b818152600660205260036040822061023e60ff600583015416156040519061020f604083610eea565b600182527f34000000000000000000000000000000000000000000000000000000000000006020830152610ff2565b600481016001600160a01b0333166000528060205261026f60ff60406000205416156040519061020f604083610eea565b6001600160a01b0333166000526020526040600020600160ff198254161790550191825492600019841461033457600183940190556001600160a01b0360015416906001600160a01b0383541690823b1561032f57606484928360405195869485937fe58e9829000000000000000000000000000000000000000000000000000000008552600485015260248401523360448401525af18015610324576103135750f35b8161031d91610eea565b6100d85780f35b6040513d84823e3d90fd5b505050fd5b602483634e487b7160e01b81526011600452fd5b50346100d85760203660031901126100d85760043567ffffffffffffffff81116105155761037a903690600401610f3d565b9061038361116c565b6103ac8251151560405190610399604083610eea565b60018252603360f81b6020830152610ff2565b81519167ffffffffffffffff83116105015768010000000000000000831161050157600254836002558084106104a3575b50602081019260028352825b818110610466578380846001600160a01b0360015416803b156104625761045183929183926040519485809481937f87c2dbae000000000000000000000000000000000000000000000000000000008352336004840152604060248401526044830190610fb5565b03925af18015610324576103135750f35b5050fd5b60019060206001600160a01b03875116960195817f405787fa12a823e0f2b7631cc41b3ba8828b3321ca811111fa75cd3aa3bb5ace0155016103e9565b7f405787fa12a823e0f2b7631cc41b3ba8828b3321ca811111fa75cd3aa3bb5ace01837f405787fa12a823e0f2b7631cc41b3ba8828b3321ca811111fa75cd3aa3bb5ace015b8181106104f657506103dd565b8381556001016104e9565b602482634e487b7160e01b81526041600452fd5b5080fd5b50346100d857806003193601126100d85760405180916020600354928381520191600382527fc2575a0e9e593c00f959f8c92f12db2869c3395a3b0502d05e2516446f71f85b915b8181106105905761058c8561057881870382610eea565b604051918291602083526020830190610fb5565b0390f35b82546001600160a01b0316845260209093019260019283019201610561565b50346100d857806003193601126100d8576001600160a01b036020915416604051908152f35b50346100d85760203660031901126100d85760206100ce6105f4610f22565b611087565b50346100d857806003193601126100d85761061261116c565b806001600160a01b03815473ffffffffffffffffffffffffffffffffffffffff1981168355167f8be0079c531659141344cd1fd0a4f28419497f9722a3daafe3b4186f6b6457e08280a380f35b50346100d85760603660031901126100d857610679610f22565b906024356044356001600160a01b0381168091036108095761069961116c565b6106c06040516106aa604082610eea565b60018152603360f81b6020820152821515610ff2565b60055493600185018095116107f557848495600555845260066020526005604085206001600160a01b03831673ffffffffffffffffffffffffffffffffffffffff19825416178155846001820155600281018473ffffffffffffffffffffffffffffffffffffffff198254161790550160ff1981541690556001600160a01b03600154166001600160a01b03855416926005549060405194610763602087610eea565b8786526000368137833b156107f1576107da889687936001600160a01b03996040519a8b998a9889977f80d028e9000000000000000000000000000000000000000000000000000000008952600489015260248801521660448601526064850152608484015260e060a484015260e4830190610fb5565b8260c483015203925af18015610324576103135750f35b8780fd5b602484634e487b7160e01b81526011600452fd5b8280fd5b5060603660031901126100d85780610823610f22565b6001600160a01b036024359161087961083b82611108565b6040519061084a604083610eea565b600382527f31303200000000000000000000000000000000000000000000000000000000006020830152610ff2565b6108a060405161088a604082610eea565b60018152603360f81b6020820152841515610ff2565b168061094e576108cd6040516108b7604082610eea565b60018152603360f81b6020820152348414610ff2565b6001600160a01b0360015416906001600160a01b0384541691803b1561094a5784928360a49260405196879586947fd4dc773b00000000000000000000000000000000000000000000000000000000865260048601526024850152336044850152606484015260443560848401525af18015610324576103135750f35b8480fd5b6040517f23b872dd00000000000000000000000000000000000000000000000000000000815233600482015230602482015282604482015260208160648187865af180156109d0576109a1575b506108cd565b6109c29060203d6020116109c9575b6109ba8183610eea565b81019061106f565b503861099b565b503d6109b0565b6040513d86823e3d90fd5b50346100d85760203660031901126100d85780600435808252600660205260408220610a486003820154600454111560405190610a19604083610eea565b600382527f38303100000000000000000000000000000000000000000000000000000000006020830152610ff2565b826005820191610a6660ff845416156040519061020f604083610eea565b80546001600160a01b031680610b475750818080926001600160a01b0360024792610ab56001820154948560405191610aa0604084610eea565b60018352603560f81b60208401521015610ff2565b015416828215610b3e575bf115610324575b600160ff198254161790556001600160a01b0360015416906001600160a01b0383541690823b1561032f576040517f330016450000000000000000000000000000000000000000000000000000000081526001600160a01b0390921660048301526024820152908290829081838160448101610451565b506108fc610ac0565b9150604051907f70a08231000000000000000000000000000000000000000000000000000000008252306004830152602082602481865afa918215610c8a578692610c50575b5090610c1c926001600160a01b03600284610bcd60016020970154958660405191610bb9604084610eea565b60018352603560f81b8a8401521015610ff2565b015416876040518096819582947fa9059cbb00000000000000000000000000000000000000000000000000000000845260048401602090939291936001600160a01b0360408201951681520152565b03925af180156109d057610c31575b50610ac7565b610c499060203d6020116109c9576109ba8183610eea565b5038610c2b565b91506020823d602011610c82575b81610c6b60209383610eea565b81010312610c7e57905190610c1c610b8d565b8580fd5b3d9150610c5e565b6040513d88823e3d90fd5b50346100d85760403660031901126100d85760043567ffffffffffffffff811161051557610cc7903690600401610f3d565b60243590610cd361116c565b610d16604051610ce4604082610eea565b600381527f38303000000000000000000000000000000000000000000000000000000000006020820152831515610ff2565b610d5c815183111560405190610d2d604083610eea565b600182527f36000000000000000000000000000000000000000000000000000000000000006020830152610ff2565b805167ffffffffffffffff8111610ed657680100000000000000008111610ed65760035481600355808210610e78575b509083916020820160038452835b828110610e3857505050826004556001600160a01b036001541690813b15610809578291610e0691836040518097819582947f3df5e289000000000000000000000000000000000000000000000000000000008452336004850152606060248501526064840190610fb5565b90604483015203925af18015610e2b57610e1d5780f35b610e2691610eea565b388180f35b50604051903d90823e3d90fd5b81516001600160a01b03167fc2575a0e9e593c00f959f8c92f12db2869c3395a3b0502d05e2516446f71f85b820155869450602090910190600101610d9a565b7fc2575a0e9e593c00f959f8c92f12db2869c3395a3b0502d05e2516446f71f85b01817fc2575a0e9e593c00f959f8c92f12db2869c3395a3b0502d05e2516446f71f85b015b818110610ecb5750610d8c565b858155600101610ebe565b602484634e487b7160e01b81526041600452fd5b90601f8019910116810190811067ffffffffffffffff821117610f0c57604052565b634e487b7160e01b600052604160045260246000fd5b600435906001600160a01b0382168203610f3857565b600080fd5b81601f82011215610f385780359167ffffffffffffffff8311610f0c578260051b916020830193610f716040519586610eea565b8452602080850193820101918211610f3857602001915b818310610f955750505090565b82356001600160a01b0381168103610f3857815260209283019201610f88565b906020808351928381520192019060005b818110610fd35750505090565b82516001600160a01b0316845260209384019390920191600101610fc6565b15610ffa5750565b604051907f08c379a0000000000000000000000000000000000000000000000000000000008252602060048301528181519182602483015260005b8381106110575750508160006044809484010152601f80199101168101030190fd5b60208282018101516044878401015285935001611035565b90816020910312610f3857518015158103610f385790565b600354908160005b83811061109f5750505050600090565b6000828210156110f457600390527fc2575a0e9e593c00f959f8c92f12db2869c3395a3b0502d05e2516446f71f85b8101546001600160a01b038481169116146110eb5760010161108f565b50505050600190565b80634e487b7160e01b602492526032600452fd5b600254908160005b8381106111205750505050600090565b6000828210156110f457600290527f405787fa12a823e0f2b7631cc41b3ba8828b3321ca811111fa75cd3aa3bb5ace8101546001600160a01b038481169116146110eb57600101611110565b6001600160a01b0360005416330361118057565b7f118cdaa7000000000000000000000000000000000000000000000000000000006000523360045260246000fdfea26469706673582212203a7d7ad41fffe6131e9b2da7c29b8168da37fe3df296b156a08f684fe20a792564736f6c634300081c0033a26469706673582212206109274d162fe167d53e16de77f120c8e3eed96ec079c5418e02909b3610828864736f6c634300081c0033",
          "opcodes": "PUSH1 0x80 CALLVALUE PUSH2 0x110 JUMPI PUSH1 0x1F PUSH2 0x314F CODESIZE DUP2 SWAP1 SUB SWAP2 DUP3 ADD PUSH1 0x1F NOT AND DUP4 ADD SWAP2 PUSH1 0x1 PUSH1 0x1 PUSH1 0x40 SHL SUB DUP4 GT DUP5 DUP5 LT OR PUSH2 0x115 JUMPI DUP1 DUP5 SWAP3 PUSH1 0x40 SWAP5 DUP6 MSTORE DUP4 CODECOPY DUP2 ADD SUB SLT PUSH2 0x110 JUMPI DUP1 MLOAD PUSH1 0x1 PUSH1 0x1 PUSH1 0xA0 SHL SUB DUP2 AND SWAP2 SWAP1 DUP3 SWAP1 SUB PUSH2 0x110 JUMPI PUSH1 0x20 ADD MLOAD PUSH1 0x1 PUSH1 0x1 PUSH1 0xA0 SHL SUB DUP2 AND SWAP1 DUP2 SWAP1 SUB PUSH2 0x110 JUMPI PUSH1 0x0 SLOAD SWAP2 CALLER ISZERO PUSH2 0xFA JUMPI PUSH1 0x1 PUSH1 0x1 PUSH1 0xA8 SHL SUB NOT DUP4 AND CALLER PUSH1 0x8 DUP2 DUP2 SHL PUSH2 0x100 PUSH1 0x1 PUSH1 0xA8 SHL SUB AND SWAP3 SWAP1 SWAP3 OR PUSH1 0x0 SWAP1 DUP2 SSTORE PUSH1 0x40 MLOAD SWAP6 SWAP2 SWAP3 SWAP2 SWAP1 SWAP2 SHR PUSH1 0x1 PUSH1 0x1 PUSH1 0xA0 SHL SUB AND SWAP1 PUSH32 0x8BE0079C531659141344CD1FD0A4F28419497F9722A3DAAFE3B4186F6B6457E0 SWAP1 DUP1 LOG3 PUSH1 0x1 DUP1 PUSH1 0xA0 SHL SUB NOT PUSH1 0x1 SLOAD AND OR PUSH1 0x1 SSTORE PUSH1 0x1 DUP1 PUSH1 0xA0 SHL SUB NOT PUSH1 0x2 SLOAD AND OR PUSH1 0x2 SSTORE PUSH2 0x3023 SWAP1 DUP2 PUSH2 0x12C DUP3 CODECOPY RETURN JUMPDEST PUSH4 0x1E4FBDF7 PUSH1 0xE0 SHL PUSH1 0x0 MSTORE PUSH1 0x0 PUSH1 0x4 MSTORE PUSH1 0x24 PUSH1 0x0 REVERT JUMPDEST PUSH1 0x0 DUP1 REVERT JUMPDEST PUSH4 0x4E487B71 PUSH1 0xE0 SHL PUSH1 0x0 MSTORE PUSH1 0x41 PUSH1 0x4 MSTORE PUSH1 0x24 PUSH1 0x0 REVERT INVALID PUSH1 0x80 DUP1 PUSH1 0x40 MSTORE PUSH1 0x4 CALLDATASIZE LT ISZERO PUSH2 0x13 JUMPI PUSH1 0x0 DUP1 REVERT JUMPDEST PUSH1 0x0 SWAP1 DUP2 CALLDATALOAD PUSH1 0xE0 SHR SWAP1 DUP2 PUSH4 0x4D0A647 EQ PUSH2 0x152F JUMPI POP DUP1 PUSH4 0x1F32768E EQ PUSH2 0x141D JUMPI DUP1 PUSH4 0x2E275B3C EQ PUSH2 0xF82 JUMPI DUP1 PUSH4 0x31443E0D EQ PUSH2 0xE2F JUMPI DUP1 PUSH4 0x3F4BA83A EQ PUSH2 0xDB0 JUMPI DUP1 PUSH4 0x595C4E63 EQ PUSH2 0xB11 JUMPI DUP1 PUSH4 0x5C975ABB EQ PUSH2 0xAEF JUMPI DUP1 PUSH4 0x715018A6 EQ PUSH2 0xA85 JUMPI DUP1 PUSH4 0x8456CB59 EQ PUSH2 0xA2C JUMPI DUP1 PUSH4 0x8DA5CB5B EQ PUSH2 0xA03 JUMPI DUP1 PUSH4 0x9EF2DDA6 EQ PUSH2 0x73B JUMPI DUP1 PUSH4 0xB2734EAF EQ PUSH2 0x66D JUMPI DUP1 PUSH4 0xBA4950D8 EQ PUSH2 0x189 JUMPI PUSH4 0xF2FDE38B EQ PUSH2 0xBB JUMPI PUSH1 0x0 DUP1 REVERT JUMPDEST CALLVALUE PUSH2 0x186 JUMPI PUSH1 0x20 CALLDATASIZE PUSH1 0x3 NOT ADD SLT PUSH2 0x186 JUMPI PUSH2 0xD4 PUSH2 0x1569 JUMP JUMPDEST PUSH2 0xDC PUSH2 0x19E3 JUMP JUMPDEST PUSH1 0x1 PUSH1 0x1 PUSH1 0xA0 SHL SUB DUP2 AND SWAP1 DUP2 ISZERO PUSH2 0x15A JUMPI PUSH1 0x1 PUSH1 0x1 PUSH1 0xA0 SHL SUB SWAP1 PUSH21 0xFFFFFFFFFFFFFFFFFFFFFFFFFFFFFFFFFFFFFFFF00 DUP5 SLOAD SWAP2 PUSH1 0x8 SHL AND PUSH21 0xFFFFFFFFFFFFFFFFFFFFFFFFFFFFFFFFFFFFFFFF00 NOT DUP3 AND OR DUP5 SSTORE PUSH1 0x8 SHR AND PUSH32 0x8BE0079C531659141344CD1FD0A4F28419497F9722A3DAAFE3B4186F6B6457E0 DUP4 DUP1 LOG3 DUP1 RETURN JUMPDEST PUSH1 0x24 DUP4 PUSH32 0x1E4FBDF700000000000000000000000000000000000000000000000000000000 DUP2 MSTORE DUP1 PUSH1 0x4 MSTORE REVERT JUMPDEST DUP1 REVERT JUMPDEST POP CALLVALUE PUSH2 0x186 JUMPI PUSH1 0x20 CALLDATASIZE PUSH1 0x3 NOT ADD SLT PUSH2 0x186 JUMPI PUSH1 0x4 CALLDATALOAD PUSH8 0xFFFFFFFFFFFFFFFF DUP2 GT PUSH2 0x669 JUMPI PUSH1 0xA0 PUSH1 0x3 NOT DUP3 CALLDATASIZE SUB ADD SLT PUSH2 0x669 JUMPI PUSH1 0x40 MLOAD SWAP1 PUSH2 0x1C8 DUP3 PUSH2 0x1643 JUMP JUMPDEST PUSH2 0x1D4 DUP2 PUSH1 0x4 ADD PUSH2 0x1584 JUMP JUMPDEST DUP3 MSTORE PUSH1 0x24 DUP2 ADD CALLDATALOAD PUSH1 0x20 DUP4 ADD MSTORE PUSH1 0x44 DUP2 ADD CALLDATALOAD PUSH1 0x40 DUP4 ADD MSTORE PUSH1 0x64 DUP2 ADD CALLDATALOAD PUSH1 0x60 DUP4 ADD MSTORE PUSH1 0x84 DUP2 ADD CALLDATALOAD SWAP1 PUSH8 0xFFFFFFFFFFFFFFFF DUP3 GT PUSH2 0x665 JUMPI PUSH1 0x4 PUSH2 0x218 SWAP3 CALLDATASIZE SWAP3 ADD ADD PUSH2 0x1681 JUMP JUMPDEST PUSH1 0x80 DUP3 ADD MSTORE PUSH2 0x225 PUSH2 0x19AD JUMP JUMPDEST CALLER DUP3 MSTORE PUSH1 0x5 PUSH1 0x20 MSTORE PUSH2 0x251 PUSH1 0x1 PUSH1 0x1 PUSH1 0xA0 SHL SUB PUSH1 0x2 PUSH1 0x40 DUP6 KECCAK256 ADD SLOAD AND ISZERO ISZERO PUSH2 0x24B PUSH2 0x1937 JUMP JUMPDEST SWAP1 PUSH2 0x1899 JUMP JUMPDEST PUSH1 0x3 SLOAD SWAP1 PUSH1 0x1 DUP3 ADD DUP1 SWAP3 GT PUSH2 0x651 JUMPI DUP2 PUSH1 0x3 SSTORE PUSH1 0x1 PUSH1 0x1 PUSH1 0xA0 SHL SUB DUP2 MLOAD AND SWAP1 PUSH1 0x20 DUP2 ADD MLOAD SWAP2 PUSH1 0x40 DUP3 ADD MLOAD SWAP3 PUSH1 0x60 DUP4 ADD MLOAD SWAP1 PUSH1 0x80 DUP5 ADD MLOAD PUSH1 0x40 MLOAD SWAP4 PUSH2 0x294 DUP6 PUSH2 0x15D9 JUMP JUMPDEST DUP5 MSTORE PUSH1 0x20 DUP5 ADD SWAP2 DUP3 MSTORE PUSH1 0x40 DUP5 ADD SWAP6 DUP7 MSTORE PUSH1 0x60 DUP5 ADD SWAP3 DUP4 MSTORE PUSH1 0x80 DUP5 ADD SWAP1 DUP2 MSTORE CALLER PUSH1 0xA0 DUP6 ADD MSTORE PUSH1 0xC0 DUP5 ADD SWAP3 PUSH1 0x1 DUP5 MSTORE PUSH1 0x40 SWAP7 PUSH1 0x20 PUSH2 0x339 DUP10 MLOAD PUSH2 0x2D5 DUP12 DUP3 PUSH2 0x165F JUMP JUMPDEST PUSH1 0x8 DUP2 MSTORE PUSH32 0x4D65726368616E74000000000000000000000000000000000000000000000000 DUP4 DUP3 ADD MSTORE DUP11 MLOAD SWAP12 DUP13 SWAP3 DUP4 SWAP3 PUSH32 0xD3D1752200000000000000000000000000000000000000000000000000000000 DUP5 MSTORE PUSH1 0x60 PUSH1 0x4 DUP6 ADD MSTORE PUSH1 0x64 DUP5 ADD SWAP1 PUSH2 0x1598 JUMP JUMPDEST SWAP1 CALLER PUSH1 0x24 DUP5 ADD MSTORE PUSH1 0x44 DUP4 ADD MSTORE SUB DUP2 PUSH20 0x0 GAS DELEGATECALL SWAP9 DUP10 ISZERO PUSH2 0x647 JUMPI DUP11 SWAP10 PUSH2 0x60F JUMPI JUMPDEST POP DUP9 DUP11 MSTORE PUSH1 0x4 PUSH1 0x20 MSTORE DUP8 DUP11 KECCAK256 SWAP4 PUSH1 0x1 PUSH1 0x1 PUSH1 0xA0 SHL SUB DUP1 DUP9 MLOAD AND AND PUSH20 0xFFFFFFFFFFFFFFFFFFFFFFFFFFFFFFFFFFFFFFFF NOT DUP7 SLOAD AND OR DUP6 SSTORE MLOAD PUSH1 0x1 DUP6 ADD SSTORE MLOAD PUSH1 0x2 DUP5 ADD SSTORE MLOAD PUSH1 0x3 DUP4 ADD SSTORE MLOAD DUP1 MLOAD SWAP1 PUSH8 0xFFFFFFFFFFFFFFFF DUP3 GT PUSH2 0x5FB JUMPI PUSH2 0x3D4 PUSH1 0x4 DUP5 ADD SLOAD PUSH2 0x17BB JUMP JUMPDEST PUSH1 0x1F DUP2 GT PUSH2 0x5BD JUMPI JUMPDEST POP PUSH1 0x20 SWAP1 DUP10 PUSH1 0x1F DUP5 GT PUSH1 0x1 EQ PUSH2 0x53C JUMPI PUSH2 0x469 SWAP7 SWAP6 SWAP5 PUSH2 0x423 DUP6 PUSH1 0x1 PUSH1 0x1 PUSH1 0xA0 SHL SUB SWAP7 DUP8 SWAP7 PUSH1 0xA0 SWAP7 PUSH1 0x5 SWAP7 SWAP3 PUSH2 0x531 JUMPI JUMPDEST POP POP DUP2 PUSH1 0x1 SHL SWAP2 PUSH1 0x0 NOT SWAP1 PUSH1 0x3 SHL SHR NOT AND OR SWAP1 JUMP JUMPDEST PUSH1 0x4 DUP3 ADD SSTORE JUMPDEST ADD SWAP5 ADD MLOAD AND AND PUSH20 0xFFFFFFFFFFFFFFFFFFFFFFFFFFFFFFFFFFFFFFFF NOT DUP4 SLOAD AND OR DUP3 SSTORE MLOAD ISZERO ISZERO PUSH1 0xFF PUSH1 0xA0 SHL NOT PUSH1 0xFF PUSH1 0xA0 SHL DUP4 SLOAD SWAP3 ISZERO ISZERO PUSH1 0xA0 SHL AND SWAP2 AND OR SWAP1 SSTORE JUMP JUMPDEST DUP4 PUSH1 0x1 PUSH1 0x1 PUSH1 0xA0 SHL SUB PUSH1 0x1 SLOAD AND SWAP2 PUSH1 0x20 DUP2 ADD MLOAD SWAP3 PUSH1 0x40 DUP3 ADD MLOAD PUSH1 0x80 PUSH1 0x60 DUP5 ADD MLOAD SWAP4 ADD MLOAD SWAP5 DUP3 EXTCODESIZE ISZERO PUSH2 0x52D JUMPI DUP5 SWAP1 PUSH2 0x4F1 DUP9 MLOAD SWAP8 DUP9 SWAP7 DUP8 SWAP6 DUP7 SWAP5 PUSH32 0x263D1FA000000000000000000000000000000000000000000000000000000000 DUP7 MSTORE DUP14 PUSH1 0x4 DUP8 ADD MSTORE CALLER PUSH1 0x24 DUP8 ADD MSTORE PUSH1 0x44 DUP7 ADD MSTORE PUSH1 0x64 DUP6 ADD MSTORE PUSH1 0x84 DUP5 ADD MSTORE PUSH1 0xC0 PUSH1 0xA4 DUP5 ADD MSTORE PUSH1 0xC4 DUP4 ADD SWAP1 PUSH2 0x1598 JUMP JUMPDEST SUB SWAP3 GAS CALL DUP1 ISZERO PUSH2 0x523 JUMPI PUSH2 0x50A JUMPI JUMPDEST PUSH1 0x20 DUP4 DUP4 MLOAD SWAP1 DUP2 MSTORE RETURN JUMPDEST PUSH2 0x515 DUP5 DUP1 SWAP3 PUSH2 0x165F JUMP JUMPDEST PUSH2 0x51F JUMPI DUP3 PUSH2 0x500 JUMP JUMPDEST DUP3 DUP1 REVERT JUMPDEST DUP3 MLOAD RETURNDATASIZE DUP7 DUP3 RETURNDATACOPY RETURNDATASIZE SWAP1 REVERT JUMPDEST DUP5 DUP1 REVERT JUMPDEST ADD MLOAD SWAP1 POP CODESIZE DUP1 PUSH2 0x40E JUMP JUMPDEST POP SWAP1 PUSH1 0x4 DUP5 ADD DUP11 MSTORE DUP1 DUP11 KECCAK256 SWAP2 DUP11 JUMPDEST PUSH1 0x1F NOT DUP6 AND DUP2 LT PUSH2 0x5A5 JUMPI POP PUSH2 0x469 SWAP7 SWAP6 SWAP5 PUSH1 0x1 DUP6 PUSH1 0x1 PUSH1 0x1 PUSH1 0xA0 SHL SUB SWAP7 SWAP6 PUSH1 0xA0 SWAP6 PUSH1 0x5 SWAP6 DUP10 SWAP9 PUSH1 0x1F NOT DUP2 AND LT PUSH2 0x58C JUMPI JUMPDEST POP POP POP DUP2 SHL ADD PUSH1 0x4 DUP3 ADD SSTORE PUSH2 0x429 JUMP JUMPDEST ADD MLOAD PUSH1 0x0 NOT PUSH1 0xF8 DUP5 PUSH1 0x3 SHL AND SHR NOT AND SWAP1 SSTORE CODESIZE DUP1 DUP1 PUSH2 0x57C JUMP JUMPDEST SWAP2 SWAP3 PUSH1 0x20 PUSH1 0x1 DUP2 SWAP3 DUP7 DUP6 ADD MLOAD DUP2 SSTORE ADD SWAP5 ADD SWAP3 ADD PUSH2 0x54A JUMP JUMPDEST PUSH2 0x5EB SWAP1 PUSH1 0x4 DUP6 ADD DUP12 MSTORE PUSH1 0x20 DUP12 KECCAK256 PUSH1 0x1F DUP6 ADD PUSH1 0x5 SHR DUP2 ADD SWAP2 PUSH1 0x20 DUP7 LT PUSH2 0x5F1 JUMPI JUMPDEST PUSH1 0x1F ADD PUSH1 0x5 SHR ADD SWAP1 PUSH2 0x1920 JUMP JUMPDEST CODESIZE PUSH2 0x3DD JUMP JUMPDEST SWAP1 SWAP2 POP DUP2 SWAP1 PUSH2 0x5DE JUMP JUMPDEST PUSH1 0x24 DUP10 PUSH4 0x4E487B71 PUSH1 0xE0 SHL DUP2 MSTORE PUSH1 0x41 PUSH1 0x4 MSTORE REVERT JUMPDEST SWAP1 SWAP9 POP PUSH1 0x20 DUP2 RETURNDATASIZE PUSH1 0x20 GT PUSH2 0x63F JUMPI JUMPDEST DUP2 PUSH2 0x62B PUSH1 0x20 SWAP4 DUP4 PUSH2 0x165F JUMP JUMPDEST DUP2 ADD SUB SLT PUSH2 0x63B JUMPI MLOAD SWAP8 CODESIZE PUSH2 0x36C JUMP JUMPDEST DUP10 DUP1 REVERT JUMPDEST RETURNDATASIZE SWAP2 POP PUSH2 0x61E JUMP JUMPDEST DUP9 MLOAD RETURNDATASIZE DUP13 DUP3 RETURNDATACOPY RETURNDATASIZE SWAP1 REVERT JUMPDEST PUSH1 0x24 DUP4 PUSH4 0x4E487B71 PUSH1 0xE0 SHL DUP2 MSTORE PUSH1 0x11 PUSH1 0x4 MSTORE REVERT JUMPDEST DUP4 DUP1 REVERT JUMPDEST POP DUP1 REVERT JUMPDEST POP CALLVALUE PUSH2 0x186 JUMPI PUSH1 0x20 CALLDATASIZE PUSH1 0x3 NOT ADD SLT PUSH2 0x186 JUMPI PUSH1 0x40 PUSH2 0x72F SWAP2 PUSH1 0x1 PUSH1 0x1 PUSH1 0xA0 SHL SUB PUSH2 0x695 PUSH2 0x1569 JUMP JUMPDEST DUP3 PUSH1 0x20 DUP6 MLOAD PUSH2 0x6A3 DUP2 PUSH2 0x160B JUMP JUMPDEST DUP7 MLOAD PUSH2 0x6AE DUP2 PUSH2 0x160B JUMP JUMPDEST DUP4 DUP2 MSTORE PUSH1 0x60 DUP4 DUP3 ADD MSTORE DUP2 MSTORE ADD MSTORE AND DUP2 MSTORE PUSH1 0x5 PUSH1 0x20 MSTORE KECCAK256 PUSH1 0x1 PUSH1 0x1 PUSH1 0xA0 SHL SUB PUSH1 0x2 PUSH1 0x40 MLOAD SWAP3 PUSH2 0x6DB DUP5 PUSH2 0x160B JUMP JUMPDEST PUSH1 0x40 MLOAD PUSH2 0x6E7 DUP2 PUSH2 0x160B JUMP JUMPDEST PUSH1 0xFF DUP3 SLOAD AND DUP2 MSTORE PUSH2 0x6FA PUSH1 0x1 DUP4 ADD PUSH2 0x17F5 JUMP JUMPDEST PUSH1 0x20 DUP3 ADD MSTORE DUP5 MSTORE ADD SLOAD AND PUSH1 0x20 DUP3 ADD SWAP1 DUP2 MSTORE PUSH1 0x1 PUSH1 0x1 PUSH1 0xA0 SHL SUB PUSH1 0x40 MLOAD SWAP4 DUP5 SWAP4 PUSH1 0x20 DUP6 MSTORE MLOAD PUSH1 0x40 PUSH1 0x20 DUP7 ADD MSTORE PUSH1 0x60 DUP6 ADD SWAP1 PUSH2 0x1798 JUMP JUMPDEST SWAP2 MLOAD AND PUSH1 0x40 DUP4 ADD MSTORE SUB SWAP1 RETURN JUMPDEST POP CALLVALUE PUSH2 0x186 JUMPI PUSH1 0x20 CALLDATASIZE PUSH1 0x3 NOT ADD SLT PUSH2 0x186 JUMPI PUSH1 0x4 CALLDATALOAD SWAP1 PUSH8 0xFFFFFFFFFFFFFFFF DUP3 GT PUSH2 0x186 JUMPI PUSH1 0xA0 PUSH1 0x3 NOT DUP4 CALLDATASIZE SUB ADD SLT PUSH2 0x186 JUMPI PUSH1 0x40 MLOAD PUSH2 0x77A DUP2 PUSH2 0x1643 JUMP JUMPDEST DUP3 PUSH1 0x4 ADD CALLDATALOAD DUP2 MSTORE PUSH1 0x20 DUP2 ADD PUSH1 0x24 DUP5 ADD CALLDATALOAD DUP2 MSTORE PUSH1 0x40 DUP3 ADD SWAP4 PUSH1 0x44 DUP2 ADD CALLDATALOAD DUP6 MSTORE PUSH1 0x64 DUP2 ADD CALLDATALOAD PUSH8 0xFFFFFFFFFFFFFFFF DUP2 GT PUSH2 0x52D JUMPI PUSH2 0x7BE PUSH1 0x84 SWAP2 PUSH1 0x4 CALLDATASIZE SWAP2 DUP6 ADD ADD PUSH2 0x1681 JUMP JUMPDEST SWAP2 PUSH1 0x60 DUP6 ADD SWAP3 DUP4 MSTORE ADD CALLDATALOAD SWAP3 DUP4 ISZERO ISZERO DUP5 SUB PUSH2 0x52D JUMPI PUSH1 0x80 DUP2 ADD SWAP4 DUP5 MSTORE PUSH2 0x7E1 PUSH2 0x19AD JUMP JUMPDEST CALLER DUP6 MSTORE PUSH1 0x5 PUSH1 0x20 MSTORE PUSH2 0x807 PUSH1 0x1 PUSH1 0x1 PUSH1 0xA0 SHL SUB PUSH1 0x2 PUSH1 0x40 DUP9 KECCAK256 ADD SLOAD AND ISZERO ISZERO PUSH2 0x24B PUSH2 0x1937 JUMP JUMPDEST DUP1 MLOAD DUP6 MSTORE PUSH1 0x4 PUSH1 0x20 MSTORE PUSH1 0x40 DUP6 KECCAK256 SWAP6 PUSH1 0x5 DUP8 ADD SWAP5 PUSH2 0x832 CALLER PUSH1 0x1 PUSH1 0x1 PUSH1 0xA0 SHL SUB DUP9 SLOAD AND EQ PUSH2 0x24B PUSH2 0x1972 JUMP JUMPDEST DUP5 MLOAD PUSH1 0x2 DUP10 ADD SSTORE DUP2 MLOAD PUSH1 0x3 DUP10 ADD SSTORE PUSH1 0x4 DUP5 MLOAD SWAP9 ADD DUP9 MLOAD PUSH8 0xFFFFFFFFFFFFFFFF DUP2 GT PUSH2 0x5FB JUMPI PUSH2 0x861 DUP3 SLOAD PUSH2 0x17BB JUMP JUMPDEST PUSH1 0x1F DUP2 GT PUSH2 0x9D3 JUMPI JUMPDEST POP PUSH1 0x20 PUSH1 0x1F DUP3 GT PUSH1 0x1 EQ PUSH2 0x96B JUMPI DUP2 PUSH2 0x8C4 SWAP5 SWAP4 SWAP3 PUSH2 0x8A0 SWAP3 DUP13 SWAP14 DUP14 SWAP3 PUSH2 0x531 JUMPI POP POP DUP2 PUSH1 0x1 SHL SWAP2 PUSH1 0x0 NOT SWAP1 PUSH1 0x3 SHL SHR NOT AND OR SWAP1 JUMP JUMPDEST SWAP1 SSTORE JUMPDEST MLOAD ISZERO ISZERO DUP1 SWAP7 SWAP1 PUSH1 0xFF PUSH1 0xA0 SHL NOT PUSH1 0xFF PUSH1 0xA0 SHL DUP4 SLOAD SWAP3 ISZERO ISZERO PUSH1 0xA0 SHL AND SWAP2 AND OR SWAP1 SSTORE JUMP JUMPDEST PUSH1 0x1 PUSH1 0x1 PUSH1 0xA0 SHL SUB PUSH1 0x1 SLOAD AND SWAP2 MLOAD SWAP4 MLOAD SWAP1 MLOAD SWAP3 MLOAD SWAP5 DUP3 EXTCODESIZE ISZERO PUSH2 0x967 JUMPI DUP7 SWAP5 DUP6 SWAP2 PUSH2 0x934 PUSH1 0x40 MLOAD SWAP9 DUP10 SWAP8 DUP9 SWAP7 DUP8 SWAP6 PUSH32 0x28DC3D8900000000000000000000000000000000000000000000000000000000 DUP8 MSTORE PUSH1 0x4 DUP8 ADD MSTORE PUSH1 0x24 DUP7 ADD MSTORE PUSH1 0x44 DUP6 ADD MSTORE PUSH1 0xA0 PUSH1 0x64 DUP6 ADD MSTORE PUSH1 0xA4 DUP5 ADD SWAP1 PUSH2 0x1598 JUMP JUMPDEST SWAP1 PUSH1 0x84 DUP4 ADD MSTORE SUB SWAP3 GAS CALL DUP1 ISZERO PUSH2 0x95C JUMPI PUSH2 0x94B JUMPI POP RETURN JUMPDEST DUP2 PUSH2 0x955 SWAP2 PUSH2 0x165F JUMP JUMPDEST PUSH2 0x186 JUMPI DUP1 RETURN JUMPDEST PUSH1 0x40 MLOAD RETURNDATASIZE DUP5 DUP3 RETURNDATACOPY RETURNDATASIZE SWAP1 REVERT JUMPDEST DUP7 DUP1 REVERT JUMPDEST DUP3 DUP11 MSTORE DUP1 DUP11 KECCAK256 SWAP11 PUSH1 0x1F NOT DUP4 AND DUP12 JUMPDEST DUP2 DUP2 LT PUSH2 0x9BB JUMPI POP SWAP12 PUSH1 0x1 SWAP3 DUP5 SWAP3 PUSH2 0x8C4 SWAP8 SWAP7 SWAP6 DUP15 SWAP16 LT PUSH2 0x9A2 JUMPI JUMPDEST POP POP POP DUP2 SHL ADD SWAP1 SSTORE PUSH2 0x8A3 JUMP JUMPDEST ADD MLOAD PUSH1 0x0 NOT PUSH1 0xF8 DUP5 PUSH1 0x3 SHL AND SHR NOT AND SWAP1 SSTORE CODESIZE DUP1 DUP1 PUSH2 0x995 JUMP JUMPDEST DUP4 DUP4 ADD MLOAD DUP15 SSTORE PUSH1 0x1 SWAP1 SWAP14 ADD SWAP13 PUSH1 0x20 SWAP4 DUP5 ADD SWAP4 ADD PUSH2 0x979 JUMP JUMPDEST PUSH2 0x9FD SWAP1 DUP4 DUP12 MSTORE PUSH1 0x20 DUP12 KECCAK256 PUSH1 0x1F DUP5 ADD PUSH1 0x5 SHR DUP2 ADD SWAP2 PUSH1 0x20 DUP6 LT PUSH2 0x5F1 JUMPI PUSH1 0x1F ADD PUSH1 0x5 SHR ADD SWAP1 PUSH2 0x1920 JUMP JUMPDEST CODESIZE PUSH2 0x86A JUMP JUMPDEST POP CALLVALUE PUSH2 0x186 JUMPI DUP1 PUSH1 0x3 NOT CALLDATASIZE ADD SLT PUSH2 0x186 JUMPI PUSH1 0x1 PUSH1 0x1 PUSH1 0xA0 SHL SUB PUSH1 0x20 SWAP2 SLOAD PUSH1 0x8 SHR AND PUSH1 0x40 MLOAD SWAP1 DUP2 MSTORE RETURN JUMPDEST POP CALLVALUE PUSH2 0x186 JUMPI DUP1 PUSH1 0x3 NOT CALLDATASIZE ADD SLT PUSH2 0x186 JUMPI PUSH2 0xA45 PUSH2 0x19E3 JUMP JUMPDEST PUSH2 0xA4D PUSH2 0x19AD JUMP JUMPDEST PUSH1 0x1 PUSH1 0xFF NOT DUP3 SLOAD AND OR DUP2 SSTORE PUSH32 0x62E78CEA01BEE320CD4E420270B5EA74000D11B0C9F74754EBDBFC544B05A258 PUSH1 0x20 PUSH1 0x40 MLOAD CALLER DUP2 MSTORE LOG1 DUP1 RETURN JUMPDEST POP CALLVALUE PUSH2 0x186 JUMPI DUP1 PUSH1 0x3 NOT CALLDATASIZE ADD SLT PUSH2 0x186 JUMPI PUSH2 0xA9E PUSH2 0x19E3 JUMP JUMPDEST DUP1 PUSH1 0x1 PUSH1 0x1 PUSH1 0xA0 SHL SUB DUP2 SLOAD PUSH21 0xFFFFFFFFFFFFFFFFFFFFFFFFFFFFFFFFFFFFFFFF00 NOT DUP2 AND DUP4 SSTORE PUSH1 0x8 SHR AND PUSH32 0x8BE0079C531659141344CD1FD0A4F28419497F9722A3DAAFE3B4186F6B6457E0 DUP3 DUP1 LOG3 DUP1 RETURN JUMPDEST POP CALLVALUE PUSH2 0x186 JUMPI DUP1 PUSH1 0x3 NOT CALLDATASIZE ADD SLT PUSH2 0x186 JUMPI PUSH1 0xFF PUSH1 0x20 SWAP2 SLOAD AND PUSH1 0x40 MLOAD SWAP1 ISZERO ISZERO DUP2 MSTORE RETURN JUMPDEST POP CALLVALUE PUSH2 0x186 JUMPI PUSH1 0x20 CALLDATASIZE PUSH1 0x3 NOT ADD SLT PUSH2 0x186 JUMPI PUSH1 0x4 CALLDATALOAD SWAP1 PUSH8 0xFFFFFFFFFFFFFFFF DUP3 GT PUSH2 0x186 JUMPI PUSH1 0x20 PUSH1 0x3 NOT DUP4 CALLDATASIZE SUB ADD SLT PUSH2 0x186 JUMPI PUSH1 0x40 MLOAD SWAP2 PUSH2 0xB51 DUP4 PUSH2 0x1627 JUMP JUMPDEST DUP1 PUSH1 0x4 ADD CALLDATALOAD PUSH8 0xFFFFFFFFFFFFFFFF DUP2 GT PUSH2 0x51F JUMPI PUSH2 0xB74 SWAP2 CALLDATASIZE SWAP2 ADD PUSH1 0x4 ADD PUSH2 0x16D8 JUMP JUMPDEST DUP3 MSTORE PUSH2 0xB7E PUSH2 0x19AD JUMP JUMPDEST CALLER DUP2 MSTORE PUSH1 0x5 PUSH1 0x20 MSTORE PUSH2 0xBA4 PUSH1 0x1 PUSH1 0x1 PUSH1 0xA0 SHL SUB PUSH1 0x2 PUSH1 0x40 DUP5 KECCAK256 ADD SLOAD AND ISZERO ISZERO PUSH2 0x24B PUSH2 0x1937 JUMP JUMPDEST DUP2 MLOAD SWAP2 CALLER DUP3 MSTORE PUSH1 0x5 PUSH1 0x20 MSTORE PUSH1 0x1 PUSH1 0x1 PUSH1 0xA0 SHL SUB PUSH1 0x2 PUSH1 0x40 DUP5 KECCAK256 ADD SLOAD AND SWAP3 PUSH1 0x40 MLOAD SWAP1 PUSH2 0xBCE DUP3 PUSH2 0x160B JUMP JUMPDEST DUP2 MSTORE PUSH1 0x20 DUP2 ADD SWAP4 DUP5 MSTORE CALLER DUP4 MSTORE PUSH1 0x5 PUSH1 0x20 MSTORE PUSH1 0x40 DUP4 KECCAK256 SWAP1 MLOAD SWAP4 PUSH1 0xFF DUP6 MLOAD AND PUSH1 0xFF NOT DUP4 SLOAD AND OR DUP3 SSTORE PUSH1 0x20 PUSH1 0x1 DUP4 ADD SWAP6 ADD MLOAD SWAP5 DUP6 MLOAD PUSH8 0xFFFFFFFFFFFFFFFF DUP2 GT PUSH2 0xD9C JUMPI PUSH2 0xC19 DUP3 SLOAD PUSH2 0x17BB JUMP JUMPDEST PUSH1 0x1F DUP2 GT PUSH2 0xD6C JUMPI JUMPDEST POP PUSH1 0x20 PUSH1 0x1F DUP3 GT PUSH1 0x1 EQ PUSH2 0xCFC JUMPI SWAP3 PUSH1 0x2 SWAP3 PUSH2 0xC61 DUP4 PUSH1 0x1 PUSH1 0x1 PUSH1 0xA0 SHL SUB SWAP7 SWAP5 DUP8 SWAP6 DUP12 SWAP13 DUP13 SWAP3 PUSH2 0x531 JUMPI POP POP DUP2 PUSH1 0x1 SHL SWAP2 PUSH1 0x0 NOT SWAP1 PUSH1 0x3 SHL SHR NOT AND OR SWAP1 JUMP JUMPDEST SWAP1 SSTORE JUMPDEST MLOAD AND SWAP3 ADD SWAP2 AND PUSH20 0xFFFFFFFFFFFFFFFFFFFFFFFFFFFFFFFFFFFFFFFF NOT DUP3 SLOAD AND OR SWAP1 SSTORE PUSH1 0x1 PUSH1 0x1 PUSH1 0xA0 SHL SUB PUSH1 0x1 SLOAD AND SWAP1 MLOAD SWAP1 DUP1 EXTCODESIZE ISZERO PUSH2 0xCF8 JUMPI PUSH2 0xCE7 DUP4 SWAP3 SWAP2 DUP4 SWAP3 PUSH1 0x40 MLOAD SWAP5 DUP6 DUP1 SWAP5 DUP2 SWAP4 PUSH32 0xADE33FD900000000000000000000000000000000000000000000000000000000 DUP4 MSTORE CALLER PUSH1 0x4 DUP5 ADD MSTORE PUSH1 0x40 PUSH1 0x24 DUP5 ADD MSTORE PUSH1 0x44 DUP4 ADD SWAP1 PUSH2 0x1798 JUMP JUMPDEST SUB SWAP3 GAS CALL DUP1 ISZERO PUSH2 0x95C JUMPI PUSH2 0x94B JUMPI POP RETURN JUMPDEST POP POP REVERT JUMPDEST DUP3 DUP8 MSTORE DUP1 DUP8 KECCAK256 SWAP8 PUSH1 0x1F NOT DUP4 AND DUP9 JUMPDEST DUP2 DUP2 LT PUSH2 0xD54 JUMPI POP DUP4 DUP10 SWAP11 PUSH1 0x1 PUSH1 0x1 PUSH1 0xA0 SHL SUB SWAP8 SWAP5 PUSH1 0x2 SWAP8 SWAP5 DUP10 SWAP8 PUSH1 0x1 SWAP6 LT PUSH2 0xD3B JUMPI JUMPDEST POP POP POP DUP2 SHL ADD SWAP1 SSTORE PUSH2 0xC64 JUMP JUMPDEST ADD MLOAD PUSH1 0x0 NOT PUSH1 0xF8 DUP5 PUSH1 0x3 SHL AND SHR NOT AND SWAP1 SSTORE CODESIZE DUP1 DUP1 PUSH2 0xD2E JUMP JUMPDEST DUP4 DUP4 ADD MLOAD DUP12 SSTORE PUSH1 0x1 SWAP1 SWAP11 ADD SWAP10 PUSH1 0x20 SWAP4 DUP5 ADD SWAP4 ADD PUSH2 0xD0A JUMP JUMPDEST PUSH2 0xD96 SWAP1 DUP4 DUP9 MSTORE PUSH1 0x20 DUP9 KECCAK256 PUSH1 0x1F DUP5 ADD PUSH1 0x5 SHR DUP2 ADD SWAP2 PUSH1 0x20 DUP6 LT PUSH2 0x5F1 JUMPI PUSH1 0x1F ADD PUSH1 0x5 SHR ADD SWAP1 PUSH2 0x1920 JUMP JUMPDEST CODESIZE PUSH2 0xC22 JUMP JUMPDEST PUSH1 0x24 DUP7 PUSH4 0x4E487B71 PUSH1 0xE0 SHL DUP2 MSTORE PUSH1 0x41 PUSH1 0x4 MSTORE REVERT JUMPDEST POP CALLVALUE PUSH2 0x186 JUMPI DUP1 PUSH1 0x3 NOT CALLDATASIZE ADD SLT PUSH2 0x186 JUMPI PUSH2 0xDC9 PUSH2 0x19E3 JUMP JUMPDEST DUP1 SLOAD PUSH1 0xFF DUP2 AND ISZERO PUSH2 0xE07 JUMPI PUSH1 0xFF NOT AND DUP2 SSTORE PUSH32 0x5DB9EE0A495BF2E6FF9C91A7834C1BA4FDD244A5E8AA4E537BD38AEAE4B073AA PUSH1 0x20 PUSH1 0x40 MLOAD CALLER DUP2 MSTORE LOG1 DUP1 RETURN JUMPDEST PUSH1 0x4 DUP3 PUSH32 0x8DFC202B00000000000000000000000000000000000000000000000000000000 DUP2 MSTORE REVERT JUMPDEST POP CALLVALUE PUSH2 0x186 JUMPI PUSH1 0x20 CALLDATASIZE PUSH1 0x3 NOT ADD SLT PUSH2 0x186 JUMPI DUP1 PUSH1 0x40 MLOAD PUSH2 0xE4E DUP2 PUSH2 0x1627 JUMP JUMPDEST PUSH1 0x4 CALLDATALOAD DUP2 MSTORE PUSH2 0xE5B PUSH2 0x19AD JUMP JUMPDEST CALLER DUP3 MSTORE PUSH1 0x5 PUSH1 0x20 MSTORE PUSH2 0xE81 PUSH1 0x1 PUSH1 0x1 PUSH1 0xA0 SHL SUB PUSH1 0x2 PUSH1 0x40 DUP6 KECCAK256 ADD SLOAD AND ISZERO ISZERO PUSH2 0x24B PUSH2 0x1937 JUMP JUMPDEST DUP1 MLOAD DUP3 MSTORE PUSH1 0x4 PUSH1 0x20 MSTORE PUSH2 0xEA8 CALLER PUSH1 0x1 PUSH1 0x1 PUSH1 0xA0 SHL SUB PUSH1 0x5 PUSH1 0x40 DUP7 KECCAK256 ADD SLOAD AND EQ PUSH2 0x24B PUSH2 0x1972 JUMP JUMPDEST DUP1 MLOAD DUP3 MSTORE PUSH1 0x4 PUSH1 0x20 MSTORE DUP2 PUSH1 0x5 PUSH1 0x40 DUP3 KECCAK256 DUP3 DUP2 SSTORE DUP3 PUSH1 0x1 DUP3 ADD SSTORE DUP3 PUSH1 0x2 DUP3 ADD SSTORE DUP3 PUSH1 0x3 DUP3 ADD SSTORE DUP3 PUSH1 0x4 DUP3 ADD PUSH2 0xEDC DUP2 SLOAD PUSH2 0x17BB JUMP JUMPDEST DUP1 PUSH2 0xF41 JUMPI JUMPDEST POP POP POP ADD SSTORE PUSH1 0x1 PUSH1 0x1 PUSH1 0xA0 SHL SUB PUSH1 0x1 SLOAD AND SWAP1 MLOAD DUP2 EXTCODESIZE ISZERO PUSH2 0xCF8 JUMPI DUP3 SWAP2 PUSH1 0x24 DUP4 SWAP3 PUSH1 0x40 MLOAD SWAP5 DUP6 SWAP4 DUP5 SWAP3 PUSH32 0xC6A6602C00000000000000000000000000000000000000000000000000000000 DUP5 MSTORE PUSH1 0x4 DUP5 ADD MSTORE GAS CALL DUP1 ISZERO PUSH2 0x95C JUMPI PUSH2 0x94B JUMPI POP RETURN JUMPDEST PUSH1 0x1F DUP2 GT PUSH1 0x1 EQ PUSH2 0xF57 JUMPI POP SSTORE JUMPDEST DUP3 CODESIZE DUP1 PUSH2 0xEE2 JUMP JUMPDEST DUP2 DUP4 MSTORE PUSH1 0x20 DUP4 KECCAK256 PUSH2 0xF72 SWAP2 PUSH1 0x1F ADD DUP7 SHR DUP2 ADD SWAP1 PUSH1 0x1 ADD PUSH2 0x1920 JUMP JUMPDEST DUP1 DUP3 MSTORE DUP2 PUSH1 0x20 DUP2 KECCAK256 SWAP2 SSTORE SSTORE PUSH2 0xF4F JUMP JUMPDEST POP PUSH1 0x20 CALLDATASIZE PUSH1 0x3 NOT ADD SLT PUSH2 0x186 JUMPI PUSH1 0x4 CALLDATALOAD SWAP1 PUSH8 0xFFFFFFFFFFFFFFFF DUP3 GT PUSH2 0x186 JUMPI PUSH1 0x80 PUSH1 0x3 NOT DUP4 CALLDATASIZE SUB ADD SLT PUSH2 0x186 JUMPI PUSH1 0x40 MLOAD PUSH1 0x80 DUP2 ADD DUP2 DUP2 LT PUSH8 0xFFFFFFFFFFFFFFFF DUP3 GT OR PUSH2 0x1409 JUMPI PUSH1 0x40 MSTORE DUP3 PUSH1 0x4 ADD CALLDATALOAD PUSH8 0xFFFFFFFFFFFFFFFF DUP2 GT PUSH2 0x51F JUMPI PUSH2 0xFF1 SWAP1 PUSH1 0x4 CALLDATASIZE SWAP2 DUP7 ADD ADD PUSH2 0x16D8 JUMP JUMPDEST DUP2 MSTORE PUSH1 0x24 DUP4 ADD CALLDATALOAD PUSH8 0xFFFFFFFFFFFFFFFF DUP2 GT PUSH2 0x51F JUMPI PUSH2 0x1017 SWAP1 PUSH1 0x4 CALLDATASIZE SWAP2 DUP7 ADD ADD PUSH2 0x1728 JUMP JUMPDEST PUSH1 0x20 DUP3 ADD SWAP1 DUP2 MSTORE PUSH1 0x44 DUP5 ADD CALLDATALOAD PUSH8 0xFFFFFFFFFFFFFFFF DUP2 GT PUSH2 0x665 JUMPI PUSH2 0x1042 SWAP1 PUSH1 0x4 CALLDATASIZE SWAP2 DUP8 ADD ADD PUSH2 0x1728 JUMP JUMPDEST SWAP1 PUSH1 0x40 DUP4 ADD SWAP2 DUP3 MSTORE PUSH1 0x64 PUSH1 0x60 DUP5 ADD SWAP6 ADD CALLDATALOAD DUP6 MSTORE PUSH2 0x105D PUSH2 0x19AD JUMP JUMPDEST CALLER DUP5 MSTORE PUSH1 0x5 PUSH1 0x20 MSTORE PUSH1 0x1 PUSH1 0x1 PUSH1 0xA0 SHL SUB PUSH1 0x2 PUSH1 0x40 DUP7 KECCAK256 ADD SLOAD AND ISZERO SWAP2 PUSH2 0x10BA PUSH1 0x40 SWAP4 DUP5 MLOAD SWAP1 PUSH2 0x108B DUP7 DUP4 PUSH2 0x165F JUMP JUMPDEST PUSH1 0x3 DUP3 MSTORE PUSH32 0x3430340000000000000000000000000000000000000000000000000000000000 PUSH1 0x20 DUP4 ADD MSTORE PUSH2 0x1899 JUMP JUMPDEST PUSH1 0x1 PUSH1 0x1 PUSH1 0xA0 SHL SUB PUSH1 0x2 SLOAD AND DUP3 MLOAD SWAP1 DUP3 MLOAD DUP9 MLOAD SWAP1 DUP7 MLOAD SWAP4 PUSH2 0x15C5 SWAP4 DUP5 DUP7 ADD SWAP5 DUP7 DUP7 LT PUSH8 0xFFFFFFFFFFFFFFFF DUP8 GT OR PUSH2 0x13F5 JUMPI SWAP3 PUSH2 0x1118 PUSH1 0x80 SWAP4 PUSH2 0x1126 SWAP4 DUP10 SWAP9 SWAP8 SWAP7 PUSH2 0x1A29 DUP11 CODECOPY DUP8 MSTORE CALLER PUSH1 0x20 DUP9 ADD MSTORE PUSH1 0xA0 DUP13 DUP9 ADD MSTORE PUSH1 0xA0 DUP8 ADD SWAP1 PUSH2 0x18E3 JUMP JUMPDEST SWAP1 DUP6 DUP3 SUB PUSH1 0x60 DUP8 ADD MSTORE PUSH2 0x18E3 JUMP JUMPDEST SWAP3 ADD MSTORE SUB SWAP1 CALLVALUE CREATE SWAP4 DUP5 ISZERO PUSH2 0x13EB JUMPI PUSH1 0x1 PUSH1 0x1 PUSH1 0xA0 SHL SUB DUP1 PUSH1 0x1 SLOAD AND SWAP6 AND SWAP5 DUP1 EXTCODESIZE ISZERO PUSH2 0x967 JUMPI DUP7 DUP1 SWAP2 PUSH1 0x24 DUP8 MLOAD DUP1 SWAP5 DUP2 SWAP4 PUSH32 0x8411905A00000000000000000000000000000000000000000000000000000000 DUP4 MSTORE DUP12 PUSH1 0x4 DUP5 ADD MSTORE GAS CALL DUP1 ISZERO PUSH2 0x13E1 JUMPI PUSH2 0x13CD JUMPI JUMPDEST POP DUP1 MLOAD SWAP7 DUP5 MLOAD SWAP8 PUSH2 0x119C DUP10 PUSH2 0x160B JUMP JUMPDEST DUP9 MSTORE PUSH1 0x20 DUP9 ADD SWAP8 DUP7 DUP10 MSTORE CALLER DUP9 MSTORE PUSH1 0x5 PUSH1 0x20 MSTORE DUP6 DUP9 KECCAK256 SWAP1 MLOAD SWAP9 PUSH1 0xFF DUP11 MLOAD AND PUSH1 0xFF NOT DUP4 SLOAD AND OR DUP3 SSTORE PUSH1 0x20 PUSH1 0x1 DUP4 ADD SWAP11 ADD MLOAD SWAP10 DUP11 MLOAD SWAP11 PUSH8 0xFFFFFFFFFFFFFFFF DUP13 GT PUSH2 0x13B9 JUMPI DUP11 DUP13 PUSH2 0x11EA DUP5 SLOAD PUSH2 0x17BB JUMP JUMPDEST PUSH1 0x1F DUP2 GT PUSH2 0x1388 JUMPI JUMPDEST POP POP POP PUSH1 0x20 SWAP1 PUSH1 0x1F DUP14 GT PUSH1 0x1 EQ PUSH2 0x1316 JUMPI SWAP3 PUSH1 0x2 SWAP3 PUSH2 0x1235 DUP15 DUP15 SWAP16 DUP16 SWAP6 PUSH1 0x1 PUSH1 0x1 PUSH1 0xA0 SHL SUB SWAP9 DUP10 SWAP8 SWAP3 PUSH2 0x531 JUMPI POP POP DUP2 PUSH1 0x1 SHL SWAP2 PUSH1 0x0 NOT SWAP1 PUSH1 0x3 SHL SHR NOT AND OR SWAP1 JUMP JUMPDEST SWAP1 SSTORE JUMPDEST MLOAD AND SWAP3 ADD SWAP2 AND PUSH20 0xFFFFFFFFFFFFFFFFFFFFFFFFFFFFFFFFFFFFFFFF NOT DUP3 SLOAD AND OR SWAP1 SSTORE PUSH1 0x1 PUSH1 0x1 PUSH1 0xA0 SHL SUB PUSH1 0x1 SLOAD AND SWAP2 MLOAD SWAP4 MLOAD SWAP3 MLOAD SWAP1 MLOAD SWAP1 DUP3 EXTCODESIZE ISZERO PUSH2 0x1312 JUMPI DUP8 SWAP5 PUSH2 0x12C7 SWAP3 PUSH2 0x12F0 DUP8 SWAP4 PUSH2 0x12DE DUP11 MLOAD SWAP12 DUP13 SWAP10 DUP11 SWAP9 DUP10 SWAP8 PUSH32 0xC2343CE00000000000000000000000000000000000000000000000000000000 DUP10 MSTORE CALLER PUSH1 0x4 DUP11 ADD MSTORE PUSH1 0xC0 PUSH1 0x24 DUP11 ADD MSTORE PUSH1 0xC4 DUP10 ADD SWAP1 PUSH2 0x1798 JUMP JUMPDEST SWAP2 PUSH1 0x44 DUP9 ADD MSTORE PUSH1 0x3 NOT DUP8 DUP4 SUB ADD PUSH1 0x64 DUP9 ADD MSTORE PUSH2 0x18E3 JUMP JUMPDEST DUP5 DUP2 SUB PUSH1 0x3 NOT ADD PUSH1 0x84 DUP7 ADD MSTORE SWAP1 PUSH2 0x18E3 JUMP JUMPDEST SWAP1 PUSH1 0xA4 DUP4 ADD MSTORE SUB SWAP3 GAS CALL SWAP1 DUP2 ISZERO PUSH2 0x1309 JUMPI POP PUSH2 0x94B JUMPI POP RETURN JUMPDEST MLOAD RETURNDATASIZE DUP5 DUP3 RETURNDATACOPY RETURNDATASIZE SWAP1 REVERT JUMPDEST DUP8 DUP1 REVERT JUMPDEST DUP3 DUP13 MSTORE DUP2 DUP13 KECCAK256 SWAP13 SWAP2 SWAP1 PUSH1 0x1F NOT DUP4 AND DUP14 JUMPDEST DUP2 DUP2 LT PUSH2 0x1370 JUMPI POP DUP4 DUP15 SWAP16 PUSH1 0x1 PUSH1 0x1 PUSH1 0xA0 SHL SUB SWAP8 SWAP5 PUSH1 0x2 SWAP8 SWAP5 DUP10 SWAP8 PUSH1 0x1 SWAP6 LT PUSH2 0x1357 JUMPI JUMPDEST POP POP POP DUP2 SHL ADD SWAP1 SSTORE PUSH2 0x1238 JUMP JUMPDEST ADD MLOAD PUSH1 0x0 NOT PUSH1 0xF8 DUP5 PUSH1 0x3 SHL AND SHR NOT AND SWAP1 SSTORE CODESIZE DUP1 DUP1 PUSH2 0x134A JUMP JUMPDEST SWAP3 SWAP15 DUP16 DUP4 ADD MLOAD DUP2 SSTORE PUSH1 0x1 ADD SWAP15 PUSH1 0x20 ADD SWAP3 PUSH1 0x20 ADD PUSH2 0x1326 JUMP JUMPDEST PUSH1 0x20 DUP4 DUP7 PUSH2 0x13B1 SWAP6 MSTORE KECCAK256 SWAP1 PUSH1 0x20 PUSH1 0x1F DUP5 ADD PUSH1 0x5 SHR DUP4 ADD SWAP4 LT PUSH2 0x5F1 JUMPI PUSH1 0x1F ADD PUSH1 0x5 SHR ADD SWAP1 PUSH2 0x1920 JUMP JUMPDEST DUP11 DUP13 CODESIZE PUSH2 0x11F3 JUMP JUMPDEST PUSH1 0x24 DUP12 PUSH4 0x4E487B71 PUSH1 0xE0 SHL DUP2 MSTORE PUSH1 0x41 PUSH1 0x4 MSTORE REVERT JUMPDEST DUP7 PUSH2 0x13DA SWAP2 SWAP8 SWAP3 SWAP8 PUSH2 0x165F JUMP JUMPDEST SWAP5 CODESIZE PUSH2 0x118C JUMP JUMPDEST DUP6 MLOAD RETURNDATASIZE DUP10 DUP3 RETURNDATACOPY RETURNDATASIZE SWAP1 REVERT JUMPDEST DUP4 MLOAD RETURNDATASIZE DUP8 DUP3 RETURNDATACOPY RETURNDATASIZE SWAP1 REVERT JUMPDEST PUSH1 0x24 DUP13 PUSH4 0x4E487B71 PUSH1 0xE0 SHL DUP2 MSTORE PUSH1 0x41 PUSH1 0x4 MSTORE REVERT JUMPDEST PUSH1 0x24 DUP4 PUSH4 0x4E487B71 PUSH1 0xE0 SHL DUP2 MSTORE PUSH1 0x41 PUSH1 0x4 MSTORE REVERT JUMPDEST POP CALLVALUE PUSH2 0x186 JUMPI PUSH1 0x20 CALLDATASIZE PUSH1 0x3 NOT ADD SLT PUSH2 0x186 JUMPI PUSH1 0x40 DUP2 PUSH1 0x1 PUSH1 0x1 PUSH1 0xA0 SHL SUB SWAP3 PUSH1 0xC0 DUP4 MLOAD PUSH2 0x1448 DUP2 PUSH2 0x15D9 JUMP JUMPDEST DUP3 DUP2 MSTORE DUP3 PUSH1 0x20 DUP3 ADD MSTORE DUP3 DUP6 DUP3 ADD MSTORE DUP3 PUSH1 0x60 DUP3 ADD MSTORE PUSH1 0x60 PUSH1 0x80 DUP3 ADD MSTORE DUP3 PUSH1 0xA0 DUP3 ADD MSTORE ADD MSTORE PUSH1 0x4 CALLDATALOAD DUP2 MSTORE PUSH1 0x4 PUSH1 0x20 MSTORE KECCAK256 PUSH1 0x40 MLOAD SWAP1 PUSH2 0x1483 DUP3 PUSH2 0x15D9 JUMP JUMPDEST DUP3 DUP2 SLOAD AND DUP3 MSTORE PUSH1 0x1 DUP2 ADD SLOAD SWAP1 PUSH1 0x20 DUP4 ADD SWAP2 DUP3 MSTORE DUP4 PUSH2 0x151B PUSH1 0x2 DUP4 ADD SLOAD SWAP3 PUSH1 0x40 DUP7 ADD SWAP4 DUP5 MSTORE PUSH1 0x3 DUP2 ADD SLOAD PUSH1 0x60 DUP8 ADD SWAP1 DUP2 MSTORE PUSH1 0x5 PUSH2 0x14C1 PUSH1 0x4 DUP5 ADD PUSH2 0x17F5 JUMP JUMPDEST SWAP3 PUSH1 0x80 DUP10 ADD SWAP4 DUP5 MSTORE ADD SLOAD SWAP5 PUSH1 0xA0 DUP9 ADD SWAP7 DUP6 DUP8 AND DUP9 MSTORE PUSH1 0xFF PUSH1 0xC0 DUP11 ADD SWAP8 PUSH1 0xA0 SHR AND ISZERO ISZERO DUP8 MSTORE PUSH1 0x40 MLOAD SWAP10 DUP11 SWAP10 PUSH1 0x20 DUP12 MSTORE MLOAD AND PUSH1 0x20 DUP11 ADD MSTORE MLOAD PUSH1 0x40 DUP10 ADD MSTORE MLOAD PUSH1 0x60 DUP9 ADD MSTORE MLOAD PUSH1 0x80 DUP8 ADD MSTORE MLOAD PUSH1 0xE0 PUSH1 0xA0 DUP8 ADD MSTORE PUSH2 0x100 DUP7 ADD SWAP1 PUSH2 0x1598 JUMP JUMPDEST SWAP3 MLOAD AND PUSH1 0xC0 DUP5 ADD MSTORE MLOAD ISZERO ISZERO PUSH1 0xE0 DUP4 ADD MSTORE SUB SWAP1 RETURN JUMPDEST SWAP1 POP CALLVALUE PUSH2 0x669 JUMPI PUSH1 0x20 CALLDATASIZE PUSH1 0x3 NOT ADD SLT PUSH2 0x669 JUMPI PUSH1 0x1 PUSH1 0x1 PUSH1 0xA0 SHL SUB PUSH1 0x2 PUSH1 0x40 PUSH1 0x20 SWAP5 DUP4 PUSH2 0x155A PUSH2 0x1569 JUMP JUMPDEST AND DUP2 MSTORE PUSH1 0x5 DUP7 MSTORE KECCAK256 ADD SLOAD AND DUP2 MSTORE RETURN JUMPDEST PUSH1 0x4 CALLDATALOAD SWAP1 PUSH1 0x1 PUSH1 0x1 PUSH1 0xA0 SHL SUB DUP3 AND DUP3 SUB PUSH2 0x157F JUMPI JUMP JUMPDEST PUSH1 0x0 DUP1 REVERT JUMPDEST CALLDATALOAD SWAP1 PUSH1 0x1 PUSH1 0x1 PUSH1 0xA0 SHL SUB DUP3 AND DUP3 SUB PUSH2 0x157F JUMPI JUMP JUMPDEST SWAP2 SWAP1 DUP3 MLOAD SWAP3 DUP4 DUP3 MSTORE PUSH1 0x0 JUMPDEST DUP5 DUP2 LT PUSH2 0x15C4 JUMPI POP POP DUP3 PUSH1 0x0 PUSH1 0x20 DUP1 SWAP5 SWAP6 DUP5 ADD ADD MSTORE PUSH1 0x1F DUP1 NOT SWAP2 ADD AND ADD ADD SWAP1 JUMP JUMPDEST DUP1 PUSH1 0x20 DUP1 SWAP3 DUP5 ADD ADD MLOAD DUP3 DUP3 DUP7 ADD ADD MSTORE ADD PUSH2 0x15A3 JUMP JUMPDEST PUSH1 0xE0 DUP2 ADD SWAP1 DUP2 LT PUSH8 0xFFFFFFFFFFFFFFFF DUP3 GT OR PUSH2 0x15F5 JUMPI PUSH1 0x40 MSTORE JUMP JUMPDEST PUSH4 0x4E487B71 PUSH1 0xE0 SHL PUSH1 0x0 MSTORE PUSH1 0x41 PUSH1 0x4 MSTORE PUSH1 0x24 PUSH1 0x0 REVERT JUMPDEST PUSH1 0x40 DUP2 ADD SWAP1 DUP2 LT PUSH8 0xFFFFFFFFFFFFFFFF DUP3 GT OR PUSH2 0x15F5 JUMPI PUSH1 0x40 MSTORE JUMP JUMPDEST PUSH1 0x20 DUP2 ADD SWAP1 DUP2 LT PUSH8 0xFFFFFFFFFFFFFFFF DUP3 GT OR PUSH2 0x15F5 JUMPI PUSH1 0x40 MSTORE JUMP JUMPDEST PUSH1 0xA0 DUP2 ADD SWAP1 DUP2 LT PUSH8 0xFFFFFFFFFFFFFFFF DUP3 GT OR PUSH2 0x15F5 JUMPI PUSH1 0x40 MSTORE JUMP JUMPDEST SWAP1 PUSH1 0x1F DUP1 NOT SWAP2 ADD AND DUP2 ADD SWAP1 DUP2 LT PUSH8 0xFFFFFFFFFFFFFFFF DUP3 GT OR PUSH2 0x15F5 JUMPI PUSH1 0x40 MSTORE JUMP JUMPDEST DUP2 PUSH1 0x1F DUP3 ADD SLT ISZERO PUSH2 0x157F JUMPI DUP1 CALLDATALOAD SWAP1 PUSH8 0xFFFFFFFFFFFFFFFF DUP3 GT PUSH2 0x15F5 JUMPI PUSH1 0x40 MLOAD SWAP3 PUSH2 0x16B6 PUSH1 0x1F DUP5 ADD PUSH1 0x1F NOT AND PUSH1 0x20 ADD DUP6 PUSH2 0x165F JUMP JUMPDEST DUP3 DUP5 MSTORE PUSH1 0x20 DUP4 DUP4 ADD ADD GT PUSH2 0x157F JUMPI DUP2 PUSH1 0x0 SWAP3 PUSH1 0x20 DUP1 SWAP4 ADD DUP4 DUP7 ADD CALLDATACOPY DUP4 ADD ADD MSTORE SWAP1 JUMP JUMPDEST SWAP2 SWAP1 PUSH1 0x40 DUP4 DUP3 SUB SLT PUSH2 0x157F JUMPI PUSH1 0x40 MLOAD SWAP1 PUSH2 0x16F1 DUP3 PUSH2 0x160B JUMP JUMPDEST DUP2 SWAP4 DUP1 CALLDATALOAD PUSH1 0xFF DUP2 AND DUP2 SUB PUSH2 0x157F JUMPI DUP4 MSTORE PUSH1 0x20 DUP2 ADD CALLDATALOAD SWAP2 PUSH8 0xFFFFFFFFFFFFFFFF DUP4 GT PUSH2 0x157F JUMPI PUSH1 0x20 SWAP3 PUSH2 0x1723 SWAP3 ADD PUSH2 0x1681 JUMP JUMPDEST SWAP2 ADD MSTORE JUMP JUMPDEST SWAP1 DUP1 PUSH1 0x1F DUP4 ADD SLT ISZERO PUSH2 0x157F JUMPI DUP2 CALLDATALOAD SWAP2 PUSH8 0xFFFFFFFFFFFFFFFF DUP4 GT PUSH2 0x15F5 JUMPI DUP3 PUSH1 0x5 SHL SWAP1 PUSH1 0x40 MLOAD SWAP4 PUSH2 0x175C PUSH1 0x20 DUP5 ADD DUP7 PUSH2 0x165F JUMP JUMPDEST DUP5 MSTORE PUSH1 0x20 DUP1 DUP6 ADD SWAP3 DUP3 ADD ADD SWAP3 DUP4 GT PUSH2 0x157F JUMPI PUSH1 0x20 ADD SWAP1 JUMPDEST DUP3 DUP3 LT PUSH2 0x1780 JUMPI POP POP POP SWAP1 JUMP JUMPDEST PUSH1 0x20 DUP1 SWAP2 PUSH2 0x178D DUP5 PUSH2 0x1584 JUMP JUMPDEST DUP2 MSTORE ADD SWAP2 ADD SWAP1 PUSH2 0x1773 JUMP JUMPDEST SWAP1 PUSH1 0x40 PUSH1 0x20 PUSH2 0x17B8 SWAP4 PUSH1 0xFF DUP2 MLOAD AND DUP5 MSTORE ADD MLOAD SWAP2 DUP2 PUSH1 0x20 DUP3 ADD MSTORE ADD SWAP1 PUSH2 0x1598 JUMP JUMPDEST SWAP1 JUMP JUMPDEST SWAP1 PUSH1 0x1 DUP3 DUP2 SHR SWAP3 AND DUP1 ISZERO PUSH2 0x17EB JUMPI JUMPDEST PUSH1 0x20 DUP4 LT EQ PUSH2 0x17D5 JUMPI JUMP JUMPDEST PUSH4 0x4E487B71 PUSH1 0xE0 SHL PUSH1 0x0 MSTORE PUSH1 0x22 PUSH1 0x4 MSTORE PUSH1 0x24 PUSH1 0x0 REVERT JUMPDEST SWAP2 PUSH1 0x7F AND SWAP2 PUSH2 0x17CA JUMP JUMPDEST SWAP1 PUSH1 0x40 MLOAD SWAP2 DUP3 PUSH1 0x0 DUP3 SLOAD SWAP3 PUSH2 0x1809 DUP5 PUSH2 0x17BB JUMP JUMPDEST DUP1 DUP5 MSTORE SWAP4 PUSH1 0x1 DUP2 AND SWAP1 DUP2 ISZERO PUSH2 0x1877 JUMPI POP PUSH1 0x1 EQ PUSH2 0x1830 JUMPI JUMPDEST POP PUSH2 0x182E SWAP3 POP SUB DUP4 PUSH2 0x165F JUMP JUMPDEST JUMP JUMPDEST SWAP1 POP PUSH1 0x0 SWAP3 SWAP2 SWAP3 MSTORE PUSH1 0x20 PUSH1 0x0 KECCAK256 SWAP1 PUSH1 0x0 SWAP2 JUMPDEST DUP2 DUP4 LT PUSH2 0x185B JUMPI POP POP SWAP1 PUSH1 0x20 PUSH2 0x182E SWAP3 DUP3 ADD ADD CODESIZE PUSH2 0x1821 JUMP JUMPDEST PUSH1 0x20 SWAP2 SWAP4 POP DUP1 PUSH1 0x1 SWAP2 SLOAD DUP4 DUP6 DUP10 ADD ADD MSTORE ADD SWAP2 ADD SWAP1 SWAP2 DUP5 SWAP3 PUSH2 0x1842 JUMP JUMPDEST SWAP1 POP PUSH1 0x20 SWAP3 POP PUSH2 0x182E SWAP5 SWAP2 POP PUSH1 0xFF NOT AND DUP3 DUP5 ADD MSTORE ISZERO ISZERO PUSH1 0x5 SHL DUP3 ADD ADD CODESIZE PUSH2 0x1821 JUMP JUMPDEST ISZERO PUSH2 0x18A1 JUMPI POP JUMP JUMPDEST PUSH2 0x18DF SWAP1 PUSH1 0x40 MLOAD SWAP2 DUP3 SWAP2 PUSH32 0x8C379A000000000000000000000000000000000000000000000000000000000 DUP4 MSTORE PUSH1 0x20 PUSH1 0x4 DUP5 ADD MSTORE PUSH1 0x24 DUP4 ADD SWAP1 PUSH2 0x1598 JUMP JUMPDEST SUB SWAP1 REVERT JUMPDEST SWAP1 PUSH1 0x20 DUP1 DUP4 MLOAD SWAP3 DUP4 DUP2 MSTORE ADD SWAP3 ADD SWAP1 PUSH1 0x0 JUMPDEST DUP2 DUP2 LT PUSH2 0x1901 JUMPI POP POP POP SWAP1 JUMP JUMPDEST DUP3 MLOAD PUSH1 0x1 PUSH1 0x1 PUSH1 0xA0 SHL SUB AND DUP5 MSTORE PUSH1 0x20 SWAP4 DUP5 ADD SWAP4 SWAP1 SWAP3 ADD SWAP2 PUSH1 0x1 ADD PUSH2 0x18F4 JUMP JUMPDEST DUP2 DUP2 LT PUSH2 0x192B JUMPI POP POP JUMP JUMPDEST PUSH1 0x0 DUP2 SSTORE PUSH1 0x1 ADD PUSH2 0x1920 JUMP JUMPDEST PUSH1 0x40 MLOAD SWAP1 PUSH2 0x1946 PUSH1 0x40 DUP4 PUSH2 0x165F JUMP JUMPDEST PUSH1 0x3 DUP3 MSTORE PUSH32 0x3430350000000000000000000000000000000000000000000000000000000000 PUSH1 0x20 DUP4 ADD MSTORE JUMP JUMPDEST PUSH1 0x40 MLOAD SWAP1 PUSH2 0x1981 PUSH1 0x40 DUP4 PUSH2 0x165F JUMP JUMPDEST PUSH1 0x1 DUP3 MSTORE PUSH32 0x3200000000000000000000000000000000000000000000000000000000000000 PUSH1 0x20 DUP4 ADD MSTORE JUMP JUMPDEST PUSH1 0xFF PUSH1 0x0 SLOAD AND PUSH2 0x19B9 JUMPI JUMP JUMPDEST PUSH32 0xD93C066500000000000000000000000000000000000000000000000000000000 PUSH1 0x0 MSTORE PUSH1 0x4 PUSH1 0x0 REVERT JUMPDEST PUSH1 0x1 PUSH1 0x1 PUSH1 0xA0 SHL SUB PUSH1 0x0 SLOAD PUSH1 0x8 SHR AND CALLER SUB PUSH2 0x19FA JUMPI JUMP JUMPDEST PUSH32 0x118CDAA700000000000000000000000000000000000000000000000000000000 PUSH1 0x0 MSTORE CALLER PUSH1 0x4 MSTORE PUSH1 0x24 PUSH1 0x0 REVERT INVALID PUSH1 0x80 PUSH1 0x40 MSTORE PUSH2 0x15C5 DUP1 CODESIZE SUB DUP1 PUSH2 0x14 DUP2 PUSH2 0x2DA JUMP JUMPDEST SWAP3 DUP4 CODECOPY DUP2 ADD SWAP1 PUSH1 0xA0 DUP2 DUP4 SUB SLT PUSH2 0x2D5 JUMPI DUP1 MLOAD PUSH1 0x1 PUSH1 0x1 PUSH1 0xA0 SHL SUB DUP2 AND SWAP3 SWAP1 DUP4 SWAP1 SUB PUSH2 0x2D5 JUMPI PUSH2 0x45 PUSH1 0x20 DUP4 ADD PUSH2 0x2FF JUMP JUMPDEST PUSH1 0x40 DUP4 ADD MLOAD SWAP1 SWAP4 SWAP1 PUSH1 0x1 PUSH1 0x1 PUSH1 0x40 SHL SUB DUP2 GT PUSH2 0x2D5 JUMPI DUP3 PUSH2 0x67 SWAP2 DUP6 ADD PUSH2 0x313 JUMP JUMPDEST PUSH1 0x60 DUP5 ADD MLOAD SWAP1 SWAP3 SWAP1 PUSH1 0x1 PUSH1 0x1 PUSH1 0x40 SHL SUB DUP2 GT PUSH2 0x2D5 JUMPI PUSH1 0x80 SWAP2 PUSH2 0x8B SWAP2 DUP7 ADD PUSH2 0x313 JUMP JUMPDEST SWAP4 ADD MLOAD SWAP4 PUSH1 0x1 PUSH1 0x1 PUSH1 0xA0 SHL SUB AND DUP1 ISZERO PUSH2 0x2BF JUMPI PUSH1 0x0 DUP1 SLOAD PUSH1 0x1 PUSH1 0x1 PUSH1 0xA0 SHL SUB NOT DUP2 AND DUP4 OR DUP3 SSTORE PUSH1 0x1 PUSH1 0x1 PUSH1 0xA0 SHL SUB AND SWAP1 PUSH32 0x8BE0079C531659141344CD1FD0A4F28419497F9722A3DAAFE3B4186F6B6457E0 SWAP1 DUP1 LOG3 PUSH2 0x104 PUSH2 0xEC PUSH1 0x40 PUSH2 0x2DA JUMP JUMPDEST PUSH1 0x3 DUP2 MSTORE PUSH3 0x38303 PUSH1 0xEC SHL PUSH1 0x20 DUP3 ADD MSTORE DUP6 ISZERO ISZERO PUSH2 0x37D JUMP JUMPDEST PUSH2 0x12A DUP4 MLOAD DUP6 GT ISZERO PUSH2 0x116 PUSH1 0x40 PUSH2 0x2DA JUMP JUMPDEST SWAP1 PUSH1 0x1 DUP3 MSTORE PUSH1 0x1B PUSH1 0xF9 SHL PUSH1 0x20 DUP4 ADD MSTORE PUSH2 0x37D JUMP JUMPDEST PUSH1 0x1 DUP1 SLOAD PUSH1 0x1 PUSH1 0x1 PUSH1 0xA0 SHL SUB NOT AND SWAP2 SWAP1 SWAP2 OR SWAP1 SSTORE DUP1 MLOAD SWAP1 PUSH1 0x1 PUSH1 0x1 PUSH1 0x40 SHL SUB DUP3 GT PUSH2 0x246 JUMPI PUSH9 0x10000000000000000 DUP3 GT PUSH2 0x246 JUMPI PUSH1 0x2 SLOAD DUP3 PUSH1 0x2 SSTORE DUP1 DUP4 LT PUSH2 0x279 JUMPI JUMPDEST POP PUSH1 0x20 ADD PUSH1 0x2 PUSH1 0x0 MSTORE PUSH1 0x20 PUSH1 0x0 KECCAK256 PUSH1 0x0 JUMPDEST DUP4 DUP2 LT PUSH2 0x25C JUMPI DUP5 MLOAD DUP7 SWAP1 DUP7 PUSH1 0x1 PUSH1 0x1 PUSH1 0x40 SHL SUB DUP3 GT PUSH2 0x246 JUMPI PUSH9 0x10000000000000000 DUP3 GT PUSH2 0x246 JUMPI PUSH1 0x3 SLOAD DUP3 PUSH1 0x3 SSTORE DUP1 DUP4 LT PUSH2 0x200 JUMPI JUMPDEST POP PUSH1 0x20 ADD PUSH1 0x3 PUSH1 0x0 MSTORE PUSH1 0x20 PUSH1 0x0 KECCAK256 PUSH1 0x0 JUMPDEST DUP4 DUP2 LT PUSH2 0x1E3 JUMPI DUP5 PUSH1 0x4 SSTORE PUSH1 0x40 MLOAD PUSH2 0x11E4 SWAP1 DUP2 PUSH2 0x3E1 DUP3 CODECOPY RETURN JUMPDEST DUP3 MLOAD PUSH1 0x1 PUSH1 0x1 PUSH1 0xA0 SHL SUB AND DUP2 DUP4 ADD SSTORE PUSH1 0x20 SWAP1 SWAP3 ADD SWAP2 PUSH1 0x1 ADD PUSH2 0x1C9 JUMP JUMPDEST PUSH1 0x3 PUSH1 0x0 MSTORE PUSH32 0xC2575A0E9E593C00F959F8C92F12DB2869C3395A3B0502D05E2516446F71F85B SWAP1 DUP2 ADD SWAP1 DUP4 ADD JUMPDEST DUP2 DUP2 LT PUSH2 0x23A JUMPI POP PUSH2 0x1B8 JUMP JUMPDEST PUSH1 0x0 DUP2 SSTORE PUSH1 0x1 ADD PUSH2 0x22D JUMP JUMPDEST PUSH4 0x4E487B71 PUSH1 0xE0 SHL PUSH1 0x0 MSTORE PUSH1 0x41 PUSH1 0x4 MSTORE PUSH1 0x24 PUSH1 0x0 REVERT JUMPDEST DUP3 MLOAD PUSH1 0x1 PUSH1 0x1 PUSH1 0xA0 SHL SUB AND DUP2 DUP4 ADD SSTORE PUSH1 0x20 SWAP1 SWAP3 ADD SWAP2 PUSH1 0x1 ADD PUSH2 0x17F JUMP JUMPDEST PUSH1 0x2 PUSH1 0x0 MSTORE PUSH32 0x405787FA12A823E0F2B7631CC41B3BA8828B3321CA811111FA75CD3AA3BB5ACE SWAP1 DUP2 ADD SWAP1 DUP4 ADD JUMPDEST DUP2 DUP2 LT PUSH2 0x2B3 JUMPI POP PUSH2 0x16E JUMP JUMPDEST PUSH1 0x0 DUP2 SSTORE PUSH1 0x1 ADD PUSH2 0x2A6 JUMP JUMPDEST PUSH4 0x1E4FBDF7 PUSH1 0xE0 SHL PUSH1 0x0 MSTORE PUSH1 0x0 PUSH1 0x4 MSTORE PUSH1 0x24 PUSH1 0x0 REVERT JUMPDEST PUSH1 0x0 DUP1 REVERT JUMPDEST PUSH1 0x40 MLOAD SWAP2 SWAP1 PUSH1 0x1F ADD PUSH1 0x1F NOT AND DUP3 ADD PUSH1 0x1 PUSH1 0x1 PUSH1 0x40 SHL SUB DUP2 GT DUP4 DUP3 LT OR PUSH2 0x246 JUMPI PUSH1 0x40 MSTORE JUMP JUMPDEST MLOAD SWAP1 PUSH1 0x1 PUSH1 0x1 PUSH1 0xA0 SHL SUB DUP3 AND DUP3 SUB PUSH2 0x2D5 JUMPI JUMP JUMPDEST SWAP1 DUP1 PUSH1 0x1F DUP4 ADD SLT ISZERO PUSH2 0x2D5 JUMPI DUP2 MLOAD SWAP2 PUSH1 0x1 PUSH1 0x1 PUSH1 0x40 SHL SUB DUP4 GT PUSH2 0x246 JUMPI DUP3 PUSH1 0x5 SHL SWAP1 PUSH1 0x20 DUP1 PUSH2 0x343 DUP2 DUP6 ADD PUSH2 0x2DA JUMP JUMPDEST DUP1 SWAP7 DUP2 MSTORE ADD SWAP3 DUP3 ADD ADD SWAP3 DUP4 GT PUSH2 0x2D5 JUMPI PUSH1 0x20 ADD SWAP1 JUMPDEST DUP3 DUP3 LT PUSH2 0x365 JUMPI POP POP POP SWAP1 JUMP JUMPDEST PUSH1 0x20 DUP1 SWAP2 PUSH2 0x372 DUP5 PUSH2 0x2FF JUMP JUMPDEST DUP2 MSTORE ADD SWAP2 ADD SWAP1 PUSH2 0x358 JUMP JUMPDEST ISZERO PUSH2 0x385 JUMPI POP JUMP JUMPDEST PUSH1 0x40 MLOAD SWAP1 PUSH3 0x461BCD PUSH1 0xE5 SHL DUP3 MSTORE PUSH1 0x20 PUSH1 0x4 DUP4 ADD MSTORE DUP2 DUP2 MLOAD SWAP2 DUP3 PUSH1 0x24 DUP4 ADD MSTORE PUSH1 0x0 JUMPDEST DUP4 DUP2 LT PUSH2 0x3C8 JUMPI POP POP DUP2 PUSH1 0x0 PUSH1 0x44 DUP1 SWAP5 DUP5 ADD ADD MSTORE PUSH1 0x1F DUP1 NOT SWAP2 ADD AND DUP2 ADD SUB ADD SWAP1 REVERT JUMPDEST PUSH1 0x20 DUP3 DUP3 ADD DUP2 ADD MLOAD PUSH1 0x44 DUP8 DUP5 ADD ADD MSTORE DUP6 SWAP4 POP ADD PUSH2 0x3A6 JUMP INVALID PUSH1 0x80 PUSH1 0x40 MSTORE PUSH1 0x4 CALLDATASIZE LT ISZERO PUSH2 0x1B JUMPI JUMPDEST CALLDATASIZE ISZERO PUSH2 0x19 JUMPI PUSH1 0x0 DUP1 REVERT JUMPDEST STOP JUMPDEST PUSH1 0x0 DUP1 CALLDATALOAD PUSH1 0xE0 SHR DUP1 PUSH4 0x11FF708D EQ PUSH2 0xC95 JUMPI DUP1 PUSH4 0x2104EBF1 EQ PUSH2 0x9DB JUMPI DUP1 PUSH4 0x26B3293F EQ PUSH2 0x80D JUMPI DUP1 PUSH4 0x44CBF177 EQ PUSH2 0x65F JUMPI DUP1 PUSH4 0x715018A6 EQ PUSH2 0x5F9 JUMPI DUP1 PUSH4 0x7DF73E27 EQ PUSH2 0x5D5 JUMPI DUP1 PUSH4 0x8DA5CB5B EQ PUSH2 0x5AF JUMPI DUP1 PUSH4 0x94CF795E EQ PUSH2 0x519 JUMPI DUP1 PUSH4 0xDE41691C EQ PUSH2 0x348 JUMPI DUP1 PUSH4 0xEC4673D1 EQ PUSH2 0x186 JUMPI DUP1 PUSH4 0xF2FDE38B EQ PUSH2 0xDB JUMPI PUSH4 0xF9EAEE0D EQ PUSH2 0xAB JUMPI POP PUSH2 0xE JUMP JUMPDEST CALLVALUE PUSH2 0xD8 JUMPI PUSH1 0x20 CALLDATASIZE PUSH1 0x3 NOT ADD SLT PUSH2 0xD8 JUMPI PUSH1 0x20 PUSH2 0xCE PUSH2 0xC9 PUSH2 0xF22 JUMP JUMPDEST PUSH2 0x1108 JUMP JUMPDEST PUSH1 0x40 MLOAD SWAP1 ISZERO ISZERO DUP2 MSTORE RETURN JUMPDEST DUP1 REVERT JUMPDEST POP CALLVALUE PUSH2 0xD8 JUMPI PUSH1 0x20 CALLDATASIZE PUSH1 0x3 NOT ADD SLT PUSH2 0xD8 JUMPI PUSH1 0x1 PUSH1 0x1 PUSH1 0xA0 SHL SUB PUSH2 0xFD PUSH2 0xF22 JUMP JUMPDEST PUSH2 0x105 PUSH2 0x116C JUMP JUMPDEST AND DUP1 ISZERO PUSH2 0x15A JUMPI PUSH1 0x1 PUSH1 0x1 PUSH1 0xA0 SHL SUB DUP3 SLOAD DUP3 PUSH20 0xFFFFFFFFFFFFFFFFFFFFFFFFFFFFFFFFFFFFFFFF NOT DUP3 AND OR DUP5 SSTORE AND PUSH32 0x8BE0079C531659141344CD1FD0A4F28419497F9722A3DAAFE3B4186F6B6457E0 DUP4 DUP1 LOG3 DUP1 RETURN JUMPDEST PUSH1 0x24 DUP3 PUSH32 0x1E4FBDF700000000000000000000000000000000000000000000000000000000 DUP2 MSTORE DUP1 PUSH1 0x4 MSTORE REVERT JUMPDEST POP CALLVALUE PUSH2 0xD8 JUMPI PUSH1 0x20 CALLDATASIZE PUSH1 0x3 NOT ADD SLT PUSH2 0xD8 JUMPI PUSH1 0x4 CALLDATALOAD SWAP1 PUSH2 0x1E6 PUSH2 0x1A8 CALLER PUSH2 0x1087 JUMP JUMPDEST PUSH1 0x40 MLOAD SWAP1 PUSH2 0x1B7 PUSH1 0x40 DUP4 PUSH2 0xEEA JUMP JUMPDEST PUSH1 0x1 DUP3 MSTORE PUSH32 0x3200000000000000000000000000000000000000000000000000000000000000 PUSH1 0x20 DUP4 ADD MSTORE PUSH2 0xFF2 JUMP JUMPDEST DUP2 DUP2 MSTORE PUSH1 0x6 PUSH1 0x20 MSTORE PUSH1 0x3 PUSH1 0x40 DUP3 KECCAK256 PUSH2 0x23E PUSH1 0xFF PUSH1 0x5 DUP4 ADD SLOAD AND ISZERO PUSH1 0x40 MLOAD SWAP1 PUSH2 0x20F PUSH1 0x40 DUP4 PUSH2 0xEEA JUMP JUMPDEST PUSH1 0x1 DUP3 MSTORE PUSH32 0x3400000000000000000000000000000000000000000000000000000000000000 PUSH1 0x20 DUP4 ADD MSTORE PUSH2 0xFF2 JUMP JUMPDEST PUSH1 0x4 DUP2 ADD PUSH1 0x1 PUSH1 0x1 PUSH1 0xA0 SHL SUB CALLER AND PUSH1 0x0 MSTORE DUP1 PUSH1 0x20 MSTORE PUSH2 0x26F PUSH1 0xFF PUSH1 0x40 PUSH1 0x0 KECCAK256 SLOAD AND ISZERO PUSH1 0x40 MLOAD SWAP1 PUSH2 0x20F PUSH1 0x40 DUP4 PUSH2 0xEEA JUMP JUMPDEST PUSH1 0x1 PUSH1 0x1 PUSH1 0xA0 SHL SUB CALLER AND PUSH1 0x0 MSTORE PUSH1 0x20 MSTORE PUSH1 0x40 PUSH1 0x0 KECCAK256 PUSH1 0x1 PUSH1 0xFF NOT DUP3 SLOAD AND OR SWAP1 SSTORE ADD SWAP2 DUP3 SLOAD SWAP3 PUSH1 0x0 NOT DUP5 EQ PUSH2 0x334 JUMPI PUSH1 0x1 DUP4 SWAP5 ADD SWAP1 SSTORE PUSH1 0x1 PUSH1 0x1 PUSH1 0xA0 SHL SUB PUSH1 0x1 SLOAD AND SWAP1 PUSH1 0x1 PUSH1 0x1 PUSH1 0xA0 SHL SUB DUP4 SLOAD AND SWAP1 DUP3 EXTCODESIZE ISZERO PUSH2 0x32F JUMPI PUSH1 0x64 DUP5 SWAP3 DUP4 PUSH1 0x40 MLOAD SWAP6 DUP7 SWAP5 DUP6 SWAP4 PUSH32 0xE58E982900000000000000000000000000000000000000000000000000000000 DUP6 MSTORE PUSH1 0x4 DUP6 ADD MSTORE PUSH1 0x24 DUP5 ADD MSTORE CALLER PUSH1 0x44 DUP5 ADD MSTORE GAS CALL DUP1 ISZERO PUSH2 0x324 JUMPI PUSH2 0x313 JUMPI POP RETURN JUMPDEST DUP2 PUSH2 0x31D SWAP2 PUSH2 0xEEA JUMP JUMPDEST PUSH2 0xD8 JUMPI DUP1 RETURN JUMPDEST PUSH1 0x40 MLOAD RETURNDATASIZE DUP5 DUP3 RETURNDATACOPY RETURNDATASIZE SWAP1 REVERT JUMPDEST POP POP POP REVERT JUMPDEST PUSH1 0x24 DUP4 PUSH4 0x4E487B71 PUSH1 0xE0 SHL DUP2 MSTORE PUSH1 0x11 PUSH1 0x4 MSTORE REVERT JUMPDEST POP CALLVALUE PUSH2 0xD8 JUMPI PUSH1 0x20 CALLDATASIZE PUSH1 0x3 NOT ADD SLT PUSH2 0xD8 JUMPI PUSH1 0x4 CALLDATALOAD PUSH8 0xFFFFFFFFFFFFFFFF DUP2 GT PUSH2 0x515 JUMPI PUSH2 0x37A SWAP1 CALLDATASIZE SWAP1 PUSH1 0x4 ADD PUSH2 0xF3D JUMP JUMPDEST SWAP1 PUSH2 0x383 PUSH2 0x116C JUMP JUMPDEST PUSH2 0x3AC DUP3 MLOAD ISZERO ISZERO PUSH1 0x40 MLOAD SWAP1 PUSH2 0x399 PUSH1 0x40 DUP4 PUSH2 0xEEA JUMP JUMPDEST PUSH1 0x1 DUP3 MSTORE PUSH1 0x33 PUSH1 0xF8 SHL PUSH1 0x20 DUP4 ADD MSTORE PUSH2 0xFF2 JUMP JUMPDEST DUP2 MLOAD SWAP2 PUSH8 0xFFFFFFFFFFFFFFFF DUP4 GT PUSH2 0x501 JUMPI PUSH9 0x10000000000000000 DUP4 GT PUSH2 0x501 JUMPI PUSH1 0x2 SLOAD DUP4 PUSH1 0x2 SSTORE DUP1 DUP5 LT PUSH2 0x4A3 JUMPI JUMPDEST POP PUSH1 0x20 DUP2 ADD SWAP3 PUSH1 0x2 DUP4 MSTORE DUP3 JUMPDEST DUP2 DUP2 LT PUSH2 0x466 JUMPI DUP4 DUP1 DUP5 PUSH1 0x1 PUSH1 0x1 PUSH1 0xA0 SHL SUB PUSH1 0x1 SLOAD AND DUP1 EXTCODESIZE ISZERO PUSH2 0x462 JUMPI PUSH2 0x451 DUP4 SWAP3 SWAP2 DUP4 SWAP3 PUSH1 0x40 MLOAD SWAP5 DUP6 DUP1 SWAP5 DUP2 SWAP4 PUSH32 0x87C2DBAE00000000000000000000000000000000000000000000000000000000 DUP4 MSTORE CALLER PUSH1 0x4 DUP5 ADD MSTORE PUSH1 0x40 PUSH1 0x24 DUP5 ADD MSTORE PUSH1 0x44 DUP4 ADD SWAP1 PUSH2 0xFB5 JUMP JUMPDEST SUB SWAP3 GAS CALL DUP1 ISZERO PUSH2 0x324 JUMPI PUSH2 0x313 JUMPI POP RETURN JUMPDEST POP POP REVERT JUMPDEST PUSH1 0x1 SWAP1 PUSH1 0x20 PUSH1 0x1 PUSH1 0x1 PUSH1 0xA0 SHL SUB DUP8 MLOAD AND SWAP7 ADD SWAP6 DUP2 PUSH32 0x405787FA12A823E0F2B7631CC41B3BA8828B3321CA811111FA75CD3AA3BB5ACE ADD SSTORE ADD PUSH2 0x3E9 JUMP JUMPDEST PUSH32 0x405787FA12A823E0F2B7631CC41B3BA8828B3321CA811111FA75CD3AA3BB5ACE ADD DUP4 PUSH32 0x405787FA12A823E0F2B7631CC41B3BA8828B3321CA811111FA75CD3AA3BB5ACE ADD JUMPDEST DUP2 DUP2 LT PUSH2 0x4F6 JUMPI POP PUSH2 0x3DD JUMP JUMPDEST DUP4 DUP2 SSTORE PUSH1 0x1 ADD PUSH2 0x4E9 JUMP JUMPDEST PUSH1 0x24 DUP3 PUSH4 0x4E487B71 PUSH1 0xE0 SHL DUP2 MSTORE PUSH1 0x41 PUSH1 0x4 MSTORE REVERT JUMPDEST POP DUP1 REVERT JUMPDEST POP CALLVALUE PUSH2 0xD8 JUMPI DUP1 PUSH1 0x3 NOT CALLDATASIZE ADD SLT PUSH2 0xD8 JUMPI PUSH1 0x40 MLOAD DUP1 SWAP2 PUSH1 0x20 PUSH1 0x3 SLOAD SWAP3 DUP4 DUP2 MSTORE ADD SWAP2 PUSH1 0x3 DUP3 MSTORE PUSH32 0xC2575A0E9E593C00F959F8C92F12DB2869C3395A3B0502D05E2516446F71F85B SWAP2 JUMPDEST DUP2 DUP2 LT PUSH2 0x590 JUMPI PUSH2 0x58C DUP6 PUSH2 0x578 DUP2 DUP8 SUB DUP3 PUSH2 0xEEA JUMP JUMPDEST PUSH1 0x40 MLOAD SWAP2 DUP3 SWAP2 PUSH1 0x20 DUP4 MSTORE PUSH1 0x20 DUP4 ADD SWAP1 PUSH2 0xFB5 JUMP JUMPDEST SUB SWAP1 RETURN JUMPDEST DUP3 SLOAD PUSH1 0x1 PUSH1 0x1 PUSH1 0xA0 SHL SUB AND DUP5 MSTORE PUSH1 0x20 SWAP1 SWAP4 ADD SWAP3 PUSH1 0x1 SWAP3 DUP4 ADD SWAP3 ADD PUSH2 0x561 JUMP JUMPDEST POP CALLVALUE PUSH2 0xD8 JUMPI DUP1 PUSH1 0x3 NOT CALLDATASIZE ADD SLT PUSH2 0xD8 JUMPI PUSH1 0x1 PUSH1 0x1 PUSH1 0xA0 SHL SUB PUSH1 0x20 SWAP2 SLOAD AND PUSH1 0x40 MLOAD SWAP1 DUP2 MSTORE RETURN JUMPDEST POP CALLVALUE PUSH2 0xD8 JUMPI PUSH1 0x20 CALLDATASIZE PUSH1 0x3 NOT ADD SLT PUSH2 0xD8 JUMPI PUSH1 0x20 PUSH2 0xCE PUSH2 0x5F4 PUSH2 0xF22 JUMP JUMPDEST PUSH2 0x1087 JUMP JUMPDEST POP CALLVALUE PUSH2 0xD8 JUMPI DUP1 PUSH1 0x3 NOT CALLDATASIZE ADD SLT PUSH2 0xD8 JUMPI PUSH2 0x612 PUSH2 0x116C JUMP JUMPDEST DUP1 PUSH1 0x1 PUSH1 0x1 PUSH1 0xA0 SHL SUB DUP2 SLOAD PUSH20 0xFFFFFFFFFFFFFFFFFFFFFFFFFFFFFFFFFFFFFFFF NOT DUP2 AND DUP4 SSTORE AND PUSH32 0x8BE0079C531659141344CD1FD0A4F28419497F9722A3DAAFE3B4186F6B6457E0 DUP3 DUP1 LOG3 DUP1 RETURN JUMPDEST POP CALLVALUE PUSH2 0xD8 JUMPI PUSH1 0x60 CALLDATASIZE PUSH1 0x3 NOT ADD SLT PUSH2 0xD8 JUMPI PUSH2 0x679 PUSH2 0xF22 JUMP JUMPDEST SWAP1 PUSH1 0x24 CALLDATALOAD PUSH1 0x44 CALLDATALOAD PUSH1 0x1 PUSH1 0x1 PUSH1 0xA0 SHL SUB DUP2 AND DUP1 SWAP2 SUB PUSH2 0x809 JUMPI PUSH2 0x699 PUSH2 0x116C JUMP JUMPDEST PUSH2 0x6C0 PUSH1 0x40 MLOAD PUSH2 0x6AA PUSH1 0x40 DUP3 PUSH2 0xEEA JUMP JUMPDEST PUSH1 0x1 DUP2 MSTORE PUSH1 0x33 PUSH1 0xF8 SHL PUSH1 0x20 DUP3 ADD MSTORE DUP3 ISZERO ISZERO PUSH2 0xFF2 JUMP JUMPDEST PUSH1 0x5 SLOAD SWAP4 PUSH1 0x1 DUP6 ADD DUP1 SWAP6 GT PUSH2 0x7F5 JUMPI DUP5 DUP5 SWAP6 PUSH1 0x5 SSTORE DUP5 MSTORE PUSH1 0x6 PUSH1 0x20 MSTORE PUSH1 0x5 PUSH1 0x40 DUP6 KECCAK256 PUSH1 0x1 PUSH1 0x1 PUSH1 0xA0 SHL SUB DUP4 AND PUSH20 0xFFFFFFFFFFFFFFFFFFFFFFFFFFFFFFFFFFFFFFFF NOT DUP3 SLOAD AND OR DUP2 SSTORE DUP5 PUSH1 0x1 DUP3 ADD SSTORE PUSH1 0x2 DUP2 ADD DUP5 PUSH20 0xFFFFFFFFFFFFFFFFFFFFFFFFFFFFFFFFFFFFFFFF NOT DUP3 SLOAD AND OR SWAP1 SSTORE ADD PUSH1 0xFF NOT DUP2 SLOAD AND SWAP1 SSTORE PUSH1 0x1 PUSH1 0x1 PUSH1 0xA0 SHL SUB PUSH1 0x1 SLOAD AND PUSH1 0x1 PUSH1 0x1 PUSH1 0xA0 SHL SUB DUP6 SLOAD AND SWAP3 PUSH1 0x5 SLOAD SWAP1 PUSH1 0x40 MLOAD SWAP5 PUSH2 0x763 PUSH1 0x20 DUP8 PUSH2 0xEEA JUMP JUMPDEST DUP8 DUP7 MSTORE PUSH1 0x0 CALLDATASIZE DUP2 CALLDATACOPY DUP4 EXTCODESIZE ISZERO PUSH2 0x7F1 JUMPI PUSH2 0x7DA DUP9 SWAP7 DUP8 SWAP4 PUSH1 0x1 PUSH1 0x1 PUSH1 0xA0 SHL SUB SWAP10 PUSH1 0x40 MLOAD SWAP11 DUP12 SWAP10 DUP11 SWAP9 DUP10 SWAP8 PUSH32 0x80D028E900000000000000000000000000000000000000000000000000000000 DUP10 MSTORE PUSH1 0x4 DUP10 ADD MSTORE PUSH1 0x24 DUP9 ADD MSTORE AND PUSH1 0x44 DUP7 ADD MSTORE PUSH1 0x64 DUP6 ADD MSTORE PUSH1 0x84 DUP5 ADD MSTORE PUSH1 0xE0 PUSH1 0xA4 DUP5 ADD MSTORE PUSH1 0xE4 DUP4 ADD SWAP1 PUSH2 0xFB5 JUMP JUMPDEST DUP3 PUSH1 0xC4 DUP4 ADD MSTORE SUB SWAP3 GAS CALL DUP1 ISZERO PUSH2 0x324 JUMPI PUSH2 0x313 JUMPI POP RETURN JUMPDEST DUP8 DUP1 REVERT JUMPDEST PUSH1 0x24 DUP5 PUSH4 0x4E487B71 PUSH1 0xE0 SHL DUP2 MSTORE PUSH1 0x11 PUSH1 0x4 MSTORE REVERT JUMPDEST DUP3 DUP1 REVERT JUMPDEST POP PUSH1 0x60 CALLDATASIZE PUSH1 0x3 NOT ADD SLT PUSH2 0xD8 JUMPI DUP1 PUSH2 0x823 PUSH2 0xF22 JUMP JUMPDEST PUSH1 0x1 PUSH1 0x1 PUSH1 0xA0 SHL SUB PUSH1 0x24 CALLDATALOAD SWAP2 PUSH2 0x879 PUSH2 0x83B DUP3 PUSH2 0x1108 JUMP JUMPDEST PUSH1 0x40 MLOAD SWAP1 PUSH2 0x84A PUSH1 0x40 DUP4 PUSH2 0xEEA JUMP JUMPDEST PUSH1 0x3 DUP3 MSTORE PUSH32 0x3130320000000000000000000000000000000000000000000000000000000000 PUSH1 0x20 DUP4 ADD MSTORE PUSH2 0xFF2 JUMP JUMPDEST PUSH2 0x8A0 PUSH1 0x40 MLOAD PUSH2 0x88A PUSH1 0x40 DUP3 PUSH2 0xEEA JUMP JUMPDEST PUSH1 0x1 DUP2 MSTORE PUSH1 0x33 PUSH1 0xF8 SHL PUSH1 0x20 DUP3 ADD MSTORE DUP5 ISZERO ISZERO PUSH2 0xFF2 JUMP JUMPDEST AND DUP1 PUSH2 0x94E JUMPI PUSH2 0x8CD PUSH1 0x40 MLOAD PUSH2 0x8B7 PUSH1 0x40 DUP3 PUSH2 0xEEA JUMP JUMPDEST PUSH1 0x1 DUP2 MSTORE PUSH1 0x33 PUSH1 0xF8 SHL PUSH1 0x20 DUP3 ADD MSTORE CALLVALUE DUP5 EQ PUSH2 0xFF2 JUMP JUMPDEST PUSH1 0x1 PUSH1 0x1 PUSH1 0xA0 SHL SUB PUSH1 0x1 SLOAD AND SWAP1 PUSH1 0x1 PUSH1 0x1 PUSH1 0xA0 SHL SUB DUP5 SLOAD AND SWAP2 DUP1 EXTCODESIZE ISZERO PUSH2 0x94A JUMPI DUP5 SWAP3 DUP4 PUSH1 0xA4 SWAP3 PUSH1 0x40 MLOAD SWAP7 DUP8 SWAP6 DUP7 SWAP5 PUSH32 0xD4DC773B00000000000000000000000000000000000000000000000000000000 DUP7 MSTORE PUSH1 0x4 DUP7 ADD MSTORE PUSH1 0x24 DUP6 ADD MSTORE CALLER PUSH1 0x44 DUP6 ADD MSTORE PUSH1 0x64 DUP5 ADD MSTORE PUSH1 0x44 CALLDATALOAD PUSH1 0x84 DUP5 ADD MSTORE GAS CALL DUP1 ISZERO PUSH2 0x324 JUMPI PUSH2 0x313 JUMPI POP RETURN JUMPDEST DUP5 DUP1 REVERT JUMPDEST PUSH1 0x40 MLOAD PUSH32 0x23B872DD00000000000000000000000000000000000000000000000000000000 DUP2 MSTORE CALLER PUSH1 0x4 DUP3 ADD MSTORE ADDRESS PUSH1 0x24 DUP3 ADD MSTORE DUP3 PUSH1 0x44 DUP3 ADD MSTORE PUSH1 0x20 DUP2 PUSH1 0x64 DUP2 DUP8 DUP7 GAS CALL DUP1 ISZERO PUSH2 0x9D0 JUMPI PUSH2 0x9A1 JUMPI JUMPDEST POP PUSH2 0x8CD JUMP JUMPDEST PUSH2 0x9C2 SWAP1 PUSH1 0x20 RETURNDATASIZE PUSH1 0x20 GT PUSH2 0x9C9 JUMPI JUMPDEST PUSH2 0x9BA DUP2 DUP4 PUSH2 0xEEA JUMP JUMPDEST DUP2 ADD SWAP1 PUSH2 0x106F JUMP JUMPDEST POP CODESIZE PUSH2 0x99B JUMP JUMPDEST POP RETURNDATASIZE PUSH2 0x9B0 JUMP JUMPDEST PUSH1 0x40 MLOAD RETURNDATASIZE DUP7 DUP3 RETURNDATACOPY RETURNDATASIZE SWAP1 REVERT JUMPDEST POP CALLVALUE PUSH2 0xD8 JUMPI PUSH1 0x20 CALLDATASIZE PUSH1 0x3 NOT ADD SLT PUSH2 0xD8 JUMPI DUP1 PUSH1 0x4 CALLDATALOAD DUP1 DUP3 MSTORE PUSH1 0x6 PUSH1 0x20 MSTORE PUSH1 0x40 DUP3 KECCAK256 PUSH2 0xA48 PUSH1 0x3 DUP3 ADD SLOAD PUSH1 0x4 SLOAD GT ISZERO PUSH1 0x40 MLOAD SWAP1 PUSH2 0xA19 PUSH1 0x40 DUP4 PUSH2 0xEEA JUMP JUMPDEST PUSH1 0x3 DUP3 MSTORE PUSH32 0x3830310000000000000000000000000000000000000000000000000000000000 PUSH1 0x20 DUP4 ADD MSTORE PUSH2 0xFF2 JUMP JUMPDEST DUP3 PUSH1 0x5 DUP3 ADD SWAP2 PUSH2 0xA66 PUSH1 0xFF DUP5 SLOAD AND ISZERO PUSH1 0x40 MLOAD SWAP1 PUSH2 0x20F PUSH1 0x40 DUP4 PUSH2 0xEEA JUMP JUMPDEST DUP1 SLOAD PUSH1 0x1 PUSH1 0x1 PUSH1 0xA0 SHL SUB AND DUP1 PUSH2 0xB47 JUMPI POP DUP2 DUP1 DUP1 SWAP3 PUSH1 0x1 PUSH1 0x1 PUSH1 0xA0 SHL SUB PUSH1 0x2 SELFBALANCE SWAP3 PUSH2 0xAB5 PUSH1 0x1 DUP3 ADD SLOAD SWAP5 DUP6 PUSH1 0x40 MLOAD SWAP2 PUSH2 0xAA0 PUSH1 0x40 DUP5 PUSH2 0xEEA JUMP JUMPDEST PUSH1 0x1 DUP4 MSTORE PUSH1 0x35 PUSH1 0xF8 SHL PUSH1 0x20 DUP5 ADD MSTORE LT ISZERO PUSH2 0xFF2 JUMP JUMPDEST ADD SLOAD AND DUP3 DUP3 ISZERO PUSH2 0xB3E JUMPI JUMPDEST CALL ISZERO PUSH2 0x324 JUMPI JUMPDEST PUSH1 0x1 PUSH1 0xFF NOT DUP3 SLOAD AND OR SWAP1 SSTORE PUSH1 0x1 PUSH1 0x1 PUSH1 0xA0 SHL SUB PUSH1 0x1 SLOAD AND SWAP1 PUSH1 0x1 PUSH1 0x1 PUSH1 0xA0 SHL SUB DUP4 SLOAD AND SWAP1 DUP3 EXTCODESIZE ISZERO PUSH2 0x32F JUMPI PUSH1 0x40 MLOAD PUSH32 0x3300164500000000000000000000000000000000000000000000000000000000 DUP2 MSTORE PUSH1 0x1 PUSH1 0x1 PUSH1 0xA0 SHL SUB SWAP1 SWAP3 AND PUSH1 0x4 DUP4 ADD MSTORE PUSH1 0x24 DUP3 ADD MSTORE SWAP1 DUP3 SWAP1 DUP3 SWAP1 DUP2 DUP4 DUP2 PUSH1 0x44 DUP2 ADD PUSH2 0x451 JUMP JUMPDEST POP PUSH2 0x8FC PUSH2 0xAC0 JUMP JUMPDEST SWAP2 POP PUSH1 0x40 MLOAD SWAP1 PUSH32 0x70A0823100000000000000000000000000000000000000000000000000000000 DUP3 MSTORE ADDRESS PUSH1 0x4 DUP4 ADD MSTORE PUSH1 0x20 DUP3 PUSH1 0x24 DUP2 DUP7 GAS STATICCALL SWAP2 DUP3 ISZERO PUSH2 0xC8A JUMPI DUP7 SWAP3 PUSH2 0xC50 JUMPI JUMPDEST POP SWAP1 PUSH2 0xC1C SWAP3 PUSH1 0x1 PUSH1 0x1 PUSH1 0xA0 SHL SUB PUSH1 0x2 DUP5 PUSH2 0xBCD PUSH1 0x1 PUSH1 0x20 SWAP8 ADD SLOAD SWAP6 DUP7 PUSH1 0x40 MLOAD SWAP2 PUSH2 0xBB9 PUSH1 0x40 DUP5 PUSH2 0xEEA JUMP JUMPDEST PUSH1 0x1 DUP4 MSTORE PUSH1 0x35 PUSH1 0xF8 SHL DUP11 DUP5 ADD MSTORE LT ISZERO PUSH2 0xFF2 JUMP JUMPDEST ADD SLOAD AND DUP8 PUSH1 0x40 MLOAD DUP1 SWAP7 DUP2 SWAP6 DUP3 SWAP5 PUSH32 0xA9059CBB00000000000000000000000000000000000000000000000000000000 DUP5 MSTORE PUSH1 0x4 DUP5 ADD PUSH1 0x20 SWAP1 SWAP4 SWAP3 SWAP2 SWAP4 PUSH1 0x1 PUSH1 0x1 PUSH1 0xA0 SHL SUB PUSH1 0x40 DUP3 ADD SWAP6 AND DUP2 MSTORE ADD MSTORE JUMP JUMPDEST SUB SWAP3 GAS CALL DUP1 ISZERO PUSH2 0x9D0 JUMPI PUSH2 0xC31 JUMPI JUMPDEST POP PUSH2 0xAC7 JUMP JUMPDEST PUSH2 0xC49 SWAP1 PUSH1 0x20 RETURNDATASIZE PUSH1 0x20 GT PUSH2 0x9C9 JUMPI PUSH2 0x9BA DUP2 DUP4 PUSH2 0xEEA JUMP JUMPDEST POP CODESIZE PUSH2 0xC2B JUMP JUMPDEST SWAP2 POP PUSH1 0x20 DUP3 RETURNDATASIZE PUSH1 0x20 GT PUSH2 0xC82 JUMPI JUMPDEST DUP2 PUSH2 0xC6B PUSH1 0x20 SWAP4 DUP4 PUSH2 0xEEA JUMP JUMPDEST DUP2 ADD SUB SLT PUSH2 0xC7E JUMPI SWAP1 MLOAD SWAP1 PUSH2 0xC1C PUSH2 0xB8D JUMP JUMPDEST DUP6 DUP1 REVERT JUMPDEST RETURNDATASIZE SWAP2 POP PUSH2 0xC5E JUMP JUMPDEST PUSH1 0x40 MLOAD RETURNDATASIZE DUP9 DUP3 RETURNDATACOPY RETURNDATASIZE SWAP1 REVERT JUMPDEST POP CALLVALUE PUSH2 0xD8 JUMPI PUSH1 0x40 CALLDATASIZE PUSH1 0x3 NOT ADD SLT PUSH2 0xD8 JUMPI PUSH1 0x4 CALLDATALOAD PUSH8 0xFFFFFFFFFFFFFFFF DUP2 GT PUSH2 0x515 JUMPI PUSH2 0xCC7 SWAP1 CALLDATASIZE SWAP1 PUSH1 0x4 ADD PUSH2 0xF3D JUMP JUMPDEST PUSH1 0x24 CALLDATALOAD SWAP1 PUSH2 0xCD3 PUSH2 0x116C JUMP JUMPDEST PUSH2 0xD16 PUSH1 0x40 MLOAD PUSH2 0xCE4 PUSH1 0x40 DUP3 PUSH2 0xEEA JUMP JUMPDEST PUSH1 0x3 DUP2 MSTORE PUSH32 0x3830300000000000000000000000000000000000000000000000000000000000 PUSH1 0x20 DUP3 ADD MSTORE DUP4 ISZERO ISZERO PUSH2 0xFF2 JUMP JUMPDEST PUSH2 0xD5C DUP2 MLOAD DUP4 GT ISZERO PUSH1 0x40 MLOAD SWAP1 PUSH2 0xD2D PUSH1 0x40 DUP4 PUSH2 0xEEA JUMP JUMPDEST PUSH1 0x1 DUP3 MSTORE PUSH32 0x3600000000000000000000000000000000000000000000000000000000000000 PUSH1 0x20 DUP4 ADD MSTORE PUSH2 0xFF2 JUMP JUMPDEST DUP1 MLOAD PUSH8 0xFFFFFFFFFFFFFFFF DUP2 GT PUSH2 0xED6 JUMPI PUSH9 0x10000000000000000 DUP2 GT PUSH2 0xED6 JUMPI PUSH1 0x3 SLOAD DUP2 PUSH1 0x3 SSTORE DUP1 DUP3 LT PUSH2 0xE78 JUMPI JUMPDEST POP SWAP1 DUP4 SWAP2 PUSH1 0x20 DUP3 ADD PUSH1 0x3 DUP5 MSTORE DUP4 JUMPDEST DUP3 DUP2 LT PUSH2 0xE38 JUMPI POP POP POP DUP3 PUSH1 0x4 SSTORE PUSH1 0x1 PUSH1 0x1 PUSH1 0xA0 SHL SUB PUSH1 0x1 SLOAD AND SWAP1 DUP2 EXTCODESIZE ISZERO PUSH2 0x809 JUMPI DUP3 SWAP2 PUSH2 0xE06 SWAP2 DUP4 PUSH1 0x40 MLOAD DUP1 SWAP8 DUP2 SWAP6 DUP3 SWAP5 PUSH32 0x3DF5E28900000000000000000000000000000000000000000000000000000000 DUP5 MSTORE CALLER PUSH1 0x4 DUP6 ADD MSTORE PUSH1 0x60 PUSH1 0x24 DUP6 ADD MSTORE PUSH1 0x64 DUP5 ADD SWAP1 PUSH2 0xFB5 JUMP JUMPDEST SWAP1 PUSH1 0x44 DUP4 ADD MSTORE SUB SWAP3 GAS CALL DUP1 ISZERO PUSH2 0xE2B JUMPI PUSH2 0xE1D JUMPI DUP1 RETURN JUMPDEST PUSH2 0xE26 SWAP2 PUSH2 0xEEA JUMP JUMPDEST CODESIZE DUP2 DUP1 RETURN JUMPDEST POP PUSH1 0x40 MLOAD SWAP1 RETURNDATASIZE SWAP1 DUP3 RETURNDATACOPY RETURNDATASIZE SWAP1 REVERT JUMPDEST DUP2 MLOAD PUSH1 0x1 PUSH1 0x1 PUSH1 0xA0 SHL SUB AND PUSH32 0xC2575A0E9E593C00F959F8C92F12DB2869C3395A3B0502D05E2516446F71F85B DUP3 ADD SSTORE DUP7 SWAP5 POP PUSH1 0x20 SWAP1 SWAP2 ADD SWAP1 PUSH1 0x1 ADD PUSH2 0xD9A JUMP JUMPDEST PUSH32 0xC2575A0E9E593C00F959F8C92F12DB2869C3395A3B0502D05E2516446F71F85B ADD DUP2 PUSH32 0xC2575A0E9E593C00F959F8C92F12DB2869C3395A3B0502D05E2516446F71F85B ADD JUMPDEST DUP2 DUP2 LT PUSH2 0xECB JUMPI POP PUSH2 0xD8C JUMP JUMPDEST DUP6 DUP2 SSTORE PUSH1 0x1 ADD PUSH2 0xEBE JUMP JUMPDEST PUSH1 0x24 DUP5 PUSH4 0x4E487B71 PUSH1 0xE0 SHL DUP2 MSTORE PUSH1 0x41 PUSH1 0x4 MSTORE REVERT JUMPDEST SWAP1 PUSH1 0x1F DUP1 NOT SWAP2 ADD AND DUP2 ADD SWAP1 DUP2 LT PUSH8 0xFFFFFFFFFFFFFFFF DUP3 GT OR PUSH2 0xF0C JUMPI PUSH1 0x40 MSTORE JUMP JUMPDEST PUSH4 0x4E487B71 PUSH1 0xE0 SHL PUSH1 0x0 MSTORE PUSH1 0x41 PUSH1 0x4 MSTORE PUSH1 0x24 PUSH1 0x0 REVERT JUMPDEST PUSH1 0x4 CALLDATALOAD SWAP1 PUSH1 0x1 PUSH1 0x1 PUSH1 0xA0 SHL SUB DUP3 AND DUP3 SUB PUSH2 0xF38 JUMPI JUMP JUMPDEST PUSH1 0x0 DUP1 REVERT JUMPDEST DUP2 PUSH1 0x1F DUP3 ADD SLT ISZERO PUSH2 0xF38 JUMPI DUP1 CALLDATALOAD SWAP2 PUSH8 0xFFFFFFFFFFFFFFFF DUP4 GT PUSH2 0xF0C JUMPI DUP3 PUSH1 0x5 SHL SWAP2 PUSH1 0x20 DUP4 ADD SWAP4 PUSH2 0xF71 PUSH1 0x40 MLOAD SWAP6 DUP7 PUSH2 0xEEA JUMP JUMPDEST DUP5 MSTORE PUSH1 0x20 DUP1 DUP6 ADD SWAP4 DUP3 ADD ADD SWAP2 DUP3 GT PUSH2 0xF38 JUMPI PUSH1 0x20 ADD SWAP2 JUMPDEST DUP2 DUP4 LT PUSH2 0xF95 JUMPI POP POP POP SWAP1 JUMP JUMPDEST DUP3 CALLDATALOAD PUSH1 0x1 PUSH1 0x1 PUSH1 0xA0 SHL SUB DUP2 AND DUP2 SUB PUSH2 0xF38 JUMPI DUP2 MSTORE PUSH1 0x20 SWAP3 DUP4 ADD SWAP3 ADD PUSH2 0xF88 JUMP JUMPDEST SWAP1 PUSH1 0x20 DUP1 DUP4 MLOAD SWAP3 DUP4 DUP2 MSTORE ADD SWAP3 ADD SWAP1 PUSH1 0x0 JUMPDEST DUP2 DUP2 LT PUSH2 0xFD3 JUMPI POP POP POP SWAP1 JUMP JUMPDEST DUP3 MLOAD PUSH1 0x1 PUSH1 0x1 PUSH1 0xA0 SHL SUB AND DUP5 MSTORE PUSH1 0x20 SWAP4 DUP5 ADD SWAP4 SWAP1 SWAP3 ADD SWAP2 PUSH1 0x1 ADD PUSH2 0xFC6 JUMP JUMPDEST ISZERO PUSH2 0xFFA JUMPI POP JUMP JUMPDEST PUSH1 0x40 MLOAD SWAP1 PUSH32 0x8C379A000000000000000000000000000000000000000000000000000000000 DUP3 MSTORE PUSH1 0x20 PUSH1 0x4 DUP4 ADD MSTORE DUP2 DUP2 MLOAD SWAP2 DUP3 PUSH1 0x24 DUP4 ADD MSTORE PUSH1 0x0 JUMPDEST DUP4 DUP2 LT PUSH2 0x1057 JUMPI POP POP DUP2 PUSH1 0x0 PUSH1 0x44 DUP1 SWAP5 DUP5 ADD ADD MSTORE PUSH1 0x1F DUP1 NOT SWAP2 ADD AND DUP2 ADD SUB ADD SWAP1 REVERT JUMPDEST PUSH1 0x20 DUP3 DUP3 ADD DUP2 ADD MLOAD PUSH1 0x44 DUP8 DUP5 ADD ADD MSTORE DUP6 SWAP4 POP ADD PUSH2 0x1035 JUMP JUMPDEST SWAP1 DUP2 PUSH1 0x20 SWAP2 SUB SLT PUSH2 0xF38 JUMPI MLOAD DUP1 ISZERO ISZERO DUP2 SUB PUSH2 0xF38 JUMPI SWAP1 JUMP JUMPDEST PUSH1 0x3 SLOAD SWAP1 DUP2 PUSH1 0x0 JUMPDEST DUP4 DUP2 LT PUSH2 0x109F JUMPI POP POP POP POP PUSH1 0x0 SWAP1 JUMP JUMPDEST PUSH1 0x0 DUP3 DUP3 LT ISZERO PUSH2 0x10F4 JUMPI PUSH1 0x3 SWAP1 MSTORE PUSH32 0xC2575A0E9E593C00F959F8C92F12DB2869C3395A3B0502D05E2516446F71F85B DUP2 ADD SLOAD PUSH1 0x1 PUSH1 0x1 PUSH1 0xA0 SHL SUB DUP5 DUP2 AND SWAP2 AND EQ PUSH2 0x10EB JUMPI PUSH1 0x1 ADD PUSH2 0x108F JUMP JUMPDEST POP POP POP POP PUSH1 0x1 SWAP1 JUMP JUMPDEST DUP1 PUSH4 0x4E487B71 PUSH1 0xE0 SHL PUSH1 0x24 SWAP3 MSTORE PUSH1 0x32 PUSH1 0x4 MSTORE REVERT JUMPDEST PUSH1 0x2 SLOAD SWAP1 DUP2 PUSH1 0x0 JUMPDEST DUP4 DUP2 LT PUSH2 0x1120 JUMPI POP POP POP POP PUSH1 0x0 SWAP1 JUMP JUMPDEST PUSH1 0x0 DUP3 DUP3 LT ISZERO PUSH2 0x10F4 JUMPI PUSH1 0x2 SWAP1 MSTORE PUSH32 0x405787FA12A823E0F2B7631CC41B3BA8828B3321CA811111FA75CD3AA3BB5ACE DUP2 ADD SLOAD PUSH1 0x1 PUSH1 0x1 PUSH1 0xA0 SHL SUB DUP5 DUP2 AND SWAP2 AND EQ PUSH2 0x10EB JUMPI PUSH1 0x1 ADD PUSH2 0x1110 JUMP JUMPDEST PUSH1 0x1 PUSH1 0x1 PUSH1 0xA0 SHL SUB PUSH1 0x0 SLOAD AND CALLER SUB PUSH2 0x1180 JUMPI JUMP JUMPDEST PUSH32 0x118CDAA700000000000000000000000000000000000000000000000000000000 PUSH1 0x0 MSTORE CALLER PUSH1 0x4 MSTORE PUSH1 0x24 PUSH1 0x0 REVERT INVALID LOG2 PUSH5 0x6970667358 0x22 SLT KECCAK256 GASPRICE PUSH30 0x7AD41FFFE6131E9B2DA7C29B8168DA37FE3DF296B156A08F684FE20A7925 PUSH5 0x736F6C6343 STOP ADDMOD SHR STOP CALLER LOG2 PUSH5 0x6970667358 0x22 SLT KECCAK256 PUSH2 0x927 0x4D AND 0x2F 0xE1 PUSH8 0xD53E16DE77F120C8 0xE3 0xEE 0xD9 PUSH15 0xC079C5418E02909B3610828864736F PUSH13 0x634300081C0033000000000000 "
        },
        "methodIdentifiers": {
          "create(((uint8,string),address[],address[],uint256))": "2e275b3c",
          "createSubscription((address,uint256,uint256,uint256,string))": "ba4950d8",
          "deleteSubscription((bytes32))": "31443e0d",
          "getMerchant(address)": "b2734eaf",
          "getSubscription(bytes32)": "1f32768e",
          "getWallet(address)": "04d0a647",
          "owner()": "8da5cb5b",
          "pause()": "8456cb59",
          "paused()": "5c975abb",
          "renounceOwnership()": "715018a6",
          "transferOwnership(address)": "f2fde38b",
          "unpause()": "3f4ba83a",
          "update(((uint8,string)))": "595c4e63",
          "updateSubscription((bytes32,uint256,uint256,string,bool))": "9ef2dda6"
        }
      }
    }
  }
}