{
  "contracts/MultiSigWallet.sol": {
    "MultiSigWallet": {
      "abi": [
        {
          "inputs": [
            {
              "internalType": "contract IWalletEvents",
              "name": "events_",
              "type": "address"
            },
            {
              "internalType": "address",
              "name": "merchant_",
              "type": "address"
            },
            {
              "internalType": "address[]",
              "name": "tokens_",
              "type": "address[]"
            },
            {
              "internalType": "address[]",
              "name": "signers_",
              "type": "address[]"
            },
            {
              "internalType": "uint256",
              "name": "minSigners_",
              "type": "uint256"
            }
          ],
          "stateMutability": "payable",
          "type": "constructor"
        },
        {
          "inputs": [
            {
              "internalType": "address",
              "name": "owner",
              "type": "address"
            }
          ],
          "name": "OwnableInvalidOwner",
          "type": "error"
        },
        {
          "inputs": [
            {
              "internalType": "address",
              "name": "account",
              "type": "address"
            }
          ],
          "name": "OwnableUnauthorizedAccount",
          "type": "error"
        },
        {
          "anonymous": false,
          "inputs": [
            {
              "indexed": true,
              "internalType": "address",
              "name": "previousOwner",
              "type": "address"
            },
            {
              "indexed": true,
              "internalType": "address",
              "name": "newOwner",
              "type": "address"
            }
          ],
          "name": "OwnershipTransferred",
          "type": "event"
        },
        {
          "inputs": [
            {
              "internalType": "uint256",
              "name": "requestId",
              "type": "uint256"
            }
          ],
          "name": "approveWithdraw",
          "outputs": [],
          "stateMutability": "nonpayable",
          "type": "function"
        },
        {
          "inputs": [
            {
              "internalType": "address",
              "name": "token",
              "type": "address"
            },
            {
              "internalType": "uint256",
              "name": "amount",
              "type": "uint256"
            },
            {
              "internalType": "bytes32",
              "name": "transactionId",
              "type": "bytes32"
            }
          ],
          "name": "deposit",
          "outputs": [],
          "stateMutability": "payable",
          "type": "function"
        },
        {
          "inputs": [
            {
              "internalType": "uint256",
              "name": "requestId",
              "type": "uint256"
            }
          ],
          "name": "executeWithdraw",
          "outputs": [],
          "stateMutability": "nonpayable",
          "type": "function"
        },
        {
          "inputs": [],
          "name": "getSigners",
          "outputs": [
            {
              "internalType": "address[]",
              "name": "",
              "type": "address[]"
            }
          ],
          "stateMutability": "view",
          "type": "function"
        },
        {
          "inputs": [
            {
              "internalType": "address",
              "name": "account",
              "type": "address"
            }
          ],
          "name": "isSigner",
          "outputs": [
            {
              "internalType": "bool",
              "name": "",
              "type": "bool"
            }
          ],
          "stateMutability": "view",
          "type": "function"
        },
        {
          "inputs": [
            {
              "internalType": "address",
              "name": "token",
              "type": "address"
            }
          ],
          "name": "isTokenAllowed",
          "outputs": [
            {
              "internalType": "bool",
              "name": "",
              "type": "bool"
            }
          ],
          "stateMutability": "view",
          "type": "function"
        },
        {
          "inputs": [],
          "name": "owner",
          "outputs": [
            {
              "internalType": "address",
              "name": "",
              "type": "address"
            }
          ],
          "stateMutability": "view",
          "type": "function"
        },
        {
          "inputs": [],
          "name": "renounceOwnership",
          "outputs": [],
          "stateMutability": "nonpayable",
          "type": "function"
        },
        {
          "inputs": [
            {
              "internalType": "address",
              "name": "token",
              "type": "address"
            },
            {
              "internalType": "uint256",
              "name": "amount",
              "type": "uint256"
            },
            {
              "internalType": "address",
              "name": "recipient",
              "type": "address"
            }
          ],
          "name": "requestWithdraw",
          "outputs": [],
          "stateMutability": "nonpayable",
          "type": "function"
        },
        {
          "inputs": [
            {
              "internalType": "address",
              "name": "newOwner",
              "type": "address"
            }
          ],
          "name": "transferOwnership",
          "outputs": [],
          "stateMutability": "nonpayable",
          "type": "function"
        },
        {
          "inputs": [
            {
              "internalType": "address[]",
              "name": "signers",
              "type": "address[]"
            },
            {
              "internalType": "uint256",
              "name": "minSigners",
              "type": "uint256"
            }
          ],
          "name": "updateSigners",
          "outputs": [],
          "stateMutability": "nonpayable",
          "type": "function"
        },
        {
          "inputs": [
            {
              "internalType": "address[]",
              "name": "tokens",
              "type": "address[]"
            }
          ],
          "name": "updateTokens",
          "outputs": [],
          "stateMutability": "nonpayable",
          "type": "function"
        },
        {
          "stateMutability": "payable",
          "type": "receive"
        }
      ],
      "evm": {
        "bytecode": {
          "linkReferences": {},
          "object": "60806040526115c580380380610014816102da565b92833981019060a0818303126102d55780516001600160a01b03811692908390036102d557610045602083016102ff565b60408301519093906001600160401b0381116102d55782610067918501610313565b60608401519092906001600160401b0381116102d55760809161008b918601610313565b930151936001600160a01b031680156102bf57600080546001600160a01b03198116831782556001600160a01b0316907f8be0079c531659141344cd1fd0a4f28419497f9722a3daafe3b4186f6b6457e09080a36101046100ec60406102da565b600381526203830360ec1b602082015285151561037d565b61012a835185111561011660406102da565b9060018252601b60f91b602083015261037d565b600180546001600160a01b0319169190911790558051906001600160401b038211610246576801000000000000000082116102465760025482600255808310610279575b506020016002600052602060002060005b83811061025c5784518690866001600160401b038211610246576801000000000000000082116102465760035482600355808310610200575b506020016003600052602060002060005b8381106101e357846004556040516111e490816103e18239f35b82516001600160a01b0316818301556020909201916001016101c9565b60036000527fc2575a0e9e593c00f959f8c92f12db2869c3395a3b0502d05e2516446f71f85b9081019083015b81811061023a57506101b8565b6000815560010161022d565b634e487b7160e01b600052604160045260246000fd5b82516001600160a01b03168183015560209092019160010161017f565b60026000527f405787fa12a823e0f2b7631cc41b3ba8828b3321ca811111fa75cd3aa3bb5ace9081019083015b8181106102b3575061016e565b600081556001016102a6565b631e4fbdf760e01b600052600060045260246000fd5b600080fd5b6040519190601f01601f191682016001600160401b0381118382101761024657604052565b51906001600160a01b03821682036102d557565b9080601f830112156102d5578151916001600160401b038311610246578260051b906020806103438185016102da565b8096815201928201019283116102d557602001905b8282106103655750505090565b60208091610372846102ff565b815201910190610358565b156103855750565b6040519062461bcd60e51b8252602060048301528181519182602483015260005b8381106103c85750508160006044809484010152601f80199101168101030190fd5b602082820181015160448784010152859350016103a656fe6080604052600436101561001b575b361561001957600080fd5b005b6000803560e01c806311ff708d14610c955780632104ebf1146109db57806326b3293f1461080d57806344cbf1771461065f578063715018a6146105f95780637df73e27146105d55780638da5cb5b146105af57806394cf795e14610519578063de41691c14610348578063ec4673d114610186578063f2fde38b146100db5763f9eaee0d146100ab575061000e565b346100d85760203660031901126100d85760206100ce6100c9610f22565b611108565b6040519015158152f35b80fd5b50346100d85760203660031901126100d8576001600160a01b036100fd610f22565b61010561116c565b16801561015a576001600160a01b0382548273ffffffffffffffffffffffffffffffffffffffff198216178455167f8be0079c531659141344cd1fd0a4f28419497f9722a3daafe3b4186f6b6457e08380a380f35b6024827f1e4fbdf700000000000000000000000000000000000000000000000000000000815280600452fd5b50346100d85760203660031901126100d857600435906101e66101a833611087565b604051906101b7604083610eea565b600182527f32000000000000000000000000000000000000000000000000000000000000006020830152610ff2565b818152600660205260036040822061023e60ff600583015416156040519061020f604083610eea565b600182527f34000000000000000000000000000000000000000000000000000000000000006020830152610ff2565b600481016001600160a01b0333166000528060205261026f60ff60406000205416156040519061020f604083610eea565b6001600160a01b0333166000526020526040600020600160ff198254161790550191825492600019841461033457600183940190556001600160a01b0360015416906001600160a01b0383541690823b1561032f57606484928360405195869485937fe58e9829000000000000000000000000000000000000000000000000000000008552600485015260248401523360448401525af18015610324576103135750f35b8161031d91610eea565b6100d85780f35b6040513d84823e3d90fd5b505050fd5b602483634e487b7160e01b81526011600452fd5b50346100d85760203660031901126100d85760043567ffffffffffffffff81116105155761037a903690600401610f3d565b9061038361116c565b6103ac8251151560405190610399604083610eea565b60018252603360f81b6020830152610ff2565b81519167ffffffffffffffff83116105015768010000000000000000831161050157600254836002558084106104a3575b50602081019260028352825b818110610466578380846001600160a01b0360015416803b156104625761045183929183926040519485809481937f87c2dbae000000000000000000000000000000000000000000000000000000008352336004840152604060248401526044830190610fb5565b03925af18015610324576103135750f35b5050fd5b60019060206001600160a01b03875116960195817f405787fa12a823e0f2b7631cc41b3ba8828b3321ca811111fa75cd3aa3bb5ace0155016103e9565b7f405787fa12a823e0f2b7631cc41b3ba8828b3321ca811111fa75cd3aa3bb5ace01837f405787fa12a823e0f2b7631cc41b3ba8828b3321ca811111fa75cd3aa3bb5ace015b8181106104f657506103dd565b8381556001016104e9565b602482634e487b7160e01b81526041600452fd5b5080fd5b50346100d857806003193601126100d85760405180916020600354928381520191600382527fc2575a0e9e593c00f959f8c92f12db2869c3395a3b0502d05e2516446f71f85b915b8181106105905761058c8561057881870382610eea565b604051918291602083526020830190610fb5565b0390f35b82546001600160a01b0316845260209093019260019283019201610561565b50346100d857806003193601126100d8576001600160a01b036020915416604051908152f35b50346100d85760203660031901126100d85760206100ce6105f4610f22565b611087565b50346100d857806003193601126100d85761061261116c565b806001600160a01b03815473ffffffffffffffffffffffffffffffffffffffff1981168355167f8be0079c531659141344cd1fd0a4f28419497f9722a3daafe3b4186f6b6457e08280a380f35b50346100d85760603660031901126100d857610679610f22565b906024356044356001600160a01b0381168091036108095761069961116c565b6106c06040516106aa604082610eea565b60018152603360f81b6020820152821515610ff2565b60055493600185018095116107f557848495600555845260066020526005604085206001600160a01b03831673ffffffffffffffffffffffffffffffffffffffff19825416178155846001820155600281018473ffffffffffffffffffffffffffffffffffffffff198254161790550160ff1981541690556001600160a01b03600154166001600160a01b03855416926005549060405194610763602087610eea565b8786526000368137833b156107f1576107da889687936001600160a01b03996040519a8b998a9889977f80d028e9000000000000000000000000000000000000000000000000000000008952600489015260248801521660448601526064850152608484015260e060a484015260e4830190610fb5565b8260c483015203925af18015610324576103135750f35b8780fd5b602484634e487b7160e01b81526011600452fd5b8280fd5b5060603660031901126100d85780610823610f22565b6001600160a01b036024359161087961083b82611108565b6040519061084a604083610eea565b600382527f31303200000000000000000000000000000000000000000000000000000000006020830152610ff2565b6108a060405161088a604082610eea565b60018152603360f81b6020820152841515610ff2565b168061094e576108cd6040516108b7604082610eea565b60018152603360f81b6020820152348414610ff2565b6001600160a01b0360015416906001600160a01b0384541691803b1561094a5784928360a49260405196879586947fd4dc773b00000000000000000000000000000000000000000000000000000000865260048601526024850152336044850152606484015260443560848401525af18015610324576103135750f35b8480fd5b6040517f23b872dd00000000000000000000000000000000000000000000000000000000815233600482015230602482015282604482015260208160648187865af180156109d0576109a1575b506108cd565b6109c29060203d6020116109c9575b6109ba8183610eea565b81019061106f565b503861099b565b503d6109b0565b6040513d86823e3d90fd5b50346100d85760203660031901126100d85780600435808252600660205260408220610a486003820154600454111560405190610a19604083610eea565b600382527f38303100000000000000000000000000000000000000000000000000000000006020830152610ff2565b826005820191610a6660ff845416156040519061020f604083610eea565b80546001600160a01b031680610b475750818080926001600160a01b0360024792610ab56001820154948560405191610aa0604084610eea565b60018352603560f81b60208401521015610ff2565b015416828215610b3e575bf115610324575b600160ff198254161790556001600160a01b0360015416906001600160a01b0383541690823b1561032f576040517f330016450000000000000000000000000000000000000000000000000000000081526001600160a01b0390921660048301526024820152908290829081838160448101610451565b506108fc610ac0565b9150604051907f70a08231000000000000000000000000000000000000000000000000000000008252306004830152602082602481865afa918215610c8a578692610c50575b5090610c1c926001600160a01b03600284610bcd60016020970154958660405191610bb9604084610eea565b60018352603560f81b8a8401521015610ff2565b015416876040518096819582947fa9059cbb00000000000000000000000000000000000000000000000000000000845260048401602090939291936001600160a01b0360408201951681520152565b03925af180156109d057610c31575b50610ac7565b610c499060203d6020116109c9576109ba8183610eea565b5038610c2b565b91506020823d602011610c82575b81610c6b60209383610eea565b81010312610c7e57905190610c1c610b8d565b8580fd5b3d9150610c5e565b6040513d88823e3d90fd5b50346100d85760403660031901126100d85760043567ffffffffffffffff811161051557610cc7903690600401610f3d565b60243590610cd361116c565b610d16604051610ce4604082610eea565b600381527f38303000000000000000000000000000000000000000000000000000000000006020820152831515610ff2565b610d5c815183111560405190610d2d604083610eea565b600182527f36000000000000000000000000000000000000000000000000000000000000006020830152610ff2565b805167ffffffffffffffff8111610ed657680100000000000000008111610ed65760035481600355808210610e78575b509083916020820160038452835b828110610e3857505050826004556001600160a01b036001541690813b15610809578291610e0691836040518097819582947f3df5e289000000000000000000000000000000000000000000000000000000008452336004850152606060248501526064840190610fb5565b90604483015203925af18015610e2b57610e1d5780f35b610e2691610eea565b388180f35b50604051903d90823e3d90fd5b81516001600160a01b03167fc2575a0e9e593c00f959f8c92f12db2869c3395a3b0502d05e2516446f71f85b820155869450602090910190600101610d9a565b7fc2575a0e9e593c00f959f8c92f12db2869c3395a3b0502d05e2516446f71f85b01817fc2575a0e9e593c00f959f8c92f12db2869c3395a3b0502d05e2516446f71f85b015b818110610ecb5750610d8c565b858155600101610ebe565b602484634e487b7160e01b81526041600452fd5b90601f8019910116810190811067ffffffffffffffff821117610f0c57604052565b634e487b7160e01b600052604160045260246000fd5b600435906001600160a01b0382168203610f3857565b600080fd5b81601f82011215610f385780359167ffffffffffffffff8311610f0c578260051b916020830193610f716040519586610eea565b8452602080850193820101918211610f3857602001915b818310610f955750505090565b82356001600160a01b0381168103610f3857815260209283019201610f88565b906020808351928381520192019060005b818110610fd35750505090565b82516001600160a01b0316845260209384019390920191600101610fc6565b15610ffa5750565b604051907f08c379a0000000000000000000000000000000000000000000000000000000008252602060048301528181519182602483015260005b8381106110575750508160006044809484010152601f80199101168101030190fd5b60208282018101516044878401015285935001611035565b90816020910312610f3857518015158103610f385790565b600354908160005b83811061109f5750505050600090565b6000828210156110f457600390527fc2575a0e9e593c00f959f8c92f12db2869c3395a3b0502d05e2516446f71f85b8101546001600160a01b038481169116146110eb5760010161108f565b50505050600190565b80634e487b7160e01b602492526032600452fd5b600254908160005b8381106111205750505050600090565b6000828210156110f457600290527f405787fa12a823e0f2b7631cc41b3ba8828b3321ca811111fa75cd3aa3bb5ace8101546001600160a01b038481169116146110eb57600101611110565b6001600160a01b0360005416330361118057565b7f118cdaa7000000000000000000000000000000000000000000000000000000006000523360045260246000fdfea26469706673582212203a7d7ad41fffe6131e9b2da7c29b8168da37fe3df296b156a08f684fe20a792564736f6c634300081c0033",
          "opcodes": "PUSH1 0x80 PUSH1 0x40 MSTORE PUSH2 0x15C5 DUP1 CODESIZE SUB DUP1 PUSH2 0x14 DUP2 PUSH2 0x2DA JUMP JUMPDEST SWAP3 DUP4 CODECOPY DUP2 ADD SWAP1 PUSH1 0xA0 DUP2 DUP4 SUB SLT PUSH2 0x2D5 JUMPI DUP1 MLOAD PUSH1 0x1 PUSH1 0x1 PUSH1 0xA0 SHL SUB DUP2 AND SWAP3 SWAP1 DUP4 SWAP1 SUB PUSH2 0x2D5 JUMPI PUSH2 0x45 PUSH1 0x20 DUP4 ADD PUSH2 0x2FF JUMP JUMPDEST PUSH1 0x40 DUP4 ADD MLOAD SWAP1 SWAP4 SWAP1 PUSH1 0x1 PUSH1 0x1 PUSH1 0x40 SHL SUB DUP2 GT PUSH2 0x2D5 JUMPI DUP3 PUSH2 0x67 SWAP2 DUP6 ADD PUSH2 0x313 JUMP JUMPDEST PUSH1 0x60 DUP5 ADD MLOAD SWAP1 SWAP3 SWAP1 PUSH1 0x1 PUSH1 0x1 PUSH1 0x40 SHL SUB DUP2 GT PUSH2 0x2D5 JUMPI PUSH1 0x80 SWAP2 PUSH2 0x8B SWAP2 DUP7 ADD PUSH2 0x313 JUMP JUMPDEST SWAP4 ADD MLOAD SWAP4 PUSH1 0x1 PUSH1 0x1 PUSH1 0xA0 SHL SUB AND DUP1 ISZERO PUSH2 0x2BF JUMPI PUSH1 0x0 DUP1 SLOAD PUSH1 0x1 PUSH1 0x1 PUSH1 0xA0 SHL SUB NOT DUP2 AND DUP4 OR DUP3 SSTORE PUSH1 0x1 PUSH1 0x1 PUSH1 0xA0 SHL SUB AND SWAP1 PUSH32 0x8BE0079C531659141344CD1FD0A4F28419497F9722A3DAAFE3B4186F6B6457E0 SWAP1 DUP1 LOG3 PUSH2 0x104 PUSH2 0xEC PUSH1 0x40 PUSH2 0x2DA JUMP JUMPDEST PUSH1 0x3 DUP2 MSTORE PUSH3 0x38303 PUSH1 0xEC SHL PUSH1 0x20 DUP3 ADD MSTORE DUP6 ISZERO ISZERO PUSH2 0x37D JUMP JUMPDEST PUSH2 0x12A DUP4 MLOAD DUP6 GT ISZERO PUSH2 0x116 PUSH1 0x40 PUSH2 0x2DA JUMP JUMPDEST SWAP1 PUSH1 0x1 DUP3 MSTORE PUSH1 0x1B PUSH1 0xF9 SHL PUSH1 0x20 DUP4 ADD MSTORE PUSH2 0x37D JUMP JUMPDEST PUSH1 0x1 DUP1 SLOAD PUSH1 0x1 PUSH1 0x1 PUSH1 0xA0 SHL SUB NOT AND SWAP2 SWAP1 SWAP2 OR SWAP1 SSTORE DUP1 MLOAD SWAP1 PUSH1 0x1 PUSH1 0x1 PUSH1 0x40 SHL SUB DUP3 GT PUSH2 0x246 JUMPI PUSH9 0x10000000000000000 DUP3 GT PUSH2 0x246 JUMPI PUSH1 0x2 SLOAD DUP3 PUSH1 0x2 SSTORE DUP1 DUP4 LT PUSH2 0x279 JUMPI JUMPDEST POP PUSH1 0x20 ADD PUSH1 0x2 PUSH1 0x0 MSTORE PUSH1 0x20 PUSH1 0x0 KECCAK256 PUSH1 0x0 JUMPDEST DUP4 DUP2 LT PUSH2 0x25C JUMPI DUP5 MLOAD DUP7 SWAP1 DUP7 PUSH1 0x1 PUSH1 0x1 PUSH1 0x40 SHL SUB DUP3 GT PUSH2 0x246 JUMPI PUSH9 0x10000000000000000 DUP3 GT PUSH2 0x246 JUMPI PUSH1 0x3 SLOAD DUP3 PUSH1 0x3 SSTORE DUP1 DUP4 LT PUSH2 0x200 JUMPI JUMPDEST POP PUSH1 0x20 ADD PUSH1 0x3 PUSH1 0x0 MSTORE PUSH1 0x20 PUSH1 0x0 KECCAK256 PUSH1 0x0 JUMPDEST DUP4 DUP2 LT PUSH2 0x1E3 JUMPI DUP5 PUSH1 0x4 SSTORE PUSH1 0x40 MLOAD PUSH2 0x11E4 SWAP1 DUP2 PUSH2 0x3E1 DUP3 CODECOPY RETURN JUMPDEST DUP3 MLOAD PUSH1 0x1 PUSH1 0x1 PUSH1 0xA0 SHL SUB AND DUP2 DUP4 ADD SSTORE PUSH1 0x20 SWAP1 SWAP3 ADD SWAP2 PUSH1 0x1 ADD PUSH2 0x1C9 JUMP JUMPDEST PUSH1 0x3 PUSH1 0x0 MSTORE PUSH32 0xC2575A0E9E593C00F959F8C92F12DB2869C3395A3B0502D05E2516446F71F85B SWAP1 DUP2 ADD SWAP1 DUP4 ADD JUMPDEST DUP2 DUP2 LT PUSH2 0x23A JUMPI POP PUSH2 0x1B8 JUMP JUMPDEST PUSH1 0x0 DUP2 SSTORE PUSH1 0x1 ADD PUSH2 0x22D JUMP JUMPDEST PUSH4 0x4E487B71 PUSH1 0xE0 SHL PUSH1 0x0 MSTORE PUSH1 0x41 PUSH1 0x4 MSTORE PUSH1 0x24 PUSH1 0x0 REVERT JUMPDEST DUP3 MLOAD PUSH1 0x1 PUSH1 0x1 PUSH1 0xA0 SHL SUB AND DUP2 DUP4 ADD SSTORE PUSH1 0x20 SWAP1 SWAP3 ADD SWAP2 PUSH1 0x1 ADD PUSH2 0x17F JUMP JUMPDEST PUSH1 0x2 PUSH1 0x0 MSTORE PUSH32 0x405787FA12A823E0F2B7631CC41B3BA8828B3321CA811111FA75CD3AA3BB5ACE SWAP1 DUP2 ADD SWAP1 DUP4 ADD JUMPDEST DUP2 DUP2 LT PUSH2 0x2B3 JUMPI POP PUSH2 0x16E JUMP JUMPDEST PUSH1 0x0 DUP2 SSTORE PUSH1 0x1 ADD PUSH2 0x2A6 JUMP JUMPDEST PUSH4 0x1E4FBDF7 PUSH1 0xE0 SHL PUSH1 0x0 MSTORE PUSH1 0x0 PUSH1 0x4 MSTORE PUSH1 0x24 PUSH1 0x0 REVERT JUMPDEST PUSH1 0x0 DUP1 REVERT JUMPDEST PUSH1 0x40 MLOAD SWAP2 SWAP1 PUSH1 0x1F ADD PUSH1 0x1F NOT AND DUP3 ADD PUSH1 0x1 PUSH1 0x1 PUSH1 0x40 SHL SUB DUP2 GT DUP4 DUP3 LT OR PUSH2 0x246 JUMPI PUSH1 0x40 MSTORE JUMP JUMPDEST MLOAD SWAP1 PUSH1 0x1 PUSH1 0x1 PUSH1 0xA0 SHL SUB DUP3 AND DUP3 SUB PUSH2 0x2D5 JUMPI JUMP JUMPDEST SWAP1 DUP1 PUSH1 0x1F DUP4 ADD SLT ISZERO PUSH2 0x2D5 JUMPI DUP2 MLOAD SWAP2 PUSH1 0x1 PUSH1 0x1 PUSH1 0x40 SHL SUB DUP4 GT PUSH2 0x246 JUMPI DUP3 PUSH1 0x5 SHL SWAP1 PUSH1 0x20 DUP1 PUSH2 0x343 DUP2 DUP6 ADD PUSH2 0x2DA JUMP JUMPDEST DUP1 SWAP7 DUP2 MSTORE ADD SWAP3 DUP3 ADD ADD SWAP3 DUP4 GT PUSH2 0x2D5 JUMPI PUSH1 0x20 ADD SWAP1 JUMPDEST DUP3 DUP3 LT PUSH2 0x365 JUMPI POP POP POP SWAP1 JUMP JUMPDEST PUSH1 0x20 DUP1 SWAP2 PUSH2 0x372 DUP5 PUSH2 0x2FF JUMP JUMPDEST DUP2 MSTORE ADD SWAP2 ADD SWAP1 PUSH2 0x358 JUMP JUMPDEST ISZERO PUSH2 0x385 JUMPI POP JUMP JUMPDEST PUSH1 0x40 MLOAD SWAP1 PUSH3 0x461BCD PUSH1 0xE5 SHL DUP3 MSTORE PUSH1 0x20 PUSH1 0x4 DUP4 ADD MSTORE DUP2 DUP2 MLOAD SWAP2 DUP3 PUSH1 0x24 DUP4 ADD MSTORE PUSH1 0x0 JUMPDEST DUP4 DUP2 LT PUSH2 0x3C8 JUMPI POP POP DUP2 PUSH1 0x0 PUSH1 0x44 DUP1 SWAP5 DUP5 ADD ADD MSTORE PUSH1 0x1F DUP1 NOT SWAP2 ADD AND DUP2 ADD SUB ADD SWAP1 REVERT JUMPDEST PUSH1 0x20 DUP3 DUP3 ADD DUP2 ADD MLOAD PUSH1 0x44 DUP8 DUP5 ADD ADD MSTORE DUP6 SWAP4 POP ADD PUSH2 0x3A6 JUMP INVALID PUSH1 0x80 PUSH1 0x40 MSTORE PUSH1 0x4 CALLDATASIZE LT ISZERO PUSH2 0x1B JUMPI JUMPDEST CALLDATASIZE ISZERO PUSH2 0x19 JUMPI PUSH1 0x0 DUP1 REVERT JUMPDEST STOP JUMPDEST PUSH1 0x0 DUP1 CALLDATALOAD PUSH1 0xE0 SHR DUP1 PUSH4 0x11FF708D EQ PUSH2 0xC95 JUMPI DUP1 PUSH4 0x2104EBF1 EQ PUSH2 0x9DB JUMPI DUP1 PUSH4 0x26B3293F EQ PUSH2 0x80D JUMPI DUP1 PUSH4 0x44CBF177 EQ PUSH2 0x65F JUMPI DUP1 PUSH4 0x715018A6 EQ PUSH2 0x5F9 JUMPI DUP1 PUSH4 0x7DF73E27 EQ PUSH2 0x5D5 JUMPI DUP1 PUSH4 0x8DA5CB5B EQ PUSH2 0x5AF JUMPI DUP1 PUSH4 0x94CF795E EQ PUSH2 0x519 JUMPI DUP1 PUSH4 0xDE41691C EQ PUSH2 0x348 JUMPI DUP1 PUSH4 0xEC4673D1 EQ PUSH2 0x186 JUMPI DUP1 PUSH4 0xF2FDE38B EQ PUSH2 0xDB JUMPI PUSH4 0xF9EAEE0D EQ PUSH2 0xAB JUMPI POP PUSH2 0xE JUMP JUMPDEST CALLVALUE PUSH2 0xD8 JUMPI PUSH1 0x20 CALLDATASIZE PUSH1 0x3 NOT ADD SLT PUSH2 0xD8 JUMPI PUSH1 0x20 PUSH2 0xCE PUSH2 0xC9 PUSH2 0xF22 JUMP JUMPDEST PUSH2 0x1108 JUMP JUMPDEST PUSH1 0x40 MLOAD SWAP1 ISZERO ISZERO DUP2 MSTORE RETURN JUMPDEST DUP1 REVERT JUMPDEST POP CALLVALUE PUSH2 0xD8 JUMPI PUSH1 0x20 CALLDATASIZE PUSH1 0x3 NOT ADD SLT PUSH2 0xD8 JUMPI PUSH1 0x1 PUSH1 0x1 PUSH1 0xA0 SHL SUB PUSH2 0xFD PUSH2 0xF22 JUMP JUMPDEST PUSH2 0x105 PUSH2 0x116C JUMP JUMPDEST AND DUP1 ISZERO PUSH2 0x15A JUMPI PUSH1 0x1 PUSH1 0x1 PUSH1 0xA0 SHL SUB DUP3 SLOAD DUP3 PUSH20 0xFFFFFFFFFFFFFFFFFFFFFFFFFFFFFFFFFFFFFFFF NOT DUP3 AND OR DUP5 SSTORE AND PUSH32 0x8BE0079C531659141344CD1FD0A4F28419497F9722A3DAAFE3B4186F6B6457E0 DUP4 DUP1 LOG3 DUP1 RETURN JUMPDEST PUSH1 0x24 DUP3 PUSH32 0x1E4FBDF700000000000000000000000000000000000000000000000000000000 DUP2 MSTORE DUP1 PUSH1 0x4 MSTORE REVERT JUMPDEST POP CALLVALUE PUSH2 0xD8 JUMPI PUSH1 0x20 CALLDATASIZE PUSH1 0x3 NOT ADD SLT PUSH2 0xD8 JUMPI PUSH1 0x4 CALLDATALOAD SWAP1 PUSH2 0x1E6 PUSH2 0x1A8 CALLER PUSH2 0x1087 JUMP JUMPDEST PUSH1 0x40 MLOAD SWAP1 PUSH2 0x1B7 PUSH1 0x40 DUP4 PUSH2 0xEEA JUMP JUMPDEST PUSH1 0x1 DUP3 MSTORE PUSH32 0x3200000000000000000000000000000000000000000000000000000000000000 PUSH1 0x20 DUP4 ADD MSTORE PUSH2 0xFF2 JUMP JUMPDEST DUP2 DUP2 MSTORE PUSH1 0x6 PUSH1 0x20 MSTORE PUSH1 0x3 PUSH1 0x40 DUP3 KECCAK256 PUSH2 0x23E PUSH1 0xFF PUSH1 0x5 DUP4 ADD SLOAD AND ISZERO PUSH1 0x40 MLOAD SWAP1 PUSH2 0x20F PUSH1 0x40 DUP4 PUSH2 0xEEA JUMP JUMPDEST PUSH1 0x1 DUP3 MSTORE PUSH32 0x3400000000000000000000000000000000000000000000000000000000000000 PUSH1 0x20 DUP4 ADD MSTORE PUSH2 0xFF2 JUMP JUMPDEST PUSH1 0x4 DUP2 ADD PUSH1 0x1 PUSH1 0x1 PUSH1 0xA0 SHL SUB CALLER AND PUSH1 0x0 MSTORE DUP1 PUSH1 0x20 MSTORE PUSH2 0x26F PUSH1 0xFF PUSH1 0x40 PUSH1 0x0 KECCAK256 SLOAD AND ISZERO PUSH1 0x40 MLOAD SWAP1 PUSH2 0x20F PUSH1 0x40 DUP4 PUSH2 0xEEA JUMP JUMPDEST PUSH1 0x1 PUSH1 0x1 PUSH1 0xA0 SHL SUB CALLER AND PUSH1 0x0 MSTORE PUSH1 0x20 MSTORE PUSH1 0x40 PUSH1 0x0 KECCAK256 PUSH1 0x1 PUSH1 0xFF NOT DUP3 SLOAD AND OR SWAP1 SSTORE ADD SWAP2 DUP3 SLOAD SWAP3 PUSH1 0x0 NOT DUP5 EQ PUSH2 0x334 JUMPI PUSH1 0x1 DUP4 SWAP5 ADD SWAP1 SSTORE PUSH1 0x1 PUSH1 0x1 PUSH1 0xA0 SHL SUB PUSH1 0x1 SLOAD AND SWAP1 PUSH1 0x1 PUSH1 0x1 PUSH1 0xA0 SHL SUB DUP4 SLOAD AND SWAP1 DUP3 EXTCODESIZE ISZERO PUSH2 0x32F JUMPI PUSH1 0x64 DUP5 SWAP3 DUP4 PUSH1 0x40 MLOAD SWAP6 DUP7 SWAP5 DUP6 SWAP4 PUSH32 0xE58E982900000000000000000000000000000000000000000000000000000000 DUP6 MSTORE PUSH1 0x4 DUP6 ADD MSTORE PUSH1 0x24 DUP5 ADD MSTORE CALLER PUSH1 0x44 DUP5 ADD MSTORE GAS CALL DUP1 ISZERO PUSH2 0x324 JUMPI PUSH2 0x313 JUMPI POP RETURN JUMPDEST DUP2 PUSH2 0x31D SWAP2 PUSH2 0xEEA JUMP JUMPDEST PUSH2 0xD8 JUMPI DUP1 RETURN JUMPDEST PUSH1 0x40 MLOAD RETURNDATASIZE DUP5 DUP3 RETURNDATACOPY RETURNDATASIZE SWAP1 REVERT JUMPDEST POP POP POP REVERT JUMPDEST PUSH1 0x24 DUP4 PUSH4 0x4E487B71 PUSH1 0xE0 SHL DUP2 MSTORE PUSH1 0x11 PUSH1 0x4 MSTORE REVERT JUMPDEST POP CALLVALUE PUSH2 0xD8 JUMPI PUSH1 0x20 CALLDATASIZE PUSH1 0x3 NOT ADD SLT PUSH2 0xD8 JUMPI PUSH1 0x4 CALLDATALOAD PUSH8 0xFFFFFFFFFFFFFFFF DUP2 GT PUSH2 0x515 JUMPI PUSH2 0x37A SWAP1 CALLDATASIZE SWAP1 PUSH1 0x4 ADD PUSH2 0xF3D JUMP JUMPDEST SWAP1 PUSH2 0x383 PUSH2 0x116C JUMP JUMPDEST PUSH2 0x3AC DUP3 MLOAD ISZERO ISZERO PUSH1 0x40 MLOAD SWAP1 PUSH2 0x399 PUSH1 0x40 DUP4 PUSH2 0xEEA JUMP JUMPDEST PUSH1 0x1 DUP3 MSTORE PUSH1 0x33 PUSH1 0xF8 SHL PUSH1 0x20 DUP4 ADD MSTORE PUSH2 0xFF2 JUMP JUMPDEST DUP2 MLOAD SWAP2 PUSH8 0xFFFFFFFFFFFFFFFF DUP4 GT PUSH2 0x501 JUMPI PUSH9 0x10000000000000000 DUP4 GT PUSH2 0x501 JUMPI PUSH1 0x2 SLOAD DUP4 PUSH1 0x2 SSTORE DUP1 DUP5 LT PUSH2 0x4A3 JUMPI JUMPDEST POP PUSH1 0x20 DUP2 ADD SWAP3 PUSH1 0x2 DUP4 MSTORE DUP3 JUMPDEST DUP2 DUP2 LT PUSH2 0x466 JUMPI DUP4 DUP1 DUP5 PUSH1 0x1 PUSH1 0x1 PUSH1 0xA0 SHL SUB PUSH1 0x1 SLOAD AND DUP1 EXTCODESIZE ISZERO PUSH2 0x462 JUMPI PUSH2 0x451 DUP4 SWAP3 SWAP2 DUP4 SWAP3 PUSH1 0x40 MLOAD SWAP5 DUP6 DUP1 SWAP5 DUP2 SWAP4 PUSH32 0x87C2DBAE00000000000000000000000000000000000000000000000000000000 DUP4 MSTORE CALLER PUSH1 0x4 DUP5 ADD MSTORE PUSH1 0x40 PUSH1 0x24 DUP5 ADD MSTORE PUSH1 0x44 DUP4 ADD SWAP1 PUSH2 0xFB5 JUMP JUMPDEST SUB SWAP3 GAS CALL DUP1 ISZERO PUSH2 0x324 JUMPI PUSH2 0x313 JUMPI POP RETURN JUMPDEST POP POP REVERT JUMPDEST PUSH1 0x1 SWAP1 PUSH1 0x20 PUSH1 0x1 PUSH1 0x1 PUSH1 0xA0 SHL SUB DUP8 MLOAD AND SWAP7 ADD SWAP6 DUP2 PUSH32 0x405787FA12A823E0F2B7631CC41B3BA8828B3321CA811111FA75CD3AA3BB5ACE ADD SSTORE ADD PUSH2 0x3E9 JUMP JUMPDEST PUSH32 0x405787FA12A823E0F2B7631CC41B3BA8828B3321CA811111FA75CD3AA3BB5ACE ADD DUP4 PUSH32 0x405787FA12A823E0F2B7631CC41B3BA8828B3321CA811111FA75CD3AA3BB5ACE ADD JUMPDEST DUP2 DUP2 LT PUSH2 0x4F6 JUMPI POP PUSH2 0x3DD JUMP JUMPDEST DUP4 DUP2 SSTORE PUSH1 0x1 ADD PUSH2 0x4E9 JUMP JUMPDEST PUSH1 0x24 DUP3 PUSH4 0x4E487B71 PUSH1 0xE0 SHL DUP2 MSTORE PUSH1 0x41 PUSH1 0x4 MSTORE REVERT JUMPDEST POP DUP1 REVERT JUMPDEST POP CALLVALUE PUSH2 0xD8 JUMPI DUP1 PUSH1 0x3 NOT CALLDATASIZE ADD SLT PUSH2 0xD8 JUMPI PUSH1 0x40 MLOAD DUP1 SWAP2 PUSH1 0x20 PUSH1 0x3 SLOAD SWAP3 DUP4 DUP2 MSTORE ADD SWAP2 PUSH1 0x3 DUP3 MSTORE PUSH32 0xC2575A0E9E593C00F959F8C92F12DB2869C3395A3B0502D05E2516446F71F85B SWAP2 JUMPDEST DUP2 DUP2 LT PUSH2 0x590 JUMPI PUSH2 0x58C DUP6 PUSH2 0x578 DUP2 DUP8 SUB DUP3 PUSH2 0xEEA JUMP JUMPDEST PUSH1 0x40 MLOAD SWAP2 DUP3 SWAP2 PUSH1 0x20 DUP4 MSTORE PUSH1 0x20 DUP4 ADD SWAP1 PUSH2 0xFB5 JUMP JUMPDEST SUB SWAP1 RETURN JUMPDEST DUP3 SLOAD PUSH1 0x1 PUSH1 0x1 PUSH1 0xA0 SHL SUB AND DUP5 MSTORE PUSH1 0x20 SWAP1 SWAP4 ADD SWAP3 PUSH1 0x1 SWAP3 DUP4 ADD SWAP3 ADD PUSH2 0x561 JUMP JUMPDEST POP CALLVALUE PUSH2 0xD8 JUMPI DUP1 PUSH1 0x3 NOT CALLDATASIZE ADD SLT PUSH2 0xD8 JUMPI PUSH1 0x1 PUSH1 0x1 PUSH1 0xA0 SHL SUB PUSH1 0x20 SWAP2 SLOAD AND PUSH1 0x40 MLOAD SWAP1 DUP2 MSTORE RETURN JUMPDEST POP CALLVALUE PUSH2 0xD8 JUMPI PUSH1 0x20 CALLDATASIZE PUSH1 0x3 NOT ADD SLT PUSH2 0xD8 JUMPI PUSH1 0x20 PUSH2 0xCE PUSH2 0x5F4 PUSH2 0xF22 JUMP JUMPDEST PUSH2 0x1087 JUMP JUMPDEST POP CALLVALUE PUSH2 0xD8 JUMPI DUP1 PUSH1 0x3 NOT CALLDATASIZE ADD SLT PUSH2 0xD8 JUMPI PUSH2 0x612 PUSH2 0x116C JUMP JUMPDEST DUP1 PUSH1 0x1 PUSH1 0x1 PUSH1 0xA0 SHL SUB DUP2 SLOAD PUSH20 0xFFFFFFFFFFFFFFFFFFFFFFFFFFFFFFFFFFFFFFFF NOT DUP2 AND DUP4 SSTORE AND PUSH32 0x8BE0079C531659141344CD1FD0A4F28419497F9722A3DAAFE3B4186F6B6457E0 DUP3 DUP1 LOG3 DUP1 RETURN JUMPDEST POP CALLVALUE PUSH2 0xD8 JUMPI PUSH1 0x60 CALLDATASIZE PUSH1 0x3 NOT ADD SLT PUSH2 0xD8 JUMPI PUSH2 0x679 PUSH2 0xF22 JUMP JUMPDEST SWAP1 PUSH1 0x24 CALLDATALOAD PUSH1 0x44 CALLDATALOAD PUSH1 0x1 PUSH1 0x1 PUSH1 0xA0 SHL SUB DUP2 AND DUP1 SWAP2 SUB PUSH2 0x809 JUMPI PUSH2 0x699 PUSH2 0x116C JUMP JUMPDEST PUSH2 0x6C0 PUSH1 0x40 MLOAD PUSH2 0x6AA PUSH1 0x40 DUP3 PUSH2 0xEEA JUMP JUMPDEST PUSH1 0x1 DUP2 MSTORE PUSH1 0x33 PUSH1 0xF8 SHL PUSH1 0x20 DUP3 ADD MSTORE DUP3 ISZERO ISZERO PUSH2 0xFF2 JUMP JUMPDEST PUSH1 0x5 SLOAD SWAP4 PUSH1 0x1 DUP6 ADD DUP1 SWAP6 GT PUSH2 0x7F5 JUMPI DUP5 DUP5 SWAP6 PUSH1 0x5 SSTORE DUP5 MSTORE PUSH1 0x6 PUSH1 0x20 MSTORE PUSH1 0x5 PUSH1 0x40 DUP6 KECCAK256 PUSH1 0x1 PUSH1 0x1 PUSH1 0xA0 SHL SUB DUP4 AND PUSH20 0xFFFFFFFFFFFFFFFFFFFFFFFFFFFFFFFFFFFFFFFF NOT DUP3 SLOAD AND OR DUP2 SSTORE DUP5 PUSH1 0x1 DUP3 ADD SSTORE PUSH1 0x2 DUP2 ADD DUP5 PUSH20 0xFFFFFFFFFFFFFFFFFFFFFFFFFFFFFFFFFFFFFFFF NOT DUP3 SLOAD AND OR SWAP1 SSTORE ADD PUSH1 0xFF NOT DUP2 SLOAD AND SWAP1 SSTORE PUSH1 0x1 PUSH1 0x1 PUSH1 0xA0 SHL SUB PUSH1 0x1 SLOAD AND PUSH1 0x1 PUSH1 0x1 PUSH1 0xA0 SHL SUB DUP6 SLOAD AND SWAP3 PUSH1 0x5 SLOAD SWAP1 PUSH1 0x40 MLOAD SWAP5 PUSH2 0x763 PUSH1 0x20 DUP8 PUSH2 0xEEA JUMP JUMPDEST DUP8 DUP7 MSTORE PUSH1 0x0 CALLDATASIZE DUP2 CALLDATACOPY DUP4 EXTCODESIZE ISZERO PUSH2 0x7F1 JUMPI PUSH2 0x7DA DUP9 SWAP7 DUP8 SWAP4 PUSH1 0x1 PUSH1 0x1 PUSH1 0xA0 SHL SUB SWAP10 PUSH1 0x40 MLOAD SWAP11 DUP12 SWAP10 DUP11 SWAP9 DUP10 SWAP8 PUSH32 0x80D028E900000000000000000000000000000000000000000000000000000000 DUP10 MSTORE PUSH1 0x4 DUP10 ADD MSTORE PUSH1 0x24 DUP9 ADD MSTORE AND PUSH1 0x44 DUP7 ADD MSTORE PUSH1 0x64 DUP6 ADD MSTORE PUSH1 0x84 DUP5 ADD MSTORE PUSH1 0xE0 PUSH1 0xA4 DUP5 ADD MSTORE PUSH1 0xE4 DUP4 ADD SWAP1 PUSH2 0xFB5 JUMP JUMPDEST DUP3 PUSH1 0xC4 DUP4 ADD MSTORE SUB SWAP3 GAS CALL DUP1 ISZERO PUSH2 0x324 JUMPI PUSH2 0x313 JUMPI POP RETURN JUMPDEST DUP8 DUP1 REVERT JUMPDEST PUSH1 0x24 DUP5 PUSH4 0x4E487B71 PUSH1 0xE0 SHL DUP2 MSTORE PUSH1 0x11 PUSH1 0x4 MSTORE REVERT JUMPDEST DUP3 DUP1 REVERT JUMPDEST POP PUSH1 0x60 CALLDATASIZE PUSH1 0x3 NOT ADD SLT PUSH2 0xD8 JUMPI DUP1 PUSH2 0x823 PUSH2 0xF22 JUMP JUMPDEST PUSH1 0x1 PUSH1 0x1 PUSH1 0xA0 SHL SUB PUSH1 0x24 CALLDATALOAD SWAP2 PUSH2 0x879 PUSH2 0x83B DUP3 PUSH2 0x1108 JUMP JUMPDEST PUSH1 0x40 MLOAD SWAP1 PUSH2 0x84A PUSH1 0x40 DUP4 PUSH2 0xEEA JUMP JUMPDEST PUSH1 0x3 DUP3 MSTORE PUSH32 0x3130320000000000000000000000000000000000000000000000000000000000 PUSH1 0x20 DUP4 ADD MSTORE PUSH2 0xFF2 JUMP JUMPDEST PUSH2 0x8A0 PUSH1 0x40 MLOAD PUSH2 0x88A PUSH1 0x40 DUP3 PUSH2 0xEEA JUMP JUMPDEST PUSH1 0x1 DUP2 MSTORE PUSH1 0x33 PUSH1 0xF8 SHL PUSH1 0x20 DUP3 ADD MSTORE DUP5 ISZERO ISZERO PUSH2 0xFF2 JUMP JUMPDEST AND DUP1 PUSH2 0x94E JUMPI PUSH2 0x8CD PUSH1 0x40 MLOAD PUSH2 0x8B7 PUSH1 0x40 DUP3 PUSH2 0xEEA JUMP JUMPDEST PUSH1 0x1 DUP2 MSTORE PUSH1 0x33 PUSH1 0xF8 SHL PUSH1 0x20 DUP3 ADD MSTORE CALLVALUE DUP5 EQ PUSH2 0xFF2 JUMP JUMPDEST PUSH1 0x1 PUSH1 0x1 PUSH1 0xA0 SHL SUB PUSH1 0x1 SLOAD AND SWAP1 PUSH1 0x1 PUSH1 0x1 PUSH1 0xA0 SHL SUB DUP5 SLOAD AND SWAP2 DUP1 EXTCODESIZE ISZERO PUSH2 0x94A JUMPI DUP5 SWAP3 DUP4 PUSH1 0xA4 SWAP3 PUSH1 0x40 MLOAD SWAP7 DUP8 SWAP6 DUP7 SWAP5 PUSH32 0xD4DC773B00000000000000000000000000000000000000000000000000000000 DUP7 MSTORE PUSH1 0x4 DUP7 ADD MSTORE PUSH1 0x24 DUP6 ADD MSTORE CALLER PUSH1 0x44 DUP6 ADD MSTORE PUSH1 0x64 DUP5 ADD MSTORE PUSH1 0x44 CALLDATALOAD PUSH1 0x84 DUP5 ADD MSTORE GAS CALL DUP1 ISZERO PUSH2 0x324 JUMPI PUSH2 0x313 JUMPI POP RETURN JUMPDEST DUP5 DUP1 REVERT JUMPDEST PUSH1 0x40 MLOAD PUSH32 0x23B872DD00000000000000000000000000000000000000000000000000000000 DUP2 MSTORE CALLER PUSH1 0x4 DUP3 ADD MSTORE ADDRESS PUSH1 0x24 DUP3 ADD MSTORE DUP3 PUSH1 0x44 DUP3 ADD MSTORE PUSH1 0x20 DUP2 PUSH1 0x64 DUP2 DUP8 DUP7 GAS CALL DUP1 ISZERO PUSH2 0x9D0 JUMPI PUSH2 0x9A1 JUMPI JUMPDEST POP PUSH2 0x8CD JUMP JUMPDEST PUSH2 0x9C2 SWAP1 PUSH1 0x20 RETURNDATASIZE PUSH1 0x20 GT PUSH2 0x9C9 JUMPI JUMPDEST PUSH2 0x9BA DUP2 DUP4 PUSH2 0xEEA JUMP JUMPDEST DUP2 ADD SWAP1 PUSH2 0x106F JUMP JUMPDEST POP CODESIZE PUSH2 0x99B JUMP JUMPDEST POP RETURNDATASIZE PUSH2 0x9B0 JUMP JUMPDEST PUSH1 0x40 MLOAD RETURNDATASIZE DUP7 DUP3 RETURNDATACOPY RETURNDATASIZE SWAP1 REVERT JUMPDEST POP CALLVALUE PUSH2 0xD8 JUMPI PUSH1 0x20 CALLDATASIZE PUSH1 0x3 NOT ADD SLT PUSH2 0xD8 JUMPI DUP1 PUSH1 0x4 CALLDATALOAD DUP1 DUP3 MSTORE PUSH1 0x6 PUSH1 0x20 MSTORE PUSH1 0x40 DUP3 KECCAK256 PUSH2 0xA48 PUSH1 0x3 DUP3 ADD SLOAD PUSH1 0x4 SLOAD GT ISZERO PUSH1 0x40 MLOAD SWAP1 PUSH2 0xA19 PUSH1 0x40 DUP4 PUSH2 0xEEA JUMP JUMPDEST PUSH1 0x3 DUP3 MSTORE PUSH32 0x3830310000000000000000000000000000000000000000000000000000000000 PUSH1 0x20 DUP4 ADD MSTORE PUSH2 0xFF2 JUMP JUMPDEST DUP3 PUSH1 0x5 DUP3 ADD SWAP2 PUSH2 0xA66 PUSH1 0xFF DUP5 SLOAD AND ISZERO PUSH1 0x40 MLOAD SWAP1 PUSH2 0x20F PUSH1 0x40 DUP4 PUSH2 0xEEA JUMP JUMPDEST DUP1 SLOAD PUSH1 0x1 PUSH1 0x1 PUSH1 0xA0 SHL SUB AND DUP1 PUSH2 0xB47 JUMPI POP DUP2 DUP1 DUP1 SWAP3 PUSH1 0x1 PUSH1 0x1 PUSH1 0xA0 SHL SUB PUSH1 0x2 SELFBALANCE SWAP3 PUSH2 0xAB5 PUSH1 0x1 DUP3 ADD SLOAD SWAP5 DUP6 PUSH1 0x40 MLOAD SWAP2 PUSH2 0xAA0 PUSH1 0x40 DUP5 PUSH2 0xEEA JUMP JUMPDEST PUSH1 0x1 DUP4 MSTORE PUSH1 0x35 PUSH1 0xF8 SHL PUSH1 0x20 DUP5 ADD MSTORE LT ISZERO PUSH2 0xFF2 JUMP JUMPDEST ADD SLOAD AND DUP3 DUP3 ISZERO PUSH2 0xB3E JUMPI JUMPDEST CALL ISZERO PUSH2 0x324 JUMPI JUMPDEST PUSH1 0x1 PUSH1 0xFF NOT DUP3 SLOAD AND OR SWAP1 SSTORE PUSH1 0x1 PUSH1 0x1 PUSH1 0xA0 SHL SUB PUSH1 0x1 SLOAD AND SWAP1 PUSH1 0x1 PUSH1 0x1 PUSH1 0xA0 SHL SUB DUP4 SLOAD AND SWAP1 DUP3 EXTCODESIZE ISZERO PUSH2 0x32F JUMPI PUSH1 0x40 MLOAD PUSH32 0x3300164500000000000000000000000000000000000000000000000000000000 DUP2 MSTORE PUSH1 0x1 PUSH1 0x1 PUSH1 0xA0 SHL SUB SWAP1 SWAP3 AND PUSH1 0x4 DUP4 ADD MSTORE PUSH1 0x24 DUP3 ADD MSTORE SWAP1 DUP3 SWAP1 DUP3 SWAP1 DUP2 DUP4 DUP2 PUSH1 0x44 DUP2 ADD PUSH2 0x451 JUMP JUMPDEST POP PUSH2 0x8FC PUSH2 0xAC0 JUMP JUMPDEST SWAP2 POP PUSH1 0x40 MLOAD SWAP1 PUSH32 0x70A0823100000000000000000000000000000000000000000000000000000000 DUP3 MSTORE ADDRESS PUSH1 0x4 DUP4 ADD MSTORE PUSH1 0x20 DUP3 PUSH1 0x24 DUP2 DUP7 GAS STATICCALL SWAP2 DUP3 ISZERO PUSH2 0xC8A JUMPI DUP7 SWAP3 PUSH2 0xC50 JUMPI JUMPDEST POP SWAP1 PUSH2 0xC1C SWAP3 PUSH1 0x1 PUSH1 0x1 PUSH1 0xA0 SHL SUB PUSH1 0x2 DUP5 PUSH2 0xBCD PUSH1 0x1 PUSH1 0x20 SWAP8 ADD SLOAD SWAP6 DUP7 PUSH1 0x40 MLOAD SWAP2 PUSH2 0xBB9 PUSH1 0x40 DUP5 PUSH2 0xEEA JUMP JUMPDEST PUSH1 0x1 DUP4 MSTORE PUSH1 0x35 PUSH1 0xF8 SHL DUP11 DUP5 ADD MSTORE LT ISZERO PUSH2 0xFF2 JUMP JUMPDEST ADD SLOAD AND DUP8 PUSH1 0x40 MLOAD DUP1 SWAP7 DUP2 SWAP6 DUP3 SWAP5 PUSH32 0xA9059CBB00000000000000000000000000000000000000000000000000000000 DUP5 MSTORE PUSH1 0x4 DUP5 ADD PUSH1 0x20 SWAP1 SWAP4 SWAP3 SWAP2 SWAP4 PUSH1 0x1 PUSH1 0x1 PUSH1 0xA0 SHL SUB PUSH1 0x40 DUP3 ADD SWAP6 AND DUP2 MSTORE ADD MSTORE JUMP JUMPDEST SUB SWAP3 GAS CALL DUP1 ISZERO PUSH2 0x9D0 JUMPI PUSH2 0xC31 JUMPI JUMPDEST POP PUSH2 0xAC7 JUMP JUMPDEST PUSH2 0xC49 SWAP1 PUSH1 0x20 RETURNDATASIZE PUSH1 0x20 GT PUSH2 0x9C9 JUMPI PUSH2 0x9BA DUP2 DUP4 PUSH2 0xEEA JUMP JUMPDEST POP CODESIZE PUSH2 0xC2B JUMP JUMPDEST SWAP2 POP PUSH1 0x20 DUP3 RETURNDATASIZE PUSH1 0x20 GT PUSH2 0xC82 JUMPI JUMPDEST DUP2 PUSH2 0xC6B PUSH1 0x20 SWAP4 DUP4 PUSH2 0xEEA JUMP JUMPDEST DUP2 ADD SUB SLT PUSH2 0xC7E JUMPI SWAP1 MLOAD SWAP1 PUSH2 0xC1C PUSH2 0xB8D JUMP JUMPDEST DUP6 DUP1 REVERT JUMPDEST RETURNDATASIZE SWAP2 POP PUSH2 0xC5E JUMP JUMPDEST PUSH1 0x40 MLOAD RETURNDATASIZE DUP9 DUP3 RETURNDATACOPY RETURNDATASIZE SWAP1 REVERT JUMPDEST POP CALLVALUE PUSH2 0xD8 JUMPI PUSH1 0x40 CALLDATASIZE PUSH1 0x3 NOT ADD SLT PUSH2 0xD8 JUMPI PUSH1 0x4 CALLDATALOAD PUSH8 0xFFFFFFFFFFFFFFFF DUP2 GT PUSH2 0x515 JUMPI PUSH2 0xCC7 SWAP1 CALLDATASIZE SWAP1 PUSH1 0x4 ADD PUSH2 0xF3D JUMP JUMPDEST PUSH1 0x24 CALLDATALOAD SWAP1 PUSH2 0xCD3 PUSH2 0x116C JUMP JUMPDEST PUSH2 0xD16 PUSH1 0x40 MLOAD PUSH2 0xCE4 PUSH1 0x40 DUP3 PUSH2 0xEEA JUMP JUMPDEST PUSH1 0x3 DUP2 MSTORE PUSH32 0x3830300000000000000000000000000000000000000000000000000000000000 PUSH1 0x20 DUP3 ADD MSTORE DUP4 ISZERO ISZERO PUSH2 0xFF2 JUMP JUMPDEST PUSH2 0xD5C DUP2 MLOAD DUP4 GT ISZERO PUSH1 0x40 MLOAD SWAP1 PUSH2 0xD2D PUSH1 0x40 DUP4 PUSH2 0xEEA JUMP JUMPDEST PUSH1 0x1 DUP3 MSTORE PUSH32 0x3600000000000000000000000000000000000000000000000000000000000000 PUSH1 0x20 DUP4 ADD MSTORE PUSH2 0xFF2 JUMP JUMPDEST DUP1 MLOAD PUSH8 0xFFFFFFFFFFFFFFFF DUP2 GT PUSH2 0xED6 JUMPI PUSH9 0x10000000000000000 DUP2 GT PUSH2 0xED6 JUMPI PUSH1 0x3 SLOAD DUP2 PUSH1 0x3 SSTORE DUP1 DUP3 LT PUSH2 0xE78 JUMPI JUMPDEST POP SWAP1 DUP4 SWAP2 PUSH1 0x20 DUP3 ADD PUSH1 0x3 DUP5 MSTORE DUP4 JUMPDEST DUP3 DUP2 LT PUSH2 0xE38 JUMPI POP POP POP DUP3 PUSH1 0x4 SSTORE PUSH1 0x1 PUSH1 0x1 PUSH1 0xA0 SHL SUB PUSH1 0x1 SLOAD AND SWAP1 DUP2 EXTCODESIZE ISZERO PUSH2 0x809 JUMPI DUP3 SWAP2 PUSH2 0xE06 SWAP2 DUP4 PUSH1 0x40 MLOAD DUP1 SWAP8 DUP2 SWAP6 DUP3 SWAP5 PUSH32 0x3DF5E28900000000000000000000000000000000000000000000000000000000 DUP5 MSTORE CALLER PUSH1 0x4 DUP6 ADD MSTORE PUSH1 0x60 PUSH1 0x24 DUP6 ADD MSTORE PUSH1 0x64 DUP5 ADD SWAP1 PUSH2 0xFB5 JUMP JUMPDEST SWAP1 PUSH1 0x44 DUP4 ADD MSTORE SUB SWAP3 GAS CALL DUP1 ISZERO PUSH2 0xE2B JUMPI PUSH2 0xE1D JUMPI DUP1 RETURN JUMPDEST PUSH2 0xE26 SWAP2 PUSH2 0xEEA JUMP JUMPDEST CODESIZE DUP2 DUP1 RETURN JUMPDEST POP PUSH1 0x40 MLOAD SWAP1 RETURNDATASIZE SWAP1 DUP3 RETURNDATACOPY RETURNDATASIZE SWAP1 REVERT JUMPDEST DUP2 MLOAD PUSH1 0x1 PUSH1 0x1 PUSH1 0xA0 SHL SUB AND PUSH32 0xC2575A0E9E593C00F959F8C92F12DB2869C3395A3B0502D05E2516446F71F85B DUP3 ADD SSTORE DUP7 SWAP5 POP PUSH1 0x20 SWAP1 SWAP2 ADD SWAP1 PUSH1 0x1 ADD PUSH2 0xD9A JUMP JUMPDEST PUSH32 0xC2575A0E9E593C00F959F8C92F12DB2869C3395A3B0502D05E2516446F71F85B ADD DUP2 PUSH32 0xC2575A0E9E593C00F959F8C92F12DB2869C3395A3B0502D05E2516446F71F85B ADD JUMPDEST DUP2 DUP2 LT PUSH2 0xECB JUMPI POP PUSH2 0xD8C JUMP JUMPDEST DUP6 DUP2 SSTORE PUSH1 0x1 ADD PUSH2 0xEBE JUMP JUMPDEST PUSH1 0x24 DUP5 PUSH4 0x4E487B71 PUSH1 0xE0 SHL DUP2 MSTORE PUSH1 0x41 PUSH1 0x4 MSTORE REVERT JUMPDEST SWAP1 PUSH1 0x1F DUP1 NOT SWAP2 ADD AND DUP2 ADD SWAP1 DUP2 LT PUSH8 0xFFFFFFFFFFFFFFFF DUP3 GT OR PUSH2 0xF0C JUMPI PUSH1 0x40 MSTORE JUMP JUMPDEST PUSH4 0x4E487B71 PUSH1 0xE0 SHL PUSH1 0x0 MSTORE PUSH1 0x41 PUSH1 0x4 MSTORE PUSH1 0x24 PUSH1 0x0 REVERT JUMPDEST PUSH1 0x4 CALLDATALOAD SWAP1 PUSH1 0x1 PUSH1 0x1 PUSH1 0xA0 SHL SUB DUP3 AND DUP3 SUB PUSH2 0xF38 JUMPI JUMP JUMPDEST PUSH1 0x0 DUP1 REVERT JUMPDEST DUP2 PUSH1 0x1F DUP3 ADD SLT ISZERO PUSH2 0xF38 JUMPI DUP1 CALLDATALOAD SWAP2 PUSH8 0xFFFFFFFFFFFFFFFF DUP4 GT PUSH2 0xF0C JUMPI DUP3 PUSH1 0x5 SHL SWAP2 PUSH1 0x20 DUP4 ADD SWAP4 PUSH2 0xF71 PUSH1 0x40 MLOAD SWAP6 DUP7 PUSH2 0xEEA JUMP JUMPDEST DUP5 MSTORE PUSH1 0x20 DUP1 DUP6 ADD SWAP4 DUP3 ADD ADD SWAP2 DUP3 GT PUSH2 0xF38 JUMPI PUSH1 0x20 ADD SWAP2 JUMPDEST DUP2 DUP4 LT PUSH2 0xF95 JUMPI POP POP POP SWAP1 JUMP JUMPDEST DUP3 CALLDATALOAD PUSH1 0x1 PUSH1 0x1 PUSH1 0xA0 SHL SUB DUP2 AND DUP2 SUB PUSH2 0xF38 JUMPI DUP2 MSTORE PUSH1 0x20 SWAP3 DUP4 ADD SWAP3 ADD PUSH2 0xF88 JUMP JUMPDEST SWAP1 PUSH1 0x20 DUP1 DUP4 MLOAD SWAP3 DUP4 DUP2 MSTORE ADD SWAP3 ADD SWAP1 PUSH1 0x0 JUMPDEST DUP2 DUP2 LT PUSH2 0xFD3 JUMPI POP POP POP SWAP1 JUMP JUMPDEST DUP3 MLOAD PUSH1 0x1 PUSH1 0x1 PUSH1 0xA0 SHL SUB AND DUP5 MSTORE PUSH1 0x20 SWAP4 DUP5 ADD SWAP4 SWAP1 SWAP3 ADD SWAP2 PUSH1 0x1 ADD PUSH2 0xFC6 JUMP JUMPDEST ISZERO PUSH2 0xFFA JUMPI POP JUMP JUMPDEST PUSH1 0x40 MLOAD SWAP1 PUSH32 0x8C379A000000000000000000000000000000000000000000000000000000000 DUP3 MSTORE PUSH1 0x20 PUSH1 0x4 DUP4 ADD MSTORE DUP2 DUP2 MLOAD SWAP2 DUP3 PUSH1 0x24 DUP4 ADD MSTORE PUSH1 0x0 JUMPDEST DUP4 DUP2 LT PUSH2 0x1057 JUMPI POP POP DUP2 PUSH1 0x0 PUSH1 0x44 DUP1 SWAP5 DUP5 ADD ADD MSTORE PUSH1 0x1F DUP1 NOT SWAP2 ADD AND DUP2 ADD SUB ADD SWAP1 REVERT JUMPDEST PUSH1 0x20 DUP3 DUP3 ADD DUP2 ADD MLOAD PUSH1 0x44 DUP8 DUP5 ADD ADD MSTORE DUP6 SWAP4 POP ADD PUSH2 0x1035 JUMP JUMPDEST SWAP1 DUP2 PUSH1 0x20 SWAP2 SUB SLT PUSH2 0xF38 JUMPI MLOAD DUP1 ISZERO ISZERO DUP2 SUB PUSH2 0xF38 JUMPI SWAP1 JUMP JUMPDEST PUSH1 0x3 SLOAD SWAP1 DUP2 PUSH1 0x0 JUMPDEST DUP4 DUP2 LT PUSH2 0x109F JUMPI POP POP POP POP PUSH1 0x0 SWAP1 JUMP JUMPDEST PUSH1 0x0 DUP3 DUP3 LT ISZERO PUSH2 0x10F4 JUMPI PUSH1 0x3 SWAP1 MSTORE PUSH32 0xC2575A0E9E593C00F959F8C92F12DB2869C3395A3B0502D05E2516446F71F85B DUP2 ADD SLOAD PUSH1 0x1 PUSH1 0x1 PUSH1 0xA0 SHL SUB DUP5 DUP2 AND SWAP2 AND EQ PUSH2 0x10EB JUMPI PUSH1 0x1 ADD PUSH2 0x108F JUMP JUMPDEST POP POP POP POP PUSH1 0x1 SWAP1 JUMP JUMPDEST DUP1 PUSH4 0x4E487B71 PUSH1 0xE0 SHL PUSH1 0x24 SWAP3 MSTORE PUSH1 0x32 PUSH1 0x4 MSTORE REVERT JUMPDEST PUSH1 0x2 SLOAD SWAP1 DUP2 PUSH1 0x0 JUMPDEST DUP4 DUP2 LT PUSH2 0x1120 JUMPI POP POP POP POP PUSH1 0x0 SWAP1 JUMP JUMPDEST PUSH1 0x0 DUP3 DUP3 LT ISZERO PUSH2 0x10F4 JUMPI PUSH1 0x2 SWAP1 MSTORE PUSH32 0x405787FA12A823E0F2B7631CC41B3BA8828B3321CA811111FA75CD3AA3BB5ACE DUP2 ADD SLOAD PUSH1 0x1 PUSH1 0x1 PUSH1 0xA0 SHL SUB DUP5 DUP2 AND SWAP2 AND EQ PUSH2 0x10EB JUMPI PUSH1 0x1 ADD PUSH2 0x1110 JUMP JUMPDEST PUSH1 0x1 PUSH1 0x1 PUSH1 0xA0 SHL SUB PUSH1 0x0 SLOAD AND CALLER SUB PUSH2 0x1180 JUMPI JUMP JUMPDEST PUSH32 0x118CDAA700000000000000000000000000000000000000000000000000000000 PUSH1 0x0 MSTORE CALLER PUSH1 0x4 MSTORE PUSH1 0x24 PUSH1 0x0 REVERT INVALID LOG2 PUSH5 0x6970667358 0x22 SLT KECCAK256 GASPRICE PUSH30 0x7AD41FFFE6131E9B2DA7C29B8168DA37FE3DF296B156A08F684FE20A7925 PUSH5 0x736F6C6343 STOP ADDMOD SHR STOP CALLER "
        },
        "methodIdentifiers": {
          "approveWithdraw(uint256)": "ec4673d1",
          "deposit(address,uint256,bytes32)": "26b3293f",
          "executeWithdraw(uint256)": "2104ebf1",
          "getSigners()": "94cf795e",
          "isSigner(address)": "7df73e27",
          "isTokenAllowed(address)": "f9eaee0d",
          "owner()": "8da5cb5b",
          "renounceOwnership()": "715018a6",
          "requestWithdraw(address,uint256,address)": "44cbf177",
          "transferOwnership(address)": "f2fde38b",
          "updateSigners(address[],uint256)": "11ff708d",
          "updateTokens(address[])": "de41691c"
        }
      }
    }
  }
}