{
  "contracts/libs/HashLib.sol": {
    "HashLib": {
      "abi": [
        {
          "inputs": [
            {
              "internalType": "string",
              "name": "base",
              "type": "string"
            },
            {
              "internalType": "uint256",
              "name": "identifier",
              "type": "uint256"
            }
          ],
          "name": "generate",
          "outputs": [
            {
              "internalType": "bytes32",
              "name": "",
              "type": "bytes32"
            }
          ],
          "stateMutability": "pure",
          "type": "function"
        },
        {
          "inputs": [
            {
              "internalType": "string",
              "name": "base",
              "type": "string"
            },
            {
              "internalType": "address",
              "name": "user",
              "type": "address"
            },
            {
              "internalType": "uint256",
              "name": "identifier",
              "type": "uint256"
            }
          ],
          "name": "generateWithAddress",
          "outputs": [
            {
              "internalType": "bytes32",
              "name": "",
              "type": "bytes32"
            }
          ],
          "stateMutability": "pure",
          "type": "function"
        }
      ],
      "evm": {
        "bytecode": {
          "linkReferences": {},
          "object": "60808060405234601957610207908161001f823930815050f35b600080fdfe608080604052600436101561001357600080fd5b60003560e01c90816320bed604146100d1575063d3d175221461003557600080fd5b60603660031901126100cc5760043567ffffffffffffffff81116100cc57610061903690600401610131565b6024359173ffffffffffffffffffffffffffffffffffffffff83168093036100cc576100c16100a5916020946040519384928784019660608852608085019161015f565b906040830152604435606083015203601f198101835282610180565b519020604051908152f35b600080fd5b60403660031901126100cc5760043567ffffffffffffffff81116100cc57816100c160209361010761011b943690600401610131565b94908683019560408752606084019161015f565b602435604083015203601f198101835282610180565b9181601f840112156100cc5782359167ffffffffffffffff83116100cc57602083818601950101116100cc57565b908060209392818452848401376000828201840152601f01601f1916010190565b90601f8019910116810190811067ffffffffffffffff8211176101a257604052565b7f4e487b7100000000000000000000000000000000000000000000000000000000600052604160045260246000fdfea26469706673582212203638b0d8a65f4ca347fe7558151a17a8017011b52ac3641b4f08503d484f6c3064736f6c634300081c0033",
          "opcodes": "PUSH1 0x80 DUP1 PUSH1 0x40 MSTORE CALLVALUE PUSH1 0x19 JUMPI PUSH2 0x207 SWAP1 DUP2 PUSH2 0x1F DUP3 CODECOPY ADDRESS DUP2 POP POP RETURN JUMPDEST PUSH1 0x0 DUP1 REVERT INVALID PUSH1 0x80 DUP1 PUSH1 0x40 MSTORE PUSH1 0x4 CALLDATASIZE LT ISZERO PUSH2 0x13 JUMPI PUSH1 0x0 DUP1 REVERT JUMPDEST PUSH1 0x0 CALLDATALOAD PUSH1 0xE0 SHR SWAP1 DUP2 PUSH4 0x20BED604 EQ PUSH2 0xD1 JUMPI POP PUSH4 0xD3D17522 EQ PUSH2 0x35 JUMPI PUSH1 0x0 DUP1 REVERT JUMPDEST PUSH1 0x60 CALLDATASIZE PUSH1 0x3 NOT ADD SLT PUSH2 0xCC JUMPI PUSH1 0x4 CALLDATALOAD PUSH8 0xFFFFFFFFFFFFFFFF DUP2 GT PUSH2 0xCC JUMPI PUSH2 0x61 SWAP1 CALLDATASIZE SWAP1 PUSH1 0x4 ADD PUSH2 0x131 JUMP JUMPDEST PUSH1 0x24 CALLDATALOAD SWAP2 PUSH20 0xFFFFFFFFFFFFFFFFFFFFFFFFFFFFFFFFFFFFFFFF DUP4 AND DUP1 SWAP4 SUB PUSH2 0xCC JUMPI PUSH2 0xC1 PUSH2 0xA5 SWAP2 PUSH1 0x20 SWAP5 PUSH1 0x40 MLOAD SWAP4 DUP5 SWAP3 DUP8 DUP5 ADD SWAP7 PUSH1 0x60 DUP9 MSTORE PUSH1 0x80 DUP6 ADD SWAP2 PUSH2 0x15F JUMP JUMPDEST SWAP1 PUSH1 0x40 DUP4 ADD MSTORE PUSH1 0x44 CALLDATALOAD PUSH1 0x60 DUP4 ADD MSTORE SUB PUSH1 0x1F NOT DUP2 ADD DUP4 MSTORE DUP3 PUSH2 0x180 JUMP JUMPDEST MLOAD SWAP1 KECCAK256 PUSH1 0x40 MLOAD SWAP1 DUP2 MSTORE RETURN JUMPDEST PUSH1 0x0 DUP1 REVERT JUMPDEST PUSH1 0x40 CALLDATASIZE PUSH1 0x3 NOT ADD SLT PUSH2 0xCC JUMPI PUSH1 0x4 CALLDATALOAD PUSH8 0xFFFFFFFFFFFFFFFF DUP2 GT PUSH2 0xCC JUMPI DUP2 PUSH2 0xC1 PUSH1 0x20 SWAP4 PUSH2 0x107 PUSH2 0x11B SWAP5 CALLDATASIZE SWAP1 PUSH1 0x4 ADD PUSH2 0x131 JUMP JUMPDEST SWAP5 SWAP1 DUP7 DUP4 ADD SWAP6 PUSH1 0x40 DUP8 MSTORE PUSH1 0x60 DUP5 ADD SWAP2 PUSH2 0x15F JUMP JUMPDEST PUSH1 0x24 CALLDATALOAD PUSH1 0x40 DUP4 ADD MSTORE SUB PUSH1 0x1F NOT DUP2 ADD DUP4 MSTORE DUP3 PUSH2 0x180 JUMP JUMPDEST SWAP2 DUP2 PUSH1 0x1F DUP5 ADD SLT ISZERO PUSH2 0xCC JUMPI DUP3 CALLDATALOAD SWAP2 PUSH8 0xFFFFFFFFFFFFFFFF DUP4 GT PUSH2 0xCC JUMPI PUSH1 0x20 DUP4 DUP2 DUP7 ADD SWAP6 ADD ADD GT PUSH2 0xCC JUMPI JUMP JUMPDEST SWAP1 DUP1 PUSH1 0x20 SWAP4 SWAP3 DUP2 DUP5 MSTORE DUP5 DUP5 ADD CALLDATACOPY PUSH1 0x0 DUP3 DUP3 ADD DUP5 ADD MSTORE PUSH1 0x1F ADD PUSH1 0x1F NOT AND ADD ADD SWAP1 JUMP JUMPDEST SWAP1 PUSH1 0x1F DUP1 NOT SWAP2 ADD AND DUP2 ADD SWAP1 DUP2 LT PUSH8 0xFFFFFFFFFFFFFFFF DUP3 GT OR PUSH2 0x1A2 JUMPI PUSH1 0x40 MSTORE JUMP JUMPDEST PUSH32 0x4E487B7100000000000000000000000000000000000000000000000000000000 PUSH1 0x0 MSTORE PUSH1 0x41 PUSH1 0x4 MSTORE PUSH1 0x24 PUSH1 0x0 REVERT INVALID LOG2 PUSH5 0x6970667358 0x22 SLT KECCAK256 CALLDATASIZE CODESIZE 0xB0 0xD8 0xA6 PUSH0 0x4C LOG3 SELFBALANCE INVALID PUSH22 0x58151A17A8017011B52AC3641B4F08503D484F6C3064 PUSH20 0x6F6C634300081C00330000000000000000000000 "
        },
        "methodIdentifiers": {
          "generate(string,uint256)": "20bed604",
          "generateWithAddress(string,address,uint256)": "d3d17522"
        }
      }
    }
  }
}