{
  "contracts/libs/Errors.sol": {
    "Errors": {
      "abi": [
        {
          "inputs": [],
          "name": "ACTION_NOT_ALLOWED",
          "outputs": [
            {
              "internalType": "string",
              "name": "",
              "type": "string"
            }
          ],
          "stateMutability": "view",
          "type": "function"
        },
        {
          "inputs": [],
          "name": "GRACE_PERIOD_EXPIRED",
          "outputs": [
            {
              "internalType": "string",
              "name": "",
              "type": "string"
            }
          ],
          "stateMutability": "view",
          "type": "function"
        },
        {
          "inputs": [],
          "name": "HOOK_ALREADY_REGISTERED",
          "outputs": [
            {
              "internalType": "string",
              "name": "",
              "type": "string"
            }
          ],
          "stateMutability": "view",
          "type": "function"
        },
        {
          "inputs": [],
          "name": "HOOK_NOT_FOUND",
          "outputs": [
            {
              "internalType": "string",
              "name": "",
              "type": "string"
            }
          ],
          "stateMutability": "view",
          "type": "function"
        },
        {
          "inputs": [],
          "name": "INSUFFICIENT_APPROVALS",
          "outputs": [
            {
              "internalType": "string",
              "name": "",
              "type": "string"
            }
          ],
          "stateMutability": "view",
          "type": "function"
        },
        {
          "inputs": [],
          "name": "INSUFFICIENT_BALANCE",
          "outputs": [
            {
              "internalType": "string",
              "name": "",
              "type": "string"
            }
          ],
          "stateMutability": "view",
          "type": "function"
        },
        {
          "inputs": [],
          "name": "INSUFFICIENT_LIQUIDITY",
          "outputs": [
            {
              "internalType": "string",
              "name": "",
              "type": "string"
            }
          ],
          "stateMutability": "view",
          "type": "function"
        },
        {
          "inputs": [],
          "name": "INTERNAL_ERROR",
          "outputs": [
            {
              "internalType": "string",
              "name": "",
              "type": "string"
            }
          ],
          "stateMutability": "view",
          "type": "function"
        },
        {
          "inputs": [],
          "name": "INVALID_INPUT",
          "outputs": [
            {
              "internalType": "string",
              "name": "",
              "type": "string"
            }
          ],
          "stateMutability": "view",
          "type": "function"
        },
        {
          "inputs": [],
          "name": "INVALID_SIGNATURE",
          "outputs": [
            {
              "internalType": "string",
              "name": "",
              "type": "string"
            }
          ],
          "stateMutability": "view",
          "type": "function"
        },
        {
          "inputs": [],
          "name": "INVALID_SWAP_PARAMETERS",
          "outputs": [
            {
              "internalType": "string",
              "name": "",
              "type": "string"
            }
          ],
          "stateMutability": "view",
          "type": "function"
        },
        {
          "inputs": [],
          "name": "INVALID_TRANSACTION_AMOUNT",
          "outputs": [
            {
              "internalType": "string",
              "name": "",
              "type": "string"
            }
          ],
          "stateMutability": "view",
          "type": "function"
        },
        {
          "inputs": [],
          "name": "LOAN_NOT_FOUND",
          "outputs": [
            {
              "internalType": "string",
              "name": "",
              "type": "string"
            }
          ],
          "stateMutability": "view",
          "type": "function"
        },
        {
          "inputs": [],
          "name": "LOAN_REJECTION",
          "outputs": [
            {
              "internalType": "string",
              "name": "",
              "type": "string"
            }
          ],
          "stateMutability": "view",
          "type": "function"
        },
        {
          "inputs": [],
          "name": "MERCHANT_ALREADY_EXIST",
          "outputs": [
            {
              "internalType": "string",
              "name": "",
              "type": "string"
            }
          ],
          "stateMutability": "view",
          "type": "function"
        },
        {
          "inputs": [],
          "name": "MERCHANT_NOT_FOUND",
          "outputs": [
            {
              "internalType": "string",
              "name": "",
              "type": "string"
            }
          ],
          "stateMutability": "view",
          "type": "function"
        },
        {
          "inputs": [],
          "name": "MIN_SIGNER_MUST_BE_GRT_ONE",
          "outputs": [
            {
              "internalType": "string",
              "name": "",
              "type": "string"
            }
          ],
          "stateMutability": "view",
          "type": "function"
        },
        {
          "inputs": [],
          "name": "OPERATION_FAILED",
          "outputs": [
            {
              "internalType": "string",
              "name": "",
              "type": "string"
            }
          ],
          "stateMutability": "view",
          "type": "function"
        },
        {
          "inputs": [],
          "name": "RECURRING_TRANSACTION_EXPIRED",
          "outputs": [
            {
              "internalType": "string",
              "name": "",
              "type": "string"
            }
          ],
          "stateMutability": "view",
          "type": "function"
        },
        {
          "inputs": [],
          "name": "SIGNATURE_EXPIRED",
          "outputs": [
            {
              "internalType": "string",
              "name": "",
              "type": "string"
            }
          ],
          "stateMutability": "view",
          "type": "function"
        },
        {
          "inputs": [],
          "name": "STORAGE_ERROR",
          "outputs": [
            {
              "internalType": "string",
              "name": "",
              "type": "string"
            }
          ],
          "stateMutability": "view",
          "type": "function"
        },
        {
          "inputs": [],
          "name": "SUBSCRIPTION_INACTIVE",
          "outputs": [
            {
              "internalType": "string",
              "name": "",
              "type": "string"
            }
          ],
          "stateMutability": "view",
          "type": "function"
        },
        {
          "inputs": [],
          "name": "SUBSCRIPTION_NOT_FOUND",
          "outputs": [
            {
              "internalType": "string",
              "name": "",
              "type": "string"
            }
          ],
          "stateMutability": "view",
          "type": "function"
        },
        {
          "inputs": [],
          "name": "TEST",
          "outputs": [
            {
              "internalType": "string",
              "name": "",
              "type": "string"
            }
          ],
          "stateMutability": "view",
          "type": "function"
        },
        {
          "inputs": [],
          "name": "TOKEN_NOT_SUPPORTED",
          "outputs": [
            {
              "internalType": "string",
              "name": "",
              "type": "string"
            }
          ],
          "stateMutability": "view",
          "type": "function"
        },
        {
          "inputs": [],
          "name": "TRANSACTION_ALREADY_COMPLETED",
          "outputs": [
            {
              "internalType": "string",
              "name": "",
              "type": "string"
            }
          ],
          "stateMutability": "view",
          "type": "function"
        },
        {
          "inputs": [],
          "name": "TRANSACTION_FAILED",
          "outputs": [
            {
              "internalType": "string",
              "name": "",
              "type": "string"
            }
          ],
          "stateMutability": "view",
          "type": "function"
        },
        {
          "inputs": [],
          "name": "TRANSACTION_ID_NOT_FOUND",
          "outputs": [
            {
              "internalType": "string",
              "name": "",
              "type": "string"
            }
          ],
          "stateMutability": "view",
          "type": "function"
        },
        {
          "inputs": [],
          "name": "TRANSACTION_INVALID_PAYER",
          "outputs": [
            {
              "internalType": "string",
              "name": "",
              "type": "string"
            }
          ],
          "stateMutability": "view",
          "type": "function"
        },
        {
          "inputs": [],
          "name": "TRANSACTION_NOT_ACTIVE",
          "outputs": [
            {
              "internalType": "string",
              "name": "",
              "type": "string"
            }
          ],
          "stateMutability": "view",
          "type": "function"
        },
        {
          "inputs": [],
          "name": "TRANSACTION_NOT_PENDING",
          "outputs": [
            {
              "internalType": "string",
              "name": "",
              "type": "string"
            }
          ],
          "stateMutability": "view",
          "type": "function"
        },
        {
          "inputs": [],
          "name": "UNAUTHORIZED",
          "outputs": [
            {
              "internalType": "string",
              "name": "",
              "type": "string"
            }
          ],
          "stateMutability": "view",
          "type": "function"
        }
      ],
      "evm": {
        "bytecode": {
          "linkReferences": {},
          "object": "60808060405234601957610b9b908161001f823930815050f35b600080fdfe6080604052600436101561001257600080fd5b60003560e01c8063075fd2b114610a5c5780630d42b95a14610a1357806319319827146109ca5780631f28bbcd146109815780631f9351111461093857806342cee4d8146108ef57806346984610146108a65780634899d28c1461085d57806350b1f3561461081457806351d977a6146107cb57806359e17d82146107825780636c0a9c63146107395780636efe4658146106f05780636f2fd73b146106a75780636f39656b1461065e57806374c54721146106155780637e4d09c8146105cc578063827e7b7f14610583578063a3402a381461053a578063b36862ee146104f1578063b68600c7146104a8578063c25600a51461045f578063c40b8b5b14610416578063ce10f4d8146103cd578063d3df216c14610384578063dc5028021461033b578063dc8d807e146102f2578063e0bf98f8146102a9578063eb9eb00d14610260578063ec16aed914610217578063ee736f2b146101ce5763f13f45741461017c57600080fd5b60003660031901126101c9576101c5610193610af8565b7f3230300000000000000000000000000000000000000000000000000000000000602082015260405191829182610b1c565b0390f35b600080fd5b60003660031901126101c9576101c56101e5610af8565b7f3730310000000000000000000000000000000000000000000000000000000000602082015260405191829182610b1c565b60003660031901126101c9576101c561022e610af8565b7f3430350000000000000000000000000000000000000000000000000000000000602082015260405191829182610b1c565b60003660031901126101c9576101c5610277610af8565b7f3330320000000000000000000000000000000000000000000000000000000000602082015260405191829182610b1c565b60003660031901126101c9576101c56102c0610af8565b7f3430320000000000000000000000000000000000000000000000000000000000602082015260405191829182610b1c565b60003660031901126101c9576101c5610309610aa5565b7f3600000000000000000000000000000000000000000000000000000000000000602082015260405191829182610b1c565b60003660031901126101c9576101c5610352610af8565b7f3130310000000000000000000000000000000000000000000000000000000000602082015260405191829182610b1c565b60003660031901126101c9576101c561039b610af8565b7f3130340000000000000000000000000000000000000000000000000000000000602082015260405191829182610b1c565b60003660031901126101c9576101c56103e4610af8565b7f3130300000000000000000000000000000000000000000000000000000000000602082015260405191829182610b1c565b60003660031901126101c9576101c561042d610af8565b7f3230320000000000000000000000000000000000000000000000000000000000602082015260405191829182610b1c565b60003660031901126101c9576101c5610476610af8565b7f3430330000000000000000000000000000000000000000000000000000000000602082015260405191829182610b1c565b60003660031901126101c9576101c56104bf610aa5565b7f3300000000000000000000000000000000000000000000000000000000000000602082015260405191829182610b1c565b60003660031901126101c9576101c5610508610aa5565b7f3400000000000000000000000000000000000000000000000000000000000000602082015260405191829182610b1c565b60003660031901126101c9576101c5610551610af8565b7f3630300000000000000000000000000000000000000000000000000000000000602082015260405191829182610b1c565b60003660031901126101c9576101c561059a610af8565b7f3430310000000000000000000000000000000000000000000000000000000000602082015260405191829182610b1c565b60003660031901126101c9576101c56105e3610af8565b7f3430340000000000000000000000000000000000000000000000000000000000602082015260405191829182610b1c565b60003660031901126101c9576101c561062c610af8565b7f3730300000000000000000000000000000000000000000000000000000000000602082015260405191829182610b1c565b60003660031901126101c9576101c5610675610af8565b7f3530300000000000000000000000000000000000000000000000000000000000602082015260405191829182610b1c565b60003660031901126101c9576101c56106be610af8565b7f3830300000000000000000000000000000000000000000000000000000000000602082015260405191829182610b1c565b60003660031901126101c9576101c5610707610af8565b7f3830310000000000000000000000000000000000000000000000000000000000602082015260405191829182610b1c565b60003660031901126101c9576101c5610750610af8565b7f3430300000000000000000000000000000000000000000000000000000000000602082015260405191829182610b1c565b60003660031901126101c9576101c5610799610af8565b7f3330310000000000000000000000000000000000000000000000000000000000602082015260405191829182610b1c565b60003660031901126101c9576101c56107e2610aa5565b7f3100000000000000000000000000000000000000000000000000000000000000602082015260405191829182610b1c565b60003660031901126101c9576101c561082b610aa5565b7f3500000000000000000000000000000000000000000000000000000000000000602082015260405191829182610b1c565b60003660031901126101c9576101c5610874610af8565b7f3330300000000000000000000000000000000000000000000000000000000000602082015260405191829182610b1c565b60003660031901126101c9576101c56108bd610af8565b7f3530310000000000000000000000000000000000000000000000000000000000602082015260405191829182610b1c565b60003660031901126101c9576101c5610906610af8565b7f3130320000000000000000000000000000000000000000000000000000000000602082015260405191829182610b1c565b60003660031901126101c9576101c561094f610af8565b7f3230310000000000000000000000000000000000000000000000000000000000602082015260405191829182610b1c565b60003660031901126101c9576101c5610998610af8565b7f3130330000000000000000000000000000000000000000000000000000000000602082015260405191829182610b1c565b60003660031901126101c9576101c56109e1610af8565b7f3630310000000000000000000000000000000000000000000000000000000000602082015260405191829182610b1c565b60003660031901126101c9576101c5610a2a610af8565b7f3130350000000000000000000000000000000000000000000000000000000000602082015260405191829182610b1c565b60003660031901126101c9576101c5610a73610aa5565b7f3200000000000000000000000000000000000000000000000000000000000000602082015260405191829182610b1c565b604051906040820182811067ffffffffffffffff821117610ac95760405260018252565b7f4e487b7100000000000000000000000000000000000000000000000000000000600052604160045260246000fd5b604051906040820182811067ffffffffffffffff821117610ac95760405260038252565b91909160208152825180602083015260005b818110610b4f575060409293506000838284010152601f8019910116010190565b8060208092870101516040828601015201610b2e56fea264697066735822122060014413e359b84f23d69974dd58fabb6aa19638353bdf7e074c555ebc31e8f464736f6c634300081c0033",
          "opcodes": "PUSH1 0x80 DUP1 PUSH1 0x40 MSTORE CALLVALUE PUSH1 0x19 JUMPI PUSH2 0xB9B SWAP1 DUP2 PUSH2 0x1F DUP3 CODECOPY ADDRESS DUP2 POP POP RETURN JUMPDEST PUSH1 0x0 DUP1 REVERT INVALID PUSH1 0x80 PUSH1 0x40 MSTORE PUSH1 0x4 CALLDATASIZE LT ISZERO PUSH2 0x12 JUMPI PUSH1 0x0 DUP1 REVERT JUMPDEST PUSH1 0x0 CALLDATALOAD PUSH1 0xE0 SHR DUP1 PUSH4 0x75FD2B1 EQ PUSH2 0xA5C JUMPI DUP1 PUSH4 0xD42B95A EQ PUSH2 0xA13 JUMPI DUP1 PUSH4 0x19319827 EQ PUSH2 0x9CA JUMPI DUP1 PUSH4 0x1F28BBCD EQ PUSH2 0x981 JUMPI DUP1 PUSH4 0x1F935111 EQ PUSH2 0x938 JUMPI DUP1 PUSH4 0x42CEE4D8 EQ PUSH2 0x8EF JUMPI DUP1 PUSH4 0x46984610 EQ PUSH2 0x8A6 JUMPI DUP1 PUSH4 0x4899D28C EQ PUSH2 0x85D JUMPI DUP1 PUSH4 0x50B1F356 EQ PUSH2 0x814 JUMPI DUP1 PUSH4 0x51D977A6 EQ PUSH2 0x7CB JUMPI DUP1 PUSH4 0x59E17D82 EQ PUSH2 0x782 JUMPI DUP1 PUSH4 0x6C0A9C63 EQ PUSH2 0x739 JUMPI DUP1 PUSH4 0x6EFE4658 EQ PUSH2 0x6F0 JUMPI DUP1 PUSH4 0x6F2FD73B EQ PUSH2 0x6A7 JUMPI DUP1 PUSH4 0x6F39656B EQ PUSH2 0x65E JUMPI DUP1 PUSH4 0x74C54721 EQ PUSH2 0x615 JUMPI DUP1 PUSH4 0x7E4D09C8 EQ PUSH2 0x5CC JUMPI DUP1 PUSH4 0x827E7B7F EQ PUSH2 0x583 JUMPI DUP1 PUSH4 0xA3402A38 EQ PUSH2 0x53A JUMPI DUP1 PUSH4 0xB36862EE EQ PUSH2 0x4F1 JUMPI DUP1 PUSH4 0xB68600C7 EQ PUSH2 0x4A8 JUMPI DUP1 PUSH4 0xC25600A5 EQ PUSH2 0x45F JUMPI DUP1 PUSH4 0xC40B8B5B EQ PUSH2 0x416 JUMPI DUP1 PUSH4 0xCE10F4D8 EQ PUSH2 0x3CD JUMPI DUP1 PUSH4 0xD3DF216C EQ PUSH2 0x384 JUMPI DUP1 PUSH4 0xDC502802 EQ PUSH2 0x33B JUMPI DUP1 PUSH4 0xDC8D807E EQ PUSH2 0x2F2 JUMPI DUP1 PUSH4 0xE0BF98F8 EQ PUSH2 0x2A9 JUMPI DUP1 PUSH4 0xEB9EB00D EQ PUSH2 0x260 JUMPI DUP1 PUSH4 0xEC16AED9 EQ PUSH2 0x217 JUMPI DUP1 PUSH4 0xEE736F2B EQ PUSH2 0x1CE JUMPI PUSH4 0xF13F4574 EQ PUSH2 0x17C JUMPI PUSH1 0x0 DUP1 REVERT JUMPDEST PUSH1 0x0 CALLDATASIZE PUSH1 0x3 NOT ADD SLT PUSH2 0x1C9 JUMPI PUSH2 0x1C5 PUSH2 0x193 PUSH2 0xAF8 JUMP JUMPDEST PUSH32 0x3230300000000000000000000000000000000000000000000000000000000000 PUSH1 0x20 DUP3 ADD MSTORE PUSH1 0x40 MLOAD SWAP2 DUP3 SWAP2 DUP3 PUSH2 0xB1C JUMP JUMPDEST SUB SWAP1 RETURN JUMPDEST PUSH1 0x0 DUP1 REVERT JUMPDEST PUSH1 0x0 CALLDATASIZE PUSH1 0x3 NOT ADD SLT PUSH2 0x1C9 JUMPI PUSH2 0x1C5 PUSH2 0x1E5 PUSH2 0xAF8 JUMP JUMPDEST PUSH32 0x3730310000000000000000000000000000000000000000000000000000000000 PUSH1 0x20 DUP3 ADD MSTORE PUSH1 0x40 MLOAD SWAP2 DUP3 SWAP2 DUP3 PUSH2 0xB1C JUMP JUMPDEST PUSH1 0x0 CALLDATASIZE PUSH1 0x3 NOT ADD SLT PUSH2 0x1C9 JUMPI PUSH2 0x1C5 PUSH2 0x22E PUSH2 0xAF8 JUMP JUMPDEST PUSH32 0x3430350000000000000000000000000000000000000000000000000000000000 PUSH1 0x20 DUP3 ADD MSTORE PUSH1 0x40 MLOAD SWAP2 DUP3 SWAP2 DUP3 PUSH2 0xB1C JUMP JUMPDEST PUSH1 0x0 CALLDATASIZE PUSH1 0x3 NOT ADD SLT PUSH2 0x1C9 JUMPI PUSH2 0x1C5 PUSH2 0x277 PUSH2 0xAF8 JUMP JUMPDEST PUSH32 0x3330320000000000000000000000000000000000000000000000000000000000 PUSH1 0x20 DUP3 ADD MSTORE PUSH1 0x40 MLOAD SWAP2 DUP3 SWAP2 DUP3 PUSH2 0xB1C JUMP JUMPDEST PUSH1 0x0 CALLDATASIZE PUSH1 0x3 NOT ADD SLT PUSH2 0x1C9 JUMPI PUSH2 0x1C5 PUSH2 0x2C0 PUSH2 0xAF8 JUMP JUMPDEST PUSH32 0x3430320000000000000000000000000000000000000000000000000000000000 PUSH1 0x20 DUP3 ADD MSTORE PUSH1 0x40 MLOAD SWAP2 DUP3 SWAP2 DUP3 PUSH2 0xB1C JUMP JUMPDEST PUSH1 0x0 CALLDATASIZE PUSH1 0x3 NOT ADD SLT PUSH2 0x1C9 JUMPI PUSH2 0x1C5 PUSH2 0x309 PUSH2 0xAA5 JUMP JUMPDEST PUSH32 0x3600000000000000000000000000000000000000000000000000000000000000 PUSH1 0x20 DUP3 ADD MSTORE PUSH1 0x40 MLOAD SWAP2 DUP3 SWAP2 DUP3 PUSH2 0xB1C JUMP JUMPDEST PUSH1 0x0 CALLDATASIZE PUSH1 0x3 NOT ADD SLT PUSH2 0x1C9 JUMPI PUSH2 0x1C5 PUSH2 0x352 PUSH2 0xAF8 JUMP JUMPDEST PUSH32 0x3130310000000000000000000000000000000000000000000000000000000000 PUSH1 0x20 DUP3 ADD MSTORE PUSH1 0x40 MLOAD SWAP2 DUP3 SWAP2 DUP3 PUSH2 0xB1C JUMP JUMPDEST PUSH1 0x0 CALLDATASIZE PUSH1 0x3 NOT ADD SLT PUSH2 0x1C9 JUMPI PUSH2 0x1C5 PUSH2 0x39B PUSH2 0xAF8 JUMP JUMPDEST PUSH32 0x3130340000000000000000000000000000000000000000000000000000000000 PUSH1 0x20 DUP3 ADD MSTORE PUSH1 0x40 MLOAD SWAP2 DUP3 SWAP2 DUP3 PUSH2 0xB1C JUMP JUMPDEST PUSH1 0x0 CALLDATASIZE PUSH1 0x3 NOT ADD SLT PUSH2 0x1C9 JUMPI PUSH2 0x1C5 PUSH2 0x3E4 PUSH2 0xAF8 JUMP JUMPDEST PUSH32 0x3130300000000000000000000000000000000000000000000000000000000000 PUSH1 0x20 DUP3 ADD MSTORE PUSH1 0x40 MLOAD SWAP2 DUP3 SWAP2 DUP3 PUSH2 0xB1C JUMP JUMPDEST PUSH1 0x0 CALLDATASIZE PUSH1 0x3 NOT ADD SLT PUSH2 0x1C9 JUMPI PUSH2 0x1C5 PUSH2 0x42D PUSH2 0xAF8 JUMP JUMPDEST PUSH32 0x3230320000000000000000000000000000000000000000000000000000000000 PUSH1 0x20 DUP3 ADD MSTORE PUSH1 0x40 MLOAD SWAP2 DUP3 SWAP2 DUP3 PUSH2 0xB1C JUMP JUMPDEST PUSH1 0x0 CALLDATASIZE PUSH1 0x3 NOT ADD SLT PUSH2 0x1C9 JUMPI PUSH2 0x1C5 PUSH2 0x476 PUSH2 0xAF8 JUMP JUMPDEST PUSH32 0x3430330000000000000000000000000000000000000000000000000000000000 PUSH1 0x20 DUP3 ADD MSTORE PUSH1 0x40 MLOAD SWAP2 DUP3 SWAP2 DUP3 PUSH2 0xB1C JUMP JUMPDEST PUSH1 0x0 CALLDATASIZE PUSH1 0x3 NOT ADD SLT PUSH2 0x1C9 JUMPI PUSH2 0x1C5 PUSH2 0x4BF PUSH2 0xAA5 JUMP JUMPDEST PUSH32 0x3300000000000000000000000000000000000000000000000000000000000000 PUSH1 0x20 DUP3 ADD MSTORE PUSH1 0x40 MLOAD SWAP2 DUP3 SWAP2 DUP3 PUSH2 0xB1C JUMP JUMPDEST PUSH1 0x0 CALLDATASIZE PUSH1 0x3 NOT ADD SLT PUSH2 0x1C9 JUMPI PUSH2 0x1C5 PUSH2 0x508 PUSH2 0xAA5 JUMP JUMPDEST PUSH32 0x3400000000000000000000000000000000000000000000000000000000000000 PUSH1 0x20 DUP3 ADD MSTORE PUSH1 0x40 MLOAD SWAP2 DUP3 SWAP2 DUP3 PUSH2 0xB1C JUMP JUMPDEST PUSH1 0x0 CALLDATASIZE PUSH1 0x3 NOT ADD SLT PUSH2 0x1C9 JUMPI PUSH2 0x1C5 PUSH2 0x551 PUSH2 0xAF8 JUMP JUMPDEST PUSH32 0x3630300000000000000000000000000000000000000000000000000000000000 PUSH1 0x20 DUP3 ADD MSTORE PUSH1 0x40 MLOAD SWAP2 DUP3 SWAP2 DUP3 PUSH2 0xB1C JUMP JUMPDEST PUSH1 0x0 CALLDATASIZE PUSH1 0x3 NOT ADD SLT PUSH2 0x1C9 JUMPI PUSH2 0x1C5 PUSH2 0x59A PUSH2 0xAF8 JUMP JUMPDEST PUSH32 0x3430310000000000000000000000000000000000000000000000000000000000 PUSH1 0x20 DUP3 ADD MSTORE PUSH1 0x40 MLOAD SWAP2 DUP3 SWAP2 DUP3 PUSH2 0xB1C JUMP JUMPDEST PUSH1 0x0 CALLDATASIZE PUSH1 0x3 NOT ADD SLT PUSH2 0x1C9 JUMPI PUSH2 0x1C5 PUSH2 0x5E3 PUSH2 0xAF8 JUMP JUMPDEST PUSH32 0x3430340000000000000000000000000000000000000000000000000000000000 PUSH1 0x20 DUP3 ADD MSTORE PUSH1 0x40 MLOAD SWAP2 DUP3 SWAP2 DUP3 PUSH2 0xB1C JUMP JUMPDEST PUSH1 0x0 CALLDATASIZE PUSH1 0x3 NOT ADD SLT PUSH2 0x1C9 JUMPI PUSH2 0x1C5 PUSH2 0x62C PUSH2 0xAF8 JUMP JUMPDEST PUSH32 0x3730300000000000000000000000000000000000000000000000000000000000 PUSH1 0x20 DUP3 ADD MSTORE PUSH1 0x40 MLOAD SWAP2 DUP3 SWAP2 DUP3 PUSH2 0xB1C JUMP JUMPDEST PUSH1 0x0 CALLDATASIZE PUSH1 0x3 NOT ADD SLT PUSH2 0x1C9 JUMPI PUSH2 0x1C5 PUSH2 0x675 PUSH2 0xAF8 JUMP JUMPDEST PUSH32 0x3530300000000000000000000000000000000000000000000000000000000000 PUSH1 0x20 DUP3 ADD MSTORE PUSH1 0x40 MLOAD SWAP2 DUP3 SWAP2 DUP3 PUSH2 0xB1C JUMP JUMPDEST PUSH1 0x0 CALLDATASIZE PUSH1 0x3 NOT ADD SLT PUSH2 0x1C9 JUMPI PUSH2 0x1C5 PUSH2 0x6BE PUSH2 0xAF8 JUMP JUMPDEST PUSH32 0x3830300000000000000000000000000000000000000000000000000000000000 PUSH1 0x20 DUP3 ADD MSTORE PUSH1 0x40 MLOAD SWAP2 DUP3 SWAP2 DUP3 PUSH2 0xB1C JUMP JUMPDEST PUSH1 0x0 CALLDATASIZE PUSH1 0x3 NOT ADD SLT PUSH2 0x1C9 JUMPI PUSH2 0x1C5 PUSH2 0x707 PUSH2 0xAF8 JUMP JUMPDEST PUSH32 0x3830310000000000000000000000000000000000000000000000000000000000 PUSH1 0x20 DUP3 ADD MSTORE PUSH1 0x40 MLOAD SWAP2 DUP3 SWAP2 DUP3 PUSH2 0xB1C JUMP JUMPDEST PUSH1 0x0 CALLDATASIZE PUSH1 0x3 NOT ADD SLT PUSH2 0x1C9 JUMPI PUSH2 0x1C5 PUSH2 0x750 PUSH2 0xAF8 JUMP JUMPDEST PUSH32 0x3430300000000000000000000000000000000000000000000000000000000000 PUSH1 0x20 DUP3 ADD MSTORE PUSH1 0x40 MLOAD SWAP2 DUP3 SWAP2 DUP3 PUSH2 0xB1C JUMP JUMPDEST PUSH1 0x0 CALLDATASIZE PUSH1 0x3 NOT ADD SLT PUSH2 0x1C9 JUMPI PUSH2 0x1C5 PUSH2 0x799 PUSH2 0xAF8 JUMP JUMPDEST PUSH32 0x3330310000000000000000000000000000000000000000000000000000000000 PUSH1 0x20 DUP3 ADD MSTORE PUSH1 0x40 MLOAD SWAP2 DUP3 SWAP2 DUP3 PUSH2 0xB1C JUMP JUMPDEST PUSH1 0x0 CALLDATASIZE PUSH1 0x3 NOT ADD SLT PUSH2 0x1C9 JUMPI PUSH2 0x1C5 PUSH2 0x7E2 PUSH2 0xAA5 JUMP JUMPDEST PUSH32 0x3100000000000000000000000000000000000000000000000000000000000000 PUSH1 0x20 DUP3 ADD MSTORE PUSH1 0x40 MLOAD SWAP2 DUP3 SWAP2 DUP3 PUSH2 0xB1C JUMP JUMPDEST PUSH1 0x0 CALLDATASIZE PUSH1 0x3 NOT ADD SLT PUSH2 0x1C9 JUMPI PUSH2 0x1C5 PUSH2 0x82B PUSH2 0xAA5 JUMP JUMPDEST PUSH32 0x3500000000000000000000000000000000000000000000000000000000000000 PUSH1 0x20 DUP3 ADD MSTORE PUSH1 0x40 MLOAD SWAP2 DUP3 SWAP2 DUP3 PUSH2 0xB1C JUMP JUMPDEST PUSH1 0x0 CALLDATASIZE PUSH1 0x3 NOT ADD SLT PUSH2 0x1C9 JUMPI PUSH2 0x1C5 PUSH2 0x874 PUSH2 0xAF8 JUMP JUMPDEST PUSH32 0x3330300000000000000000000000000000000000000000000000000000000000 PUSH1 0x20 DUP3 ADD MSTORE PUSH1 0x40 MLOAD SWAP2 DUP3 SWAP2 DUP3 PUSH2 0xB1C JUMP JUMPDEST PUSH1 0x0 CALLDATASIZE PUSH1 0x3 NOT ADD SLT PUSH2 0x1C9 JUMPI PUSH2 0x1C5 PUSH2 0x8BD PUSH2 0xAF8 JUMP JUMPDEST PUSH32 0x3530310000000000000000000000000000000000000000000000000000000000 PUSH1 0x20 DUP3 ADD MSTORE PUSH1 0x40 MLOAD SWAP2 DUP3 SWAP2 DUP3 PUSH2 0xB1C JUMP JUMPDEST PUSH1 0x0 CALLDATASIZE PUSH1 0x3 NOT ADD SLT PUSH2 0x1C9 JUMPI PUSH2 0x1C5 PUSH2 0x906 PUSH2 0xAF8 JUMP JUMPDEST PUSH32 0x3130320000000000000000000000000000000000000000000000000000000000 PUSH1 0x20 DUP3 ADD MSTORE PUSH1 0x40 MLOAD SWAP2 DUP3 SWAP2 DUP3 PUSH2 0xB1C JUMP JUMPDEST PUSH1 0x0 CALLDATASIZE PUSH1 0x3 NOT ADD SLT PUSH2 0x1C9 JUMPI PUSH2 0x1C5 PUSH2 0x94F PUSH2 0xAF8 JUMP JUMPDEST PUSH32 0x3230310000000000000000000000000000000000000000000000000000000000 PUSH1 0x20 DUP3 ADD MSTORE PUSH1 0x40 MLOAD SWAP2 DUP3 SWAP2 DUP3 PUSH2 0xB1C JUMP JUMPDEST PUSH1 0x0 CALLDATASIZE PUSH1 0x3 NOT ADD SLT PUSH2 0x1C9 JUMPI PUSH2 0x1C5 PUSH2 0x998 PUSH2 0xAF8 JUMP JUMPDEST PUSH32 0x3130330000000000000000000000000000000000000000000000000000000000 PUSH1 0x20 DUP3 ADD MSTORE PUSH1 0x40 MLOAD SWAP2 DUP3 SWAP2 DUP3 PUSH2 0xB1C JUMP JUMPDEST PUSH1 0x0 CALLDATASIZE PUSH1 0x3 NOT ADD SLT PUSH2 0x1C9 JUMPI PUSH2 0x1C5 PUSH2 0x9E1 PUSH2 0xAF8 JUMP JUMPDEST PUSH32 0x3630310000000000000000000000000000000000000000000000000000000000 PUSH1 0x20 DUP3 ADD MSTORE PUSH1 0x40 MLOAD SWAP2 DUP3 SWAP2 DUP3 PUSH2 0xB1C JUMP JUMPDEST PUSH1 0x0 CALLDATASIZE PUSH1 0x3 NOT ADD SLT PUSH2 0x1C9 JUMPI PUSH2 0x1C5 PUSH2 0xA2A PUSH2 0xAF8 JUMP JUMPDEST PUSH32 0x3130350000000000000000000000000000000000000000000000000000000000 PUSH1 0x20 DUP3 ADD MSTORE PUSH1 0x40 MLOAD SWAP2 DUP3 SWAP2 DUP3 PUSH2 0xB1C JUMP JUMPDEST PUSH1 0x0 CALLDATASIZE PUSH1 0x3 NOT ADD SLT PUSH2 0x1C9 JUMPI PUSH2 0x1C5 PUSH2 0xA73 PUSH2 0xAA5 JUMP JUMPDEST PUSH32 0x3200000000000000000000000000000000000000000000000000000000000000 PUSH1 0x20 DUP3 ADD MSTORE PUSH1 0x40 MLOAD SWAP2 DUP3 SWAP2 DUP3 PUSH2 0xB1C JUMP JUMPDEST PUSH1 0x40 MLOAD SWAP1 PUSH1 0x40 DUP3 ADD DUP3 DUP2 LT PUSH8 0xFFFFFFFFFFFFFFFF DUP3 GT OR PUSH2 0xAC9 JUMPI PUSH1 0x40 MSTORE PUSH1 0x1 DUP3 MSTORE JUMP JUMPDEST PUSH32 0x4E487B7100000000000000000000000000000000000000000000000000000000 PUSH1 0x0 MSTORE PUSH1 0x41 PUSH1 0x4 MSTORE PUSH1 0x24 PUSH1 0x0 REVERT JUMPDEST PUSH1 0x40 MLOAD SWAP1 PUSH1 0x40 DUP3 ADD DUP3 DUP2 LT PUSH8 0xFFFFFFFFFFFFFFFF DUP3 GT OR PUSH2 0xAC9 JUMPI PUSH1 0x40 MSTORE PUSH1 0x3 DUP3 MSTORE JUMP JUMPDEST SWAP2 SWAP1 SWAP2 PUSH1 0x20 DUP2 MSTORE DUP3 MLOAD DUP1 PUSH1 0x20 DUP4 ADD MSTORE PUSH1 0x0 JUMPDEST DUP2 DUP2 LT PUSH2 0xB4F JUMPI POP PUSH1 0x40 SWAP3 SWAP4 POP PUSH1 0x0 DUP4 DUP3 DUP5 ADD ADD MSTORE PUSH1 0x1F DUP1 NOT SWAP2 ADD AND ADD ADD SWAP1 JUMP JUMPDEST DUP1 PUSH1 0x20 DUP1 SWAP3 DUP8 ADD ADD MLOAD PUSH1 0x40 DUP3 DUP7 ADD ADD MSTORE ADD PUSH2 0xB2E JUMP INVALID LOG2 PUSH5 0x6970667358 0x22 SLT KECCAK256 PUSH1 0x1 PREVRANDAO SGT 0xE3 MSIZE 0xB8 0x4F 0x23 0xD6 SWAP10 PUSH21 0xDD58FABB6AA19638353BDF7E074C555EBC31E8F464 PUSH20 0x6F6C634300081C00330000000000000000000000 "
        },
        "methodIdentifiers": {
          "ACTION_NOT_ALLOWED()": "b36862ee",
          "GRACE_PERIOD_EXPIRED()": "c40b8b5b",
          "HOOK_ALREADY_REGISTERED()": "74c54721",
          "HOOK_NOT_FOUND()": "ee736f2b",
          "INSUFFICIENT_APPROVALS()": "6efe4658",
          "INSUFFICIENT_BALANCE()": "50b1f356",
          "INSUFFICIENT_LIQUIDITY()": "827e7b7f",
          "INTERNAL_ERROR()": "6f39656b",
          "INVALID_INPUT()": "b68600c7",
          "INVALID_SIGNATURE()": "a3402a38",
          "INVALID_SWAP_PARAMETERS()": "6c0a9c63",
          "INVALID_TRANSACTION_AMOUNT()": "dc502802",
          "LOAN_NOT_FOUND()": "e0bf98f8",
          "LOAN_REJECTION()": "c25600a5",
          "MERCHANT_ALREADY_EXIST()": "7e4d09c8",
          "MERCHANT_NOT_FOUND()": "ec16aed9",
          "MIN_SIGNER_MUST_BE_GRT_ONE()": "6f2fd73b",
          "OPERATION_FAILED()": "dc8d807e",
          "RECURRING_TRANSACTION_EXPIRED()": "eb9eb00d",
          "SIGNATURE_EXPIRED()": "19319827",
          "STORAGE_ERROR()": "46984610",
          "SUBSCRIPTION_INACTIVE()": "1f935111",
          "SUBSCRIPTION_NOT_FOUND()": "f13f4574",
          "TEST()": "51d977a6",
          "TOKEN_NOT_SUPPORTED()": "42cee4d8",
          "TRANSACTION_ALREADY_COMPLETED()": "59e17d82",
          "TRANSACTION_FAILED()": "ce10f4d8",
          "TRANSACTION_ID_NOT_FOUND()": "4899d28c",
          "TRANSACTION_INVALID_PAYER()": "d3df216c",
          "TRANSACTION_NOT_ACTIVE()": "1f28bbcd",
          "TRANSACTION_NOT_PENDING()": "0d42b95a",
          "UNAUTHORIZED()": "075fd2b1"
        }
      }
    }
  }
}