{
  "contracts/libs/IntegerLib.sol": {
    "IntegerLib": {
      "abi": [
        {
          "inputs": [
            {
              "internalType": "uint256[]",
              "name": "value",
              "type": "uint256[]"
            }
          ],
          "name": "every",
          "outputs": [
            {
              "internalType": "bool",
              "name": "",
              "type": "bool"
            }
          ],
          "stateMutability": "pure",
          "type": "function"
        },
        {
          "inputs": [
            {
              "internalType": "uint256[]",
              "name": "value",
              "type": "uint256[]"
            }
          ],
          "name": "requireEvery",
          "outputs": [],
          "stateMutability": "pure",
          "type": "function"
        },
        {
          "inputs": [
            {
              "internalType": "uint256",
              "name": "value",
              "type": "uint256"
            }
          ],
          "name": "requireOne",
          "outputs": [],
          "stateMutability": "pure",
          "type": "function"
        }
      ],
      "evm": {
        "bytecode": {
          "linkReferences": {},
          "object": "6080806040523460195761024f908161001f823930815050f35b600080fdfe6080604052600436101561001257600080fd5b60003560e01c8063061c3ad5146101345780638be4c965146100af5763d0ca35ed1461003d57600080fd5b61004636610152565b60005b81811061005257005b61005d8183856101a6565b351561006b57600101610049565b606460405162461bcd60e51b815260206004820152601e60248201527f496e74656765724c69623a205a65726f2075696e7432353620666f756e6400006044820152fd5b602036600319011261012f57600435156100c557005b608460405162461bcd60e51b815260206004820152602160248201527f496e74656765724c69623a205a65726f2075696e743235362070726f7669646560448201527f64000000000000000000000000000000000000000000000000000000000000006064820152fd5b600080fd5b602061014861014236610152565b906101e5565b6040519015158152f35b90602060031983011261012f5760043567ffffffffffffffff811161012f578260238201121561012f5780600401359267ffffffffffffffff841161012f5760248460051b8301011161012f576024019190565b91908110156101b65760051b0190565b7f4e487b7100000000000000000000000000000000000000000000000000000000600052603260045260246000fd5b9060005b8181106101f857505050600190565b6102038183856101a6565b3515610211576001016101e9565b50505060009056fea2646970667358221220b0fe35e6cd416c1e78e937d38f723e67f063398f45e58d194c052a6b53e58b0464736f6c634300081c0033",
          "opcodes": "PUSH1 0x80 DUP1 PUSH1 0x40 MSTORE CALLVALUE PUSH1 0x19 JUMPI PUSH2 0x24F SWAP1 DUP2 PUSH2 0x1F DUP3 CODECOPY ADDRESS DUP2 POP POP RETURN JUMPDEST PUSH1 0x0 DUP1 REVERT INVALID PUSH1 0x80 PUSH1 0x40 MSTORE PUSH1 0x4 CALLDATASIZE LT ISZERO PUSH2 0x12 JUMPI PUSH1 0x0 DUP1 REVERT JUMPDEST PUSH1 0x0 CALLDATALOAD PUSH1 0xE0 SHR DUP1 PUSH4 0x61C3AD5 EQ PUSH2 0x134 JUMPI DUP1 PUSH4 0x8BE4C965 EQ PUSH2 0xAF JUMPI PUSH4 0xD0CA35ED EQ PUSH2 0x3D JUMPI PUSH1 0x0 DUP1 REVERT JUMPDEST PUSH2 0x46 CALLDATASIZE PUSH2 0x152 JUMP JUMPDEST PUSH1 0x0 JUMPDEST DUP2 DUP2 LT PUSH2 0x52 JUMPI STOP JUMPDEST PUSH2 0x5D DUP2 DUP4 DUP6 PUSH2 0x1A6 JUMP JUMPDEST CALLDATALOAD ISZERO PUSH2 0x6B JUMPI PUSH1 0x1 ADD PUSH2 0x49 JUMP JUMPDEST PUSH1 0x64 PUSH1 0x40 MLOAD PUSH3 0x461BCD PUSH1 0xE5 SHL DUP2 MSTORE PUSH1 0x20 PUSH1 0x4 DUP3 ADD MSTORE PUSH1 0x1E PUSH1 0x24 DUP3 ADD MSTORE PUSH32 0x496E74656765724C69623A205A65726F2075696E7432353620666F756E640000 PUSH1 0x44 DUP3 ADD MSTORE REVERT JUMPDEST PUSH1 0x20 CALLDATASIZE PUSH1 0x3 NOT ADD SLT PUSH2 0x12F JUMPI PUSH1 0x4 CALLDATALOAD ISZERO PUSH2 0xC5 JUMPI STOP JUMPDEST PUSH1 0x84 PUSH1 0x40 MLOAD PUSH3 0x461BCD PUSH1 0xE5 SHL DUP2 MSTORE PUSH1 0x20 PUSH1 0x4 DUP3 ADD MSTORE PUSH1 0x21 PUSH1 0x24 DUP3 ADD MSTORE PUSH32 0x496E74656765724C69623A205A65726F2075696E743235362070726F76696465 PUSH1 0x44 DUP3 ADD MSTORE PUSH32 0x6400000000000000000000000000000000000000000000000000000000000000 PUSH1 0x64 DUP3 ADD MSTORE REVERT JUMPDEST PUSH1 0x0 DUP1 REVERT JUMPDEST PUSH1 0x20 PUSH2 0x148 PUSH2 0x142 CALLDATASIZE PUSH2 0x152 JUMP JUMPDEST SWAP1 PUSH2 0x1E5 JUMP JUMPDEST PUSH1 0x40 MLOAD SWAP1 ISZERO ISZERO DUP2 MSTORE RETURN JUMPDEST SWAP1 PUSH1 0x20 PUSH1 0x3 NOT DUP4 ADD SLT PUSH2 0x12F JUMPI PUSH1 0x4 CALLDATALOAD PUSH8 0xFFFFFFFFFFFFFFFF DUP2 GT PUSH2 0x12F JUMPI DUP3 PUSH1 0x23 DUP3 ADD SLT ISZERO PUSH2 0x12F JUMPI DUP1 PUSH1 0x4 ADD CALLDATALOAD SWAP3 PUSH8 0xFFFFFFFFFFFFFFFF DUP5 GT PUSH2 0x12F JUMPI PUSH1 0x24 DUP5 PUSH1 0x5 SHL DUP4 ADD ADD GT PUSH2 0x12F JUMPI PUSH1 0x24 ADD SWAP2 SWAP1 JUMP JUMPDEST SWAP2 SWAP1 DUP2 LT ISZERO PUSH2 0x1B6 JUMPI PUSH1 0x5 SHL ADD SWAP1 JUMP JUMPDEST PUSH32 0x4E487B7100000000000000000000000000000000000000000000000000000000 PUSH1 0x0 MSTORE PUSH1 0x32 PUSH1 0x4 MSTORE PUSH1 0x24 PUSH1 0x0 REVERT JUMPDEST SWAP1 PUSH1 0x0 JUMPDEST DUP2 DUP2 LT PUSH2 0x1F8 JUMPI POP POP POP PUSH1 0x1 SWAP1 JUMP JUMPDEST PUSH2 0x203 DUP2 DUP4 DUP6 PUSH2 0x1A6 JUMP JUMPDEST CALLDATALOAD ISZERO PUSH2 0x211 JUMPI PUSH1 0x1 ADD PUSH2 0x1E9 JUMP JUMPDEST POP POP POP PUSH1 0x0 SWAP1 JUMP INVALID LOG2 PUSH5 0x6970667358 0x22 SLT KECCAK256 0xB0 INVALID CALLDATALOAD 0xE6 0xCD COINBASE PUSH13 0x1E78E937D38F723E67F063398F GASLIMIT 0xE5 DUP14 NOT 0x4C SDIV 0x2A PUSH12 0x53E58B0464736F6C63430008 SHR STOP CALLER "
        },
        "methodIdentifiers": {
          "every(uint256[])": "061c3ad5",
          "requireEvery(uint256[])": "d0ca35ed",
          "requireOne(uint256)": "8be4c965"
        }
      }
    }
  }
}