{
  "contracts/Beam.sol": {
    "Beam": {
      "abi": [
        {
          "inputs": [
            {
              "internalType": "contract IBeamEvents",
              "name": "events_",
              "type": "address"
            },
            {
              "internalType": "contract IMerchant",
              "name": "merchant_",
              "type": "address"
            },
            {
              "internalType": "contract IOneTimeTransaction",
              "name": "oneTimeTransaction_",
              "type": "address"
            },
            {
              "internalType": "contract IRecurrentTransaction",
              "name": "recurrentTransaction_",
              "type": "address"
            },
            {
              "internalType": "contract IHookManager",
              "name": "hookManager_",
              "type": "address"
            },
            {
              "internalType": "contract IAaveV3",
              "name": "aave_",
              "type": "address"
            },
            {
              "internalType": "contract IUniswap",
              "name": "uniswap_",
              "type": "address"
            }
          ],
          "stateMutability": "nonpayable",
          "type": "constructor"
        },
        {
          "inputs": [
            {
              "internalType": "address",
              "name": "owner",
              "type": "address"
            }
          ],
          "name": "OwnableInvalidOwner",
          "type": "error"
        },
        {
          "inputs": [
            {
              "internalType": "address",
              "name": "account",
              "type": "address"
            }
          ],
          "name": "OwnableUnauthorizedAccount",
          "type": "error"
        },
        {
          "anonymous": false,
          "inputs": [
            {
              "indexed": true,
              "internalType": "address",
              "name": "previousOwner",
              "type": "address"
            },
            {
              "indexed": true,
              "internalType": "address",
              "name": "newOwner",
              "type": "address"
            }
          ],
          "name": "OwnershipTransferred",
          "type": "event"
        },
        {
          "inputs": [
            {
              "components": [
                {
                  "internalType": "bytes32",
                  "name": "transactionId",
                  "type": "bytes32"
                }
              ],
              "internalType": "struct Params.CancelRecurrentTransaction",
              "name": "params",
              "type": "tuple"
            }
          ],
          "name": "cancelRecurrentTransaction",
          "outputs": [],
          "stateMutability": "nonpayable",
          "type": "function"
        },
        {
          "inputs": [
            {
              "components": [
                {
                  "internalType": "bytes32",
                  "name": "transactionId",
                  "type": "bytes32"
                },
                {
                  "internalType": "address",
                  "name": "tokenB",
                  "type": "address"
                },
                {
                  "internalType": "uint256",
                  "name": "slippage",
                  "type": "uint256"
                },
                {
                  "internalType": "uint256",
                  "name": "healthFactorMultiplier",
                  "type": "uint256"
                },
                {
                  "internalType": "enum Enums.TransactionRoute",
                  "name": "route",
                  "type": "uint8"
                },
                {
                  "components": [
                    {
                      "internalType": "uint256",
                      "name": "deadline",
                      "type": "uint256"
                    },
                    {
                      "internalType": "uint8",
                      "name": "v",
                      "type": "uint8"
                    },
                    {
                      "internalType": "bytes32",
                      "name": "r",
                      "type": "bytes32"
                    },
                    {
                      "internalType": "bytes32",
                      "name": "s",
                      "type": "bytes32"
                    }
                  ],
                  "internalType": "struct Params.Signature",
                  "name": "signature",
                  "type": "tuple"
                }
              ],
              "internalType": "struct Params.FulfillOneTimeTransaction",
              "name": "params",
              "type": "tuple"
            }
          ],
          "name": "fulfillOneTimeTransaction",
          "outputs": [],
          "stateMutability": "payable",
          "type": "function"
        },
        {
          "inputs": [
            {
              "components": [
                {
                  "internalType": "bytes32",
                  "name": "transactionId",
                  "type": "bytes32"
                },
                {
                  "internalType": "address",
                  "name": "tokenB",
                  "type": "address"
                },
                {
                  "internalType": "uint256",
                  "name": "slippage",
                  "type": "uint256"
                },
                {
                  "internalType": "uint256",
                  "name": "healthFactorMultiplier",
                  "type": "uint256"
                },
                {
                  "internalType": "enum Enums.TransactionRoute",
                  "name": "route",
                  "type": "uint8"
                },
                {
                  "components": [
                    {
                      "internalType": "uint256",
                      "name": "deadline",
                      "type": "uint256"
                    },
                    {
                      "internalType": "uint8",
                      "name": "v",
                      "type": "uint8"
                    },
                    {
                      "internalType": "bytes32",
                      "name": "r",
                      "type": "bytes32"
                    },
                    {
                      "internalType": "bytes32",
                      "name": "s",
                      "type": "bytes32"
                    }
                  ],
                  "internalType": "struct Params.Signature",
                  "name": "signature",
                  "type": "tuple"
                }
              ],
              "internalType": "struct Params.FulfillRecurrentTransaction",
              "name": "params",
              "type": "tuple"
            }
          ],
          "name": "fulfillRecurrentTransaction",
          "outputs": [],
          "stateMutability": "payable",
          "type": "function"
        },
        {
          "inputs": [
            {
              "components": [
                {
                  "internalType": "address",
                  "name": "merchant",
                  "type": "address"
                },
                {
                  "internalType": "address",
                  "name": "payer",
                  "type": "address"
                },
                {
                  "internalType": "address",
                  "name": "token",
                  "type": "address"
                },
                {
                  "internalType": "uint256",
                  "name": "amount",
                  "type": "uint256"
                }
              ],
              "internalType": "struct Params.AdjustTokenAmount",
              "name": "params",
              "type": "tuple"
            }
          ],
          "name": "getAdjustTokenAmount",
          "outputs": [
            {
              "internalType": "address",
              "name": "adjustedToken",
              "type": "address"
            },
            {
              "internalType": "uint256",
              "name": "adjustedAmount",
              "type": "uint256"
            }
          ],
          "stateMutability": "view",
          "type": "function"
        },
        {
          "inputs": [
            {
              "components": [
                {
                  "internalType": "address",
                  "name": "to",
                  "type": "address"
                },
                {
                  "internalType": "bytes32",
                  "name": "transactionId",
                  "type": "bytes32"
                },
                {
                  "internalType": "string",
                  "name": "URI",
                  "type": "string"
                }
              ],
              "internalType": "struct Params.MintReceipt",
              "name": "params",
              "type": "tuple"
            }
          ],
          "name": "mintOneTimeTransactionReceipt",
          "outputs": [],
          "stateMutability": "nonpayable",
          "type": "function"
        },
        {
          "inputs": [
            {
              "components": [
                {
                  "internalType": "address",
                  "name": "to",
                  "type": "address"
                },
                {
                  "internalType": "bytes32",
                  "name": "transactionId",
                  "type": "bytes32"
                },
                {
                  "internalType": "string",
                  "name": "URI",
                  "type": "string"
                }
              ],
              "internalType": "struct Params.MintReceipt",
              "name": "params",
              "type": "tuple"
            }
          ],
          "name": "mintRecurrentTransactionReceipt",
          "outputs": [],
          "stateMutability": "nonpayable",
          "type": "function"
        },
        {
          "inputs": [
            {
              "components": [
                {
                  "internalType": "address[]",
                  "name": "payers",
                  "type": "address[]"
                },
                {
                  "internalType": "address",
                  "name": "merchant",
                  "type": "address"
                },
                {
                  "internalType": "uint256[]",
                  "name": "amounts",
                  "type": "uint256[]"
                },
                {
                  "internalType": "address",
                  "name": "token",
                  "type": "address"
                },
                {
                  "internalType": "address",
                  "name": "tokenB",
                  "type": "address"
                },
                {
                  "internalType": "string",
                  "name": "description",
                  "type": "string"
                },
                {
                  "components": [
                    {
                      "internalType": "uint8",
                      "name": "schemaVersion",
                      "type": "uint8"
                    },
                    {
                      "internalType": "string",
                      "name": "value",
                      "type": "string"
                    }
                  ],
                  "internalType": "struct Types.Metadata",
                  "name": "metadata",
                  "type": "tuple"
                },
                {
                  "internalType": "uint256",
                  "name": "slippage",
                  "type": "uint256"
                },
                {
                  "internalType": "uint256",
                  "name": "healthFactorMultiplier",
                  "type": "uint256"
                },
                {
                  "internalType": "enum Enums.TransactionRoute",
                  "name": "route",
                  "type": "uint8"
                },
                {
                  "components": [
                    {
                      "internalType": "uint256",
                      "name": "deadline",
                      "type": "uint256"
                    },
                    {
                      "internalType": "uint8",
                      "name": "v",
                      "type": "uint8"
                    },
                    {
                      "internalType": "bytes32",
                      "name": "r",
                      "type": "bytes32"
                    },
                    {
                      "internalType": "bytes32",
                      "name": "s",
                      "type": "bytes32"
                    }
                  ],
                  "internalType": "struct Params.Signature",
                  "name": "signature",
                  "type": "tuple"
                }
              ],
              "internalType": "struct Params.CreateOneTimeTransaction",
              "name": "params",
              "type": "tuple"
            }
          ],
          "name": "oneTimeTransaction",
          "outputs": [],
          "stateMutability": "payable",
          "type": "function"
        },
        {
          "inputs": [],
          "name": "owner",
          "outputs": [
            {
              "internalType": "address",
              "name": "",
              "type": "address"
            }
          ],
          "stateMutability": "view",
          "type": "function"
        },
        {
          "inputs": [
            {
              "components": [
                {
                  "internalType": "address",
                  "name": "merchant",
                  "type": "address"
                },
                {
                  "internalType": "address",
                  "name": "tokenB",
                  "type": "address"
                },
                {
                  "internalType": "bytes32",
                  "name": "subscriptionId",
                  "type": "bytes32"
                },
                {
                  "internalType": "string",
                  "name": "description",
                  "type": "string"
                },
                {
                  "components": [
                    {
                      "internalType": "uint8",
                      "name": "schemaVersion",
                      "type": "uint8"
                    },
                    {
                      "internalType": "string",
                      "name": "value",
                      "type": "string"
                    }
                  ],
                  "internalType": "struct Types.Metadata",
                  "name": "metadata",
                  "type": "tuple"
                },
                {
                  "internalType": "uint256",
                  "name": "slippage",
                  "type": "uint256"
                },
                {
                  "internalType": "uint256",
                  "name": "healthFactorMultiplier",
                  "type": "uint256"
                },
                {
                  "internalType": "enum Enums.TransactionRoute",
                  "name": "route",
                  "type": "uint8"
                },
                {
                  "components": [
                    {
                      "internalType": "uint256",
                      "name": "deadline",
                      "type": "uint256"
                    },
                    {
                      "internalType": "uint8",
                      "name": "v",
                      "type": "uint8"
                    },
                    {
                      "internalType": "bytes32",
                      "name": "r",
                      "type": "bytes32"
                    },
                    {
                      "internalType": "bytes32",
                      "name": "s",
                      "type": "bytes32"
                    }
                  ],
                  "internalType": "struct Params.Signature",
                  "name": "signature",
                  "type": "tuple"
                }
              ],
              "internalType": "struct Params.CreateRecurrentTransaction",
              "name": "params",
              "type": "tuple"
            }
          ],
          "name": "recurrentTransaction",
          "outputs": [],
          "stateMutability": "payable",
          "type": "function"
        },
        {
          "inputs": [],
          "name": "renounceOwnership",
          "outputs": [],
          "stateMutability": "nonpayable",
          "type": "function"
        },
        {
          "inputs": [
            {
              "internalType": "contract IAaveV3",
              "name": "aave",
              "type": "address"
            }
          ],
          "name": "setAave",
          "outputs": [],
          "stateMutability": "nonpayable",
          "type": "function"
        },
        {
          "inputs": [
            {
              "internalType": "contract IOneTimeTransaction",
              "name": "transaction",
              "type": "address"
            }
          ],
          "name": "setOneTimeTransaction",
          "outputs": [],
          "stateMutability": "nonpayable",
          "type": "function"
        },
        {
          "inputs": [
            {
              "internalType": "contract IRecurrentTransaction",
              "name": "transaction",
              "type": "address"
            }
          ],
          "name": "setRecurentTransaction",
          "outputs": [],
          "stateMutability": "nonpayable",
          "type": "function"
        },
        {
          "inputs": [
            {
              "internalType": "contract IUniswap",
              "name": "uniswap",
              "type": "address"
            }
          ],
          "name": "setUniswap",
          "outputs": [],
          "stateMutability": "nonpayable",
          "type": "function"
        },
        {
          "inputs": [
            {
              "internalType": "address",
              "name": "newOwner",
              "type": "address"
            }
          ],
          "name": "transferOwnership",
          "outputs": [],
          "stateMutability": "nonpayable",
          "type": "function"
        },
        {
          "stateMutability": "payable",
          "type": "receive"
        }
      ],
      "evm": {
        "bytecode": {
          "linkReferences": {
            "contracts/libs/AddressLib.sol": {
              "AddressLib": [
                {
                  "length": 20,
                  "start": 1488
                },
                {
                  "length": 20,
                  "start": 3822
                },
                {
                  "length": 20,
                  "start": 6248
                },
                {
                  "length": 20,
                  "start": 6299
                },
                {
                  "length": 20,
                  "start": 6340
                },
                {
                  "length": 20,
                  "start": 6451
                },
                {
                  "length": 20,
                  "start": 7119
                },
                {
                  "length": 20,
                  "start": 7179
                },
                {
                  "length": 20,
                  "start": 9244
                }
              ]
            },
            "contracts/libs/IntegerLib.sol": {
              "IntegerLib": [
                {
                  "length": 20,
                  "start": 6495
                },
                {
                  "length": 20,
                  "start": 6606
                }
              ]
            }
          },
          "object": "6080346101c157601f613fc938819003918201601f19168301916001600160401b038311848410176101c65780849260e0946040528339810103126101c15780516001600160a01b038116908190036101c15760208201516001600160a01b03811691908290036101c15760408301516001600160a01b03811691908290036101c15760608401516001600160a01b03811693908490036101c15760808501516001600160a01b03811691908290036101c15760a08601516001600160a01b03811696908790036101c15760c001516001600160a01b038116908190036101c15733156101ab5760008054336001600160a01b0319821681178355604051999290916001600160a01b0316907f8be0079c531659141344cd1fd0a4f28419497f9722a3daafe3b4186f6b6457e09080a360018060a01b0319600154161760015560018060a01b0319600254161760025560018060a01b0319600354161760035560018060a01b0319600454161760045560018060a01b0319600554161760055560018060a01b0319600654161760065560018060a01b03196007541617600755613dec90816101dd8239f35b631e4fbdf760e01b600052600060045260246000fd5b600080fd5b634e487b7160e01b600052604160045260246000fdfe608080604052600436101561001d575b50361561001b57600080fd5b005b600090813560e01c9081630bd0c23e14612b30575080631fd9b2bf14612a1c578063228b79d3146121685780632ad6c02f146121265780633da03a1414611493578063535c1f7f146114515780635e1d56a91461140a578063632c847d14610c3757806369eb7f26146102ea578063715018a6146102915780638da5cb5b1461026b5780638efecdda14610229578063d6b5891e146101e3578063e2f999a51461016b5763f2fde38b0361000f5734610168576020366003190112610168576001600160a01b036100ec612d33565b6100f4613cde565b16801561013c576001600160a01b038254826001600160a01b03198216178455167f8be0079c531659141344cd1fd0a4f28419497f9722a3daafe3b4186f6b6457e08380a380f35b6024827f1e4fbdf700000000000000000000000000000000000000000000000000000000815280600452fd5b80fd5b5034610168578061017b36612ede565b6001600160a01b0360075416803b156101df576101b28392918392604051948580948193631d6e1f8560e31b8352600483016131d9565b03925af180156101d4576101c35750f35b816101cd91612d11565b6101685780f35b6040513d84823e3d90fd5b5050fd5b5034610168576020366003190112610168576004356001600160a01b03811680910361022557610211613cde565b6001600160a01b0319600154161760015580f35b5080fd5b5034610168576020366003190112610168576004356001600160a01b03811680910361022557610257613cde565b6001600160a01b0319600254161760025580f35b50346101685780600319360112610168576001600160a01b036020915416604051908152f35b50346101685780600319360112610168576102aa613cde565b806001600160a01b0381546001600160a01b031981168355167f8be0079c531659141344cd1fd0a4f28419497f9722a3daafe3b4186f6b6457e08280a380f35b506020366003190112610168576004359067ffffffffffffffff8211610168576101806003198336030112610168576040519161032683612cbc565b61033281600401612d49565b835261034060248201612d49565b90602084019182526040840160448201358152606482013567ffffffffffffffff8111610c33576103779060043691850101612e4f565b9460608101958652608483013567ffffffffffffffff8111610c2f576103a39060043691860101612e96565b956080820196875260a082019360a4810135855260c083019360c4820135855260e4820135916003831015610c2b576103e89060e08601938452610104369101612d6b565b986101008501998a5273__$9a64d4390e1f317cfd7b279e493df8b9ee$__976001600160a01b03865116893b15610ab1576040519063bf6341cf60e01b825260048201528a816024818d5af48015610a9157908b91610c16575b50506007546001600160a01b0316604051937feccad175000000000000000000000000000000000000000000000000000000008552336004860152602485016040905287516001600160a01b0316604486015282516001600160a01b0316606486015251608485015283808d885160a4830161018090526101c483016104c791613187565b86518382036043190160c48501526104df91906131ac565b908c5160e48401528b51610104840152885161012484016104ff916131cc565b518051610144840152602081015160ff166101648401526040810151610184840152606001516101a483015203818d5a94602095f1928315610c0b578a93610bd2575b506007546040516316c9372360e11b81526004810185905233602482015299906060908b9060449082908f906001600160a01b03165af1978815610a91578b958c9b8d9a610b97575b506001600160a01b036003541660206001600160a01b038b51166024604051809481936304d0a64760e01b835260048301525afa908115610b1a578e91610b5d575b50833b15610b59578d6001600160a01b039160246040518094819363bf6341cf60e01b835216978860048301525af48015610b1a57908e91610b44575b50506001600160a01b03808a51169c6040519d8e61062781612c51565b528d602033910152169b8c60408201528760608201526001600160a01b036004541690813b15610b40576106af8f9160849083604051958694859363577ed67f60e11b85526004850190606080916001600160a01b0381511684526001600160a01b0360208201511660208501526001600160a01b0360408201511660408501520151910152565b5af18015610b1a57908e91610b27575b50506001600160a01b0389511693604051946106da86612c51565b85523360208601528c6040860152876060860152604061075660846001600160a01b03600454169783519889938492630716fa0360e31b84526004840190606080916001600160a01b0381511684526001600160a01b0360208201511660208501526001600160a01b0360408201511660408501520151910152565b5afa948515610b1a57908e949392918596610ade575b506001600160a01b039051169b51915190516003811015610aca578e9f51916040519361079885612c83565b6001600160a01b0387169e8f86526020860152876040860152856060860152608085015260a084015260c08301906107cf916130cf565b60e08201526107dd906132f8565b803b15610a38576040516326b3293f60e01b81526001600160a01b0392909216600483015260248201839052604482018590528b908290606490829034905af1908115610a91578b91610ab5575b50506001600160a01b0360075416803b15610ab1578a809160446040518094819363b38ffd5f60e01b83528960048401528a60248401525af1908115610a91578b91610a9c575b50506001600160a01b038651166040519061088c82612ca0565b81528360208201523360408201528960608201528460808201528860a08201528160c08201526001600160a01b0360045416803b15610a385760408051632b54892b60e01b815283516001600160a01b0390811660048301526020850151602483015291840151821660448201526060840151821660648201526080840151608482015260a084015190911660a482015260c09092015160c48301528b90829060e490829084905af1908115610a91578b91610a78575b50506024916001600160a01b038060055416975116955190519160206001600160a01b0360075416604051958680926302ef145760e51b82528960048301525afa938415610a6d578c94610a3c575b50873b15610a38578b998a966040519c8d9b8c9a8b997f9e0e92e4000000000000000000000000000000000000000000000000000000008b5260048b01523360248b015260448a01526064890152608488015260a487015260c486015260e485015242610104850152610124840161018090526101848401610a1391613187565b83810360031901610144850152610a29916131ac565b9061016483016101b291613109565b8b80fd5b610a5f91945060203d602011610a66575b610a578183612d11565b8101906130f1565b9238610992565b503d610a4d565b6040513d8e823e3d90fd5b81610a8291612d11565b610a8d578938610943565b8980fd5b6040513d8d823e3d90fd5b81610aa691612d11565b610a8d578938610872565b8a80fd5b81610abf91612d11565b610a8d57893861082b565b60248f634e487b7160e01b81526021600452fd5b610b0b9196506001600160a01b03955060403d604011610b13575b610b038183612d11565b810190612f7e565b95909461076c565b503d610af9565b8e604051903d90823e3d90fd5b81610b3191612d11565b610b3c578c386106bf565b8c80fd5b8e80fd5b81610b4e91612d11565b610b3c578c3861060a565b8d80fd5b90506020813d602011610b8f575b81610b7860209383612d11565b81010312610b5957610b8990612f6a565b386105cd565b3d9150610b6b565b9196509850610bbf919a5060603d606011610bcb575b610bb78183612d11565b81019061320e565b9a9195909a983861058b565b503d610bad565b9092506020813d602011610c03575b81610bee60209383612d11565b81010312610bfe57519138610542565b600080fd5b3d9150610be1565b6040513d8c823e3d90fd5b81610c2091612d11565b610a8d578938610442565b8880fd5b8580fd5b8480fd5b5061012036600319011261016857610c4e36612dae565b906001600160a01b0360075416918051926040519363255709e560e11b855260048501528284602481845afa9384156112d05783946112db575b5081516040516316c9372360e11b8152600481019190915233602482015291906060908390604490829087905af19182156112d0578394849185946112a8575b5060206001600160a01b0360035416910160206001600160a01b038251166024604051809581936304d0a64760e01b835260048301525afa91821561129d578692611261575b5073__$9a64d4390e1f317cfd7b279e493df8b9ee$__91823b1561125d57866001600160a01b039160246040518094819363bf6341cf60e01b835216968760048301525af4801561122857908791611248575b50506001600160a01b03808251169360405194610d7d86612c51565b855233602086015216928360408201528760608201526001600160a01b036004541690813b156111b457610e046084899283604051958694859363577ed67f60e11b85526004850190606080916001600160a01b0381511684526001600160a01b0360208201511660208501526001600160a01b0360408201511660408501520151910152565b5af1801561122857908791611233575b50506001600160a01b038151169660405197610e2f89612c51565b88523360208901528360408901528060608901526040610eab60846001600160a01b03600454169a83519b8c938492630716fa0360e31b84526004840190606080916001600160a01b0381511684526001600160a01b0360208201511660208501526001600160a01b0360408201511660408501520151910152565b5afa9485156112285787988896611201575b506001600160a01b0360208201511693604082015199606083015160808401519060038210156111ed578b9c610f36610f40938c9360a08901519360405195610f0587612c83565b6001600160a01b0389169d8e885260208801526040870152886060870152608086015260a085015260c084016130cf565b60e08201526132f8565b8251823b15610ab1576040516326b3293f60e01b81526001600160a01b039290921660048301526024820189905260448201529089908290606490829034905af19081156111b85789916111d8575b50506001600160a01b03600754168151813b15610a8d57899160448392604051948593849263b38ffd5f60e01b845260048401528860248401525af19081156111b85789916111c3575b50506001600160a01b03835116815160405191610ff583612ca0565b825260208201523360408201528560608201528260808201528460a08201528660c08201526001600160a01b0360045416803b15610a8d5760408051632b54892b60e01b815283516001600160a01b0390811660048301526020850151602483015291840151821660448201526060840151821660648201526080840151608482015260a084015190911660a482015260c09092015160c48301528990829060e490829084905af19081156111b857899161119f575b50506001600160a01b038060055416915193511694602460206001600160a01b0360075416604051928380926302ef145760e51b82528960048301525afa908115610c0b578a91611180575b50823b15610a8d578997610144968995611171946040519c8d9b8c9a7f5261bbdb000000000000000000000000000000000000000000000000000000008c5260048c01523360248c015260448b015260648a0152608489015260a488015260c487015260e486015242610104860152610124850190613109565b5af180156101d4576101c35750f35b611199915060203d602011610a6657610a578183612d11565b386110f7565b816111a991612d11565b6111b45787386110ab565b8780fd5b6040513d8b823e3d90fd5b816111cd91612d11565b6111b4578738610fd9565b816111e291612d11565b6111b4578738610f8f565b60248c634e487b7160e01b81526021600452fd5b90955061121e91985060403d604011610b1357610b038183612d11565b9790979438610ebd565b6040513d89823e3d90fd5b8161123d91612d11565b610c2f578538610e14565b8161125291612d11565b610c2f578538610d61565b8680fd5b9091506020813d602011611295575b8161127d60209383612d11565b81010312610c2f5761128e90612f6a565b9038610d0e565b3d9150611270565b6040513d88823e3d90fd5b915092506112c691945060603d606011610bcb57610bb78183612d11565b9194919238610cc8565b6040513d85823e3d90fd5b9093503d8084833e6112ed8183612d11565b8101906020818303126114065780519067ffffffffffffffff8211610c33570161012081830312611406576040519161132583612cbc565b61132e82612f6a565b835261133c60208301612f6a565b602084015260408201516040840152606082015167ffffffffffffffff8111610c2f578161136b918401613028565b6060840152608082015167ffffffffffffffff8111610c2f5781611390918401612f9b565b608084015260a082015167ffffffffffffffff8111610c2f57816113b5918401612f9b565b60a084015260c082015160c084015260e082015167ffffffffffffffff8111610c2f5782916113e891610100940161306d565b60e08401520151600481101561140657610100820152926060610c88565b8380fd5b5034610168578061141a36612ede565b6001600160a01b0360065416803b156101df576101b28392918392604051948580948193631d6e1f8560e31b8352600483016131d9565b5034610168576020366003190112610168576004356001600160a01b0381168091036102255761147f613cde565b6001600160a01b0319600754161760075580f35b506020366003190112610168576004359067ffffffffffffffff8211610168576101c060031983360301126101685760405191610160830183811067ffffffffffffffff82111761211257604052806004013567ffffffffffffffff81116120e6578101366023820112156120e65760048101359061151182612e1b565b9161151f6040519384612d11565b808352602060048185019260051b8401010191368311610c2f57602401905b8282106120fa57505050835261155660248201612d49565b6020840152604481013567ffffffffffffffff81116120e6578101366023820112156120e65760048101359061158b82612e1b565b916115996040519384612d11565b808352602060048185019260051b8401010191368311610c2f57602401905b8282106120ea5750505060408401526115d360648201612d49565b60608401526115e460848201612d49565b608084015260a481013567ffffffffffffffff81116120e65761160d9060043691840101612e4f565b60a084015260c481013567ffffffffffffffff81116120e6576116369060043691840101612e96565b60c084015260e481013560e084015261010481013561010084015261012481013560038110156120e65761012084015261167590369061014401612d6b565b6101408301526001600160a01b0360208301511673__$9a64d4390e1f317cfd7b279e493df8b9ee$__3b15610225576040519063bf6341cf60e01b82526004820152818160248173__$9a64d4390e1f317cfd7b279e493df8b9ee$__5af480156101d4579082916120d1575b5050815173__$9a64d4390e1f317cfd7b279e493df8b9ee$__3b1561022557604051907f11f599a500000000000000000000000000000000000000000000000000000000825282826024810192602060048301528051809452602060448301910193835b8181106120ac57505081929350038173__$9a64d4390e1f317cfd7b279e493df8b9ee$__5af480156101d457908291612097575b5050604082015173__$1472882dd151bacffe3e5240c3a944adb7$__3b1561022557604051907fd0ca35ed00000000000000000000000000000000000000000000000000000000825282826024810192602060048301528051809452602060448301910193835b81811061207b57505081929350038173__$1472882dd151bacffe3e5240c3a944adb7$__5af480156101d457908291612066575b50506001600160a01b0360065416602060405180927f63423f93000000000000000000000000000000000000000000000000000000008252336004830152604060248301528185816118f96118e26118a68b6001600160a01b038a61188783516101c060448a0152610204890190613116565b92015116606486015260408d0151858203604319016084870152613153565b6001600160a01b0360608d01511660a48501526001600160a01b0360808d01511660c485015260a08c01516043198583030160e4860152613187565b60c08b0151838203604319016101048501526131ac565b60e08a01516101248301526101008a01516101448301526119246101208b01516101648401906131cc565b6101408a01518051610184840152602081015160ff166101a484015260408101516101c4840152606001516101e483015203925af19081156101d4578291612034575b50600654604080516316c9372360e11b815260048101849052336024820152918290604490829087906001600160a01b03165af180156112d05783918491612003575b506001600160a01b03600354169460206001600160a01b0381830151166024604051809981936304d0a64760e01b835260048301525afa958615611ff8578596611fbc575b5073__$9a64d4390e1f317cfd7b279e493df8b9ee$__3b15610c335760405163bf6341cf60e01b81526001600160a01b0387166004820152858160248173__$9a64d4390e1f317cfd7b279e493df8b9ee$__5af4801561129d57908691611fa7575b50506001600160a01b036020820151166001600160a01b0360608301511660405191611a7c83612c51565b825233602083015260408201528260608201526001600160a01b036004541690813b1561125d57611b006084889283604051958694859363577ed67f60e11b85526004850190606080916001600160a01b0381511684526001600160a01b0360208201511660208501526001600160a01b0360408201511660408501520151910152565b5af1801561129d57908691611f92575b50506001600160a01b03602082015116916001600160a01b0360608301511660405193611b3c85612c51565b845233602085015260408401528060608401526040611bb760846001600160a01b03600454169583519687938492630716fa0360e31b84526004840190606080916001600160a01b0381511684526001600160a01b0360208201511660208501526001600160a01b0360408201511660408501520151910152565b5afa93841561129d5786938795611f6b575b506001600160a01b036080840151169360e0840151986101008501516101208601516003811015611f57579a611c4d91610f368c9d6101408a01519260405194611c1286612c83565b6001600160a01b0389169c8d875260208701528d60408701526001600160a01b0388166060870152608086015260a085015260c084016130cf565b6001600160a01b0381163b15610c2b576040516326b3293f60e01b81526001600160a01b0392831660048201526024810188905260448101899052918991839160649183913491165af1908115611f4c578891611f37575b5050611edc575b6001600160a01b03602083015116906001600160a01b0360608401511660405192611cd684612ca0565b8352866020840152336040840152606083015260808201528260a08201528360c08201526001600160a01b0360045416803b1561125d5760408051632b54892b60e01b815283516001600160a01b0390811660048301526020850151602483015291840151821660448201526060840151821660648201526080840151608482015260a084015190911660a482015260c09092015160c48301528690829060e490829084905af190811561129d578691611ec7575b50506001600160a01b0360055416908051906001600160a01b036020820151169560246001600160a01b036060840151169560408401519360c060a08201519101519160206001600160a01b0360065416604051958680926302ef145760e51b82528960048301525afa938415610a6d578c94611ea6575b50873b15610a38578b998a966040519c8d9b8c9a8b997fd972fb48000000000000000000000000000000000000000000000000000000008b5260048b01523360248b015260448a0161018090526101848a01611e5e91613116565b9160648a015260848901526003198882030160a4890152611e7e91613153565b9160c487015260e48601524261010486015260031985820301610124860152610a1391613187565b611ec091945060203d602011610a6657610a578183612d11565b9238611e03565b81611ed191612d11565b610c33578438611d8b565b6001600160a01b0360065416803b1561125d578680916024604051809481936305543f8560e01b83528b60048401525af1908115611228578791611f22575b5050611cac565b81611f2c91612d11565b610c2f578538611f1b565b81611f4191612d11565b61125d578638611ca5565b6040513d8a823e3d90fd5b60248b634e487b7160e01b81526021600452fd5b909450611f8891935060403d604011610b1357610b038183612d11565b9290929338611bc9565b81611f9c91612d11565b610c33578438611b10565b81611fb191612d11565b610c33578438611a51565b9095506020813d602011611ff0575b81611fd860209383612d11565b81010312610c3357611fe990612f6a565b94386119ef565b3d9150611fcb565b6040513d87823e3d90fd5b9050612027915060403d60401161202d575b61201f8183612d11565b8101906130b8565b386119aa565b503d612015565b90506020813d60201161205e575b8161204f60209383612d11565b81010312610bfe575138611967565b3d9150612042565b8161207091612d11565b610168578038611814565b85518352602095860195889550879450909201916001016117e0565b816120a191612d11565b610168578038611779565b85516001600160a01b0316835260209586019588955087945090920191600101611745565b816120db91612d11565b6101685780386116e1565b8280fd5b81358152602091820191016115b8565b6020809161210784612d49565b81520191019061153e565b602483634e487b7160e01b81526041600452fd5b5034610168576020366003190112610168576004356001600160a01b03811680910361022557612154613cde565b6001600160a01b0319600654161760065580f35b506101203660031901126101685761217f36612dae565b906001600160a01b0360065416918051906040519163255709e560e11b835260048301528282602481875afa9182156112d05783926127cb575b508051604080516316c9372360e11b8152600481019290925233602483015290948590604490829087905af19182156112d057839484936127a4575b506001600160a01b0360035416946040820160206001600160a01b038251166024604051809a81936304d0a64760e01b835260048301525afa96871561129d578697612768575b5073__$9a64d4390e1f317cfd7b279e493df8b9ee$__96873b1561125d57866001600160a01b039160246040518094819363bf6341cf60e01b8352169b8c60048301525af4801561122857908791612753575b505060a06001600160a01b038251169301926001600160a01b03845116604051916122b983612c51565b825233602083015260408201528560608201526001600160a01b036004541690813b156111b45761233d6084899283604051958694859363577ed67f60e11b85526004850190606080916001600160a01b0381511684526001600160a01b0360208201511660208501526001600160a01b0360408201511660408501520151910152565b5af180156112285790879161273e575b50506001600160a01b03815116966001600160a01b03845116604051986123738a612c51565b89523360208a0152604089015285606089015260406123ee60846001600160a01b03600454169a83519b8c938492630716fa0360e31b84526004840190606080916001600160a01b0381511684526001600160a01b0360208201511660208501526001600160a01b0360408201511660408501520151910152565b5afa9283156112285787988894612717575b506001600160a01b03602087015116916040870151996060880151608089015160038110156111ed579b61247891610f368d9e60a08d0151926040519461244686612c83565b6001600160a01b0388169a8b875260208701528c6040870152886060870152608086015260a085015260c084016130cf565b8751823b15610ab1576040516326b3293f60e01b81526001600160a01b039290921660048301526024820187905260448201529089908290606490829034905af19081156111b8578991612702575b50506126a4575b6001600160a01b0382511685516001600160a01b0386511690604051926124f484612ca0565b8352602083015233604083015260608201528660808201528160a08201528360c08201526001600160a01b0360045416803b15610c2b5760408051632b54892b60e01b815283516001600160a01b0390811660048301526020850151602483015291840151821660448201526060840151821660648201526080840151608482015260a084015190911660a482015260c09092015160c48301528890829060e490829084905af1908115611f4c57889161268f575b50506024946001600160a01b0380806005541692519451169551169660206001600160a01b0360065416604051988980926302ef145760e51b82528860048301525afa9687156111b857899761266e575b50813b15610c2b578896610124958894611171936040519b8c9a8b997fd3eca8ee000000000000000000000000000000000000000000000000000000008b5260048b01523360248b015260448a01526064890152608488015260a487015260c48601524260e4860152610104850190613109565b61268891975060203d602011610a6657610a578183612d11565b95386125fa565b8161269991612d11565b61125d5786386125a9565b6001600160a01b03600654168551813b15610c2b5788916024839260405194859384926305543f8560e01b845260048401525af1908115611f4c5788916126ed575b50506124ce565b816126f791612d11565b61125d5786386126e6565b8161270c91612d11565b6111b45787386124c7565b90935061273491985060403d604011610b1357610b038183612d11565b9790979238612400565b8161274891612d11565b610c2f57853861234d565b8161275d91612d11565b610c2f57853861228f565b9096506020813d60201161279c575b8161278460209383612d11565b81010312610c2f5761279590612f6a565b953861223c565b3d9150612777565b9092506127c191945060403d60401161202d5761201f8183612d11565b93909391386121f5565b9391503d8084863e6127dd8186612d11565b8401936020818603126114065780519067ffffffffffffffff8211610c33570193610140858203126114065760405190610140820182811067ffffffffffffffff821117612a085760405261283186612f6a565b8252602086015167ffffffffffffffff8111610c2f57860181601f82011215610c2f5780519061286082612e1b565b9161286e6040519384612d11565b80835260208084019160051b83010191848311610c2b57602001905b8282106129f05750505060208301526128a560408701612f6a565b6040830152606086015167ffffffffffffffff8111610c2f57816128ca918801612f9b565b6060830152608086015167ffffffffffffffff8111610c2f5786019581601f88011215610c2f578651966128fd88612e1b565b9061290b6040519283612d11565b88825260208083019960051b82010190848211610c2b57602001985b818a106129d8575050869750608084015261294460a08201612f6a565b60a084015260c081015167ffffffffffffffff811161125d5782612969918301612f9b565b60c084015260e081015167ffffffffffffffff811161125d578261298e918301613028565b60e084015261010081015167ffffffffffffffff811161125d57610120926129b791830161306d565b61010084015201516004811015610c335761012082015291935060406121b9565b602080916129e58c612ff8565b815201990198612927565b602080916129fd84612f6a565b81520191019061288a565b602486634e487b7160e01b81526041600452fd5b503461016857602036600319011261016857604051906020820182811067ffffffffffffffff821117612b1c576040526004358083526001600160a01b036007541690813b156120e65782916044839260405194859384927f3ed5027500000000000000000000000000000000000000000000000000000000845233600485015260248401525af180156101d457612b0c575b5080916001600160a01b03600554169051813b156101df5782916024839260405194859384927fb60269d000000000000000000000000000000000000000000000000000000000845260048401525af180156101d4576101c35750f35b81612b1691612d11565b38612aaf565b602482634e487b7160e01b81526041600452fd5b823461016857608036600319011261016857612b4b82612c51565b612b53612d33565b82526024356001600160a01b03811681036102255760208301526044356001600160a01b038116810361022557604083015260643560608301526040612bf560846001600160a01b03600454169483519586938492630716fa0360e31b84526004840190606080916001600160a01b0381511684526001600160a01b0360208201511660208501526001600160a01b0360408201511660408501520151910152565b5afa918215612c44578192612c22575b50604080516001600160a01b039290921682526020820192909252f35b9050612c3d915060403d604011610b1357610b038183612d11565b9082612c05565b50604051903d90823e3d90fd5b6080810190811067ffffffffffffffff821117612c6d57604052565b634e487b7160e01b600052604160045260246000fd5b610100810190811067ffffffffffffffff821117612c6d57604052565b60e0810190811067ffffffffffffffff821117612c6d57604052565b610120810190811067ffffffffffffffff821117612c6d57604052565b60c0810190811067ffffffffffffffff821117612c6d57604052565b6040810190811067ffffffffffffffff821117612c6d57604052565b90601f8019910116810190811067ffffffffffffffff821117612c6d57604052565b600435906001600160a01b0382168203610bfe57565b35906001600160a01b0382168203610bfe57565b359060ff82168203610bfe57565b9190826080910312610bfe57604051612d8381612c51565b606080829480358452612d9860208201612d5d565b6020850152604081013560408501520135910152565b90610120600319830112610bfe57604051612dc881612cd9565b809260043582526024356001600160a01b0381168103610bfe576020830152604435604083015260643560608301526084356003811015610bfe5760a091612e1691608085015260a4612d6b565b910152565b67ffffffffffffffff8111612c6d5760051b60200190565b67ffffffffffffffff8111612c6d57601f01601f191660200190565b81601f82011215610bfe57803590612e6682612e33565b92612e746040519485612d11565b82845260208383010111610bfe57816000926020809301838601378301015290565b9190604083820312610bfe5760405190612eaf82612cf5565b8193612eba81612d5d565b835260208101359167ffffffffffffffff8311610bfe57602092612e169201612e4f565b6020600319820112610bfe5760043567ffffffffffffffff8111610bfe5760608183036003190112610bfe57604051916060830183811067ffffffffffffffff821117612c6d57604052612f3482600401612d49565b83526024820135602084015260448201359167ffffffffffffffff8311610bfe57612f629201600401612e4f565b604082015290565b51906001600160a01b0382168203610bfe57565b9190826040910312610bfe576020612f9583612f6a565b92015190565b9080601f83011215610bfe578151612fb281612e1b565b92612fc06040519485612d11565b81845260208085019260051b820101928311610bfe57602001905b828210612fe85750505090565b8151815260209182019101612fdb565b51908115158203610bfe57565b60005b8381106130185750506000910152565b8181015183820152602001613008565b81601f82011215610bfe57805161303e81612e33565b9261304c6040519485612d11565b81845260208284010111610bfe5761306a9160208085019101613005565b90565b9190604083820312610bfe576040519061308682612cf5565b8193805160ff81168103610bfe57835260208101519167ffffffffffffffff8311610bfe57602092612e169201613028565b9190826040910312610bfe576020612f9583612ff8565b60038210156130db5752565b634e487b7160e01b600052602160045260246000fd5b90816020910312610bfe57516004811015610bfe5790565b9060048210156130db5752565b906020808351928381520192019060005b8181106131345750505090565b82516001600160a01b0316845260209384019390920191600101613127565b906020808351928381520192019060005b8181106131715750505090565b8251845260209384019390920191600101613164565b906020916131a081518092818552858086019101613005565b601f01601f1916010190565b906040602061306a9360ff81511684520151918160208201520190613187565b9060038210156130db5752565b6080604061306a93602084526001600160a01b0381511660208501526020810151828501520151916060808201520190613187565b90816060910312610bfe578051916040612f9560208401612f6a565b156132325750565b613270906040519182917f08c379a0000000000000000000000000000000000000000000000000000000008352602060048401526024830190613187565b0390fd5b6132f69092919260a0806101208301956001600160a01b0381511684526001600160a01b036020820151166020850152604081015160408501526001600160a01b036060820151166060850152608081015160808501520151910190606080918051845260ff6020820151166020850152604081015160408501520151910152565b565b906000916001600160a01b038151168015600014613c5557503331905b6040810191825180821015613b6e575080613a9c575b8251908103908111613a885760c0820180516003811015613a74576001036136d157508460208301916001600160a01b03835116926001600160a01b038551166080860151906040519561337e87612c51565b8652602080870191825260408088018681526060890194855260025491517fdd016b7900000000000000000000000000000000000000000000000000000000815298516001600160a01b0390811660048b01529351841660248a01525160448901529251606488015291869160849183918891165af19384156112d057839461369a575b506001600160a01b03815116916001600160a01b038651166040519361342785612c51565b8452602084015284604084015260608301526001600160a01b0381511680156000146134fa5750506001600160a01b036002541692833b156120e6576134b6916084916040519586948593630f5a9fad60e21b85526004850190606080916001600160a01b0381511684526001600160a01b036020820151166020850152604081015160408501520151910152565b5af18015611ff8576134e5575b506132f69293505b6001600160a01b0360608183511693519201511691613d20565b6134f0858092612d11565b61140657836134c3565b6040516323b872dd60e01b81523360048201523060248201526044810186905292949350909190602090829060649082908c905af18015611f4c5761364f575b505160025460405163095ea7b360e01b81526001600160a01b0391821660048201526024810193909352602091839116818981604481015b03925af1801561129d57613618575b50846001600160a01b036002541691823b156102255760846135ea91836040519586948593630f5a9fad60e21b85526004850190606080916001600160a01b0381511684526001600160a01b036020820151166020850152604081015160408501520151910152565b5af18015611ff857613603575b506132f69293506134cb565b61360e858092612d11565b61140657836135f7565b6020813d602011613647575b8161363160209383612d11565b81010312610c2f5761364290612ff8565b613581565b3d9150613624565b916020833d602011613692575b8161366960209383612d11565b810103126111b4576001600160a01b0360209261368861357295612ff8565b509250509161353a565b3d915061365c565b925092506020823d6020116136c9575b816136b760209383612d11565b81010312610bfe578691519238613402565b3d91506136aa565b516003811015613a60576002146136ee57506132f69293506134cb565b6001600160a01b0382511690602083016001600160a01b0381511660a0850151906040519160a0830183811067ffffffffffffffff821117613a4c57926001600160a01b039260a4926020956040523383528583019889528460408401928984526060850190815260808501928352816001541693826040519c8d998a987ff293357b000000000000000000000000000000000000000000000000000000008a525116600489015251166024870152516044860152511660648401525160848301525afa928315611228578793613a18575b506001600160a01b03815116916001600160a01b038551169060e086015191604051946137ec86612cd9565b33865260208601528560408601526060850152608084015260a08301526001600160a01b0381511690811580613a0f575b1561388c57505085906001600160a01b0360015416803b156120e65761385991604051948580948193637b4efcfd60e01b835260048301613274565b03925af18015611ff857613877575b506132f69293505b83926135f7565b613882858092612d11565b6114065783613868565b839197936138a4575b505050506132f6929350613870565b6040516323b872dd60e01b81523360048201523060248201526044810183905293978894906020908290606490829089905af18015611ff8576139c4575b505160015460405163095ea7b360e01b81526001600160a01b0391821660048201526024810193909352602091839116818681604481015b03925af180156112d05761398d575b506001600160a01b036001541690813b156120e657829161396091604051988980948193637b4efcfd60e01b835260048301613274565b03925af1948515612c44576132f6949561397d575b859481613895565b8161398791612d11565b38613975565b6020813d6020116139bc575b816139a660209383612d11565b810103126120e6576139b790612ff8565b613929565b3d9150613999565b916020833d602011613a07575b816139de60209383612d11565b81010312610c33576001600160a01b036020926139fd61391a95612ff8565b50925050916138e2565b3d91506139d1565b5083151561381d565b9092506020813d602011613a44575b81613a3460209383612d11565b8101031261125d575191386137c0565b3d9150613a27565b60248b634e487b7160e01b81526041600452fd5b602486634e487b7160e01b81526021600452fd5b602487634e487b7160e01b81526021600452fd5b602485634e487b7160e01b81526011600452fd5b81516001600160a01b031680613af55750613af0604051613abe604082612d11565b600181527f3500000000000000000000000000000000000000000000000000000000000000602082015282341461322a565b61332b565b6040516323b872dd60e01b81523360048201523060248201526044810183905290602090829060649082908a905af1801561129d57613b35575b5061332b565b6020813d602011613b66575b81613b4e60209383612d11565b81010312610c2f57613b5f90612ff8565b5038613b2f565b3d9150613b41565b82516001600160a01b0316915081613bcf5750506134cb6132f693948351341015905060405190613ba0604083612d11565b600382527f3130300000000000000000000000000000000000000000000000000000000000602083015261322a565b6040516323b872dd60e01b8152336004820152306024820152604481019190915294906020908690606490829085905af18015612c4457613c1657506132f69293506134cb565b6020853d602011613c4d575b81613c2f60209383612d11565b810103126101685750613c456132f69394612ff8565b5083926135f7565b3d9150613c22565b6020602491604051928380927f70a082310000000000000000000000000000000000000000000000000000000082523360048301525afa908115613cd3578491613ca1575b5090613315565b90506020813d602011613ccb575b81613cbc60209383612d11565b81010312611406575138613c9a565b3d9150613caf565b6040513d86823e3d90fd5b6001600160a01b03600054163303613cf257565b7f118cdaa7000000000000000000000000000000000000000000000000000000006000523360045260246000fd5b6001600160a01b0316919082613d3557505050565b60405163095ea7b360e01b81526001600160a01b03929092166004830152602482015290602090829060449082906000905af18015613daa57613d755750565b6020813d602011613da2575b81613d8e60209383612d11565b81010312610bfe57613d9f90612ff8565b50565b3d9150613d81565b6040513d6000823e3d90fdfea264697066735822122009cdc361bc0a705751f1a84a7cb42d2d30de8487fba0e8cd5bd75229a391145d64736f6c634300081c0033",
          "opcodes": "PUSH1 0x80 CALLVALUE PUSH2 0x1C1 JUMPI PUSH1 0x1F PUSH2 0x3FC9 CODESIZE DUP2 SWAP1 SUB SWAP2 DUP3 ADD PUSH1 0x1F NOT AND DUP4 ADD SWAP2 PUSH1 0x1 PUSH1 0x1 PUSH1 0x40 SHL SUB DUP4 GT DUP5 DUP5 LT OR PUSH2 0x1C6 JUMPI DUP1 DUP5 SWAP3 PUSH1 0xE0 SWAP5 PUSH1 0x40 MSTORE DUP4 CODECOPY DUP2 ADD SUB SLT PUSH2 0x1C1 JUMPI DUP1 MLOAD PUSH1 0x1 PUSH1 0x1 PUSH1 0xA0 SHL SUB DUP2 AND SWAP1 DUP2 SWAP1 SUB PUSH2 0x1C1 JUMPI PUSH1 0x20 DUP3 ADD MLOAD PUSH1 0x1 PUSH1 0x1 PUSH1 0xA0 SHL SUB DUP2 AND SWAP2 SWAP1 DUP3 SWAP1 SUB PUSH2 0x1C1 JUMPI PUSH1 0x40 DUP4 ADD MLOAD PUSH1 0x1 PUSH1 0x1 PUSH1 0xA0 SHL SUB DUP2 AND SWAP2 SWAP1 DUP3 SWAP1 SUB PUSH2 0x1C1 JUMPI PUSH1 0x60 DUP5 ADD MLOAD PUSH1 0x1 PUSH1 0x1 PUSH1 0xA0 SHL SUB DUP2 AND SWAP4 SWAP1 DUP5 SWAP1 SUB PUSH2 0x1C1 JUMPI PUSH1 0x80 DUP6 ADD MLOAD PUSH1 0x1 PUSH1 0x1 PUSH1 0xA0 SHL SUB DUP2 AND SWAP2 SWAP1 DUP3 SWAP1 SUB PUSH2 0x1C1 JUMPI PUSH1 0xA0 DUP7 ADD MLOAD PUSH1 0x1 PUSH1 0x1 PUSH1 0xA0 SHL SUB DUP2 AND SWAP7 SWAP1 DUP8 SWAP1 SUB PUSH2 0x1C1 JUMPI PUSH1 0xC0 ADD MLOAD PUSH1 0x1 PUSH1 0x1 PUSH1 0xA0 SHL SUB DUP2 AND SWAP1 DUP2 SWAP1 SUB PUSH2 0x1C1 JUMPI CALLER ISZERO PUSH2 0x1AB JUMPI PUSH1 0x0 DUP1 SLOAD CALLER PUSH1 0x1 PUSH1 0x1 PUSH1 0xA0 SHL SUB NOT DUP3 AND DUP2 OR DUP4 SSTORE PUSH1 0x40 MLOAD SWAP10 SWAP3 SWAP1 SWAP2 PUSH1 0x1 PUSH1 0x1 PUSH1 0xA0 SHL SUB AND SWAP1 PUSH32 0x8BE0079C531659141344CD1FD0A4F28419497F9722A3DAAFE3B4186F6B6457E0 SWAP1 DUP1 LOG3 PUSH1 0x1 DUP1 PUSH1 0xA0 SHL SUB NOT PUSH1 0x1 SLOAD AND OR PUSH1 0x1 SSTORE PUSH1 0x1 DUP1 PUSH1 0xA0 SHL SUB NOT PUSH1 0x2 SLOAD AND OR PUSH1 0x2 SSTORE PUSH1 0x1 DUP1 PUSH1 0xA0 SHL SUB NOT PUSH1 0x3 SLOAD AND OR PUSH1 0x3 SSTORE PUSH1 0x1 DUP1 PUSH1 0xA0 SHL SUB NOT PUSH1 0x4 SLOAD AND OR PUSH1 0x4 SSTORE PUSH1 0x1 DUP1 PUSH1 0xA0 SHL SUB NOT PUSH1 0x5 SLOAD AND OR PUSH1 0x5 SSTORE PUSH1 0x1 DUP1 PUSH1 0xA0 SHL SUB NOT PUSH1 0x6 SLOAD AND OR PUSH1 0x6 SSTORE PUSH1 0x1 DUP1 PUSH1 0xA0 SHL SUB NOT PUSH1 0x7 SLOAD AND OR PUSH1 0x7 SSTORE PUSH2 0x3DEC SWAP1 DUP2 PUSH2 0x1DD DUP3 CODECOPY RETURN JUMPDEST PUSH4 0x1E4FBDF7 PUSH1 0xE0 SHL PUSH1 0x0 MSTORE PUSH1 0x0 PUSH1 0x4 MSTORE PUSH1 0x24 PUSH1 0x0 REVERT JUMPDEST PUSH1 0x0 DUP1 REVERT JUMPDEST PUSH4 0x4E487B71 PUSH1 0xE0 SHL PUSH1 0x0 MSTORE PUSH1 0x41 PUSH1 0x4 MSTORE PUSH1 0x24 PUSH1 0x0 REVERT INVALID PUSH1 0x80 DUP1 PUSH1 0x40 MSTORE PUSH1 0x4 CALLDATASIZE LT ISZERO PUSH2 0x1D JUMPI JUMPDEST POP CALLDATASIZE ISZERO PUSH2 0x1B JUMPI PUSH1 0x0 DUP1 REVERT JUMPDEST STOP JUMPDEST PUSH1 0x0 SWAP1 DUP2 CALLDATALOAD PUSH1 0xE0 SHR SWAP1 DUP2 PUSH4 0xBD0C23E EQ PUSH2 0x2B30 JUMPI POP DUP1 PUSH4 0x1FD9B2BF EQ PUSH2 0x2A1C JUMPI DUP1 PUSH4 0x228B79D3 EQ PUSH2 0x2168 JUMPI DUP1 PUSH4 0x2AD6C02F EQ PUSH2 0x2126 JUMPI DUP1 PUSH4 0x3DA03A14 EQ PUSH2 0x1493 JUMPI DUP1 PUSH4 0x535C1F7F EQ PUSH2 0x1451 JUMPI DUP1 PUSH4 0x5E1D56A9 EQ PUSH2 0x140A JUMPI DUP1 PUSH4 0x632C847D EQ PUSH2 0xC37 JUMPI DUP1 PUSH4 0x69EB7F26 EQ PUSH2 0x2EA JUMPI DUP1 PUSH4 0x715018A6 EQ PUSH2 0x291 JUMPI DUP1 PUSH4 0x8DA5CB5B EQ PUSH2 0x26B JUMPI DUP1 PUSH4 0x8EFECDDA EQ PUSH2 0x229 JUMPI DUP1 PUSH4 0xD6B5891E EQ PUSH2 0x1E3 JUMPI DUP1 PUSH4 0xE2F999A5 EQ PUSH2 0x16B JUMPI PUSH4 0xF2FDE38B SUB PUSH2 0xF JUMPI CALLVALUE PUSH2 0x168 JUMPI PUSH1 0x20 CALLDATASIZE PUSH1 0x3 NOT ADD SLT PUSH2 0x168 JUMPI PUSH1 0x1 PUSH1 0x1 PUSH1 0xA0 SHL SUB PUSH2 0xEC PUSH2 0x2D33 JUMP JUMPDEST PUSH2 0xF4 PUSH2 0x3CDE JUMP JUMPDEST AND DUP1 ISZERO PUSH2 0x13C JUMPI PUSH1 0x1 PUSH1 0x1 PUSH1 0xA0 SHL SUB DUP3 SLOAD DUP3 PUSH1 0x1 PUSH1 0x1 PUSH1 0xA0 SHL SUB NOT DUP3 AND OR DUP5 SSTORE AND PUSH32 0x8BE0079C531659141344CD1FD0A4F28419497F9722A3DAAFE3B4186F6B6457E0 DUP4 DUP1 LOG3 DUP1 RETURN JUMPDEST PUSH1 0x24 DUP3 PUSH32 0x1E4FBDF700000000000000000000000000000000000000000000000000000000 DUP2 MSTORE DUP1 PUSH1 0x4 MSTORE REVERT JUMPDEST DUP1 REVERT JUMPDEST POP CALLVALUE PUSH2 0x168 JUMPI DUP1 PUSH2 0x17B CALLDATASIZE PUSH2 0x2EDE JUMP JUMPDEST PUSH1 0x1 PUSH1 0x1 PUSH1 0xA0 SHL SUB PUSH1 0x7 SLOAD AND DUP1 EXTCODESIZE ISZERO PUSH2 0x1DF JUMPI PUSH2 0x1B2 DUP4 SWAP3 SWAP2 DUP4 SWAP3 PUSH1 0x40 MLOAD SWAP5 DUP6 DUP1 SWAP5 DUP2 SWAP4 PUSH4 0x1D6E1F85 PUSH1 0xE3 SHL DUP4 MSTORE PUSH1 0x4 DUP4 ADD PUSH2 0x31D9 JUMP JUMPDEST SUB SWAP3 GAS CALL DUP1 ISZERO PUSH2 0x1D4 JUMPI PUSH2 0x1C3 JUMPI POP RETURN JUMPDEST DUP2 PUSH2 0x1CD SWAP2 PUSH2 0x2D11 JUMP JUMPDEST PUSH2 0x168 JUMPI DUP1 RETURN JUMPDEST PUSH1 0x40 MLOAD RETURNDATASIZE DUP5 DUP3 RETURNDATACOPY RETURNDATASIZE SWAP1 REVERT JUMPDEST POP POP REVERT JUMPDEST POP CALLVALUE PUSH2 0x168 JUMPI PUSH1 0x20 CALLDATASIZE PUSH1 0x3 NOT ADD SLT PUSH2 0x168 JUMPI PUSH1 0x4 CALLDATALOAD PUSH1 0x1 PUSH1 0x1 PUSH1 0xA0 SHL SUB DUP2 AND DUP1 SWAP2 SUB PUSH2 0x225 JUMPI PUSH2 0x211 PUSH2 0x3CDE JUMP JUMPDEST PUSH1 0x1 PUSH1 0x1 PUSH1 0xA0 SHL SUB NOT PUSH1 0x1 SLOAD AND OR PUSH1 0x1 SSTORE DUP1 RETURN JUMPDEST POP DUP1 REVERT JUMPDEST POP CALLVALUE PUSH2 0x168 JUMPI PUSH1 0x20 CALLDATASIZE PUSH1 0x3 NOT ADD SLT PUSH2 0x168 JUMPI PUSH1 0x4 CALLDATALOAD PUSH1 0x1 PUSH1 0x1 PUSH1 0xA0 SHL SUB DUP2 AND DUP1 SWAP2 SUB PUSH2 0x225 JUMPI PUSH2 0x257 PUSH2 0x3CDE JUMP JUMPDEST PUSH1 0x1 PUSH1 0x1 PUSH1 0xA0 SHL SUB NOT PUSH1 0x2 SLOAD AND OR PUSH1 0x2 SSTORE DUP1 RETURN JUMPDEST POP CALLVALUE PUSH2 0x168 JUMPI DUP1 PUSH1 0x3 NOT CALLDATASIZE ADD SLT PUSH2 0x168 JUMPI PUSH1 0x1 PUSH1 0x1 PUSH1 0xA0 SHL SUB PUSH1 0x20 SWAP2 SLOAD AND PUSH1 0x40 MLOAD SWAP1 DUP2 MSTORE RETURN JUMPDEST POP CALLVALUE PUSH2 0x168 JUMPI DUP1 PUSH1 0x3 NOT CALLDATASIZE ADD SLT PUSH2 0x168 JUMPI PUSH2 0x2AA PUSH2 0x3CDE JUMP JUMPDEST DUP1 PUSH1 0x1 PUSH1 0x1 PUSH1 0xA0 SHL SUB DUP2 SLOAD PUSH1 0x1 PUSH1 0x1 PUSH1 0xA0 SHL SUB NOT DUP2 AND DUP4 SSTORE AND PUSH32 0x8BE0079C531659141344CD1FD0A4F28419497F9722A3DAAFE3B4186F6B6457E0 DUP3 DUP1 LOG3 DUP1 RETURN JUMPDEST POP PUSH1 0x20 CALLDATASIZE PUSH1 0x3 NOT ADD SLT PUSH2 0x168 JUMPI PUSH1 0x4 CALLDATALOAD SWAP1 PUSH8 0xFFFFFFFFFFFFFFFF DUP3 GT PUSH2 0x168 JUMPI PUSH2 0x180 PUSH1 0x3 NOT DUP4 CALLDATASIZE SUB ADD SLT PUSH2 0x168 JUMPI PUSH1 0x40 MLOAD SWAP2 PUSH2 0x326 DUP4 PUSH2 0x2CBC JUMP JUMPDEST PUSH2 0x332 DUP2 PUSH1 0x4 ADD PUSH2 0x2D49 JUMP JUMPDEST DUP4 MSTORE PUSH2 0x340 PUSH1 0x24 DUP3 ADD PUSH2 0x2D49 JUMP JUMPDEST SWAP1 PUSH1 0x20 DUP5 ADD SWAP2 DUP3 MSTORE PUSH1 0x40 DUP5 ADD PUSH1 0x44 DUP3 ADD CALLDATALOAD DUP2 MSTORE PUSH1 0x64 DUP3 ADD CALLDATALOAD PUSH8 0xFFFFFFFFFFFFFFFF DUP2 GT PUSH2 0xC33 JUMPI PUSH2 0x377 SWAP1 PUSH1 0x4 CALLDATASIZE SWAP2 DUP6 ADD ADD PUSH2 0x2E4F JUMP JUMPDEST SWAP5 PUSH1 0x60 DUP2 ADD SWAP6 DUP7 MSTORE PUSH1 0x84 DUP4 ADD CALLDATALOAD PUSH8 0xFFFFFFFFFFFFFFFF DUP2 GT PUSH2 0xC2F JUMPI PUSH2 0x3A3 SWAP1 PUSH1 0x4 CALLDATASIZE SWAP2 DUP7 ADD ADD PUSH2 0x2E96 JUMP JUMPDEST SWAP6 PUSH1 0x80 DUP3 ADD SWAP7 DUP8 MSTORE PUSH1 0xA0 DUP3 ADD SWAP4 PUSH1 0xA4 DUP2 ADD CALLDATALOAD DUP6 MSTORE PUSH1 0xC0 DUP4 ADD SWAP4 PUSH1 0xC4 DUP3 ADD CALLDATALOAD DUP6 MSTORE PUSH1 0xE4 DUP3 ADD CALLDATALOAD SWAP2 PUSH1 0x3 DUP4 LT ISZERO PUSH2 0xC2B JUMPI PUSH2 0x3E8 SWAP1 PUSH1 0xE0 DUP7 ADD SWAP4 DUP5 MSTORE PUSH2 0x104 CALLDATASIZE SWAP2 ADD PUSH2 0x2D6B JUMP JUMPDEST SWAP9 PUSH2 0x100 DUP6 ADD SWAP10 DUP11 MSTORE PUSH20 0x0 SWAP8 PUSH1 0x1 PUSH1 0x1 PUSH1 0xA0 SHL SUB DUP7 MLOAD AND DUP10 EXTCODESIZE ISZERO PUSH2 0xAB1 JUMPI PUSH1 0x40 MLOAD SWAP1 PUSH4 0xBF6341CF PUSH1 0xE0 SHL DUP3 MSTORE PUSH1 0x4 DUP3 ADD MSTORE DUP11 DUP2 PUSH1 0x24 DUP2 DUP14 GAS DELEGATECALL DUP1 ISZERO PUSH2 0xA91 JUMPI SWAP1 DUP12 SWAP2 PUSH2 0xC16 JUMPI JUMPDEST POP POP PUSH1 0x7 SLOAD PUSH1 0x1 PUSH1 0x1 PUSH1 0xA0 SHL SUB AND PUSH1 0x40 MLOAD SWAP4 PUSH32 0xECCAD17500000000000000000000000000000000000000000000000000000000 DUP6 MSTORE CALLER PUSH1 0x4 DUP7 ADD MSTORE PUSH1 0x24 DUP6 ADD PUSH1 0x40 SWAP1 MSTORE DUP8 MLOAD PUSH1 0x1 PUSH1 0x1 PUSH1 0xA0 SHL SUB AND PUSH1 0x44 DUP7 ADD MSTORE DUP3 MLOAD PUSH1 0x1 PUSH1 0x1 PUSH1 0xA0 SHL SUB AND PUSH1 0x64 DUP7 ADD MSTORE MLOAD PUSH1 0x84 DUP6 ADD MSTORE DUP4 DUP1 DUP14 DUP9 MLOAD PUSH1 0xA4 DUP4 ADD PUSH2 0x180 SWAP1 MSTORE PUSH2 0x1C4 DUP4 ADD PUSH2 0x4C7 SWAP2 PUSH2 0x3187 JUMP JUMPDEST DUP7 MLOAD DUP4 DUP3 SUB PUSH1 0x43 NOT ADD PUSH1 0xC4 DUP6 ADD MSTORE PUSH2 0x4DF SWAP2 SWAP1 PUSH2 0x31AC JUMP JUMPDEST SWAP1 DUP13 MLOAD PUSH1 0xE4 DUP5 ADD MSTORE DUP12 MLOAD PUSH2 0x104 DUP5 ADD MSTORE DUP9 MLOAD PUSH2 0x124 DUP5 ADD PUSH2 0x4FF SWAP2 PUSH2 0x31CC JUMP JUMPDEST MLOAD DUP1 MLOAD PUSH2 0x144 DUP5 ADD MSTORE PUSH1 0x20 DUP2 ADD MLOAD PUSH1 0xFF AND PUSH2 0x164 DUP5 ADD MSTORE PUSH1 0x40 DUP2 ADD MLOAD PUSH2 0x184 DUP5 ADD MSTORE PUSH1 0x60 ADD MLOAD PUSH2 0x1A4 DUP4 ADD MSTORE SUB DUP2 DUP14 GAS SWAP5 PUSH1 0x20 SWAP6 CALL SWAP3 DUP4 ISZERO PUSH2 0xC0B JUMPI DUP11 SWAP4 PUSH2 0xBD2 JUMPI JUMPDEST POP PUSH1 0x7 SLOAD PUSH1 0x40 MLOAD PUSH4 0x16C93723 PUSH1 0xE1 SHL DUP2 MSTORE PUSH1 0x4 DUP2 ADD DUP6 SWAP1 MSTORE CALLER PUSH1 0x24 DUP3 ADD MSTORE SWAP10 SWAP1 PUSH1 0x60 SWAP1 DUP12 SWAP1 PUSH1 0x44 SWAP1 DUP3 SWAP1 DUP16 SWAP1 PUSH1 0x1 PUSH1 0x1 PUSH1 0xA0 SHL SUB AND GAS CALL SWAP8 DUP9 ISZERO PUSH2 0xA91 JUMPI DUP12 SWAP6 DUP13 SWAP12 DUP14 SWAP11 PUSH2 0xB97 JUMPI JUMPDEST POP PUSH1 0x1 PUSH1 0x1 PUSH1 0xA0 SHL SUB PUSH1 0x3 SLOAD AND PUSH1 0x20 PUSH1 0x1 PUSH1 0x1 PUSH1 0xA0 SHL SUB DUP12 MLOAD AND PUSH1 0x24 PUSH1 0x40 MLOAD DUP1 SWAP5 DUP2 SWAP4 PUSH4 0x4D0A647 PUSH1 0xE0 SHL DUP4 MSTORE PUSH1 0x4 DUP4 ADD MSTORE GAS STATICCALL SWAP1 DUP2 ISZERO PUSH2 0xB1A JUMPI DUP15 SWAP2 PUSH2 0xB5D JUMPI JUMPDEST POP DUP4 EXTCODESIZE ISZERO PUSH2 0xB59 JUMPI DUP14 PUSH1 0x1 PUSH1 0x1 PUSH1 0xA0 SHL SUB SWAP2 PUSH1 0x24 PUSH1 0x40 MLOAD DUP1 SWAP5 DUP2 SWAP4 PUSH4 0xBF6341CF PUSH1 0xE0 SHL DUP4 MSTORE AND SWAP8 DUP9 PUSH1 0x4 DUP4 ADD MSTORE GAS DELEGATECALL DUP1 ISZERO PUSH2 0xB1A JUMPI SWAP1 DUP15 SWAP2 PUSH2 0xB44 JUMPI JUMPDEST POP POP PUSH1 0x1 PUSH1 0x1 PUSH1 0xA0 SHL SUB DUP1 DUP11 MLOAD AND SWAP13 PUSH1 0x40 MLOAD SWAP14 DUP15 PUSH2 0x627 DUP2 PUSH2 0x2C51 JUMP JUMPDEST MSTORE DUP14 PUSH1 0x20 CALLER SWAP2 ADD MSTORE AND SWAP12 DUP13 PUSH1 0x40 DUP3 ADD MSTORE DUP8 PUSH1 0x60 DUP3 ADD MSTORE PUSH1 0x1 PUSH1 0x1 PUSH1 0xA0 SHL SUB PUSH1 0x4 SLOAD AND SWAP1 DUP2 EXTCODESIZE ISZERO PUSH2 0xB40 JUMPI PUSH2 0x6AF DUP16 SWAP2 PUSH1 0x84 SWAP1 DUP4 PUSH1 0x40 MLOAD SWAP6 DUP7 SWAP5 DUP6 SWAP4 PUSH4 0x577ED67F PUSH1 0xE1 SHL DUP6 MSTORE PUSH1 0x4 DUP6 ADD SWAP1 PUSH1 0x60 DUP1 SWAP2 PUSH1 0x1 PUSH1 0x1 PUSH1 0xA0 SHL SUB DUP2 MLOAD AND DUP5 MSTORE PUSH1 0x1 PUSH1 0x1 PUSH1 0xA0 SHL SUB PUSH1 0x20 DUP3 ADD MLOAD AND PUSH1 0x20 DUP6 ADD MSTORE PUSH1 0x1 PUSH1 0x1 PUSH1 0xA0 SHL SUB PUSH1 0x40 DUP3 ADD MLOAD AND PUSH1 0x40 DUP6 ADD MSTORE ADD MLOAD SWAP2 ADD MSTORE JUMP JUMPDEST GAS CALL DUP1 ISZERO PUSH2 0xB1A JUMPI SWAP1 DUP15 SWAP2 PUSH2 0xB27 JUMPI JUMPDEST POP POP PUSH1 0x1 PUSH1 0x1 PUSH1 0xA0 SHL SUB DUP10 MLOAD AND SWAP4 PUSH1 0x40 MLOAD SWAP5 PUSH2 0x6DA DUP7 PUSH2 0x2C51 JUMP JUMPDEST DUP6 MSTORE CALLER PUSH1 0x20 DUP7 ADD MSTORE DUP13 PUSH1 0x40 DUP7 ADD MSTORE DUP8 PUSH1 0x60 DUP7 ADD MSTORE PUSH1 0x40 PUSH2 0x756 PUSH1 0x84 PUSH1 0x1 PUSH1 0x1 PUSH1 0xA0 SHL SUB PUSH1 0x4 SLOAD AND SWAP8 DUP4 MLOAD SWAP9 DUP10 SWAP4 DUP5 SWAP3 PUSH4 0x716FA03 PUSH1 0xE3 SHL DUP5 MSTORE PUSH1 0x4 DUP5 ADD SWAP1 PUSH1 0x60 DUP1 SWAP2 PUSH1 0x1 PUSH1 0x1 PUSH1 0xA0 SHL SUB DUP2 MLOAD AND DUP5 MSTORE PUSH1 0x1 PUSH1 0x1 PUSH1 0xA0 SHL SUB PUSH1 0x20 DUP3 ADD MLOAD AND PUSH1 0x20 DUP6 ADD MSTORE PUSH1 0x1 PUSH1 0x1 PUSH1 0xA0 SHL SUB PUSH1 0x40 DUP3 ADD MLOAD AND PUSH1 0x40 DUP6 ADD MSTORE ADD MLOAD SWAP2 ADD MSTORE JUMP JUMPDEST GAS STATICCALL SWAP5 DUP6 ISZERO PUSH2 0xB1A JUMPI SWAP1 DUP15 SWAP5 SWAP4 SWAP3 SWAP2 DUP6 SWAP7 PUSH2 0xADE JUMPI JUMPDEST POP PUSH1 0x1 PUSH1 0x1 PUSH1 0xA0 SHL SUB SWAP1 MLOAD AND SWAP12 MLOAD SWAP2 MLOAD SWAP1 MLOAD PUSH1 0x3 DUP2 LT ISZERO PUSH2 0xACA JUMPI DUP15 SWAP16 MLOAD SWAP2 PUSH1 0x40 MLOAD SWAP4 PUSH2 0x798 DUP6 PUSH2 0x2C83 JUMP JUMPDEST PUSH1 0x1 PUSH1 0x1 PUSH1 0xA0 SHL SUB DUP8 AND SWAP15 DUP16 DUP7 MSTORE PUSH1 0x20 DUP7 ADD MSTORE DUP8 PUSH1 0x40 DUP7 ADD MSTORE DUP6 PUSH1 0x60 DUP7 ADD MSTORE PUSH1 0x80 DUP6 ADD MSTORE PUSH1 0xA0 DUP5 ADD MSTORE PUSH1 0xC0 DUP4 ADD SWAP1 PUSH2 0x7CF SWAP2 PUSH2 0x30CF JUMP JUMPDEST PUSH1 0xE0 DUP3 ADD MSTORE PUSH2 0x7DD SWAP1 PUSH2 0x32F8 JUMP JUMPDEST DUP1 EXTCODESIZE ISZERO PUSH2 0xA38 JUMPI PUSH1 0x40 MLOAD PUSH4 0x26B3293F PUSH1 0xE0 SHL DUP2 MSTORE PUSH1 0x1 PUSH1 0x1 PUSH1 0xA0 SHL SUB SWAP3 SWAP1 SWAP3 AND PUSH1 0x4 DUP4 ADD MSTORE PUSH1 0x24 DUP3 ADD DUP4 SWAP1 MSTORE PUSH1 0x44 DUP3 ADD DUP6 SWAP1 MSTORE DUP12 SWAP1 DUP3 SWAP1 PUSH1 0x64 SWAP1 DUP3 SWAP1 CALLVALUE SWAP1 GAS CALL SWAP1 DUP2 ISZERO PUSH2 0xA91 JUMPI DUP12 SWAP2 PUSH2 0xAB5 JUMPI JUMPDEST POP POP PUSH1 0x1 PUSH1 0x1 PUSH1 0xA0 SHL SUB PUSH1 0x7 SLOAD AND DUP1 EXTCODESIZE ISZERO PUSH2 0xAB1 JUMPI DUP11 DUP1 SWAP2 PUSH1 0x44 PUSH1 0x40 MLOAD DUP1 SWAP5 DUP2 SWAP4 PUSH4 0xB38FFD5F PUSH1 0xE0 SHL DUP4 MSTORE DUP10 PUSH1 0x4 DUP5 ADD MSTORE DUP11 PUSH1 0x24 DUP5 ADD MSTORE GAS CALL SWAP1 DUP2 ISZERO PUSH2 0xA91 JUMPI DUP12 SWAP2 PUSH2 0xA9C JUMPI JUMPDEST POP POP PUSH1 0x1 PUSH1 0x1 PUSH1 0xA0 SHL SUB DUP7 MLOAD AND PUSH1 0x40 MLOAD SWAP1 PUSH2 0x88C DUP3 PUSH2 0x2CA0 JUMP JUMPDEST DUP2 MSTORE DUP4 PUSH1 0x20 DUP3 ADD MSTORE CALLER PUSH1 0x40 DUP3 ADD MSTORE DUP10 PUSH1 0x60 DUP3 ADD MSTORE DUP5 PUSH1 0x80 DUP3 ADD MSTORE DUP9 PUSH1 0xA0 DUP3 ADD MSTORE DUP2 PUSH1 0xC0 DUP3 ADD MSTORE PUSH1 0x1 PUSH1 0x1 PUSH1 0xA0 SHL SUB PUSH1 0x4 SLOAD AND DUP1 EXTCODESIZE ISZERO PUSH2 0xA38 JUMPI PUSH1 0x40 DUP1 MLOAD PUSH4 0x2B54892B PUSH1 0xE0 SHL DUP2 MSTORE DUP4 MLOAD PUSH1 0x1 PUSH1 0x1 PUSH1 0xA0 SHL SUB SWAP1 DUP2 AND PUSH1 0x4 DUP4 ADD MSTORE PUSH1 0x20 DUP6 ADD MLOAD PUSH1 0x24 DUP4 ADD MSTORE SWAP2 DUP5 ADD MLOAD DUP3 AND PUSH1 0x44 DUP3 ADD MSTORE PUSH1 0x60 DUP5 ADD MLOAD DUP3 AND PUSH1 0x64 DUP3 ADD MSTORE PUSH1 0x80 DUP5 ADD MLOAD PUSH1 0x84 DUP3 ADD MSTORE PUSH1 0xA0 DUP5 ADD MLOAD SWAP1 SWAP2 AND PUSH1 0xA4 DUP3 ADD MSTORE PUSH1 0xC0 SWAP1 SWAP3 ADD MLOAD PUSH1 0xC4 DUP4 ADD MSTORE DUP12 SWAP1 DUP3 SWAP1 PUSH1 0xE4 SWAP1 DUP3 SWAP1 DUP5 SWAP1 GAS CALL SWAP1 DUP2 ISZERO PUSH2 0xA91 JUMPI DUP12 SWAP2 PUSH2 0xA78 JUMPI JUMPDEST POP POP PUSH1 0x24 SWAP2 PUSH1 0x1 PUSH1 0x1 PUSH1 0xA0 SHL SUB DUP1 PUSH1 0x5 SLOAD AND SWAP8 MLOAD AND SWAP6 MLOAD SWAP1 MLOAD SWAP2 PUSH1 0x20 PUSH1 0x1 PUSH1 0x1 PUSH1 0xA0 SHL SUB PUSH1 0x7 SLOAD AND PUSH1 0x40 MLOAD SWAP6 DUP7 DUP1 SWAP3 PUSH4 0x2EF1457 PUSH1 0xE5 SHL DUP3 MSTORE DUP10 PUSH1 0x4 DUP4 ADD MSTORE GAS STATICCALL SWAP4 DUP5 ISZERO PUSH2 0xA6D JUMPI DUP13 SWAP5 PUSH2 0xA3C JUMPI JUMPDEST POP DUP8 EXTCODESIZE ISZERO PUSH2 0xA38 JUMPI DUP12 SWAP10 DUP11 SWAP7 PUSH1 0x40 MLOAD SWAP13 DUP14 SWAP12 DUP13 SWAP11 DUP12 SWAP10 PUSH32 0x9E0E92E400000000000000000000000000000000000000000000000000000000 DUP12 MSTORE PUSH1 0x4 DUP12 ADD MSTORE CALLER PUSH1 0x24 DUP12 ADD MSTORE PUSH1 0x44 DUP11 ADD MSTORE PUSH1 0x64 DUP10 ADD MSTORE PUSH1 0x84 DUP9 ADD MSTORE PUSH1 0xA4 DUP8 ADD MSTORE PUSH1 0xC4 DUP7 ADD MSTORE PUSH1 0xE4 DUP6 ADD MSTORE TIMESTAMP PUSH2 0x104 DUP6 ADD MSTORE PUSH2 0x124 DUP5 ADD PUSH2 0x180 SWAP1 MSTORE PUSH2 0x184 DUP5 ADD PUSH2 0xA13 SWAP2 PUSH2 0x3187 JUMP JUMPDEST DUP4 DUP2 SUB PUSH1 0x3 NOT ADD PUSH2 0x144 DUP6 ADD MSTORE PUSH2 0xA29 SWAP2 PUSH2 0x31AC JUMP JUMPDEST SWAP1 PUSH2 0x164 DUP4 ADD PUSH2 0x1B2 SWAP2 PUSH2 0x3109 JUMP JUMPDEST DUP12 DUP1 REVERT JUMPDEST PUSH2 0xA5F SWAP2 SWAP5 POP PUSH1 0x20 RETURNDATASIZE PUSH1 0x20 GT PUSH2 0xA66 JUMPI JUMPDEST PUSH2 0xA57 DUP2 DUP4 PUSH2 0x2D11 JUMP JUMPDEST DUP2 ADD SWAP1 PUSH2 0x30F1 JUMP JUMPDEST SWAP3 CODESIZE PUSH2 0x992 JUMP JUMPDEST POP RETURNDATASIZE PUSH2 0xA4D JUMP JUMPDEST PUSH1 0x40 MLOAD RETURNDATASIZE DUP15 DUP3 RETURNDATACOPY RETURNDATASIZE SWAP1 REVERT JUMPDEST DUP2 PUSH2 0xA82 SWAP2 PUSH2 0x2D11 JUMP JUMPDEST PUSH2 0xA8D JUMPI DUP10 CODESIZE PUSH2 0x943 JUMP JUMPDEST DUP10 DUP1 REVERT JUMPDEST PUSH1 0x40 MLOAD RETURNDATASIZE DUP14 DUP3 RETURNDATACOPY RETURNDATASIZE SWAP1 REVERT JUMPDEST DUP2 PUSH2 0xAA6 SWAP2 PUSH2 0x2D11 JUMP JUMPDEST PUSH2 0xA8D JUMPI DUP10 CODESIZE PUSH2 0x872 JUMP JUMPDEST DUP11 DUP1 REVERT JUMPDEST DUP2 PUSH2 0xABF SWAP2 PUSH2 0x2D11 JUMP JUMPDEST PUSH2 0xA8D JUMPI DUP10 CODESIZE PUSH2 0x82B JUMP JUMPDEST PUSH1 0x24 DUP16 PUSH4 0x4E487B71 PUSH1 0xE0 SHL DUP2 MSTORE PUSH1 0x21 PUSH1 0x4 MSTORE REVERT JUMPDEST PUSH2 0xB0B SWAP2 SWAP7 POP PUSH1 0x1 PUSH1 0x1 PUSH1 0xA0 SHL SUB SWAP6 POP PUSH1 0x40 RETURNDATASIZE PUSH1 0x40 GT PUSH2 0xB13 JUMPI JUMPDEST PUSH2 0xB03 DUP2 DUP4 PUSH2 0x2D11 JUMP JUMPDEST DUP2 ADD SWAP1 PUSH2 0x2F7E JUMP JUMPDEST SWAP6 SWAP1 SWAP5 PUSH2 0x76C JUMP JUMPDEST POP RETURNDATASIZE PUSH2 0xAF9 JUMP JUMPDEST DUP15 PUSH1 0x40 MLOAD SWAP1 RETURNDATASIZE SWAP1 DUP3 RETURNDATACOPY RETURNDATASIZE SWAP1 REVERT JUMPDEST DUP2 PUSH2 0xB31 SWAP2 PUSH2 0x2D11 JUMP JUMPDEST PUSH2 0xB3C JUMPI DUP13 CODESIZE PUSH2 0x6BF JUMP JUMPDEST DUP13 DUP1 REVERT JUMPDEST DUP15 DUP1 REVERT JUMPDEST DUP2 PUSH2 0xB4E SWAP2 PUSH2 0x2D11 JUMP JUMPDEST PUSH2 0xB3C JUMPI DUP13 CODESIZE PUSH2 0x60A JUMP JUMPDEST DUP14 DUP1 REVERT JUMPDEST SWAP1 POP PUSH1 0x20 DUP2 RETURNDATASIZE PUSH1 0x20 GT PUSH2 0xB8F JUMPI JUMPDEST DUP2 PUSH2 0xB78 PUSH1 0x20 SWAP4 DUP4 PUSH2 0x2D11 JUMP JUMPDEST DUP2 ADD SUB SLT PUSH2 0xB59 JUMPI PUSH2 0xB89 SWAP1 PUSH2 0x2F6A JUMP JUMPDEST CODESIZE PUSH2 0x5CD JUMP JUMPDEST RETURNDATASIZE SWAP2 POP PUSH2 0xB6B JUMP JUMPDEST SWAP2 SWAP7 POP SWAP9 POP PUSH2 0xBBF SWAP2 SWAP11 POP PUSH1 0x60 RETURNDATASIZE PUSH1 0x60 GT PUSH2 0xBCB JUMPI JUMPDEST PUSH2 0xBB7 DUP2 DUP4 PUSH2 0x2D11 JUMP JUMPDEST DUP2 ADD SWAP1 PUSH2 0x320E JUMP JUMPDEST SWAP11 SWAP2 SWAP6 SWAP1 SWAP11 SWAP9 CODESIZE PUSH2 0x58B JUMP JUMPDEST POP RETURNDATASIZE PUSH2 0xBAD JUMP JUMPDEST SWAP1 SWAP3 POP PUSH1 0x20 DUP2 RETURNDATASIZE PUSH1 0x20 GT PUSH2 0xC03 JUMPI JUMPDEST DUP2 PUSH2 0xBEE PUSH1 0x20 SWAP4 DUP4 PUSH2 0x2D11 JUMP JUMPDEST DUP2 ADD SUB SLT PUSH2 0xBFE JUMPI MLOAD SWAP2 CODESIZE PUSH2 0x542 JUMP JUMPDEST PUSH1 0x0 DUP1 REVERT JUMPDEST RETURNDATASIZE SWAP2 POP PUSH2 0xBE1 JUMP JUMPDEST PUSH1 0x40 MLOAD RETURNDATASIZE DUP13 DUP3 RETURNDATACOPY RETURNDATASIZE SWAP1 REVERT JUMPDEST DUP2 PUSH2 0xC20 SWAP2 PUSH2 0x2D11 JUMP JUMPDEST PUSH2 0xA8D JUMPI DUP10 CODESIZE PUSH2 0x442 JUMP JUMPDEST DUP9 DUP1 REVERT JUMPDEST DUP6 DUP1 REVERT JUMPDEST DUP5 DUP1 REVERT JUMPDEST POP PUSH2 0x120 CALLDATASIZE PUSH1 0x3 NOT ADD SLT PUSH2 0x168 JUMPI PUSH2 0xC4E CALLDATASIZE PUSH2 0x2DAE JUMP JUMPDEST SWAP1 PUSH1 0x1 PUSH1 0x1 PUSH1 0xA0 SHL SUB PUSH1 0x7 SLOAD AND SWAP2 DUP1 MLOAD SWAP3 PUSH1 0x40 MLOAD SWAP4 PUSH4 0x255709E5 PUSH1 0xE1 SHL DUP6 MSTORE PUSH1 0x4 DUP6 ADD MSTORE DUP3 DUP5 PUSH1 0x24 DUP2 DUP5 GAS STATICCALL SWAP4 DUP5 ISZERO PUSH2 0x12D0 JUMPI DUP4 SWAP5 PUSH2 0x12DB JUMPI JUMPDEST POP DUP2 MLOAD PUSH1 0x40 MLOAD PUSH4 0x16C93723 PUSH1 0xE1 SHL DUP2 MSTORE PUSH1 0x4 DUP2 ADD SWAP2 SWAP1 SWAP2 MSTORE CALLER PUSH1 0x24 DUP3 ADD MSTORE SWAP2 SWAP1 PUSH1 0x60 SWAP1 DUP4 SWAP1 PUSH1 0x44 SWAP1 DUP3 SWAP1 DUP8 SWAP1 GAS CALL SWAP2 DUP3 ISZERO PUSH2 0x12D0 JUMPI DUP4 SWAP5 DUP5 SWAP2 DUP6 SWAP5 PUSH2 0x12A8 JUMPI JUMPDEST POP PUSH1 0x20 PUSH1 0x1 PUSH1 0x1 PUSH1 0xA0 SHL SUB PUSH1 0x3 SLOAD AND SWAP2 ADD PUSH1 0x20 PUSH1 0x1 PUSH1 0x1 PUSH1 0xA0 SHL SUB DUP3 MLOAD AND PUSH1 0x24 PUSH1 0x40 MLOAD DUP1 SWAP6 DUP2 SWAP4 PUSH4 0x4D0A647 PUSH1 0xE0 SHL DUP4 MSTORE PUSH1 0x4 DUP4 ADD MSTORE GAS STATICCALL SWAP2 DUP3 ISZERO PUSH2 0x129D JUMPI DUP7 SWAP3 PUSH2 0x1261 JUMPI JUMPDEST POP PUSH20 0x0 SWAP2 DUP3 EXTCODESIZE ISZERO PUSH2 0x125D JUMPI DUP7 PUSH1 0x1 PUSH1 0x1 PUSH1 0xA0 SHL SUB SWAP2 PUSH1 0x24 PUSH1 0x40 MLOAD DUP1 SWAP5 DUP2 SWAP4 PUSH4 0xBF6341CF PUSH1 0xE0 SHL DUP4 MSTORE AND SWAP7 DUP8 PUSH1 0x4 DUP4 ADD MSTORE GAS DELEGATECALL DUP1 ISZERO PUSH2 0x1228 JUMPI SWAP1 DUP8 SWAP2 PUSH2 0x1248 JUMPI JUMPDEST POP POP PUSH1 0x1 PUSH1 0x1 PUSH1 0xA0 SHL SUB DUP1 DUP3 MLOAD AND SWAP4 PUSH1 0x40 MLOAD SWAP5 PUSH2 0xD7D DUP7 PUSH2 0x2C51 JUMP JUMPDEST DUP6 MSTORE CALLER PUSH1 0x20 DUP7 ADD MSTORE AND SWAP3 DUP4 PUSH1 0x40 DUP3 ADD MSTORE DUP8 PUSH1 0x60 DUP3 ADD MSTORE PUSH1 0x1 PUSH1 0x1 PUSH1 0xA0 SHL SUB PUSH1 0x4 SLOAD AND SWAP1 DUP2 EXTCODESIZE ISZERO PUSH2 0x11B4 JUMPI PUSH2 0xE04 PUSH1 0x84 DUP10 SWAP3 DUP4 PUSH1 0x40 MLOAD SWAP6 DUP7 SWAP5 DUP6 SWAP4 PUSH4 0x577ED67F PUSH1 0xE1 SHL DUP6 MSTORE PUSH1 0x4 DUP6 ADD SWAP1 PUSH1 0x60 DUP1 SWAP2 PUSH1 0x1 PUSH1 0x1 PUSH1 0xA0 SHL SUB DUP2 MLOAD AND DUP5 MSTORE PUSH1 0x1 PUSH1 0x1 PUSH1 0xA0 SHL SUB PUSH1 0x20 DUP3 ADD MLOAD AND PUSH1 0x20 DUP6 ADD MSTORE PUSH1 0x1 PUSH1 0x1 PUSH1 0xA0 SHL SUB PUSH1 0x40 DUP3 ADD MLOAD AND PUSH1 0x40 DUP6 ADD MSTORE ADD MLOAD SWAP2 ADD MSTORE JUMP JUMPDEST GAS CALL DUP1 ISZERO PUSH2 0x1228 JUMPI SWAP1 DUP8 SWAP2 PUSH2 0x1233 JUMPI JUMPDEST POP POP PUSH1 0x1 PUSH1 0x1 PUSH1 0xA0 SHL SUB DUP2 MLOAD AND SWAP7 PUSH1 0x40 MLOAD SWAP8 PUSH2 0xE2F DUP10 PUSH2 0x2C51 JUMP JUMPDEST DUP9 MSTORE CALLER PUSH1 0x20 DUP10 ADD MSTORE DUP4 PUSH1 0x40 DUP10 ADD MSTORE DUP1 PUSH1 0x60 DUP10 ADD MSTORE PUSH1 0x40 PUSH2 0xEAB PUSH1 0x84 PUSH1 0x1 PUSH1 0x1 PUSH1 0xA0 SHL SUB PUSH1 0x4 SLOAD AND SWAP11 DUP4 MLOAD SWAP12 DUP13 SWAP4 DUP5 SWAP3 PUSH4 0x716FA03 PUSH1 0xE3 SHL DUP5 MSTORE PUSH1 0x4 DUP5 ADD SWAP1 PUSH1 0x60 DUP1 SWAP2 PUSH1 0x1 PUSH1 0x1 PUSH1 0xA0 SHL SUB DUP2 MLOAD AND DUP5 MSTORE PUSH1 0x1 PUSH1 0x1 PUSH1 0xA0 SHL SUB PUSH1 0x20 DUP3 ADD MLOAD AND PUSH1 0x20 DUP6 ADD MSTORE PUSH1 0x1 PUSH1 0x1 PUSH1 0xA0 SHL SUB PUSH1 0x40 DUP3 ADD MLOAD AND PUSH1 0x40 DUP6 ADD MSTORE ADD MLOAD SWAP2 ADD MSTORE JUMP JUMPDEST GAS STATICCALL SWAP5 DUP6 ISZERO PUSH2 0x1228 JUMPI DUP8 SWAP9 DUP9 SWAP7 PUSH2 0x1201 JUMPI JUMPDEST POP PUSH1 0x1 PUSH1 0x1 PUSH1 0xA0 SHL SUB PUSH1 0x20 DUP3 ADD MLOAD AND SWAP4 PUSH1 0x40 DUP3 ADD MLOAD SWAP10 PUSH1 0x60 DUP4 ADD MLOAD PUSH1 0x80 DUP5 ADD MLOAD SWAP1 PUSH1 0x3 DUP3 LT ISZERO PUSH2 0x11ED JUMPI DUP12 SWAP13 PUSH2 0xF36 PUSH2 0xF40 SWAP4 DUP13 SWAP4 PUSH1 0xA0 DUP10 ADD MLOAD SWAP4 PUSH1 0x40 MLOAD SWAP6 PUSH2 0xF05 DUP8 PUSH2 0x2C83 JUMP JUMPDEST PUSH1 0x1 PUSH1 0x1 PUSH1 0xA0 SHL SUB DUP10 AND SWAP14 DUP15 DUP9 MSTORE PUSH1 0x20 DUP9 ADD MSTORE PUSH1 0x40 DUP8 ADD MSTORE DUP9 PUSH1 0x60 DUP8 ADD MSTORE PUSH1 0x80 DUP7 ADD MSTORE PUSH1 0xA0 DUP6 ADD MSTORE PUSH1 0xC0 DUP5 ADD PUSH2 0x30CF JUMP JUMPDEST PUSH1 0xE0 DUP3 ADD MSTORE PUSH2 0x32F8 JUMP JUMPDEST DUP3 MLOAD DUP3 EXTCODESIZE ISZERO PUSH2 0xAB1 JUMPI PUSH1 0x40 MLOAD PUSH4 0x26B3293F PUSH1 0xE0 SHL DUP2 MSTORE PUSH1 0x1 PUSH1 0x1 PUSH1 0xA0 SHL SUB SWAP3 SWAP1 SWAP3 AND PUSH1 0x4 DUP4 ADD MSTORE PUSH1 0x24 DUP3 ADD DUP10 SWAP1 MSTORE PUSH1 0x44 DUP3 ADD MSTORE SWAP1 DUP10 SWAP1 DUP3 SWAP1 PUSH1 0x64 SWAP1 DUP3 SWAP1 CALLVALUE SWAP1 GAS CALL SWAP1 DUP2 ISZERO PUSH2 0x11B8 JUMPI DUP10 SWAP2 PUSH2 0x11D8 JUMPI JUMPDEST POP POP PUSH1 0x1 PUSH1 0x1 PUSH1 0xA0 SHL SUB PUSH1 0x7 SLOAD AND DUP2 MLOAD DUP2 EXTCODESIZE ISZERO PUSH2 0xA8D JUMPI DUP10 SWAP2 PUSH1 0x44 DUP4 SWAP3 PUSH1 0x40 MLOAD SWAP5 DUP6 SWAP4 DUP5 SWAP3 PUSH4 0xB38FFD5F PUSH1 0xE0 SHL DUP5 MSTORE PUSH1 0x4 DUP5 ADD MSTORE DUP9 PUSH1 0x24 DUP5 ADD MSTORE GAS CALL SWAP1 DUP2 ISZERO PUSH2 0x11B8 JUMPI DUP10 SWAP2 PUSH2 0x11C3 JUMPI JUMPDEST POP POP PUSH1 0x1 PUSH1 0x1 PUSH1 0xA0 SHL SUB DUP4 MLOAD AND DUP2 MLOAD PUSH1 0x40 MLOAD SWAP2 PUSH2 0xFF5 DUP4 PUSH2 0x2CA0 JUMP JUMPDEST DUP3 MSTORE PUSH1 0x20 DUP3 ADD MSTORE CALLER PUSH1 0x40 DUP3 ADD MSTORE DUP6 PUSH1 0x60 DUP3 ADD MSTORE DUP3 PUSH1 0x80 DUP3 ADD MSTORE DUP5 PUSH1 0xA0 DUP3 ADD MSTORE DUP7 PUSH1 0xC0 DUP3 ADD MSTORE PUSH1 0x1 PUSH1 0x1 PUSH1 0xA0 SHL SUB PUSH1 0x4 SLOAD AND DUP1 EXTCODESIZE ISZERO PUSH2 0xA8D JUMPI PUSH1 0x40 DUP1 MLOAD PUSH4 0x2B54892B PUSH1 0xE0 SHL DUP2 MSTORE DUP4 MLOAD PUSH1 0x1 PUSH1 0x1 PUSH1 0xA0 SHL SUB SWAP1 DUP2 AND PUSH1 0x4 DUP4 ADD MSTORE PUSH1 0x20 DUP6 ADD MLOAD PUSH1 0x24 DUP4 ADD MSTORE SWAP2 DUP5 ADD MLOAD DUP3 AND PUSH1 0x44 DUP3 ADD MSTORE PUSH1 0x60 DUP5 ADD MLOAD DUP3 AND PUSH1 0x64 DUP3 ADD MSTORE PUSH1 0x80 DUP5 ADD MLOAD PUSH1 0x84 DUP3 ADD MSTORE PUSH1 0xA0 DUP5 ADD MLOAD SWAP1 SWAP2 AND PUSH1 0xA4 DUP3 ADD MSTORE PUSH1 0xC0 SWAP1 SWAP3 ADD MLOAD PUSH1 0xC4 DUP4 ADD MSTORE DUP10 SWAP1 DUP3 SWAP1 PUSH1 0xE4 SWAP1 DUP3 SWAP1 DUP5 SWAP1 GAS CALL SWAP1 DUP2 ISZERO PUSH2 0x11B8 JUMPI DUP10 SWAP2 PUSH2 0x119F JUMPI JUMPDEST POP POP PUSH1 0x1 PUSH1 0x1 PUSH1 0xA0 SHL SUB DUP1 PUSH1 0x5 SLOAD AND SWAP2 MLOAD SWAP4 MLOAD AND SWAP5 PUSH1 0x24 PUSH1 0x20 PUSH1 0x1 PUSH1 0x1 PUSH1 0xA0 SHL SUB PUSH1 0x7 SLOAD AND PUSH1 0x40 MLOAD SWAP3 DUP4 DUP1 SWAP3 PUSH4 0x2EF1457 PUSH1 0xE5 SHL DUP3 MSTORE DUP10 PUSH1 0x4 DUP4 ADD MSTORE GAS STATICCALL SWAP1 DUP2 ISZERO PUSH2 0xC0B JUMPI DUP11 SWAP2 PUSH2 0x1180 JUMPI JUMPDEST POP DUP3 EXTCODESIZE ISZERO PUSH2 0xA8D JUMPI DUP10 SWAP8 PUSH2 0x144 SWAP7 DUP10 SWAP6 PUSH2 0x1171 SWAP5 PUSH1 0x40 MLOAD SWAP13 DUP14 SWAP12 DUP13 SWAP11 PUSH32 0x5261BBDB00000000000000000000000000000000000000000000000000000000 DUP13 MSTORE PUSH1 0x4 DUP13 ADD MSTORE CALLER PUSH1 0x24 DUP13 ADD MSTORE PUSH1 0x44 DUP12 ADD MSTORE PUSH1 0x64 DUP11 ADD MSTORE PUSH1 0x84 DUP10 ADD MSTORE PUSH1 0xA4 DUP9 ADD MSTORE PUSH1 0xC4 DUP8 ADD MSTORE PUSH1 0xE4 DUP7 ADD MSTORE TIMESTAMP PUSH2 0x104 DUP7 ADD MSTORE PUSH2 0x124 DUP6 ADD SWAP1 PUSH2 0x3109 JUMP JUMPDEST GAS CALL DUP1 ISZERO PUSH2 0x1D4 JUMPI PUSH2 0x1C3 JUMPI POP RETURN JUMPDEST PUSH2 0x1199 SWAP2 POP PUSH1 0x20 RETURNDATASIZE PUSH1 0x20 GT PUSH2 0xA66 JUMPI PUSH2 0xA57 DUP2 DUP4 PUSH2 0x2D11 JUMP JUMPDEST CODESIZE PUSH2 0x10F7 JUMP JUMPDEST DUP2 PUSH2 0x11A9 SWAP2 PUSH2 0x2D11 JUMP JUMPDEST PUSH2 0x11B4 JUMPI DUP8 CODESIZE PUSH2 0x10AB JUMP JUMPDEST DUP8 DUP1 REVERT JUMPDEST PUSH1 0x40 MLOAD RETURNDATASIZE DUP12 DUP3 RETURNDATACOPY RETURNDATASIZE SWAP1 REVERT JUMPDEST DUP2 PUSH2 0x11CD SWAP2 PUSH2 0x2D11 JUMP JUMPDEST PUSH2 0x11B4 JUMPI DUP8 CODESIZE PUSH2 0xFD9 JUMP JUMPDEST DUP2 PUSH2 0x11E2 SWAP2 PUSH2 0x2D11 JUMP JUMPDEST PUSH2 0x11B4 JUMPI DUP8 CODESIZE PUSH2 0xF8F JUMP JUMPDEST PUSH1 0x24 DUP13 PUSH4 0x4E487B71 PUSH1 0xE0 SHL DUP2 MSTORE PUSH1 0x21 PUSH1 0x4 MSTORE REVERT JUMPDEST SWAP1 SWAP6 POP PUSH2 0x121E SWAP2 SWAP9 POP PUSH1 0x40 RETURNDATASIZE PUSH1 0x40 GT PUSH2 0xB13 JUMPI PUSH2 0xB03 DUP2 DUP4 PUSH2 0x2D11 JUMP JUMPDEST SWAP8 SWAP1 SWAP8 SWAP5 CODESIZE PUSH2 0xEBD JUMP JUMPDEST PUSH1 0x40 MLOAD RETURNDATASIZE DUP10 DUP3 RETURNDATACOPY RETURNDATASIZE SWAP1 REVERT JUMPDEST DUP2 PUSH2 0x123D SWAP2 PUSH2 0x2D11 JUMP JUMPDEST PUSH2 0xC2F JUMPI DUP6 CODESIZE PUSH2 0xE14 JUMP JUMPDEST DUP2 PUSH2 0x1252 SWAP2 PUSH2 0x2D11 JUMP JUMPDEST PUSH2 0xC2F JUMPI DUP6 CODESIZE PUSH2 0xD61 JUMP JUMPDEST DUP7 DUP1 REVERT JUMPDEST SWAP1 SWAP2 POP PUSH1 0x20 DUP2 RETURNDATASIZE PUSH1 0x20 GT PUSH2 0x1295 JUMPI JUMPDEST DUP2 PUSH2 0x127D PUSH1 0x20 SWAP4 DUP4 PUSH2 0x2D11 JUMP JUMPDEST DUP2 ADD SUB SLT PUSH2 0xC2F JUMPI PUSH2 0x128E SWAP1 PUSH2 0x2F6A JUMP JUMPDEST SWAP1 CODESIZE PUSH2 0xD0E JUMP JUMPDEST RETURNDATASIZE SWAP2 POP PUSH2 0x1270 JUMP JUMPDEST PUSH1 0x40 MLOAD RETURNDATASIZE DUP9 DUP3 RETURNDATACOPY RETURNDATASIZE SWAP1 REVERT JUMPDEST SWAP2 POP SWAP3 POP PUSH2 0x12C6 SWAP2 SWAP5 POP PUSH1 0x60 RETURNDATASIZE PUSH1 0x60 GT PUSH2 0xBCB JUMPI PUSH2 0xBB7 DUP2 DUP4 PUSH2 0x2D11 JUMP JUMPDEST SWAP2 SWAP5 SWAP2 SWAP3 CODESIZE PUSH2 0xCC8 JUMP JUMPDEST PUSH1 0x40 MLOAD RETURNDATASIZE DUP6 DUP3 RETURNDATACOPY RETURNDATASIZE SWAP1 REVERT JUMPDEST SWAP1 SWAP4 POP RETURNDATASIZE DUP1 DUP5 DUP4 RETURNDATACOPY PUSH2 0x12ED DUP2 DUP4 PUSH2 0x2D11 JUMP JUMPDEST DUP2 ADD SWAP1 PUSH1 0x20 DUP2 DUP4 SUB SLT PUSH2 0x1406 JUMPI DUP1 MLOAD SWAP1 PUSH8 0xFFFFFFFFFFFFFFFF DUP3 GT PUSH2 0xC33 JUMPI ADD PUSH2 0x120 DUP2 DUP4 SUB SLT PUSH2 0x1406 JUMPI PUSH1 0x40 MLOAD SWAP2 PUSH2 0x1325 DUP4 PUSH2 0x2CBC JUMP JUMPDEST PUSH2 0x132E DUP3 PUSH2 0x2F6A JUMP JUMPDEST DUP4 MSTORE PUSH2 0x133C PUSH1 0x20 DUP4 ADD PUSH2 0x2F6A JUMP JUMPDEST PUSH1 0x20 DUP5 ADD MSTORE PUSH1 0x40 DUP3 ADD MLOAD PUSH1 0x40 DUP5 ADD MSTORE PUSH1 0x60 DUP3 ADD MLOAD PUSH8 0xFFFFFFFFFFFFFFFF DUP2 GT PUSH2 0xC2F JUMPI DUP2 PUSH2 0x136B SWAP2 DUP5 ADD PUSH2 0x3028 JUMP JUMPDEST PUSH1 0x60 DUP5 ADD MSTORE PUSH1 0x80 DUP3 ADD MLOAD PUSH8 0xFFFFFFFFFFFFFFFF DUP2 GT PUSH2 0xC2F JUMPI DUP2 PUSH2 0x1390 SWAP2 DUP5 ADD PUSH2 0x2F9B JUMP JUMPDEST PUSH1 0x80 DUP5 ADD MSTORE PUSH1 0xA0 DUP3 ADD MLOAD PUSH8 0xFFFFFFFFFFFFFFFF DUP2 GT PUSH2 0xC2F JUMPI DUP2 PUSH2 0x13B5 SWAP2 DUP5 ADD PUSH2 0x2F9B JUMP JUMPDEST PUSH1 0xA0 DUP5 ADD MSTORE PUSH1 0xC0 DUP3 ADD MLOAD PUSH1 0xC0 DUP5 ADD MSTORE PUSH1 0xE0 DUP3 ADD MLOAD PUSH8 0xFFFFFFFFFFFFFFFF DUP2 GT PUSH2 0xC2F JUMPI DUP3 SWAP2 PUSH2 0x13E8 SWAP2 PUSH2 0x100 SWAP5 ADD PUSH2 0x306D JUMP JUMPDEST PUSH1 0xE0 DUP5 ADD MSTORE ADD MLOAD PUSH1 0x4 DUP2 LT ISZERO PUSH2 0x1406 JUMPI PUSH2 0x100 DUP3 ADD MSTORE SWAP3 PUSH1 0x60 PUSH2 0xC88 JUMP JUMPDEST DUP4 DUP1 REVERT JUMPDEST POP CALLVALUE PUSH2 0x168 JUMPI DUP1 PUSH2 0x141A CALLDATASIZE PUSH2 0x2EDE JUMP JUMPDEST PUSH1 0x1 PUSH1 0x1 PUSH1 0xA0 SHL SUB PUSH1 0x6 SLOAD AND DUP1 EXTCODESIZE ISZERO PUSH2 0x1DF JUMPI PUSH2 0x1B2 DUP4 SWAP3 SWAP2 DUP4 SWAP3 PUSH1 0x40 MLOAD SWAP5 DUP6 DUP1 SWAP5 DUP2 SWAP4 PUSH4 0x1D6E1F85 PUSH1 0xE3 SHL DUP4 MSTORE PUSH1 0x4 DUP4 ADD PUSH2 0x31D9 JUMP JUMPDEST POP CALLVALUE PUSH2 0x168 JUMPI PUSH1 0x20 CALLDATASIZE PUSH1 0x3 NOT ADD SLT PUSH2 0x168 JUMPI PUSH1 0x4 CALLDATALOAD PUSH1 0x1 PUSH1 0x1 PUSH1 0xA0 SHL SUB DUP2 AND DUP1 SWAP2 SUB PUSH2 0x225 JUMPI PUSH2 0x147F PUSH2 0x3CDE JUMP JUMPDEST PUSH1 0x1 PUSH1 0x1 PUSH1 0xA0 SHL SUB NOT PUSH1 0x7 SLOAD AND OR PUSH1 0x7 SSTORE DUP1 RETURN JUMPDEST POP PUSH1 0x20 CALLDATASIZE PUSH1 0x3 NOT ADD SLT PUSH2 0x168 JUMPI PUSH1 0x4 CALLDATALOAD SWAP1 PUSH8 0xFFFFFFFFFFFFFFFF DUP3 GT PUSH2 0x168 JUMPI PUSH2 0x1C0 PUSH1 0x3 NOT DUP4 CALLDATASIZE SUB ADD SLT PUSH2 0x168 JUMPI PUSH1 0x40 MLOAD SWAP2 PUSH2 0x160 DUP4 ADD DUP4 DUP2 LT PUSH8 0xFFFFFFFFFFFFFFFF DUP3 GT OR PUSH2 0x2112 JUMPI PUSH1 0x40 MSTORE DUP1 PUSH1 0x4 ADD CALLDATALOAD PUSH8 0xFFFFFFFFFFFFFFFF DUP2 GT PUSH2 0x20E6 JUMPI DUP2 ADD CALLDATASIZE PUSH1 0x23 DUP3 ADD SLT ISZERO PUSH2 0x20E6 JUMPI PUSH1 0x4 DUP2 ADD CALLDATALOAD SWAP1 PUSH2 0x1511 DUP3 PUSH2 0x2E1B JUMP JUMPDEST SWAP2 PUSH2 0x151F PUSH1 0x40 MLOAD SWAP4 DUP5 PUSH2 0x2D11 JUMP JUMPDEST DUP1 DUP4 MSTORE PUSH1 0x20 PUSH1 0x4 DUP2 DUP6 ADD SWAP3 PUSH1 0x5 SHL DUP5 ADD ADD ADD SWAP2 CALLDATASIZE DUP4 GT PUSH2 0xC2F JUMPI PUSH1 0x24 ADD SWAP1 JUMPDEST DUP3 DUP3 LT PUSH2 0x20FA JUMPI POP POP POP DUP4 MSTORE PUSH2 0x1556 PUSH1 0x24 DUP3 ADD PUSH2 0x2D49 JUMP JUMPDEST PUSH1 0x20 DUP5 ADD MSTORE PUSH1 0x44 DUP2 ADD CALLDATALOAD PUSH8 0xFFFFFFFFFFFFFFFF DUP2 GT PUSH2 0x20E6 JUMPI DUP2 ADD CALLDATASIZE PUSH1 0x23 DUP3 ADD SLT ISZERO PUSH2 0x20E6 JUMPI PUSH1 0x4 DUP2 ADD CALLDATALOAD SWAP1 PUSH2 0x158B DUP3 PUSH2 0x2E1B JUMP JUMPDEST SWAP2 PUSH2 0x1599 PUSH1 0x40 MLOAD SWAP4 DUP5 PUSH2 0x2D11 JUMP JUMPDEST DUP1 DUP4 MSTORE PUSH1 0x20 PUSH1 0x4 DUP2 DUP6 ADD SWAP3 PUSH1 0x5 SHL DUP5 ADD ADD ADD SWAP2 CALLDATASIZE DUP4 GT PUSH2 0xC2F JUMPI PUSH1 0x24 ADD SWAP1 JUMPDEST DUP3 DUP3 LT PUSH2 0x20EA JUMPI POP POP POP PUSH1 0x40 DUP5 ADD MSTORE PUSH2 0x15D3 PUSH1 0x64 DUP3 ADD PUSH2 0x2D49 JUMP JUMPDEST PUSH1 0x60 DUP5 ADD MSTORE PUSH2 0x15E4 PUSH1 0x84 DUP3 ADD PUSH2 0x2D49 JUMP JUMPDEST PUSH1 0x80 DUP5 ADD MSTORE PUSH1 0xA4 DUP2 ADD CALLDATALOAD PUSH8 0xFFFFFFFFFFFFFFFF DUP2 GT PUSH2 0x20E6 JUMPI PUSH2 0x160D SWAP1 PUSH1 0x4 CALLDATASIZE SWAP2 DUP5 ADD ADD PUSH2 0x2E4F JUMP JUMPDEST PUSH1 0xA0 DUP5 ADD MSTORE PUSH1 0xC4 DUP2 ADD CALLDATALOAD PUSH8 0xFFFFFFFFFFFFFFFF DUP2 GT PUSH2 0x20E6 JUMPI PUSH2 0x1636 SWAP1 PUSH1 0x4 CALLDATASIZE SWAP2 DUP5 ADD ADD PUSH2 0x2E96 JUMP JUMPDEST PUSH1 0xC0 DUP5 ADD MSTORE PUSH1 0xE4 DUP2 ADD CALLDATALOAD PUSH1 0xE0 DUP5 ADD MSTORE PUSH2 0x104 DUP2 ADD CALLDATALOAD PUSH2 0x100 DUP5 ADD MSTORE PUSH2 0x124 DUP2 ADD CALLDATALOAD PUSH1 0x3 DUP2 LT ISZERO PUSH2 0x20E6 JUMPI PUSH2 0x120 DUP5 ADD MSTORE PUSH2 0x1675 SWAP1 CALLDATASIZE SWAP1 PUSH2 0x144 ADD PUSH2 0x2D6B JUMP JUMPDEST PUSH2 0x140 DUP4 ADD MSTORE PUSH1 0x1 PUSH1 0x1 PUSH1 0xA0 SHL SUB PUSH1 0x20 DUP4 ADD MLOAD AND PUSH20 0x0 EXTCODESIZE ISZERO PUSH2 0x225 JUMPI PUSH1 0x40 MLOAD SWAP1 PUSH4 0xBF6341CF PUSH1 0xE0 SHL DUP3 MSTORE PUSH1 0x4 DUP3 ADD MSTORE DUP2 DUP2 PUSH1 0x24 DUP2 PUSH20 0x0 GAS DELEGATECALL DUP1 ISZERO PUSH2 0x1D4 JUMPI SWAP1 DUP3 SWAP2 PUSH2 0x20D1 JUMPI JUMPDEST POP POP DUP2 MLOAD PUSH20 0x0 EXTCODESIZE ISZERO PUSH2 0x225 JUMPI PUSH1 0x40 MLOAD SWAP1 PUSH32 0x11F599A500000000000000000000000000000000000000000000000000000000 DUP3 MSTORE DUP3 DUP3 PUSH1 0x24 DUP2 ADD SWAP3 PUSH1 0x20 PUSH1 0x4 DUP4 ADD MSTORE DUP1 MLOAD DUP1 SWAP5 MSTORE PUSH1 0x20 PUSH1 0x44 DUP4 ADD SWAP2 ADD SWAP4 DUP4 JUMPDEST DUP2 DUP2 LT PUSH2 0x20AC JUMPI POP POP DUP2 SWAP3 SWAP4 POP SUB DUP2 PUSH20 0x0 GAS DELEGATECALL DUP1 ISZERO PUSH2 0x1D4 JUMPI SWAP1 DUP3 SWAP2 PUSH2 0x2097 JUMPI JUMPDEST POP POP PUSH1 0x40 DUP3 ADD MLOAD PUSH20 0x0 EXTCODESIZE ISZERO PUSH2 0x225 JUMPI PUSH1 0x40 MLOAD SWAP1 PUSH32 0xD0CA35ED00000000000000000000000000000000000000000000000000000000 DUP3 MSTORE DUP3 DUP3 PUSH1 0x24 DUP2 ADD SWAP3 PUSH1 0x20 PUSH1 0x4 DUP4 ADD MSTORE DUP1 MLOAD DUP1 SWAP5 MSTORE PUSH1 0x20 PUSH1 0x44 DUP4 ADD SWAP2 ADD SWAP4 DUP4 JUMPDEST DUP2 DUP2 LT PUSH2 0x207B JUMPI POP POP DUP2 SWAP3 SWAP4 POP SUB DUP2 PUSH20 0x0 GAS DELEGATECALL DUP1 ISZERO PUSH2 0x1D4 JUMPI SWAP1 DUP3 SWAP2 PUSH2 0x2066 JUMPI JUMPDEST POP POP PUSH1 0x1 PUSH1 0x1 PUSH1 0xA0 SHL SUB PUSH1 0x6 SLOAD AND PUSH1 0x20 PUSH1 0x40 MLOAD DUP1 SWAP3 PUSH32 0x63423F9300000000000000000000000000000000000000000000000000000000 DUP3 MSTORE CALLER PUSH1 0x4 DUP4 ADD MSTORE PUSH1 0x40 PUSH1 0x24 DUP4 ADD MSTORE DUP2 DUP6 DUP2 PUSH2 0x18F9 PUSH2 0x18E2 PUSH2 0x18A6 DUP12 PUSH1 0x1 PUSH1 0x1 PUSH1 0xA0 SHL SUB DUP11 PUSH2 0x1887 DUP4 MLOAD PUSH2 0x1C0 PUSH1 0x44 DUP11 ADD MSTORE PUSH2 0x204 DUP10 ADD SWAP1 PUSH2 0x3116 JUMP JUMPDEST SWAP3 ADD MLOAD AND PUSH1 0x64 DUP7 ADD MSTORE PUSH1 0x40 DUP14 ADD MLOAD DUP6 DUP3 SUB PUSH1 0x43 NOT ADD PUSH1 0x84 DUP8 ADD MSTORE PUSH2 0x3153 JUMP JUMPDEST PUSH1 0x1 PUSH1 0x1 PUSH1 0xA0 SHL SUB PUSH1 0x60 DUP14 ADD MLOAD AND PUSH1 0xA4 DUP6 ADD MSTORE PUSH1 0x1 PUSH1 0x1 PUSH1 0xA0 SHL SUB PUSH1 0x80 DUP14 ADD MLOAD AND PUSH1 0xC4 DUP6 ADD MSTORE PUSH1 0xA0 DUP13 ADD MLOAD PUSH1 0x43 NOT DUP6 DUP4 SUB ADD PUSH1 0xE4 DUP7 ADD MSTORE PUSH2 0x3187 JUMP JUMPDEST PUSH1 0xC0 DUP12 ADD MLOAD DUP4 DUP3 SUB PUSH1 0x43 NOT ADD PUSH2 0x104 DUP6 ADD MSTORE PUSH2 0x31AC JUMP JUMPDEST PUSH1 0xE0 DUP11 ADD MLOAD PUSH2 0x124 DUP4 ADD MSTORE PUSH2 0x100 DUP11 ADD MLOAD PUSH2 0x144 DUP4 ADD MSTORE PUSH2 0x1924 PUSH2 0x120 DUP12 ADD MLOAD PUSH2 0x164 DUP5 ADD SWAP1 PUSH2 0x31CC JUMP JUMPDEST PUSH2 0x140 DUP11 ADD MLOAD DUP1 MLOAD PUSH2 0x184 DUP5 ADD MSTORE PUSH1 0x20 DUP2 ADD MLOAD PUSH1 0xFF AND PUSH2 0x1A4 DUP5 ADD MSTORE PUSH1 0x40 DUP2 ADD MLOAD PUSH2 0x1C4 DUP5 ADD MSTORE PUSH1 0x60 ADD MLOAD PUSH2 0x1E4 DUP4 ADD MSTORE SUB SWAP3 GAS CALL SWAP1 DUP2 ISZERO PUSH2 0x1D4 JUMPI DUP3 SWAP2 PUSH2 0x2034 JUMPI JUMPDEST POP PUSH1 0x6 SLOAD PUSH1 0x40 DUP1 MLOAD PUSH4 0x16C93723 PUSH1 0xE1 SHL DUP2 MSTORE PUSH1 0x4 DUP2 ADD DUP5 SWAP1 MSTORE CALLER PUSH1 0x24 DUP3 ADD MSTORE SWAP2 DUP3 SWAP1 PUSH1 0x44 SWAP1 DUP3 SWAP1 DUP8 SWAP1 PUSH1 0x1 PUSH1 0x1 PUSH1 0xA0 SHL SUB AND GAS CALL DUP1 ISZERO PUSH2 0x12D0 JUMPI DUP4 SWAP2 DUP5 SWAP2 PUSH2 0x2003 JUMPI JUMPDEST POP PUSH1 0x1 PUSH1 0x1 PUSH1 0xA0 SHL SUB PUSH1 0x3 SLOAD AND SWAP5 PUSH1 0x20 PUSH1 0x1 PUSH1 0x1 PUSH1 0xA0 SHL SUB DUP2 DUP4 ADD MLOAD AND PUSH1 0x24 PUSH1 0x40 MLOAD DUP1 SWAP10 DUP2 SWAP4 PUSH4 0x4D0A647 PUSH1 0xE0 SHL DUP4 MSTORE PUSH1 0x4 DUP4 ADD MSTORE GAS STATICCALL SWAP6 DUP7 ISZERO PUSH2 0x1FF8 JUMPI DUP6 SWAP7 PUSH2 0x1FBC JUMPI JUMPDEST POP PUSH20 0x0 EXTCODESIZE ISZERO PUSH2 0xC33 JUMPI PUSH1 0x40 MLOAD PUSH4 0xBF6341CF PUSH1 0xE0 SHL DUP2 MSTORE PUSH1 0x1 PUSH1 0x1 PUSH1 0xA0 SHL SUB DUP8 AND PUSH1 0x4 DUP3 ADD MSTORE DUP6 DUP2 PUSH1 0x24 DUP2 PUSH20 0x0 GAS DELEGATECALL DUP1 ISZERO PUSH2 0x129D JUMPI SWAP1 DUP7 SWAP2 PUSH2 0x1FA7 JUMPI JUMPDEST POP POP PUSH1 0x1 PUSH1 0x1 PUSH1 0xA0 SHL SUB PUSH1 0x20 DUP3 ADD MLOAD AND PUSH1 0x1 PUSH1 0x1 PUSH1 0xA0 SHL SUB PUSH1 0x60 DUP4 ADD MLOAD AND PUSH1 0x40 MLOAD SWAP2 PUSH2 0x1A7C DUP4 PUSH2 0x2C51 JUMP JUMPDEST DUP3 MSTORE CALLER PUSH1 0x20 DUP4 ADD MSTORE PUSH1 0x40 DUP3 ADD MSTORE DUP3 PUSH1 0x60 DUP3 ADD MSTORE PUSH1 0x1 PUSH1 0x1 PUSH1 0xA0 SHL SUB PUSH1 0x4 SLOAD AND SWAP1 DUP2 EXTCODESIZE ISZERO PUSH2 0x125D JUMPI PUSH2 0x1B00 PUSH1 0x84 DUP9 SWAP3 DUP4 PUSH1 0x40 MLOAD SWAP6 DUP7 SWAP5 DUP6 SWAP4 PUSH4 0x577ED67F PUSH1 0xE1 SHL DUP6 MSTORE PUSH1 0x4 DUP6 ADD SWAP1 PUSH1 0x60 DUP1 SWAP2 PUSH1 0x1 PUSH1 0x1 PUSH1 0xA0 SHL SUB DUP2 MLOAD AND DUP5 MSTORE PUSH1 0x1 PUSH1 0x1 PUSH1 0xA0 SHL SUB PUSH1 0x20 DUP3 ADD MLOAD AND PUSH1 0x20 DUP6 ADD MSTORE PUSH1 0x1 PUSH1 0x1 PUSH1 0xA0 SHL SUB PUSH1 0x40 DUP3 ADD MLOAD AND PUSH1 0x40 DUP6 ADD MSTORE ADD MLOAD SWAP2 ADD MSTORE JUMP JUMPDEST GAS CALL DUP1 ISZERO PUSH2 0x129D JUMPI SWAP1 DUP7 SWAP2 PUSH2 0x1F92 JUMPI JUMPDEST POP POP PUSH1 0x1 PUSH1 0x1 PUSH1 0xA0 SHL SUB PUSH1 0x20 DUP3 ADD MLOAD AND SWAP2 PUSH1 0x1 PUSH1 0x1 PUSH1 0xA0 SHL SUB PUSH1 0x60 DUP4 ADD MLOAD AND PUSH1 0x40 MLOAD SWAP4 PUSH2 0x1B3C DUP6 PUSH2 0x2C51 JUMP JUMPDEST DUP5 MSTORE CALLER PUSH1 0x20 DUP6 ADD MSTORE PUSH1 0x40 DUP5 ADD MSTORE DUP1 PUSH1 0x60 DUP5 ADD MSTORE PUSH1 0x40 PUSH2 0x1BB7 PUSH1 0x84 PUSH1 0x1 PUSH1 0x1 PUSH1 0xA0 SHL SUB PUSH1 0x4 SLOAD AND SWAP6 DUP4 MLOAD SWAP7 DUP8 SWAP4 DUP5 SWAP3 PUSH4 0x716FA03 PUSH1 0xE3 SHL DUP5 MSTORE PUSH1 0x4 DUP5 ADD SWAP1 PUSH1 0x60 DUP1 SWAP2 PUSH1 0x1 PUSH1 0x1 PUSH1 0xA0 SHL SUB DUP2 MLOAD AND DUP5 MSTORE PUSH1 0x1 PUSH1 0x1 PUSH1 0xA0 SHL SUB PUSH1 0x20 DUP3 ADD MLOAD AND PUSH1 0x20 DUP6 ADD MSTORE PUSH1 0x1 PUSH1 0x1 PUSH1 0xA0 SHL SUB PUSH1 0x40 DUP3 ADD MLOAD AND PUSH1 0x40 DUP6 ADD MSTORE ADD MLOAD SWAP2 ADD MSTORE JUMP JUMPDEST GAS STATICCALL SWAP4 DUP5 ISZERO PUSH2 0x129D JUMPI DUP7 SWAP4 DUP8 SWAP6 PUSH2 0x1F6B JUMPI JUMPDEST POP PUSH1 0x1 PUSH1 0x1 PUSH1 0xA0 SHL SUB PUSH1 0x80 DUP5 ADD MLOAD AND SWAP4 PUSH1 0xE0 DUP5 ADD MLOAD SWAP9 PUSH2 0x100 DUP6 ADD MLOAD PUSH2 0x120 DUP7 ADD MLOAD PUSH1 0x3 DUP2 LT ISZERO PUSH2 0x1F57 JUMPI SWAP11 PUSH2 0x1C4D SWAP2 PUSH2 0xF36 DUP13 SWAP14 PUSH2 0x140 DUP11 ADD MLOAD SWAP3 PUSH1 0x40 MLOAD SWAP5 PUSH2 0x1C12 DUP7 PUSH2 0x2C83 JUMP JUMPDEST PUSH1 0x1 PUSH1 0x1 PUSH1 0xA0 SHL SUB DUP10 AND SWAP13 DUP14 DUP8 MSTORE PUSH1 0x20 DUP8 ADD MSTORE DUP14 PUSH1 0x40 DUP8 ADD MSTORE PUSH1 0x1 PUSH1 0x1 PUSH1 0xA0 SHL SUB DUP9 AND PUSH1 0x60 DUP8 ADD MSTORE PUSH1 0x80 DUP7 ADD MSTORE PUSH1 0xA0 DUP6 ADD MSTORE PUSH1 0xC0 DUP5 ADD PUSH2 0x30CF JUMP JUMPDEST PUSH1 0x1 PUSH1 0x1 PUSH1 0xA0 SHL SUB DUP2 AND EXTCODESIZE ISZERO PUSH2 0xC2B JUMPI PUSH1 0x40 MLOAD PUSH4 0x26B3293F PUSH1 0xE0 SHL DUP2 MSTORE PUSH1 0x1 PUSH1 0x1 PUSH1 0xA0 SHL SUB SWAP3 DUP4 AND PUSH1 0x4 DUP3 ADD MSTORE PUSH1 0x24 DUP2 ADD DUP9 SWAP1 MSTORE PUSH1 0x44 DUP2 ADD DUP10 SWAP1 MSTORE SWAP2 DUP10 SWAP2 DUP4 SWAP2 PUSH1 0x64 SWAP2 DUP4 SWAP2 CALLVALUE SWAP2 AND GAS CALL SWAP1 DUP2 ISZERO PUSH2 0x1F4C JUMPI DUP9 SWAP2 PUSH2 0x1F37 JUMPI JUMPDEST POP POP PUSH2 0x1EDC JUMPI JUMPDEST PUSH1 0x1 PUSH1 0x1 PUSH1 0xA0 SHL SUB PUSH1 0x20 DUP4 ADD MLOAD AND SWAP1 PUSH1 0x1 PUSH1 0x1 PUSH1 0xA0 SHL SUB PUSH1 0x60 DUP5 ADD MLOAD AND PUSH1 0x40 MLOAD SWAP3 PUSH2 0x1CD6 DUP5 PUSH2 0x2CA0 JUMP JUMPDEST DUP4 MSTORE DUP7 PUSH1 0x20 DUP5 ADD MSTORE CALLER PUSH1 0x40 DUP5 ADD MSTORE PUSH1 0x60 DUP4 ADD MSTORE PUSH1 0x80 DUP3 ADD MSTORE DUP3 PUSH1 0xA0 DUP3 ADD MSTORE DUP4 PUSH1 0xC0 DUP3 ADD MSTORE PUSH1 0x1 PUSH1 0x1 PUSH1 0xA0 SHL SUB PUSH1 0x4 SLOAD AND DUP1 EXTCODESIZE ISZERO PUSH2 0x125D JUMPI PUSH1 0x40 DUP1 MLOAD PUSH4 0x2B54892B PUSH1 0xE0 SHL DUP2 MSTORE DUP4 MLOAD PUSH1 0x1 PUSH1 0x1 PUSH1 0xA0 SHL SUB SWAP1 DUP2 AND PUSH1 0x4 DUP4 ADD MSTORE PUSH1 0x20 DUP6 ADD MLOAD PUSH1 0x24 DUP4 ADD MSTORE SWAP2 DUP5 ADD MLOAD DUP3 AND PUSH1 0x44 DUP3 ADD MSTORE PUSH1 0x60 DUP5 ADD MLOAD DUP3 AND PUSH1 0x64 DUP3 ADD MSTORE PUSH1 0x80 DUP5 ADD MLOAD PUSH1 0x84 DUP3 ADD MSTORE PUSH1 0xA0 DUP5 ADD MLOAD SWAP1 SWAP2 AND PUSH1 0xA4 DUP3 ADD MSTORE PUSH1 0xC0 SWAP1 SWAP3 ADD MLOAD PUSH1 0xC4 DUP4 ADD MSTORE DUP7 SWAP1 DUP3 SWAP1 PUSH1 0xE4 SWAP1 DUP3 SWAP1 DUP5 SWAP1 GAS CALL SWAP1 DUP2 ISZERO PUSH2 0x129D JUMPI DUP7 SWAP2 PUSH2 0x1EC7 JUMPI JUMPDEST POP POP PUSH1 0x1 PUSH1 0x1 PUSH1 0xA0 SHL SUB PUSH1 0x5 SLOAD AND SWAP1 DUP1 MLOAD SWAP1 PUSH1 0x1 PUSH1 0x1 PUSH1 0xA0 SHL SUB PUSH1 0x20 DUP3 ADD MLOAD AND SWAP6 PUSH1 0x24 PUSH1 0x1 PUSH1 0x1 PUSH1 0xA0 SHL SUB PUSH1 0x60 DUP5 ADD MLOAD AND SWAP6 PUSH1 0x40 DUP5 ADD MLOAD SWAP4 PUSH1 0xC0 PUSH1 0xA0 DUP3 ADD MLOAD SWAP2 ADD MLOAD SWAP2 PUSH1 0x20 PUSH1 0x1 PUSH1 0x1 PUSH1 0xA0 SHL SUB PUSH1 0x6 SLOAD AND PUSH1 0x40 MLOAD SWAP6 DUP7 DUP1 SWAP3 PUSH4 0x2EF1457 PUSH1 0xE5 SHL DUP3 MSTORE DUP10 PUSH1 0x4 DUP4 ADD MSTORE GAS STATICCALL SWAP4 DUP5 ISZERO PUSH2 0xA6D JUMPI DUP13 SWAP5 PUSH2 0x1EA6 JUMPI JUMPDEST POP DUP8 EXTCODESIZE ISZERO PUSH2 0xA38 JUMPI DUP12 SWAP10 DUP11 SWAP7 PUSH1 0x40 MLOAD SWAP13 DUP14 SWAP12 DUP13 SWAP11 DUP12 SWAP10 PUSH32 0xD972FB4800000000000000000000000000000000000000000000000000000000 DUP12 MSTORE PUSH1 0x4 DUP12 ADD MSTORE CALLER PUSH1 0x24 DUP12 ADD MSTORE PUSH1 0x44 DUP11 ADD PUSH2 0x180 SWAP1 MSTORE PUSH2 0x184 DUP11 ADD PUSH2 0x1E5E SWAP2 PUSH2 0x3116 JUMP JUMPDEST SWAP2 PUSH1 0x64 DUP11 ADD MSTORE PUSH1 0x84 DUP10 ADD MSTORE PUSH1 0x3 NOT DUP9 DUP3 SUB ADD PUSH1 0xA4 DUP10 ADD MSTORE PUSH2 0x1E7E SWAP2 PUSH2 0x3153 JUMP JUMPDEST SWAP2 PUSH1 0xC4 DUP8 ADD MSTORE PUSH1 0xE4 DUP7 ADD MSTORE TIMESTAMP PUSH2 0x104 DUP7 ADD MSTORE PUSH1 0x3 NOT DUP6 DUP3 SUB ADD PUSH2 0x124 DUP7 ADD MSTORE PUSH2 0xA13 SWAP2 PUSH2 0x3187 JUMP JUMPDEST PUSH2 0x1EC0 SWAP2 SWAP5 POP PUSH1 0x20 RETURNDATASIZE PUSH1 0x20 GT PUSH2 0xA66 JUMPI PUSH2 0xA57 DUP2 DUP4 PUSH2 0x2D11 JUMP JUMPDEST SWAP3 CODESIZE PUSH2 0x1E03 JUMP JUMPDEST DUP2 PUSH2 0x1ED1 SWAP2 PUSH2 0x2D11 JUMP JUMPDEST PUSH2 0xC33 JUMPI DUP5 CODESIZE PUSH2 0x1D8B JUMP JUMPDEST PUSH1 0x1 PUSH1 0x1 PUSH1 0xA0 SHL SUB PUSH1 0x6 SLOAD AND DUP1 EXTCODESIZE ISZERO PUSH2 0x125D JUMPI DUP7 DUP1 SWAP2 PUSH1 0x24 PUSH1 0x40 MLOAD DUP1 SWAP5 DUP2 SWAP4 PUSH4 0x5543F85 PUSH1 0xE0 SHL DUP4 MSTORE DUP12 PUSH1 0x4 DUP5 ADD MSTORE GAS CALL SWAP1 DUP2 ISZERO PUSH2 0x1228 JUMPI DUP8 SWAP2 PUSH2 0x1F22 JUMPI JUMPDEST POP POP PUSH2 0x1CAC JUMP JUMPDEST DUP2 PUSH2 0x1F2C SWAP2 PUSH2 0x2D11 JUMP JUMPDEST PUSH2 0xC2F JUMPI DUP6 CODESIZE PUSH2 0x1F1B JUMP JUMPDEST DUP2 PUSH2 0x1F41 SWAP2 PUSH2 0x2D11 JUMP JUMPDEST PUSH2 0x125D JUMPI DUP7 CODESIZE PUSH2 0x1CA5 JUMP JUMPDEST PUSH1 0x40 MLOAD RETURNDATASIZE DUP11 DUP3 RETURNDATACOPY RETURNDATASIZE SWAP1 REVERT JUMPDEST PUSH1 0x24 DUP12 PUSH4 0x4E487B71 PUSH1 0xE0 SHL DUP2 MSTORE PUSH1 0x21 PUSH1 0x4 MSTORE REVERT JUMPDEST SWAP1 SWAP5 POP PUSH2 0x1F88 SWAP2 SWAP4 POP PUSH1 0x40 RETURNDATASIZE PUSH1 0x40 GT PUSH2 0xB13 JUMPI PUSH2 0xB03 DUP2 DUP4 PUSH2 0x2D11 JUMP JUMPDEST SWAP3 SWAP1 SWAP3 SWAP4 CODESIZE PUSH2 0x1BC9 JUMP JUMPDEST DUP2 PUSH2 0x1F9C SWAP2 PUSH2 0x2D11 JUMP JUMPDEST PUSH2 0xC33 JUMPI DUP5 CODESIZE PUSH2 0x1B10 JUMP JUMPDEST DUP2 PUSH2 0x1FB1 SWAP2 PUSH2 0x2D11 JUMP JUMPDEST PUSH2 0xC33 JUMPI DUP5 CODESIZE PUSH2 0x1A51 JUMP JUMPDEST SWAP1 SWAP6 POP PUSH1 0x20 DUP2 RETURNDATASIZE PUSH1 0x20 GT PUSH2 0x1FF0 JUMPI JUMPDEST DUP2 PUSH2 0x1FD8 PUSH1 0x20 SWAP4 DUP4 PUSH2 0x2D11 JUMP JUMPDEST DUP2 ADD SUB SLT PUSH2 0xC33 JUMPI PUSH2 0x1FE9 SWAP1 PUSH2 0x2F6A JUMP JUMPDEST SWAP5 CODESIZE PUSH2 0x19EF JUMP JUMPDEST RETURNDATASIZE SWAP2 POP PUSH2 0x1FCB JUMP JUMPDEST PUSH1 0x40 MLOAD RETURNDATASIZE DUP8 DUP3 RETURNDATACOPY RETURNDATASIZE SWAP1 REVERT JUMPDEST SWAP1 POP PUSH2 0x2027 SWAP2 POP PUSH1 0x40 RETURNDATASIZE PUSH1 0x40 GT PUSH2 0x202D JUMPI JUMPDEST PUSH2 0x201F DUP2 DUP4 PUSH2 0x2D11 JUMP JUMPDEST DUP2 ADD SWAP1 PUSH2 0x30B8 JUMP JUMPDEST CODESIZE PUSH2 0x19AA JUMP JUMPDEST POP RETURNDATASIZE PUSH2 0x2015 JUMP JUMPDEST SWAP1 POP PUSH1 0x20 DUP2 RETURNDATASIZE PUSH1 0x20 GT PUSH2 0x205E JUMPI JUMPDEST DUP2 PUSH2 0x204F PUSH1 0x20 SWAP4 DUP4 PUSH2 0x2D11 JUMP JUMPDEST DUP2 ADD SUB SLT PUSH2 0xBFE JUMPI MLOAD CODESIZE PUSH2 0x1967 JUMP JUMPDEST RETURNDATASIZE SWAP2 POP PUSH2 0x2042 JUMP JUMPDEST DUP2 PUSH2 0x2070 SWAP2 PUSH2 0x2D11 JUMP JUMPDEST PUSH2 0x168 JUMPI DUP1 CODESIZE PUSH2 0x1814 JUMP JUMPDEST DUP6 MLOAD DUP4 MSTORE PUSH1 0x20 SWAP6 DUP7 ADD SWAP6 DUP9 SWAP6 POP DUP8 SWAP5 POP SWAP1 SWAP3 ADD SWAP2 PUSH1 0x1 ADD PUSH2 0x17E0 JUMP JUMPDEST DUP2 PUSH2 0x20A1 SWAP2 PUSH2 0x2D11 JUMP JUMPDEST PUSH2 0x168 JUMPI DUP1 CODESIZE PUSH2 0x1779 JUMP JUMPDEST DUP6 MLOAD PUSH1 0x1 PUSH1 0x1 PUSH1 0xA0 SHL SUB AND DUP4 MSTORE PUSH1 0x20 SWAP6 DUP7 ADD SWAP6 DUP9 SWAP6 POP DUP8 SWAP5 POP SWAP1 SWAP3 ADD SWAP2 PUSH1 0x1 ADD PUSH2 0x1745 JUMP JUMPDEST DUP2 PUSH2 0x20DB SWAP2 PUSH2 0x2D11 JUMP JUMPDEST PUSH2 0x168 JUMPI DUP1 CODESIZE PUSH2 0x16E1 JUMP JUMPDEST DUP3 DUP1 REVERT JUMPDEST DUP2 CALLDATALOAD DUP2 MSTORE PUSH1 0x20 SWAP2 DUP3 ADD SWAP2 ADD PUSH2 0x15B8 JUMP JUMPDEST PUSH1 0x20 DUP1 SWAP2 PUSH2 0x2107 DUP5 PUSH2 0x2D49 JUMP JUMPDEST DUP2 MSTORE ADD SWAP2 ADD SWAP1 PUSH2 0x153E JUMP JUMPDEST PUSH1 0x24 DUP4 PUSH4 0x4E487B71 PUSH1 0xE0 SHL DUP2 MSTORE PUSH1 0x41 PUSH1 0x4 MSTORE REVERT JUMPDEST POP CALLVALUE PUSH2 0x168 JUMPI PUSH1 0x20 CALLDATASIZE PUSH1 0x3 NOT ADD SLT PUSH2 0x168 JUMPI PUSH1 0x4 CALLDATALOAD PUSH1 0x1 PUSH1 0x1 PUSH1 0xA0 SHL SUB DUP2 AND DUP1 SWAP2 SUB PUSH2 0x225 JUMPI PUSH2 0x2154 PUSH2 0x3CDE JUMP JUMPDEST PUSH1 0x1 PUSH1 0x1 PUSH1 0xA0 SHL SUB NOT PUSH1 0x6 SLOAD AND OR PUSH1 0x6 SSTORE DUP1 RETURN JUMPDEST POP PUSH2 0x120 CALLDATASIZE PUSH1 0x3 NOT ADD SLT PUSH2 0x168 JUMPI PUSH2 0x217F CALLDATASIZE PUSH2 0x2DAE JUMP JUMPDEST SWAP1 PUSH1 0x1 PUSH1 0x1 PUSH1 0xA0 SHL SUB PUSH1 0x6 SLOAD AND SWAP2 DUP1 MLOAD SWAP1 PUSH1 0x40 MLOAD SWAP2 PUSH4 0x255709E5 PUSH1 0xE1 SHL DUP4 MSTORE PUSH1 0x4 DUP4 ADD MSTORE DUP3 DUP3 PUSH1 0x24 DUP2 DUP8 GAS STATICCALL SWAP2 DUP3 ISZERO PUSH2 0x12D0 JUMPI DUP4 SWAP3 PUSH2 0x27CB JUMPI JUMPDEST POP DUP1 MLOAD PUSH1 0x40 DUP1 MLOAD PUSH4 0x16C93723 PUSH1 0xE1 SHL DUP2 MSTORE PUSH1 0x4 DUP2 ADD SWAP3 SWAP1 SWAP3 MSTORE CALLER PUSH1 0x24 DUP4 ADD MSTORE SWAP1 SWAP5 DUP6 SWAP1 PUSH1 0x44 SWAP1 DUP3 SWAP1 DUP8 SWAP1 GAS CALL SWAP2 DUP3 ISZERO PUSH2 0x12D0 JUMPI DUP4 SWAP5 DUP5 SWAP4 PUSH2 0x27A4 JUMPI JUMPDEST POP PUSH1 0x1 PUSH1 0x1 PUSH1 0xA0 SHL SUB PUSH1 0x3 SLOAD AND SWAP5 PUSH1 0x40 DUP3 ADD PUSH1 0x20 PUSH1 0x1 PUSH1 0x1 PUSH1 0xA0 SHL SUB DUP3 MLOAD AND PUSH1 0x24 PUSH1 0x40 MLOAD DUP1 SWAP11 DUP2 SWAP4 PUSH4 0x4D0A647 PUSH1 0xE0 SHL DUP4 MSTORE PUSH1 0x4 DUP4 ADD MSTORE GAS STATICCALL SWAP7 DUP8 ISZERO PUSH2 0x129D JUMPI DUP7 SWAP8 PUSH2 0x2768 JUMPI JUMPDEST POP PUSH20 0x0 SWAP7 DUP8 EXTCODESIZE ISZERO PUSH2 0x125D JUMPI DUP7 PUSH1 0x1 PUSH1 0x1 PUSH1 0xA0 SHL SUB SWAP2 PUSH1 0x24 PUSH1 0x40 MLOAD DUP1 SWAP5 DUP2 SWAP4 PUSH4 0xBF6341CF PUSH1 0xE0 SHL DUP4 MSTORE AND SWAP12 DUP13 PUSH1 0x4 DUP4 ADD MSTORE GAS DELEGATECALL DUP1 ISZERO PUSH2 0x1228 JUMPI SWAP1 DUP8 SWAP2 PUSH2 0x2753 JUMPI JUMPDEST POP POP PUSH1 0xA0 PUSH1 0x1 PUSH1 0x1 PUSH1 0xA0 SHL SUB DUP3 MLOAD AND SWAP4 ADD SWAP3 PUSH1 0x1 PUSH1 0x1 PUSH1 0xA0 SHL SUB DUP5 MLOAD AND PUSH1 0x40 MLOAD SWAP2 PUSH2 0x22B9 DUP4 PUSH2 0x2C51 JUMP JUMPDEST DUP3 MSTORE CALLER PUSH1 0x20 DUP4 ADD MSTORE PUSH1 0x40 DUP3 ADD MSTORE DUP6 PUSH1 0x60 DUP3 ADD MSTORE PUSH1 0x1 PUSH1 0x1 PUSH1 0xA0 SHL SUB PUSH1 0x4 SLOAD AND SWAP1 DUP2 EXTCODESIZE ISZERO PUSH2 0x11B4 JUMPI PUSH2 0x233D PUSH1 0x84 DUP10 SWAP3 DUP4 PUSH1 0x40 MLOAD SWAP6 DUP7 SWAP5 DUP6 SWAP4 PUSH4 0x577ED67F PUSH1 0xE1 SHL DUP6 MSTORE PUSH1 0x4 DUP6 ADD SWAP1 PUSH1 0x60 DUP1 SWAP2 PUSH1 0x1 PUSH1 0x1 PUSH1 0xA0 SHL SUB DUP2 MLOAD AND DUP5 MSTORE PUSH1 0x1 PUSH1 0x1 PUSH1 0xA0 SHL SUB PUSH1 0x20 DUP3 ADD MLOAD AND PUSH1 0x20 DUP6 ADD MSTORE PUSH1 0x1 PUSH1 0x1 PUSH1 0xA0 SHL SUB PUSH1 0x40 DUP3 ADD MLOAD AND PUSH1 0x40 DUP6 ADD MSTORE ADD MLOAD SWAP2 ADD MSTORE JUMP JUMPDEST GAS CALL DUP1 ISZERO PUSH2 0x1228 JUMPI SWAP1 DUP8 SWAP2 PUSH2 0x273E JUMPI JUMPDEST POP POP PUSH1 0x1 PUSH1 0x1 PUSH1 0xA0 SHL SUB DUP2 MLOAD AND SWAP7 PUSH1 0x1 PUSH1 0x1 PUSH1 0xA0 SHL SUB DUP5 MLOAD AND PUSH1 0x40 MLOAD SWAP9 PUSH2 0x2373 DUP11 PUSH2 0x2C51 JUMP JUMPDEST DUP10 MSTORE CALLER PUSH1 0x20 DUP11 ADD MSTORE PUSH1 0x40 DUP10 ADD MSTORE DUP6 PUSH1 0x60 DUP10 ADD MSTORE PUSH1 0x40 PUSH2 0x23EE PUSH1 0x84 PUSH1 0x1 PUSH1 0x1 PUSH1 0xA0 SHL SUB PUSH1 0x4 SLOAD AND SWAP11 DUP4 MLOAD SWAP12 DUP13 SWAP4 DUP5 SWAP3 PUSH4 0x716FA03 PUSH1 0xE3 SHL DUP5 MSTORE PUSH1 0x4 DUP5 ADD SWAP1 PUSH1 0x60 DUP1 SWAP2 PUSH1 0x1 PUSH1 0x1 PUSH1 0xA0 SHL SUB DUP2 MLOAD AND DUP5 MSTORE PUSH1 0x1 PUSH1 0x1 PUSH1 0xA0 SHL SUB PUSH1 0x20 DUP3 ADD MLOAD AND PUSH1 0x20 DUP6 ADD MSTORE PUSH1 0x1 PUSH1 0x1 PUSH1 0xA0 SHL SUB PUSH1 0x40 DUP3 ADD MLOAD AND PUSH1 0x40 DUP6 ADD MSTORE ADD MLOAD SWAP2 ADD MSTORE JUMP JUMPDEST GAS STATICCALL SWAP3 DUP4 ISZERO PUSH2 0x1228 JUMPI DUP8 SWAP9 DUP9 SWAP5 PUSH2 0x2717 JUMPI JUMPDEST POP PUSH1 0x1 PUSH1 0x1 PUSH1 0xA0 SHL SUB PUSH1 0x20 DUP8 ADD MLOAD AND SWAP2 PUSH1 0x40 DUP8 ADD MLOAD SWAP10 PUSH1 0x60 DUP9 ADD MLOAD PUSH1 0x80 DUP10 ADD MLOAD PUSH1 0x3 DUP2 LT ISZERO PUSH2 0x11ED JUMPI SWAP12 PUSH2 0x2478 SWAP2 PUSH2 0xF36 DUP14 SWAP15 PUSH1 0xA0 DUP14 ADD MLOAD SWAP3 PUSH1 0x40 MLOAD SWAP5 PUSH2 0x2446 DUP7 PUSH2 0x2C83 JUMP JUMPDEST PUSH1 0x1 PUSH1 0x1 PUSH1 0xA0 SHL SUB DUP9 AND SWAP11 DUP12 DUP8 MSTORE PUSH1 0x20 DUP8 ADD MSTORE DUP13 PUSH1 0x40 DUP8 ADD MSTORE DUP9 PUSH1 0x60 DUP8 ADD MSTORE PUSH1 0x80 DUP7 ADD MSTORE PUSH1 0xA0 DUP6 ADD MSTORE PUSH1 0xC0 DUP5 ADD PUSH2 0x30CF JUMP JUMPDEST DUP8 MLOAD DUP3 EXTCODESIZE ISZERO PUSH2 0xAB1 JUMPI PUSH1 0x40 MLOAD PUSH4 0x26B3293F PUSH1 0xE0 SHL DUP2 MSTORE PUSH1 0x1 PUSH1 0x1 PUSH1 0xA0 SHL SUB SWAP3 SWAP1 SWAP3 AND PUSH1 0x4 DUP4 ADD MSTORE PUSH1 0x24 DUP3 ADD DUP8 SWAP1 MSTORE PUSH1 0x44 DUP3 ADD MSTORE SWAP1 DUP10 SWAP1 DUP3 SWAP1 PUSH1 0x64 SWAP1 DUP3 SWAP1 CALLVALUE SWAP1 GAS CALL SWAP1 DUP2 ISZERO PUSH2 0x11B8 JUMPI DUP10 SWAP2 PUSH2 0x2702 JUMPI JUMPDEST POP POP PUSH2 0x26A4 JUMPI JUMPDEST PUSH1 0x1 PUSH1 0x1 PUSH1 0xA0 SHL SUB DUP3 MLOAD AND DUP6 MLOAD PUSH1 0x1 PUSH1 0x1 PUSH1 0xA0 SHL SUB DUP7 MLOAD AND SWAP1 PUSH1 0x40 MLOAD SWAP3 PUSH2 0x24F4 DUP5 PUSH2 0x2CA0 JUMP JUMPDEST DUP4 MSTORE PUSH1 0x20 DUP4 ADD MSTORE CALLER PUSH1 0x40 DUP4 ADD MSTORE PUSH1 0x60 DUP3 ADD MSTORE DUP7 PUSH1 0x80 DUP3 ADD MSTORE DUP2 PUSH1 0xA0 DUP3 ADD MSTORE DUP4 PUSH1 0xC0 DUP3 ADD MSTORE PUSH1 0x1 PUSH1 0x1 PUSH1 0xA0 SHL SUB PUSH1 0x4 SLOAD AND DUP1 EXTCODESIZE ISZERO PUSH2 0xC2B JUMPI PUSH1 0x40 DUP1 MLOAD PUSH4 0x2B54892B PUSH1 0xE0 SHL DUP2 MSTORE DUP4 MLOAD PUSH1 0x1 PUSH1 0x1 PUSH1 0xA0 SHL SUB SWAP1 DUP2 AND PUSH1 0x4 DUP4 ADD MSTORE PUSH1 0x20 DUP6 ADD MLOAD PUSH1 0x24 DUP4 ADD MSTORE SWAP2 DUP5 ADD MLOAD DUP3 AND PUSH1 0x44 DUP3 ADD MSTORE PUSH1 0x60 DUP5 ADD MLOAD DUP3 AND PUSH1 0x64 DUP3 ADD MSTORE PUSH1 0x80 DUP5 ADD MLOAD PUSH1 0x84 DUP3 ADD MSTORE PUSH1 0xA0 DUP5 ADD MLOAD SWAP1 SWAP2 AND PUSH1 0xA4 DUP3 ADD MSTORE PUSH1 0xC0 SWAP1 SWAP3 ADD MLOAD PUSH1 0xC4 DUP4 ADD MSTORE DUP9 SWAP1 DUP3 SWAP1 PUSH1 0xE4 SWAP1 DUP3 SWAP1 DUP5 SWAP1 GAS CALL SWAP1 DUP2 ISZERO PUSH2 0x1F4C JUMPI DUP9 SWAP2 PUSH2 0x268F JUMPI JUMPDEST POP POP PUSH1 0x24 SWAP5 PUSH1 0x1 PUSH1 0x1 PUSH1 0xA0 SHL SUB DUP1 DUP1 PUSH1 0x5 SLOAD AND SWAP3 MLOAD SWAP5 MLOAD AND SWAP6 MLOAD AND SWAP7 PUSH1 0x20 PUSH1 0x1 PUSH1 0x1 PUSH1 0xA0 SHL SUB PUSH1 0x6 SLOAD AND PUSH1 0x40 MLOAD SWAP9 DUP10 DUP1 SWAP3 PUSH4 0x2EF1457 PUSH1 0xE5 SHL DUP3 MSTORE DUP9 PUSH1 0x4 DUP4 ADD MSTORE GAS STATICCALL SWAP7 DUP8 ISZERO PUSH2 0x11B8 JUMPI DUP10 SWAP8 PUSH2 0x266E JUMPI JUMPDEST POP DUP2 EXTCODESIZE ISZERO PUSH2 0xC2B JUMPI DUP9 SWAP7 PUSH2 0x124 SWAP6 DUP9 SWAP5 PUSH2 0x1171 SWAP4 PUSH1 0x40 MLOAD SWAP12 DUP13 SWAP11 DUP12 SWAP10 PUSH32 0xD3ECA8EE00000000000000000000000000000000000000000000000000000000 DUP12 MSTORE PUSH1 0x4 DUP12 ADD MSTORE CALLER PUSH1 0x24 DUP12 ADD MSTORE PUSH1 0x44 DUP11 ADD MSTORE PUSH1 0x64 DUP10 ADD MSTORE PUSH1 0x84 DUP9 ADD MSTORE PUSH1 0xA4 DUP8 ADD MSTORE PUSH1 0xC4 DUP7 ADD MSTORE TIMESTAMP PUSH1 0xE4 DUP7 ADD MSTORE PUSH2 0x104 DUP6 ADD SWAP1 PUSH2 0x3109 JUMP JUMPDEST PUSH2 0x2688 SWAP2 SWAP8 POP PUSH1 0x20 RETURNDATASIZE PUSH1 0x20 GT PUSH2 0xA66 JUMPI PUSH2 0xA57 DUP2 DUP4 PUSH2 0x2D11 JUMP JUMPDEST SWAP6 CODESIZE PUSH2 0x25FA JUMP JUMPDEST DUP2 PUSH2 0x2699 SWAP2 PUSH2 0x2D11 JUMP JUMPDEST PUSH2 0x125D JUMPI DUP7 CODESIZE PUSH2 0x25A9 JUMP JUMPDEST PUSH1 0x1 PUSH1 0x1 PUSH1 0xA0 SHL SUB PUSH1 0x6 SLOAD AND DUP6 MLOAD DUP2 EXTCODESIZE ISZERO PUSH2 0xC2B JUMPI DUP9 SWAP2 PUSH1 0x24 DUP4 SWAP3 PUSH1 0x40 MLOAD SWAP5 DUP6 SWAP4 DUP5 SWAP3 PUSH4 0x5543F85 PUSH1 0xE0 SHL DUP5 MSTORE PUSH1 0x4 DUP5 ADD MSTORE GAS CALL SWAP1 DUP2 ISZERO PUSH2 0x1F4C JUMPI DUP9 SWAP2 PUSH2 0x26ED JUMPI JUMPDEST POP POP PUSH2 0x24CE JUMP JUMPDEST DUP2 PUSH2 0x26F7 SWAP2 PUSH2 0x2D11 JUMP JUMPDEST PUSH2 0x125D JUMPI DUP7 CODESIZE PUSH2 0x26E6 JUMP JUMPDEST DUP2 PUSH2 0x270C SWAP2 PUSH2 0x2D11 JUMP JUMPDEST PUSH2 0x11B4 JUMPI DUP8 CODESIZE PUSH2 0x24C7 JUMP JUMPDEST SWAP1 SWAP4 POP PUSH2 0x2734 SWAP2 SWAP9 POP PUSH1 0x40 RETURNDATASIZE PUSH1 0x40 GT PUSH2 0xB13 JUMPI PUSH2 0xB03 DUP2 DUP4 PUSH2 0x2D11 JUMP JUMPDEST SWAP8 SWAP1 SWAP8 SWAP3 CODESIZE PUSH2 0x2400 JUMP JUMPDEST DUP2 PUSH2 0x2748 SWAP2 PUSH2 0x2D11 JUMP JUMPDEST PUSH2 0xC2F JUMPI DUP6 CODESIZE PUSH2 0x234D JUMP JUMPDEST DUP2 PUSH2 0x275D SWAP2 PUSH2 0x2D11 JUMP JUMPDEST PUSH2 0xC2F JUMPI DUP6 CODESIZE PUSH2 0x228F JUMP JUMPDEST SWAP1 SWAP7 POP PUSH1 0x20 DUP2 RETURNDATASIZE PUSH1 0x20 GT PUSH2 0x279C JUMPI JUMPDEST DUP2 PUSH2 0x2784 PUSH1 0x20 SWAP4 DUP4 PUSH2 0x2D11 JUMP JUMPDEST DUP2 ADD SUB SLT PUSH2 0xC2F JUMPI PUSH2 0x2795 SWAP1 PUSH2 0x2F6A JUMP JUMPDEST SWAP6 CODESIZE PUSH2 0x223C JUMP JUMPDEST RETURNDATASIZE SWAP2 POP PUSH2 0x2777 JUMP JUMPDEST SWAP1 SWAP3 POP PUSH2 0x27C1 SWAP2 SWAP5 POP PUSH1 0x40 RETURNDATASIZE PUSH1 0x40 GT PUSH2 0x202D JUMPI PUSH2 0x201F DUP2 DUP4 PUSH2 0x2D11 JUMP JUMPDEST SWAP4 SWAP1 SWAP4 SWAP2 CODESIZE PUSH2 0x21F5 JUMP JUMPDEST SWAP4 SWAP2 POP RETURNDATASIZE DUP1 DUP5 DUP7 RETURNDATACOPY PUSH2 0x27DD DUP2 DUP7 PUSH2 0x2D11 JUMP JUMPDEST DUP5 ADD SWAP4 PUSH1 0x20 DUP2 DUP7 SUB SLT PUSH2 0x1406 JUMPI DUP1 MLOAD SWAP1 PUSH8 0xFFFFFFFFFFFFFFFF DUP3 GT PUSH2 0xC33 JUMPI ADD SWAP4 PUSH2 0x140 DUP6 DUP3 SUB SLT PUSH2 0x1406 JUMPI PUSH1 0x40 MLOAD SWAP1 PUSH2 0x140 DUP3 ADD DUP3 DUP2 LT PUSH8 0xFFFFFFFFFFFFFFFF DUP3 GT OR PUSH2 0x2A08 JUMPI PUSH1 0x40 MSTORE PUSH2 0x2831 DUP7 PUSH2 0x2F6A JUMP JUMPDEST DUP3 MSTORE PUSH1 0x20 DUP7 ADD MLOAD PUSH8 0xFFFFFFFFFFFFFFFF DUP2 GT PUSH2 0xC2F JUMPI DUP7 ADD DUP2 PUSH1 0x1F DUP3 ADD SLT ISZERO PUSH2 0xC2F JUMPI DUP1 MLOAD SWAP1 PUSH2 0x2860 DUP3 PUSH2 0x2E1B JUMP JUMPDEST SWAP2 PUSH2 0x286E PUSH1 0x40 MLOAD SWAP4 DUP5 PUSH2 0x2D11 JUMP JUMPDEST DUP1 DUP4 MSTORE PUSH1 0x20 DUP1 DUP5 ADD SWAP2 PUSH1 0x5 SHL DUP4 ADD ADD SWAP2 DUP5 DUP4 GT PUSH2 0xC2B JUMPI PUSH1 0x20 ADD SWAP1 JUMPDEST DUP3 DUP3 LT PUSH2 0x29F0 JUMPI POP POP POP PUSH1 0x20 DUP4 ADD MSTORE PUSH2 0x28A5 PUSH1 0x40 DUP8 ADD PUSH2 0x2F6A JUMP JUMPDEST PUSH1 0x40 DUP4 ADD MSTORE PUSH1 0x60 DUP7 ADD MLOAD PUSH8 0xFFFFFFFFFFFFFFFF DUP2 GT PUSH2 0xC2F JUMPI DUP2 PUSH2 0x28CA SWAP2 DUP9 ADD PUSH2 0x2F9B JUMP JUMPDEST PUSH1 0x60 DUP4 ADD MSTORE PUSH1 0x80 DUP7 ADD MLOAD PUSH8 0xFFFFFFFFFFFFFFFF DUP2 GT PUSH2 0xC2F JUMPI DUP7 ADD SWAP6 DUP2 PUSH1 0x1F DUP9 ADD SLT ISZERO PUSH2 0xC2F JUMPI DUP7 MLOAD SWAP7 PUSH2 0x28FD DUP9 PUSH2 0x2E1B JUMP JUMPDEST SWAP1 PUSH2 0x290B PUSH1 0x40 MLOAD SWAP3 DUP4 PUSH2 0x2D11 JUMP JUMPDEST DUP9 DUP3 MSTORE PUSH1 0x20 DUP1 DUP4 ADD SWAP10 PUSH1 0x5 SHL DUP3 ADD ADD SWAP1 DUP5 DUP3 GT PUSH2 0xC2B JUMPI PUSH1 0x20 ADD SWAP9 JUMPDEST DUP2 DUP11 LT PUSH2 0x29D8 JUMPI POP POP DUP7 SWAP8 POP PUSH1 0x80 DUP5 ADD MSTORE PUSH2 0x2944 PUSH1 0xA0 DUP3 ADD PUSH2 0x2F6A JUMP JUMPDEST PUSH1 0xA0 DUP5 ADD MSTORE PUSH1 0xC0 DUP2 ADD MLOAD PUSH8 0xFFFFFFFFFFFFFFFF DUP2 GT PUSH2 0x125D JUMPI DUP3 PUSH2 0x2969 SWAP2 DUP4 ADD PUSH2 0x2F9B JUMP JUMPDEST PUSH1 0xC0 DUP5 ADD MSTORE PUSH1 0xE0 DUP2 ADD MLOAD PUSH8 0xFFFFFFFFFFFFFFFF DUP2 GT PUSH2 0x125D JUMPI DUP3 PUSH2 0x298E SWAP2 DUP4 ADD PUSH2 0x3028 JUMP JUMPDEST PUSH1 0xE0 DUP5 ADD MSTORE PUSH2 0x100 DUP2 ADD MLOAD PUSH8 0xFFFFFFFFFFFFFFFF DUP2 GT PUSH2 0x125D JUMPI PUSH2 0x120 SWAP3 PUSH2 0x29B7 SWAP2 DUP4 ADD PUSH2 0x306D JUMP JUMPDEST PUSH2 0x100 DUP5 ADD MSTORE ADD MLOAD PUSH1 0x4 DUP2 LT ISZERO PUSH2 0xC33 JUMPI PUSH2 0x120 DUP3 ADD MSTORE SWAP2 SWAP4 POP PUSH1 0x40 PUSH2 0x21B9 JUMP JUMPDEST PUSH1 0x20 DUP1 SWAP2 PUSH2 0x29E5 DUP13 PUSH2 0x2FF8 JUMP JUMPDEST DUP2 MSTORE ADD SWAP10 ADD SWAP9 PUSH2 0x2927 JUMP JUMPDEST PUSH1 0x20 DUP1 SWAP2 PUSH2 0x29FD DUP5 PUSH2 0x2F6A JUMP JUMPDEST DUP2 MSTORE ADD SWAP2 ADD SWAP1 PUSH2 0x288A JUMP JUMPDEST PUSH1 0x24 DUP7 PUSH4 0x4E487B71 PUSH1 0xE0 SHL DUP2 MSTORE PUSH1 0x41 PUSH1 0x4 MSTORE REVERT JUMPDEST POP CALLVALUE PUSH2 0x168 JUMPI PUSH1 0x20 CALLDATASIZE PUSH1 0x3 NOT ADD SLT PUSH2 0x168 JUMPI PUSH1 0x40 MLOAD SWAP1 PUSH1 0x20 DUP3 ADD DUP3 DUP2 LT PUSH8 0xFFFFFFFFFFFFFFFF DUP3 GT OR PUSH2 0x2B1C JUMPI PUSH1 0x40 MSTORE PUSH1 0x4 CALLDATALOAD DUP1 DUP4 MSTORE PUSH1 0x1 PUSH1 0x1 PUSH1 0xA0 SHL SUB PUSH1 0x7 SLOAD AND SWAP1 DUP2 EXTCODESIZE ISZERO PUSH2 0x20E6 JUMPI DUP3 SWAP2 PUSH1 0x44 DUP4 SWAP3 PUSH1 0x40 MLOAD SWAP5 DUP6 SWAP4 DUP5 SWAP3 PUSH32 0x3ED5027500000000000000000000000000000000000000000000000000000000 DUP5 MSTORE CALLER PUSH1 0x4 DUP6 ADD MSTORE PUSH1 0x24 DUP5 ADD MSTORE GAS CALL DUP1 ISZERO PUSH2 0x1D4 JUMPI PUSH2 0x2B0C JUMPI JUMPDEST POP DUP1 SWAP2 PUSH1 0x1 PUSH1 0x1 PUSH1 0xA0 SHL SUB PUSH1 0x5 SLOAD AND SWAP1 MLOAD DUP2 EXTCODESIZE ISZERO PUSH2 0x1DF JUMPI DUP3 SWAP2 PUSH1 0x24 DUP4 SWAP3 PUSH1 0x40 MLOAD SWAP5 DUP6 SWAP4 DUP5 SWAP3 PUSH32 0xB60269D000000000000000000000000000000000000000000000000000000000 DUP5 MSTORE PUSH1 0x4 DUP5 ADD MSTORE GAS CALL DUP1 ISZERO PUSH2 0x1D4 JUMPI PUSH2 0x1C3 JUMPI POP RETURN JUMPDEST DUP2 PUSH2 0x2B16 SWAP2 PUSH2 0x2D11 JUMP JUMPDEST CODESIZE PUSH2 0x2AAF JUMP JUMPDEST PUSH1 0x24 DUP3 PUSH4 0x4E487B71 PUSH1 0xE0 SHL DUP2 MSTORE PUSH1 0x41 PUSH1 0x4 MSTORE REVERT JUMPDEST DUP3 CALLVALUE PUSH2 0x168 JUMPI PUSH1 0x80 CALLDATASIZE PUSH1 0x3 NOT ADD SLT PUSH2 0x168 JUMPI PUSH2 0x2B4B DUP3 PUSH2 0x2C51 JUMP JUMPDEST PUSH2 0x2B53 PUSH2 0x2D33 JUMP JUMPDEST DUP3 MSTORE PUSH1 0x24 CALLDATALOAD PUSH1 0x1 PUSH1 0x1 PUSH1 0xA0 SHL SUB DUP2 AND DUP2 SUB PUSH2 0x225 JUMPI PUSH1 0x20 DUP4 ADD MSTORE PUSH1 0x44 CALLDATALOAD PUSH1 0x1 PUSH1 0x1 PUSH1 0xA0 SHL SUB DUP2 AND DUP2 SUB PUSH2 0x225 JUMPI PUSH1 0x40 DUP4 ADD MSTORE PUSH1 0x64 CALLDATALOAD PUSH1 0x60 DUP4 ADD MSTORE PUSH1 0x40 PUSH2 0x2BF5 PUSH1 0x84 PUSH1 0x1 PUSH1 0x1 PUSH1 0xA0 SHL SUB PUSH1 0x4 SLOAD AND SWAP5 DUP4 MLOAD SWAP6 DUP7 SWAP4 DUP5 SWAP3 PUSH4 0x716FA03 PUSH1 0xE3 SHL DUP5 MSTORE PUSH1 0x4 DUP5 ADD SWAP1 PUSH1 0x60 DUP1 SWAP2 PUSH1 0x1 PUSH1 0x1 PUSH1 0xA0 SHL SUB DUP2 MLOAD AND DUP5 MSTORE PUSH1 0x1 PUSH1 0x1 PUSH1 0xA0 SHL SUB PUSH1 0x20 DUP3 ADD MLOAD AND PUSH1 0x20 DUP6 ADD MSTORE PUSH1 0x1 PUSH1 0x1 PUSH1 0xA0 SHL SUB PUSH1 0x40 DUP3 ADD MLOAD AND PUSH1 0x40 DUP6 ADD MSTORE ADD MLOAD SWAP2 ADD MSTORE JUMP JUMPDEST GAS STATICCALL SWAP2 DUP3 ISZERO PUSH2 0x2C44 JUMPI DUP2 SWAP3 PUSH2 0x2C22 JUMPI JUMPDEST POP PUSH1 0x40 DUP1 MLOAD PUSH1 0x1 PUSH1 0x1 PUSH1 0xA0 SHL SUB SWAP3 SWAP1 SWAP3 AND DUP3 MSTORE PUSH1 0x20 DUP3 ADD SWAP3 SWAP1 SWAP3 MSTORE RETURN JUMPDEST SWAP1 POP PUSH2 0x2C3D SWAP2 POP PUSH1 0x40 RETURNDATASIZE PUSH1 0x40 GT PUSH2 0xB13 JUMPI PUSH2 0xB03 DUP2 DUP4 PUSH2 0x2D11 JUMP JUMPDEST SWAP1 DUP3 PUSH2 0x2C05 JUMP JUMPDEST POP PUSH1 0x40 MLOAD SWAP1 RETURNDATASIZE SWAP1 DUP3 RETURNDATACOPY RETURNDATASIZE SWAP1 REVERT JUMPDEST PUSH1 0x80 DUP2 ADD SWAP1 DUP2 LT PUSH8 0xFFFFFFFFFFFFFFFF DUP3 GT OR PUSH2 0x2C6D JUMPI PUSH1 0x40 MSTORE JUMP JUMPDEST PUSH4 0x4E487B71 PUSH1 0xE0 SHL PUSH1 0x0 MSTORE PUSH1 0x41 PUSH1 0x4 MSTORE PUSH1 0x24 PUSH1 0x0 REVERT JUMPDEST PUSH2 0x100 DUP2 ADD SWAP1 DUP2 LT PUSH8 0xFFFFFFFFFFFFFFFF DUP3 GT OR PUSH2 0x2C6D JUMPI PUSH1 0x40 MSTORE JUMP JUMPDEST PUSH1 0xE0 DUP2 ADD SWAP1 DUP2 LT PUSH8 0xFFFFFFFFFFFFFFFF DUP3 GT OR PUSH2 0x2C6D JUMPI PUSH1 0x40 MSTORE JUMP JUMPDEST PUSH2 0x120 DUP2 ADD SWAP1 DUP2 LT PUSH8 0xFFFFFFFFFFFFFFFF DUP3 GT OR PUSH2 0x2C6D JUMPI PUSH1 0x40 MSTORE JUMP JUMPDEST PUSH1 0xC0 DUP2 ADD SWAP1 DUP2 LT PUSH8 0xFFFFFFFFFFFFFFFF DUP3 GT OR PUSH2 0x2C6D JUMPI PUSH1 0x40 MSTORE JUMP JUMPDEST PUSH1 0x40 DUP2 ADD SWAP1 DUP2 LT PUSH8 0xFFFFFFFFFFFFFFFF DUP3 GT OR PUSH2 0x2C6D JUMPI PUSH1 0x40 MSTORE JUMP JUMPDEST SWAP1 PUSH1 0x1F DUP1 NOT SWAP2 ADD AND DUP2 ADD SWAP1 DUP2 LT PUSH8 0xFFFFFFFFFFFFFFFF DUP3 GT OR PUSH2 0x2C6D JUMPI PUSH1 0x40 MSTORE JUMP JUMPDEST PUSH1 0x4 CALLDATALOAD SWAP1 PUSH1 0x1 PUSH1 0x1 PUSH1 0xA0 SHL SUB DUP3 AND DUP3 SUB PUSH2 0xBFE JUMPI JUMP JUMPDEST CALLDATALOAD SWAP1 PUSH1 0x1 PUSH1 0x1 PUSH1 0xA0 SHL SUB DUP3 AND DUP3 SUB PUSH2 0xBFE JUMPI JUMP JUMPDEST CALLDATALOAD SWAP1 PUSH1 0xFF DUP3 AND DUP3 SUB PUSH2 0xBFE JUMPI JUMP JUMPDEST SWAP2 SWAP1 DUP3 PUSH1 0x80 SWAP2 SUB SLT PUSH2 0xBFE JUMPI PUSH1 0x40 MLOAD PUSH2 0x2D83 DUP2 PUSH2 0x2C51 JUMP JUMPDEST PUSH1 0x60 DUP1 DUP3 SWAP5 DUP1 CALLDATALOAD DUP5 MSTORE PUSH2 0x2D98 PUSH1 0x20 DUP3 ADD PUSH2 0x2D5D JUMP JUMPDEST PUSH1 0x20 DUP6 ADD MSTORE PUSH1 0x40 DUP2 ADD CALLDATALOAD PUSH1 0x40 DUP6 ADD MSTORE ADD CALLDATALOAD SWAP2 ADD MSTORE JUMP JUMPDEST SWAP1 PUSH2 0x120 PUSH1 0x3 NOT DUP4 ADD SLT PUSH2 0xBFE JUMPI PUSH1 0x40 MLOAD PUSH2 0x2DC8 DUP2 PUSH2 0x2CD9 JUMP JUMPDEST DUP1 SWAP3 PUSH1 0x4 CALLDATALOAD DUP3 MSTORE PUSH1 0x24 CALLDATALOAD PUSH1 0x1 PUSH1 0x1 PUSH1 0xA0 SHL SUB DUP2 AND DUP2 SUB PUSH2 0xBFE JUMPI PUSH1 0x20 DUP4 ADD MSTORE PUSH1 0x44 CALLDATALOAD PUSH1 0x40 DUP4 ADD MSTORE PUSH1 0x64 CALLDATALOAD PUSH1 0x60 DUP4 ADD MSTORE PUSH1 0x84 CALLDATALOAD PUSH1 0x3 DUP2 LT ISZERO PUSH2 0xBFE JUMPI PUSH1 0xA0 SWAP2 PUSH2 0x2E16 SWAP2 PUSH1 0x80 DUP6 ADD MSTORE PUSH1 0xA4 PUSH2 0x2D6B JUMP JUMPDEST SWAP2 ADD MSTORE JUMP JUMPDEST PUSH8 0xFFFFFFFFFFFFFFFF DUP2 GT PUSH2 0x2C6D JUMPI PUSH1 0x5 SHL PUSH1 0x20 ADD SWAP1 JUMP JUMPDEST PUSH8 0xFFFFFFFFFFFFFFFF DUP2 GT PUSH2 0x2C6D JUMPI PUSH1 0x1F ADD PUSH1 0x1F NOT AND PUSH1 0x20 ADD SWAP1 JUMP JUMPDEST DUP2 PUSH1 0x1F DUP3 ADD SLT ISZERO PUSH2 0xBFE JUMPI DUP1 CALLDATALOAD SWAP1 PUSH2 0x2E66 DUP3 PUSH2 0x2E33 JUMP JUMPDEST SWAP3 PUSH2 0x2E74 PUSH1 0x40 MLOAD SWAP5 DUP6 PUSH2 0x2D11 JUMP JUMPDEST DUP3 DUP5 MSTORE PUSH1 0x20 DUP4 DUP4 ADD ADD GT PUSH2 0xBFE JUMPI DUP2 PUSH1 0x0 SWAP3 PUSH1 0x20 DUP1 SWAP4 ADD DUP4 DUP7 ADD CALLDATACOPY DUP4 ADD ADD MSTORE SWAP1 JUMP JUMPDEST SWAP2 SWAP1 PUSH1 0x40 DUP4 DUP3 SUB SLT PUSH2 0xBFE JUMPI PUSH1 0x40 MLOAD SWAP1 PUSH2 0x2EAF DUP3 PUSH2 0x2CF5 JUMP JUMPDEST DUP2 SWAP4 PUSH2 0x2EBA DUP2 PUSH2 0x2D5D JUMP JUMPDEST DUP4 MSTORE PUSH1 0x20 DUP2 ADD CALLDATALOAD SWAP2 PUSH8 0xFFFFFFFFFFFFFFFF DUP4 GT PUSH2 0xBFE JUMPI PUSH1 0x20 SWAP3 PUSH2 0x2E16 SWAP3 ADD PUSH2 0x2E4F JUMP JUMPDEST PUSH1 0x20 PUSH1 0x3 NOT DUP3 ADD SLT PUSH2 0xBFE JUMPI PUSH1 0x4 CALLDATALOAD PUSH8 0xFFFFFFFFFFFFFFFF DUP2 GT PUSH2 0xBFE JUMPI PUSH1 0x60 DUP2 DUP4 SUB PUSH1 0x3 NOT ADD SLT PUSH2 0xBFE JUMPI PUSH1 0x40 MLOAD SWAP2 PUSH1 0x60 DUP4 ADD DUP4 DUP2 LT PUSH8 0xFFFFFFFFFFFFFFFF DUP3 GT OR PUSH2 0x2C6D JUMPI PUSH1 0x40 MSTORE PUSH2 0x2F34 DUP3 PUSH1 0x4 ADD PUSH2 0x2D49 JUMP JUMPDEST DUP4 MSTORE PUSH1 0x24 DUP3 ADD CALLDATALOAD PUSH1 0x20 DUP5 ADD MSTORE PUSH1 0x44 DUP3 ADD CALLDATALOAD SWAP2 PUSH8 0xFFFFFFFFFFFFFFFF DUP4 GT PUSH2 0xBFE JUMPI PUSH2 0x2F62 SWAP3 ADD PUSH1 0x4 ADD PUSH2 0x2E4F JUMP JUMPDEST PUSH1 0x40 DUP3 ADD MSTORE SWAP1 JUMP JUMPDEST MLOAD SWAP1 PUSH1 0x1 PUSH1 0x1 PUSH1 0xA0 SHL SUB DUP3 AND DUP3 SUB PUSH2 0xBFE JUMPI JUMP JUMPDEST SWAP2 SWAP1 DUP3 PUSH1 0x40 SWAP2 SUB SLT PUSH2 0xBFE JUMPI PUSH1 0x20 PUSH2 0x2F95 DUP4 PUSH2 0x2F6A JUMP JUMPDEST SWAP3 ADD MLOAD SWAP1 JUMP JUMPDEST SWAP1 DUP1 PUSH1 0x1F DUP4 ADD SLT ISZERO PUSH2 0xBFE JUMPI DUP2 MLOAD PUSH2 0x2FB2 DUP2 PUSH2 0x2E1B JUMP JUMPDEST SWAP3 PUSH2 0x2FC0 PUSH1 0x40 MLOAD SWAP5 DUP6 PUSH2 0x2D11 JUMP JUMPDEST DUP2 DUP5 MSTORE PUSH1 0x20 DUP1 DUP6 ADD SWAP3 PUSH1 0x5 SHL DUP3 ADD ADD SWAP3 DUP4 GT PUSH2 0xBFE JUMPI PUSH1 0x20 ADD SWAP1 JUMPDEST DUP3 DUP3 LT PUSH2 0x2FE8 JUMPI POP POP POP SWAP1 JUMP JUMPDEST DUP2 MLOAD DUP2 MSTORE PUSH1 0x20 SWAP2 DUP3 ADD SWAP2 ADD PUSH2 0x2FDB JUMP JUMPDEST MLOAD SWAP1 DUP2 ISZERO ISZERO DUP3 SUB PUSH2 0xBFE JUMPI JUMP JUMPDEST PUSH1 0x0 JUMPDEST DUP4 DUP2 LT PUSH2 0x3018 JUMPI POP POP PUSH1 0x0 SWAP2 ADD MSTORE JUMP JUMPDEST DUP2 DUP2 ADD MLOAD DUP4 DUP3 ADD MSTORE PUSH1 0x20 ADD PUSH2 0x3008 JUMP JUMPDEST DUP2 PUSH1 0x1F DUP3 ADD SLT ISZERO PUSH2 0xBFE JUMPI DUP1 MLOAD PUSH2 0x303E DUP2 PUSH2 0x2E33 JUMP JUMPDEST SWAP3 PUSH2 0x304C PUSH1 0x40 MLOAD SWAP5 DUP6 PUSH2 0x2D11 JUMP JUMPDEST DUP2 DUP5 MSTORE PUSH1 0x20 DUP3 DUP5 ADD ADD GT PUSH2 0xBFE JUMPI PUSH2 0x306A SWAP2 PUSH1 0x20 DUP1 DUP6 ADD SWAP2 ADD PUSH2 0x3005 JUMP JUMPDEST SWAP1 JUMP JUMPDEST SWAP2 SWAP1 PUSH1 0x40 DUP4 DUP3 SUB SLT PUSH2 0xBFE JUMPI PUSH1 0x40 MLOAD SWAP1 PUSH2 0x3086 DUP3 PUSH2 0x2CF5 JUMP JUMPDEST DUP2 SWAP4 DUP1 MLOAD PUSH1 0xFF DUP2 AND DUP2 SUB PUSH2 0xBFE JUMPI DUP4 MSTORE PUSH1 0x20 DUP2 ADD MLOAD SWAP2 PUSH8 0xFFFFFFFFFFFFFFFF DUP4 GT PUSH2 0xBFE JUMPI PUSH1 0x20 SWAP3 PUSH2 0x2E16 SWAP3 ADD PUSH2 0x3028 JUMP JUMPDEST SWAP2 SWAP1 DUP3 PUSH1 0x40 SWAP2 SUB SLT PUSH2 0xBFE JUMPI PUSH1 0x20 PUSH2 0x2F95 DUP4 PUSH2 0x2FF8 JUMP JUMPDEST PUSH1 0x3 DUP3 LT ISZERO PUSH2 0x30DB JUMPI MSTORE JUMP JUMPDEST PUSH4 0x4E487B71 PUSH1 0xE0 SHL PUSH1 0x0 MSTORE PUSH1 0x21 PUSH1 0x4 MSTORE PUSH1 0x24 PUSH1 0x0 REVERT JUMPDEST SWAP1 DUP2 PUSH1 0x20 SWAP2 SUB SLT PUSH2 0xBFE JUMPI MLOAD PUSH1 0x4 DUP2 LT ISZERO PUSH2 0xBFE JUMPI SWAP1 JUMP JUMPDEST SWAP1 PUSH1 0x4 DUP3 LT ISZERO PUSH2 0x30DB JUMPI MSTORE JUMP JUMPDEST SWAP1 PUSH1 0x20 DUP1 DUP4 MLOAD SWAP3 DUP4 DUP2 MSTORE ADD SWAP3 ADD SWAP1 PUSH1 0x0 JUMPDEST DUP2 DUP2 LT PUSH2 0x3134 JUMPI POP POP POP SWAP1 JUMP JUMPDEST DUP3 MLOAD PUSH1 0x1 PUSH1 0x1 PUSH1 0xA0 SHL SUB AND DUP5 MSTORE PUSH1 0x20 SWAP4 DUP5 ADD SWAP4 SWAP1 SWAP3 ADD SWAP2 PUSH1 0x1 ADD PUSH2 0x3127 JUMP JUMPDEST SWAP1 PUSH1 0x20 DUP1 DUP4 MLOAD SWAP3 DUP4 DUP2 MSTORE ADD SWAP3 ADD SWAP1 PUSH1 0x0 JUMPDEST DUP2 DUP2 LT PUSH2 0x3171 JUMPI POP POP POP SWAP1 JUMP JUMPDEST DUP3 MLOAD DUP5 MSTORE PUSH1 0x20 SWAP4 DUP5 ADD SWAP4 SWAP1 SWAP3 ADD SWAP2 PUSH1 0x1 ADD PUSH2 0x3164 JUMP JUMPDEST SWAP1 PUSH1 0x20 SWAP2 PUSH2 0x31A0 DUP2 MLOAD DUP1 SWAP3 DUP2 DUP6 MSTORE DUP6 DUP1 DUP7 ADD SWAP2 ADD PUSH2 0x3005 JUMP JUMPDEST PUSH1 0x1F ADD PUSH1 0x1F NOT AND ADD ADD SWAP1 JUMP JUMPDEST SWAP1 PUSH1 0x40 PUSH1 0x20 PUSH2 0x306A SWAP4 PUSH1 0xFF DUP2 MLOAD AND DUP5 MSTORE ADD MLOAD SWAP2 DUP2 PUSH1 0x20 DUP3 ADD MSTORE ADD SWAP1 PUSH2 0x3187 JUMP JUMPDEST SWAP1 PUSH1 0x3 DUP3 LT ISZERO PUSH2 0x30DB JUMPI MSTORE JUMP JUMPDEST PUSH1 0x80 PUSH1 0x40 PUSH2 0x306A SWAP4 PUSH1 0x20 DUP5 MSTORE PUSH1 0x1 PUSH1 0x1 PUSH1 0xA0 SHL SUB DUP2 MLOAD AND PUSH1 0x20 DUP6 ADD MSTORE PUSH1 0x20 DUP2 ADD MLOAD DUP3 DUP6 ADD MSTORE ADD MLOAD SWAP2 PUSH1 0x60 DUP1 DUP3 ADD MSTORE ADD SWAP1 PUSH2 0x3187 JUMP JUMPDEST SWAP1 DUP2 PUSH1 0x60 SWAP2 SUB SLT PUSH2 0xBFE JUMPI DUP1 MLOAD SWAP2 PUSH1 0x40 PUSH2 0x2F95 PUSH1 0x20 DUP5 ADD PUSH2 0x2F6A JUMP JUMPDEST ISZERO PUSH2 0x3232 JUMPI POP JUMP JUMPDEST PUSH2 0x3270 SWAP1 PUSH1 0x40 MLOAD SWAP2 DUP3 SWAP2 PUSH32 0x8C379A000000000000000000000000000000000000000000000000000000000 DUP4 MSTORE PUSH1 0x20 PUSH1 0x4 DUP5 ADD MSTORE PUSH1 0x24 DUP4 ADD SWAP1 PUSH2 0x3187 JUMP JUMPDEST SUB SWAP1 REVERT JUMPDEST PUSH2 0x32F6 SWAP1 SWAP3 SWAP2 SWAP3 PUSH1 0xA0 DUP1 PUSH2 0x120 DUP4 ADD SWAP6 PUSH1 0x1 PUSH1 0x1 PUSH1 0xA0 SHL SUB DUP2 MLOAD AND DUP5 MSTORE PUSH1 0x1 PUSH1 0x1 PUSH1 0xA0 SHL SUB PUSH1 0x20 DUP3 ADD MLOAD AND PUSH1 0x20 DUP6 ADD MSTORE PUSH1 0x40 DUP2 ADD MLOAD PUSH1 0x40 DUP6 ADD MSTORE PUSH1 0x1 PUSH1 0x1 PUSH1 0xA0 SHL SUB PUSH1 0x60 DUP3 ADD MLOAD AND PUSH1 0x60 DUP6 ADD MSTORE PUSH1 0x80 DUP2 ADD MLOAD PUSH1 0x80 DUP6 ADD MSTORE ADD MLOAD SWAP2 ADD SWAP1 PUSH1 0x60 DUP1 SWAP2 DUP1 MLOAD DUP5 MSTORE PUSH1 0xFF PUSH1 0x20 DUP3 ADD MLOAD AND PUSH1 0x20 DUP6 ADD MSTORE PUSH1 0x40 DUP2 ADD MLOAD PUSH1 0x40 DUP6 ADD MSTORE ADD MLOAD SWAP2 ADD MSTORE JUMP JUMPDEST JUMP JUMPDEST SWAP1 PUSH1 0x0 SWAP2 PUSH1 0x1 PUSH1 0x1 PUSH1 0xA0 SHL SUB DUP2 MLOAD AND DUP1 ISZERO PUSH1 0x0 EQ PUSH2 0x3C55 JUMPI POP CALLER BALANCE SWAP1 JUMPDEST PUSH1 0x40 DUP2 ADD SWAP2 DUP3 MLOAD DUP1 DUP3 LT ISZERO PUSH2 0x3B6E JUMPI POP DUP1 PUSH2 0x3A9C JUMPI JUMPDEST DUP3 MLOAD SWAP1 DUP2 SUB SWAP1 DUP2 GT PUSH2 0x3A88 JUMPI PUSH1 0xC0 DUP3 ADD DUP1 MLOAD PUSH1 0x3 DUP2 LT ISZERO PUSH2 0x3A74 JUMPI PUSH1 0x1 SUB PUSH2 0x36D1 JUMPI POP DUP5 PUSH1 0x20 DUP4 ADD SWAP2 PUSH1 0x1 PUSH1 0x1 PUSH1 0xA0 SHL SUB DUP4 MLOAD AND SWAP3 PUSH1 0x1 PUSH1 0x1 PUSH1 0xA0 SHL SUB DUP6 MLOAD AND PUSH1 0x80 DUP7 ADD MLOAD SWAP1 PUSH1 0x40 MLOAD SWAP6 PUSH2 0x337E DUP8 PUSH2 0x2C51 JUMP JUMPDEST DUP7 MSTORE PUSH1 0x20 DUP1 DUP8 ADD SWAP2 DUP3 MSTORE PUSH1 0x40 DUP1 DUP9 ADD DUP7 DUP2 MSTORE PUSH1 0x60 DUP10 ADD SWAP5 DUP6 MSTORE PUSH1 0x2 SLOAD SWAP2 MLOAD PUSH32 0xDD016B7900000000000000000000000000000000000000000000000000000000 DUP2 MSTORE SWAP9 MLOAD PUSH1 0x1 PUSH1 0x1 PUSH1 0xA0 SHL SUB SWAP1 DUP2 AND PUSH1 0x4 DUP12 ADD MSTORE SWAP4 MLOAD DUP5 AND PUSH1 0x24 DUP11 ADD MSTORE MLOAD PUSH1 0x44 DUP10 ADD MSTORE SWAP3 MLOAD PUSH1 0x64 DUP9 ADD MSTORE SWAP2 DUP7 SWAP2 PUSH1 0x84 SWAP2 DUP4 SWAP2 DUP9 SWAP2 AND GAS CALL SWAP4 DUP5 ISZERO PUSH2 0x12D0 JUMPI DUP4 SWAP5 PUSH2 0x369A JUMPI JUMPDEST POP PUSH1 0x1 PUSH1 0x1 PUSH1 0xA0 SHL SUB DUP2 MLOAD AND SWAP2 PUSH1 0x1 PUSH1 0x1 PUSH1 0xA0 SHL SUB DUP7 MLOAD AND PUSH1 0x40 MLOAD SWAP4 PUSH2 0x3427 DUP6 PUSH2 0x2C51 JUMP JUMPDEST DUP5 MSTORE PUSH1 0x20 DUP5 ADD MSTORE DUP5 PUSH1 0x40 DUP5 ADD MSTORE PUSH1 0x60 DUP4 ADD MSTORE PUSH1 0x1 PUSH1 0x1 PUSH1 0xA0 SHL SUB DUP2 MLOAD AND DUP1 ISZERO PUSH1 0x0 EQ PUSH2 0x34FA JUMPI POP POP PUSH1 0x1 PUSH1 0x1 PUSH1 0xA0 SHL SUB PUSH1 0x2 SLOAD AND SWAP3 DUP4 EXTCODESIZE ISZERO PUSH2 0x20E6 JUMPI PUSH2 0x34B6 SWAP2 PUSH1 0x84 SWAP2 PUSH1 0x40 MLOAD SWAP6 DUP7 SWAP5 DUP6 SWAP4 PUSH4 0xF5A9FAD PUSH1 0xE2 SHL DUP6 MSTORE PUSH1 0x4 DUP6 ADD SWAP1 PUSH1 0x60 DUP1 SWAP2 PUSH1 0x1 PUSH1 0x1 PUSH1 0xA0 SHL SUB DUP2 MLOAD AND DUP5 MSTORE PUSH1 0x1 PUSH1 0x1 PUSH1 0xA0 SHL SUB PUSH1 0x20 DUP3 ADD MLOAD AND PUSH1 0x20 DUP6 ADD MSTORE PUSH1 0x40 DUP2 ADD MLOAD PUSH1 0x40 DUP6 ADD MSTORE ADD MLOAD SWAP2 ADD MSTORE JUMP JUMPDEST GAS CALL DUP1 ISZERO PUSH2 0x1FF8 JUMPI PUSH2 0x34E5 JUMPI JUMPDEST POP PUSH2 0x32F6 SWAP3 SWAP4 POP JUMPDEST PUSH1 0x1 PUSH1 0x1 PUSH1 0xA0 SHL SUB PUSH1 0x60 DUP2 DUP4 MLOAD AND SWAP4 MLOAD SWAP3 ADD MLOAD AND SWAP2 PUSH2 0x3D20 JUMP JUMPDEST PUSH2 0x34F0 DUP6 DUP1 SWAP3 PUSH2 0x2D11 JUMP JUMPDEST PUSH2 0x1406 JUMPI DUP4 PUSH2 0x34C3 JUMP JUMPDEST PUSH1 0x40 MLOAD PUSH4 0x23B872DD PUSH1 0xE0 SHL DUP2 MSTORE CALLER PUSH1 0x4 DUP3 ADD MSTORE ADDRESS PUSH1 0x24 DUP3 ADD MSTORE PUSH1 0x44 DUP2 ADD DUP7 SWAP1 MSTORE SWAP3 SWAP5 SWAP4 POP SWAP1 SWAP2 SWAP1 PUSH1 0x20 SWAP1 DUP3 SWAP1 PUSH1 0x64 SWAP1 DUP3 SWAP1 DUP13 SWAP1 GAS CALL DUP1 ISZERO PUSH2 0x1F4C JUMPI PUSH2 0x364F JUMPI JUMPDEST POP MLOAD PUSH1 0x2 SLOAD PUSH1 0x40 MLOAD PUSH4 0x95EA7B3 PUSH1 0xE0 SHL DUP2 MSTORE PUSH1 0x1 PUSH1 0x1 PUSH1 0xA0 SHL SUB SWAP2 DUP3 AND PUSH1 0x4 DUP3 ADD MSTORE PUSH1 0x24 DUP2 ADD SWAP4 SWAP1 SWAP4 MSTORE PUSH1 0x20 SWAP2 DUP4 SWAP2 AND DUP2 DUP10 DUP2 PUSH1 0x44 DUP2 ADD JUMPDEST SUB SWAP3 GAS CALL DUP1 ISZERO PUSH2 0x129D JUMPI PUSH2 0x3618 JUMPI JUMPDEST POP DUP5 PUSH1 0x1 PUSH1 0x1 PUSH1 0xA0 SHL SUB PUSH1 0x2 SLOAD AND SWAP2 DUP3 EXTCODESIZE ISZERO PUSH2 0x225 JUMPI PUSH1 0x84 PUSH2 0x35EA SWAP2 DUP4 PUSH1 0x40 MLOAD SWAP6 DUP7 SWAP5 DUP6 SWAP4 PUSH4 0xF5A9FAD PUSH1 0xE2 SHL DUP6 MSTORE PUSH1 0x4 DUP6 ADD SWAP1 PUSH1 0x60 DUP1 SWAP2 PUSH1 0x1 PUSH1 0x1 PUSH1 0xA0 SHL SUB DUP2 MLOAD AND DUP5 MSTORE PUSH1 0x1 PUSH1 0x1 PUSH1 0xA0 SHL SUB PUSH1 0x20 DUP3 ADD MLOAD AND PUSH1 0x20 DUP6 ADD MSTORE PUSH1 0x40 DUP2 ADD MLOAD PUSH1 0x40 DUP6 ADD MSTORE ADD MLOAD SWAP2 ADD MSTORE JUMP JUMPDEST GAS CALL DUP1 ISZERO PUSH2 0x1FF8 JUMPI PUSH2 0x3603 JUMPI JUMPDEST POP PUSH2 0x32F6 SWAP3 SWAP4 POP PUSH2 0x34CB JUMP JUMPDEST PUSH2 0x360E DUP6 DUP1 SWAP3 PUSH2 0x2D11 JUMP JUMPDEST PUSH2 0x1406 JUMPI DUP4 PUSH2 0x35F7 JUMP JUMPDEST PUSH1 0x20 DUP2 RETURNDATASIZE PUSH1 0x20 GT PUSH2 0x3647 JUMPI JUMPDEST DUP2 PUSH2 0x3631 PUSH1 0x20 SWAP4 DUP4 PUSH2 0x2D11 JUMP JUMPDEST DUP2 ADD SUB SLT PUSH2 0xC2F JUMPI PUSH2 0x3642 SWAP1 PUSH2 0x2FF8 JUMP JUMPDEST PUSH2 0x3581 JUMP JUMPDEST RETURNDATASIZE SWAP2 POP PUSH2 0x3624 JUMP JUMPDEST SWAP2 PUSH1 0x20 DUP4 RETURNDATASIZE PUSH1 0x20 GT PUSH2 0x3692 JUMPI JUMPDEST DUP2 PUSH2 0x3669 PUSH1 0x20 SWAP4 DUP4 PUSH2 0x2D11 JUMP JUMPDEST DUP2 ADD SUB SLT PUSH2 0x11B4 JUMPI PUSH1 0x1 PUSH1 0x1 PUSH1 0xA0 SHL SUB PUSH1 0x20 SWAP3 PUSH2 0x3688 PUSH2 0x3572 SWAP6 PUSH2 0x2FF8 JUMP JUMPDEST POP SWAP3 POP POP SWAP2 PUSH2 0x353A JUMP JUMPDEST RETURNDATASIZE SWAP2 POP PUSH2 0x365C JUMP JUMPDEST SWAP3 POP SWAP3 POP PUSH1 0x20 DUP3 RETURNDATASIZE PUSH1 0x20 GT PUSH2 0x36C9 JUMPI JUMPDEST DUP2 PUSH2 0x36B7 PUSH1 0x20 SWAP4 DUP4 PUSH2 0x2D11 JUMP JUMPDEST DUP2 ADD SUB SLT PUSH2 0xBFE JUMPI DUP7 SWAP2 MLOAD SWAP3 CODESIZE PUSH2 0x3402 JUMP JUMPDEST RETURNDATASIZE SWAP2 POP PUSH2 0x36AA JUMP JUMPDEST MLOAD PUSH1 0x3 DUP2 LT ISZERO PUSH2 0x3A60 JUMPI PUSH1 0x2 EQ PUSH2 0x36EE JUMPI POP PUSH2 0x32F6 SWAP3 SWAP4 POP PUSH2 0x34CB JUMP JUMPDEST PUSH1 0x1 PUSH1 0x1 PUSH1 0xA0 SHL SUB DUP3 MLOAD AND SWAP1 PUSH1 0x20 DUP4 ADD PUSH1 0x1 PUSH1 0x1 PUSH1 0xA0 SHL SUB DUP2 MLOAD AND PUSH1 0xA0 DUP6 ADD MLOAD SWAP1 PUSH1 0x40 MLOAD SWAP2 PUSH1 0xA0 DUP4 ADD DUP4 DUP2 LT PUSH8 0xFFFFFFFFFFFFFFFF DUP3 GT OR PUSH2 0x3A4C JUMPI SWAP3 PUSH1 0x1 PUSH1 0x1 PUSH1 0xA0 SHL SUB SWAP3 PUSH1 0xA4 SWAP3 PUSH1 0x20 SWAP6 PUSH1 0x40 MSTORE CALLER DUP4 MSTORE DUP6 DUP4 ADD SWAP9 DUP10 MSTORE DUP5 PUSH1 0x40 DUP5 ADD SWAP3 DUP10 DUP5 MSTORE PUSH1 0x60 DUP6 ADD SWAP1 DUP2 MSTORE PUSH1 0x80 DUP6 ADD SWAP3 DUP4 MSTORE DUP2 PUSH1 0x1 SLOAD AND SWAP4 DUP3 PUSH1 0x40 MLOAD SWAP13 DUP14 SWAP10 DUP11 SWAP9 PUSH32 0xF293357B00000000000000000000000000000000000000000000000000000000 DUP11 MSTORE MLOAD AND PUSH1 0x4 DUP10 ADD MSTORE MLOAD AND PUSH1 0x24 DUP8 ADD MSTORE MLOAD PUSH1 0x44 DUP7 ADD MSTORE MLOAD AND PUSH1 0x64 DUP5 ADD MSTORE MLOAD PUSH1 0x84 DUP4 ADD MSTORE GAS STATICCALL SWAP3 DUP4 ISZERO PUSH2 0x1228 JUMPI DUP8 SWAP4 PUSH2 0x3A18 JUMPI JUMPDEST POP PUSH1 0x1 PUSH1 0x1 PUSH1 0xA0 SHL SUB DUP2 MLOAD AND SWAP2 PUSH1 0x1 PUSH1 0x1 PUSH1 0xA0 SHL SUB DUP6 MLOAD AND SWAP1 PUSH1 0xE0 DUP7 ADD MLOAD SWAP2 PUSH1 0x40 MLOAD SWAP5 PUSH2 0x37EC DUP7 PUSH2 0x2CD9 JUMP JUMPDEST CALLER DUP7 MSTORE PUSH1 0x20 DUP7 ADD MSTORE DUP6 PUSH1 0x40 DUP7 ADD MSTORE PUSH1 0x60 DUP6 ADD MSTORE PUSH1 0x80 DUP5 ADD MSTORE PUSH1 0xA0 DUP4 ADD MSTORE PUSH1 0x1 PUSH1 0x1 PUSH1 0xA0 SHL SUB DUP2 MLOAD AND SWAP1 DUP2 ISZERO DUP1 PUSH2 0x3A0F JUMPI JUMPDEST ISZERO PUSH2 0x388C JUMPI POP POP DUP6 SWAP1 PUSH1 0x1 PUSH1 0x1 PUSH1 0xA0 SHL SUB PUSH1 0x1 SLOAD AND DUP1 EXTCODESIZE ISZERO PUSH2 0x20E6 JUMPI PUSH2 0x3859 SWAP2 PUSH1 0x40 MLOAD SWAP5 DUP6 DUP1 SWAP5 DUP2 SWAP4 PUSH4 0x7B4EFCFD PUSH1 0xE0 SHL DUP4 MSTORE PUSH1 0x4 DUP4 ADD PUSH2 0x3274 JUMP JUMPDEST SUB SWAP3 GAS CALL DUP1 ISZERO PUSH2 0x1FF8 JUMPI PUSH2 0x3877 JUMPI JUMPDEST POP PUSH2 0x32F6 SWAP3 SWAP4 POP JUMPDEST DUP4 SWAP3 PUSH2 0x35F7 JUMP JUMPDEST PUSH2 0x3882 DUP6 DUP1 SWAP3 PUSH2 0x2D11 JUMP JUMPDEST PUSH2 0x1406 JUMPI DUP4 PUSH2 0x3868 JUMP JUMPDEST DUP4 SWAP2 SWAP8 SWAP4 PUSH2 0x38A4 JUMPI JUMPDEST POP POP POP POP PUSH2 0x32F6 SWAP3 SWAP4 POP PUSH2 0x3870 JUMP JUMPDEST PUSH1 0x40 MLOAD PUSH4 0x23B872DD PUSH1 0xE0 SHL DUP2 MSTORE CALLER PUSH1 0x4 DUP3 ADD MSTORE ADDRESS PUSH1 0x24 DUP3 ADD MSTORE PUSH1 0x44 DUP2 ADD DUP4 SWAP1 MSTORE SWAP4 SWAP8 DUP9 SWAP5 SWAP1 PUSH1 0x20 SWAP1 DUP3 SWAP1 PUSH1 0x64 SWAP1 DUP3 SWAP1 DUP10 SWAP1 GAS CALL DUP1 ISZERO PUSH2 0x1FF8 JUMPI PUSH2 0x39C4 JUMPI JUMPDEST POP MLOAD PUSH1 0x1 SLOAD PUSH1 0x40 MLOAD PUSH4 0x95EA7B3 PUSH1 0xE0 SHL DUP2 MSTORE PUSH1 0x1 PUSH1 0x1 PUSH1 0xA0 SHL SUB SWAP2 DUP3 AND PUSH1 0x4 DUP3 ADD MSTORE PUSH1 0x24 DUP2 ADD SWAP4 SWAP1 SWAP4 MSTORE PUSH1 0x20 SWAP2 DUP4 SWAP2 AND DUP2 DUP7 DUP2 PUSH1 0x44 DUP2 ADD JUMPDEST SUB SWAP3 GAS CALL DUP1 ISZERO PUSH2 0x12D0 JUMPI PUSH2 0x398D JUMPI JUMPDEST POP PUSH1 0x1 PUSH1 0x1 PUSH1 0xA0 SHL SUB PUSH1 0x1 SLOAD AND SWAP1 DUP2 EXTCODESIZE ISZERO PUSH2 0x20E6 JUMPI DUP3 SWAP2 PUSH2 0x3960 SWAP2 PUSH1 0x40 MLOAD SWAP9 DUP10 DUP1 SWAP5 DUP2 SWAP4 PUSH4 0x7B4EFCFD PUSH1 0xE0 SHL DUP4 MSTORE PUSH1 0x4 DUP4 ADD PUSH2 0x3274 JUMP JUMPDEST SUB SWAP3 GAS CALL SWAP5 DUP6 ISZERO PUSH2 0x2C44 JUMPI PUSH2 0x32F6 SWAP5 SWAP6 PUSH2 0x397D JUMPI JUMPDEST DUP6 SWAP5 DUP2 PUSH2 0x3895 JUMP JUMPDEST DUP2 PUSH2 0x3987 SWAP2 PUSH2 0x2D11 JUMP JUMPDEST CODESIZE PUSH2 0x3975 JUMP JUMPDEST PUSH1 0x20 DUP2 RETURNDATASIZE PUSH1 0x20 GT PUSH2 0x39BC JUMPI JUMPDEST DUP2 PUSH2 0x39A6 PUSH1 0x20 SWAP4 DUP4 PUSH2 0x2D11 JUMP JUMPDEST DUP2 ADD SUB SLT PUSH2 0x20E6 JUMPI PUSH2 0x39B7 SWAP1 PUSH2 0x2FF8 JUMP JUMPDEST PUSH2 0x3929 JUMP JUMPDEST RETURNDATASIZE SWAP2 POP PUSH2 0x3999 JUMP JUMPDEST SWAP2 PUSH1 0x20 DUP4 RETURNDATASIZE PUSH1 0x20 GT PUSH2 0x3A07 JUMPI JUMPDEST DUP2 PUSH2 0x39DE PUSH1 0x20 SWAP4 DUP4 PUSH2 0x2D11 JUMP JUMPDEST DUP2 ADD SUB SLT PUSH2 0xC33 JUMPI PUSH1 0x1 PUSH1 0x1 PUSH1 0xA0 SHL SUB PUSH1 0x20 SWAP3 PUSH2 0x39FD PUSH2 0x391A SWAP6 PUSH2 0x2FF8 JUMP JUMPDEST POP SWAP3 POP POP SWAP2 PUSH2 0x38E2 JUMP JUMPDEST RETURNDATASIZE SWAP2 POP PUSH2 0x39D1 JUMP JUMPDEST POP DUP4 ISZERO ISZERO PUSH2 0x381D JUMP JUMPDEST SWAP1 SWAP3 POP PUSH1 0x20 DUP2 RETURNDATASIZE PUSH1 0x20 GT PUSH2 0x3A44 JUMPI JUMPDEST DUP2 PUSH2 0x3A34 PUSH1 0x20 SWAP4 DUP4 PUSH2 0x2D11 JUMP JUMPDEST DUP2 ADD SUB SLT PUSH2 0x125D JUMPI MLOAD SWAP2 CODESIZE PUSH2 0x37C0 JUMP JUMPDEST RETURNDATASIZE SWAP2 POP PUSH2 0x3A27 JUMP JUMPDEST PUSH1 0x24 DUP12 PUSH4 0x4E487B71 PUSH1 0xE0 SHL DUP2 MSTORE PUSH1 0x41 PUSH1 0x4 MSTORE REVERT JUMPDEST PUSH1 0x24 DUP7 PUSH4 0x4E487B71 PUSH1 0xE0 SHL DUP2 MSTORE PUSH1 0x21 PUSH1 0x4 MSTORE REVERT JUMPDEST PUSH1 0x24 DUP8 PUSH4 0x4E487B71 PUSH1 0xE0 SHL DUP2 MSTORE PUSH1 0x21 PUSH1 0x4 MSTORE REVERT JUMPDEST PUSH1 0x24 DUP6 PUSH4 0x4E487B71 PUSH1 0xE0 SHL DUP2 MSTORE PUSH1 0x11 PUSH1 0x4 MSTORE REVERT JUMPDEST DUP2 MLOAD PUSH1 0x1 PUSH1 0x1 PUSH1 0xA0 SHL SUB AND DUP1 PUSH2 0x3AF5 JUMPI POP PUSH2 0x3AF0 PUSH1 0x40 MLOAD PUSH2 0x3ABE PUSH1 0x40 DUP3 PUSH2 0x2D11 JUMP JUMPDEST PUSH1 0x1 DUP2 MSTORE PUSH32 0x3500000000000000000000000000000000000000000000000000000000000000 PUSH1 0x20 DUP3 ADD MSTORE DUP3 CALLVALUE EQ PUSH2 0x322A JUMP JUMPDEST PUSH2 0x332B JUMP JUMPDEST PUSH1 0x40 MLOAD PUSH4 0x23B872DD PUSH1 0xE0 SHL DUP2 MSTORE CALLER PUSH1 0x4 DUP3 ADD MSTORE ADDRESS PUSH1 0x24 DUP3 ADD MSTORE PUSH1 0x44 DUP2 ADD DUP4 SWAP1 MSTORE SWAP1 PUSH1 0x20 SWAP1 DUP3 SWAP1 PUSH1 0x64 SWAP1 DUP3 SWAP1 DUP11 SWAP1 GAS CALL DUP1 ISZERO PUSH2 0x129D JUMPI PUSH2 0x3B35 JUMPI JUMPDEST POP PUSH2 0x332B JUMP JUMPDEST PUSH1 0x20 DUP2 RETURNDATASIZE PUSH1 0x20 GT PUSH2 0x3B66 JUMPI JUMPDEST DUP2 PUSH2 0x3B4E PUSH1 0x20 SWAP4 DUP4 PUSH2 0x2D11 JUMP JUMPDEST DUP2 ADD SUB SLT PUSH2 0xC2F JUMPI PUSH2 0x3B5F SWAP1 PUSH2 0x2FF8 JUMP JUMPDEST POP CODESIZE PUSH2 0x3B2F JUMP JUMPDEST RETURNDATASIZE SWAP2 POP PUSH2 0x3B41 JUMP JUMPDEST DUP3 MLOAD PUSH1 0x1 PUSH1 0x1 PUSH1 0xA0 SHL SUB AND SWAP2 POP DUP2 PUSH2 0x3BCF JUMPI POP POP PUSH2 0x34CB PUSH2 0x32F6 SWAP4 SWAP5 DUP4 MLOAD CALLVALUE LT ISZERO SWAP1 POP PUSH1 0x40 MLOAD SWAP1 PUSH2 0x3BA0 PUSH1 0x40 DUP4 PUSH2 0x2D11 JUMP JUMPDEST PUSH1 0x3 DUP3 MSTORE PUSH32 0x3130300000000000000000000000000000000000000000000000000000000000 PUSH1 0x20 DUP4 ADD MSTORE PUSH2 0x322A JUMP JUMPDEST PUSH1 0x40 MLOAD PUSH4 0x23B872DD PUSH1 0xE0 SHL DUP2 MSTORE CALLER PUSH1 0x4 DUP3 ADD MSTORE ADDRESS PUSH1 0x24 DUP3 ADD MSTORE PUSH1 0x44 DUP2 ADD SWAP2 SWAP1 SWAP2 MSTORE SWAP5 SWAP1 PUSH1 0x20 SWAP1 DUP7 SWAP1 PUSH1 0x64 SWAP1 DUP3 SWAP1 DUP6 SWAP1 GAS CALL DUP1 ISZERO PUSH2 0x2C44 JUMPI PUSH2 0x3C16 JUMPI POP PUSH2 0x32F6 SWAP3 SWAP4 POP PUSH2 0x34CB JUMP JUMPDEST PUSH1 0x20 DUP6 RETURNDATASIZE PUSH1 0x20 GT PUSH2 0x3C4D JUMPI JUMPDEST DUP2 PUSH2 0x3C2F PUSH1 0x20 SWAP4 DUP4 PUSH2 0x2D11 JUMP JUMPDEST DUP2 ADD SUB SLT PUSH2 0x168 JUMPI POP PUSH2 0x3C45 PUSH2 0x32F6 SWAP4 SWAP5 PUSH2 0x2FF8 JUMP JUMPDEST POP DUP4 SWAP3 PUSH2 0x35F7 JUMP JUMPDEST RETURNDATASIZE SWAP2 POP PUSH2 0x3C22 JUMP JUMPDEST PUSH1 0x20 PUSH1 0x24 SWAP2 PUSH1 0x40 MLOAD SWAP3 DUP4 DUP1 SWAP3 PUSH32 0x70A0823100000000000000000000000000000000000000000000000000000000 DUP3 MSTORE CALLER PUSH1 0x4 DUP4 ADD MSTORE GAS STATICCALL SWAP1 DUP2 ISZERO PUSH2 0x3CD3 JUMPI DUP5 SWAP2 PUSH2 0x3CA1 JUMPI JUMPDEST POP SWAP1 PUSH2 0x3315 JUMP JUMPDEST SWAP1 POP PUSH1 0x20 DUP2 RETURNDATASIZE PUSH1 0x20 GT PUSH2 0x3CCB JUMPI JUMPDEST DUP2 PUSH2 0x3CBC PUSH1 0x20 SWAP4 DUP4 PUSH2 0x2D11 JUMP JUMPDEST DUP2 ADD SUB SLT PUSH2 0x1406 JUMPI MLOAD CODESIZE PUSH2 0x3C9A JUMP JUMPDEST RETURNDATASIZE SWAP2 POP PUSH2 0x3CAF JUMP JUMPDEST PUSH1 0x40 MLOAD RETURNDATASIZE DUP7 DUP3 RETURNDATACOPY RETURNDATASIZE SWAP1 REVERT JUMPDEST PUSH1 0x1 PUSH1 0x1 PUSH1 0xA0 SHL SUB PUSH1 0x0 SLOAD AND CALLER SUB PUSH2 0x3CF2 JUMPI JUMP JUMPDEST PUSH32 0x118CDAA700000000000000000000000000000000000000000000000000000000 PUSH1 0x0 MSTORE CALLER PUSH1 0x4 MSTORE PUSH1 0x24 PUSH1 0x0 REVERT JUMPDEST PUSH1 0x1 PUSH1 0x1 PUSH1 0xA0 SHL SUB AND SWAP2 SWAP1 DUP3 PUSH2 0x3D35 JUMPI POP POP POP JUMP JUMPDEST PUSH1 0x40 MLOAD PUSH4 0x95EA7B3 PUSH1 0xE0 SHL DUP2 MSTORE PUSH1 0x1 PUSH1 0x1 PUSH1 0xA0 SHL SUB SWAP3 SWAP1 SWAP3 AND PUSH1 0x4 DUP4 ADD MSTORE PUSH1 0x24 DUP3 ADD MSTORE SWAP1 PUSH1 0x20 SWAP1 DUP3 SWAP1 PUSH1 0x44 SWAP1 DUP3 SWAP1 PUSH1 0x0 SWAP1 GAS CALL DUP1 ISZERO PUSH2 0x3DAA JUMPI PUSH2 0x3D75 JUMPI POP JUMP JUMPDEST PUSH1 0x20 DUP2 RETURNDATASIZE PUSH1 0x20 GT PUSH2 0x3DA2 JUMPI JUMPDEST DUP2 PUSH2 0x3D8E PUSH1 0x20 SWAP4 DUP4 PUSH2 0x2D11 JUMP JUMPDEST DUP2 ADD SUB SLT PUSH2 0xBFE JUMPI PUSH2 0x3D9F SWAP1 PUSH2 0x2FF8 JUMP JUMPDEST POP JUMP JUMPDEST RETURNDATASIZE SWAP2 POP PUSH2 0x3D81 JUMP JUMPDEST PUSH1 0x40 MLOAD RETURNDATASIZE PUSH1 0x0 DUP3 RETURNDATACOPY RETURNDATASIZE SWAP1 REVERT INVALID LOG2 PUSH5 0x6970667358 0x22 SLT KECCAK256 MULMOD 0xCD 0xC3 PUSH2 0xBC0A PUSH17 0x5751F1A84A7CB42D2D30DE8487FBA0E8CD JUMPDEST 0xD7 MSTORE 0x29 LOG3 SWAP2 EQ TSTORE PUSH5 0x736F6C6343 STOP ADDMOD SHR STOP CALLER "
        },
        "methodIdentifiers": {
          "cancelRecurrentTransaction((bytes32))": "1fd9b2bf",
          "fulfillOneTimeTransaction((bytes32,address,uint256,uint256,uint8,(uint256,uint8,bytes32,bytes32)))": "228b79d3",
          "fulfillRecurrentTransaction((bytes32,address,uint256,uint256,uint8,(uint256,uint8,bytes32,bytes32)))": "632c847d",
          "getAdjustTokenAmount((address,address,address,uint256))": "0bd0c23e",
          "mintOneTimeTransactionReceipt((address,bytes32,string))": "5e1d56a9",
          "mintRecurrentTransactionReceipt((address,bytes32,string))": "e2f999a5",
          "oneTimeTransaction((address[],address,uint256[],address,address,string,(uint8,string),uint256,uint256,uint8,(uint256,uint8,bytes32,bytes32)))": "3da03a14",
          "owner()": "8da5cb5b",
          "recurrentTransaction((address,address,bytes32,string,(uint8,string),uint256,uint256,uint8,(uint256,uint8,bytes32,bytes32)))": "69eb7f26",
          "renounceOwnership()": "715018a6",
          "setAave(address)": "d6b5891e",
          "setOneTimeTransaction(address)": "2ad6c02f",
          "setRecurentTransaction(address)": "535c1f7f",
          "setUniswap(address)": "8efecdda",
          "transferOwnership(address)": "f2fde38b"
        }
      }
    }
  }
}