{
  "contracts/libs/AddressLib.sol": {
    "AddressLib": {
      "abi": [
        {
          "inputs": [
            {
              "internalType": "address[]",
              "name": "value",
              "type": "address[]"
            }
          ],
          "name": "every",
          "outputs": [
            {
              "internalType": "bool",
              "name": "",
              "type": "bool"
            }
          ],
          "stateMutability": "pure",
          "type": "function"
        },
        {
          "inputs": [
            {
              "internalType": "address[]",
              "name": "value",
              "type": "address[]"
            }
          ],
          "name": "requireEvery",
          "outputs": [],
          "stateMutability": "pure",
          "type": "function"
        },
        {
          "inputs": [
            {
              "internalType": "address",
              "name": "value",
              "type": "address"
            }
          ],
          "name": "requireOne",
          "outputs": [],
          "stateMutability": "pure",
          "type": "function"
        }
      ],
      "evm": {
        "bytecode": {
          "linkReferences": {},
          "object": "608080604052346019576102c3908161001f823930815050f35b600080fdfe6080604052600436101561001257600080fd5b60003560e01c806311f599a5146100fe57806343e3cc1d146100e05763bf6341cf1461003d57600080fd5b60203660031901126100db5760043573ffffffffffffffffffffffffffffffffffffffff81168091036100db571561007157005b608460405162461bcd60e51b815260206004820152602160248201527f416464726573734c69623a205a65726f20616464726573732070726f7669646560448201527f64000000000000000000000000000000000000000000000000000000000000006064820152fd5b600080fd5b60206100f46100ee3661018d565b90610241565b6040519015158152f35b6101073661018d565b60005b81811061011357005b73ffffffffffffffffffffffffffffffffffffffff61013b6101368385876101e1565b610220565b16156101495760010161010a565b606460405162461bcd60e51b815260206004820152601e60248201527f416464726573734c69623a205a65726f206164647265737320666f756e6400006044820152fd5b9060206003198301126100db5760043567ffffffffffffffff81116100db57826023820112156100db5780600401359267ffffffffffffffff84116100db5760248460051b830101116100db576024019190565b91908110156101f15760051b0190565b7f4e487b7100000000000000000000000000000000000000000000000000000000600052603260045260246000fd5b3573ffffffffffffffffffffffffffffffffffffffff811681036100db5790565b9060005b81811061025457505050600190565b73ffffffffffffffffffffffffffffffffffffffff6102776101368385876101e1565b161561028557600101610245565b50505060009056fea264697066735822122027ef50aae820e748a530789c42a954e100814c138a5c83d795977925f6d111cf64736f6c634300081c0033",
          "opcodes": "PUSH1 0x80 DUP1 PUSH1 0x40 MSTORE CALLVALUE PUSH1 0x19 JUMPI PUSH2 0x2C3 SWAP1 DUP2 PUSH2 0x1F DUP3 CODECOPY ADDRESS DUP2 POP POP RETURN JUMPDEST PUSH1 0x0 DUP1 REVERT INVALID PUSH1 0x80 PUSH1 0x40 MSTORE PUSH1 0x4 CALLDATASIZE LT ISZERO PUSH2 0x12 JUMPI PUSH1 0x0 DUP1 REVERT JUMPDEST PUSH1 0x0 CALLDATALOAD PUSH1 0xE0 SHR DUP1 PUSH4 0x11F599A5 EQ PUSH2 0xFE JUMPI DUP1 PUSH4 0x43E3CC1D EQ PUSH2 0xE0 JUMPI PUSH4 0xBF6341CF EQ PUSH2 0x3D JUMPI PUSH1 0x0 DUP1 REVERT JUMPDEST PUSH1 0x20 CALLDATASIZE PUSH1 0x3 NOT ADD SLT PUSH2 0xDB JUMPI PUSH1 0x4 CALLDATALOAD PUSH20 0xFFFFFFFFFFFFFFFFFFFFFFFFFFFFFFFFFFFFFFFF DUP2 AND DUP1 SWAP2 SUB PUSH2 0xDB JUMPI ISZERO PUSH2 0x71 JUMPI STOP JUMPDEST PUSH1 0x84 PUSH1 0x40 MLOAD PUSH3 0x461BCD PUSH1 0xE5 SHL DUP2 MSTORE PUSH1 0x20 PUSH1 0x4 DUP3 ADD MSTORE PUSH1 0x21 PUSH1 0x24 DUP3 ADD MSTORE PUSH32 0x416464726573734C69623A205A65726F20616464726573732070726F76696465 PUSH1 0x44 DUP3 ADD MSTORE PUSH32 0x6400000000000000000000000000000000000000000000000000000000000000 PUSH1 0x64 DUP3 ADD MSTORE REVERT JUMPDEST PUSH1 0x0 DUP1 REVERT JUMPDEST PUSH1 0x20 PUSH2 0xF4 PUSH2 0xEE CALLDATASIZE PUSH2 0x18D JUMP JUMPDEST SWAP1 PUSH2 0x241 JUMP JUMPDEST PUSH1 0x40 MLOAD SWAP1 ISZERO ISZERO DUP2 MSTORE RETURN JUMPDEST PUSH2 0x107 CALLDATASIZE PUSH2 0x18D JUMP JUMPDEST PUSH1 0x0 JUMPDEST DUP2 DUP2 LT PUSH2 0x113 JUMPI STOP JUMPDEST PUSH20 0xFFFFFFFFFFFFFFFFFFFFFFFFFFFFFFFFFFFFFFFF PUSH2 0x13B PUSH2 0x136 DUP4 DUP6 DUP8 PUSH2 0x1E1 JUMP JUMPDEST PUSH2 0x220 JUMP JUMPDEST AND ISZERO PUSH2 0x149 JUMPI PUSH1 0x1 ADD PUSH2 0x10A JUMP JUMPDEST PUSH1 0x64 PUSH1 0x40 MLOAD PUSH3 0x461BCD PUSH1 0xE5 SHL DUP2 MSTORE PUSH1 0x20 PUSH1 0x4 DUP3 ADD MSTORE PUSH1 0x1E PUSH1 0x24 DUP3 ADD MSTORE PUSH32 0x416464726573734C69623A205A65726F206164647265737320666F756E640000 PUSH1 0x44 DUP3 ADD MSTORE REVERT JUMPDEST SWAP1 PUSH1 0x20 PUSH1 0x3 NOT DUP4 ADD SLT PUSH2 0xDB JUMPI PUSH1 0x4 CALLDATALOAD PUSH8 0xFFFFFFFFFFFFFFFF DUP2 GT PUSH2 0xDB JUMPI DUP3 PUSH1 0x23 DUP3 ADD SLT ISZERO PUSH2 0xDB JUMPI DUP1 PUSH1 0x4 ADD CALLDATALOAD SWAP3 PUSH8 0xFFFFFFFFFFFFFFFF DUP5 GT PUSH2 0xDB JUMPI PUSH1 0x24 DUP5 PUSH1 0x5 SHL DUP4 ADD ADD GT PUSH2 0xDB JUMPI PUSH1 0x24 ADD SWAP2 SWAP1 JUMP JUMPDEST SWAP2 SWAP1 DUP2 LT ISZERO PUSH2 0x1F1 JUMPI PUSH1 0x5 SHL ADD SWAP1 JUMP JUMPDEST PUSH32 0x4E487B7100000000000000000000000000000000000000000000000000000000 PUSH1 0x0 MSTORE PUSH1 0x32 PUSH1 0x4 MSTORE PUSH1 0x24 PUSH1 0x0 REVERT JUMPDEST CALLDATALOAD PUSH20 0xFFFFFFFFFFFFFFFFFFFFFFFFFFFFFFFFFFFFFFFF DUP2 AND DUP2 SUB PUSH2 0xDB JUMPI SWAP1 JUMP JUMPDEST SWAP1 PUSH1 0x0 JUMPDEST DUP2 DUP2 LT PUSH2 0x254 JUMPI POP POP POP PUSH1 0x1 SWAP1 JUMP JUMPDEST PUSH20 0xFFFFFFFFFFFFFFFFFFFFFFFFFFFFFFFFFFFFFFFF PUSH2 0x277 PUSH2 0x136 DUP4 DUP6 DUP8 PUSH2 0x1E1 JUMP JUMPDEST AND ISZERO PUSH2 0x285 JUMPI PUSH1 0x1 ADD PUSH2 0x245 JUMP JUMPDEST POP POP POP PUSH1 0x0 SWAP1 JUMP INVALID LOG2 PUSH5 0x6970667358 0x22 SLT KECCAK256 0x27 0xEF POP 0xAA 0xE8 KECCAK256 0xE7 BASEFEE 0xA5 ADDRESS PUSH25 0x9C42A954E100814C138A5C83D795977925F6D111CF64736F6C PUSH4 0x4300081C STOP CALLER "
        },
        "methodIdentifiers": {
          "every(address[])": "43e3cc1d",
          "requireEvery(address[])": "11f599a5",
          "requireOne(address)": "bf6341cf"
        }
      }
    }
  }
}