{
  "contracts/Beam.sol": {
    "Beam": {
      "abi": [
        {
          "inputs": [
            {
              "internalType": "contract IBeamEvents",
              "name": "events_",
              "type": "address"
            },
            {
              "internalType": "contract IMerchant",
              "name": "merchant_",
              "type": "address"
            },
            {
              "internalType": "contract IOneTimeTransaction",
              "name": "oneTimeTransaction_",
              "type": "address"
            },
            {
              "internalType": "contract IRecurrentTransaction",
              "name": "recurrentTransaction_",
              "type": "address"
            },
            {
              "internalType": "contract IHookManager",
              "name": "hookManager_",
              "type": "address"
            },
            {
              "internalType": "contract IAaveV3",
              "name": "aave_",
              "type": "address"
            },
            {
              "internalType": "contract IUniswap",
              "name": "uniswap_",
              "type": "address"
            }
          ],
          "stateMutability": "nonpayable",
          "type": "constructor"
        },
        {
          "inputs": [
            {
              "internalType": "address",
              "name": "owner",
              "type": "address"
            }
          ],
          "name": "OwnableInvalidOwner",
          "type": "error"
        },
        {
          "inputs": [
            {
              "internalType": "address",
              "name": "account",
              "type": "address"
            }
          ],
          "name": "OwnableUnauthorizedAccount",
          "type": "error"
        },
        {
          "anonymous": false,
          "inputs": [
            {
              "indexed": true,
              "internalType": "address",
              "name": "previousOwner",
              "type": "address"
            },
            {
              "indexed": true,
              "internalType": "address",
              "name": "newOwner",
              "type": "address"
            }
          ],
          "name": "OwnershipTransferred",
          "type": "event"
        },
        {
          "inputs": [
            {
              "components": [
                {
                  "internalType": "bytes32",
                  "name": "transactionId",
                  "type": "bytes32"
                }
              ],
              "internalType": "struct Params.CancelRecurrentTransaction",
              "name": "params",
              "type": "tuple"
            }
          ],
          "name": "cancelRecurrentTransaction",
          "outputs": [],
          "stateMutability": "nonpayable",
          "type": "function"
        },
        {
          "inputs": [
            {
              "components": [
                {
                  "internalType": "bytes32",
                  "name": "transactionId",
                  "type": "bytes32"
                },
                {
                  "internalType": "address",
                  "name": "tokenB",
                  "type": "address"
                },
                {
                  "internalType": "uint256",
                  "name": "healthFactorMultiplier",
                  "type": "uint256"
                },
                {
                  "internalType": "enum Enums.TransactionRoute",
                  "name": "route",
                  "type": "uint8"
                },
                {
                  "components": [
                    {
                      "internalType": "uint256",
                      "name": "deadline",
                      "type": "uint256"
                    },
                    {
                      "internalType": "uint8",
                      "name": "v",
                      "type": "uint8"
                    },
                    {
                      "internalType": "bytes32",
                      "name": "r",
                      "type": "bytes32"
                    },
                    {
                      "internalType": "bytes32",
                      "name": "s",
                      "type": "bytes32"
                    }
                  ],
                  "internalType": "struct Params.Signature",
                  "name": "signature",
                  "type": "tuple"
                }
              ],
              "internalType": "struct Params.FulfillOneTimeTransaction",
              "name": "params",
              "type": "tuple"
            }
          ],
          "name": "fulfillOneTimeTransaction",
          "outputs": [],
          "stateMutability": "payable",
          "type": "function"
        },
        {
          "inputs": [
            {
              "components": [
                {
                  "internalType": "bytes32",
                  "name": "transactionId",
                  "type": "bytes32"
                },
                {
                  "internalType": "address",
                  "name": "tokenB",
                  "type": "address"
                },
                {
                  "internalType": "uint256",
                  "name": "healthFactorMultiplier",
                  "type": "uint256"
                },
                {
                  "internalType": "enum Enums.TransactionRoute",
                  "name": "route",
                  "type": "uint8"
                },
                {
                  "components": [
                    {
                      "internalType": "uint256",
                      "name": "deadline",
                      "type": "uint256"
                    },
                    {
                      "internalType": "uint8",
                      "name": "v",
                      "type": "uint8"
                    },
                    {
                      "internalType": "bytes32",
                      "name": "r",
                      "type": "bytes32"
                    },
                    {
                      "internalType": "bytes32",
                      "name": "s",
                      "type": "bytes32"
                    }
                  ],
                  "internalType": "struct Params.Signature",
                  "name": "signature",
                  "type": "tuple"
                }
              ],
              "internalType": "struct Params.FulfillRecurrentTransaction",
              "name": "params",
              "type": "tuple"
            }
          ],
          "name": "fulfillRecurrentTransaction",
          "outputs": [],
          "stateMutability": "payable",
          "type": "function"
        },
        {
          "inputs": [
            {
              "components": [
                {
                  "internalType": "address",
                  "name": "merchant",
                  "type": "address"
                },
                {
                  "internalType": "address",
                  "name": "payer",
                  "type": "address"
                },
                {
                  "internalType": "address",
                  "name": "token",
                  "type": "address"
                },
                {
                  "internalType": "uint256",
                  "name": "amount",
                  "type": "uint256"
                }
              ],
              "internalType": "struct Params.AdjustTokenAmount",
              "name": "params",
              "type": "tuple"
            }
          ],
          "name": "getAdjustTokenAmount",
          "outputs": [
            {
              "internalType": "address",
              "name": "adjustedToken",
              "type": "address"
            },
            {
              "internalType": "uint256",
              "name": "adjustedAmount",
              "type": "uint256"
            }
          ],
          "stateMutability": "view",
          "type": "function"
        },
        {
          "inputs": [
            {
              "components": [
                {
                  "internalType": "address",
                  "name": "to",
                  "type": "address"
                },
                {
                  "internalType": "bytes32",
                  "name": "transactionId",
                  "type": "bytes32"
                },
                {
                  "internalType": "string",
                  "name": "URI",
                  "type": "string"
                }
              ],
              "internalType": "struct Params.MintReceipt",
              "name": "params",
              "type": "tuple"
            }
          ],
          "name": "mintOneTimeTransactionReceipt",
          "outputs": [],
          "stateMutability": "nonpayable",
          "type": "function"
        },
        {
          "inputs": [
            {
              "components": [
                {
                  "internalType": "address",
                  "name": "to",
                  "type": "address"
                },
                {
                  "internalType": "bytes32",
                  "name": "transactionId",
                  "type": "bytes32"
                },
                {
                  "internalType": "string",
                  "name": "URI",
                  "type": "string"
                }
              ],
              "internalType": "struct Params.MintReceipt",
              "name": "params",
              "type": "tuple"
            }
          ],
          "name": "mintRecurrentTransactionReceipt",
          "outputs": [],
          "stateMutability": "nonpayable",
          "type": "function"
        },
        {
          "inputs": [
            {
              "components": [
                {
                  "internalType": "address[]",
                  "name": "payers",
                  "type": "address[]"
                },
                {
                  "internalType": "address",
                  "name": "merchant",
                  "type": "address"
                },
                {
                  "internalType": "uint256[]",
                  "name": "amounts",
                  "type": "uint256[]"
                },
                {
                  "internalType": "address",
                  "name": "token",
                  "type": "address"
                },
                {
                  "internalType": "address",
                  "name": "tokenB",
                  "type": "address"
                },
                {
                  "internalType": "string",
                  "name": "description",
                  "type": "string"
                },
                {
                  "components": [
                    {
                      "internalType": "uint8",
                      "name": "schemaVersion",
                      "type": "uint8"
                    },
                    {
                      "internalType": "string",
                      "name": "value",
                      "type": "string"
                    }
                  ],
                  "internalType": "struct Types.Metadata",
                  "name": "metadata",
                  "type": "tuple"
                },
                {
                  "internalType": "uint256",
                  "name": "healthFactorMultiplier",
                  "type": "uint256"
                },
                {
                  "internalType": "enum Enums.TransactionRoute",
                  "name": "route",
                  "type": "uint8"
                },
                {
                  "components": [
                    {
                      "internalType": "uint256",
                      "name": "deadline",
                      "type": "uint256"
                    },
                    {
                      "internalType": "uint8",
                      "name": "v",
                      "type": "uint8"
                    },
                    {
                      "internalType": "bytes32",
                      "name": "r",
                      "type": "bytes32"
                    },
                    {
                      "internalType": "bytes32",
                      "name": "s",
                      "type": "bytes32"
                    }
                  ],
                  "internalType": "struct Params.Signature",
                  "name": "signature",
                  "type": "tuple"
                }
              ],
              "internalType": "struct Params.CreateOneTimeTransaction",
              "name": "params",
              "type": "tuple"
            }
          ],
          "name": "oneTimeTransaction",
          "outputs": [],
          "stateMutability": "payable",
          "type": "function"
        },
        {
          "inputs": [],
          "name": "owner",
          "outputs": [
            {
              "internalType": "address",
              "name": "",
              "type": "address"
            }
          ],
          "stateMutability": "view",
          "type": "function"
        },
        {
          "inputs": [
            {
              "components": [
                {
                  "internalType": "address",
                  "name": "merchant",
                  "type": "address"
                },
                {
                  "internalType": "address",
                  "name": "tokenB",
                  "type": "address"
                },
                {
                  "internalType": "bytes32",
                  "name": "subscriptionId",
                  "type": "bytes32"
                },
                {
                  "internalType": "string",
                  "name": "description",
                  "type": "string"
                },
                {
                  "components": [
                    {
                      "internalType": "uint8",
                      "name": "schemaVersion",
                      "type": "uint8"
                    },
                    {
                      "internalType": "string",
                      "name": "value",
                      "type": "string"
                    }
                  ],
                  "internalType": "struct Types.Metadata",
                  "name": "metadata",
                  "type": "tuple"
                },
                {
                  "internalType": "uint256",
                  "name": "healthFactorMultiplier",
                  "type": "uint256"
                },
                {
                  "internalType": "enum Enums.TransactionRoute",
                  "name": "route",
                  "type": "uint8"
                },
                {
                  "components": [
                    {
                      "internalType": "uint256",
                      "name": "deadline",
                      "type": "uint256"
                    },
                    {
                      "internalType": "uint8",
                      "name": "v",
                      "type": "uint8"
                    },
                    {
                      "internalType": "bytes32",
                      "name": "r",
                      "type": "bytes32"
                    },
                    {
                      "internalType": "bytes32",
                      "name": "s",
                      "type": "bytes32"
                    }
                  ],
                  "internalType": "struct Params.Signature",
                  "name": "signature",
                  "type": "tuple"
                }
              ],
              "internalType": "struct Params.CreateRecurrentTransaction",
              "name": "params",
              "type": "tuple"
            }
          ],
          "name": "recurrentTransaction",
          "outputs": [],
          "stateMutability": "payable",
          "type": "function"
        },
        {
          "inputs": [],
          "name": "renounceOwnership",
          "outputs": [],
          "stateMutability": "nonpayable",
          "type": "function"
        },
        {
          "inputs": [
            {
              "internalType": "contract IAaveV3",
              "name": "aave",
              "type": "address"
            }
          ],
          "name": "setAave",
          "outputs": [],
          "stateMutability": "nonpayable",
          "type": "function"
        },
        {
          "inputs": [
            {
              "internalType": "contract IOneTimeTransaction",
              "name": "transaction",
              "type": "address"
            }
          ],
          "name": "setOneTimeTransaction",
          "outputs": [],
          "stateMutability": "nonpayable",
          "type": "function"
        },
        {
          "inputs": [
            {
              "internalType": "contract IRecurrentTransaction",
              "name": "transaction",
              "type": "address"
            }
          ],
          "name": "setRecurentTransaction",
          "outputs": [],
          "stateMutability": "nonpayable",
          "type": "function"
        },
        {
          "inputs": [
            {
              "internalType": "contract IUniswap",
              "name": "uniswap",
              "type": "address"
            }
          ],
          "name": "setUniswap",
          "outputs": [],
          "stateMutability": "nonpayable",
          "type": "function"
        },
        {
          "inputs": [
            {
              "internalType": "address",
              "name": "newOwner",
              "type": "address"
            }
          ],
          "name": "transferOwnership",
          "outputs": [],
          "stateMutability": "nonpayable",
          "type": "function"
        },
        {
          "stateMutability": "payable",
          "type": "receive"
        }
      ],
      "evm": {
        "bytecode": {
          "linkReferences": {
            "contracts/libs/AddressLib.sol": {
              "AddressLib": [
                {
                  "length": 20,
                  "start": 1498
                },
                {
                  "length": 20,
                  "start": 4461
                },
                {
                  "length": 20,
                  "start": 6680
                },
                {
                  "length": 20,
                  "start": 9092
                }
              ]
            },
            "contracts/libs/IntegerLib.sol": {
              "IntegerLib": [
                {
                  "length": 20,
                  "start": 1700
                }
              ]
            }
          },
          "object": "6080346101c157601f613db238819003918201601f19168301916001600160401b038311848410176101c65780849260e0946040528339810103126101c15780516001600160a01b038116908190036101c15760208201516001600160a01b03811691908290036101c15760408301516001600160a01b03811691908290036101c15760608401516001600160a01b03811693908490036101c15760808501516001600160a01b03811691908290036101c15760a08601516001600160a01b03811696908790036101c15760c001516001600160a01b038116908190036101c15733156101ab5760008054336001600160a01b0319821681178355604051999290916001600160a01b0316907f8be0079c531659141344cd1fd0a4f28419497f9722a3daafe3b4186f6b6457e09080a360018060a01b0319600154161760015560018060a01b0319600254161760025560018060a01b0319600354161760035560018060a01b0319600454161760045560018060a01b0319600554161760055560018060a01b0319600654161760065560018060a01b03196007541617600755613bd590816101dd8239f35b631e4fbdf760e01b600052600060045260246000fd5b600080fd5b634e487b7160e01b600052604160045260246000fdfe608080604052600436101561001d575b50361561001b57600080fd5b005b600090813560e01c9081630bd0c23e14612a20575080631fd9b2bf146129205780632ad6c02f146128de578063535c1f7f1461289c5780635e1d56a9146128555780636ba5762b146120cd578063715018a6146120745780638da5cb5b1461204e5780638efecdda1461200c5780639915b96414611764578063a9e3aabe14610e83578063d571f40914610229578063d6b5891e146101e3578063e2f999a51461016b5763f2fde38b0361000f5734610168576020366003190112610168576001600160a01b036100ec612c22565b6100f4613100565b16801561013c576001600160a01b038254826001600160a01b03198216178455167f8be0079c531659141344cd1fd0a4f28419497f9722a3daafe3b4186f6b6457e08380a380f35b6024827f1e4fbdf700000000000000000000000000000000000000000000000000000000815280600452fd5b80fd5b5034610168578061017b36612caf565b6001600160a01b0360075416803b156101df576101b28392918392604051948580948193631d6e1f8560e31b835260048301612eb9565b03925af180156101d4576101c35750f35b816101cd91612c00565b6101685780f35b6040513d84823e3d90fd5b5050fd5b5034610168576020366003190112610168576004356001600160a01b03811680910361022557610211613100565b6001600160a01b0319600154161760015580f35b5080fd5b506020366003190112610168576004359067ffffffffffffffff8211610168576101a060031983360301126101685760405161026481612b8f565b826004013567ffffffffffffffff8111610e6757830136602382011215610e675760048101359061029482612e28565b916102a26040519384612c00565b808352602060048185019260051b8401010191368311610bfd57602401905b828210610e6b5750505081526102d960248401612c38565b6020820152604483013567ffffffffffffffff8111610e6757830136602382011215610e675760048101359061030e82612e28565b9161031c6040519384612c00565b808352602060048185019260051b8401010191368311610bfd57602401905b828210610e5757505050604082015261035660648401612c38565b606082015261036760848401612c38565b6080820190815260a484013567ffffffffffffffff8111610e53576103929060043691870101612c68565b60a083015260c484013567ffffffffffffffff8111610e53576103bb9060043691870101612de0565b60c0830190815260e083019260e48601358452610104860135956003871015610bfd576103f5906101008301978852610124369101612d38565b61012082015273__$9a64d4390e1f317cfd7b279e493df8b9ee$__6001600160a01b03602083015116813b15610c6b576040519063bf6341cf60e01b825260048201528681602481855af48015610c0157908791610e3e575b50508151813b15610c6b57604051907f11f599a500000000000000000000000000000000000000000000000000000000825287826024810192602060048301528051809452602060448301910193835b818110610e19575050819293500381855af48015610c0157908791610e04575b5050604082015173__$1472882dd151bacffe3e5240c3a944adb7$__803b15610c0c579087906040519283917fd0ca35ed00000000000000000000000000000000000000000000000000000000835260248301602060048501528151809152602060448501920190855b818110610de85750505082809103915af48015610c0157908791610dd3575b50906020858960a061061095878b6106386001600160a01b0360065416956106248d6040519c8d9a8b998a987fcc5a7dc5000000000000000000000000000000000000000000000000000000008a523360048b0152604060248b01526001600160a01b036105e96105c78c6101e48551916101a06044820152019061308f565b6020840151831660648e015260408401518d82036043190160848f01526130cc565b6060830151821660a48d015293511660c48b015201518882036043190160e48a0152612e94565b905186820360431901610104880152613062565b925161012485015251610144840190613082565b6101208a01518051610164840152602081015160ff1661018484015260408101516101a4840152606001516101c483015203925af1918215610c01578792610d9a575b50600654604080516316c9372360e11b81526004810185905233602482015291829060449082908c906001600160a01b03165af1918215610c6f5788918993610d67575b506001600160a01b03600354169060206001600160a01b0381880151166024604051809581936304d0a64760e01b835260048301525afa918215610cee578a92610d2b575b50803b15610c9a57896024916040519283809263bf6341cf60e01b82526001600160a01b03871660048301525af48015610cee57908a91610d16575b50506001600160a01b036020860151166001600160a01b036060870151166040519161076b83612b41565b825233602083015260408201528360608201526001600160a01b036004541690813b15610d12576107ef60848c9283604051958694859363577ed67f60e11b85526004850190606080916001600160a01b0381511684526001600160a01b0360208201511660208501526001600160a01b0360408201511660408501520151910152565b5af18015610cee57908a91610cf9575b50506001600160a01b03602086015116906001600160a01b036060870151166040519261082b84612b41565b8352336020840152604083015283606083015260406108a660846001600160a01b03600454169483519586938492630716fa0360e31b84526004840190606080916001600160a01b0381511684526001600160a01b0360208201511660208501526001600160a01b0360408201511660408501520151910152565b5afa978815610cee578a928b99610cb2575b506001600160a01b0390511698519a516003811015610c9e578a9b61092e916109246101208a015191604051936108ee85612b73565b6001600160a01b0388169e8f865260208601528d60408601526001600160a01b0387166060860152608085015260a08401612ff7565b60c082015261318c565b6001600160a01b0381163b15610c9a576040516326b3293f60e01b81526001600160a01b0392831660048201526024810189905260448101869052918a91839160649183913491165af1908115610c8f578991610c7a575b5050610c10575b6001600160a01b03602084015116906001600160a01b03606085015116604051926109b784612b73565b8352836020840152336040840152606083015260808201528560a08201528460c08201526001600160a01b0360045416803b15610c0c5760408051632b54892b60e01b815283516001600160a01b0390811660048301526020850151602483015291840151821660448201526060840151821660648201526080840151608482015260a084015190911660a482015260c09092015160c48301528790829060e490829084905af1908115610c01578791610be8575b50506001600160a01b03600554169180519160246001600160a01b03602084015116976001600160a01b036060850151169660a0604086015195015190519160206001600160a01b0360065416604051958680926302ef145760e51b82528960048301525afa938415610bdd578c94610bac575b50873b15610ba8578b998a966040519c8d9b8c9a8b997fd972fb48000000000000000000000000000000000000000000000000000000008b5260048b01523360248b015260448a0161018090526101848a01610b3b9161308f565b9160648a015260848901526003198882030160a4890152610b5b916130cc565b9160c487015260e48601524261010486015260031985820301610124860152610b8391612e94565b83810360031901610144850152610b9991613062565b9061016483016101b291613031565b8b80fd5b610bcf91945060203d602011610bd6575b610bc78183612c00565b810190613019565b9238610ae0565b503d610bbd565b6040513d8e823e3d90fd5b81610bf291612c00565b610bfd578538610a6c565b8580fd5b6040513d89823e3d90fd5b8780fd5b6001600160a01b0360065416803b15610c0c578780916024604051809481936305543f8560e01b83528860048401525af1908115610c6f578891610c56575b505061098d565b81610c6091612c00565b610c6b578638610c4f565b8680fd5b6040513d8a823e3d90fd5b81610c8491612c00565b610c0c578738610986565b6040513d8b823e3d90fd5b8980fd5b60248b634e487b7160e01b81526021600452fd5b610cdf9199506001600160a01b03935060403d604011610ce7575b610cd78183612c00565b810190612e54565b9890926108b8565b503d610ccd565b6040513d8c823e3d90fd5b81610d0391612c00565b610d0e5788386107ff565b8880fd5b8a80fd5b81610d2091612c00565b610d0e578838610740565b9091506020813d602011610d5f575b81610d4760209383612c00565b81010312610c9a57610d5890612e40565b9038610704565b3d9150610d3a565b909250610d8c915060403d604011610d93575b610d848183612c00565b81019061304b565b91386106bf565b503d610d7a565b9091506020813d602011610dcb575b81610db660209383612c00565b81010312610dc65751903861067b565b600080fd5b3d9150610da9565b81610ddd91612c00565b610bfd578538610547565b825184528d965087955060209384019390920191600101610528565b81610e0e91612c00565b610bfd5785386104be565b85516001600160a01b031683526020958601958d95508794509092019160010161049e565b81610e4891612c00565b610bfd57853861044e565b8380fd5b813581526020918201910161033b565b8280fd5b60208091610e7884612c38565b8152019101906102c1565b506020366003190112610168576004359067ffffffffffffffff82116101685761016060031983360301126101685760405190610100820182811067ffffffffffffffff82111761175057604052610edd83600401612c38565b8252610eeb60248401612c38565b92602083019384526040830160448201358152606482013567ffffffffffffffff8111610e5357610f229060043691850101612c68565b9360608101948552608483013567ffffffffffffffff811161174c57610f4e9060043691860101612de0565b946080820195865260a082019360a4810135855260c4810135906003821015610c6b57610f869060c0850192835260e4369101612d38565b9660e0840197885273__$9a64d4390e1f317cfd7b279e493df8b9ee$__946001600160a01b03855116863b15610d0e576040519063bf6341cf60e01b8252600482015288816024818a5af48015610c8f579189878c888f958d9897611727575b50916001600160a01b03976110c260209796959361107d61106a8c978860075416996040519e8f9c8d9b8c9a7f8441a89c000000000000000000000000000000000000000000000000000000008c523360048d0152604060248d0152511660448b0152511660648901525160848801525161016060a48801526101a4870190612e94565b8b518682036043190160c4880152613062565b925160e48501526110948c51610104860190613082565b518051610124850152602081015160ff16610144850152604081015161016485015260600151610184840152565b03925af1918215610c6f5788926116f3575b506007546040516316c9372360e11b8152600481018490523360248201529a906060908c9060449082908d906001600160a01b03165af1968715610c8f5789948a9c8b996116b8575b506001600160a01b036003541660206001600160a01b038a51166024604051809481936304d0a64760e01b835260048301525afa908115610bdd578c9161167e575b50823b15610ba8578b6001600160a01b039160246040518094819363bf6341cf60e01b835216968760048301525af48015610bdd57611669575b506001600160a01b036111b69b9c9d818a51166040519d8e612b41565b8d528c602033910152169a8b60408201528660608201526001600160a01b036004541690813b156116655761123e60848f9283604051958694859363577ed67f60e11b85526004850190606080916001600160a01b0381511684526001600160a01b0360208201511660208501526001600160a01b0360408201511660408501520151910152565b5af1801561164557908d91611650575b50506001600160a01b03885116926040519361126985612b41565b84523360208501528b604085015286606085015260406112e560846001600160a01b03600454169683519788938492630716fa0360e31b84526004840190606080916001600160a01b0381511684526001600160a01b0360208201511660208501526001600160a01b0360408201511660408501520151910152565b5afa93841561164557908d9392918495611619575b506001600160a01b039051169a5190516003811015611605578d9e51906040519261132484612b73565b6001600160a01b0386169d8e85526020850152866040850152846060850152608084015260a083019061135691612ff7565b60c08201526113649061318c565b803b15610ba8576040516326b3293f60e01b81526001600160a01b0392909216600483015260248201839052604482018590528b908290606490829034905af19081156115d0578b916115f0575b50506001600160a01b0360075416803b15610d12578a809160446040518094819363b38ffd5f60e01b83528960048401528a60248401525af19081156115d0578b916115db575b50506001600160a01b038651166040519061141382612b73565b81528360208201523360408201528960608201528460808201528860a08201528160c08201526001600160a01b0360045416803b15610ba85760408051632b54892b60e01b815283516001600160a01b0390811660048301526020850151602483015291840151821660448201526060840151821660648201526080840151608482015260a084015190911660a482015260c09092015160c48301528b90829060e490829084905af19081156115d0578b916115bb575b50506024916001600160a01b038060055416975116955190519160206001600160a01b0360075416604051958680926302ef145760e51b82528960048301525afa938415610bdd578c9461159a575b50873b15610ba8578b998a966040519c8d9b8c9a8b997f9e0e92e4000000000000000000000000000000000000000000000000000000008b5260048b01523360248b015260448a01526064890152608488015260a487015260c486015260e485015242610104850152610124840161018090526101848401610b8391612e94565b6115b491945060203d602011610bd657610bc78183612c00565b9238611519565b816115c591612c00565b610c9a5789386114ca565b6040513d8d823e3d90fd5b816115e591612c00565b610c9a5789386113f9565b816115fa91612c00565b610c9a5789386113b2565b60248e634e487b7160e01b81526021600452fd5b61163d9195506001600160a01b03945060403d604011610ce757610cd78183612c00565b9490936112fa565b6040513d8f823e3d90fd5b8161165a91612c00565b610ba8578b3861124e565b8d80fd5b6116748c8092612c00565b610d125738611199565b90506020813d6020116116b0575b8161169960209383612c00565b81010312610ba8576116aa90612e40565b3861115f565b3d915061168c565b91955097506116e0919b5060603d6060116116ec575b6116d88183612c00565b810190612fdb565b9b9194909b973861111d565b503d6116ce565b9091506020813d60201161171f575b8161170f60209383612c00565b81010312610dc6575190386110d4565b3d9150611702565b9250505061173a92949550819350612c00565b610c0c579089879289878c8838610fe6565b8480fd5b602482634e487b7160e01b81526041600452fd5b506101003660031901126101685761177b36612d7b565b906001600160a01b0360065416918051906040519163255709e560e11b835260048301528282602481875afa918215611dd6578392611de1575b508051604080516316c9372360e11b8152600481019290925233602483015290948590604490829087905af1918215611dd65783948493611daf575b506001600160a01b0360035416946040820160206001600160a01b038251166024604051809a81936304d0a64760e01b835260048301525afa968715611da4578697611d68575b5073__$9a64d4390e1f317cfd7b279e493df8b9ee$__96873b15610c6b57866001600160a01b039160246040518094819363bf6341cf60e01b8352169b8c60048301525af48015610c0157908791611d53575b505060a06001600160a01b038251169301926001600160a01b03845116604051916118b583612b41565b825233602083015260408201528560608201526001600160a01b036004541690813b15610c0c576119396084899283604051958694859363577ed67f60e11b85526004850190606080916001600160a01b0381511684526001600160a01b0360208201511660208501526001600160a01b0360408201511660408501520151910152565b5af18015610c0157908791611d3e575b50506001600160a01b03815116966001600160a01b038451166040519861196f8a612b41565b89523360208a0152604089015285606089015260406119ea60846001600160a01b03600454169a83519b8c938492630716fa0360e31b84526004840190606080916001600160a01b0381511684526001600160a01b0360208201511660208501526001600160a01b0360408201511660408501520151910152565b5afa928315610c015787988894611d17575b506001600160a01b036020870151169160408701519960608801516003811015610c9e578a9b611a699161092460808c01519160405193611a3c85612b73565b6001600160a01b038716998a865260208601528b6040860152876060860152608085015260a08401612ff7565b8751823b15610d12576040516326b3293f60e01b81526001600160a01b039290921660048301526024820187905260448201529089908290606490829034905af1908115610c8f578991611d02575b5050611ca4575b6001600160a01b0382511685516001600160a01b038651169060405192611ae584612b73565b8352602083015233604083015260608201528660808201528160a08201528360c08201526001600160a01b0360045416803b15610d0e5760408051632b54892b60e01b815283516001600160a01b0390811660048301526020850151602483015291840151821660448201526060840151821660648201526080840151608482015260a084015190911660a482015260c09092015160c48301528890829060e490829084905af1908115610c6f578891611c8f575b50506024946001600160a01b0380806005541692519451169551169660206001600160a01b0360065416604051988980926302ef145760e51b82528860048301525afa968715610c8f578997611c6e575b50813b15610d0e578896610124958894611c5f936040519b8c9a8b997fd3eca8ee000000000000000000000000000000000000000000000000000000008b5260048b01523360248b015260448a01526064890152608488015260a487015260c48601524260e4860152610104850190613031565b5af180156101d4576101c35750f35b611c8891975060203d602011610bd657610bc78183612c00565b9538611beb565b81611c9991612c00565b610c6b578638611b9a565b6001600160a01b03600654168551813b15610d0e5788916024839260405194859384926305543f8560e01b845260048401525af1908115610c6f578891611ced575b5050611abf565b81611cf791612c00565b610c6b578638611ce6565b81611d0c91612c00565b610c0c578738611ab8565b909350611d3491985060403d604011610ce757610cd78183612c00565b97909792386119fc565b81611d4891612c00565b610bfd578538611949565b81611d5d91612c00565b610bfd57853861188b565b9096506020813d602011611d9c575b81611d8460209383612c00565b81010312610bfd57611d9590612e40565b9538611838565b3d9150611d77565b6040513d88823e3d90fd5b909250611dcc91945060403d604011610d9357610d848183612c00565b93909391386117f1565b6040513d85823e3d90fd5b9391503d8084863e611df38186612c00565b840193602081860312610e535780519067ffffffffffffffff821161174c57019361014085820312610e535760405190611e2c82612b8f565b611e3586612e40565b8252602086015167ffffffffffffffff8111610bfd57860181601f82011215610bfd57805190611e6482612e28565b91611e726040519384612c00565b80835260208084019160051b83010191848311610d0e57602001905b828210611ff4575050506020830152611ea960408701612e40565b6040830152606086015167ffffffffffffffff8111610bfd5781611ece918801612f33565b6060830152608086015167ffffffffffffffff8111610bfd5786019581601f88011215610bfd57865196611f0188612e28565b90611f0f6040519283612c00565b88825260208083019960051b82010190848211610d0e57602001985b818a10611fdc5750508697506080840152611f4860a08201612e40565b60a084015260c081015167ffffffffffffffff8111610c6b5782611f6d918301612f33565b60c084015260e081015167ffffffffffffffff8111610c6b5782611f92918301612ef1565b60e084015261010081015167ffffffffffffffff8111610c6b5761012092611fbb918301612f90565b6101008401520151600481101561174c5761012082015291935060406117b5565b60208091611fe98c61303e565b815201990198611f2b565b6020809161200184612e40565b815201910190611e8e565b5034610168576020366003190112610168576004356001600160a01b0381168091036102255761203a613100565b6001600160a01b0319600254161760025580f35b50346101685780600319360112610168576001600160a01b036020915416604051908152f35b503461016857806003193601126101685761208d613100565b806001600160a01b0381546001600160a01b031981168355167f8be0079c531659141344cd1fd0a4f28419497f9722a3daafe3b4186f6b6457e08280a380f35b50610100366003190112610168576120e436612d7b565b906001600160a01b0360075416918051926040519363255709e560e11b855260048501528284602481845afa938415611dd6578394612704575b5081516040516316c9372360e11b8152600481019190915233602482015291906060908390604490829087905af1918215611dd6578394849185946126dc575b5060206001600160a01b0360035416910160206001600160a01b038251166024604051809581936304d0a64760e01b835260048301525afa918215611da45786926126a0575b5073__$9a64d4390e1f317cfd7b279e493df8b9ee$__91823b15610c6b57866001600160a01b039160246040518094819363bf6341cf60e01b835216968760048301525af48015610c015790879161268b575b50506001600160a01b0380825116936040519461221386612b41565b855233602086015216928360408201528760608201526001600160a01b036004541690813b15610c0c5761229a6084899283604051958694859363577ed67f60e11b85526004850190606080916001600160a01b0381511684526001600160a01b0360208201511660208501526001600160a01b0360408201511660408501520151910152565b5af18015610c0157908791612676575b50506001600160a01b0381511696604051976122c589612b41565b8852336020890152836040890152806060890152604061234160846001600160a01b03600454169a83519b8c938492630716fa0360e31b84526004840190606080916001600160a01b0381511684526001600160a01b0360208201511660208501526001600160a01b0360408201511660408501520151910152565b5afa948515610c01578798889661264f575b506001600160a01b036020820151169360408201519960608301516003811015610c9e578a9b6123c0916109246080870151916040519361239385612b73565b6001600160a01b0387169b8c865260208601528d6040860152876060860152608085015260a08401612ff7565b8251823b15610d12576040516326b3293f60e01b81526001600160a01b039290921660048301526024820189905260448201529089908290606490829034905af1908115610c8f57899161263a575b50506001600160a01b03600754168151813b15610c9a57899160448392604051948593849263b38ffd5f60e01b845260048401528860248401525af1908115610c8f578991612625575b50506001600160a01b0383511681516040519161247583612b73565b825260208201523360408201528560608201528260808201528460a08201528660c08201526001600160a01b0360045416803b15610c9a5760408051632b54892b60e01b815283516001600160a01b0390811660048301526020850151602483015291840151821660448201526060840151821660648201526080840151608482015260a084015190911660a482015260c09092015160c48301528990829060e490829084905af1908115610c8f578991612610575b50506001600160a01b038060055416915193511694602460206001600160a01b0360075416604051928380926302ef145760e51b82528960048301525afa908115610cee578a916125f1575b50823b15610c9a578997610144968995611c5f946040519c8d9b8c9a7f5261bbdb000000000000000000000000000000000000000000000000000000008c5260048c01523360248c015260448b015260648a0152608489015260a488015260c487015260e486015242610104860152610124850190613031565b61260a915060203d602011610bd657610bc78183612c00565b38612577565b8161261a91612c00565b610c0c57873861252b565b8161262f91612c00565b610c0c578738612459565b8161264491612c00565b610c0c57873861240f565b90955061266c91985060403d604011610ce757610cd78183612c00565b9790979438612353565b8161268091612c00565b610bfd5785386122aa565b8161269591612c00565b610bfd5785386121f7565b9091506020813d6020116126d4575b816126bc60209383612c00565b81010312610bfd576126cd90612e40565b90386121a4565b3d91506126af565b915092506126fa91945060603d6060116116ec576116d88183612c00565b919491923861215e565b9093503d8084833e6127168183612c00565b810190602081830312610e535780519067ffffffffffffffff821161174c570161012081830312610e535760405191610120830183811067ffffffffffffffff8211176128415760405261276982612e40565b835261277760208301612e40565b602084015260408201516040840152606082015167ffffffffffffffff8111610bfd57816127a6918401612ef1565b6060840152608082015167ffffffffffffffff8111610bfd57816127cb918401612f33565b608084015260a082015167ffffffffffffffff8111610bfd57816127f0918401612f33565b60a084015260c082015160c084015260e082015167ffffffffffffffff8111610bfd578291612823916101009401612f90565b60e084015201516004811015610e535761010082015292606061211e565b602486634e487b7160e01b81526041600452fd5b5034610168578061286536612caf565b6001600160a01b0360065416803b156101df576101b28392918392604051948580948193631d6e1f8560e31b835260048301612eb9565b5034610168576020366003190112610168576004356001600160a01b038116809103610225576128ca613100565b6001600160a01b0319600754161760075580f35b5034610168576020366003190112610168576004356001600160a01b0381168091036102255761290c613100565b6001600160a01b0319600654161760065580f35b503461016857602036600319011261016857604051906020820182811067ffffffffffffffff821117611750576040526004358083526001600160a01b036007541690813b15610e675782916044839260405194859384927f3ed5027500000000000000000000000000000000000000000000000000000000845233600485015260248401525af180156101d457612a10575b5080916001600160a01b03600554169051813b156101df5782916024839260405194859384927fb60269d000000000000000000000000000000000000000000000000000000000845260048401525af180156101d4576101c35750f35b81612a1a91612c00565b386129b3565b823461016857608036600319011261016857612a3b82612b41565b612a43612c22565b82526024356001600160a01b03811681036102255760208301526044356001600160a01b038116810361022557604083015260643560608301526040612ae560846001600160a01b03600454169483519586938492630716fa0360e31b84526004840190606080916001600160a01b0381511684526001600160a01b0360208201511660208501526001600160a01b0360408201511660408501520151910152565b5afa918215612b34578192612b12575b50604080516001600160a01b039290921682526020820192909252f35b9050612b2d915060403d604011610ce757610cd78183612c00565b9082612af5565b50604051903d90823e3d90fd5b6080810190811067ffffffffffffffff821117612b5d57604052565b634e487b7160e01b600052604160045260246000fd5b60e0810190811067ffffffffffffffff821117612b5d57604052565b610140810190811067ffffffffffffffff821117612b5d57604052565b6060810190811067ffffffffffffffff821117612b5d57604052565b60a0810190811067ffffffffffffffff821117612b5d57604052565b6040810190811067ffffffffffffffff821117612b5d57604052565b90601f8019910116810190811067ffffffffffffffff821117612b5d57604052565b600435906001600160a01b0382168203610dc657565b35906001600160a01b0382168203610dc657565b67ffffffffffffffff8111612b5d57601f01601f191660200190565b81601f82011215610dc657803590612c7f82612c4c565b92612c8d6040519485612c00565b82845260208383010111610dc657816000926020809301838601378301015290565b6020600319820112610dc65760043567ffffffffffffffff8111610dc65760608183036003190112610dc65760405191612ce883612bac565b612cf482600401612c38565b83526024820135602084015260448201359167ffffffffffffffff8311610dc657612d229201600401612c68565b604082015290565b359060ff82168203610dc657565b9190826080910312610dc657604051612d5081612b41565b606080829480358452612d6560208201612d2a565b6020850152604081013560408501520135910152565b90610100600319830112610dc657604051612d9581612bc8565b809260043582526024356001600160a01b0381168103610dc657602083015260443560408301526064356003811015610dc657608091612ddb9160608501526084612d38565b910152565b9190604083820312610dc65760405190612df982612be4565b8193612e0481612d2a565b835260208101359167ffffffffffffffff8311610dc657602092612ddb9201612c68565b67ffffffffffffffff8111612b5d5760051b60200190565b51906001600160a01b0382168203610dc657565b9190826040910312610dc6576020612e6b83612e40565b92015190565b60005b838110612e845750506000910152565b8181015183820152602001612e74565b90602091612ead81518092818552858086019101612e71565b601f01601f1916010190565b60806040612eee93602084526001600160a01b0381511660208501526020810151828501520151916060808201520190612e94565b90565b81601f82011215610dc6578051612f0781612c4c565b92612f156040519485612c00565b81845260208284010111610dc657612eee9160208085019101612e71565b9080601f83011215610dc6578151612f4a81612e28565b92612f586040519485612c00565b81845260208085019260051b820101928311610dc657602001905b828210612f805750505090565b8151815260209182019101612f73565b9190604083820312610dc65760405190612fa982612be4565b8193805160ff81168103610dc657835260208101519167ffffffffffffffff8311610dc657602092612ddb9201612ef1565b90816060910312610dc6578051916040612e6b60208401612e40565b60038210156130035752565b634e487b7160e01b600052602160045260246000fd5b90816020910312610dc657516004811015610dc65790565b9060048210156130035752565b51908115158203610dc657565b9190826040910312610dc6576020612e6b8361303e565b9060406020612eee9360ff81511684520151918160208201520190612e94565b9060038210156130035752565b906020808351928381520192019060005b8181106130ad5750505090565b82516001600160a01b03168452602093840193909201916001016130a0565b906020808351928381520192019060005b8181106130ea5750505090565b82518452602093840193909201916001016130dd565b6001600160a01b0360005416330361311457565b7f118cdaa7000000000000000000000000000000000000000000000000000000006000523360045260246000fd5b1561314a5750565b613188906040519182917f08c379a0000000000000000000000000000000000000000000000000000000008352602060048401526024830190612e94565b0390fd5b906000916001600160a01b038151168015600014613a8057503331905b60408101805190929081106132bc575080516001600160a01b0316806132335750613217613231939483513410159050604051906131e8604083612c00565b600382527f31303000000000000000000000000000000000000000000000000000000000006020830152613142565b6001600160a01b0360608183511693519201511691613b09565b565b82516040516323b872dd60e01b8152336004820152306024820152604481019190915294906020908690606490829085905af18015612b345761327d575b50613231929350613217565b6020853d6020116132b4575b8161329660209383612c00565b8101031261016857506132ac613231939461303e565b508392613271565b3d9150613289565b81516001600160a01b031680613a0757506133106040516132de604082612c00565b600181527f35000000000000000000000000000000000000000000000000000000000000006020820152823414613142565b82519081039081116139f35760a08201805160038110156139df5760010361361457508460208301916001600160a01b038351169260206001600160a01b03606481885116966040519061336382612bac565b81528381019788528660408201878152846002541690856040519b8c9788967f35d260ec00000000000000000000000000000000000000000000000000000000885251166004870152511660248501525160448401525af1938415611dd65783946135dd575b506001600160a01b038151166001600160a01b0386511694604051916133ee83612b41565b8252602082019586526040820192818452606083019485526001600160a01b03815116806134cc575b50506001600160a01b0360025416803b15610bfd576001600160a01b039460849486604051998a9889977f3d6a7eb400000000000000000000000000000000000000000000000000000000895251166004880152511660248601525160448501525160648401525af180156134c1576134ac575b506132319293506001600160a01b0360608183511693519201511691613b09565b6134b7858092612c00565b610e53578361348b565b6040513d87823e3d90fd5b6040516323b872dd60e01b81523360048201523060248201526044810184905290602090829060649082908b905af1908115610c01578391613590575b50905160025460405163095ea7b360e01b81526001600160a01b0391821660048201526024810193909352602091839116818981604481015b03925af18015611da457613557575b80613417565b6020813d602011613588575b8161357060209383612c00565b81010312610bfd576135819061303e565b5038613551565b3d9150613563565b90506020813d6020116135d5575b816135ab60209383612c00565b81010312610c6b57826001600160a01b03613542936135cb60209461303e565b5093505090613509565b3d915061359e565b925092506020823d60201161360c575b816135fa60209383612c00565b81010312610dc65786915192386133c9565b3d91506135ed565b5160038110156139cb576002146136315750613231929350613217565b92919080516001600160a01b031694602082019485516001600160a01b0316966080840151976040519061366482612bc8565b338252602082019283526040820199848b5260608301918252608083019081526001546001600160a01b0316916040519b8c9586957ff293357b000000000000000000000000000000000000000000000000000000008752516001600160a01b03166004870152516001600160a01b03166024860152516044850152516001600160a01b031660648401525160848301525a9260a491602094fa9687156101d4578297613997575b506001600160a01b03865116906001600160a01b038451169760c0850151906040519160c0830183811067ffffffffffffffff82111761398357604052338352602083019485526040830199828b52606084019b8c526080840194855260a084019182526001600160a01b038151168015158061397a575b613869575b50506001600160a01b036001541693843b15610c6b57869798999a9b6040519c8d9788967f7b4efcfd000000000000000000000000000000000000000000000000000000008852516001600160a01b03166004880152516001600160a01b03166024870152516044860152516001600160a01b031660648501525160848401525160a4830161383891606080918051845260ff6020820151166020850152604081015160408501520151910152565b5a9261012493f1948515612b34576132319495613859575b50849350613271565b8161386391612c00565b38613850565b6040516323b872dd60e01b81523360048201523060248201526044810185905290602090829060649082908c905af18015610c6f5790849161392d575b50905160015460405163095ea7b360e01b81526001600160a01b0391821660048201526024810193909352602091839116818a81604481015b03925af18015610c01576138f4575b80613789565b6020813d602011613925575b8161390d60209383612c00565b81010312610c6b5761391e9061303e565b50386138ee565b3d9150613900565b90506020813d602011613972575b8161394860209383612c00565b81010312610c0c57836001600160a01b036138df9361396860209461303e565b50935050906138a6565b3d915061393b565b50831515613784565b602487634e487b7160e01b81526041600452fd5b9096506020813d6020116139c3575b816139b360209383612c00565b810103126102255751953861370c565b3d91506139a6565b602486634e487b7160e01b81526021600452fd5b602487634e487b7160e01b81526021600452fd5b602485634e487b7160e01b81526011600452fd5b6040516323b872dd60e01b81523360048201523060248201526044810183905290602090829060649082908a905af18015611da457613a47575b50613310565b6020813d602011613a78575b81613a6060209383612c00565b81010312610bfd57613a719061303e565b5038613a41565b3d9150613a53565b6020602491604051928380927f70a082310000000000000000000000000000000000000000000000000000000082523360048301525afa908115613afe578491613acc575b50906131a9565b90506020813d602011613af6575b81613ae760209383612c00565b81010312610e53575138613ac5565b3d9150613ada565b6040513d86823e3d90fd5b6001600160a01b0316919082613b1e57505050565b60405163095ea7b360e01b81526001600160a01b03929092166004830152602482015290602090829060449082906000905af18015613b9357613b5e5750565b6020813d602011613b8b575b81613b7760209383612c00565b81010312610dc657613b889061303e565b50565b3d9150613b6a565b6040513d6000823e3d90fdfea2646970667358221220a9d9759f6b37e72e08c73aac04edf54fed4477b6feef73c26792291163a382ce64736f6c634300081c0033",
          "opcodes": "PUSH1 0x80 CALLVALUE PUSH2 0x1C1 JUMPI PUSH1 0x1F PUSH2 0x3DB2 CODESIZE DUP2 SWAP1 SUB SWAP2 DUP3 ADD PUSH1 0x1F NOT AND DUP4 ADD SWAP2 PUSH1 0x1 PUSH1 0x1 PUSH1 0x40 SHL SUB DUP4 GT DUP5 DUP5 LT OR PUSH2 0x1C6 JUMPI DUP1 DUP5 SWAP3 PUSH1 0xE0 SWAP5 PUSH1 0x40 MSTORE DUP4 CODECOPY DUP2 ADD SUB SLT PUSH2 0x1C1 JUMPI DUP1 MLOAD PUSH1 0x1 PUSH1 0x1 PUSH1 0xA0 SHL SUB DUP2 AND SWAP1 DUP2 SWAP1 SUB PUSH2 0x1C1 JUMPI PUSH1 0x20 DUP3 ADD MLOAD PUSH1 0x1 PUSH1 0x1 PUSH1 0xA0 SHL SUB DUP2 AND SWAP2 SWAP1 DUP3 SWAP1 SUB PUSH2 0x1C1 JUMPI PUSH1 0x40 DUP4 ADD MLOAD PUSH1 0x1 PUSH1 0x1 PUSH1 0xA0 SHL SUB DUP2 AND SWAP2 SWAP1 DUP3 SWAP1 SUB PUSH2 0x1C1 JUMPI PUSH1 0x60 DUP5 ADD MLOAD PUSH1 0x1 PUSH1 0x1 PUSH1 0xA0 SHL SUB DUP2 AND SWAP4 SWAP1 DUP5 SWAP1 SUB PUSH2 0x1C1 JUMPI PUSH1 0x80 DUP6 ADD MLOAD PUSH1 0x1 PUSH1 0x1 PUSH1 0xA0 SHL SUB DUP2 AND SWAP2 SWAP1 DUP3 SWAP1 SUB PUSH2 0x1C1 JUMPI PUSH1 0xA0 DUP7 ADD MLOAD PUSH1 0x1 PUSH1 0x1 PUSH1 0xA0 SHL SUB DUP2 AND SWAP7 SWAP1 DUP8 SWAP1 SUB PUSH2 0x1C1 JUMPI PUSH1 0xC0 ADD MLOAD PUSH1 0x1 PUSH1 0x1 PUSH1 0xA0 SHL SUB DUP2 AND SWAP1 DUP2 SWAP1 SUB PUSH2 0x1C1 JUMPI CALLER ISZERO PUSH2 0x1AB JUMPI PUSH1 0x0 DUP1 SLOAD CALLER PUSH1 0x1 PUSH1 0x1 PUSH1 0xA0 SHL SUB NOT DUP3 AND DUP2 OR DUP4 SSTORE PUSH1 0x40 MLOAD SWAP10 SWAP3 SWAP1 SWAP2 PUSH1 0x1 PUSH1 0x1 PUSH1 0xA0 SHL SUB AND SWAP1 PUSH32 0x8BE0079C531659141344CD1FD0A4F28419497F9722A3DAAFE3B4186F6B6457E0 SWAP1 DUP1 LOG3 PUSH1 0x1 DUP1 PUSH1 0xA0 SHL SUB NOT PUSH1 0x1 SLOAD AND OR PUSH1 0x1 SSTORE PUSH1 0x1 DUP1 PUSH1 0xA0 SHL SUB NOT PUSH1 0x2 SLOAD AND OR PUSH1 0x2 SSTORE PUSH1 0x1 DUP1 PUSH1 0xA0 SHL SUB NOT PUSH1 0x3 SLOAD AND OR PUSH1 0x3 SSTORE PUSH1 0x1 DUP1 PUSH1 0xA0 SHL SUB NOT PUSH1 0x4 SLOAD AND OR PUSH1 0x4 SSTORE PUSH1 0x1 DUP1 PUSH1 0xA0 SHL SUB NOT PUSH1 0x5 SLOAD AND OR PUSH1 0x5 SSTORE PUSH1 0x1 DUP1 PUSH1 0xA0 SHL SUB NOT PUSH1 0x6 SLOAD AND OR PUSH1 0x6 SSTORE PUSH1 0x1 DUP1 PUSH1 0xA0 SHL SUB NOT PUSH1 0x7 SLOAD AND OR PUSH1 0x7 SSTORE PUSH2 0x3BD5 SWAP1 DUP2 PUSH2 0x1DD DUP3 CODECOPY RETURN JUMPDEST PUSH4 0x1E4FBDF7 PUSH1 0xE0 SHL PUSH1 0x0 MSTORE PUSH1 0x0 PUSH1 0x4 MSTORE PUSH1 0x24 PUSH1 0x0 REVERT JUMPDEST PUSH1 0x0 DUP1 REVERT JUMPDEST PUSH4 0x4E487B71 PUSH1 0xE0 SHL PUSH1 0x0 MSTORE PUSH1 0x41 PUSH1 0x4 MSTORE PUSH1 0x24 PUSH1 0x0 REVERT INVALID PUSH1 0x80 DUP1 PUSH1 0x40 MSTORE PUSH1 0x4 CALLDATASIZE LT ISZERO PUSH2 0x1D JUMPI JUMPDEST POP CALLDATASIZE ISZERO PUSH2 0x1B JUMPI PUSH1 0x0 DUP1 REVERT JUMPDEST STOP JUMPDEST PUSH1 0x0 SWAP1 DUP2 CALLDATALOAD PUSH1 0xE0 SHR SWAP1 DUP2 PUSH4 0xBD0C23E EQ PUSH2 0x2A20 JUMPI POP DUP1 PUSH4 0x1FD9B2BF EQ PUSH2 0x2920 JUMPI DUP1 PUSH4 0x2AD6C02F EQ PUSH2 0x28DE JUMPI DUP1 PUSH4 0x535C1F7F EQ PUSH2 0x289C JUMPI DUP1 PUSH4 0x5E1D56A9 EQ PUSH2 0x2855 JUMPI DUP1 PUSH4 0x6BA5762B EQ PUSH2 0x20CD JUMPI DUP1 PUSH4 0x715018A6 EQ PUSH2 0x2074 JUMPI DUP1 PUSH4 0x8DA5CB5B EQ PUSH2 0x204E JUMPI DUP1 PUSH4 0x8EFECDDA EQ PUSH2 0x200C JUMPI DUP1 PUSH4 0x9915B964 EQ PUSH2 0x1764 JUMPI DUP1 PUSH4 0xA9E3AABE EQ PUSH2 0xE83 JUMPI DUP1 PUSH4 0xD571F409 EQ PUSH2 0x229 JUMPI DUP1 PUSH4 0xD6B5891E EQ PUSH2 0x1E3 JUMPI DUP1 PUSH4 0xE2F999A5 EQ PUSH2 0x16B JUMPI PUSH4 0xF2FDE38B SUB PUSH2 0xF JUMPI CALLVALUE PUSH2 0x168 JUMPI PUSH1 0x20 CALLDATASIZE PUSH1 0x3 NOT ADD SLT PUSH2 0x168 JUMPI PUSH1 0x1 PUSH1 0x1 PUSH1 0xA0 SHL SUB PUSH2 0xEC PUSH2 0x2C22 JUMP JUMPDEST PUSH2 0xF4 PUSH2 0x3100 JUMP JUMPDEST AND DUP1 ISZERO PUSH2 0x13C JUMPI PUSH1 0x1 PUSH1 0x1 PUSH1 0xA0 SHL SUB DUP3 SLOAD DUP3 PUSH1 0x1 PUSH1 0x1 PUSH1 0xA0 SHL SUB NOT DUP3 AND OR DUP5 SSTORE AND PUSH32 0x8BE0079C531659141344CD1FD0A4F28419497F9722A3DAAFE3B4186F6B6457E0 DUP4 DUP1 LOG3 DUP1 RETURN JUMPDEST PUSH1 0x24 DUP3 PUSH32 0x1E4FBDF700000000000000000000000000000000000000000000000000000000 DUP2 MSTORE DUP1 PUSH1 0x4 MSTORE REVERT JUMPDEST DUP1 REVERT JUMPDEST POP CALLVALUE PUSH2 0x168 JUMPI DUP1 PUSH2 0x17B CALLDATASIZE PUSH2 0x2CAF JUMP JUMPDEST PUSH1 0x1 PUSH1 0x1 PUSH1 0xA0 SHL SUB PUSH1 0x7 SLOAD AND DUP1 EXTCODESIZE ISZERO PUSH2 0x1DF JUMPI PUSH2 0x1B2 DUP4 SWAP3 SWAP2 DUP4 SWAP3 PUSH1 0x40 MLOAD SWAP5 DUP6 DUP1 SWAP5 DUP2 SWAP4 PUSH4 0x1D6E1F85 PUSH1 0xE3 SHL DUP4 MSTORE PUSH1 0x4 DUP4 ADD PUSH2 0x2EB9 JUMP JUMPDEST SUB SWAP3 GAS CALL DUP1 ISZERO PUSH2 0x1D4 JUMPI PUSH2 0x1C3 JUMPI POP RETURN JUMPDEST DUP2 PUSH2 0x1CD SWAP2 PUSH2 0x2C00 JUMP JUMPDEST PUSH2 0x168 JUMPI DUP1 RETURN JUMPDEST PUSH1 0x40 MLOAD RETURNDATASIZE DUP5 DUP3 RETURNDATACOPY RETURNDATASIZE SWAP1 REVERT JUMPDEST POP POP REVERT JUMPDEST POP CALLVALUE PUSH2 0x168 JUMPI PUSH1 0x20 CALLDATASIZE PUSH1 0x3 NOT ADD SLT PUSH2 0x168 JUMPI PUSH1 0x4 CALLDATALOAD PUSH1 0x1 PUSH1 0x1 PUSH1 0xA0 SHL SUB DUP2 AND DUP1 SWAP2 SUB PUSH2 0x225 JUMPI PUSH2 0x211 PUSH2 0x3100 JUMP JUMPDEST PUSH1 0x1 PUSH1 0x1 PUSH1 0xA0 SHL SUB NOT PUSH1 0x1 SLOAD AND OR PUSH1 0x1 SSTORE DUP1 RETURN JUMPDEST POP DUP1 REVERT JUMPDEST POP PUSH1 0x20 CALLDATASIZE PUSH1 0x3 NOT ADD SLT PUSH2 0x168 JUMPI PUSH1 0x4 CALLDATALOAD SWAP1 PUSH8 0xFFFFFFFFFFFFFFFF DUP3 GT PUSH2 0x168 JUMPI PUSH2 0x1A0 PUSH1 0x3 NOT DUP4 CALLDATASIZE SUB ADD SLT PUSH2 0x168 JUMPI PUSH1 0x40 MLOAD PUSH2 0x264 DUP2 PUSH2 0x2B8F JUMP JUMPDEST DUP3 PUSH1 0x4 ADD CALLDATALOAD PUSH8 0xFFFFFFFFFFFFFFFF DUP2 GT PUSH2 0xE67 JUMPI DUP4 ADD CALLDATASIZE PUSH1 0x23 DUP3 ADD SLT ISZERO PUSH2 0xE67 JUMPI PUSH1 0x4 DUP2 ADD CALLDATALOAD SWAP1 PUSH2 0x294 DUP3 PUSH2 0x2E28 JUMP JUMPDEST SWAP2 PUSH2 0x2A2 PUSH1 0x40 MLOAD SWAP4 DUP5 PUSH2 0x2C00 JUMP JUMPDEST DUP1 DUP4 MSTORE PUSH1 0x20 PUSH1 0x4 DUP2 DUP6 ADD SWAP3 PUSH1 0x5 SHL DUP5 ADD ADD ADD SWAP2 CALLDATASIZE DUP4 GT PUSH2 0xBFD JUMPI PUSH1 0x24 ADD SWAP1 JUMPDEST DUP3 DUP3 LT PUSH2 0xE6B JUMPI POP POP POP DUP2 MSTORE PUSH2 0x2D9 PUSH1 0x24 DUP5 ADD PUSH2 0x2C38 JUMP JUMPDEST PUSH1 0x20 DUP3 ADD MSTORE PUSH1 0x44 DUP4 ADD CALLDATALOAD PUSH8 0xFFFFFFFFFFFFFFFF DUP2 GT PUSH2 0xE67 JUMPI DUP4 ADD CALLDATASIZE PUSH1 0x23 DUP3 ADD SLT ISZERO PUSH2 0xE67 JUMPI PUSH1 0x4 DUP2 ADD CALLDATALOAD SWAP1 PUSH2 0x30E DUP3 PUSH2 0x2E28 JUMP JUMPDEST SWAP2 PUSH2 0x31C PUSH1 0x40 MLOAD SWAP4 DUP5 PUSH2 0x2C00 JUMP JUMPDEST DUP1 DUP4 MSTORE PUSH1 0x20 PUSH1 0x4 DUP2 DUP6 ADD SWAP3 PUSH1 0x5 SHL DUP5 ADD ADD ADD SWAP2 CALLDATASIZE DUP4 GT PUSH2 0xBFD JUMPI PUSH1 0x24 ADD SWAP1 JUMPDEST DUP3 DUP3 LT PUSH2 0xE57 JUMPI POP POP POP PUSH1 0x40 DUP3 ADD MSTORE PUSH2 0x356 PUSH1 0x64 DUP5 ADD PUSH2 0x2C38 JUMP JUMPDEST PUSH1 0x60 DUP3 ADD MSTORE PUSH2 0x367 PUSH1 0x84 DUP5 ADD PUSH2 0x2C38 JUMP JUMPDEST PUSH1 0x80 DUP3 ADD SWAP1 DUP2 MSTORE PUSH1 0xA4 DUP5 ADD CALLDATALOAD PUSH8 0xFFFFFFFFFFFFFFFF DUP2 GT PUSH2 0xE53 JUMPI PUSH2 0x392 SWAP1 PUSH1 0x4 CALLDATASIZE SWAP2 DUP8 ADD ADD PUSH2 0x2C68 JUMP JUMPDEST PUSH1 0xA0 DUP4 ADD MSTORE PUSH1 0xC4 DUP5 ADD CALLDATALOAD PUSH8 0xFFFFFFFFFFFFFFFF DUP2 GT PUSH2 0xE53 JUMPI PUSH2 0x3BB SWAP1 PUSH1 0x4 CALLDATASIZE SWAP2 DUP8 ADD ADD PUSH2 0x2DE0 JUMP JUMPDEST PUSH1 0xC0 DUP4 ADD SWAP1 DUP2 MSTORE PUSH1 0xE0 DUP4 ADD SWAP3 PUSH1 0xE4 DUP7 ADD CALLDATALOAD DUP5 MSTORE PUSH2 0x104 DUP7 ADD CALLDATALOAD SWAP6 PUSH1 0x3 DUP8 LT ISZERO PUSH2 0xBFD JUMPI PUSH2 0x3F5 SWAP1 PUSH2 0x100 DUP4 ADD SWAP8 DUP9 MSTORE PUSH2 0x124 CALLDATASIZE SWAP2 ADD PUSH2 0x2D38 JUMP JUMPDEST PUSH2 0x120 DUP3 ADD MSTORE PUSH20 0x0 PUSH1 0x1 PUSH1 0x1 PUSH1 0xA0 SHL SUB PUSH1 0x20 DUP4 ADD MLOAD AND DUP2 EXTCODESIZE ISZERO PUSH2 0xC6B JUMPI PUSH1 0x40 MLOAD SWAP1 PUSH4 0xBF6341CF PUSH1 0xE0 SHL DUP3 MSTORE PUSH1 0x4 DUP3 ADD MSTORE DUP7 DUP2 PUSH1 0x24 DUP2 DUP6 GAS DELEGATECALL DUP1 ISZERO PUSH2 0xC01 JUMPI SWAP1 DUP8 SWAP2 PUSH2 0xE3E JUMPI JUMPDEST POP POP DUP2 MLOAD DUP2 EXTCODESIZE ISZERO PUSH2 0xC6B JUMPI PUSH1 0x40 MLOAD SWAP1 PUSH32 0x11F599A500000000000000000000000000000000000000000000000000000000 DUP3 MSTORE DUP8 DUP3 PUSH1 0x24 DUP2 ADD SWAP3 PUSH1 0x20 PUSH1 0x4 DUP4 ADD MSTORE DUP1 MLOAD DUP1 SWAP5 MSTORE PUSH1 0x20 PUSH1 0x44 DUP4 ADD SWAP2 ADD SWAP4 DUP4 JUMPDEST DUP2 DUP2 LT PUSH2 0xE19 JUMPI POP POP DUP2 SWAP3 SWAP4 POP SUB DUP2 DUP6 GAS DELEGATECALL DUP1 ISZERO PUSH2 0xC01 JUMPI SWAP1 DUP8 SWAP2 PUSH2 0xE04 JUMPI JUMPDEST POP POP PUSH1 0x40 DUP3 ADD MLOAD PUSH20 0x0 DUP1 EXTCODESIZE ISZERO PUSH2 0xC0C JUMPI SWAP1 DUP8 SWAP1 PUSH1 0x40 MLOAD SWAP3 DUP4 SWAP2 PUSH32 0xD0CA35ED00000000000000000000000000000000000000000000000000000000 DUP4 MSTORE PUSH1 0x24 DUP4 ADD PUSH1 0x20 PUSH1 0x4 DUP6 ADD MSTORE DUP2 MLOAD DUP1 SWAP2 MSTORE PUSH1 0x20 PUSH1 0x44 DUP6 ADD SWAP3 ADD SWAP1 DUP6 JUMPDEST DUP2 DUP2 LT PUSH2 0xDE8 JUMPI POP POP POP DUP3 DUP1 SWAP2 SUB SWAP2 GAS DELEGATECALL DUP1 ISZERO PUSH2 0xC01 JUMPI SWAP1 DUP8 SWAP2 PUSH2 0xDD3 JUMPI JUMPDEST POP SWAP1 PUSH1 0x20 DUP6 DUP10 PUSH1 0xA0 PUSH2 0x610 SWAP6 DUP8 DUP12 PUSH2 0x638 PUSH1 0x1 PUSH1 0x1 PUSH1 0xA0 SHL SUB PUSH1 0x6 SLOAD AND SWAP6 PUSH2 0x624 DUP14 PUSH1 0x40 MLOAD SWAP13 DUP14 SWAP11 DUP12 SWAP10 DUP11 SWAP9 PUSH32 0xCC5A7DC500000000000000000000000000000000000000000000000000000000 DUP11 MSTORE CALLER PUSH1 0x4 DUP12 ADD MSTORE PUSH1 0x40 PUSH1 0x24 DUP12 ADD MSTORE PUSH1 0x1 PUSH1 0x1 PUSH1 0xA0 SHL SUB PUSH2 0x5E9 PUSH2 0x5C7 DUP13 PUSH2 0x1E4 DUP6 MLOAD SWAP2 PUSH2 0x1A0 PUSH1 0x44 DUP3 ADD MSTORE ADD SWAP1 PUSH2 0x308F JUMP JUMPDEST PUSH1 0x20 DUP5 ADD MLOAD DUP4 AND PUSH1 0x64 DUP15 ADD MSTORE PUSH1 0x40 DUP5 ADD MLOAD DUP14 DUP3 SUB PUSH1 0x43 NOT ADD PUSH1 0x84 DUP16 ADD MSTORE PUSH2 0x30CC JUMP JUMPDEST PUSH1 0x60 DUP4 ADD MLOAD DUP3 AND PUSH1 0xA4 DUP14 ADD MSTORE SWAP4 MLOAD AND PUSH1 0xC4 DUP12 ADD MSTORE ADD MLOAD DUP9 DUP3 SUB PUSH1 0x43 NOT ADD PUSH1 0xE4 DUP11 ADD MSTORE PUSH2 0x2E94 JUMP JUMPDEST SWAP1 MLOAD DUP7 DUP3 SUB PUSH1 0x43 NOT ADD PUSH2 0x104 DUP9 ADD MSTORE PUSH2 0x3062 JUMP JUMPDEST SWAP3 MLOAD PUSH2 0x124 DUP6 ADD MSTORE MLOAD PUSH2 0x144 DUP5 ADD SWAP1 PUSH2 0x3082 JUMP JUMPDEST PUSH2 0x120 DUP11 ADD MLOAD DUP1 MLOAD PUSH2 0x164 DUP5 ADD MSTORE PUSH1 0x20 DUP2 ADD MLOAD PUSH1 0xFF AND PUSH2 0x184 DUP5 ADD MSTORE PUSH1 0x40 DUP2 ADD MLOAD PUSH2 0x1A4 DUP5 ADD MSTORE PUSH1 0x60 ADD MLOAD PUSH2 0x1C4 DUP4 ADD MSTORE SUB SWAP3 GAS CALL SWAP2 DUP3 ISZERO PUSH2 0xC01 JUMPI DUP8 SWAP3 PUSH2 0xD9A JUMPI JUMPDEST POP PUSH1 0x6 SLOAD PUSH1 0x40 DUP1 MLOAD PUSH4 0x16C93723 PUSH1 0xE1 SHL DUP2 MSTORE PUSH1 0x4 DUP2 ADD DUP6 SWAP1 MSTORE CALLER PUSH1 0x24 DUP3 ADD MSTORE SWAP2 DUP3 SWAP1 PUSH1 0x44 SWAP1 DUP3 SWAP1 DUP13 SWAP1 PUSH1 0x1 PUSH1 0x1 PUSH1 0xA0 SHL SUB AND GAS CALL SWAP2 DUP3 ISZERO PUSH2 0xC6F JUMPI DUP9 SWAP2 DUP10 SWAP4 PUSH2 0xD67 JUMPI JUMPDEST POP PUSH1 0x1 PUSH1 0x1 PUSH1 0xA0 SHL SUB PUSH1 0x3 SLOAD AND SWAP1 PUSH1 0x20 PUSH1 0x1 PUSH1 0x1 PUSH1 0xA0 SHL SUB DUP2 DUP9 ADD MLOAD AND PUSH1 0x24 PUSH1 0x40 MLOAD DUP1 SWAP6 DUP2 SWAP4 PUSH4 0x4D0A647 PUSH1 0xE0 SHL DUP4 MSTORE PUSH1 0x4 DUP4 ADD MSTORE GAS STATICCALL SWAP2 DUP3 ISZERO PUSH2 0xCEE JUMPI DUP11 SWAP3 PUSH2 0xD2B JUMPI JUMPDEST POP DUP1 EXTCODESIZE ISZERO PUSH2 0xC9A JUMPI DUP10 PUSH1 0x24 SWAP2 PUSH1 0x40 MLOAD SWAP3 DUP4 DUP1 SWAP3 PUSH4 0xBF6341CF PUSH1 0xE0 SHL DUP3 MSTORE PUSH1 0x1 PUSH1 0x1 PUSH1 0xA0 SHL SUB DUP8 AND PUSH1 0x4 DUP4 ADD MSTORE GAS DELEGATECALL DUP1 ISZERO PUSH2 0xCEE JUMPI SWAP1 DUP11 SWAP2 PUSH2 0xD16 JUMPI JUMPDEST POP POP PUSH1 0x1 PUSH1 0x1 PUSH1 0xA0 SHL SUB PUSH1 0x20 DUP7 ADD MLOAD AND PUSH1 0x1 PUSH1 0x1 PUSH1 0xA0 SHL SUB PUSH1 0x60 DUP8 ADD MLOAD AND PUSH1 0x40 MLOAD SWAP2 PUSH2 0x76B DUP4 PUSH2 0x2B41 JUMP JUMPDEST DUP3 MSTORE CALLER PUSH1 0x20 DUP4 ADD MSTORE PUSH1 0x40 DUP3 ADD MSTORE DUP4 PUSH1 0x60 DUP3 ADD MSTORE PUSH1 0x1 PUSH1 0x1 PUSH1 0xA0 SHL SUB PUSH1 0x4 SLOAD AND SWAP1 DUP2 EXTCODESIZE ISZERO PUSH2 0xD12 JUMPI PUSH2 0x7EF PUSH1 0x84 DUP13 SWAP3 DUP4 PUSH1 0x40 MLOAD SWAP6 DUP7 SWAP5 DUP6 SWAP4 PUSH4 0x577ED67F PUSH1 0xE1 SHL DUP6 MSTORE PUSH1 0x4 DUP6 ADD SWAP1 PUSH1 0x60 DUP1 SWAP2 PUSH1 0x1 PUSH1 0x1 PUSH1 0xA0 SHL SUB DUP2 MLOAD AND DUP5 MSTORE PUSH1 0x1 PUSH1 0x1 PUSH1 0xA0 SHL SUB PUSH1 0x20 DUP3 ADD MLOAD AND PUSH1 0x20 DUP6 ADD MSTORE PUSH1 0x1 PUSH1 0x1 PUSH1 0xA0 SHL SUB PUSH1 0x40 DUP3 ADD MLOAD AND PUSH1 0x40 DUP6 ADD MSTORE ADD MLOAD SWAP2 ADD MSTORE JUMP JUMPDEST GAS CALL DUP1 ISZERO PUSH2 0xCEE JUMPI SWAP1 DUP11 SWAP2 PUSH2 0xCF9 JUMPI JUMPDEST POP POP PUSH1 0x1 PUSH1 0x1 PUSH1 0xA0 SHL SUB PUSH1 0x20 DUP7 ADD MLOAD AND SWAP1 PUSH1 0x1 PUSH1 0x1 PUSH1 0xA0 SHL SUB PUSH1 0x60 DUP8 ADD MLOAD AND PUSH1 0x40 MLOAD SWAP3 PUSH2 0x82B DUP5 PUSH2 0x2B41 JUMP JUMPDEST DUP4 MSTORE CALLER PUSH1 0x20 DUP5 ADD MSTORE PUSH1 0x40 DUP4 ADD MSTORE DUP4 PUSH1 0x60 DUP4 ADD MSTORE PUSH1 0x40 PUSH2 0x8A6 PUSH1 0x84 PUSH1 0x1 PUSH1 0x1 PUSH1 0xA0 SHL SUB PUSH1 0x4 SLOAD AND SWAP5 DUP4 MLOAD SWAP6 DUP7 SWAP4 DUP5 SWAP3 PUSH4 0x716FA03 PUSH1 0xE3 SHL DUP5 MSTORE PUSH1 0x4 DUP5 ADD SWAP1 PUSH1 0x60 DUP1 SWAP2 PUSH1 0x1 PUSH1 0x1 PUSH1 0xA0 SHL SUB DUP2 MLOAD AND DUP5 MSTORE PUSH1 0x1 PUSH1 0x1 PUSH1 0xA0 SHL SUB PUSH1 0x20 DUP3 ADD MLOAD AND PUSH1 0x20 DUP6 ADD MSTORE PUSH1 0x1 PUSH1 0x1 PUSH1 0xA0 SHL SUB PUSH1 0x40 DUP3 ADD MLOAD AND PUSH1 0x40 DUP6 ADD MSTORE ADD MLOAD SWAP2 ADD MSTORE JUMP JUMPDEST GAS STATICCALL SWAP8 DUP9 ISZERO PUSH2 0xCEE JUMPI DUP11 SWAP3 DUP12 SWAP10 PUSH2 0xCB2 JUMPI JUMPDEST POP PUSH1 0x1 PUSH1 0x1 PUSH1 0xA0 SHL SUB SWAP1 MLOAD AND SWAP9 MLOAD SWAP11 MLOAD PUSH1 0x3 DUP2 LT ISZERO PUSH2 0xC9E JUMPI DUP11 SWAP12 PUSH2 0x92E SWAP2 PUSH2 0x924 PUSH2 0x120 DUP11 ADD MLOAD SWAP2 PUSH1 0x40 MLOAD SWAP4 PUSH2 0x8EE DUP6 PUSH2 0x2B73 JUMP JUMPDEST PUSH1 0x1 PUSH1 0x1 PUSH1 0xA0 SHL SUB DUP9 AND SWAP15 DUP16 DUP7 MSTORE PUSH1 0x20 DUP7 ADD MSTORE DUP14 PUSH1 0x40 DUP7 ADD MSTORE PUSH1 0x1 PUSH1 0x1 PUSH1 0xA0 SHL SUB DUP8 AND PUSH1 0x60 DUP7 ADD MSTORE PUSH1 0x80 DUP6 ADD MSTORE PUSH1 0xA0 DUP5 ADD PUSH2 0x2FF7 JUMP JUMPDEST PUSH1 0xC0 DUP3 ADD MSTORE PUSH2 0x318C JUMP JUMPDEST PUSH1 0x1 PUSH1 0x1 PUSH1 0xA0 SHL SUB DUP2 AND EXTCODESIZE ISZERO PUSH2 0xC9A JUMPI PUSH1 0x40 MLOAD PUSH4 0x26B3293F PUSH1 0xE0 SHL DUP2 MSTORE PUSH1 0x1 PUSH1 0x1 PUSH1 0xA0 SHL SUB SWAP3 DUP4 AND PUSH1 0x4 DUP3 ADD MSTORE PUSH1 0x24 DUP2 ADD DUP10 SWAP1 MSTORE PUSH1 0x44 DUP2 ADD DUP7 SWAP1 MSTORE SWAP2 DUP11 SWAP2 DUP4 SWAP2 PUSH1 0x64 SWAP2 DUP4 SWAP2 CALLVALUE SWAP2 AND GAS CALL SWAP1 DUP2 ISZERO PUSH2 0xC8F JUMPI DUP10 SWAP2 PUSH2 0xC7A JUMPI JUMPDEST POP POP PUSH2 0xC10 JUMPI JUMPDEST PUSH1 0x1 PUSH1 0x1 PUSH1 0xA0 SHL SUB PUSH1 0x20 DUP5 ADD MLOAD AND SWAP1 PUSH1 0x1 PUSH1 0x1 PUSH1 0xA0 SHL SUB PUSH1 0x60 DUP6 ADD MLOAD AND PUSH1 0x40 MLOAD SWAP3 PUSH2 0x9B7 DUP5 PUSH2 0x2B73 JUMP JUMPDEST DUP4 MSTORE DUP4 PUSH1 0x20 DUP5 ADD MSTORE CALLER PUSH1 0x40 DUP5 ADD MSTORE PUSH1 0x60 DUP4 ADD MSTORE PUSH1 0x80 DUP3 ADD MSTORE DUP6 PUSH1 0xA0 DUP3 ADD MSTORE DUP5 PUSH1 0xC0 DUP3 ADD MSTORE PUSH1 0x1 PUSH1 0x1 PUSH1 0xA0 SHL SUB PUSH1 0x4 SLOAD AND DUP1 EXTCODESIZE ISZERO PUSH2 0xC0C JUMPI PUSH1 0x40 DUP1 MLOAD PUSH4 0x2B54892B PUSH1 0xE0 SHL DUP2 MSTORE DUP4 MLOAD PUSH1 0x1 PUSH1 0x1 PUSH1 0xA0 SHL SUB SWAP1 DUP2 AND PUSH1 0x4 DUP4 ADD MSTORE PUSH1 0x20 DUP6 ADD MLOAD PUSH1 0x24 DUP4 ADD MSTORE SWAP2 DUP5 ADD MLOAD DUP3 AND PUSH1 0x44 DUP3 ADD MSTORE PUSH1 0x60 DUP5 ADD MLOAD DUP3 AND PUSH1 0x64 DUP3 ADD MSTORE PUSH1 0x80 DUP5 ADD MLOAD PUSH1 0x84 DUP3 ADD MSTORE PUSH1 0xA0 DUP5 ADD MLOAD SWAP1 SWAP2 AND PUSH1 0xA4 DUP3 ADD MSTORE PUSH1 0xC0 SWAP1 SWAP3 ADD MLOAD PUSH1 0xC4 DUP4 ADD MSTORE DUP8 SWAP1 DUP3 SWAP1 PUSH1 0xE4 SWAP1 DUP3 SWAP1 DUP5 SWAP1 GAS CALL SWAP1 DUP2 ISZERO PUSH2 0xC01 JUMPI DUP8 SWAP2 PUSH2 0xBE8 JUMPI JUMPDEST POP POP PUSH1 0x1 PUSH1 0x1 PUSH1 0xA0 SHL SUB PUSH1 0x5 SLOAD AND SWAP2 DUP1 MLOAD SWAP2 PUSH1 0x24 PUSH1 0x1 PUSH1 0x1 PUSH1 0xA0 SHL SUB PUSH1 0x20 DUP5 ADD MLOAD AND SWAP8 PUSH1 0x1 PUSH1 0x1 PUSH1 0xA0 SHL SUB PUSH1 0x60 DUP6 ADD MLOAD AND SWAP7 PUSH1 0xA0 PUSH1 0x40 DUP7 ADD MLOAD SWAP6 ADD MLOAD SWAP1 MLOAD SWAP2 PUSH1 0x20 PUSH1 0x1 PUSH1 0x1 PUSH1 0xA0 SHL SUB PUSH1 0x6 SLOAD AND PUSH1 0x40 MLOAD SWAP6 DUP7 DUP1 SWAP3 PUSH4 0x2EF1457 PUSH1 0xE5 SHL DUP3 MSTORE DUP10 PUSH1 0x4 DUP4 ADD MSTORE GAS STATICCALL SWAP4 DUP5 ISZERO PUSH2 0xBDD JUMPI DUP13 SWAP5 PUSH2 0xBAC JUMPI JUMPDEST POP DUP8 EXTCODESIZE ISZERO PUSH2 0xBA8 JUMPI DUP12 SWAP10 DUP11 SWAP7 PUSH1 0x40 MLOAD SWAP13 DUP14 SWAP12 DUP13 SWAP11 DUP12 SWAP10 PUSH32 0xD972FB4800000000000000000000000000000000000000000000000000000000 DUP12 MSTORE PUSH1 0x4 DUP12 ADD MSTORE CALLER PUSH1 0x24 DUP12 ADD MSTORE PUSH1 0x44 DUP11 ADD PUSH2 0x180 SWAP1 MSTORE PUSH2 0x184 DUP11 ADD PUSH2 0xB3B SWAP2 PUSH2 0x308F JUMP JUMPDEST SWAP2 PUSH1 0x64 DUP11 ADD MSTORE PUSH1 0x84 DUP10 ADD MSTORE PUSH1 0x3 NOT DUP9 DUP3 SUB ADD PUSH1 0xA4 DUP10 ADD MSTORE PUSH2 0xB5B SWAP2 PUSH2 0x30CC JUMP JUMPDEST SWAP2 PUSH1 0xC4 DUP8 ADD MSTORE PUSH1 0xE4 DUP7 ADD MSTORE TIMESTAMP PUSH2 0x104 DUP7 ADD MSTORE PUSH1 0x3 NOT DUP6 DUP3 SUB ADD PUSH2 0x124 DUP7 ADD MSTORE PUSH2 0xB83 SWAP2 PUSH2 0x2E94 JUMP JUMPDEST DUP4 DUP2 SUB PUSH1 0x3 NOT ADD PUSH2 0x144 DUP6 ADD MSTORE PUSH2 0xB99 SWAP2 PUSH2 0x3062 JUMP JUMPDEST SWAP1 PUSH2 0x164 DUP4 ADD PUSH2 0x1B2 SWAP2 PUSH2 0x3031 JUMP JUMPDEST DUP12 DUP1 REVERT JUMPDEST PUSH2 0xBCF SWAP2 SWAP5 POP PUSH1 0x20 RETURNDATASIZE PUSH1 0x20 GT PUSH2 0xBD6 JUMPI JUMPDEST PUSH2 0xBC7 DUP2 DUP4 PUSH2 0x2C00 JUMP JUMPDEST DUP2 ADD SWAP1 PUSH2 0x3019 JUMP JUMPDEST SWAP3 CODESIZE PUSH2 0xAE0 JUMP JUMPDEST POP RETURNDATASIZE PUSH2 0xBBD JUMP JUMPDEST PUSH1 0x40 MLOAD RETURNDATASIZE DUP15 DUP3 RETURNDATACOPY RETURNDATASIZE SWAP1 REVERT JUMPDEST DUP2 PUSH2 0xBF2 SWAP2 PUSH2 0x2C00 JUMP JUMPDEST PUSH2 0xBFD JUMPI DUP6 CODESIZE PUSH2 0xA6C JUMP JUMPDEST DUP6 DUP1 REVERT JUMPDEST PUSH1 0x40 MLOAD RETURNDATASIZE DUP10 DUP3 RETURNDATACOPY RETURNDATASIZE SWAP1 REVERT JUMPDEST DUP8 DUP1 REVERT JUMPDEST PUSH1 0x1 PUSH1 0x1 PUSH1 0xA0 SHL SUB PUSH1 0x6 SLOAD AND DUP1 EXTCODESIZE ISZERO PUSH2 0xC0C JUMPI DUP8 DUP1 SWAP2 PUSH1 0x24 PUSH1 0x40 MLOAD DUP1 SWAP5 DUP2 SWAP4 PUSH4 0x5543F85 PUSH1 0xE0 SHL DUP4 MSTORE DUP9 PUSH1 0x4 DUP5 ADD MSTORE GAS CALL SWAP1 DUP2 ISZERO PUSH2 0xC6F JUMPI DUP9 SWAP2 PUSH2 0xC56 JUMPI JUMPDEST POP POP PUSH2 0x98D JUMP JUMPDEST DUP2 PUSH2 0xC60 SWAP2 PUSH2 0x2C00 JUMP JUMPDEST PUSH2 0xC6B JUMPI DUP7 CODESIZE PUSH2 0xC4F JUMP JUMPDEST DUP7 DUP1 REVERT JUMPDEST PUSH1 0x40 MLOAD RETURNDATASIZE DUP11 DUP3 RETURNDATACOPY RETURNDATASIZE SWAP1 REVERT JUMPDEST DUP2 PUSH2 0xC84 SWAP2 PUSH2 0x2C00 JUMP JUMPDEST PUSH2 0xC0C JUMPI DUP8 CODESIZE PUSH2 0x986 JUMP JUMPDEST PUSH1 0x40 MLOAD RETURNDATASIZE DUP12 DUP3 RETURNDATACOPY RETURNDATASIZE SWAP1 REVERT JUMPDEST DUP10 DUP1 REVERT JUMPDEST PUSH1 0x24 DUP12 PUSH4 0x4E487B71 PUSH1 0xE0 SHL DUP2 MSTORE PUSH1 0x21 PUSH1 0x4 MSTORE REVERT JUMPDEST PUSH2 0xCDF SWAP2 SWAP10 POP PUSH1 0x1 PUSH1 0x1 PUSH1 0xA0 SHL SUB SWAP4 POP PUSH1 0x40 RETURNDATASIZE PUSH1 0x40 GT PUSH2 0xCE7 JUMPI JUMPDEST PUSH2 0xCD7 DUP2 DUP4 PUSH2 0x2C00 JUMP JUMPDEST DUP2 ADD SWAP1 PUSH2 0x2E54 JUMP JUMPDEST SWAP9 SWAP1 SWAP3 PUSH2 0x8B8 JUMP JUMPDEST POP RETURNDATASIZE PUSH2 0xCCD JUMP JUMPDEST PUSH1 0x40 MLOAD RETURNDATASIZE DUP13 DUP3 RETURNDATACOPY RETURNDATASIZE SWAP1 REVERT JUMPDEST DUP2 PUSH2 0xD03 SWAP2 PUSH2 0x2C00 JUMP JUMPDEST PUSH2 0xD0E JUMPI DUP9 CODESIZE PUSH2 0x7FF JUMP JUMPDEST DUP9 DUP1 REVERT JUMPDEST DUP11 DUP1 REVERT JUMPDEST DUP2 PUSH2 0xD20 SWAP2 PUSH2 0x2C00 JUMP JUMPDEST PUSH2 0xD0E JUMPI DUP9 CODESIZE PUSH2 0x740 JUMP JUMPDEST SWAP1 SWAP2 POP PUSH1 0x20 DUP2 RETURNDATASIZE PUSH1 0x20 GT PUSH2 0xD5F JUMPI JUMPDEST DUP2 PUSH2 0xD47 PUSH1 0x20 SWAP4 DUP4 PUSH2 0x2C00 JUMP JUMPDEST DUP2 ADD SUB SLT PUSH2 0xC9A JUMPI PUSH2 0xD58 SWAP1 PUSH2 0x2E40 JUMP JUMPDEST SWAP1 CODESIZE PUSH2 0x704 JUMP JUMPDEST RETURNDATASIZE SWAP2 POP PUSH2 0xD3A JUMP JUMPDEST SWAP1 SWAP3 POP PUSH2 0xD8C SWAP2 POP PUSH1 0x40 RETURNDATASIZE PUSH1 0x40 GT PUSH2 0xD93 JUMPI JUMPDEST PUSH2 0xD84 DUP2 DUP4 PUSH2 0x2C00 JUMP JUMPDEST DUP2 ADD SWAP1 PUSH2 0x304B JUMP JUMPDEST SWAP2 CODESIZE PUSH2 0x6BF JUMP JUMPDEST POP RETURNDATASIZE PUSH2 0xD7A JUMP JUMPDEST SWAP1 SWAP2 POP PUSH1 0x20 DUP2 RETURNDATASIZE PUSH1 0x20 GT PUSH2 0xDCB JUMPI JUMPDEST DUP2 PUSH2 0xDB6 PUSH1 0x20 SWAP4 DUP4 PUSH2 0x2C00 JUMP JUMPDEST DUP2 ADD SUB SLT PUSH2 0xDC6 JUMPI MLOAD SWAP1 CODESIZE PUSH2 0x67B JUMP JUMPDEST PUSH1 0x0 DUP1 REVERT JUMPDEST RETURNDATASIZE SWAP2 POP PUSH2 0xDA9 JUMP JUMPDEST DUP2 PUSH2 0xDDD SWAP2 PUSH2 0x2C00 JUMP JUMPDEST PUSH2 0xBFD JUMPI DUP6 CODESIZE PUSH2 0x547 JUMP JUMPDEST DUP3 MLOAD DUP5 MSTORE DUP14 SWAP7 POP DUP8 SWAP6 POP PUSH1 0x20 SWAP4 DUP5 ADD SWAP4 SWAP1 SWAP3 ADD SWAP2 PUSH1 0x1 ADD PUSH2 0x528 JUMP JUMPDEST DUP2 PUSH2 0xE0E SWAP2 PUSH2 0x2C00 JUMP JUMPDEST PUSH2 0xBFD JUMPI DUP6 CODESIZE PUSH2 0x4BE JUMP JUMPDEST DUP6 MLOAD PUSH1 0x1 PUSH1 0x1 PUSH1 0xA0 SHL SUB AND DUP4 MSTORE PUSH1 0x20 SWAP6 DUP7 ADD SWAP6 DUP14 SWAP6 POP DUP8 SWAP5 POP SWAP1 SWAP3 ADD SWAP2 PUSH1 0x1 ADD PUSH2 0x49E JUMP JUMPDEST DUP2 PUSH2 0xE48 SWAP2 PUSH2 0x2C00 JUMP JUMPDEST PUSH2 0xBFD JUMPI DUP6 CODESIZE PUSH2 0x44E JUMP JUMPDEST DUP4 DUP1 REVERT JUMPDEST DUP2 CALLDATALOAD DUP2 MSTORE PUSH1 0x20 SWAP2 DUP3 ADD SWAP2 ADD PUSH2 0x33B JUMP JUMPDEST DUP3 DUP1 REVERT JUMPDEST PUSH1 0x20 DUP1 SWAP2 PUSH2 0xE78 DUP5 PUSH2 0x2C38 JUMP JUMPDEST DUP2 MSTORE ADD SWAP2 ADD SWAP1 PUSH2 0x2C1 JUMP JUMPDEST POP PUSH1 0x20 CALLDATASIZE PUSH1 0x3 NOT ADD SLT PUSH2 0x168 JUMPI PUSH1 0x4 CALLDATALOAD SWAP1 PUSH8 0xFFFFFFFFFFFFFFFF DUP3 GT PUSH2 0x168 JUMPI PUSH2 0x160 PUSH1 0x3 NOT DUP4 CALLDATASIZE SUB ADD SLT PUSH2 0x168 JUMPI PUSH1 0x40 MLOAD SWAP1 PUSH2 0x100 DUP3 ADD DUP3 DUP2 LT PUSH8 0xFFFFFFFFFFFFFFFF DUP3 GT OR PUSH2 0x1750 JUMPI PUSH1 0x40 MSTORE PUSH2 0xEDD DUP4 PUSH1 0x4 ADD PUSH2 0x2C38 JUMP JUMPDEST DUP3 MSTORE PUSH2 0xEEB PUSH1 0x24 DUP5 ADD PUSH2 0x2C38 JUMP JUMPDEST SWAP3 PUSH1 0x20 DUP4 ADD SWAP4 DUP5 MSTORE PUSH1 0x40 DUP4 ADD PUSH1 0x44 DUP3 ADD CALLDATALOAD DUP2 MSTORE PUSH1 0x64 DUP3 ADD CALLDATALOAD PUSH8 0xFFFFFFFFFFFFFFFF DUP2 GT PUSH2 0xE53 JUMPI PUSH2 0xF22 SWAP1 PUSH1 0x4 CALLDATASIZE SWAP2 DUP6 ADD ADD PUSH2 0x2C68 JUMP JUMPDEST SWAP4 PUSH1 0x60 DUP2 ADD SWAP5 DUP6 MSTORE PUSH1 0x84 DUP4 ADD CALLDATALOAD PUSH8 0xFFFFFFFFFFFFFFFF DUP2 GT PUSH2 0x174C JUMPI PUSH2 0xF4E SWAP1 PUSH1 0x4 CALLDATASIZE SWAP2 DUP7 ADD ADD PUSH2 0x2DE0 JUMP JUMPDEST SWAP5 PUSH1 0x80 DUP3 ADD SWAP6 DUP7 MSTORE PUSH1 0xA0 DUP3 ADD SWAP4 PUSH1 0xA4 DUP2 ADD CALLDATALOAD DUP6 MSTORE PUSH1 0xC4 DUP2 ADD CALLDATALOAD SWAP1 PUSH1 0x3 DUP3 LT ISZERO PUSH2 0xC6B JUMPI PUSH2 0xF86 SWAP1 PUSH1 0xC0 DUP6 ADD SWAP3 DUP4 MSTORE PUSH1 0xE4 CALLDATASIZE SWAP2 ADD PUSH2 0x2D38 JUMP JUMPDEST SWAP7 PUSH1 0xE0 DUP5 ADD SWAP8 DUP9 MSTORE PUSH20 0x0 SWAP5 PUSH1 0x1 PUSH1 0x1 PUSH1 0xA0 SHL SUB DUP6 MLOAD AND DUP7 EXTCODESIZE ISZERO PUSH2 0xD0E JUMPI PUSH1 0x40 MLOAD SWAP1 PUSH4 0xBF6341CF PUSH1 0xE0 SHL DUP3 MSTORE PUSH1 0x4 DUP3 ADD MSTORE DUP9 DUP2 PUSH1 0x24 DUP2 DUP11 GAS DELEGATECALL DUP1 ISZERO PUSH2 0xC8F JUMPI SWAP2 DUP10 DUP8 DUP13 DUP9 DUP16 SWAP6 DUP14 SWAP9 SWAP8 PUSH2 0x1727 JUMPI JUMPDEST POP SWAP2 PUSH1 0x1 PUSH1 0x1 PUSH1 0xA0 SHL SUB SWAP8 PUSH2 0x10C2 PUSH1 0x20 SWAP8 SWAP7 SWAP6 SWAP4 PUSH2 0x107D PUSH2 0x106A DUP13 SWAP8 DUP9 PUSH1 0x7 SLOAD AND SWAP10 PUSH1 0x40 MLOAD SWAP15 DUP16 SWAP13 DUP14 SWAP12 DUP13 SWAP11 PUSH32 0x8441A89C00000000000000000000000000000000000000000000000000000000 DUP13 MSTORE CALLER PUSH1 0x4 DUP14 ADD MSTORE PUSH1 0x40 PUSH1 0x24 DUP14 ADD MSTORE MLOAD AND PUSH1 0x44 DUP12 ADD MSTORE MLOAD AND PUSH1 0x64 DUP10 ADD MSTORE MLOAD PUSH1 0x84 DUP9 ADD MSTORE MLOAD PUSH2 0x160 PUSH1 0xA4 DUP9 ADD MSTORE PUSH2 0x1A4 DUP8 ADD SWAP1 PUSH2 0x2E94 JUMP JUMPDEST DUP12 MLOAD DUP7 DUP3 SUB PUSH1 0x43 NOT ADD PUSH1 0xC4 DUP9 ADD MSTORE PUSH2 0x3062 JUMP JUMPDEST SWAP3 MLOAD PUSH1 0xE4 DUP6 ADD MSTORE PUSH2 0x1094 DUP13 MLOAD PUSH2 0x104 DUP7 ADD SWAP1 PUSH2 0x3082 JUMP JUMPDEST MLOAD DUP1 MLOAD PUSH2 0x124 DUP6 ADD MSTORE PUSH1 0x20 DUP2 ADD MLOAD PUSH1 0xFF AND PUSH2 0x144 DUP6 ADD MSTORE PUSH1 0x40 DUP2 ADD MLOAD PUSH2 0x164 DUP6 ADD MSTORE PUSH1 0x60 ADD MLOAD PUSH2 0x184 DUP5 ADD MSTORE JUMP JUMPDEST SUB SWAP3 GAS CALL SWAP2 DUP3 ISZERO PUSH2 0xC6F JUMPI DUP9 SWAP3 PUSH2 0x16F3 JUMPI JUMPDEST POP PUSH1 0x7 SLOAD PUSH1 0x40 MLOAD PUSH4 0x16C93723 PUSH1 0xE1 SHL DUP2 MSTORE PUSH1 0x4 DUP2 ADD DUP5 SWAP1 MSTORE CALLER PUSH1 0x24 DUP3 ADD MSTORE SWAP11 SWAP1 PUSH1 0x60 SWAP1 DUP13 SWAP1 PUSH1 0x44 SWAP1 DUP3 SWAP1 DUP14 SWAP1 PUSH1 0x1 PUSH1 0x1 PUSH1 0xA0 SHL SUB AND GAS CALL SWAP7 DUP8 ISZERO PUSH2 0xC8F JUMPI DUP10 SWAP5 DUP11 SWAP13 DUP12 SWAP10 PUSH2 0x16B8 JUMPI JUMPDEST POP PUSH1 0x1 PUSH1 0x1 PUSH1 0xA0 SHL SUB PUSH1 0x3 SLOAD AND PUSH1 0x20 PUSH1 0x1 PUSH1 0x1 PUSH1 0xA0 SHL SUB DUP11 MLOAD AND PUSH1 0x24 PUSH1 0x40 MLOAD DUP1 SWAP5 DUP2 SWAP4 PUSH4 0x4D0A647 PUSH1 0xE0 SHL DUP4 MSTORE PUSH1 0x4 DUP4 ADD MSTORE GAS STATICCALL SWAP1 DUP2 ISZERO PUSH2 0xBDD JUMPI DUP13 SWAP2 PUSH2 0x167E JUMPI JUMPDEST POP DUP3 EXTCODESIZE ISZERO PUSH2 0xBA8 JUMPI DUP12 PUSH1 0x1 PUSH1 0x1 PUSH1 0xA0 SHL SUB SWAP2 PUSH1 0x24 PUSH1 0x40 MLOAD DUP1 SWAP5 DUP2 SWAP4 PUSH4 0xBF6341CF PUSH1 0xE0 SHL DUP4 MSTORE AND SWAP7 DUP8 PUSH1 0x4 DUP4 ADD MSTORE GAS DELEGATECALL DUP1 ISZERO PUSH2 0xBDD JUMPI PUSH2 0x1669 JUMPI JUMPDEST POP PUSH1 0x1 PUSH1 0x1 PUSH1 0xA0 SHL SUB PUSH2 0x11B6 SWAP12 SWAP13 SWAP14 DUP2 DUP11 MLOAD AND PUSH1 0x40 MLOAD SWAP14 DUP15 PUSH2 0x2B41 JUMP JUMPDEST DUP14 MSTORE DUP13 PUSH1 0x20 CALLER SWAP2 ADD MSTORE AND SWAP11 DUP12 PUSH1 0x40 DUP3 ADD MSTORE DUP7 PUSH1 0x60 DUP3 ADD MSTORE PUSH1 0x1 PUSH1 0x1 PUSH1 0xA0 SHL SUB PUSH1 0x4 SLOAD AND SWAP1 DUP2 EXTCODESIZE ISZERO PUSH2 0x1665 JUMPI PUSH2 0x123E PUSH1 0x84 DUP16 SWAP3 DUP4 PUSH1 0x40 MLOAD SWAP6 DUP7 SWAP5 DUP6 SWAP4 PUSH4 0x577ED67F PUSH1 0xE1 SHL DUP6 MSTORE PUSH1 0x4 DUP6 ADD SWAP1 PUSH1 0x60 DUP1 SWAP2 PUSH1 0x1 PUSH1 0x1 PUSH1 0xA0 SHL SUB DUP2 MLOAD AND DUP5 MSTORE PUSH1 0x1 PUSH1 0x1 PUSH1 0xA0 SHL SUB PUSH1 0x20 DUP3 ADD MLOAD AND PUSH1 0x20 DUP6 ADD MSTORE PUSH1 0x1 PUSH1 0x1 PUSH1 0xA0 SHL SUB PUSH1 0x40 DUP3 ADD MLOAD AND PUSH1 0x40 DUP6 ADD MSTORE ADD MLOAD SWAP2 ADD MSTORE JUMP JUMPDEST GAS CALL DUP1 ISZERO PUSH2 0x1645 JUMPI SWAP1 DUP14 SWAP2 PUSH2 0x1650 JUMPI JUMPDEST POP POP PUSH1 0x1 PUSH1 0x1 PUSH1 0xA0 SHL SUB DUP9 MLOAD AND SWAP3 PUSH1 0x40 MLOAD SWAP4 PUSH2 0x1269 DUP6 PUSH2 0x2B41 JUMP JUMPDEST DUP5 MSTORE CALLER PUSH1 0x20 DUP6 ADD MSTORE DUP12 PUSH1 0x40 DUP6 ADD MSTORE DUP7 PUSH1 0x60 DUP6 ADD MSTORE PUSH1 0x40 PUSH2 0x12E5 PUSH1 0x84 PUSH1 0x1 PUSH1 0x1 PUSH1 0xA0 SHL SUB PUSH1 0x4 SLOAD AND SWAP7 DUP4 MLOAD SWAP8 DUP9 SWAP4 DUP5 SWAP3 PUSH4 0x716FA03 PUSH1 0xE3 SHL DUP5 MSTORE PUSH1 0x4 DUP5 ADD SWAP1 PUSH1 0x60 DUP1 SWAP2 PUSH1 0x1 PUSH1 0x1 PUSH1 0xA0 SHL SUB DUP2 MLOAD AND DUP5 MSTORE PUSH1 0x1 PUSH1 0x1 PUSH1 0xA0 SHL SUB PUSH1 0x20 DUP3 ADD MLOAD AND PUSH1 0x20 DUP6 ADD MSTORE PUSH1 0x1 PUSH1 0x1 PUSH1 0xA0 SHL SUB PUSH1 0x40 DUP3 ADD MLOAD AND PUSH1 0x40 DUP6 ADD MSTORE ADD MLOAD SWAP2 ADD MSTORE JUMP JUMPDEST GAS STATICCALL SWAP4 DUP5 ISZERO PUSH2 0x1645 JUMPI SWAP1 DUP14 SWAP4 SWAP3 SWAP2 DUP5 SWAP6 PUSH2 0x1619 JUMPI JUMPDEST POP PUSH1 0x1 PUSH1 0x1 PUSH1 0xA0 SHL SUB SWAP1 MLOAD AND SWAP11 MLOAD SWAP1 MLOAD PUSH1 0x3 DUP2 LT ISZERO PUSH2 0x1605 JUMPI DUP14 SWAP15 MLOAD SWAP1 PUSH1 0x40 MLOAD SWAP3 PUSH2 0x1324 DUP5 PUSH2 0x2B73 JUMP JUMPDEST PUSH1 0x1 PUSH1 0x1 PUSH1 0xA0 SHL SUB DUP7 AND SWAP14 DUP15 DUP6 MSTORE PUSH1 0x20 DUP6 ADD MSTORE DUP7 PUSH1 0x40 DUP6 ADD MSTORE DUP5 PUSH1 0x60 DUP6 ADD MSTORE PUSH1 0x80 DUP5 ADD MSTORE PUSH1 0xA0 DUP4 ADD SWAP1 PUSH2 0x1356 SWAP2 PUSH2 0x2FF7 JUMP JUMPDEST PUSH1 0xC0 DUP3 ADD MSTORE PUSH2 0x1364 SWAP1 PUSH2 0x318C JUMP JUMPDEST DUP1 EXTCODESIZE ISZERO PUSH2 0xBA8 JUMPI PUSH1 0x40 MLOAD PUSH4 0x26B3293F PUSH1 0xE0 SHL DUP2 MSTORE PUSH1 0x1 PUSH1 0x1 PUSH1 0xA0 SHL SUB SWAP3 SWAP1 SWAP3 AND PUSH1 0x4 DUP4 ADD MSTORE PUSH1 0x24 DUP3 ADD DUP4 SWAP1 MSTORE PUSH1 0x44 DUP3 ADD DUP6 SWAP1 MSTORE DUP12 SWAP1 DUP3 SWAP1 PUSH1 0x64 SWAP1 DUP3 SWAP1 CALLVALUE SWAP1 GAS CALL SWAP1 DUP2 ISZERO PUSH2 0x15D0 JUMPI DUP12 SWAP2 PUSH2 0x15F0 JUMPI JUMPDEST POP POP PUSH1 0x1 PUSH1 0x1 PUSH1 0xA0 SHL SUB PUSH1 0x7 SLOAD AND DUP1 EXTCODESIZE ISZERO PUSH2 0xD12 JUMPI DUP11 DUP1 SWAP2 PUSH1 0x44 PUSH1 0x40 MLOAD DUP1 SWAP5 DUP2 SWAP4 PUSH4 0xB38FFD5F PUSH1 0xE0 SHL DUP4 MSTORE DUP10 PUSH1 0x4 DUP5 ADD MSTORE DUP11 PUSH1 0x24 DUP5 ADD MSTORE GAS CALL SWAP1 DUP2 ISZERO PUSH2 0x15D0 JUMPI DUP12 SWAP2 PUSH2 0x15DB JUMPI JUMPDEST POP POP PUSH1 0x1 PUSH1 0x1 PUSH1 0xA0 SHL SUB DUP7 MLOAD AND PUSH1 0x40 MLOAD SWAP1 PUSH2 0x1413 DUP3 PUSH2 0x2B73 JUMP JUMPDEST DUP2 MSTORE DUP4 PUSH1 0x20 DUP3 ADD MSTORE CALLER PUSH1 0x40 DUP3 ADD MSTORE DUP10 PUSH1 0x60 DUP3 ADD MSTORE DUP5 PUSH1 0x80 DUP3 ADD MSTORE DUP9 PUSH1 0xA0 DUP3 ADD MSTORE DUP2 PUSH1 0xC0 DUP3 ADD MSTORE PUSH1 0x1 PUSH1 0x1 PUSH1 0xA0 SHL SUB PUSH1 0x4 SLOAD AND DUP1 EXTCODESIZE ISZERO PUSH2 0xBA8 JUMPI PUSH1 0x40 DUP1 MLOAD PUSH4 0x2B54892B PUSH1 0xE0 SHL DUP2 MSTORE DUP4 MLOAD PUSH1 0x1 PUSH1 0x1 PUSH1 0xA0 SHL SUB SWAP1 DUP2 AND PUSH1 0x4 DUP4 ADD MSTORE PUSH1 0x20 DUP6 ADD MLOAD PUSH1 0x24 DUP4 ADD MSTORE SWAP2 DUP5 ADD MLOAD DUP3 AND PUSH1 0x44 DUP3 ADD MSTORE PUSH1 0x60 DUP5 ADD MLOAD DUP3 AND PUSH1 0x64 DUP3 ADD MSTORE PUSH1 0x80 DUP5 ADD MLOAD PUSH1 0x84 DUP3 ADD MSTORE PUSH1 0xA0 DUP5 ADD MLOAD SWAP1 SWAP2 AND PUSH1 0xA4 DUP3 ADD MSTORE PUSH1 0xC0 SWAP1 SWAP3 ADD MLOAD PUSH1 0xC4 DUP4 ADD MSTORE DUP12 SWAP1 DUP3 SWAP1 PUSH1 0xE4 SWAP1 DUP3 SWAP1 DUP5 SWAP1 GAS CALL SWAP1 DUP2 ISZERO PUSH2 0x15D0 JUMPI DUP12 SWAP2 PUSH2 0x15BB JUMPI JUMPDEST POP POP PUSH1 0x24 SWAP2 PUSH1 0x1 PUSH1 0x1 PUSH1 0xA0 SHL SUB DUP1 PUSH1 0x5 SLOAD AND SWAP8 MLOAD AND SWAP6 MLOAD SWAP1 MLOAD SWAP2 PUSH1 0x20 PUSH1 0x1 PUSH1 0x1 PUSH1 0xA0 SHL SUB PUSH1 0x7 SLOAD AND PUSH1 0x40 MLOAD SWAP6 DUP7 DUP1 SWAP3 PUSH4 0x2EF1457 PUSH1 0xE5 SHL DUP3 MSTORE DUP10 PUSH1 0x4 DUP4 ADD MSTORE GAS STATICCALL SWAP4 DUP5 ISZERO PUSH2 0xBDD JUMPI DUP13 SWAP5 PUSH2 0x159A JUMPI JUMPDEST POP DUP8 EXTCODESIZE ISZERO PUSH2 0xBA8 JUMPI DUP12 SWAP10 DUP11 SWAP7 PUSH1 0x40 MLOAD SWAP13 DUP14 SWAP12 DUP13 SWAP11 DUP12 SWAP10 PUSH32 0x9E0E92E400000000000000000000000000000000000000000000000000000000 DUP12 MSTORE PUSH1 0x4 DUP12 ADD MSTORE CALLER PUSH1 0x24 DUP12 ADD MSTORE PUSH1 0x44 DUP11 ADD MSTORE PUSH1 0x64 DUP10 ADD MSTORE PUSH1 0x84 DUP9 ADD MSTORE PUSH1 0xA4 DUP8 ADD MSTORE PUSH1 0xC4 DUP7 ADD MSTORE PUSH1 0xE4 DUP6 ADD MSTORE TIMESTAMP PUSH2 0x104 DUP6 ADD MSTORE PUSH2 0x124 DUP5 ADD PUSH2 0x180 SWAP1 MSTORE PUSH2 0x184 DUP5 ADD PUSH2 0xB83 SWAP2 PUSH2 0x2E94 JUMP JUMPDEST PUSH2 0x15B4 SWAP2 SWAP5 POP PUSH1 0x20 RETURNDATASIZE PUSH1 0x20 GT PUSH2 0xBD6 JUMPI PUSH2 0xBC7 DUP2 DUP4 PUSH2 0x2C00 JUMP JUMPDEST SWAP3 CODESIZE PUSH2 0x1519 JUMP JUMPDEST DUP2 PUSH2 0x15C5 SWAP2 PUSH2 0x2C00 JUMP JUMPDEST PUSH2 0xC9A JUMPI DUP10 CODESIZE PUSH2 0x14CA JUMP JUMPDEST PUSH1 0x40 MLOAD RETURNDATASIZE DUP14 DUP3 RETURNDATACOPY RETURNDATASIZE SWAP1 REVERT JUMPDEST DUP2 PUSH2 0x15E5 SWAP2 PUSH2 0x2C00 JUMP JUMPDEST PUSH2 0xC9A JUMPI DUP10 CODESIZE PUSH2 0x13F9 JUMP JUMPDEST DUP2 PUSH2 0x15FA SWAP2 PUSH2 0x2C00 JUMP JUMPDEST PUSH2 0xC9A JUMPI DUP10 CODESIZE PUSH2 0x13B2 JUMP JUMPDEST PUSH1 0x24 DUP15 PUSH4 0x4E487B71 PUSH1 0xE0 SHL DUP2 MSTORE PUSH1 0x21 PUSH1 0x4 MSTORE REVERT JUMPDEST PUSH2 0x163D SWAP2 SWAP6 POP PUSH1 0x1 PUSH1 0x1 PUSH1 0xA0 SHL SUB SWAP5 POP PUSH1 0x40 RETURNDATASIZE PUSH1 0x40 GT PUSH2 0xCE7 JUMPI PUSH2 0xCD7 DUP2 DUP4 PUSH2 0x2C00 JUMP JUMPDEST SWAP5 SWAP1 SWAP4 PUSH2 0x12FA JUMP JUMPDEST PUSH1 0x40 MLOAD RETURNDATASIZE DUP16 DUP3 RETURNDATACOPY RETURNDATASIZE SWAP1 REVERT JUMPDEST DUP2 PUSH2 0x165A SWAP2 PUSH2 0x2C00 JUMP JUMPDEST PUSH2 0xBA8 JUMPI DUP12 CODESIZE PUSH2 0x124E JUMP JUMPDEST DUP14 DUP1 REVERT JUMPDEST PUSH2 0x1674 DUP13 DUP1 SWAP3 PUSH2 0x2C00 JUMP JUMPDEST PUSH2 0xD12 JUMPI CODESIZE PUSH2 0x1199 JUMP JUMPDEST SWAP1 POP PUSH1 0x20 DUP2 RETURNDATASIZE PUSH1 0x20 GT PUSH2 0x16B0 JUMPI JUMPDEST DUP2 PUSH2 0x1699 PUSH1 0x20 SWAP4 DUP4 PUSH2 0x2C00 JUMP JUMPDEST DUP2 ADD SUB SLT PUSH2 0xBA8 JUMPI PUSH2 0x16AA SWAP1 PUSH2 0x2E40 JUMP JUMPDEST CODESIZE PUSH2 0x115F JUMP JUMPDEST RETURNDATASIZE SWAP2 POP PUSH2 0x168C JUMP JUMPDEST SWAP2 SWAP6 POP SWAP8 POP PUSH2 0x16E0 SWAP2 SWAP12 POP PUSH1 0x60 RETURNDATASIZE PUSH1 0x60 GT PUSH2 0x16EC JUMPI JUMPDEST PUSH2 0x16D8 DUP2 DUP4 PUSH2 0x2C00 JUMP JUMPDEST DUP2 ADD SWAP1 PUSH2 0x2FDB JUMP JUMPDEST SWAP12 SWAP2 SWAP5 SWAP1 SWAP12 SWAP8 CODESIZE PUSH2 0x111D JUMP JUMPDEST POP RETURNDATASIZE PUSH2 0x16CE JUMP JUMPDEST SWAP1 SWAP2 POP PUSH1 0x20 DUP2 RETURNDATASIZE PUSH1 0x20 GT PUSH2 0x171F JUMPI JUMPDEST DUP2 PUSH2 0x170F PUSH1 0x20 SWAP4 DUP4 PUSH2 0x2C00 JUMP JUMPDEST DUP2 ADD SUB SLT PUSH2 0xDC6 JUMPI MLOAD SWAP1 CODESIZE PUSH2 0x10D4 JUMP JUMPDEST RETURNDATASIZE SWAP2 POP PUSH2 0x1702 JUMP JUMPDEST SWAP3 POP POP POP PUSH2 0x173A SWAP3 SWAP5 SWAP6 POP DUP2 SWAP4 POP PUSH2 0x2C00 JUMP JUMPDEST PUSH2 0xC0C JUMPI SWAP1 DUP10 DUP8 SWAP3 DUP10 DUP8 DUP13 DUP9 CODESIZE PUSH2 0xFE6 JUMP JUMPDEST DUP5 DUP1 REVERT JUMPDEST PUSH1 0x24 DUP3 PUSH4 0x4E487B71 PUSH1 0xE0 SHL DUP2 MSTORE PUSH1 0x41 PUSH1 0x4 MSTORE REVERT JUMPDEST POP PUSH2 0x100 CALLDATASIZE PUSH1 0x3 NOT ADD SLT PUSH2 0x168 JUMPI PUSH2 0x177B CALLDATASIZE PUSH2 0x2D7B JUMP JUMPDEST SWAP1 PUSH1 0x1 PUSH1 0x1 PUSH1 0xA0 SHL SUB PUSH1 0x6 SLOAD AND SWAP2 DUP1 MLOAD SWAP1 PUSH1 0x40 MLOAD SWAP2 PUSH4 0x255709E5 PUSH1 0xE1 SHL DUP4 MSTORE PUSH1 0x4 DUP4 ADD MSTORE DUP3 DUP3 PUSH1 0x24 DUP2 DUP8 GAS STATICCALL SWAP2 DUP3 ISZERO PUSH2 0x1DD6 JUMPI DUP4 SWAP3 PUSH2 0x1DE1 JUMPI JUMPDEST POP DUP1 MLOAD PUSH1 0x40 DUP1 MLOAD PUSH4 0x16C93723 PUSH1 0xE1 SHL DUP2 MSTORE PUSH1 0x4 DUP2 ADD SWAP3 SWAP1 SWAP3 MSTORE CALLER PUSH1 0x24 DUP4 ADD MSTORE SWAP1 SWAP5 DUP6 SWAP1 PUSH1 0x44 SWAP1 DUP3 SWAP1 DUP8 SWAP1 GAS CALL SWAP2 DUP3 ISZERO PUSH2 0x1DD6 JUMPI DUP4 SWAP5 DUP5 SWAP4 PUSH2 0x1DAF JUMPI JUMPDEST POP PUSH1 0x1 PUSH1 0x1 PUSH1 0xA0 SHL SUB PUSH1 0x3 SLOAD AND SWAP5 PUSH1 0x40 DUP3 ADD PUSH1 0x20 PUSH1 0x1 PUSH1 0x1 PUSH1 0xA0 SHL SUB DUP3 MLOAD AND PUSH1 0x24 PUSH1 0x40 MLOAD DUP1 SWAP11 DUP2 SWAP4 PUSH4 0x4D0A647 PUSH1 0xE0 SHL DUP4 MSTORE PUSH1 0x4 DUP4 ADD MSTORE GAS STATICCALL SWAP7 DUP8 ISZERO PUSH2 0x1DA4 JUMPI DUP7 SWAP8 PUSH2 0x1D68 JUMPI JUMPDEST POP PUSH20 0x0 SWAP7 DUP8 EXTCODESIZE ISZERO PUSH2 0xC6B JUMPI DUP7 PUSH1 0x1 PUSH1 0x1 PUSH1 0xA0 SHL SUB SWAP2 PUSH1 0x24 PUSH1 0x40 MLOAD DUP1 SWAP5 DUP2 SWAP4 PUSH4 0xBF6341CF PUSH1 0xE0 SHL DUP4 MSTORE AND SWAP12 DUP13 PUSH1 0x4 DUP4 ADD MSTORE GAS DELEGATECALL DUP1 ISZERO PUSH2 0xC01 JUMPI SWAP1 DUP8 SWAP2 PUSH2 0x1D53 JUMPI JUMPDEST POP POP PUSH1 0xA0 PUSH1 0x1 PUSH1 0x1 PUSH1 0xA0 SHL SUB DUP3 MLOAD AND SWAP4 ADD SWAP3 PUSH1 0x1 PUSH1 0x1 PUSH1 0xA0 SHL SUB DUP5 MLOAD AND PUSH1 0x40 MLOAD SWAP2 PUSH2 0x18B5 DUP4 PUSH2 0x2B41 JUMP JUMPDEST DUP3 MSTORE CALLER PUSH1 0x20 DUP4 ADD MSTORE PUSH1 0x40 DUP3 ADD MSTORE DUP6 PUSH1 0x60 DUP3 ADD MSTORE PUSH1 0x1 PUSH1 0x1 PUSH1 0xA0 SHL SUB PUSH1 0x4 SLOAD AND SWAP1 DUP2 EXTCODESIZE ISZERO PUSH2 0xC0C JUMPI PUSH2 0x1939 PUSH1 0x84 DUP10 SWAP3 DUP4 PUSH1 0x40 MLOAD SWAP6 DUP7 SWAP5 DUP6 SWAP4 PUSH4 0x577ED67F PUSH1 0xE1 SHL DUP6 MSTORE PUSH1 0x4 DUP6 ADD SWAP1 PUSH1 0x60 DUP1 SWAP2 PUSH1 0x1 PUSH1 0x1 PUSH1 0xA0 SHL SUB DUP2 MLOAD AND DUP5 MSTORE PUSH1 0x1 PUSH1 0x1 PUSH1 0xA0 SHL SUB PUSH1 0x20 DUP3 ADD MLOAD AND PUSH1 0x20 DUP6 ADD MSTORE PUSH1 0x1 PUSH1 0x1 PUSH1 0xA0 SHL SUB PUSH1 0x40 DUP3 ADD MLOAD AND PUSH1 0x40 DUP6 ADD MSTORE ADD MLOAD SWAP2 ADD MSTORE JUMP JUMPDEST GAS CALL DUP1 ISZERO PUSH2 0xC01 JUMPI SWAP1 DUP8 SWAP2 PUSH2 0x1D3E JUMPI JUMPDEST POP POP PUSH1 0x1 PUSH1 0x1 PUSH1 0xA0 SHL SUB DUP2 MLOAD AND SWAP7 PUSH1 0x1 PUSH1 0x1 PUSH1 0xA0 SHL SUB DUP5 MLOAD AND PUSH1 0x40 MLOAD SWAP9 PUSH2 0x196F DUP11 PUSH2 0x2B41 JUMP JUMPDEST DUP10 MSTORE CALLER PUSH1 0x20 DUP11 ADD MSTORE PUSH1 0x40 DUP10 ADD MSTORE DUP6 PUSH1 0x60 DUP10 ADD MSTORE PUSH1 0x40 PUSH2 0x19EA PUSH1 0x84 PUSH1 0x1 PUSH1 0x1 PUSH1 0xA0 SHL SUB PUSH1 0x4 SLOAD AND SWAP11 DUP4 MLOAD SWAP12 DUP13 SWAP4 DUP5 SWAP3 PUSH4 0x716FA03 PUSH1 0xE3 SHL DUP5 MSTORE PUSH1 0x4 DUP5 ADD SWAP1 PUSH1 0x60 DUP1 SWAP2 PUSH1 0x1 PUSH1 0x1 PUSH1 0xA0 SHL SUB DUP2 MLOAD AND DUP5 MSTORE PUSH1 0x1 PUSH1 0x1 PUSH1 0xA0 SHL SUB PUSH1 0x20 DUP3 ADD MLOAD AND PUSH1 0x20 DUP6 ADD MSTORE PUSH1 0x1 PUSH1 0x1 PUSH1 0xA0 SHL SUB PUSH1 0x40 DUP3 ADD MLOAD AND PUSH1 0x40 DUP6 ADD MSTORE ADD MLOAD SWAP2 ADD MSTORE JUMP JUMPDEST GAS STATICCALL SWAP3 DUP4 ISZERO PUSH2 0xC01 JUMPI DUP8 SWAP9 DUP9 SWAP5 PUSH2 0x1D17 JUMPI JUMPDEST POP PUSH1 0x1 PUSH1 0x1 PUSH1 0xA0 SHL SUB PUSH1 0x20 DUP8 ADD MLOAD AND SWAP2 PUSH1 0x40 DUP8 ADD MLOAD SWAP10 PUSH1 0x60 DUP9 ADD MLOAD PUSH1 0x3 DUP2 LT ISZERO PUSH2 0xC9E JUMPI DUP11 SWAP12 PUSH2 0x1A69 SWAP2 PUSH2 0x924 PUSH1 0x80 DUP13 ADD MLOAD SWAP2 PUSH1 0x40 MLOAD SWAP4 PUSH2 0x1A3C DUP6 PUSH2 0x2B73 JUMP JUMPDEST PUSH1 0x1 PUSH1 0x1 PUSH1 0xA0 SHL SUB DUP8 AND SWAP10 DUP11 DUP7 MSTORE PUSH1 0x20 DUP7 ADD MSTORE DUP12 PUSH1 0x40 DUP7 ADD MSTORE DUP8 PUSH1 0x60 DUP7 ADD MSTORE PUSH1 0x80 DUP6 ADD MSTORE PUSH1 0xA0 DUP5 ADD PUSH2 0x2FF7 JUMP JUMPDEST DUP8 MLOAD DUP3 EXTCODESIZE ISZERO PUSH2 0xD12 JUMPI PUSH1 0x40 MLOAD PUSH4 0x26B3293F PUSH1 0xE0 SHL DUP2 MSTORE PUSH1 0x1 PUSH1 0x1 PUSH1 0xA0 SHL SUB SWAP3 SWAP1 SWAP3 AND PUSH1 0x4 DUP4 ADD MSTORE PUSH1 0x24 DUP3 ADD DUP8 SWAP1 MSTORE PUSH1 0x44 DUP3 ADD MSTORE SWAP1 DUP10 SWAP1 DUP3 SWAP1 PUSH1 0x64 SWAP1 DUP3 SWAP1 CALLVALUE SWAP1 GAS CALL SWAP1 DUP2 ISZERO PUSH2 0xC8F JUMPI DUP10 SWAP2 PUSH2 0x1D02 JUMPI JUMPDEST POP POP PUSH2 0x1CA4 JUMPI JUMPDEST PUSH1 0x1 PUSH1 0x1 PUSH1 0xA0 SHL SUB DUP3 MLOAD AND DUP6 MLOAD PUSH1 0x1 PUSH1 0x1 PUSH1 0xA0 SHL SUB DUP7 MLOAD AND SWAP1 PUSH1 0x40 MLOAD SWAP3 PUSH2 0x1AE5 DUP5 PUSH2 0x2B73 JUMP JUMPDEST DUP4 MSTORE PUSH1 0x20 DUP4 ADD MSTORE CALLER PUSH1 0x40 DUP4 ADD MSTORE PUSH1 0x60 DUP3 ADD MSTORE DUP7 PUSH1 0x80 DUP3 ADD MSTORE DUP2 PUSH1 0xA0 DUP3 ADD MSTORE DUP4 PUSH1 0xC0 DUP3 ADD MSTORE PUSH1 0x1 PUSH1 0x1 PUSH1 0xA0 SHL SUB PUSH1 0x4 SLOAD AND DUP1 EXTCODESIZE ISZERO PUSH2 0xD0E JUMPI PUSH1 0x40 DUP1 MLOAD PUSH4 0x2B54892B PUSH1 0xE0 SHL DUP2 MSTORE DUP4 MLOAD PUSH1 0x1 PUSH1 0x1 PUSH1 0xA0 SHL SUB SWAP1 DUP2 AND PUSH1 0x4 DUP4 ADD MSTORE PUSH1 0x20 DUP6 ADD MLOAD PUSH1 0x24 DUP4 ADD MSTORE SWAP2 DUP5 ADD MLOAD DUP3 AND PUSH1 0x44 DUP3 ADD MSTORE PUSH1 0x60 DUP5 ADD MLOAD DUP3 AND PUSH1 0x64 DUP3 ADD MSTORE PUSH1 0x80 DUP5 ADD MLOAD PUSH1 0x84 DUP3 ADD MSTORE PUSH1 0xA0 DUP5 ADD MLOAD SWAP1 SWAP2 AND PUSH1 0xA4 DUP3 ADD MSTORE PUSH1 0xC0 SWAP1 SWAP3 ADD MLOAD PUSH1 0xC4 DUP4 ADD MSTORE DUP9 SWAP1 DUP3 SWAP1 PUSH1 0xE4 SWAP1 DUP3 SWAP1 DUP5 SWAP1 GAS CALL SWAP1 DUP2 ISZERO PUSH2 0xC6F JUMPI DUP9 SWAP2 PUSH2 0x1C8F JUMPI JUMPDEST POP POP PUSH1 0x24 SWAP5 PUSH1 0x1 PUSH1 0x1 PUSH1 0xA0 SHL SUB DUP1 DUP1 PUSH1 0x5 SLOAD AND SWAP3 MLOAD SWAP5 MLOAD AND SWAP6 MLOAD AND SWAP7 PUSH1 0x20 PUSH1 0x1 PUSH1 0x1 PUSH1 0xA0 SHL SUB PUSH1 0x6 SLOAD AND PUSH1 0x40 MLOAD SWAP9 DUP10 DUP1 SWAP3 PUSH4 0x2EF1457 PUSH1 0xE5 SHL DUP3 MSTORE DUP9 PUSH1 0x4 DUP4 ADD MSTORE GAS STATICCALL SWAP7 DUP8 ISZERO PUSH2 0xC8F JUMPI DUP10 SWAP8 PUSH2 0x1C6E JUMPI JUMPDEST POP DUP2 EXTCODESIZE ISZERO PUSH2 0xD0E JUMPI DUP9 SWAP7 PUSH2 0x124 SWAP6 DUP9 SWAP5 PUSH2 0x1C5F SWAP4 PUSH1 0x40 MLOAD SWAP12 DUP13 SWAP11 DUP12 SWAP10 PUSH32 0xD3ECA8EE00000000000000000000000000000000000000000000000000000000 DUP12 MSTORE PUSH1 0x4 DUP12 ADD MSTORE CALLER PUSH1 0x24 DUP12 ADD MSTORE PUSH1 0x44 DUP11 ADD MSTORE PUSH1 0x64 DUP10 ADD MSTORE PUSH1 0x84 DUP9 ADD MSTORE PUSH1 0xA4 DUP8 ADD MSTORE PUSH1 0xC4 DUP7 ADD MSTORE TIMESTAMP PUSH1 0xE4 DUP7 ADD MSTORE PUSH2 0x104 DUP6 ADD SWAP1 PUSH2 0x3031 JUMP JUMPDEST GAS CALL DUP1 ISZERO PUSH2 0x1D4 JUMPI PUSH2 0x1C3 JUMPI POP RETURN JUMPDEST PUSH2 0x1C88 SWAP2 SWAP8 POP PUSH1 0x20 RETURNDATASIZE PUSH1 0x20 GT PUSH2 0xBD6 JUMPI PUSH2 0xBC7 DUP2 DUP4 PUSH2 0x2C00 JUMP JUMPDEST SWAP6 CODESIZE PUSH2 0x1BEB JUMP JUMPDEST DUP2 PUSH2 0x1C99 SWAP2 PUSH2 0x2C00 JUMP JUMPDEST PUSH2 0xC6B JUMPI DUP7 CODESIZE PUSH2 0x1B9A JUMP JUMPDEST PUSH1 0x1 PUSH1 0x1 PUSH1 0xA0 SHL SUB PUSH1 0x6 SLOAD AND DUP6 MLOAD DUP2 EXTCODESIZE ISZERO PUSH2 0xD0E JUMPI DUP9 SWAP2 PUSH1 0x24 DUP4 SWAP3 PUSH1 0x40 MLOAD SWAP5 DUP6 SWAP4 DUP5 SWAP3 PUSH4 0x5543F85 PUSH1 0xE0 SHL DUP5 MSTORE PUSH1 0x4 DUP5 ADD MSTORE GAS CALL SWAP1 DUP2 ISZERO PUSH2 0xC6F JUMPI DUP9 SWAP2 PUSH2 0x1CED JUMPI JUMPDEST POP POP PUSH2 0x1ABF JUMP JUMPDEST DUP2 PUSH2 0x1CF7 SWAP2 PUSH2 0x2C00 JUMP JUMPDEST PUSH2 0xC6B JUMPI DUP7 CODESIZE PUSH2 0x1CE6 JUMP JUMPDEST DUP2 PUSH2 0x1D0C SWAP2 PUSH2 0x2C00 JUMP JUMPDEST PUSH2 0xC0C JUMPI DUP8 CODESIZE PUSH2 0x1AB8 JUMP JUMPDEST SWAP1 SWAP4 POP PUSH2 0x1D34 SWAP2 SWAP9 POP PUSH1 0x40 RETURNDATASIZE PUSH1 0x40 GT PUSH2 0xCE7 JUMPI PUSH2 0xCD7 DUP2 DUP4 PUSH2 0x2C00 JUMP JUMPDEST SWAP8 SWAP1 SWAP8 SWAP3 CODESIZE PUSH2 0x19FC JUMP JUMPDEST DUP2 PUSH2 0x1D48 SWAP2 PUSH2 0x2C00 JUMP JUMPDEST PUSH2 0xBFD JUMPI DUP6 CODESIZE PUSH2 0x1949 JUMP JUMPDEST DUP2 PUSH2 0x1D5D SWAP2 PUSH2 0x2C00 JUMP JUMPDEST PUSH2 0xBFD JUMPI DUP6 CODESIZE PUSH2 0x188B JUMP JUMPDEST SWAP1 SWAP7 POP PUSH1 0x20 DUP2 RETURNDATASIZE PUSH1 0x20 GT PUSH2 0x1D9C JUMPI JUMPDEST DUP2 PUSH2 0x1D84 PUSH1 0x20 SWAP4 DUP4 PUSH2 0x2C00 JUMP JUMPDEST DUP2 ADD SUB SLT PUSH2 0xBFD JUMPI PUSH2 0x1D95 SWAP1 PUSH2 0x2E40 JUMP JUMPDEST SWAP6 CODESIZE PUSH2 0x1838 JUMP JUMPDEST RETURNDATASIZE SWAP2 POP PUSH2 0x1D77 JUMP JUMPDEST PUSH1 0x40 MLOAD RETURNDATASIZE DUP9 DUP3 RETURNDATACOPY RETURNDATASIZE SWAP1 REVERT JUMPDEST SWAP1 SWAP3 POP PUSH2 0x1DCC SWAP2 SWAP5 POP PUSH1 0x40 RETURNDATASIZE PUSH1 0x40 GT PUSH2 0xD93 JUMPI PUSH2 0xD84 DUP2 DUP4 PUSH2 0x2C00 JUMP JUMPDEST SWAP4 SWAP1 SWAP4 SWAP2 CODESIZE PUSH2 0x17F1 JUMP JUMPDEST PUSH1 0x40 MLOAD RETURNDATASIZE DUP6 DUP3 RETURNDATACOPY RETURNDATASIZE SWAP1 REVERT JUMPDEST SWAP4 SWAP2 POP RETURNDATASIZE DUP1 DUP5 DUP7 RETURNDATACOPY PUSH2 0x1DF3 DUP2 DUP7 PUSH2 0x2C00 JUMP JUMPDEST DUP5 ADD SWAP4 PUSH1 0x20 DUP2 DUP7 SUB SLT PUSH2 0xE53 JUMPI DUP1 MLOAD SWAP1 PUSH8 0xFFFFFFFFFFFFFFFF DUP3 GT PUSH2 0x174C JUMPI ADD SWAP4 PUSH2 0x140 DUP6 DUP3 SUB SLT PUSH2 0xE53 JUMPI PUSH1 0x40 MLOAD SWAP1 PUSH2 0x1E2C DUP3 PUSH2 0x2B8F JUMP JUMPDEST PUSH2 0x1E35 DUP7 PUSH2 0x2E40 JUMP JUMPDEST DUP3 MSTORE PUSH1 0x20 DUP7 ADD MLOAD PUSH8 0xFFFFFFFFFFFFFFFF DUP2 GT PUSH2 0xBFD JUMPI DUP7 ADD DUP2 PUSH1 0x1F DUP3 ADD SLT ISZERO PUSH2 0xBFD JUMPI DUP1 MLOAD SWAP1 PUSH2 0x1E64 DUP3 PUSH2 0x2E28 JUMP JUMPDEST SWAP2 PUSH2 0x1E72 PUSH1 0x40 MLOAD SWAP4 DUP5 PUSH2 0x2C00 JUMP JUMPDEST DUP1 DUP4 MSTORE PUSH1 0x20 DUP1 DUP5 ADD SWAP2 PUSH1 0x5 SHL DUP4 ADD ADD SWAP2 DUP5 DUP4 GT PUSH2 0xD0E JUMPI PUSH1 0x20 ADD SWAP1 JUMPDEST DUP3 DUP3 LT PUSH2 0x1FF4 JUMPI POP POP POP PUSH1 0x20 DUP4 ADD MSTORE PUSH2 0x1EA9 PUSH1 0x40 DUP8 ADD PUSH2 0x2E40 JUMP JUMPDEST PUSH1 0x40 DUP4 ADD MSTORE PUSH1 0x60 DUP7 ADD MLOAD PUSH8 0xFFFFFFFFFFFFFFFF DUP2 GT PUSH2 0xBFD JUMPI DUP2 PUSH2 0x1ECE SWAP2 DUP9 ADD PUSH2 0x2F33 JUMP JUMPDEST PUSH1 0x60 DUP4 ADD MSTORE PUSH1 0x80 DUP7 ADD MLOAD PUSH8 0xFFFFFFFFFFFFFFFF DUP2 GT PUSH2 0xBFD JUMPI DUP7 ADD SWAP6 DUP2 PUSH1 0x1F DUP9 ADD SLT ISZERO PUSH2 0xBFD JUMPI DUP7 MLOAD SWAP7 PUSH2 0x1F01 DUP9 PUSH2 0x2E28 JUMP JUMPDEST SWAP1 PUSH2 0x1F0F PUSH1 0x40 MLOAD SWAP3 DUP4 PUSH2 0x2C00 JUMP JUMPDEST DUP9 DUP3 MSTORE PUSH1 0x20 DUP1 DUP4 ADD SWAP10 PUSH1 0x5 SHL DUP3 ADD ADD SWAP1 DUP5 DUP3 GT PUSH2 0xD0E JUMPI PUSH1 0x20 ADD SWAP9 JUMPDEST DUP2 DUP11 LT PUSH2 0x1FDC JUMPI POP POP DUP7 SWAP8 POP PUSH1 0x80 DUP5 ADD MSTORE PUSH2 0x1F48 PUSH1 0xA0 DUP3 ADD PUSH2 0x2E40 JUMP JUMPDEST PUSH1 0xA0 DUP5 ADD MSTORE PUSH1 0xC0 DUP2 ADD MLOAD PUSH8 0xFFFFFFFFFFFFFFFF DUP2 GT PUSH2 0xC6B JUMPI DUP3 PUSH2 0x1F6D SWAP2 DUP4 ADD PUSH2 0x2F33 JUMP JUMPDEST PUSH1 0xC0 DUP5 ADD MSTORE PUSH1 0xE0 DUP2 ADD MLOAD PUSH8 0xFFFFFFFFFFFFFFFF DUP2 GT PUSH2 0xC6B JUMPI DUP3 PUSH2 0x1F92 SWAP2 DUP4 ADD PUSH2 0x2EF1 JUMP JUMPDEST PUSH1 0xE0 DUP5 ADD MSTORE PUSH2 0x100 DUP2 ADD MLOAD PUSH8 0xFFFFFFFFFFFFFFFF DUP2 GT PUSH2 0xC6B JUMPI PUSH2 0x120 SWAP3 PUSH2 0x1FBB SWAP2 DUP4 ADD PUSH2 0x2F90 JUMP JUMPDEST PUSH2 0x100 DUP5 ADD MSTORE ADD MLOAD PUSH1 0x4 DUP2 LT ISZERO PUSH2 0x174C JUMPI PUSH2 0x120 DUP3 ADD MSTORE SWAP2 SWAP4 POP PUSH1 0x40 PUSH2 0x17B5 JUMP JUMPDEST PUSH1 0x20 DUP1 SWAP2 PUSH2 0x1FE9 DUP13 PUSH2 0x303E JUMP JUMPDEST DUP2 MSTORE ADD SWAP10 ADD SWAP9 PUSH2 0x1F2B JUMP JUMPDEST PUSH1 0x20 DUP1 SWAP2 PUSH2 0x2001 DUP5 PUSH2 0x2E40 JUMP JUMPDEST DUP2 MSTORE ADD SWAP2 ADD SWAP1 PUSH2 0x1E8E JUMP JUMPDEST POP CALLVALUE PUSH2 0x168 JUMPI PUSH1 0x20 CALLDATASIZE PUSH1 0x3 NOT ADD SLT PUSH2 0x168 JUMPI PUSH1 0x4 CALLDATALOAD PUSH1 0x1 PUSH1 0x1 PUSH1 0xA0 SHL SUB DUP2 AND DUP1 SWAP2 SUB PUSH2 0x225 JUMPI PUSH2 0x203A PUSH2 0x3100 JUMP JUMPDEST PUSH1 0x1 PUSH1 0x1 PUSH1 0xA0 SHL SUB NOT PUSH1 0x2 SLOAD AND OR PUSH1 0x2 SSTORE DUP1 RETURN JUMPDEST POP CALLVALUE PUSH2 0x168 JUMPI DUP1 PUSH1 0x3 NOT CALLDATASIZE ADD SLT PUSH2 0x168 JUMPI PUSH1 0x1 PUSH1 0x1 PUSH1 0xA0 SHL SUB PUSH1 0x20 SWAP2 SLOAD AND PUSH1 0x40 MLOAD SWAP1 DUP2 MSTORE RETURN JUMPDEST POP CALLVALUE PUSH2 0x168 JUMPI DUP1 PUSH1 0x3 NOT CALLDATASIZE ADD SLT PUSH2 0x168 JUMPI PUSH2 0x208D PUSH2 0x3100 JUMP JUMPDEST DUP1 PUSH1 0x1 PUSH1 0x1 PUSH1 0xA0 SHL SUB DUP2 SLOAD PUSH1 0x1 PUSH1 0x1 PUSH1 0xA0 SHL SUB NOT DUP2 AND DUP4 SSTORE AND PUSH32 0x8BE0079C531659141344CD1FD0A4F28419497F9722A3DAAFE3B4186F6B6457E0 DUP3 DUP1 LOG3 DUP1 RETURN JUMPDEST POP PUSH2 0x100 CALLDATASIZE PUSH1 0x3 NOT ADD SLT PUSH2 0x168 JUMPI PUSH2 0x20E4 CALLDATASIZE PUSH2 0x2D7B JUMP JUMPDEST SWAP1 PUSH1 0x1 PUSH1 0x1 PUSH1 0xA0 SHL SUB PUSH1 0x7 SLOAD AND SWAP2 DUP1 MLOAD SWAP3 PUSH1 0x40 MLOAD SWAP4 PUSH4 0x255709E5 PUSH1 0xE1 SHL DUP6 MSTORE PUSH1 0x4 DUP6 ADD MSTORE DUP3 DUP5 PUSH1 0x24 DUP2 DUP5 GAS STATICCALL SWAP4 DUP5 ISZERO PUSH2 0x1DD6 JUMPI DUP4 SWAP5 PUSH2 0x2704 JUMPI JUMPDEST POP DUP2 MLOAD PUSH1 0x40 MLOAD PUSH4 0x16C93723 PUSH1 0xE1 SHL DUP2 MSTORE PUSH1 0x4 DUP2 ADD SWAP2 SWAP1 SWAP2 MSTORE CALLER PUSH1 0x24 DUP3 ADD MSTORE SWAP2 SWAP1 PUSH1 0x60 SWAP1 DUP4 SWAP1 PUSH1 0x44 SWAP1 DUP3 SWAP1 DUP8 SWAP1 GAS CALL SWAP2 DUP3 ISZERO PUSH2 0x1DD6 JUMPI DUP4 SWAP5 DUP5 SWAP2 DUP6 SWAP5 PUSH2 0x26DC JUMPI JUMPDEST POP PUSH1 0x20 PUSH1 0x1 PUSH1 0x1 PUSH1 0xA0 SHL SUB PUSH1 0x3 SLOAD AND SWAP2 ADD PUSH1 0x20 PUSH1 0x1 PUSH1 0x1 PUSH1 0xA0 SHL SUB DUP3 MLOAD AND PUSH1 0x24 PUSH1 0x40 MLOAD DUP1 SWAP6 DUP2 SWAP4 PUSH4 0x4D0A647 PUSH1 0xE0 SHL DUP4 MSTORE PUSH1 0x4 DUP4 ADD MSTORE GAS STATICCALL SWAP2 DUP3 ISZERO PUSH2 0x1DA4 JUMPI DUP7 SWAP3 PUSH2 0x26A0 JUMPI JUMPDEST POP PUSH20 0x0 SWAP2 DUP3 EXTCODESIZE ISZERO PUSH2 0xC6B JUMPI DUP7 PUSH1 0x1 PUSH1 0x1 PUSH1 0xA0 SHL SUB SWAP2 PUSH1 0x24 PUSH1 0x40 MLOAD DUP1 SWAP5 DUP2 SWAP4 PUSH4 0xBF6341CF PUSH1 0xE0 SHL DUP4 MSTORE AND SWAP7 DUP8 PUSH1 0x4 DUP4 ADD MSTORE GAS DELEGATECALL DUP1 ISZERO PUSH2 0xC01 JUMPI SWAP1 DUP8 SWAP2 PUSH2 0x268B JUMPI JUMPDEST POP POP PUSH1 0x1 PUSH1 0x1 PUSH1 0xA0 SHL SUB DUP1 DUP3 MLOAD AND SWAP4 PUSH1 0x40 MLOAD SWAP5 PUSH2 0x2213 DUP7 PUSH2 0x2B41 JUMP JUMPDEST DUP6 MSTORE CALLER PUSH1 0x20 DUP7 ADD MSTORE AND SWAP3 DUP4 PUSH1 0x40 DUP3 ADD MSTORE DUP8 PUSH1 0x60 DUP3 ADD MSTORE PUSH1 0x1 PUSH1 0x1 PUSH1 0xA0 SHL SUB PUSH1 0x4 SLOAD AND SWAP1 DUP2 EXTCODESIZE ISZERO PUSH2 0xC0C JUMPI PUSH2 0x229A PUSH1 0x84 DUP10 SWAP3 DUP4 PUSH1 0x40 MLOAD SWAP6 DUP7 SWAP5 DUP6 SWAP4 PUSH4 0x577ED67F PUSH1 0xE1 SHL DUP6 MSTORE PUSH1 0x4 DUP6 ADD SWAP1 PUSH1 0x60 DUP1 SWAP2 PUSH1 0x1 PUSH1 0x1 PUSH1 0xA0 SHL SUB DUP2 MLOAD AND DUP5 MSTORE PUSH1 0x1 PUSH1 0x1 PUSH1 0xA0 SHL SUB PUSH1 0x20 DUP3 ADD MLOAD AND PUSH1 0x20 DUP6 ADD MSTORE PUSH1 0x1 PUSH1 0x1 PUSH1 0xA0 SHL SUB PUSH1 0x40 DUP3 ADD MLOAD AND PUSH1 0x40 DUP6 ADD MSTORE ADD MLOAD SWAP2 ADD MSTORE JUMP JUMPDEST GAS CALL DUP1 ISZERO PUSH2 0xC01 JUMPI SWAP1 DUP8 SWAP2 PUSH2 0x2676 JUMPI JUMPDEST POP POP PUSH1 0x1 PUSH1 0x1 PUSH1 0xA0 SHL SUB DUP2 MLOAD AND SWAP7 PUSH1 0x40 MLOAD SWAP8 PUSH2 0x22C5 DUP10 PUSH2 0x2B41 JUMP JUMPDEST DUP9 MSTORE CALLER PUSH1 0x20 DUP10 ADD MSTORE DUP4 PUSH1 0x40 DUP10 ADD MSTORE DUP1 PUSH1 0x60 DUP10 ADD MSTORE PUSH1 0x40 PUSH2 0x2341 PUSH1 0x84 PUSH1 0x1 PUSH1 0x1 PUSH1 0xA0 SHL SUB PUSH1 0x4 SLOAD AND SWAP11 DUP4 MLOAD SWAP12 DUP13 SWAP4 DUP5 SWAP3 PUSH4 0x716FA03 PUSH1 0xE3 SHL DUP5 MSTORE PUSH1 0x4 DUP5 ADD SWAP1 PUSH1 0x60 DUP1 SWAP2 PUSH1 0x1 PUSH1 0x1 PUSH1 0xA0 SHL SUB DUP2 MLOAD AND DUP5 MSTORE PUSH1 0x1 PUSH1 0x1 PUSH1 0xA0 SHL SUB PUSH1 0x20 DUP3 ADD MLOAD AND PUSH1 0x20 DUP6 ADD MSTORE PUSH1 0x1 PUSH1 0x1 PUSH1 0xA0 SHL SUB PUSH1 0x40 DUP3 ADD MLOAD AND PUSH1 0x40 DUP6 ADD MSTORE ADD MLOAD SWAP2 ADD MSTORE JUMP JUMPDEST GAS STATICCALL SWAP5 DUP6 ISZERO PUSH2 0xC01 JUMPI DUP8 SWAP9 DUP9 SWAP7 PUSH2 0x264F JUMPI JUMPDEST POP PUSH1 0x1 PUSH1 0x1 PUSH1 0xA0 SHL SUB PUSH1 0x20 DUP3 ADD MLOAD AND SWAP4 PUSH1 0x40 DUP3 ADD MLOAD SWAP10 PUSH1 0x60 DUP4 ADD MLOAD PUSH1 0x3 DUP2 LT ISZERO PUSH2 0xC9E JUMPI DUP11 SWAP12 PUSH2 0x23C0 SWAP2 PUSH2 0x924 PUSH1 0x80 DUP8 ADD MLOAD SWAP2 PUSH1 0x40 MLOAD SWAP4 PUSH2 0x2393 DUP6 PUSH2 0x2B73 JUMP JUMPDEST PUSH1 0x1 PUSH1 0x1 PUSH1 0xA0 SHL SUB DUP8 AND SWAP12 DUP13 DUP7 MSTORE PUSH1 0x20 DUP7 ADD MSTORE DUP14 PUSH1 0x40 DUP7 ADD MSTORE DUP8 PUSH1 0x60 DUP7 ADD MSTORE PUSH1 0x80 DUP6 ADD MSTORE PUSH1 0xA0 DUP5 ADD PUSH2 0x2FF7 JUMP JUMPDEST DUP3 MLOAD DUP3 EXTCODESIZE ISZERO PUSH2 0xD12 JUMPI PUSH1 0x40 MLOAD PUSH4 0x26B3293F PUSH1 0xE0 SHL DUP2 MSTORE PUSH1 0x1 PUSH1 0x1 PUSH1 0xA0 SHL SUB SWAP3 SWAP1 SWAP3 AND PUSH1 0x4 DUP4 ADD MSTORE PUSH1 0x24 DUP3 ADD DUP10 SWAP1 MSTORE PUSH1 0x44 DUP3 ADD MSTORE SWAP1 DUP10 SWAP1 DUP3 SWAP1 PUSH1 0x64 SWAP1 DUP3 SWAP1 CALLVALUE SWAP1 GAS CALL SWAP1 DUP2 ISZERO PUSH2 0xC8F JUMPI DUP10 SWAP2 PUSH2 0x263A JUMPI JUMPDEST POP POP PUSH1 0x1 PUSH1 0x1 PUSH1 0xA0 SHL SUB PUSH1 0x7 SLOAD AND DUP2 MLOAD DUP2 EXTCODESIZE ISZERO PUSH2 0xC9A JUMPI DUP10 SWAP2 PUSH1 0x44 DUP4 SWAP3 PUSH1 0x40 MLOAD SWAP5 DUP6 SWAP4 DUP5 SWAP3 PUSH4 0xB38FFD5F PUSH1 0xE0 SHL DUP5 MSTORE PUSH1 0x4 DUP5 ADD MSTORE DUP9 PUSH1 0x24 DUP5 ADD MSTORE GAS CALL SWAP1 DUP2 ISZERO PUSH2 0xC8F JUMPI DUP10 SWAP2 PUSH2 0x2625 JUMPI JUMPDEST POP POP PUSH1 0x1 PUSH1 0x1 PUSH1 0xA0 SHL SUB DUP4 MLOAD AND DUP2 MLOAD PUSH1 0x40 MLOAD SWAP2 PUSH2 0x2475 DUP4 PUSH2 0x2B73 JUMP JUMPDEST DUP3 MSTORE PUSH1 0x20 DUP3 ADD MSTORE CALLER PUSH1 0x40 DUP3 ADD MSTORE DUP6 PUSH1 0x60 DUP3 ADD MSTORE DUP3 PUSH1 0x80 DUP3 ADD MSTORE DUP5 PUSH1 0xA0 DUP3 ADD MSTORE DUP7 PUSH1 0xC0 DUP3 ADD MSTORE PUSH1 0x1 PUSH1 0x1 PUSH1 0xA0 SHL SUB PUSH1 0x4 SLOAD AND DUP1 EXTCODESIZE ISZERO PUSH2 0xC9A JUMPI PUSH1 0x40 DUP1 MLOAD PUSH4 0x2B54892B PUSH1 0xE0 SHL DUP2 MSTORE DUP4 MLOAD PUSH1 0x1 PUSH1 0x1 PUSH1 0xA0 SHL SUB SWAP1 DUP2 AND PUSH1 0x4 DUP4 ADD MSTORE PUSH1 0x20 DUP6 ADD MLOAD PUSH1 0x24 DUP4 ADD MSTORE SWAP2 DUP5 ADD MLOAD DUP3 AND PUSH1 0x44 DUP3 ADD MSTORE PUSH1 0x60 DUP5 ADD MLOAD DUP3 AND PUSH1 0x64 DUP3 ADD MSTORE PUSH1 0x80 DUP5 ADD MLOAD PUSH1 0x84 DUP3 ADD MSTORE PUSH1 0xA0 DUP5 ADD MLOAD SWAP1 SWAP2 AND PUSH1 0xA4 DUP3 ADD MSTORE PUSH1 0xC0 SWAP1 SWAP3 ADD MLOAD PUSH1 0xC4 DUP4 ADD MSTORE DUP10 SWAP1 DUP3 SWAP1 PUSH1 0xE4 SWAP1 DUP3 SWAP1 DUP5 SWAP1 GAS CALL SWAP1 DUP2 ISZERO PUSH2 0xC8F JUMPI DUP10 SWAP2 PUSH2 0x2610 JUMPI JUMPDEST POP POP PUSH1 0x1 PUSH1 0x1 PUSH1 0xA0 SHL SUB DUP1 PUSH1 0x5 SLOAD AND SWAP2 MLOAD SWAP4 MLOAD AND SWAP5 PUSH1 0x24 PUSH1 0x20 PUSH1 0x1 PUSH1 0x1 PUSH1 0xA0 SHL SUB PUSH1 0x7 SLOAD AND PUSH1 0x40 MLOAD SWAP3 DUP4 DUP1 SWAP3 PUSH4 0x2EF1457 PUSH1 0xE5 SHL DUP3 MSTORE DUP10 PUSH1 0x4 DUP4 ADD MSTORE GAS STATICCALL SWAP1 DUP2 ISZERO PUSH2 0xCEE JUMPI DUP11 SWAP2 PUSH2 0x25F1 JUMPI JUMPDEST POP DUP3 EXTCODESIZE ISZERO PUSH2 0xC9A JUMPI DUP10 SWAP8 PUSH2 0x144 SWAP7 DUP10 SWAP6 PUSH2 0x1C5F SWAP5 PUSH1 0x40 MLOAD SWAP13 DUP14 SWAP12 DUP13 SWAP11 PUSH32 0x5261BBDB00000000000000000000000000000000000000000000000000000000 DUP13 MSTORE PUSH1 0x4 DUP13 ADD MSTORE CALLER PUSH1 0x24 DUP13 ADD MSTORE PUSH1 0x44 DUP12 ADD MSTORE PUSH1 0x64 DUP11 ADD MSTORE PUSH1 0x84 DUP10 ADD MSTORE PUSH1 0xA4 DUP9 ADD MSTORE PUSH1 0xC4 DUP8 ADD MSTORE PUSH1 0xE4 DUP7 ADD MSTORE TIMESTAMP PUSH2 0x104 DUP7 ADD MSTORE PUSH2 0x124 DUP6 ADD SWAP1 PUSH2 0x3031 JUMP JUMPDEST PUSH2 0x260A SWAP2 POP PUSH1 0x20 RETURNDATASIZE PUSH1 0x20 GT PUSH2 0xBD6 JUMPI PUSH2 0xBC7 DUP2 DUP4 PUSH2 0x2C00 JUMP JUMPDEST CODESIZE PUSH2 0x2577 JUMP JUMPDEST DUP2 PUSH2 0x261A SWAP2 PUSH2 0x2C00 JUMP JUMPDEST PUSH2 0xC0C JUMPI DUP8 CODESIZE PUSH2 0x252B JUMP JUMPDEST DUP2 PUSH2 0x262F SWAP2 PUSH2 0x2C00 JUMP JUMPDEST PUSH2 0xC0C JUMPI DUP8 CODESIZE PUSH2 0x2459 JUMP JUMPDEST DUP2 PUSH2 0x2644 SWAP2 PUSH2 0x2C00 JUMP JUMPDEST PUSH2 0xC0C JUMPI DUP8 CODESIZE PUSH2 0x240F JUMP JUMPDEST SWAP1 SWAP6 POP PUSH2 0x266C SWAP2 SWAP9 POP PUSH1 0x40 RETURNDATASIZE PUSH1 0x40 GT PUSH2 0xCE7 JUMPI PUSH2 0xCD7 DUP2 DUP4 PUSH2 0x2C00 JUMP JUMPDEST SWAP8 SWAP1 SWAP8 SWAP5 CODESIZE PUSH2 0x2353 JUMP JUMPDEST DUP2 PUSH2 0x2680 SWAP2 PUSH2 0x2C00 JUMP JUMPDEST PUSH2 0xBFD JUMPI DUP6 CODESIZE PUSH2 0x22AA JUMP JUMPDEST DUP2 PUSH2 0x2695 SWAP2 PUSH2 0x2C00 JUMP JUMPDEST PUSH2 0xBFD JUMPI DUP6 CODESIZE PUSH2 0x21F7 JUMP JUMPDEST SWAP1 SWAP2 POP PUSH1 0x20 DUP2 RETURNDATASIZE PUSH1 0x20 GT PUSH2 0x26D4 JUMPI JUMPDEST DUP2 PUSH2 0x26BC PUSH1 0x20 SWAP4 DUP4 PUSH2 0x2C00 JUMP JUMPDEST DUP2 ADD SUB SLT PUSH2 0xBFD JUMPI PUSH2 0x26CD SWAP1 PUSH2 0x2E40 JUMP JUMPDEST SWAP1 CODESIZE PUSH2 0x21A4 JUMP JUMPDEST RETURNDATASIZE SWAP2 POP PUSH2 0x26AF JUMP JUMPDEST SWAP2 POP SWAP3 POP PUSH2 0x26FA SWAP2 SWAP5 POP PUSH1 0x60 RETURNDATASIZE PUSH1 0x60 GT PUSH2 0x16EC JUMPI PUSH2 0x16D8 DUP2 DUP4 PUSH2 0x2C00 JUMP JUMPDEST SWAP2 SWAP5 SWAP2 SWAP3 CODESIZE PUSH2 0x215E JUMP JUMPDEST SWAP1 SWAP4 POP RETURNDATASIZE DUP1 DUP5 DUP4 RETURNDATACOPY PUSH2 0x2716 DUP2 DUP4 PUSH2 0x2C00 JUMP JUMPDEST DUP2 ADD SWAP1 PUSH1 0x20 DUP2 DUP4 SUB SLT PUSH2 0xE53 JUMPI DUP1 MLOAD SWAP1 PUSH8 0xFFFFFFFFFFFFFFFF DUP3 GT PUSH2 0x174C JUMPI ADD PUSH2 0x120 DUP2 DUP4 SUB SLT PUSH2 0xE53 JUMPI PUSH1 0x40 MLOAD SWAP2 PUSH2 0x120 DUP4 ADD DUP4 DUP2 LT PUSH8 0xFFFFFFFFFFFFFFFF DUP3 GT OR PUSH2 0x2841 JUMPI PUSH1 0x40 MSTORE PUSH2 0x2769 DUP3 PUSH2 0x2E40 JUMP JUMPDEST DUP4 MSTORE PUSH2 0x2777 PUSH1 0x20 DUP4 ADD PUSH2 0x2E40 JUMP JUMPDEST PUSH1 0x20 DUP5 ADD MSTORE PUSH1 0x40 DUP3 ADD MLOAD PUSH1 0x40 DUP5 ADD MSTORE PUSH1 0x60 DUP3 ADD MLOAD PUSH8 0xFFFFFFFFFFFFFFFF DUP2 GT PUSH2 0xBFD JUMPI DUP2 PUSH2 0x27A6 SWAP2 DUP5 ADD PUSH2 0x2EF1 JUMP JUMPDEST PUSH1 0x60 DUP5 ADD MSTORE PUSH1 0x80 DUP3 ADD MLOAD PUSH8 0xFFFFFFFFFFFFFFFF DUP2 GT PUSH2 0xBFD JUMPI DUP2 PUSH2 0x27CB SWAP2 DUP5 ADD PUSH2 0x2F33 JUMP JUMPDEST PUSH1 0x80 DUP5 ADD MSTORE PUSH1 0xA0 DUP3 ADD MLOAD PUSH8 0xFFFFFFFFFFFFFFFF DUP2 GT PUSH2 0xBFD JUMPI DUP2 PUSH2 0x27F0 SWAP2 DUP5 ADD PUSH2 0x2F33 JUMP JUMPDEST PUSH1 0xA0 DUP5 ADD MSTORE PUSH1 0xC0 DUP3 ADD MLOAD PUSH1 0xC0 DUP5 ADD MSTORE PUSH1 0xE0 DUP3 ADD MLOAD PUSH8 0xFFFFFFFFFFFFFFFF DUP2 GT PUSH2 0xBFD JUMPI DUP3 SWAP2 PUSH2 0x2823 SWAP2 PUSH2 0x100 SWAP5 ADD PUSH2 0x2F90 JUMP JUMPDEST PUSH1 0xE0 DUP5 ADD MSTORE ADD MLOAD PUSH1 0x4 DUP2 LT ISZERO PUSH2 0xE53 JUMPI PUSH2 0x100 DUP3 ADD MSTORE SWAP3 PUSH1 0x60 PUSH2 0x211E JUMP JUMPDEST PUSH1 0x24 DUP7 PUSH4 0x4E487B71 PUSH1 0xE0 SHL DUP2 MSTORE PUSH1 0x41 PUSH1 0x4 MSTORE REVERT JUMPDEST POP CALLVALUE PUSH2 0x168 JUMPI DUP1 PUSH2 0x2865 CALLDATASIZE PUSH2 0x2CAF JUMP JUMPDEST PUSH1 0x1 PUSH1 0x1 PUSH1 0xA0 SHL SUB PUSH1 0x6 SLOAD AND DUP1 EXTCODESIZE ISZERO PUSH2 0x1DF JUMPI PUSH2 0x1B2 DUP4 SWAP3 SWAP2 DUP4 SWAP3 PUSH1 0x40 MLOAD SWAP5 DUP6 DUP1 SWAP5 DUP2 SWAP4 PUSH4 0x1D6E1F85 PUSH1 0xE3 SHL DUP4 MSTORE PUSH1 0x4 DUP4 ADD PUSH2 0x2EB9 JUMP JUMPDEST POP CALLVALUE PUSH2 0x168 JUMPI PUSH1 0x20 CALLDATASIZE PUSH1 0x3 NOT ADD SLT PUSH2 0x168 JUMPI PUSH1 0x4 CALLDATALOAD PUSH1 0x1 PUSH1 0x1 PUSH1 0xA0 SHL SUB DUP2 AND DUP1 SWAP2 SUB PUSH2 0x225 JUMPI PUSH2 0x28CA PUSH2 0x3100 JUMP JUMPDEST PUSH1 0x1 PUSH1 0x1 PUSH1 0xA0 SHL SUB NOT PUSH1 0x7 SLOAD AND OR PUSH1 0x7 SSTORE DUP1 RETURN JUMPDEST POP CALLVALUE PUSH2 0x168 JUMPI PUSH1 0x20 CALLDATASIZE PUSH1 0x3 NOT ADD SLT PUSH2 0x168 JUMPI PUSH1 0x4 CALLDATALOAD PUSH1 0x1 PUSH1 0x1 PUSH1 0xA0 SHL SUB DUP2 AND DUP1 SWAP2 SUB PUSH2 0x225 JUMPI PUSH2 0x290C PUSH2 0x3100 JUMP JUMPDEST PUSH1 0x1 PUSH1 0x1 PUSH1 0xA0 SHL SUB NOT PUSH1 0x6 SLOAD AND OR PUSH1 0x6 SSTORE DUP1 RETURN JUMPDEST POP CALLVALUE PUSH2 0x168 JUMPI PUSH1 0x20 CALLDATASIZE PUSH1 0x3 NOT ADD SLT PUSH2 0x168 JUMPI PUSH1 0x40 MLOAD SWAP1 PUSH1 0x20 DUP3 ADD DUP3 DUP2 LT PUSH8 0xFFFFFFFFFFFFFFFF DUP3 GT OR PUSH2 0x1750 JUMPI PUSH1 0x40 MSTORE PUSH1 0x4 CALLDATALOAD DUP1 DUP4 MSTORE PUSH1 0x1 PUSH1 0x1 PUSH1 0xA0 SHL SUB PUSH1 0x7 SLOAD AND SWAP1 DUP2 EXTCODESIZE ISZERO PUSH2 0xE67 JUMPI DUP3 SWAP2 PUSH1 0x44 DUP4 SWAP3 PUSH1 0x40 MLOAD SWAP5 DUP6 SWAP4 DUP5 SWAP3 PUSH32 0x3ED5027500000000000000000000000000000000000000000000000000000000 DUP5 MSTORE CALLER PUSH1 0x4 DUP6 ADD MSTORE PUSH1 0x24 DUP5 ADD MSTORE GAS CALL DUP1 ISZERO PUSH2 0x1D4 JUMPI PUSH2 0x2A10 JUMPI JUMPDEST POP DUP1 SWAP2 PUSH1 0x1 PUSH1 0x1 PUSH1 0xA0 SHL SUB PUSH1 0x5 SLOAD AND SWAP1 MLOAD DUP2 EXTCODESIZE ISZERO PUSH2 0x1DF JUMPI DUP3 SWAP2 PUSH1 0x24 DUP4 SWAP3 PUSH1 0x40 MLOAD SWAP5 DUP6 SWAP4 DUP5 SWAP3 PUSH32 0xB60269D000000000000000000000000000000000000000000000000000000000 DUP5 MSTORE PUSH1 0x4 DUP5 ADD MSTORE GAS CALL DUP1 ISZERO PUSH2 0x1D4 JUMPI PUSH2 0x1C3 JUMPI POP RETURN JUMPDEST DUP2 PUSH2 0x2A1A SWAP2 PUSH2 0x2C00 JUMP JUMPDEST CODESIZE PUSH2 0x29B3 JUMP JUMPDEST DUP3 CALLVALUE PUSH2 0x168 JUMPI PUSH1 0x80 CALLDATASIZE PUSH1 0x3 NOT ADD SLT PUSH2 0x168 JUMPI PUSH2 0x2A3B DUP3 PUSH2 0x2B41 JUMP JUMPDEST PUSH2 0x2A43 PUSH2 0x2C22 JUMP JUMPDEST DUP3 MSTORE PUSH1 0x24 CALLDATALOAD PUSH1 0x1 PUSH1 0x1 PUSH1 0xA0 SHL SUB DUP2 AND DUP2 SUB PUSH2 0x225 JUMPI PUSH1 0x20 DUP4 ADD MSTORE PUSH1 0x44 CALLDATALOAD PUSH1 0x1 PUSH1 0x1 PUSH1 0xA0 SHL SUB DUP2 AND DUP2 SUB PUSH2 0x225 JUMPI PUSH1 0x40 DUP4 ADD MSTORE PUSH1 0x64 CALLDATALOAD PUSH1 0x60 DUP4 ADD MSTORE PUSH1 0x40 PUSH2 0x2AE5 PUSH1 0x84 PUSH1 0x1 PUSH1 0x1 PUSH1 0xA0 SHL SUB PUSH1 0x4 SLOAD AND SWAP5 DUP4 MLOAD SWAP6 DUP7 SWAP4 DUP5 SWAP3 PUSH4 0x716FA03 PUSH1 0xE3 SHL DUP5 MSTORE PUSH1 0x4 DUP5 ADD SWAP1 PUSH1 0x60 DUP1 SWAP2 PUSH1 0x1 PUSH1 0x1 PUSH1 0xA0 SHL SUB DUP2 MLOAD AND DUP5 MSTORE PUSH1 0x1 PUSH1 0x1 PUSH1 0xA0 SHL SUB PUSH1 0x20 DUP3 ADD MLOAD AND PUSH1 0x20 DUP6 ADD MSTORE PUSH1 0x1 PUSH1 0x1 PUSH1 0xA0 SHL SUB PUSH1 0x40 DUP3 ADD MLOAD AND PUSH1 0x40 DUP6 ADD MSTORE ADD MLOAD SWAP2 ADD MSTORE JUMP JUMPDEST GAS STATICCALL SWAP2 DUP3 ISZERO PUSH2 0x2B34 JUMPI DUP2 SWAP3 PUSH2 0x2B12 JUMPI JUMPDEST POP PUSH1 0x40 DUP1 MLOAD PUSH1 0x1 PUSH1 0x1 PUSH1 0xA0 SHL SUB SWAP3 SWAP1 SWAP3 AND DUP3 MSTORE PUSH1 0x20 DUP3 ADD SWAP3 SWAP1 SWAP3 MSTORE RETURN JUMPDEST SWAP1 POP PUSH2 0x2B2D SWAP2 POP PUSH1 0x40 RETURNDATASIZE PUSH1 0x40 GT PUSH2 0xCE7 JUMPI PUSH2 0xCD7 DUP2 DUP4 PUSH2 0x2C00 JUMP JUMPDEST SWAP1 DUP3 PUSH2 0x2AF5 JUMP JUMPDEST POP PUSH1 0x40 MLOAD SWAP1 RETURNDATASIZE SWAP1 DUP3 RETURNDATACOPY RETURNDATASIZE SWAP1 REVERT JUMPDEST PUSH1 0x80 DUP2 ADD SWAP1 DUP2 LT PUSH8 0xFFFFFFFFFFFFFFFF DUP3 GT OR PUSH2 0x2B5D JUMPI PUSH1 0x40 MSTORE JUMP JUMPDEST PUSH4 0x4E487B71 PUSH1 0xE0 SHL PUSH1 0x0 MSTORE PUSH1 0x41 PUSH1 0x4 MSTORE PUSH1 0x24 PUSH1 0x0 REVERT JUMPDEST PUSH1 0xE0 DUP2 ADD SWAP1 DUP2 LT PUSH8 0xFFFFFFFFFFFFFFFF DUP3 GT OR PUSH2 0x2B5D JUMPI PUSH1 0x40 MSTORE JUMP JUMPDEST PUSH2 0x140 DUP2 ADD SWAP1 DUP2 LT PUSH8 0xFFFFFFFFFFFFFFFF DUP3 GT OR PUSH2 0x2B5D JUMPI PUSH1 0x40 MSTORE JUMP JUMPDEST PUSH1 0x60 DUP2 ADD SWAP1 DUP2 LT PUSH8 0xFFFFFFFFFFFFFFFF DUP3 GT OR PUSH2 0x2B5D JUMPI PUSH1 0x40 MSTORE JUMP JUMPDEST PUSH1 0xA0 DUP2 ADD SWAP1 DUP2 LT PUSH8 0xFFFFFFFFFFFFFFFF DUP3 GT OR PUSH2 0x2B5D JUMPI PUSH1 0x40 MSTORE JUMP JUMPDEST PUSH1 0x40 DUP2 ADD SWAP1 DUP2 LT PUSH8 0xFFFFFFFFFFFFFFFF DUP3 GT OR PUSH2 0x2B5D JUMPI PUSH1 0x40 MSTORE JUMP JUMPDEST SWAP1 PUSH1 0x1F DUP1 NOT SWAP2 ADD AND DUP2 ADD SWAP1 DUP2 LT PUSH8 0xFFFFFFFFFFFFFFFF DUP3 GT OR PUSH2 0x2B5D JUMPI PUSH1 0x40 MSTORE JUMP JUMPDEST PUSH1 0x4 CALLDATALOAD SWAP1 PUSH1 0x1 PUSH1 0x1 PUSH1 0xA0 SHL SUB DUP3 AND DUP3 SUB PUSH2 0xDC6 JUMPI JUMP JUMPDEST CALLDATALOAD SWAP1 PUSH1 0x1 PUSH1 0x1 PUSH1 0xA0 SHL SUB DUP3 AND DUP3 SUB PUSH2 0xDC6 JUMPI JUMP JUMPDEST PUSH8 0xFFFFFFFFFFFFFFFF DUP2 GT PUSH2 0x2B5D JUMPI PUSH1 0x1F ADD PUSH1 0x1F NOT AND PUSH1 0x20 ADD SWAP1 JUMP JUMPDEST DUP2 PUSH1 0x1F DUP3 ADD SLT ISZERO PUSH2 0xDC6 JUMPI DUP1 CALLDATALOAD SWAP1 PUSH2 0x2C7F DUP3 PUSH2 0x2C4C JUMP JUMPDEST SWAP3 PUSH2 0x2C8D PUSH1 0x40 MLOAD SWAP5 DUP6 PUSH2 0x2C00 JUMP JUMPDEST DUP3 DUP5 MSTORE PUSH1 0x20 DUP4 DUP4 ADD ADD GT PUSH2 0xDC6 JUMPI DUP2 PUSH1 0x0 SWAP3 PUSH1 0x20 DUP1 SWAP4 ADD DUP4 DUP7 ADD CALLDATACOPY DUP4 ADD ADD MSTORE SWAP1 JUMP JUMPDEST PUSH1 0x20 PUSH1 0x3 NOT DUP3 ADD SLT PUSH2 0xDC6 JUMPI PUSH1 0x4 CALLDATALOAD PUSH8 0xFFFFFFFFFFFFFFFF DUP2 GT PUSH2 0xDC6 JUMPI PUSH1 0x60 DUP2 DUP4 SUB PUSH1 0x3 NOT ADD SLT PUSH2 0xDC6 JUMPI PUSH1 0x40 MLOAD SWAP2 PUSH2 0x2CE8 DUP4 PUSH2 0x2BAC JUMP JUMPDEST PUSH2 0x2CF4 DUP3 PUSH1 0x4 ADD PUSH2 0x2C38 JUMP JUMPDEST DUP4 MSTORE PUSH1 0x24 DUP3 ADD CALLDATALOAD PUSH1 0x20 DUP5 ADD MSTORE PUSH1 0x44 DUP3 ADD CALLDATALOAD SWAP2 PUSH8 0xFFFFFFFFFFFFFFFF DUP4 GT PUSH2 0xDC6 JUMPI PUSH2 0x2D22 SWAP3 ADD PUSH1 0x4 ADD PUSH2 0x2C68 JUMP JUMPDEST PUSH1 0x40 DUP3 ADD MSTORE SWAP1 JUMP JUMPDEST CALLDATALOAD SWAP1 PUSH1 0xFF DUP3 AND DUP3 SUB PUSH2 0xDC6 JUMPI JUMP JUMPDEST SWAP2 SWAP1 DUP3 PUSH1 0x80 SWAP2 SUB SLT PUSH2 0xDC6 JUMPI PUSH1 0x40 MLOAD PUSH2 0x2D50 DUP2 PUSH2 0x2B41 JUMP JUMPDEST PUSH1 0x60 DUP1 DUP3 SWAP5 DUP1 CALLDATALOAD DUP5 MSTORE PUSH2 0x2D65 PUSH1 0x20 DUP3 ADD PUSH2 0x2D2A JUMP JUMPDEST PUSH1 0x20 DUP6 ADD MSTORE PUSH1 0x40 DUP2 ADD CALLDATALOAD PUSH1 0x40 DUP6 ADD MSTORE ADD CALLDATALOAD SWAP2 ADD MSTORE JUMP JUMPDEST SWAP1 PUSH2 0x100 PUSH1 0x3 NOT DUP4 ADD SLT PUSH2 0xDC6 JUMPI PUSH1 0x40 MLOAD PUSH2 0x2D95 DUP2 PUSH2 0x2BC8 JUMP JUMPDEST DUP1 SWAP3 PUSH1 0x4 CALLDATALOAD DUP3 MSTORE PUSH1 0x24 CALLDATALOAD PUSH1 0x1 PUSH1 0x1 PUSH1 0xA0 SHL SUB DUP2 AND DUP2 SUB PUSH2 0xDC6 JUMPI PUSH1 0x20 DUP4 ADD MSTORE PUSH1 0x44 CALLDATALOAD PUSH1 0x40 DUP4 ADD MSTORE PUSH1 0x64 CALLDATALOAD PUSH1 0x3 DUP2 LT ISZERO PUSH2 0xDC6 JUMPI PUSH1 0x80 SWAP2 PUSH2 0x2DDB SWAP2 PUSH1 0x60 DUP6 ADD MSTORE PUSH1 0x84 PUSH2 0x2D38 JUMP JUMPDEST SWAP2 ADD MSTORE JUMP JUMPDEST SWAP2 SWAP1 PUSH1 0x40 DUP4 DUP3 SUB SLT PUSH2 0xDC6 JUMPI PUSH1 0x40 MLOAD SWAP1 PUSH2 0x2DF9 DUP3 PUSH2 0x2BE4 JUMP JUMPDEST DUP2 SWAP4 PUSH2 0x2E04 DUP2 PUSH2 0x2D2A JUMP JUMPDEST DUP4 MSTORE PUSH1 0x20 DUP2 ADD CALLDATALOAD SWAP2 PUSH8 0xFFFFFFFFFFFFFFFF DUP4 GT PUSH2 0xDC6 JUMPI PUSH1 0x20 SWAP3 PUSH2 0x2DDB SWAP3 ADD PUSH2 0x2C68 JUMP JUMPDEST PUSH8 0xFFFFFFFFFFFFFFFF DUP2 GT PUSH2 0x2B5D JUMPI PUSH1 0x5 SHL PUSH1 0x20 ADD SWAP1 JUMP JUMPDEST MLOAD SWAP1 PUSH1 0x1 PUSH1 0x1 PUSH1 0xA0 SHL SUB DUP3 AND DUP3 SUB PUSH2 0xDC6 JUMPI JUMP JUMPDEST SWAP2 SWAP1 DUP3 PUSH1 0x40 SWAP2 SUB SLT PUSH2 0xDC6 JUMPI PUSH1 0x20 PUSH2 0x2E6B DUP4 PUSH2 0x2E40 JUMP JUMPDEST SWAP3 ADD MLOAD SWAP1 JUMP JUMPDEST PUSH1 0x0 JUMPDEST DUP4 DUP2 LT PUSH2 0x2E84 JUMPI POP POP PUSH1 0x0 SWAP2 ADD MSTORE JUMP JUMPDEST DUP2 DUP2 ADD MLOAD DUP4 DUP3 ADD MSTORE PUSH1 0x20 ADD PUSH2 0x2E74 JUMP JUMPDEST SWAP1 PUSH1 0x20 SWAP2 PUSH2 0x2EAD DUP2 MLOAD DUP1 SWAP3 DUP2 DUP6 MSTORE DUP6 DUP1 DUP7 ADD SWAP2 ADD PUSH2 0x2E71 JUMP JUMPDEST PUSH1 0x1F ADD PUSH1 0x1F NOT AND ADD ADD SWAP1 JUMP JUMPDEST PUSH1 0x80 PUSH1 0x40 PUSH2 0x2EEE SWAP4 PUSH1 0x20 DUP5 MSTORE PUSH1 0x1 PUSH1 0x1 PUSH1 0xA0 SHL SUB DUP2 MLOAD AND PUSH1 0x20 DUP6 ADD MSTORE PUSH1 0x20 DUP2 ADD MLOAD DUP3 DUP6 ADD MSTORE ADD MLOAD SWAP2 PUSH1 0x60 DUP1 DUP3 ADD MSTORE ADD SWAP1 PUSH2 0x2E94 JUMP JUMPDEST SWAP1 JUMP JUMPDEST DUP2 PUSH1 0x1F DUP3 ADD SLT ISZERO PUSH2 0xDC6 JUMPI DUP1 MLOAD PUSH2 0x2F07 DUP2 PUSH2 0x2C4C JUMP JUMPDEST SWAP3 PUSH2 0x2F15 PUSH1 0x40 MLOAD SWAP5 DUP6 PUSH2 0x2C00 JUMP JUMPDEST DUP2 DUP5 MSTORE PUSH1 0x20 DUP3 DUP5 ADD ADD GT PUSH2 0xDC6 JUMPI PUSH2 0x2EEE SWAP2 PUSH1 0x20 DUP1 DUP6 ADD SWAP2 ADD PUSH2 0x2E71 JUMP JUMPDEST SWAP1 DUP1 PUSH1 0x1F DUP4 ADD SLT ISZERO PUSH2 0xDC6 JUMPI DUP2 MLOAD PUSH2 0x2F4A DUP2 PUSH2 0x2E28 JUMP JUMPDEST SWAP3 PUSH2 0x2F58 PUSH1 0x40 MLOAD SWAP5 DUP6 PUSH2 0x2C00 JUMP JUMPDEST DUP2 DUP5 MSTORE PUSH1 0x20 DUP1 DUP6 ADD SWAP3 PUSH1 0x5 SHL DUP3 ADD ADD SWAP3 DUP4 GT PUSH2 0xDC6 JUMPI PUSH1 0x20 ADD SWAP1 JUMPDEST DUP3 DUP3 LT PUSH2 0x2F80 JUMPI POP POP POP SWAP1 JUMP JUMPDEST DUP2 MLOAD DUP2 MSTORE PUSH1 0x20 SWAP2 DUP3 ADD SWAP2 ADD PUSH2 0x2F73 JUMP JUMPDEST SWAP2 SWAP1 PUSH1 0x40 DUP4 DUP3 SUB SLT PUSH2 0xDC6 JUMPI PUSH1 0x40 MLOAD SWAP1 PUSH2 0x2FA9 DUP3 PUSH2 0x2BE4 JUMP JUMPDEST DUP2 SWAP4 DUP1 MLOAD PUSH1 0xFF DUP2 AND DUP2 SUB PUSH2 0xDC6 JUMPI DUP4 MSTORE PUSH1 0x20 DUP2 ADD MLOAD SWAP2 PUSH8 0xFFFFFFFFFFFFFFFF DUP4 GT PUSH2 0xDC6 JUMPI PUSH1 0x20 SWAP3 PUSH2 0x2DDB SWAP3 ADD PUSH2 0x2EF1 JUMP JUMPDEST SWAP1 DUP2 PUSH1 0x60 SWAP2 SUB SLT PUSH2 0xDC6 JUMPI DUP1 MLOAD SWAP2 PUSH1 0x40 PUSH2 0x2E6B PUSH1 0x20 DUP5 ADD PUSH2 0x2E40 JUMP JUMPDEST PUSH1 0x3 DUP3 LT ISZERO PUSH2 0x3003 JUMPI MSTORE JUMP JUMPDEST PUSH4 0x4E487B71 PUSH1 0xE0 SHL PUSH1 0x0 MSTORE PUSH1 0x21 PUSH1 0x4 MSTORE PUSH1 0x24 PUSH1 0x0 REVERT JUMPDEST SWAP1 DUP2 PUSH1 0x20 SWAP2 SUB SLT PUSH2 0xDC6 JUMPI MLOAD PUSH1 0x4 DUP2 LT ISZERO PUSH2 0xDC6 JUMPI SWAP1 JUMP JUMPDEST SWAP1 PUSH1 0x4 DUP3 LT ISZERO PUSH2 0x3003 JUMPI MSTORE JUMP JUMPDEST MLOAD SWAP1 DUP2 ISZERO ISZERO DUP3 SUB PUSH2 0xDC6 JUMPI JUMP JUMPDEST SWAP2 SWAP1 DUP3 PUSH1 0x40 SWAP2 SUB SLT PUSH2 0xDC6 JUMPI PUSH1 0x20 PUSH2 0x2E6B DUP4 PUSH2 0x303E JUMP JUMPDEST SWAP1 PUSH1 0x40 PUSH1 0x20 PUSH2 0x2EEE SWAP4 PUSH1 0xFF DUP2 MLOAD AND DUP5 MSTORE ADD MLOAD SWAP2 DUP2 PUSH1 0x20 DUP3 ADD MSTORE ADD SWAP1 PUSH2 0x2E94 JUMP JUMPDEST SWAP1 PUSH1 0x3 DUP3 LT ISZERO PUSH2 0x3003 JUMPI MSTORE JUMP JUMPDEST SWAP1 PUSH1 0x20 DUP1 DUP4 MLOAD SWAP3 DUP4 DUP2 MSTORE ADD SWAP3 ADD SWAP1 PUSH1 0x0 JUMPDEST DUP2 DUP2 LT PUSH2 0x30AD JUMPI POP POP POP SWAP1 JUMP JUMPDEST DUP3 MLOAD PUSH1 0x1 PUSH1 0x1 PUSH1 0xA0 SHL SUB AND DUP5 MSTORE PUSH1 0x20 SWAP4 DUP5 ADD SWAP4 SWAP1 SWAP3 ADD SWAP2 PUSH1 0x1 ADD PUSH2 0x30A0 JUMP JUMPDEST SWAP1 PUSH1 0x20 DUP1 DUP4 MLOAD SWAP3 DUP4 DUP2 MSTORE ADD SWAP3 ADD SWAP1 PUSH1 0x0 JUMPDEST DUP2 DUP2 LT PUSH2 0x30EA JUMPI POP POP POP SWAP1 JUMP JUMPDEST DUP3 MLOAD DUP5 MSTORE PUSH1 0x20 SWAP4 DUP5 ADD SWAP4 SWAP1 SWAP3 ADD SWAP2 PUSH1 0x1 ADD PUSH2 0x30DD JUMP JUMPDEST PUSH1 0x1 PUSH1 0x1 PUSH1 0xA0 SHL SUB PUSH1 0x0 SLOAD AND CALLER SUB PUSH2 0x3114 JUMPI JUMP JUMPDEST PUSH32 0x118CDAA700000000000000000000000000000000000000000000000000000000 PUSH1 0x0 MSTORE CALLER PUSH1 0x4 MSTORE PUSH1 0x24 PUSH1 0x0 REVERT JUMPDEST ISZERO PUSH2 0x314A JUMPI POP JUMP JUMPDEST PUSH2 0x3188 SWAP1 PUSH1 0x40 MLOAD SWAP2 DUP3 SWAP2 PUSH32 0x8C379A000000000000000000000000000000000000000000000000000000000 DUP4 MSTORE PUSH1 0x20 PUSH1 0x4 DUP5 ADD MSTORE PUSH1 0x24 DUP4 ADD SWAP1 PUSH2 0x2E94 JUMP JUMPDEST SUB SWAP1 REVERT JUMPDEST SWAP1 PUSH1 0x0 SWAP2 PUSH1 0x1 PUSH1 0x1 PUSH1 0xA0 SHL SUB DUP2 MLOAD AND DUP1 ISZERO PUSH1 0x0 EQ PUSH2 0x3A80 JUMPI POP CALLER BALANCE SWAP1 JUMPDEST PUSH1 0x40 DUP2 ADD DUP1 MLOAD SWAP1 SWAP3 SWAP1 DUP2 LT PUSH2 0x32BC JUMPI POP DUP1 MLOAD PUSH1 0x1 PUSH1 0x1 PUSH1 0xA0 SHL SUB AND DUP1 PUSH2 0x3233 JUMPI POP PUSH2 0x3217 PUSH2 0x3231 SWAP4 SWAP5 DUP4 MLOAD CALLVALUE LT ISZERO SWAP1 POP PUSH1 0x40 MLOAD SWAP1 PUSH2 0x31E8 PUSH1 0x40 DUP4 PUSH2 0x2C00 JUMP JUMPDEST PUSH1 0x3 DUP3 MSTORE PUSH32 0x3130300000000000000000000000000000000000000000000000000000000000 PUSH1 0x20 DUP4 ADD MSTORE PUSH2 0x3142 JUMP JUMPDEST PUSH1 0x1 PUSH1 0x1 PUSH1 0xA0 SHL SUB PUSH1 0x60 DUP2 DUP4 MLOAD AND SWAP4 MLOAD SWAP3 ADD MLOAD AND SWAP2 PUSH2 0x3B09 JUMP JUMPDEST JUMP JUMPDEST DUP3 MLOAD PUSH1 0x40 MLOAD PUSH4 0x23B872DD PUSH1 0xE0 SHL DUP2 MSTORE CALLER PUSH1 0x4 DUP3 ADD MSTORE ADDRESS PUSH1 0x24 DUP3 ADD MSTORE PUSH1 0x44 DUP2 ADD SWAP2 SWAP1 SWAP2 MSTORE SWAP5 SWAP1 PUSH1 0x20 SWAP1 DUP7 SWAP1 PUSH1 0x64 SWAP1 DUP3 SWAP1 DUP6 SWAP1 GAS CALL DUP1 ISZERO PUSH2 0x2B34 JUMPI PUSH2 0x327D JUMPI JUMPDEST POP PUSH2 0x3231 SWAP3 SWAP4 POP PUSH2 0x3217 JUMP JUMPDEST PUSH1 0x20 DUP6 RETURNDATASIZE PUSH1 0x20 GT PUSH2 0x32B4 JUMPI JUMPDEST DUP2 PUSH2 0x3296 PUSH1 0x20 SWAP4 DUP4 PUSH2 0x2C00 JUMP JUMPDEST DUP2 ADD SUB SLT PUSH2 0x168 JUMPI POP PUSH2 0x32AC PUSH2 0x3231 SWAP4 SWAP5 PUSH2 0x303E JUMP JUMPDEST POP DUP4 SWAP3 PUSH2 0x3271 JUMP JUMPDEST RETURNDATASIZE SWAP2 POP PUSH2 0x3289 JUMP JUMPDEST DUP2 MLOAD PUSH1 0x1 PUSH1 0x1 PUSH1 0xA0 SHL SUB AND DUP1 PUSH2 0x3A07 JUMPI POP PUSH2 0x3310 PUSH1 0x40 MLOAD PUSH2 0x32DE PUSH1 0x40 DUP3 PUSH2 0x2C00 JUMP JUMPDEST PUSH1 0x1 DUP2 MSTORE PUSH32 0x3500000000000000000000000000000000000000000000000000000000000000 PUSH1 0x20 DUP3 ADD MSTORE DUP3 CALLVALUE EQ PUSH2 0x3142 JUMP JUMPDEST DUP3 MLOAD SWAP1 DUP2 SUB SWAP1 DUP2 GT PUSH2 0x39F3 JUMPI PUSH1 0xA0 DUP3 ADD DUP1 MLOAD PUSH1 0x3 DUP2 LT ISZERO PUSH2 0x39DF JUMPI PUSH1 0x1 SUB PUSH2 0x3614 JUMPI POP DUP5 PUSH1 0x20 DUP4 ADD SWAP2 PUSH1 0x1 PUSH1 0x1 PUSH1 0xA0 SHL SUB DUP4 MLOAD AND SWAP3 PUSH1 0x20 PUSH1 0x1 PUSH1 0x1 PUSH1 0xA0 SHL SUB PUSH1 0x64 DUP2 DUP9 MLOAD AND SWAP7 PUSH1 0x40 MLOAD SWAP1 PUSH2 0x3363 DUP3 PUSH2 0x2BAC JUMP JUMPDEST DUP2 MSTORE DUP4 DUP2 ADD SWAP8 DUP9 MSTORE DUP7 PUSH1 0x40 DUP3 ADD DUP8 DUP2 MSTORE DUP5 PUSH1 0x2 SLOAD AND SWAP1 DUP6 PUSH1 0x40 MLOAD SWAP12 DUP13 SWAP8 DUP9 SWAP7 PUSH32 0x35D260EC00000000000000000000000000000000000000000000000000000000 DUP9 MSTORE MLOAD AND PUSH1 0x4 DUP8 ADD MSTORE MLOAD AND PUSH1 0x24 DUP6 ADD MSTORE MLOAD PUSH1 0x44 DUP5 ADD MSTORE GAS CALL SWAP4 DUP5 ISZERO PUSH2 0x1DD6 JUMPI DUP4 SWAP5 PUSH2 0x35DD JUMPI JUMPDEST POP PUSH1 0x1 PUSH1 0x1 PUSH1 0xA0 SHL SUB DUP2 MLOAD AND PUSH1 0x1 PUSH1 0x1 PUSH1 0xA0 SHL SUB DUP7 MLOAD AND SWAP5 PUSH1 0x40 MLOAD SWAP2 PUSH2 0x33EE DUP4 PUSH2 0x2B41 JUMP JUMPDEST DUP3 MSTORE PUSH1 0x20 DUP3 ADD SWAP6 DUP7 MSTORE PUSH1 0x40 DUP3 ADD SWAP3 DUP2 DUP5 MSTORE PUSH1 0x60 DUP4 ADD SWAP5 DUP6 MSTORE PUSH1 0x1 PUSH1 0x1 PUSH1 0xA0 SHL SUB DUP2 MLOAD AND DUP1 PUSH2 0x34CC JUMPI JUMPDEST POP POP PUSH1 0x1 PUSH1 0x1 PUSH1 0xA0 SHL SUB PUSH1 0x2 SLOAD AND DUP1 EXTCODESIZE ISZERO PUSH2 0xBFD JUMPI PUSH1 0x1 PUSH1 0x1 PUSH1 0xA0 SHL SUB SWAP5 PUSH1 0x84 SWAP5 DUP7 PUSH1 0x40 MLOAD SWAP10 DUP11 SWAP9 DUP10 SWAP8 PUSH32 0x3D6A7EB400000000000000000000000000000000000000000000000000000000 DUP10 MSTORE MLOAD AND PUSH1 0x4 DUP9 ADD MSTORE MLOAD AND PUSH1 0x24 DUP7 ADD MSTORE MLOAD PUSH1 0x44 DUP6 ADD MSTORE MLOAD PUSH1 0x64 DUP5 ADD MSTORE GAS CALL DUP1 ISZERO PUSH2 0x34C1 JUMPI PUSH2 0x34AC JUMPI JUMPDEST POP PUSH2 0x3231 SWAP3 SWAP4 POP PUSH1 0x1 PUSH1 0x1 PUSH1 0xA0 SHL SUB PUSH1 0x60 DUP2 DUP4 MLOAD AND SWAP4 MLOAD SWAP3 ADD MLOAD AND SWAP2 PUSH2 0x3B09 JUMP JUMPDEST PUSH2 0x34B7 DUP6 DUP1 SWAP3 PUSH2 0x2C00 JUMP JUMPDEST PUSH2 0xE53 JUMPI DUP4 PUSH2 0x348B JUMP JUMPDEST PUSH1 0x40 MLOAD RETURNDATASIZE DUP8 DUP3 RETURNDATACOPY RETURNDATASIZE SWAP1 REVERT JUMPDEST PUSH1 0x40 MLOAD PUSH4 0x23B872DD PUSH1 0xE0 SHL DUP2 MSTORE CALLER PUSH1 0x4 DUP3 ADD MSTORE ADDRESS PUSH1 0x24 DUP3 ADD MSTORE PUSH1 0x44 DUP2 ADD DUP5 SWAP1 MSTORE SWAP1 PUSH1 0x20 SWAP1 DUP3 SWAP1 PUSH1 0x64 SWAP1 DUP3 SWAP1 DUP12 SWAP1 GAS CALL SWAP1 DUP2 ISZERO PUSH2 0xC01 JUMPI DUP4 SWAP2 PUSH2 0x3590 JUMPI JUMPDEST POP SWAP1 MLOAD PUSH1 0x2 SLOAD PUSH1 0x40 MLOAD PUSH4 0x95EA7B3 PUSH1 0xE0 SHL DUP2 MSTORE PUSH1 0x1 PUSH1 0x1 PUSH1 0xA0 SHL SUB SWAP2 DUP3 AND PUSH1 0x4 DUP3 ADD MSTORE PUSH1 0x24 DUP2 ADD SWAP4 SWAP1 SWAP4 MSTORE PUSH1 0x20 SWAP2 DUP4 SWAP2 AND DUP2 DUP10 DUP2 PUSH1 0x44 DUP2 ADD JUMPDEST SUB SWAP3 GAS CALL DUP1 ISZERO PUSH2 0x1DA4 JUMPI PUSH2 0x3557 JUMPI JUMPDEST DUP1 PUSH2 0x3417 JUMP JUMPDEST PUSH1 0x20 DUP2 RETURNDATASIZE PUSH1 0x20 GT PUSH2 0x3588 JUMPI JUMPDEST DUP2 PUSH2 0x3570 PUSH1 0x20 SWAP4 DUP4 PUSH2 0x2C00 JUMP JUMPDEST DUP2 ADD SUB SLT PUSH2 0xBFD JUMPI PUSH2 0x3581 SWAP1 PUSH2 0x303E JUMP JUMPDEST POP CODESIZE PUSH2 0x3551 JUMP JUMPDEST RETURNDATASIZE SWAP2 POP PUSH2 0x3563 JUMP JUMPDEST SWAP1 POP PUSH1 0x20 DUP2 RETURNDATASIZE PUSH1 0x20 GT PUSH2 0x35D5 JUMPI JUMPDEST DUP2 PUSH2 0x35AB PUSH1 0x20 SWAP4 DUP4 PUSH2 0x2C00 JUMP JUMPDEST DUP2 ADD SUB SLT PUSH2 0xC6B JUMPI DUP3 PUSH1 0x1 PUSH1 0x1 PUSH1 0xA0 SHL SUB PUSH2 0x3542 SWAP4 PUSH2 0x35CB PUSH1 0x20 SWAP5 PUSH2 0x303E JUMP JUMPDEST POP SWAP4 POP POP SWAP1 PUSH2 0x3509 JUMP JUMPDEST RETURNDATASIZE SWAP2 POP PUSH2 0x359E JUMP JUMPDEST SWAP3 POP SWAP3 POP PUSH1 0x20 DUP3 RETURNDATASIZE PUSH1 0x20 GT PUSH2 0x360C JUMPI JUMPDEST DUP2 PUSH2 0x35FA PUSH1 0x20 SWAP4 DUP4 PUSH2 0x2C00 JUMP JUMPDEST DUP2 ADD SUB SLT PUSH2 0xDC6 JUMPI DUP7 SWAP2 MLOAD SWAP3 CODESIZE PUSH2 0x33C9 JUMP JUMPDEST RETURNDATASIZE SWAP2 POP PUSH2 0x35ED JUMP JUMPDEST MLOAD PUSH1 0x3 DUP2 LT ISZERO PUSH2 0x39CB JUMPI PUSH1 0x2 EQ PUSH2 0x3631 JUMPI POP PUSH2 0x3231 SWAP3 SWAP4 POP PUSH2 0x3217 JUMP JUMPDEST SWAP3 SWAP2 SWAP1 DUP1 MLOAD PUSH1 0x1 PUSH1 0x1 PUSH1 0xA0 SHL SUB AND SWAP5 PUSH1 0x20 DUP3 ADD SWAP5 DUP6 MLOAD PUSH1 0x1 PUSH1 0x1 PUSH1 0xA0 SHL SUB AND SWAP7 PUSH1 0x80 DUP5 ADD MLOAD SWAP8 PUSH1 0x40 MLOAD SWAP1 PUSH2 0x3664 DUP3 PUSH2 0x2BC8 JUMP JUMPDEST CALLER DUP3 MSTORE PUSH1 0x20 DUP3 ADD SWAP3 DUP4 MSTORE PUSH1 0x40 DUP3 ADD SWAP10 DUP5 DUP12 MSTORE PUSH1 0x60 DUP4 ADD SWAP2 DUP3 MSTORE PUSH1 0x80 DUP4 ADD SWAP1 DUP2 MSTORE PUSH1 0x1 SLOAD PUSH1 0x1 PUSH1 0x1 PUSH1 0xA0 SHL SUB AND SWAP2 PUSH1 0x40 MLOAD SWAP12 DUP13 SWAP6 DUP7 SWAP6 PUSH32 0xF293357B00000000000000000000000000000000000000000000000000000000 DUP8 MSTORE MLOAD PUSH1 0x1 PUSH1 0x1 PUSH1 0xA0 SHL SUB AND PUSH1 0x4 DUP8 ADD MSTORE MLOAD PUSH1 0x1 PUSH1 0x1 PUSH1 0xA0 SHL SUB AND PUSH1 0x24 DUP7 ADD MSTORE MLOAD PUSH1 0x44 DUP6 ADD MSTORE MLOAD PUSH1 0x1 PUSH1 0x1 PUSH1 0xA0 SHL SUB AND PUSH1 0x64 DUP5 ADD MSTORE MLOAD PUSH1 0x84 DUP4 ADD MSTORE GAS SWAP3 PUSH1 0xA4 SWAP2 PUSH1 0x20 SWAP5 STATICCALL SWAP7 DUP8 ISZERO PUSH2 0x1D4 JUMPI DUP3 SWAP8 PUSH2 0x3997 JUMPI JUMPDEST POP PUSH1 0x1 PUSH1 0x1 PUSH1 0xA0 SHL SUB DUP7 MLOAD AND SWAP1 PUSH1 0x1 PUSH1 0x1 PUSH1 0xA0 SHL SUB DUP5 MLOAD AND SWAP8 PUSH1 0xC0 DUP6 ADD MLOAD SWAP1 PUSH1 0x40 MLOAD SWAP2 PUSH1 0xC0 DUP4 ADD DUP4 DUP2 LT PUSH8 0xFFFFFFFFFFFFFFFF DUP3 GT OR PUSH2 0x3983 JUMPI PUSH1 0x40 MSTORE CALLER DUP4 MSTORE PUSH1 0x20 DUP4 ADD SWAP5 DUP6 MSTORE PUSH1 0x40 DUP4 ADD SWAP10 DUP3 DUP12 MSTORE PUSH1 0x60 DUP5 ADD SWAP12 DUP13 MSTORE PUSH1 0x80 DUP5 ADD SWAP5 DUP6 MSTORE PUSH1 0xA0 DUP5 ADD SWAP2 DUP3 MSTORE PUSH1 0x1 PUSH1 0x1 PUSH1 0xA0 SHL SUB DUP2 MLOAD AND DUP1 ISZERO ISZERO DUP1 PUSH2 0x397A JUMPI JUMPDEST PUSH2 0x3869 JUMPI JUMPDEST POP POP PUSH1 0x1 PUSH1 0x1 PUSH1 0xA0 SHL SUB PUSH1 0x1 SLOAD AND SWAP4 DUP5 EXTCODESIZE ISZERO PUSH2 0xC6B JUMPI DUP7 SWAP8 SWAP9 SWAP10 SWAP11 SWAP12 PUSH1 0x40 MLOAD SWAP13 DUP14 SWAP8 DUP9 SWAP7 PUSH32 0x7B4EFCFD00000000000000000000000000000000000000000000000000000000 DUP9 MSTORE MLOAD PUSH1 0x1 PUSH1 0x1 PUSH1 0xA0 SHL SUB AND PUSH1 0x4 DUP9 ADD MSTORE MLOAD PUSH1 0x1 PUSH1 0x1 PUSH1 0xA0 SHL SUB AND PUSH1 0x24 DUP8 ADD MSTORE MLOAD PUSH1 0x44 DUP7 ADD MSTORE MLOAD PUSH1 0x1 PUSH1 0x1 PUSH1 0xA0 SHL SUB AND PUSH1 0x64 DUP6 ADD MSTORE MLOAD PUSH1 0x84 DUP5 ADD MSTORE MLOAD PUSH1 0xA4 DUP4 ADD PUSH2 0x3838 SWAP2 PUSH1 0x60 DUP1 SWAP2 DUP1 MLOAD DUP5 MSTORE PUSH1 0xFF PUSH1 0x20 DUP3 ADD MLOAD AND PUSH1 0x20 DUP6 ADD MSTORE PUSH1 0x40 DUP2 ADD MLOAD PUSH1 0x40 DUP6 ADD MSTORE ADD MLOAD SWAP2 ADD MSTORE JUMP JUMPDEST GAS SWAP3 PUSH2 0x124 SWAP4 CALL SWAP5 DUP6 ISZERO PUSH2 0x2B34 JUMPI PUSH2 0x3231 SWAP5 SWAP6 PUSH2 0x3859 JUMPI JUMPDEST POP DUP5 SWAP4 POP PUSH2 0x3271 JUMP JUMPDEST DUP2 PUSH2 0x3863 SWAP2 PUSH2 0x2C00 JUMP JUMPDEST CODESIZE PUSH2 0x3850 JUMP JUMPDEST PUSH1 0x40 MLOAD PUSH4 0x23B872DD PUSH1 0xE0 SHL DUP2 MSTORE CALLER PUSH1 0x4 DUP3 ADD MSTORE ADDRESS PUSH1 0x24 DUP3 ADD MSTORE PUSH1 0x44 DUP2 ADD DUP6 SWAP1 MSTORE SWAP1 PUSH1 0x20 SWAP1 DUP3 SWAP1 PUSH1 0x64 SWAP1 DUP3 SWAP1 DUP13 SWAP1 GAS CALL DUP1 ISZERO PUSH2 0xC6F JUMPI SWAP1 DUP5 SWAP2 PUSH2 0x392D JUMPI JUMPDEST POP SWAP1 MLOAD PUSH1 0x1 SLOAD PUSH1 0x40 MLOAD PUSH4 0x95EA7B3 PUSH1 0xE0 SHL DUP2 MSTORE PUSH1 0x1 PUSH1 0x1 PUSH1 0xA0 SHL SUB SWAP2 DUP3 AND PUSH1 0x4 DUP3 ADD MSTORE PUSH1 0x24 DUP2 ADD SWAP4 SWAP1 SWAP4 MSTORE PUSH1 0x20 SWAP2 DUP4 SWAP2 AND DUP2 DUP11 DUP2 PUSH1 0x44 DUP2 ADD JUMPDEST SUB SWAP3 GAS CALL DUP1 ISZERO PUSH2 0xC01 JUMPI PUSH2 0x38F4 JUMPI JUMPDEST DUP1 PUSH2 0x3789 JUMP JUMPDEST PUSH1 0x20 DUP2 RETURNDATASIZE PUSH1 0x20 GT PUSH2 0x3925 JUMPI JUMPDEST DUP2 PUSH2 0x390D PUSH1 0x20 SWAP4 DUP4 PUSH2 0x2C00 JUMP JUMPDEST DUP2 ADD SUB SLT PUSH2 0xC6B JUMPI PUSH2 0x391E SWAP1 PUSH2 0x303E JUMP JUMPDEST POP CODESIZE PUSH2 0x38EE JUMP JUMPDEST RETURNDATASIZE SWAP2 POP PUSH2 0x3900 JUMP JUMPDEST SWAP1 POP PUSH1 0x20 DUP2 RETURNDATASIZE PUSH1 0x20 GT PUSH2 0x3972 JUMPI JUMPDEST DUP2 PUSH2 0x3948 PUSH1 0x20 SWAP4 DUP4 PUSH2 0x2C00 JUMP JUMPDEST DUP2 ADD SUB SLT PUSH2 0xC0C JUMPI DUP4 PUSH1 0x1 PUSH1 0x1 PUSH1 0xA0 SHL SUB PUSH2 0x38DF SWAP4 PUSH2 0x3968 PUSH1 0x20 SWAP5 PUSH2 0x303E JUMP JUMPDEST POP SWAP4 POP POP SWAP1 PUSH2 0x38A6 JUMP JUMPDEST RETURNDATASIZE SWAP2 POP PUSH2 0x393B JUMP JUMPDEST POP DUP4 ISZERO ISZERO PUSH2 0x3784 JUMP JUMPDEST PUSH1 0x24 DUP8 PUSH4 0x4E487B71 PUSH1 0xE0 SHL DUP2 MSTORE PUSH1 0x41 PUSH1 0x4 MSTORE REVERT JUMPDEST SWAP1 SWAP7 POP PUSH1 0x20 DUP2 RETURNDATASIZE PUSH1 0x20 GT PUSH2 0x39C3 JUMPI JUMPDEST DUP2 PUSH2 0x39B3 PUSH1 0x20 SWAP4 DUP4 PUSH2 0x2C00 JUMP JUMPDEST DUP2 ADD SUB SLT PUSH2 0x225 JUMPI MLOAD SWAP6 CODESIZE PUSH2 0x370C JUMP JUMPDEST RETURNDATASIZE SWAP2 POP PUSH2 0x39A6 JUMP JUMPDEST PUSH1 0x24 DUP7 PUSH4 0x4E487B71 PUSH1 0xE0 SHL DUP2 MSTORE PUSH1 0x21 PUSH1 0x4 MSTORE REVERT JUMPDEST PUSH1 0x24 DUP8 PUSH4 0x4E487B71 PUSH1 0xE0 SHL DUP2 MSTORE PUSH1 0x21 PUSH1 0x4 MSTORE REVERT JUMPDEST PUSH1 0x24 DUP6 PUSH4 0x4E487B71 PUSH1 0xE0 SHL DUP2 MSTORE PUSH1 0x11 PUSH1 0x4 MSTORE REVERT JUMPDEST PUSH1 0x40 MLOAD PUSH4 0x23B872DD PUSH1 0xE0 SHL DUP2 MSTORE CALLER PUSH1 0x4 DUP3 ADD MSTORE ADDRESS PUSH1 0x24 DUP3 ADD MSTORE PUSH1 0x44 DUP2 ADD DUP4 SWAP1 MSTORE SWAP1 PUSH1 0x20 SWAP1 DUP3 SWAP1 PUSH1 0x64 SWAP1 DUP3 SWAP1 DUP11 SWAP1 GAS CALL DUP1 ISZERO PUSH2 0x1DA4 JUMPI PUSH2 0x3A47 JUMPI JUMPDEST POP PUSH2 0x3310 JUMP JUMPDEST PUSH1 0x20 DUP2 RETURNDATASIZE PUSH1 0x20 GT PUSH2 0x3A78 JUMPI JUMPDEST DUP2 PUSH2 0x3A60 PUSH1 0x20 SWAP4 DUP4 PUSH2 0x2C00 JUMP JUMPDEST DUP2 ADD SUB SLT PUSH2 0xBFD JUMPI PUSH2 0x3A71 SWAP1 PUSH2 0x303E JUMP JUMPDEST POP CODESIZE PUSH2 0x3A41 JUMP JUMPDEST RETURNDATASIZE SWAP2 POP PUSH2 0x3A53 JUMP JUMPDEST PUSH1 0x20 PUSH1 0x24 SWAP2 PUSH1 0x40 MLOAD SWAP3 DUP4 DUP1 SWAP3 PUSH32 0x70A0823100000000000000000000000000000000000000000000000000000000 DUP3 MSTORE CALLER PUSH1 0x4 DUP4 ADD MSTORE GAS STATICCALL SWAP1 DUP2 ISZERO PUSH2 0x3AFE JUMPI DUP5 SWAP2 PUSH2 0x3ACC JUMPI JUMPDEST POP SWAP1 PUSH2 0x31A9 JUMP JUMPDEST SWAP1 POP PUSH1 0x20 DUP2 RETURNDATASIZE PUSH1 0x20 GT PUSH2 0x3AF6 JUMPI JUMPDEST DUP2 PUSH2 0x3AE7 PUSH1 0x20 SWAP4 DUP4 PUSH2 0x2C00 JUMP JUMPDEST DUP2 ADD SUB SLT PUSH2 0xE53 JUMPI MLOAD CODESIZE PUSH2 0x3AC5 JUMP JUMPDEST RETURNDATASIZE SWAP2 POP PUSH2 0x3ADA JUMP JUMPDEST PUSH1 0x40 MLOAD RETURNDATASIZE DUP7 DUP3 RETURNDATACOPY RETURNDATASIZE SWAP1 REVERT JUMPDEST PUSH1 0x1 PUSH1 0x1 PUSH1 0xA0 SHL SUB AND SWAP2 SWAP1 DUP3 PUSH2 0x3B1E JUMPI POP POP POP JUMP JUMPDEST PUSH1 0x40 MLOAD PUSH4 0x95EA7B3 PUSH1 0xE0 SHL DUP2 MSTORE PUSH1 0x1 PUSH1 0x1 PUSH1 0xA0 SHL SUB SWAP3 SWAP1 SWAP3 AND PUSH1 0x4 DUP4 ADD MSTORE PUSH1 0x24 DUP3 ADD MSTORE SWAP1 PUSH1 0x20 SWAP1 DUP3 SWAP1 PUSH1 0x44 SWAP1 DUP3 SWAP1 PUSH1 0x0 SWAP1 GAS CALL DUP1 ISZERO PUSH2 0x3B93 JUMPI PUSH2 0x3B5E JUMPI POP JUMP JUMPDEST PUSH1 0x20 DUP2 RETURNDATASIZE PUSH1 0x20 GT PUSH2 0x3B8B JUMPI JUMPDEST DUP2 PUSH2 0x3B77 PUSH1 0x20 SWAP4 DUP4 PUSH2 0x2C00 JUMP JUMPDEST DUP2 ADD SUB SLT PUSH2 0xDC6 JUMPI PUSH2 0x3B88 SWAP1 PUSH2 0x303E JUMP JUMPDEST POP JUMP JUMPDEST RETURNDATASIZE SWAP2 POP PUSH2 0x3B6A JUMP JUMPDEST PUSH1 0x40 MLOAD RETURNDATASIZE PUSH1 0x0 DUP3 RETURNDATACOPY RETURNDATASIZE SWAP1 REVERT INVALID LOG2 PUSH5 0x6970667358 0x22 SLT KECCAK256 0xA9 0xD9 PUSH22 0x9F6B37E72E08C73AAC04EDF54FED4477B6FEEF73C267 SWAP3 0x29 GT PUSH4 0xA382CE64 PUSH20 0x6F6C634300081C00330000000000000000000000 "
        },
        "methodIdentifiers": {
          "cancelRecurrentTransaction((bytes32))": "1fd9b2bf",
          "fulfillOneTimeTransaction((bytes32,address,uint256,uint8,(uint256,uint8,bytes32,bytes32)))": "9915b964",
          "fulfillRecurrentTransaction((bytes32,address,uint256,uint8,(uint256,uint8,bytes32,bytes32)))": "6ba5762b",
          "getAdjustTokenAmount((address,address,address,uint256))": "0bd0c23e",
          "mintOneTimeTransactionReceipt((address,bytes32,string))": "5e1d56a9",
          "mintRecurrentTransactionReceipt((address,bytes32,string))": "e2f999a5",
          "oneTimeTransaction((address[],address,uint256[],address,address,string,(uint8,string),uint256,uint8,(uint256,uint8,bytes32,bytes32)))": "d571f409",
          "owner()": "8da5cb5b",
          "recurrentTransaction((address,address,bytes32,string,(uint8,string),uint256,uint8,(uint256,uint8,bytes32,bytes32)))": "a9e3aabe",
          "renounceOwnership()": "715018a6",
          "setAave(address)": "d6b5891e",
          "setOneTimeTransaction(address)": "2ad6c02f",
          "setRecurentTransaction(address)": "535c1f7f",
          "setUniswap(address)": "8efecdda",
          "transferOwnership(address)": "f2fde38b"
        }
      }
    }
  }
}