{
  "contracts/modules/UniswapV2.sol": {
    "UniswapV2": {
      "abi": [
        {
          "inputs": [
            {
              "internalType": "address",
              "name": "router_",
              "type": "address"
            }
          ],
          "stateMutability": "nonpayable",
          "type": "constructor"
        },
        {
          "inputs": [
            {
              "components": [
                {
                  "internalType": "address",
                  "name": "tokenIn",
                  "type": "address"
                },
                {
                  "internalType": "address",
                  "name": "tokenOut",
                  "type": "address"
                },
                {
                  "internalType": "uint256",
                  "name": "amountInMax",
                  "type": "uint256"
                },
                {
                  "internalType": "uint256",
                  "name": "amountOut",
                  "type": "uint256"
                }
              ],
              "internalType": "struct Params.ExecuteSwap",
              "name": "params",
              "type": "tuple"
            }
          ],
          "name": "execute",
          "outputs": [],
          "stateMutability": "payable",
          "type": "function"
        },
        {
          "inputs": [
            {
              "components": [
                {
                  "internalType": "address",
                  "name": "tokenIn",
                  "type": "address"
                },
                {
                  "internalType": "address",
                  "name": "tokenOut",
                  "type": "address"
                },
                {
                  "internalType": "uint256",
                  "name": "amountOut",
                  "type": "uint256"
                },
                {
                  "internalType": "uint256",
                  "name": "slippage",
                  "type": "uint256"
                }
              ],
              "internalType": "struct Params.RequiredAmountIn",
              "name": "params",
              "type": "tuple"
            }
          ],
          "name": "requiredAmountIn",
          "outputs": [
            {
              "internalType": "uint256",
              "name": "amountIn",
              "type": "uint256"
            }
          ],
          "stateMutability": "view",
          "type": "function"
        },
        {
          "stateMutability": "payable",
          "type": "receive"
        }
      ],
      "evm": {
        "bytecode": {
          "linkReferences": {},
          "object": "60a03461008e57601f610b4638819003918201601f19168301916001600160401b038311848410176100935780849260209460405283398101031261008e57516001600160a01b0381169081900361008e57608052604051610a9c90816100aa8239608051818181609c01528181610115015281816101b5015281816104460152818161063f01526108060152f35b600080fd5b634e487b7160e01b600052604160045260246000fdfe6080604052600436101561001b575b361561001957600080fd5b005b60003560e01c80633d6a7eb4146102d25763dd016b790361000e57346102cd5760803660031901126102cd5761005036610327565b604051606061005f81836102ef565b60028252601f19810136602084013782516001600160a01b0316806102c857506040516315ab88c960e31b81526020816004816001600160a01b037f0000000000000000000000000000000000000000000000000000000000000000165afa908115610262576000916102a9575b505b6001600160a01b036100e084610920565b9116905260208301516001600160a01b03168061029d57506040516315ab88c960e31b81526020816004816001600160a01b037f0000000000000000000000000000000000000000000000000000000000000000165afa928315610262576101a993600092839161026e575b505b6001600160a01b0361015f83610943565b91169052604085015160405194859283927f1f00ca7400000000000000000000000000000000000000000000000000000000845260048401526040602484015260448301906109d9565b03816001600160a01b037f0000000000000000000000000000000000000000000000000000000000000000165afa9182156102625760009261023d575b506101f082610920565b519201519182810292818404149015171561022757610210606491610920565b519104810180911161022757602090604051908152f35b634e487b7160e01b600052601160045260246000fd5b61025b9192503d806000833e61025381836102ef565b810190610953565b90386101e6565b6040513d6000823e3d90fd5b610290915060203d602011610296575b61028881836102ef565b810190610901565b3861014c565b503d61027e565b6101a99260009161014e565b6102c2915060203d6020116102965761028881836102ef565b386100cd565b6100cf565b600080fd5b60803660031901126102cd576100196102ea36610327565b610391565b90601f8019910116810190811067ffffffffffffffff82111761031157604052565b634e487b7160e01b600052604160045260246000fd5b60809060031901126102cd57604051906080820182811067ffffffffffffffff82111761031157604052816004356001600160a01b03811681036102cd5781526024356001600160a01b03811681036102cd57602082015260443560408201526060606435910152565b6001600160a01b0381511660208201906001600160a01b038251168082146000146103bc5750505050565b816105cc5750506001600160a01b0360609151169101516040516040810181811067ffffffffffffffff82111761031157604052600181527f3300000000000000000000000000000000000000000000000000000000000000602082015234156105575750604051906104306060836102ef565b6002825260403660208401376001600160a01b037f000000000000000000000000000000000000000000000000000000000000000016926040516315ab88c960e31b8152602081600481885afa90811561026257600091610538575b506001600160a01b0361049e85610920565b911690526104ab83610943565b5260014201928342116102275760009261050292604051958694859384937ffb3bdb4100000000000000000000000000000000000000000000000000000000855260048501526080602485015260848401906109d9565b903360448401526064830152039134905af18015610262576105215750565b610535903d806000833e61025381836102ef565b50565b610551915060203d6020116102965761028881836102ef565b3861048c565b604051907f08c379a0000000000000000000000000000000000000000000000000000000008252602060048301528181519182602483015260005b8381106105b45750508160006044809484010152601f80199101168101030190fd5b60208282018101516044878401015285935001610592565b90929150806107aa5750805160408083015160609093015190516323b872dd60e01b8152336004820152306024820152604481018490526001600160a01b039092169350906020816064816000885af180156102625761078d575b5060405163095ea7b360e01b81526001600160a01b037f0000000000000000000000000000000000000000000000000000000000000000166004820181905260248201849052906020816044816000895af1801561026257610760575b50604051936106946060866102ef565b6002855260403660208701376106a985610920565b526040516315ab88c960e31b8152602081600481855afa90811561026257600091610741575b506001600160a01b036106e186610943565b9116905260014201938442116102275760008094610730604051978896879586947f4a25d94a000000000000000000000000000000000000000000000000000000008652339260048701610a2e565b03925af18015610262576105215750565b61075a915060203d6020116102965761028881836102ef565b386106cf565b6107819060203d602011610786575b61077981836102ef565b810190610a16565b610684565b503d61076f565b6107a59060203d6020116107865761077981836102ef565b610627565b60408281015160609093015190516323b872dd60e01b8152336004820152306024820152604481018490529091906020816064816000895af18015610262576108e4575b5060405163095ea7b360e01b81526001600160a01b037f0000000000000000000000000000000000000000000000000000000000000000166004820181905260248201859052919060208160448160008a5af18015610262576108c7575b506040519461085c6060876102ef565b60028652604036602088013761087186610920565b5261087b85610943565b5260014201938442116102275760008094610730604051978896879586947f8803dbee000000000000000000000000000000000000000000000000000000008652339260048701610a2e565b6108df9060203d6020116107865761077981836102ef565b61084c565b6108fc9060203d6020116107865761077981836102ef565b6107ee565b908160209103126102cd57516001600160a01b03811681036102cd5790565b80511561092d5760200190565b634e487b7160e01b600052603260045260246000fd5b80516001101561092d5760400190565b6020818303126102cd5780519067ffffffffffffffff82116102cd57019080601f830112156102cd5781519167ffffffffffffffff8311610311578260051b9060208201936109a560405195866102ef565b84526020808501928201019283116102cd57602001905b8282106109c95750505090565b81518152602091820191016109bc565b906020808351928381520192019060005b8181106109f75750505090565b82516001600160a01b03168452602093840193909201916001016109ea565b908160209103126102cd575180151581036102cd5790565b91608093610a5b916001600160a01b0393989796988552602085015260a0604085015260a08401906109d9565b95166060820152015256fea2646970667358221220873ed81e9aff2a6e369ae887bbfa43d8a60e99ce6230b46900080d9a50e67fa664736f6c634300081c0033",
          "opcodes": "PUSH1 0xA0 CALLVALUE PUSH2 0x8E JUMPI PUSH1 0x1F PUSH2 0xB46 CODESIZE DUP2 SWAP1 SUB SWAP2 DUP3 ADD PUSH1 0x1F NOT AND DUP4 ADD SWAP2 PUSH1 0x1 PUSH1 0x1 PUSH1 0x40 SHL SUB DUP4 GT DUP5 DUP5 LT OR PUSH2 0x93 JUMPI DUP1 DUP5 SWAP3 PUSH1 0x20 SWAP5 PUSH1 0x40 MSTORE DUP4 CODECOPY DUP2 ADD SUB SLT PUSH2 0x8E JUMPI MLOAD PUSH1 0x1 PUSH1 0x1 PUSH1 0xA0 SHL SUB DUP2 AND SWAP1 DUP2 SWAP1 SUB PUSH2 0x8E JUMPI PUSH1 0x80 MSTORE PUSH1 0x40 MLOAD PUSH2 0xA9C SWAP1 DUP2 PUSH2 0xAA DUP3 CODECOPY PUSH1 0x80 MLOAD DUP2 DUP2 DUP2 PUSH1 0x9C ADD MSTORE DUP2 DUP2 PUSH2 0x115 ADD MSTORE DUP2 DUP2 PUSH2 0x1B5 ADD MSTORE DUP2 DUP2 PUSH2 0x446 ADD MSTORE DUP2 DUP2 PUSH2 0x63F ADD MSTORE PUSH2 0x806 ADD MSTORE RETURN JUMPDEST PUSH1 0x0 DUP1 REVERT JUMPDEST PUSH4 0x4E487B71 PUSH1 0xE0 SHL PUSH1 0x0 MSTORE PUSH1 0x41 PUSH1 0x4 MSTORE PUSH1 0x24 PUSH1 0x0 REVERT INVALID PUSH1 0x80 PUSH1 0x40 MSTORE PUSH1 0x4 CALLDATASIZE LT ISZERO PUSH2 0x1B JUMPI JUMPDEST CALLDATASIZE ISZERO PUSH2 0x19 JUMPI PUSH1 0x0 DUP1 REVERT JUMPDEST STOP JUMPDEST PUSH1 0x0 CALLDATALOAD PUSH1 0xE0 SHR DUP1 PUSH4 0x3D6A7EB4 EQ PUSH2 0x2D2 JUMPI PUSH4 0xDD016B79 SUB PUSH2 0xE JUMPI CALLVALUE PUSH2 0x2CD JUMPI PUSH1 0x80 CALLDATASIZE PUSH1 0x3 NOT ADD SLT PUSH2 0x2CD JUMPI PUSH2 0x50 CALLDATASIZE PUSH2 0x327 JUMP JUMPDEST PUSH1 0x40 MLOAD PUSH1 0x60 PUSH2 0x5F DUP2 DUP4 PUSH2 0x2EF JUMP JUMPDEST PUSH1 0x2 DUP3 MSTORE PUSH1 0x1F NOT DUP2 ADD CALLDATASIZE PUSH1 0x20 DUP5 ADD CALLDATACOPY DUP3 MLOAD PUSH1 0x1 PUSH1 0x1 PUSH1 0xA0 SHL SUB AND DUP1 PUSH2 0x2C8 JUMPI POP PUSH1 0x40 MLOAD PUSH4 0x15AB88C9 PUSH1 0xE3 SHL DUP2 MSTORE PUSH1 0x20 DUP2 PUSH1 0x4 DUP2 PUSH1 0x1 PUSH1 0x1 PUSH1 0xA0 SHL SUB PUSH32 0x0 AND GAS STATICCALL SWAP1 DUP2 ISZERO PUSH2 0x262 JUMPI PUSH1 0x0 SWAP2 PUSH2 0x2A9 JUMPI JUMPDEST POP JUMPDEST PUSH1 0x1 PUSH1 0x1 PUSH1 0xA0 SHL SUB PUSH2 0xE0 DUP5 PUSH2 0x920 JUMP JUMPDEST SWAP2 AND SWAP1 MSTORE PUSH1 0x20 DUP4 ADD MLOAD PUSH1 0x1 PUSH1 0x1 PUSH1 0xA0 SHL SUB AND DUP1 PUSH2 0x29D JUMPI POP PUSH1 0x40 MLOAD PUSH4 0x15AB88C9 PUSH1 0xE3 SHL DUP2 MSTORE PUSH1 0x20 DUP2 PUSH1 0x4 DUP2 PUSH1 0x1 PUSH1 0x1 PUSH1 0xA0 SHL SUB PUSH32 0x0 AND GAS STATICCALL SWAP3 DUP4 ISZERO PUSH2 0x262 JUMPI PUSH2 0x1A9 SWAP4 PUSH1 0x0 SWAP3 DUP4 SWAP2 PUSH2 0x26E JUMPI JUMPDEST POP JUMPDEST PUSH1 0x1 PUSH1 0x1 PUSH1 0xA0 SHL SUB PUSH2 0x15F DUP4 PUSH2 0x943 JUMP JUMPDEST SWAP2 AND SWAP1 MSTORE PUSH1 0x40 DUP6 ADD MLOAD PUSH1 0x40 MLOAD SWAP5 DUP6 SWAP3 DUP4 SWAP3 PUSH32 0x1F00CA7400000000000000000000000000000000000000000000000000000000 DUP5 MSTORE PUSH1 0x4 DUP5 ADD MSTORE PUSH1 0x40 PUSH1 0x24 DUP5 ADD MSTORE PUSH1 0x44 DUP4 ADD SWAP1 PUSH2 0x9D9 JUMP JUMPDEST SUB DUP2 PUSH1 0x1 PUSH1 0x1 PUSH1 0xA0 SHL SUB PUSH32 0x0 AND GAS STATICCALL SWAP2 DUP3 ISZERO PUSH2 0x262 JUMPI PUSH1 0x0 SWAP3 PUSH2 0x23D JUMPI JUMPDEST POP PUSH2 0x1F0 DUP3 PUSH2 0x920 JUMP JUMPDEST MLOAD SWAP3 ADD MLOAD SWAP2 DUP3 DUP2 MUL SWAP3 DUP2 DUP5 DIV EQ SWAP1 ISZERO OR ISZERO PUSH2 0x227 JUMPI PUSH2 0x210 PUSH1 0x64 SWAP2 PUSH2 0x920 JUMP JUMPDEST MLOAD SWAP2 DIV DUP2 ADD DUP1 SWAP2 GT PUSH2 0x227 JUMPI PUSH1 0x20 SWAP1 PUSH1 0x40 MLOAD SWAP1 DUP2 MSTORE RETURN JUMPDEST PUSH4 0x4E487B71 PUSH1 0xE0 SHL PUSH1 0x0 MSTORE PUSH1 0x11 PUSH1 0x4 MSTORE PUSH1 0x24 PUSH1 0x0 REVERT JUMPDEST PUSH2 0x25B SWAP2 SWAP3 POP RETURNDATASIZE DUP1 PUSH1 0x0 DUP4 RETURNDATACOPY PUSH2 0x253 DUP2 DUP4 PUSH2 0x2EF JUMP JUMPDEST DUP2 ADD SWAP1 PUSH2 0x953 JUMP JUMPDEST SWAP1 CODESIZE PUSH2 0x1E6 JUMP JUMPDEST PUSH1 0x40 MLOAD RETURNDATASIZE PUSH1 0x0 DUP3 RETURNDATACOPY RETURNDATASIZE SWAP1 REVERT JUMPDEST PUSH2 0x290 SWAP2 POP PUSH1 0x20 RETURNDATASIZE PUSH1 0x20 GT PUSH2 0x296 JUMPI JUMPDEST PUSH2 0x288 DUP2 DUP4 PUSH2 0x2EF JUMP JUMPDEST DUP2 ADD SWAP1 PUSH2 0x901 JUMP JUMPDEST CODESIZE PUSH2 0x14C JUMP JUMPDEST POP RETURNDATASIZE PUSH2 0x27E JUMP JUMPDEST PUSH2 0x1A9 SWAP3 PUSH1 0x0 SWAP2 PUSH2 0x14E JUMP JUMPDEST PUSH2 0x2C2 SWAP2 POP PUSH1 0x20 RETURNDATASIZE PUSH1 0x20 GT PUSH2 0x296 JUMPI PUSH2 0x288 DUP2 DUP4 PUSH2 0x2EF JUMP JUMPDEST CODESIZE PUSH2 0xCD JUMP JUMPDEST PUSH2 0xCF JUMP JUMPDEST PUSH1 0x0 DUP1 REVERT JUMPDEST PUSH1 0x80 CALLDATASIZE PUSH1 0x3 NOT ADD SLT PUSH2 0x2CD JUMPI PUSH2 0x19 PUSH2 0x2EA CALLDATASIZE PUSH2 0x327 JUMP JUMPDEST PUSH2 0x391 JUMP JUMPDEST SWAP1 PUSH1 0x1F DUP1 NOT SWAP2 ADD AND DUP2 ADD SWAP1 DUP2 LT PUSH8 0xFFFFFFFFFFFFFFFF DUP3 GT OR PUSH2 0x311 JUMPI PUSH1 0x40 MSTORE JUMP JUMPDEST PUSH4 0x4E487B71 PUSH1 0xE0 SHL PUSH1 0x0 MSTORE PUSH1 0x41 PUSH1 0x4 MSTORE PUSH1 0x24 PUSH1 0x0 REVERT JUMPDEST PUSH1 0x80 SWAP1 PUSH1 0x3 NOT ADD SLT PUSH2 0x2CD JUMPI PUSH1 0x40 MLOAD SWAP1 PUSH1 0x80 DUP3 ADD DUP3 DUP2 LT PUSH8 0xFFFFFFFFFFFFFFFF DUP3 GT OR PUSH2 0x311 JUMPI PUSH1 0x40 MSTORE DUP2 PUSH1 0x4 CALLDATALOAD PUSH1 0x1 PUSH1 0x1 PUSH1 0xA0 SHL SUB DUP2 AND DUP2 SUB PUSH2 0x2CD JUMPI DUP2 MSTORE PUSH1 0x24 CALLDATALOAD PUSH1 0x1 PUSH1 0x1 PUSH1 0xA0 SHL SUB DUP2 AND DUP2 SUB PUSH2 0x2CD JUMPI PUSH1 0x20 DUP3 ADD MSTORE PUSH1 0x44 CALLDATALOAD PUSH1 0x40 DUP3 ADD MSTORE PUSH1 0x60 PUSH1 0x64 CALLDATALOAD SWAP2 ADD MSTORE JUMP JUMPDEST PUSH1 0x1 PUSH1 0x1 PUSH1 0xA0 SHL SUB DUP2 MLOAD AND PUSH1 0x20 DUP3 ADD SWAP1 PUSH1 0x1 PUSH1 0x1 PUSH1 0xA0 SHL SUB DUP3 MLOAD AND DUP1 DUP3 EQ PUSH1 0x0 EQ PUSH2 0x3BC JUMPI POP POP POP POP JUMP JUMPDEST DUP2 PUSH2 0x5CC JUMPI POP POP PUSH1 0x1 PUSH1 0x1 PUSH1 0xA0 SHL SUB PUSH1 0x60 SWAP2 MLOAD AND SWAP2 ADD MLOAD PUSH1 0x40 MLOAD PUSH1 0x40 DUP2 ADD DUP2 DUP2 LT PUSH8 0xFFFFFFFFFFFFFFFF DUP3 GT OR PUSH2 0x311 JUMPI PUSH1 0x40 MSTORE PUSH1 0x1 DUP2 MSTORE PUSH32 0x3300000000000000000000000000000000000000000000000000000000000000 PUSH1 0x20 DUP3 ADD MSTORE CALLVALUE ISZERO PUSH2 0x557 JUMPI POP PUSH1 0x40 MLOAD SWAP1 PUSH2 0x430 PUSH1 0x60 DUP4 PUSH2 0x2EF JUMP JUMPDEST PUSH1 0x2 DUP3 MSTORE PUSH1 0x40 CALLDATASIZE PUSH1 0x20 DUP5 ADD CALLDATACOPY PUSH1 0x1 PUSH1 0x1 PUSH1 0xA0 SHL SUB PUSH32 0x0 AND SWAP3 PUSH1 0x40 MLOAD PUSH4 0x15AB88C9 PUSH1 0xE3 SHL DUP2 MSTORE PUSH1 0x20 DUP2 PUSH1 0x4 DUP2 DUP9 GAS STATICCALL SWAP1 DUP2 ISZERO PUSH2 0x262 JUMPI PUSH1 0x0 SWAP2 PUSH2 0x538 JUMPI JUMPDEST POP PUSH1 0x1 PUSH1 0x1 PUSH1 0xA0 SHL SUB PUSH2 0x49E DUP6 PUSH2 0x920 JUMP JUMPDEST SWAP2 AND SWAP1 MSTORE PUSH2 0x4AB DUP4 PUSH2 0x943 JUMP JUMPDEST MSTORE PUSH1 0x1 TIMESTAMP ADD SWAP3 DUP4 TIMESTAMP GT PUSH2 0x227 JUMPI PUSH1 0x0 SWAP3 PUSH2 0x502 SWAP3 PUSH1 0x40 MLOAD SWAP6 DUP7 SWAP5 DUP6 SWAP4 DUP5 SWAP4 PUSH32 0xFB3BDB4100000000000000000000000000000000000000000000000000000000 DUP6 MSTORE PUSH1 0x4 DUP6 ADD MSTORE PUSH1 0x80 PUSH1 0x24 DUP6 ADD MSTORE PUSH1 0x84 DUP5 ADD SWAP1 PUSH2 0x9D9 JUMP JUMPDEST SWAP1 CALLER PUSH1 0x44 DUP5 ADD MSTORE PUSH1 0x64 DUP4 ADD MSTORE SUB SWAP2 CALLVALUE SWAP1 GAS CALL DUP1 ISZERO PUSH2 0x262 JUMPI PUSH2 0x521 JUMPI POP JUMP JUMPDEST PUSH2 0x535 SWAP1 RETURNDATASIZE DUP1 PUSH1 0x0 DUP4 RETURNDATACOPY PUSH2 0x253 DUP2 DUP4 PUSH2 0x2EF JUMP JUMPDEST POP JUMP JUMPDEST PUSH2 0x551 SWAP2 POP PUSH1 0x20 RETURNDATASIZE PUSH1 0x20 GT PUSH2 0x296 JUMPI PUSH2 0x288 DUP2 DUP4 PUSH2 0x2EF JUMP JUMPDEST CODESIZE PUSH2 0x48C JUMP JUMPDEST PUSH1 0x40 MLOAD SWAP1 PUSH32 0x8C379A000000000000000000000000000000000000000000000000000000000 DUP3 MSTORE PUSH1 0x20 PUSH1 0x4 DUP4 ADD MSTORE DUP2 DUP2 MLOAD SWAP2 DUP3 PUSH1 0x24 DUP4 ADD MSTORE PUSH1 0x0 JUMPDEST DUP4 DUP2 LT PUSH2 0x5B4 JUMPI POP POP DUP2 PUSH1 0x0 PUSH1 0x44 DUP1 SWAP5 DUP5 ADD ADD MSTORE PUSH1 0x1F DUP1 NOT SWAP2 ADD AND DUP2 ADD SUB ADD SWAP1 REVERT JUMPDEST PUSH1 0x20 DUP3 DUP3 ADD DUP2 ADD MLOAD PUSH1 0x44 DUP8 DUP5 ADD ADD MSTORE DUP6 SWAP4 POP ADD PUSH2 0x592 JUMP JUMPDEST SWAP1 SWAP3 SWAP2 POP DUP1 PUSH2 0x7AA JUMPI POP DUP1 MLOAD PUSH1 0x40 DUP1 DUP4 ADD MLOAD PUSH1 0x60 SWAP1 SWAP4 ADD MLOAD SWAP1 MLOAD PUSH4 0x23B872DD PUSH1 0xE0 SHL DUP2 MSTORE CALLER PUSH1 0x4 DUP3 ADD MSTORE ADDRESS PUSH1 0x24 DUP3 ADD MSTORE PUSH1 0x44 DUP2 ADD DUP5 SWAP1 MSTORE PUSH1 0x1 PUSH1 0x1 PUSH1 0xA0 SHL SUB SWAP1 SWAP3 AND SWAP4 POP SWAP1 PUSH1 0x20 DUP2 PUSH1 0x64 DUP2 PUSH1 0x0 DUP9 GAS CALL DUP1 ISZERO PUSH2 0x262 JUMPI PUSH2 0x78D JUMPI JUMPDEST POP PUSH1 0x40 MLOAD PUSH4 0x95EA7B3 PUSH1 0xE0 SHL DUP2 MSTORE PUSH1 0x1 PUSH1 0x1 PUSH1 0xA0 SHL SUB PUSH32 0x0 AND PUSH1 0x4 DUP3 ADD DUP2 SWAP1 MSTORE PUSH1 0x24 DUP3 ADD DUP5 SWAP1 MSTORE SWAP1 PUSH1 0x20 DUP2 PUSH1 0x44 DUP2 PUSH1 0x0 DUP10 GAS CALL DUP1 ISZERO PUSH2 0x262 JUMPI PUSH2 0x760 JUMPI JUMPDEST POP PUSH1 0x40 MLOAD SWAP4 PUSH2 0x694 PUSH1 0x60 DUP7 PUSH2 0x2EF JUMP JUMPDEST PUSH1 0x2 DUP6 MSTORE PUSH1 0x40 CALLDATASIZE PUSH1 0x20 DUP8 ADD CALLDATACOPY PUSH2 0x6A9 DUP6 PUSH2 0x920 JUMP JUMPDEST MSTORE PUSH1 0x40 MLOAD PUSH4 0x15AB88C9 PUSH1 0xE3 SHL DUP2 MSTORE PUSH1 0x20 DUP2 PUSH1 0x4 DUP2 DUP6 GAS STATICCALL SWAP1 DUP2 ISZERO PUSH2 0x262 JUMPI PUSH1 0x0 SWAP2 PUSH2 0x741 JUMPI JUMPDEST POP PUSH1 0x1 PUSH1 0x1 PUSH1 0xA0 SHL SUB PUSH2 0x6E1 DUP7 PUSH2 0x943 JUMP JUMPDEST SWAP2 AND SWAP1 MSTORE PUSH1 0x1 TIMESTAMP ADD SWAP4 DUP5 TIMESTAMP GT PUSH2 0x227 JUMPI PUSH1 0x0 DUP1 SWAP5 PUSH2 0x730 PUSH1 0x40 MLOAD SWAP8 DUP9 SWAP7 DUP8 SWAP6 DUP7 SWAP5 PUSH32 0x4A25D94A00000000000000000000000000000000000000000000000000000000 DUP7 MSTORE CALLER SWAP3 PUSH1 0x4 DUP8 ADD PUSH2 0xA2E JUMP JUMPDEST SUB SWAP3 GAS CALL DUP1 ISZERO PUSH2 0x262 JUMPI PUSH2 0x521 JUMPI POP JUMP JUMPDEST PUSH2 0x75A SWAP2 POP PUSH1 0x20 RETURNDATASIZE PUSH1 0x20 GT PUSH2 0x296 JUMPI PUSH2 0x288 DUP2 DUP4 PUSH2 0x2EF JUMP JUMPDEST CODESIZE PUSH2 0x6CF JUMP JUMPDEST PUSH2 0x781 SWAP1 PUSH1 0x20 RETURNDATASIZE PUSH1 0x20 GT PUSH2 0x786 JUMPI JUMPDEST PUSH2 0x779 DUP2 DUP4 PUSH2 0x2EF JUMP JUMPDEST DUP2 ADD SWAP1 PUSH2 0xA16 JUMP JUMPDEST PUSH2 0x684 JUMP JUMPDEST POP RETURNDATASIZE PUSH2 0x76F JUMP JUMPDEST PUSH2 0x7A5 SWAP1 PUSH1 0x20 RETURNDATASIZE PUSH1 0x20 GT PUSH2 0x786 JUMPI PUSH2 0x779 DUP2 DUP4 PUSH2 0x2EF JUMP JUMPDEST PUSH2 0x627 JUMP JUMPDEST PUSH1 0x40 DUP3 DUP2 ADD MLOAD PUSH1 0x60 SWAP1 SWAP4 ADD MLOAD SWAP1 MLOAD PUSH4 0x23B872DD PUSH1 0xE0 SHL DUP2 MSTORE CALLER PUSH1 0x4 DUP3 ADD MSTORE ADDRESS PUSH1 0x24 DUP3 ADD MSTORE PUSH1 0x44 DUP2 ADD DUP5 SWAP1 MSTORE SWAP1 SWAP2 SWAP1 PUSH1 0x20 DUP2 PUSH1 0x64 DUP2 PUSH1 0x0 DUP10 GAS CALL DUP1 ISZERO PUSH2 0x262 JUMPI PUSH2 0x8E4 JUMPI JUMPDEST POP PUSH1 0x40 MLOAD PUSH4 0x95EA7B3 PUSH1 0xE0 SHL DUP2 MSTORE PUSH1 0x1 PUSH1 0x1 PUSH1 0xA0 SHL SUB PUSH32 0x0 AND PUSH1 0x4 DUP3 ADD DUP2 SWAP1 MSTORE PUSH1 0x24 DUP3 ADD DUP6 SWAP1 MSTORE SWAP2 SWAP1 PUSH1 0x20 DUP2 PUSH1 0x44 DUP2 PUSH1 0x0 DUP11 GAS CALL DUP1 ISZERO PUSH2 0x262 JUMPI PUSH2 0x8C7 JUMPI JUMPDEST POP PUSH1 0x40 MLOAD SWAP5 PUSH2 0x85C PUSH1 0x60 DUP8 PUSH2 0x2EF JUMP JUMPDEST PUSH1 0x2 DUP7 MSTORE PUSH1 0x40 CALLDATASIZE PUSH1 0x20 DUP9 ADD CALLDATACOPY PUSH2 0x871 DUP7 PUSH2 0x920 JUMP JUMPDEST MSTORE PUSH2 0x87B DUP6 PUSH2 0x943 JUMP JUMPDEST MSTORE PUSH1 0x1 TIMESTAMP ADD SWAP4 DUP5 TIMESTAMP GT PUSH2 0x227 JUMPI PUSH1 0x0 DUP1 SWAP5 PUSH2 0x730 PUSH1 0x40 MLOAD SWAP8 DUP9 SWAP7 DUP8 SWAP6 DUP7 SWAP5 PUSH32 0x8803DBEE00000000000000000000000000000000000000000000000000000000 DUP7 MSTORE CALLER SWAP3 PUSH1 0x4 DUP8 ADD PUSH2 0xA2E JUMP JUMPDEST PUSH2 0x8DF SWAP1 PUSH1 0x20 RETURNDATASIZE PUSH1 0x20 GT PUSH2 0x786 JUMPI PUSH2 0x779 DUP2 DUP4 PUSH2 0x2EF JUMP JUMPDEST PUSH2 0x84C JUMP JUMPDEST PUSH2 0x8FC SWAP1 PUSH1 0x20 RETURNDATASIZE PUSH1 0x20 GT PUSH2 0x786 JUMPI PUSH2 0x779 DUP2 DUP4 PUSH2 0x2EF JUMP JUMPDEST PUSH2 0x7EE JUMP JUMPDEST SWAP1 DUP2 PUSH1 0x20 SWAP2 SUB SLT PUSH2 0x2CD JUMPI MLOAD PUSH1 0x1 PUSH1 0x1 PUSH1 0xA0 SHL SUB DUP2 AND DUP2 SUB PUSH2 0x2CD JUMPI SWAP1 JUMP JUMPDEST DUP1 MLOAD ISZERO PUSH2 0x92D JUMPI PUSH1 0x20 ADD SWAP1 JUMP JUMPDEST PUSH4 0x4E487B71 PUSH1 0xE0 SHL PUSH1 0x0 MSTORE PUSH1 0x32 PUSH1 0x4 MSTORE PUSH1 0x24 PUSH1 0x0 REVERT JUMPDEST DUP1 MLOAD PUSH1 0x1 LT ISZERO PUSH2 0x92D JUMPI PUSH1 0x40 ADD SWAP1 JUMP JUMPDEST PUSH1 0x20 DUP2 DUP4 SUB SLT PUSH2 0x2CD JUMPI DUP1 MLOAD SWAP1 PUSH8 0xFFFFFFFFFFFFFFFF DUP3 GT PUSH2 0x2CD JUMPI ADD SWAP1 DUP1 PUSH1 0x1F DUP4 ADD SLT ISZERO PUSH2 0x2CD JUMPI DUP2 MLOAD SWAP2 PUSH8 0xFFFFFFFFFFFFFFFF DUP4 GT PUSH2 0x311 JUMPI DUP3 PUSH1 0x5 SHL SWAP1 PUSH1 0x20 DUP3 ADD SWAP4 PUSH2 0x9A5 PUSH1 0x40 MLOAD SWAP6 DUP7 PUSH2 0x2EF JUMP JUMPDEST DUP5 MSTORE PUSH1 0x20 DUP1 DUP6 ADD SWAP3 DUP3 ADD ADD SWAP3 DUP4 GT PUSH2 0x2CD JUMPI PUSH1 0x20 ADD SWAP1 JUMPDEST DUP3 DUP3 LT PUSH2 0x9C9 JUMPI POP POP POP SWAP1 JUMP JUMPDEST DUP2 MLOAD DUP2 MSTORE PUSH1 0x20 SWAP2 DUP3 ADD SWAP2 ADD PUSH2 0x9BC JUMP JUMPDEST SWAP1 PUSH1 0x20 DUP1 DUP4 MLOAD SWAP3 DUP4 DUP2 MSTORE ADD SWAP3 ADD SWAP1 PUSH1 0x0 JUMPDEST DUP2 DUP2 LT PUSH2 0x9F7 JUMPI POP POP POP SWAP1 JUMP JUMPDEST DUP3 MLOAD PUSH1 0x1 PUSH1 0x1 PUSH1 0xA0 SHL SUB AND DUP5 MSTORE PUSH1 0x20 SWAP4 DUP5 ADD SWAP4 SWAP1 SWAP3 ADD SWAP2 PUSH1 0x1 ADD PUSH2 0x9EA JUMP JUMPDEST SWAP1 DUP2 PUSH1 0x20 SWAP2 SUB SLT PUSH2 0x2CD JUMPI MLOAD DUP1 ISZERO ISZERO DUP2 SUB PUSH2 0x2CD JUMPI SWAP1 JUMP JUMPDEST SWAP2 PUSH1 0x80 SWAP4 PUSH2 0xA5B SWAP2 PUSH1 0x1 PUSH1 0x1 PUSH1 0xA0 SHL SUB SWAP4 SWAP9 SWAP8 SWAP7 SWAP9 DUP6 MSTORE PUSH1 0x20 DUP6 ADD MSTORE PUSH1 0xA0 PUSH1 0x40 DUP6 ADD MSTORE PUSH1 0xA0 DUP5 ADD SWAP1 PUSH2 0x9D9 JUMP JUMPDEST SWAP6 AND PUSH1 0x60 DUP3 ADD MSTORE ADD MSTORE JUMP INVALID LOG2 PUSH5 0x6970667358 0x22 SLT KECCAK256 DUP8 RETURNDATACOPY 0xD8 0x1E SWAP11 SELFDESTRUCT 0x2A PUSH15 0x369AE887BBFA43D8A60E99CE6230B4 PUSH10 0x80D9A50E67FA66473 PUSH16 0x6C634300081C00330000000000000000 "
        },
        "methodIdentifiers": {
          "execute((address,address,uint256,uint256))": "3d6a7eb4",
          "requiredAmountIn((address,address,uint256,uint256))": "dd016b79"
        }
      }
    }
  }
}