{
  "_format": "hh-sol-artifact-1",
  "contractName": "AaveV3",
  "sourceName": "contracts/modules/AaveV3.sol",
  "abi": [
    {
      "inputs": [
        {
          "internalType": "address",
          "name": "wethGateway_",
          "type": "address"
        },
        {
          "internalType": "address",
          "name": "poolAddressesProvider_",
          "type": "address"
        }
      ],
      "stateMutability": "nonpayable",
      "type": "constructor"
    },
    {
      "inputs": [
        {
          "components": [
            {
              "internalType": "address",
              "name": "payer",
              "type": "address"
            },
            {
              "internalType": "address",
              "name": "supplyAsset",
              "type": "address"
            },
            {
              "internalType": "uint256",
              "name": "requiredSupplyMin",
              "type": "uint256"
            },
            {
              "internalType": "address",
              "name": "borrowAsset",
              "type": "address"
            },
            {
              "internalType": "uint256",
              "name": "borrowAmount",
              "type": "uint256"
            },
            {
              "components": [
                {
                  "internalType": "uint256",
                  "name": "deadline",
                  "type": "uint256"
                },
                {
                  "internalType": "uint8",
                  "name": "v",
                  "type": "uint8"
                },
                {
                  "internalType": "bytes32",
                  "name": "r",
                  "type": "bytes32"
                },
                {
                  "internalType": "bytes32",
                  "name": "s",
                  "type": "bytes32"
                }
              ],
              "internalType": "struct Params.Signature",
              "name": "signature",
              "type": "tuple"
            }
          ],
          "internalType": "struct Params.ExecuteLoan",
          "name": "params",
          "type": "tuple"
        }
      ],
      "name": "execute",
      "outputs": [],
      "stateMutability": "payable",
      "type": "function"
    },
    {
      "inputs": [
        {
          "internalType": "address",
          "name": "supplyAsset",
          "type": "address"
        }
      ],
      "name": "getCurrentLiquidityRate",
      "outputs": [
        {
          "internalType": "uint256",
          "name": "rate",
          "type": "uint256"
        }
      ],
      "stateMutability": "view",
      "type": "function"
    },
    {
      "inputs": [
        {
          "internalType": "address",
          "name": "borrowAsset",
          "type": "address"
        }
      ],
      "name": "getCurrentVariableBorrowRate",
      "outputs": [
        {
          "internalType": "uint256",
          "name": "rate",
          "type": "uint256"
        }
      ],
      "stateMutability": "view",
      "type": "function"
    },
    {
      "inputs": [
        {
          "internalType": "address",
          "name": "payer",
          "type": "address"
        }
      ],
      "name": "getHealthFactor",
      "outputs": [
        {
          "internalType": "uint256",
          "name": "hf",
          "type": "uint256"
        }
      ],
      "stateMutability": "view",
      "type": "function"
    },
    {
      "inputs": [
        {
          "internalType": "address",
          "name": "asset",
          "type": "address"
        }
      ],
      "name": "getVariableDebtTokenAddresses",
      "outputs": [
        {
          "internalType": "address",
          "name": "variableDebtToken",
          "type": "address"
        }
      ],
      "stateMutability": "view",
      "type": "function"
    },
    {
      "inputs": [
        {
          "components": [
            {
              "internalType": "address",
              "name": "payer",
              "type": "address"
            },
            {
              "internalType": "address",
              "name": "borrowAsset",
              "type": "address"
            },
            {
              "internalType": "uint256",
              "name": "borrowAmount",
              "type": "uint256"
            },
            {
              "internalType": "address",
              "name": "supplyAsset",
              "type": "address"
            },
            {
              "internalType": "uint256",
              "name": "healthFactorMultiplier",
              "type": "uint256"
            }
          ],
          "internalType": "struct Params.RequiredSupply",
          "name": "params",
          "type": "tuple"
        }
      ],
      "name": "requiredSupplyMin",
      "outputs": [
        {
          "internalType": "uint256",
          "name": "additionalCollateral",
          "type": "uint256"
        }
      ],
      "stateMutability": "view",
      "type": "function"
    },
    {
      "stateMutability": "payable",
      "type": "receive"
    }
  ],
  "bytecode": "0x608034608657601f61147138819003918201601f19168301916001600160401b03831184841017608b578084926040948552833981010312608657604b602060458360a1565b920160a1565b600080546001600160a01b039384166001600160a01b031991821617909155600180549290931691161790556040516113bc90816100b58239f35b600080fd5b634e487b7160e01b600052604160045260246000fd5b51906001600160a01b038216820360865756fe6080604052600436101561001b575b361561001957600080fd5b005b6000803560e01c80630a8da74114610a745780637b4efcfd146104305780637faba89e1461033f578063f293357b146102b3578063fe6bcd7c146101a65763fea54e0214610069575061000e565b346101a35760203660031901126101a3576004610084610aa9565b60206001600160a01b03600154166040519384809263026b1d5f60e01b82525afa918215610198578392610149575b506001600160a01b0360246101e0928260405195869485936335ea6a7560e01b8552166004840152165afa90811561013e576fffffffffffffffffffffffffffffffff916040916020949161010f575b50015116604051908152f35b61013191506101e03d8111610137575b6101298183610af0565b810190610b59565b38610103565b503d61011f565b6040513d84823e3d90fd5b9091506020813d602011610190575b8161016560209383610af0565b8101031261018c576001600160a01b0360246101836101e093610b28565b939250506100b3565b8280fd5b3d9150610158565b6040513d85823e3d90fd5b80fd5b50346101a35760203660031901126101a35760046101c2610aa9565b60206001600160a01b03600154166040519384809263026b1d5f60e01b82525afa918215610198578392610269575b506001600160a01b03602460c092826040519586948593632fe4a15f60e21b8552166004840152165afa90811561013e5760209291610234575b50604051908152f35b610256915060c03d60c011610262575b61024e8183610af0565b810190610e62565b9450505050503861022b565b503d610244565b9091506020813d6020116102ab575b8161028560209383610af0565b8101031261018c576001600160a01b0360246102a260c093610b28565b939250506101f1565b3d9150610278565b50346101a35760a03660031901126101a3576040519060a082019082821067ffffffffffffffff83111761032b57602061032384846040526102f3610aa9565b81526102fd610ac4565b838201526044356040820152610311610ada565b60608201526084356080820152610f03565b604051908152f35b80634e487b7160e01b602492526041600452fd5b50346101a35760203660031901126101a357600461035b610aa9565b60206001600160a01b03600154166040519384809263026b1d5f60e01b82525afa9182156101985783926103e5575b506001600160a01b0360246101e0928260405195869485936335ea6a7560e01b8552166004840152165afa90811561013e576fffffffffffffffffffffffffffffffff916080916020949161010f5750015116604051908152f35b9091506020813d602011610428575b8161040160209383610af0565b8101031261018c576001600160a01b03602461041f6101e093610b28565b9392505061038a565b3d91506103f4565b506101203660031901126101a3576040519060c0820182811067ffffffffffffffff821117610a6057604052610464610aa9565b825261046e610ac4565b6020830190815260408301926044358452610487610ada565b6060820190815260808201916084358352608060a31936011261076a576040516080810181811067ffffffffffffffff821117610a4c5760405260a435815260c43560ff8116810361075157602082015260e435604082015261010435606082015260a08201908152600460206001600160a01b03600154166040519283809263026b1d5f60e01b82525afa8015610862578790610a0c575b6001600160a01b03915016946001600160a01b038754169088518061077d575b5050508596506001600160a01b0361055a81855116610cd6565b166001600160a01b03835116918551905180519360ff6020830151166060604084015193015194803b15610779578b9560e4948793604051998a9889977f0b52d558000000000000000000000000000000000000000000000000000000008952600489015230602489015260448801526064870152608486015260a485015260c48401525af190811561076e578691610755575b50506001600160a01b03825116906001600160a01b03845191511694803b156107515786928360a49260405198899586947fa415bcad000000000000000000000000000000000000000000000000000000008652600486015260248501526002604485015282606485015260848401525af1928315610746578493610729575b50516001600160a01b0316806106ab5750818091518181156106a2575b3390f1156106965780f35b604051903d90823e3d90fd5b506108fc61068b565b90516040517fa9059cbb00000000000000000000000000000000000000000000000000000000815233600482015260248101919091529260209250839160449183915af1801561013e576106fd575080f35b61071e9060203d602011610722575b6107168183610af0565b810190610dcd565b5080f35b503d61070c565b8361073691949294610af0565b6107425782913861066e565b5050fd5b6040513d86823e3d90fd5b8680fd5b8161075f91610af0565b61076a5784386105ee565b8480fd5b6040513d88823e3d90fd5b8b80fd5b81516001600160a01b0316908161087157505050876107d9889951341015604051906107aa604083610af0565b600182527f33000000000000000000000000000000000000000000000000000000000000006020830152610de5565b51906001600160a01b0384511690803b1561086d576064899260405194859384927f474cf53d0000000000000000000000000000000000000000000000000000000084528c600485015260248401528560448401525af1908115610862578791610849575b50505b388080610540565b8161085391610af0565b61085e57853861083e565b8580fd5b6040513d89823e3d90fd5b8880fd5b90919250604051907f23b872dd00000000000000000000000000000000000000000000000000000000825233600483015230602483015260448201526020816064818c865af18015610a01579160209161091b936109e6575b508a5190898b6040518096819582947f095ea7b300000000000000000000000000000000000000000000000000000000845260048401602090939291936001600160a01b0360408201951681520152565b03925af180156109db57906001600160a01b0392916109be575b50511696516001600160a01b0383511690863b156109ba57604051987f617ba037000000000000000000000000000000000000000000000000000000008a5260048a015260248901526044880152856064880152858760848183895af1801561076e576109a5575b859650610841565b949095816109b291610af0565b93859061099d565b8780fd5b6109d69060203d602011610722576107168183610af0565b610935565b6040513d8a823e3d90fd5b6109fc90833d8511610722576107168183610af0565b6108ca565b6040513d8b823e3d90fd5b506020813d602011610a44575b81610a2660209383610af0565b8101031261075157610a3f6001600160a01b0391610b28565b610520565b3d9150610a19565b602487634e487b7160e01b81526041600452fd5b602482634e487b7160e01b81526041600452fd5b50346101a35760203660031901126101a3576020610a98610a93610aa9565b610cd6565b6001600160a01b0360405191168152f35b600435906001600160a01b0382168203610abf57565b600080fd5b602435906001600160a01b0382168203610abf57565b606435906001600160a01b0382168203610abf57565b90601f8019910116810190811067ffffffffffffffff821117610b1257604052565b634e487b7160e01b600052604160045260246000fd5b51906001600160a01b0382168203610abf57565b51906fffffffffffffffffffffffffffffffff82168203610abf57565b809103906101e08212610abf576000604051926101e0840184811067ffffffffffffffff821117610cc2576040526020136101a3576040516020810181811067ffffffffffffffff821117610cc257604052825181528352610bbd60208301610b3c565b6020840152610bce60408301610b3c565b6040840152610bdf60608301610b3c565b6060840152610bf060808301610b3c565b6080840152610c0160a08301610b3c565b60a084015260c082015164ffffffffff81168103610cbe5760c084015260e08201519061ffff821682036101a35750610cb5916101c09160e0850152610c4a6101008201610b28565b610100850152610c5d6101208201610b28565b610120850152610c706101408201610b28565b610140850152610c836101608201610b28565b610160850152610c966101808201610b3c565b610180850152610ca96101a08201610b3c565b6101a085015201610b3c565b6101c082015290565b5080fd5b602483634e487b7160e01b81526041600452fd5b60049060206001600160a01b03600154166040519384809263026b1d5f60e01b82525afa918215610d7657600092610d82575b506001600160a01b0360246101e0928260405195869485936335ea6a7560e01b8552166004840152165afa908115610d76576001600160a01b039161014091600091610d57575b5001511690565b610d7091506101e03d8111610137576101298183610af0565b38610d50565b6040513d6000823e3d90fd5b9091506020813d602011610dc5575b81610d9e60209383610af0565b81010312610abf576001600160a01b036024610dbc6101e093610b28565b93925050610d09565b3d9150610d91565b90816020910312610abf57518015158103610abf5790565b15610ded5750565b604051907f08c379a0000000000000000000000000000000000000000000000000000000008252602060048301528181519182602483015260005b838110610e4a5750508160006044809484010152601f80199101168101030190fd5b60208282018101516044878401015285935001610e28565b91908260c0910312610abf5781519160208101519160408201519160608101519160a0608083015192015190565b8115610e9a570490565b634e487b7160e01b600052601260045260246000fd5b90816020910312610abf575160ff81168103610abf5790565b81810292918115918404141715610edc57565b634e487b7160e01b600052601160045260246000fd5b60ff16604d8111610edc57600a0a90565b606081016001600160a01b038151161561136a575b6001600160a01b036001541660405163026b1d5f60e01b8152602081600481855afa908115610d7657600091611322575b5060206001600160a01b036004921692604051928380927ffca513a80000000000000000000000000000000000000000000000000000000082525afa8015610d76576000906112e2575b6001600160a01b03915016926001600160a01b0381511660405190632fe4a15f60e21b8252600482015260c081602481865afa8015610d76576000916000916112b6575b506110029060405190610feb604083610af0565b600382526234303360e81b60208301521515610de5565b608082019261103360648551116040519061101e604083610af0565b600382526234303360e81b6020830152610de5565b60208301926001600160a01b038451166040519063b3596f0760e01b825260048201526020816024818b5afa908115610d7657600091611284575b5060206001600160a01b038851166024604051809b819363b3596f0760e01b835260048301525afa978815610d7657600098611250575b506101e06001600160a01b038851166024604051809681936335ea6a7560e01b835260048301525afa8015610d76576001600160a01b03606461ffff602093600497600091611231575b50515116049651166040519485809263313ce56760e01b82525afa918215610d765761113b93600093611203575b5061113591604061112f920151610ec9565b91610ef2565b90610e90565b818111156111f85781810391818311610edc576064830292830460641491141715610edc576001600160a01b03611176600493602093610e90565b9451166040519283809263313ce56760e01b82525afa938415610d76576111b86111c5946111b26064976111bd956000916111c9575b50610ef2565b90610ec9565b610e90565b905190610ec9565b0490565b6111eb915060203d6020116111f1575b6111e38183610af0565b810190610eb0565b386111ac565b503d6111d9565b505050505050600090565b61112f9193509160406112276111359460203d6020116111f1576111e38183610af0565b949250509161111d565b61124a91506101e03d8111610137576101298183610af0565b386110ef565b9097506020813d60201161127c575b8161126c60209383610af0565b81010312610abf575196386110a5565b3d915061125f565b90506020813d6020116112ae575b8161129f60209383610af0565b81010312610abf57513861106e565b3d9150611292565b61100292506112d4915060c03d60c0116102625761024e8183610af0565b959450505090509190610fd7565b506020813d60201161131a575b816112fc60209383610af0565b81010312610abf576113156001600160a01b0391610b28565b610f93565b3d91506112ef565b90506020813d602011611362575b8161133d60209383610af0565b81010312610abf5760206001600160a01b0361135a600493610b28565b925050610f49565b3d9150611330565b73b123dce044edf0a755505d9623fba16c0f41cae98152610f1856fea264697066735822122094d984ee9a8344b3977ce0f07a63d7ca6b42d30aaa3cc4475f485345e754950564736f6c634300081c0033",
  "linkReferences": {},
  "deployedLinkReferences": {}
}