{
  "_format": "hh-sol-artifact-1",
  "contractName": "AaveV3",
  "sourceName": "contracts/modules/AaveV3.sol",
  "abi": [
    {
      "inputs": [
        {
          "internalType": "address",
          "name": "wethGateway_",
          "type": "address"
        },
        {
          "internalType": "address",
          "name": "poolAddressesProvider_",
          "type": "address"
        }
      ],
      "stateMutability": "nonpayable",
      "type": "constructor"
    },
    {
      "inputs": [
        {
          "components": [
            {
              "internalType": "address",
              "name": "payer",
              "type": "address"
            },
            {
              "internalType": "address",
              "name": "supplyAsset",
              "type": "address"
            },
            {
              "internalType": "uint256",
              "name": "requiredSupplyMin",
              "type": "uint256"
            },
            {
              "internalType": "address",
              "name": "borrowAsset",
              "type": "address"
            },
            {
              "internalType": "uint256",
              "name": "borrowAmount",
              "type": "uint256"
            },
            {
              "components": [
                {
                  "internalType": "uint256",
                  "name": "deadline",
                  "type": "uint256"
                },
                {
                  "internalType": "uint8",
                  "name": "v",
                  "type": "uint8"
                },
                {
                  "internalType": "bytes32",
                  "name": "r",
                  "type": "bytes32"
                },
                {
                  "internalType": "bytes32",
                  "name": "s",
                  "type": "bytes32"
                }
              ],
              "internalType": "struct Params.Signature",
              "name": "signature",
              "type": "tuple"
            }
          ],
          "internalType": "struct Params.ExecuteLoan",
          "name": "params",
          "type": "tuple"
        }
      ],
      "name": "execute",
      "outputs": [],
      "stateMutability": "payable",
      "type": "function"
    },
    {
      "inputs": [
        {
          "internalType": "address",
          "name": "asset",
          "type": "address"
        }
      ],
      "name": "getVariableDebtTokenAddresses",
      "outputs": [
        {
          "internalType": "address",
          "name": "variableDebtToken",
          "type": "address"
        }
      ],
      "stateMutability": "view",
      "type": "function"
    },
    {
      "inputs": [
        {
          "components": [
            {
              "internalType": "address",
              "name": "payer",
              "type": "address"
            },
            {
              "internalType": "address",
              "name": "borrowAsset",
              "type": "address"
            },
            {
              "internalType": "uint256",
              "name": "borrowAmount",
              "type": "uint256"
            },
            {
              "internalType": "address",
              "name": "supplyAsset",
              "type": "address"
            }
          ],
          "internalType": "struct Params.RequiredSupply",
          "name": "params",
          "type": "tuple"
        }
      ],
      "name": "requiredSupplyMin",
      "outputs": [
        {
          "internalType": "uint256",
          "name": "additionalCollateral",
          "type": "uint256"
        }
      ],
      "stateMutability": "view",
      "type": "function"
    }
  ],
  "bytecode": "0x608034608657601f610e9338819003918201601f19168301916001600160401b03831184841017608b578084926040948552833981010312608657604b602060458360a1565b920160a1565b600080546001600160a01b039384166001600160a01b03199182161790915560018054929093169116179055604051610dde90816100b58239f35b600080fd5b634e487b7160e01b600052604160045260246000fd5b51906001600160a01b038216820360865756fe6080604052600436101561001257600080fd5b6000803560e01c80634d9cbbc7146105e25780636e8a1a451461058657637b4efcfd1461003e57600080fd5b6101203660031901126102eb5760405160c0810181811067ffffffffffffffff82111761057257604052610070610617565b815261007a610632565b6020820190815260408201916044358352610093610648565b906060810191825260808101916084358352608060a31936011261056e576040516100bd8161065e565b60a435815260c43560ff8116810361031d57602082015260e435604082015261010435606082015260a08301908152866001600160a01b036101018185511661084c565b16916001600160a01b03855116865191519081519460ff6020840151169060606040850151940151813b156105435760e4948793604051998a9889977f0b52d558000000000000000000000000000000000000000000000000000000008952600489015230602489015260448801526064870152608486015260a485015260c48401525af1801561054f5761055a575b50600460206001600160a01b03600154166040519283809263026b1d5f60e01b82525afa801561054f57879061050b575b6001600160a01b0391501693866001600160a01b03815416916001600160a01b03815116908115600014610365575050508551341061032157869551906001600160a01b0384511690803b1561031d576064889260405194859384927f474cf53d0000000000000000000000000000000000000000000000000000000084528b600485015260248401528560448401525af19081156103125786916102fd575b50506001600160a01b0380915b5116925191511692803b156102f95784928360a49260405196879586947fa415bcad000000000000000000000000000000000000000000000000000000008652600486015260248501526002604485015282606485015260848401525af180156102ee576102da5750f35b816102e491610690565b6102eb5780f35b80fd5b6040513d84823e3d90fd5b8480fd5b8161030791610690565b6102f9578438610262565b6040513d88823e3d90fd5b8780fd5b606460405162461bcd60e51b815260206004820152601160248201527f416d6f756e74206d69736d6174636865640000000000000000000000000000006044820152fd5b90919792506001600160a01b03855116918351604051937f23b872dd000000000000000000000000000000000000000000000000000000008552600485015230602485015260448401526020836064818c855af19081156105005789936020926104e5575b506044855160405195869384927f095ea7b30000000000000000000000000000000000000000000000000000000084528d600485015260248401525af19182156104da576001600160a01b03926104ad575b50511690516001600160a01b0384511690863b1561031d57604051927f617ba037000000000000000000000000000000000000000000000000000000008452600484015260248301526044820152856064820152858160848183895af1908115610312578691610498575b50506001600160a01b03809161026f565b816104a291610690565b6102f9578438610487565b6104ce9060203d6020116104d3575b6104c68183610690565b810190610d90565b61041c565b503d6104bc565b6040513d8a823e3d90fd5b6104fb90833d85116104d3576104c68183610690565b6103ca565b6040513d8b823e3d90fd5b506020813d602011610547575b8161052560209383610690565b810103126105435761053e6001600160a01b03916106b2565b6101c2565b8680fd5b3d9150610518565b6040513d89823e3d90fd5b8661056791979297610690565b9438610191565b8580fd5b602483634e487b7160e01b81526041600452fd5b50346102eb5760803660031901126102eb575060206105da6040516105aa8161065e565b6105b2610617565b81526105bc610632565b8382015260443560408201526105d0610648565b6060820152610973565b604051908152f35b50346102eb5760203660031901126102eb576020610606610601610617565b61084c565b6001600160a01b0360405191168152f35b600435906001600160a01b038216820361062d57565b600080fd5b602435906001600160a01b038216820361062d57565b606435906001600160a01b038216820361062d57565b6080810190811067ffffffffffffffff82111761067a57604052565b634e487b7160e01b600052604160045260246000fd5b90601f8019910116810190811067ffffffffffffffff82111761067a57604052565b51906001600160a01b038216820361062d57565b51906fffffffffffffffffffffffffffffffff8216820361062d57565b809103906101e0821261062d576000604051926101e0840184811067ffffffffffffffff821117610572576040526020136102eb576040516020810181811067ffffffffffffffff82111761057257604052825181528352610747602083016106c6565b6020840152610758604083016106c6565b6040840152610769606083016106c6565b606084015261077a608083016106c6565b608084015261078b60a083016106c6565b60a084015260c082015164ffffffffff811681036108485760c084015260e08201519061ffff821682036102eb575061083f916101c09160e08501526107d461010082016106b2565b6101008501526107e761012082016106b2565b6101208501526107fa61014082016106b2565b61014085015261080d61016082016106b2565b61016085015261082061018082016106c6565b6101808501526108336101a082016106c6565b6101a0850152016106c6565b6101c082015290565b5080fd5b60049060206001600160a01b03600154166040519384809263026b1d5f60e01b82525afa9182156108fc57600092610908575b506001600160a01b0360246101e0928260405195869485936335ea6a7560e01b8552166004840152165afa9081156108fc576001600160a01b0391610140916000916108cd575b5001511690565b6108ef91506101e03d81116108f5575b6108e78183610690565b8101906106e3565b386108c6565b503d6108dd565b6040513d6000823e3d90fd5b9091506020813d60201161094b575b8161092460209383610690565b8101031261062d576001600160a01b0360246109426101e0936106b2565b9392505061087f565b3d9150610917565b811561095d570490565b634e487b7160e01b600052601260045260246000fd5b60608101906001600160a01b0382511615610d74575b6001600160a01b03600154169060405163026b1d5f60e01b8152602081600481865afa9081156108fc57600091610d2c575b5060206001600160a01b036004921693604051928380927ffca513a80000000000000000000000000000000000000000000000000000000082525afa80156108fc57600090610cec575b6001600160a01b03915016926001600160a01b0382511692604051937fbf92857c000000000000000000000000000000000000000000000000000000008552600485015260c084602481845afa80156108fc576000948591610caf575b5015610c45576001600160a01b03602084015116916040519263b3596f0760e01b84526004840152602083602481895afa9283156108fc57600093610c11575b5060206001600160a01b0382511660246040518099819363b3596f0760e01b835260048301525afa9586156108fc57600096610bd6575b506001600160a01b036101e09151166024604051809481936335ea6a7560e01b835260048301525afa80156108fc5761ffff606491604093600091610bb7575b5051511604920151818102918183041490151715610b9857670de0b6b3a7640000900482811115610bae5782810392818411610b98576064840293840460641491141715610b9857610b6a91610953565b90670de0b6b3a7640000820291808304670de0b6b3a76400001490151715610b9857610b9591610953565b90565b634e487b7160e01b600052601160045260246000fd5b50505050600090565b610bd091506101e03d81116108f5576108e78183610690565b38610b19565b9095506020813d602011610c09575b81610bf260209383610690565b8101031261062d5751946001600160a01b03610ad9565b3d9150610be5565b90926020823d602011610c3d575b81610c2c60209383610690565b810103126102eb5750519138610aa2565b3d9150610c1f565b608460405162461bcd60e51b815260206004820152602360248201527f5573657220697320616c726561647920756e646572636f6c6c61746572616c6960448201527f7a656400000000000000000000000000000000000000000000000000000000006064820152fd5b94905060c0853d60c011610ce4575b81610ccb60c09383610690565b810103126102eb575060a0604085015194015138610a62565b3d9150610cbe565b506020813d602011610d24575b81610d0660209383610690565b8101031261062d57610d1f6001600160a01b03916106b2565b610a05565b3d9150610cf9565b90506020813d602011610d6c575b81610d4760209383610690565b8101031261062d5760206001600160a01b03610d646004936106b2565b9250506109bb565b3d9150610d3a565b73b123dce044edf0a755505d9623fba16c0f41cae98252610989565b9081602091031261062d5751801515810361062d579056fea2646970667358221220882a467bab2e8ffcdd7dd3b819ce4e28627c560d60d1116cc6403f6bf987789464736f6c634300081c0033",
  "linkReferences": {},
  "deployedLinkReferences": {}
}