{
  "_format": "hh-sol-artifact-1",
  "contractName": "AaveV3",
  "sourceName": "contracts/modules/AaveV3.sol",
  "abi": [
    {
      "inputs": [
        {
          "internalType": "address",
          "name": "wethGateway_",
          "type": "address"
        },
        {
          "internalType": "address",
          "name": "poolAddressesProvider_",
          "type": "address"
        }
      ],
      "stateMutability": "nonpayable",
      "type": "constructor"
    },
    {
      "inputs": [
        {
          "components": [
            {
              "internalType": "address",
              "name": "payer",
              "type": "address"
            },
            {
              "internalType": "address",
              "name": "supplyAsset",
              "type": "address"
            },
            {
              "internalType": "uint256",
              "name": "requiredSupplyMin",
              "type": "uint256"
            },
            {
              "internalType": "address",
              "name": "borrowAsset",
              "type": "address"
            },
            {
              "internalType": "uint256",
              "name": "borrowAmount",
              "type": "uint256"
            },
            {
              "components": [
                {
                  "internalType": "uint256",
                  "name": "deadline",
                  "type": "uint256"
                },
                {
                  "internalType": "uint8",
                  "name": "v",
                  "type": "uint8"
                },
                {
                  "internalType": "bytes32",
                  "name": "r",
                  "type": "bytes32"
                },
                {
                  "internalType": "bytes32",
                  "name": "s",
                  "type": "bytes32"
                }
              ],
              "internalType": "struct Params.Signature",
              "name": "signature",
              "type": "tuple"
            }
          ],
          "internalType": "struct Params.ExecuteLoan",
          "name": "params",
          "type": "tuple"
        }
      ],
      "name": "execute",
      "outputs": [],
      "stateMutability": "payable",
      "type": "function"
    },
    {
      "inputs": [
        {
          "internalType": "address",
          "name": "supplyAsset",
          "type": "address"
        }
      ],
      "name": "getCurrentLiquidityRate",
      "outputs": [
        {
          "internalType": "uint256",
          "name": "rate",
          "type": "uint256"
        }
      ],
      "stateMutability": "view",
      "type": "function"
    },
    {
      "inputs": [
        {
          "internalType": "address",
          "name": "payer",
          "type": "address"
        }
      ],
      "name": "getHealthFactor",
      "outputs": [
        {
          "internalType": "uint256",
          "name": "hf",
          "type": "uint256"
        }
      ],
      "stateMutability": "view",
      "type": "function"
    },
    {
      "inputs": [
        {
          "internalType": "address",
          "name": "asset",
          "type": "address"
        }
      ],
      "name": "getVariableDebtTokenAddresses",
      "outputs": [
        {
          "internalType": "address",
          "name": "variableDebtToken",
          "type": "address"
        }
      ],
      "stateMutability": "view",
      "type": "function"
    },
    {
      "inputs": [
        {
          "components": [
            {
              "internalType": "address",
              "name": "payer",
              "type": "address"
            },
            {
              "internalType": "address",
              "name": "borrowAsset",
              "type": "address"
            },
            {
              "internalType": "uint256",
              "name": "borrowAmount",
              "type": "uint256"
            },
            {
              "internalType": "address",
              "name": "supplyAsset",
              "type": "address"
            },
            {
              "internalType": "uint256",
              "name": "healthFactorMultiplier",
              "type": "uint256"
            }
          ],
          "internalType": "struct Params.RequiredSupply",
          "name": "params",
          "type": "tuple"
        }
      ],
      "name": "requiredSupplyMin",
      "outputs": [
        {
          "internalType": "uint256",
          "name": "additionalCollateral",
          "type": "uint256"
        }
      ],
      "stateMutability": "view",
      "type": "function"
    },
    {
      "stateMutability": "payable",
      "type": "receive"
    }
  ],
  "bytecode": "0x608034608657601f61137538819003918201601f19168301916001600160401b03831184841017608b578084926040948552833981010312608657604b602060458360a1565b920160a1565b600080546001600160a01b039384166001600160a01b031991821617909155600180549290931691161790556040516112c090816100b58239f35b600080fd5b634e487b7160e01b600052604160045260246000fd5b51906001600160a01b038216820360865756fe6080604052600436101561001b575b361561001957600080fd5b005b6000803560e01c80630a8da741146109785780637b4efcfd14610334578063f293357b146102a8578063fe6bcd7c1461019b5763fea54e021461005e575061000e565b346101985760203660031901126101985760046100796109ad565b60206001600160a01b03600154166040519384809263026b1d5f60e01b82525afa91821561018d57839261013e575b506001600160a01b0360246101e0928260405195869485936335ea6a7560e01b8552166004840152165afa908115610133576fffffffffffffffffffffffffffffffff9160409160209491610104575b50015116604051908152f35b61012691506101e03d811161012c575b61011e81836109f4565b810190610a5d565b386100f8565b503d610114565b6040513d84823e3d90fd5b9091506020813d602011610185575b8161015a602093836109f4565b81010312610181576001600160a01b0360246101786101e093610a2c565b939250506100a8565b8280fd5b3d915061014d565b6040513d85823e3d90fd5b80fd5b50346101985760203660031901126101985760046101b76109ad565b60206001600160a01b03600154166040519384809263026b1d5f60e01b82525afa91821561018d57839261025e575b506001600160a01b03602460c092826040519586948593632fe4a15f60e21b8552166004840152165afa9081156101335760209291610229575b50604051908152f35b61024b915060c03d60c011610257575b61024381836109f4565b810190610d66565b94505050505038610220565b503d610239565b9091506020813d6020116102a0575b8161027a602093836109f4565b81010312610181576001600160a01b03602461029760c093610a2c565b939250506101e6565b3d915061026d565b50346101985760a0366003190112610198576040519060a082019082821067ffffffffffffffff83111761032057602061031884846040526102e86109ad565b81526102f26109c8565b8382015260443560408201526103066109de565b60608201526084356080820152610e07565b604051908152f35b80634e487b7160e01b602492526041600452fd5b50610120366003190112610198576040519060c0820182811067ffffffffffffffff821117610964576040526103686109ad565b82526103726109c8565b602083019081526040830192604435845261038b6109de565b6060820190815260808201916084358352608060a31936011261066e576040516080810181811067ffffffffffffffff8211176109505760405260a435815260c43560ff8116810361065557602082015260e435604082015261010435606082015260a08201908152600460206001600160a01b03600154166040519283809263026b1d5f60e01b82525afa8015610766578790610910575b6001600160a01b03915016946001600160a01b0387541690885180610681575b5050508596506001600160a01b0361045e81855116610bda565b166001600160a01b03835116918551905180519360ff6020830151166060604084015193015194803b1561067d578b9560e4948793604051998a9889977f0b52d558000000000000000000000000000000000000000000000000000000008952600489015230602489015260448801526064870152608486015260a485015260c48401525af1908115610672578691610659575b50506001600160a01b03825116906001600160a01b03845191511694803b156106555786928360a49260405198899586947fa415bcad000000000000000000000000000000000000000000000000000000008652600486015260248501526002604485015282606485015260848401525af192831561064a57849361062d575b50516001600160a01b0316806105af5750818091518181156105a6575b3390f11561059a5780f35b604051903d90823e3d90fd5b506108fc61058f565b90516040517fa9059cbb00000000000000000000000000000000000000000000000000000000815233600482015260248101919091529260209250839160449183915af1801561013357610601575080f35b6106229060203d602011610626575b61061a81836109f4565b810190610cd1565b5080f35b503d610610565b8361063a919492946109f4565b61064657829138610572565b5050fd5b6040513d86823e3d90fd5b8680fd5b81610663916109f4565b61066e5784386104f2565b8480fd5b6040513d88823e3d90fd5b8b80fd5b81516001600160a01b0316908161077557505050876106dd889951341015604051906106ae6040836109f4565b600182527f33000000000000000000000000000000000000000000000000000000000000006020830152610ce9565b51906001600160a01b0384511690803b15610771576064899260405194859384927f474cf53d0000000000000000000000000000000000000000000000000000000084528c600485015260248401528560448401525af190811561076657879161074d575b50505b388080610444565b81610757916109f4565b610762578538610742565b8580fd5b6040513d89823e3d90fd5b8880fd5b90919250604051907f23b872dd00000000000000000000000000000000000000000000000000000000825233600483015230602483015260448201526020816064818c865af18015610905579160209161081f936108ea575b508a5190898b6040518096819582947f095ea7b300000000000000000000000000000000000000000000000000000000845260048401602090939291936001600160a01b0360408201951681520152565b03925af180156108df57906001600160a01b0392916108c2575b50511696516001600160a01b0383511690863b156108be57604051987f617ba037000000000000000000000000000000000000000000000000000000008a5260048a015260248901526044880152856064880152858760848183895af18015610672576108a9575b859650610745565b949095816108b6916109f4565b9385906108a1565b8780fd5b6108da9060203d6020116106265761061a81836109f4565b610839565b6040513d8a823e3d90fd5b61090090833d85116106265761061a81836109f4565b6107ce565b6040513d8b823e3d90fd5b506020813d602011610948575b8161092a602093836109f4565b81010312610655576109436001600160a01b0391610a2c565b610424565b3d915061091d565b602487634e487b7160e01b81526041600452fd5b602482634e487b7160e01b81526041600452fd5b503461019857602036600319011261019857602061099c6109976109ad565b610bda565b6001600160a01b0360405191168152f35b600435906001600160a01b03821682036109c357565b600080fd5b602435906001600160a01b03821682036109c357565b606435906001600160a01b03821682036109c357565b90601f8019910116810190811067ffffffffffffffff821117610a1657604052565b634e487b7160e01b600052604160045260246000fd5b51906001600160a01b03821682036109c357565b51906fffffffffffffffffffffffffffffffff821682036109c357565b809103906101e082126109c3576000604051926101e0840184811067ffffffffffffffff821117610bc657604052602013610198576040516020810181811067ffffffffffffffff821117610bc657604052825181528352610ac160208301610a40565b6020840152610ad260408301610a40565b6040840152610ae360608301610a40565b6060840152610af460808301610a40565b6080840152610b0560a08301610a40565b60a084015260c082015164ffffffffff81168103610bc25760c084015260e08201519061ffff821682036101985750610bb9916101c09160e0850152610b4e6101008201610a2c565b610100850152610b616101208201610a2c565b610120850152610b746101408201610a2c565b610140850152610b876101608201610a2c565b610160850152610b9a6101808201610a40565b610180850152610bad6101a08201610a40565b6101a085015201610a40565b6101c082015290565b5080fd5b602483634e487b7160e01b81526041600452fd5b60049060206001600160a01b03600154166040519384809263026b1d5f60e01b82525afa918215610c7a57600092610c86575b506001600160a01b0360246101e0928260405195869485936335ea6a7560e01b8552166004840152165afa908115610c7a576001600160a01b039161014091600091610c5b575b5001511690565b610c7491506101e03d811161012c5761011e81836109f4565b38610c54565b6040513d6000823e3d90fd5b9091506020813d602011610cc9575b81610ca2602093836109f4565b810103126109c3576001600160a01b036024610cc06101e093610a2c565b93925050610c0d565b3d9150610c95565b908160209103126109c3575180151581036109c35790565b15610cf15750565b604051907f08c379a0000000000000000000000000000000000000000000000000000000008252602060048301528181519182602483015260005b838110610d4e5750508160006044809484010152601f80199101168101030190fd5b60208282018101516044878401015285935001610d2c565b91908260c09103126109c35781519160208101519160408201519160608101519160a0608083015192015190565b8115610d9e570490565b634e487b7160e01b600052601260045260246000fd5b908160209103126109c3575160ff811681036109c35790565b81810292918115918404141715610de057565b634e487b7160e01b600052601160045260246000fd5b60ff16604d8111610de057600a0a90565b606081016001600160a01b038151161561126e575b6001600160a01b036001541660405163026b1d5f60e01b8152602081600481855afa908115610c7a57600091611226575b5060206001600160a01b036004921692604051928380927ffca513a80000000000000000000000000000000000000000000000000000000082525afa8015610c7a576000906111e6575b6001600160a01b03915016926001600160a01b0381511660405190632fe4a15f60e21b8252600482015260c081602481865afa8015610c7a576000916000916111ba575b50610f069060405190610eef6040836109f4565b600382526234303360e81b60208301521515610ce9565b6080820192610f37606485511160405190610f226040836109f4565b600382526234303360e81b6020830152610ce9565b60208301926001600160a01b038451166040519063b3596f0760e01b825260048201526020816024818b5afa908115610c7a57600091611188575b5060206001600160a01b038851166024604051809b819363b3596f0760e01b835260048301525afa978815610c7a57600098611154575b506101e06001600160a01b038851166024604051809681936335ea6a7560e01b835260048301525afa8015610c7a576001600160a01b03606461ffff602093600497600091611135575b50515116049651166040519485809263313ce56760e01b82525afa918215610c7a5761103f93600093611107575b50611039916040611033920151610dcd565b91610df6565b90610d94565b818111156110fc5781810391818311610de0576064830292830460641491141715610de0576001600160a01b0361107a600493602093610d94565b9451166040519283809263313ce56760e01b82525afa938415610c7a576110bc6110c9946110b66064976110c1956000916110cd575b50610df6565b90610dcd565b610d94565b905190610dcd565b0490565b6110ef915060203d6020116110f5575b6110e781836109f4565b810190610db4565b386110b0565b503d6110dd565b505050505050600090565b61103391935091604061112b6110399460203d6020116110f5576110e781836109f4565b9492505091611021565b61114e91506101e03d811161012c5761011e81836109f4565b38610ff3565b9097506020813d602011611180575b81611170602093836109f4565b810103126109c357519638610fa9565b3d9150611163565b90506020813d6020116111b2575b816111a3602093836109f4565b810103126109c3575138610f72565b3d9150611196565b610f0692506111d8915060c03d60c0116102575761024381836109f4565b959450505090509190610edb565b506020813d60201161121e575b81611200602093836109f4565b810103126109c3576112196001600160a01b0391610a2c565b610e97565b3d91506111f3565b90506020813d602011611266575b81611241602093836109f4565b810103126109c35760206001600160a01b0361125e600493610a2c565b925050610e4d565b3d9150611234565b73b123dce044edf0a755505d9623fba16c0f41cae98152610e1c56fea26469706673582212202051a1cda7479790c6c31b2e7c2b4b32cfc005dc0f524d9e4d0fa2dd8c79690964736f6c634300081c0033",
  "linkReferences": {},
  "deployedLinkReferences": {}
}