{
  "_format": "hh-sol-artifact-1",
  "contractName": "AaveV3",
  "sourceName": "contracts/modules/AaveV3.sol",
  "abi": [
    {
      "inputs": [
        {
          "internalType": "address",
          "name": "wethGateway_",
          "type": "address"
        },
        {
          "internalType": "address",
          "name": "poolAddressesProvider_",
          "type": "address"
        }
      ],
      "stateMutability": "nonpayable",
      "type": "constructor"
    },
    {
      "inputs": [
        {
          "components": [
            {
              "internalType": "address",
              "name": "payer",
              "type": "address"
            },
            {
              "internalType": "address",
              "name": "supplyAsset",
              "type": "address"
            },
            {
              "internalType": "uint256",
              "name": "requiredSupplyMin",
              "type": "uint256"
            },
            {
              "internalType": "address",
              "name": "borrowAsset",
              "type": "address"
            },
            {
              "internalType": "uint256",
              "name": "borrowAmount",
              "type": "uint256"
            },
            {
              "components": [
                {
                  "internalType": "uint256",
                  "name": "deadline",
                  "type": "uint256"
                },
                {
                  "internalType": "uint8",
                  "name": "v",
                  "type": "uint8"
                },
                {
                  "internalType": "bytes32",
                  "name": "r",
                  "type": "bytes32"
                },
                {
                  "internalType": "bytes32",
                  "name": "s",
                  "type": "bytes32"
                }
              ],
              "internalType": "struct Params.Signature",
              "name": "signature",
              "type": "tuple"
            }
          ],
          "internalType": "struct Params.ExecuteLoan",
          "name": "params",
          "type": "tuple"
        }
      ],
      "name": "execute",
      "outputs": [],
      "stateMutability": "payable",
      "type": "function"
    },
    {
      "inputs": [
        {
          "internalType": "address",
          "name": "asset",
          "type": "address"
        }
      ],
      "name": "getVariableDebtTokenAddresses",
      "outputs": [
        {
          "internalType": "address",
          "name": "variableDebtToken",
          "type": "address"
        }
      ],
      "stateMutability": "view",
      "type": "function"
    },
    {
      "inputs": [
        {
          "components": [
            {
              "internalType": "address",
              "name": "payer",
              "type": "address"
            },
            {
              "internalType": "address",
              "name": "borrowAsset",
              "type": "address"
            },
            {
              "internalType": "uint256",
              "name": "borrowAmount",
              "type": "uint256"
            },
            {
              "internalType": "address",
              "name": "supplyAsset",
              "type": "address"
            },
            {
              "internalType": "uint256",
              "name": "healthFactorMultiplier",
              "type": "uint256"
            }
          ],
          "internalType": "struct Params.RequiredSupply",
          "name": "params",
          "type": "tuple"
        }
      ],
      "name": "requiredSupplyMin",
      "outputs": [
        {
          "internalType": "uint256",
          "name": "additionalCollateral",
          "type": "uint256"
        }
      ],
      "stateMutability": "view",
      "type": "function"
    }
  ],
  "bytecode": "0x608034608657601f61112738819003918201601f19168301916001600160401b03831184841017608b578084926040948552833981010312608657604b602060458360a1565b920160a1565b600080546001600160a01b039384166001600160a01b0319918216179091556001805492909316911617905560405161107290816100b58239f35b600080fd5b634e487b7160e01b600052604160045260246000fd5b51906001600160a01b038216820360865756fe6080604052600436101561001257600080fd5b6000803560e01c80630a8da7411461071b5780637b4efcfd146100cc5763f293357b1461003e57600080fd5b346100c95760a03660031901126100c9576040519060a082019082821067ffffffffffffffff8311176100b55760206100ad848460405261007d610750565b815261008761076b565b83820152604435604082015261009b610781565b60608201526084356080820152610b8c565b604051908152f35b80634e487b7160e01b602492526041600452fd5b80fd5b506101203660031901126100c9576040519060c0820182811067ffffffffffffffff82111761070757604052610100610750565b825261010a61076b565b6020830190815260408301926044358452610123610781565b6060820190815260808201916084358352608060a319360112610411576040516080810181811067ffffffffffffffff8211176106f35760405260a435815260c43560ff811681036103f857602082015260e435604082015261010435606082015260a08201908152600460206001600160a01b03600154166040519283809263026b1d5f60e01b82525afa80156105095787906106b3575b6001600160a01b03915016946001600160a01b0387541690885180610424575b5050508596506001600160a01b036101f68185511661097d565b166001600160a01b03835116918551905180519360ff6020830151166060604084015193015194803b15610420578b9560e4948793604051998a9889977f0b52d558000000000000000000000000000000000000000000000000000000008952600489015230602489015260448801526064870152608486015260a485015260c48401525af19081156104155786916103fc575b50506001600160a01b03825116906001600160a01b03845191511694803b156103f85786928360a49260405198899586947fa415bcad000000000000000000000000000000000000000000000000000000008652600486015260248501526002604485015282606485015260848401525af19283156103ed5784936103d0575b50516001600160a01b03168061034757508180915181811561033e575b3390f1156103325780f35b604051903d90823e3d90fd5b506108fc610327565b90516040517fa9059cbb00000000000000000000000000000000000000000000000000000000815233600482015260248101919091529260209250839160449183915af180156103c557610399575080f35b6103ba9060203d6020116103be575b6103b28183610797565b810190610a84565b5080f35b503d6103a8565b6040513d84823e3d90fd5b836103dd91949294610797565b6103e95782913861030a565b5050fd5b6040513d86823e3d90fd5b8680fd5b8161040691610797565b61041157843861028a565b8480fd5b6040513d88823e3d90fd5b8b80fd5b81516001600160a01b03169081610518575050508761048088995134101560405190610451604083610797565b600182527f33000000000000000000000000000000000000000000000000000000000000006020830152610a9c565b51906001600160a01b0384511690803b15610514576064899260405194859384927f474cf53d0000000000000000000000000000000000000000000000000000000084528c600485015260248401528560448401525af19081156105095787916104f0575b50505b3880806101dc565b816104fa91610797565b6105055785386104e5565b8580fd5b6040513d89823e3d90fd5b8880fd5b90919250604051907f23b872dd00000000000000000000000000000000000000000000000000000000825233600483015230602483015260448201526020816064818c865af180156106a857916020916105c29361068d575b508a5190898b6040518096819582947f095ea7b300000000000000000000000000000000000000000000000000000000845260048401602090939291936001600160a01b0360408201951681520152565b03925af1801561068257906001600160a01b039291610665575b50511696516001600160a01b0383511690863b1561066157604051987f617ba037000000000000000000000000000000000000000000000000000000008a5260048a015260248901526044880152856064880152858760848183895af180156104155761064c575b8596506104e8565b9490958161065991610797565b938590610644565b8780fd5b61067d9060203d6020116103be576103b28183610797565b6105dc565b6040513d8a823e3d90fd5b6106a390833d85116103be576103b28183610797565b610571565b6040513d8b823e3d90fd5b506020813d6020116106eb575b816106cd60209383610797565b810103126103f8576106e66001600160a01b03916107cf565b6101bc565b3d91506106c0565b602487634e487b7160e01b81526041600452fd5b602482634e487b7160e01b81526041600452fd5b50346100c95760203660031901126100c957602061073f61073a610750565b61097d565b6001600160a01b0360405191168152f35b600435906001600160a01b038216820361076657565b600080fd5b602435906001600160a01b038216820361076657565b606435906001600160a01b038216820361076657565b90601f8019910116810190811067ffffffffffffffff8211176107b957604052565b634e487b7160e01b600052604160045260246000fd5b51906001600160a01b038216820361076657565b51906fffffffffffffffffffffffffffffffff8216820361076657565b809103906101e08212610766576000604051926101e0840184811067ffffffffffffffff821117610969576040526020136100c9576040516020810181811067ffffffffffffffff82111761096957604052825181528352610864602083016107e3565b6020840152610875604083016107e3565b6040840152610886606083016107e3565b6060840152610897608083016107e3565b60808401526108a860a083016107e3565b60a084015260c082015164ffffffffff811681036109655760c084015260e08201519061ffff821682036100c9575061095c916101c09160e08501526108f161010082016107cf565b61010085015261090461012082016107cf565b61012085015261091761014082016107cf565b61014085015261092a61016082016107cf565b61016085015261093d61018082016107e3565b6101808501526109506101a082016107e3565b6101a0850152016107e3565b6101c082015290565b5080fd5b602483634e487b7160e01b81526041600452fd5b60049060206001600160a01b03600154166040519384809263026b1d5f60e01b82525afa918215610a2d57600092610a39575b506001600160a01b0360246101e0928260405195869485936335ea6a7560e01b8552166004840152165afa908115610a2d576001600160a01b0391610140916000916109fe575b5001511690565b610a2091506101e03d8111610a26575b610a188183610797565b810190610800565b386109f7565b503d610a0e565b6040513d6000823e3d90fd5b9091506020813d602011610a7c575b81610a5560209383610797565b81010312610766576001600160a01b036024610a736101e0936107cf565b939250506109b0565b3d9150610a48565b90816020910312610766575180151581036107665790565b15610aa45750565b604051907f08c379a0000000000000000000000000000000000000000000000000000000008252602060048301528181519182602483015260005b838110610b015750508160006044809484010152601f80199101168101030190fd5b60208282018101516044878401015285935001610adf565b8115610b23570490565b634e487b7160e01b600052601260045260246000fd5b90816020910312610766575160ff811681036107665790565b81810292918115918404141715610b6557565b634e487b7160e01b600052601160045260246000fd5b60ff16604d8111610b6557600a0a90565b606081016001600160a01b0381511615611020575b6001600160a01b036001541660405163026b1d5f60e01b8152602081600481855afa908115610a2d57600091610fd8575b5060206001600160a01b036004921692604051928380927ffca513a80000000000000000000000000000000000000000000000000000000082525afa8015610a2d57600090610f98575b6001600160a01b03915016926001600160a01b03815116604051907fbf92857c000000000000000000000000000000000000000000000000000000008252600482015260c081602481865afa8015610a2d576000908190610f58575b610ca491925060405190610c8d604083610797565b600382526234303360e81b60208301521515610a9c565b6080820192610cd5606485511160405190610cc0604083610797565b600382526234303360e81b6020830152610a9c565b60208301926001600160a01b038451166040519063b3596f0760e01b825260048201526020816024818b5afa908115610a2d57600091610f26575b5060206001600160a01b038851166024604051809b819363b3596f0760e01b835260048301525afa978815610a2d57600098610ef2575b506101e06001600160a01b038851166024604051809681936335ea6a7560e01b835260048301525afa8015610a2d576001600160a01b03606461ffff602093600497600091610ed3575b50515116049651166040519485809263313ce56760e01b82525afa918215610a2d57610ddd93600093610ea5575b50610dd7916040610dd1920151610b52565b91610b7b565b90610b19565b81811115610e9a5781810391818311610b65576064830292830460641491141715610b65576001600160a01b03610e18600493602093610b19565b9451166040519283809263313ce56760e01b82525afa938415610a2d57610e5a610e6794610e54606497610e5f95600091610e6b575b50610b7b565b90610b52565b610b19565b905190610b52565b0490565b610e8d915060203d602011610e93575b610e858183610797565b810190610b39565b38610e4e565b503d610e7b565b505050505050600090565b610dd1919350916040610ec9610dd79460203d602011610e9357610e858183610797565b9492505091610dbf565b610eec91506101e03d8111610a2657610a188183610797565b38610d91565b9097506020813d602011610f1e575b81610f0e60209383610797565b8101031261076657519638610d47565b3d9150610f01565b90506020813d602011610f50575b81610f4160209383610797565b81010312610766575138610d10565b3d9150610f34565b5060c0823d60c011610f90575b81610f7260c09383610797565b810103126100c95750610ca460a06040830151920151829150610c78565b3d9150610f65565b506020813d602011610fd0575b81610fb260209383610797565b8101031261076657610fcb6001600160a01b03916107cf565b610c1c565b3d9150610fa5565b90506020813d602011611018575b81610ff360209383610797565b810103126107665760206001600160a01b036110106004936107cf565b925050610bd2565b3d9150610fe6565b73b123dce044edf0a755505d9623fba16c0f41cae98152610ba156fea26469706673582212208457f8c61cb98818ef1f9d943c270b89a9f4d2046a4088420cdd7eba03d4299964736f6c634300081c0033",
  "linkReferences": {},
  "deployedLinkReferences": {}
}