{
  "_format": "hh-sol-artifact-1",
  "contractName": "BeamOracle",
  "sourceName": "contracts/oracle/BeamOracle.sol",
  "abi": [
    {
      "inputs": [
        {
          "internalType": "address",
          "name": "usd",
          "type": "address"
        },
        {
          "internalType": "contract IChainlink",
          "name": "chainlink",
          "type": "address"
        }
      ],
      "stateMutability": "nonpayable",
      "type": "constructor"
    },
    {
      "inputs": [
        {
          "internalType": "address",
          "name": "token",
          "type": "address"
        },
        {
          "internalType": "uint256",
          "name": "amountInUsd",
          "type": "uint256"
        }
      ],
      "name": "getAmountFromUsd",
      "outputs": [
        {
          "internalType": "uint256",
          "name": "amountOut",
          "type": "uint256"
        }
      ],
      "stateMutability": "view",
      "type": "function"
    },
    {
      "inputs": [
        {
          "internalType": "address",
          "name": "token",
          "type": "address"
        },
        {
          "internalType": "uint256",
          "name": "amountIn",
          "type": "uint256"
        }
      ],
      "name": "getAmountInUsd",
      "outputs": [
        {
          "internalType": "uint256",
          "name": "amountInUsd",
          "type": "uint256"
        }
      ],
      "stateMutability": "view",
      "type": "function"
    }
  ],
  "bytecode": "0x60c03461009857601f61043438819003918201601f19168301916001600160401b0383118484101761009d578084926040948552833981010312610098578051906001600160a01b03821682036100985760200151906001600160a01b03821682036100985760805260a05260405161038090816100b4823960805181818160870152610211015260a051818181604e01526101a70152f35b600080fd5b634e487b7160e01b600052604160045260246000fdfe608080604052600436101561001357600080fd5b60003560e01c908163321f82b11461018c575063a740d8e31461003557600080fd5b34610187576100433661027a565b906001600160a01b037f00000000000000000000000000000000000000000000000000000000000000001690604051906341976e0960e01b82526001600160a01b037f0000000000000000000000000000000000000000000000000000000000000000166004830152604082602481865afa91821561014c57600092610158575b506001600160a01b036024604092835195869384926341976e0960e01b84521660048301525afa801561014c5760209361011093600092610118575b5061010b9192610301565b61032a565b604051908152f35b61010b925061013e9060403d604011610145575b61013681836102a0565b8101906102d8565b5091610100565b503d61012c565b6040513d6000823e3d90fd5b6040919250602461017d6001600160a01b0392843d86116101455761013681836102a0565b50939250506100c4565b600080fd5b346101875761019a3661027a565b91906001600160a01b03807f000000000000000000000000000000000000000000000000000000000000000016916341976e0960e01b8452166004830152604082602481845afa90811561014c57602492600092610257575b506040908151938480926341976e0960e01b82526001600160a01b037f00000000000000000000000000000000000000000000000000000000000000001660048301525afa801561014c5760209361011093600092610118575061010b9192610301565b604091925061027290823d84116101455761013681836102a0565b5091906101f3565b6040906003190112610187576004356001600160a01b0381168103610187579060243590565b90601f8019910116810190811067ffffffffffffffff8211176102c257604052565b634e487b7160e01b600052604160045260246000fd5b9190826040910312610187576020825192015169ffffffffffffffffffff811681036101875790565b8181029291811591840414171561031457565b634e487b7160e01b600052601160045260246000fd5b8115610334570490565b634e487b7160e01b600052601260045260246000fdfea264697066735822122078fc594473b41f3db0d95dd4dd0cd342ecc11050dbf8ef3b7197addef748c2f964736f6c634300081c0033",
  "linkReferences": {},
  "deployedLinkReferences": {}
}