{
  "_format": "hh-sol-artifact-1",
  "contractName": "BeamOracle",
  "sourceName": "contracts/oracle/BeamOracle.sol",
  "abi": [
    {
      "inputs": [
        {
          "internalType": "contract IChainlink",
          "name": "chainlink",
          "type": "address"
        }
      ],
      "stateMutability": "nonpayable",
      "type": "constructor"
    },
    {
      "inputs": [
        {
          "internalType": "address",
          "name": "token",
          "type": "address"
        },
        {
          "internalType": "uint256",
          "name": "amountInUsd",
          "type": "uint256"
        },
        {
          "internalType": "uint256",
          "name": "multiplier",
          "type": "uint256"
        }
      ],
      "name": "getAmountFromUsd",
      "outputs": [
        {
          "internalType": "uint256",
          "name": "amountOut",
          "type": "uint256"
        }
      ],
      "stateMutability": "view",
      "type": "function"
    },
    {
      "inputs": [
        {
          "internalType": "address",
          "name": "token",
          "type": "address"
        },
        {
          "internalType": "uint256",
          "name": "amountIn",
          "type": "uint256"
        }
      ],
      "name": "getAmountInUsd",
      "outputs": [
        {
          "internalType": "uint256",
          "name": "amountInUsd",
          "type": "uint256"
        }
      ],
      "stateMutability": "view",
      "type": "function"
    }
  ],
  "bytecode": "0x60a034606c57601f61032c38819003918201601f19168301916001600160401b03831184841017607157808492602094604052833981010312606c57516001600160a01b0381168103606c576080526040516102a490816100888239608051818181607a01526101640152f35b600080fd5b634e487b7160e01b600052604160045260246000fdfe608080604052600436101561001357600080fd5b60003560e01c908163321f82b114610123575063d08232811461003557600080fd5b3461011e57606036600319011261011e5761004e6101ce565b6001600160a01b03604051916341976e0960e01b83521660048201526040816024816001600160a01b037f0000000000000000000000000000000000000000000000000000000000000000165afa908115610112576000916100e2575b506100ba604435602435610245565b81156100cc5760209160405191048152f35b634e487b7160e01b600052601260045260246000fd5b610104915060403d60401161010b575b6100fc81836101e4565b81019061021c565b50386100ab565b503d6100f2565b6040513d6000823e3d90fd5b600080fd5b3461011e57604036600319011261011e576001600160a01b036101446101ce565b6341976e0960e01b83521660048201526040816024816001600160a01b037f0000000000000000000000000000000000000000000000000000000000000000165afa908115610112576020916101a6916000916101ae575b5060243590610245565b604051908152f35b6101c7915060403d60401161010b576100fc81836101e4565b508361019c565b600435906001600160a01b038216820361011e57565b90601f8019910116810190811067ffffffffffffffff82111761020657604052565b634e487b7160e01b600052604160045260246000fd5b919082604091031261011e576020825192015169ffffffffffffffffffff8116810361011e5790565b8181029291811591840414171561025857565b634e487b7160e01b600052601160045260246000fdfea26469706673582212204979095e83da19e48ed2553a6016c536df7653027b3d0eba357b922b12adab9764736f6c634300081c0033",
  "linkReferences": {},
  "deployedLinkReferences": {}
}