{
  "_format": "hh-sol-artifact-1",
  "contractName": "AddressLib",
  "sourceName": "contracts/libs/AddressLib.sol",
  "abi": [
    {
      "inputs": [
        {
          "internalType": "address[]",
          "name": "value",
          "type": "address[]"
        }
      ],
      "name": "every",
      "outputs": [
        {
          "internalType": "bool",
          "name": "",
          "type": "bool"
        }
      ],
      "stateMutability": "pure",
      "type": "function"
    },
    {
      "inputs": [
        {
          "internalType": "address[]",
          "name": "value",
          "type": "address[]"
        }
      ],
      "name": "requireEvery",
      "outputs": [],
      "stateMutability": "pure",
      "type": "function"
    },
    {
      "inputs": [
        {
          "internalType": "address",
          "name": "value",
          "type": "address"
        }
      ],
      "name": "requireOne",
      "outputs": [],
      "stateMutability": "pure",
      "type": "function"
    }
  ],
  "bytecode": "0x608080604052346019576102c3908161001f823930815050f35b600080fdfe6080604052600436101561001257600080fd5b60003560e01c806311f599a5146100fe57806343e3cc1d146100e05763bf6341cf1461003d57600080fd5b60203660031901126100db5760043573ffffffffffffffffffffffffffffffffffffffff81168091036100db571561007157005b608460405162461bcd60e51b815260206004820152602160248201527f416464726573734c69623a205a65726f20616464726573732070726f7669646560448201527f64000000000000000000000000000000000000000000000000000000000000006064820152fd5b600080fd5b60206100f46100ee3661018d565b90610241565b6040519015158152f35b6101073661018d565b60005b81811061011357005b73ffffffffffffffffffffffffffffffffffffffff61013b6101368385876101e1565b610220565b16156101495760010161010a565b606460405162461bcd60e51b815260206004820152601e60248201527f416464726573734c69623a205a65726f206164647265737320666f756e6400006044820152fd5b9060206003198301126100db5760043567ffffffffffffffff81116100db57826023820112156100db5780600401359267ffffffffffffffff84116100db5760248460051b830101116100db576024019190565b91908110156101f15760051b0190565b7f4e487b7100000000000000000000000000000000000000000000000000000000600052603260045260246000fd5b3573ffffffffffffffffffffffffffffffffffffffff811681036100db5790565b9060005b81811061025457505050600190565b73ffffffffffffffffffffffffffffffffffffffff6102776101368385876101e1565b161561028557600101610245565b50505060009056fea264697066735822122027ef50aae820e748a530789c42a954e100814c138a5c83d795977925f6d111cf64736f6c634300081c0033",
  "linkReferences": {},
  "deployedLinkReferences": {}
}