{
  "_format": "hh-sol-artifact-1",
  "contractName": "IntegerLib",
  "sourceName": "contracts/libs/IntegerLib.sol",
  "abi": [
    {
      "inputs": [
        {
          "internalType": "uint256[]",
          "name": "value",
          "type": "uint256[]"
        }
      ],
      "name": "every",
      "outputs": [
        {
          "internalType": "bool",
          "name": "",
          "type": "bool"
        }
      ],
      "stateMutability": "pure",
      "type": "function"
    },
    {
      "inputs": [
        {
          "internalType": "uint256[]",
          "name": "value",
          "type": "uint256[]"
        }
      ],
      "name": "requireEvery",
      "outputs": [],
      "stateMutability": "pure",
      "type": "function"
    },
    {
      "inputs": [
        {
          "internalType": "uint256",
          "name": "value",
          "type": "uint256"
        }
      ],
      "name": "requireOne",
      "outputs": [],
      "stateMutability": "pure",
      "type": "function"
    }
  ],
  "bytecode": "0x6080806040523460195761024f908161001f823930815050f35b600080fdfe6080604052600436101561001257600080fd5b60003560e01c8063061c3ad5146101345780638be4c965146100af5763d0ca35ed1461003d57600080fd5b61004636610152565b60005b81811061005257005b61005d8183856101a6565b351561006b57600101610049565b606460405162461bcd60e51b815260206004820152601e60248201527f496e74656765724c69623a205a65726f2075696e7432353620666f756e6400006044820152fd5b602036600319011261012f57600435156100c557005b608460405162461bcd60e51b815260206004820152602160248201527f496e74656765724c69623a205a65726f2075696e743235362070726f7669646560448201527f64000000000000000000000000000000000000000000000000000000000000006064820152fd5b600080fd5b602061014861014236610152565b906101e5565b6040519015158152f35b90602060031983011261012f5760043567ffffffffffffffff811161012f578260238201121561012f5780600401359267ffffffffffffffff841161012f5760248460051b8301011161012f576024019190565b91908110156101b65760051b0190565b7f4e487b7100000000000000000000000000000000000000000000000000000000600052603260045260246000fd5b9060005b8181106101f857505050600190565b6102038183856101a6565b3515610211576001016101e9565b50505060009056fea2646970667358221220b0fe35e6cd416c1e78e937d38f723e67f063398f45e58d194c052a6b53e58b0464736f6c634300081c0033",
  "linkReferences": {},
  "deployedLinkReferences": {}
}