{
  "_format": "hh-sol-artifact-1",
  "contractName": "Beam",
  "sourceName": "contracts/Beam.sol",
  "abi": [
    {
      "inputs": [
        {
          "internalType": "contract IBeamEvents",
          "name": "events_",
          "type": "address"
        },
        {
          "internalType": "contract IMerchant",
          "name": "merchant_",
          "type": "address"
        },
        {
          "internalType": "contract IOneTimeTransaction",
          "name": "oneTimeTransaction_",
          "type": "address"
        },
        {
          "internalType": "contract IRecurrentTransaction",
          "name": "recurrentTransaction_",
          "type": "address"
        },
        {
          "internalType": "contract IHookManager",
          "name": "hookManager_",
          "type": "address"
        },
        {
          "internalType": "contract IAaveV3",
          "name": "aave_",
          "type": "address"
        },
        {
          "internalType": "contract IUniswap",
          "name": "uniswap_",
          "type": "address"
        }
      ],
      "stateMutability": "nonpayable",
      "type": "constructor"
    },
    {
      "inputs": [
        {
          "internalType": "address",
          "name": "owner",
          "type": "address"
        }
      ],
      "name": "OwnableInvalidOwner",
      "type": "error"
    },
    {
      "inputs": [
        {
          "internalType": "address",
          "name": "account",
          "type": "address"
        }
      ],
      "name": "OwnableUnauthorizedAccount",
      "type": "error"
    },
    {
      "anonymous": false,
      "inputs": [
        {
          "indexed": true,
          "internalType": "address",
          "name": "previousOwner",
          "type": "address"
        },
        {
          "indexed": true,
          "internalType": "address",
          "name": "newOwner",
          "type": "address"
        }
      ],
      "name": "OwnershipTransferred",
      "type": "event"
    },
    {
      "inputs": [
        {
          "components": [
            {
              "internalType": "bytes32",
              "name": "transactionId",
              "type": "bytes32"
            }
          ],
          "internalType": "struct Params.CancelRecurrentTransaction",
          "name": "params",
          "type": "tuple"
        }
      ],
      "name": "cancelRecurrentTransaction",
      "outputs": [],
      "stateMutability": "nonpayable",
      "type": "function"
    },
    {
      "inputs": [
        {
          "components": [
            {
              "internalType": "bytes32",
              "name": "transactionId",
              "type": "bytes32"
            },
            {
              "internalType": "address",
              "name": "tokenB",
              "type": "address"
            },
            {
              "internalType": "uint256",
              "name": "slippage",
              "type": "uint256"
            },
            {
              "internalType": "uint256",
              "name": "healthFactorMultiplier",
              "type": "uint256"
            },
            {
              "internalType": "enum Enums.TransactionRoute",
              "name": "route",
              "type": "uint8"
            },
            {
              "components": [
                {
                  "internalType": "uint256",
                  "name": "deadline",
                  "type": "uint256"
                },
                {
                  "internalType": "uint8",
                  "name": "v",
                  "type": "uint8"
                },
                {
                  "internalType": "bytes32",
                  "name": "r",
                  "type": "bytes32"
                },
                {
                  "internalType": "bytes32",
                  "name": "s",
                  "type": "bytes32"
                }
              ],
              "internalType": "struct Params.Signature",
              "name": "signature",
              "type": "tuple"
            }
          ],
          "internalType": "struct Params.FulfillOneTimeTransaction",
          "name": "params",
          "type": "tuple"
        }
      ],
      "name": "fulfillOneTimeTransaction",
      "outputs": [],
      "stateMutability": "payable",
      "type": "function"
    },
    {
      "inputs": [
        {
          "components": [
            {
              "internalType": "bytes32",
              "name": "transactionId",
              "type": "bytes32"
            },
            {
              "internalType": "address",
              "name": "tokenB",
              "type": "address"
            },
            {
              "internalType": "uint256",
              "name": "slippage",
              "type": "uint256"
            },
            {
              "internalType": "uint256",
              "name": "healthFactorMultiplier",
              "type": "uint256"
            },
            {
              "internalType": "enum Enums.TransactionRoute",
              "name": "route",
              "type": "uint8"
            },
            {
              "components": [
                {
                  "internalType": "uint256",
                  "name": "deadline",
                  "type": "uint256"
                },
                {
                  "internalType": "uint8",
                  "name": "v",
                  "type": "uint8"
                },
                {
                  "internalType": "bytes32",
                  "name": "r",
                  "type": "bytes32"
                },
                {
                  "internalType": "bytes32",
                  "name": "s",
                  "type": "bytes32"
                }
              ],
              "internalType": "struct Params.Signature",
              "name": "signature",
              "type": "tuple"
            }
          ],
          "internalType": "struct Params.FulfillRecurrentTransaction",
          "name": "params",
          "type": "tuple"
        }
      ],
      "name": "fulfillRecurrentTransaction",
      "outputs": [],
      "stateMutability": "payable",
      "type": "function"
    },
    {
      "inputs": [
        {
          "components": [
            {
              "internalType": "address",
              "name": "merchant",
              "type": "address"
            },
            {
              "internalType": "address",
              "name": "payer",
              "type": "address"
            },
            {
              "internalType": "address",
              "name": "token",
              "type": "address"
            },
            {
              "internalType": "uint256",
              "name": "amount",
              "type": "uint256"
            }
          ],
          "internalType": "struct Params.AdjustTokenAmount",
          "name": "params",
          "type": "tuple"
        }
      ],
      "name": "getAdjustTokenAmount",
      "outputs": [
        {
          "internalType": "address",
          "name": "adjustedToken",
          "type": "address"
        },
        {
          "internalType": "uint256",
          "name": "adjustedAmount",
          "type": "uint256"
        }
      ],
      "stateMutability": "view",
      "type": "function"
    },
    {
      "inputs": [
        {
          "components": [
            {
              "internalType": "address",
              "name": "to",
              "type": "address"
            },
            {
              "internalType": "bytes32",
              "name": "transactionId",
              "type": "bytes32"
            },
            {
              "internalType": "string",
              "name": "URI",
              "type": "string"
            }
          ],
          "internalType": "struct Params.MintReceipt",
          "name": "params",
          "type": "tuple"
        }
      ],
      "name": "mintOneTimeTransactionReceipt",
      "outputs": [],
      "stateMutability": "nonpayable",
      "type": "function"
    },
    {
      "inputs": [
        {
          "components": [
            {
              "internalType": "address",
              "name": "to",
              "type": "address"
            },
            {
              "internalType": "bytes32",
              "name": "transactionId",
              "type": "bytes32"
            },
            {
              "internalType": "string",
              "name": "URI",
              "type": "string"
            }
          ],
          "internalType": "struct Params.MintReceipt",
          "name": "params",
          "type": "tuple"
        }
      ],
      "name": "mintRecurrentTransactionReceipt",
      "outputs": [],
      "stateMutability": "nonpayable",
      "type": "function"
    },
    {
      "inputs": [
        {
          "components": [
            {
              "internalType": "address[]",
              "name": "payers",
              "type": "address[]"
            },
            {
              "internalType": "address",
              "name": "merchant",
              "type": "address"
            },
            {
              "internalType": "uint256[]",
              "name": "amounts",
              "type": "uint256[]"
            },
            {
              "internalType": "address",
              "name": "token",
              "type": "address"
            },
            {
              "internalType": "address",
              "name": "tokenB",
              "type": "address"
            },
            {
              "internalType": "string",
              "name": "description",
              "type": "string"
            },
            {
              "components": [
                {
                  "internalType": "uint8",
                  "name": "schemaVersion",
                  "type": "uint8"
                },
                {
                  "internalType": "string",
                  "name": "value",
                  "type": "string"
                }
              ],
              "internalType": "struct Types.Metadata",
              "name": "metadata",
              "type": "tuple"
            },
            {
              "internalType": "uint256",
              "name": "slippage",
              "type": "uint256"
            },
            {
              "internalType": "uint256",
              "name": "healthFactorMultiplier",
              "type": "uint256"
            },
            {
              "internalType": "enum Enums.TransactionRoute",
              "name": "route",
              "type": "uint8"
            },
            {
              "components": [
                {
                  "internalType": "uint256",
                  "name": "deadline",
                  "type": "uint256"
                },
                {
                  "internalType": "uint8",
                  "name": "v",
                  "type": "uint8"
                },
                {
                  "internalType": "bytes32",
                  "name": "r",
                  "type": "bytes32"
                },
                {
                  "internalType": "bytes32",
                  "name": "s",
                  "type": "bytes32"
                }
              ],
              "internalType": "struct Params.Signature",
              "name": "signature",
              "type": "tuple"
            }
          ],
          "internalType": "struct Params.CreateOneTimeTransaction",
          "name": "params",
          "type": "tuple"
        }
      ],
      "name": "oneTimeTransaction",
      "outputs": [],
      "stateMutability": "payable",
      "type": "function"
    },
    {
      "inputs": [],
      "name": "owner",
      "outputs": [
        {
          "internalType": "address",
          "name": "",
          "type": "address"
        }
      ],
      "stateMutability": "view",
      "type": "function"
    },
    {
      "inputs": [
        {
          "components": [
            {
              "internalType": "address",
              "name": "merchant",
              "type": "address"
            },
            {
              "internalType": "address",
              "name": "tokenB",
              "type": "address"
            },
            {
              "internalType": "bytes32",
              "name": "subscriptionId",
              "type": "bytes32"
            },
            {
              "internalType": "string",
              "name": "description",
              "type": "string"
            },
            {
              "components": [
                {
                  "internalType": "uint8",
                  "name": "schemaVersion",
                  "type": "uint8"
                },
                {
                  "internalType": "string",
                  "name": "value",
                  "type": "string"
                }
              ],
              "internalType": "struct Types.Metadata",
              "name": "metadata",
              "type": "tuple"
            },
            {
              "internalType": "uint256",
              "name": "slippage",
              "type": "uint256"
            },
            {
              "internalType": "uint256",
              "name": "healthFactorMultiplier",
              "type": "uint256"
            },
            {
              "internalType": "enum Enums.TransactionRoute",
              "name": "route",
              "type": "uint8"
            },
            {
              "components": [
                {
                  "internalType": "uint256",
                  "name": "deadline",
                  "type": "uint256"
                },
                {
                  "internalType": "uint8",
                  "name": "v",
                  "type": "uint8"
                },
                {
                  "internalType": "bytes32",
                  "name": "r",
                  "type": "bytes32"
                },
                {
                  "internalType": "bytes32",
                  "name": "s",
                  "type": "bytes32"
                }
              ],
              "internalType": "struct Params.Signature",
              "name": "signature",
              "type": "tuple"
            }
          ],
          "internalType": "struct Params.CreateRecurrentTransaction",
          "name": "params",
          "type": "tuple"
        }
      ],
      "name": "recurrentTransaction",
      "outputs": [],
      "stateMutability": "payable",
      "type": "function"
    },
    {
      "inputs": [],
      "name": "renounceOwnership",
      "outputs": [],
      "stateMutability": "nonpayable",
      "type": "function"
    },
    {
      "inputs": [
        {
          "internalType": "contract IAaveV3",
          "name": "aave",
          "type": "address"
        }
      ],
      "name": "setAave",
      "outputs": [],
      "stateMutability": "nonpayable",
      "type": "function"
    },
    {
      "inputs": [
        {
          "internalType": "contract IOneTimeTransaction",
          "name": "transaction",
          "type": "address"
        }
      ],
      "name": "setOneTimeTransaction",
      "outputs": [],
      "stateMutability": "nonpayable",
      "type": "function"
    },
    {
      "inputs": [
        {
          "internalType": "contract IRecurrentTransaction",
          "name": "transaction",
          "type": "address"
        }
      ],
      "name": "setRecurentTransaction",
      "outputs": [],
      "stateMutability": "nonpayable",
      "type": "function"
    },
    {
      "inputs": [
        {
          "internalType": "contract IUniswap",
          "name": "uniswap",
          "type": "address"
        }
      ],
      "name": "setUniswap",
      "outputs": [],
      "stateMutability": "nonpayable",
      "type": "function"
    },
    {
      "inputs": [
        {
          "internalType": "address",
          "name": "newOwner",
          "type": "address"
        }
      ],
      "name": "transferOwnership",
      "outputs": [],
      "stateMutability": "nonpayable",
      "type": "function"
    },
    {
      "stateMutability": "payable",
      "type": "receive"
    }
  ],
  "bytecode": "0x6080346101c157601f613fc938819003918201601f19168301916001600160401b038311848410176101c65780849260e0946040528339810103126101c15780516001600160a01b038116908190036101c15760208201516001600160a01b03811691908290036101c15760408301516001600160a01b03811691908290036101c15760608401516001600160a01b03811693908490036101c15760808501516001600160a01b03811691908290036101c15760a08601516001600160a01b03811696908790036101c15760c001516001600160a01b038116908190036101c15733156101ab5760008054336001600160a01b0319821681178355604051999290916001600160a01b0316907f8be0079c531659141344cd1fd0a4f28419497f9722a3daafe3b4186f6b6457e09080a360018060a01b0319600154161760015560018060a01b0319600254161760025560018060a01b0319600354161760035560018060a01b0319600454161760045560018060a01b0319600554161760055560018060a01b0319600654161760065560018060a01b03196007541617600755613dec90816101dd8239f35b631e4fbdf760e01b600052600060045260246000fd5b600080fd5b634e487b7160e01b600052604160045260246000fdfe608080604052600436101561001d575b50361561001b57600080fd5b005b600090813560e01c9081630bd0c23e14612b30575080631fd9b2bf14612a1c578063228b79d3146121685780632ad6c02f146121265780633da03a1414611493578063535c1f7f146114515780635e1d56a91461140a578063632c847d14610c3757806369eb7f26146102ea578063715018a6146102915780638da5cb5b1461026b5780638efecdda14610229578063d6b5891e146101e3578063e2f999a51461016b5763f2fde38b0361000f5734610168576020366003190112610168576001600160a01b036100ec612d33565b6100f4613cde565b16801561013c576001600160a01b038254826001600160a01b03198216178455167f8be0079c531659141344cd1fd0a4f28419497f9722a3daafe3b4186f6b6457e08380a380f35b6024827f1e4fbdf700000000000000000000000000000000000000000000000000000000815280600452fd5b80fd5b5034610168578061017b36612ede565b6001600160a01b0360075416803b156101df576101b28392918392604051948580948193631d6e1f8560e31b8352600483016131d9565b03925af180156101d4576101c35750f35b816101cd91612d11565b6101685780f35b6040513d84823e3d90fd5b5050fd5b5034610168576020366003190112610168576004356001600160a01b03811680910361022557610211613cde565b6001600160a01b0319600154161760015580f35b5080fd5b5034610168576020366003190112610168576004356001600160a01b03811680910361022557610257613cde565b6001600160a01b0319600254161760025580f35b50346101685780600319360112610168576001600160a01b036020915416604051908152f35b50346101685780600319360112610168576102aa613cde565b806001600160a01b0381546001600160a01b031981168355167f8be0079c531659141344cd1fd0a4f28419497f9722a3daafe3b4186f6b6457e08280a380f35b506020366003190112610168576004359067ffffffffffffffff8211610168576101806003198336030112610168576040519161032683612cbc565b61033281600401612d49565b835261034060248201612d49565b90602084019182526040840160448201358152606482013567ffffffffffffffff8111610c33576103779060043691850101612e4f565b9460608101958652608483013567ffffffffffffffff8111610c2f576103a39060043691860101612e96565b956080820196875260a082019360a4810135855260c083019360c4820135855260e4820135916003831015610c2b576103e89060e08601938452610104369101612d6b565b986101008501998a5273__$9a64d4390e1f317cfd7b279e493df8b9ee$__976001600160a01b03865116893b15610ab1576040519063bf6341cf60e01b825260048201528a816024818d5af48015610a9157908b91610c16575b50506007546001600160a01b0316604051937feccad175000000000000000000000000000000000000000000000000000000008552336004860152602485016040905287516001600160a01b0316604486015282516001600160a01b0316606486015251608485015283808d885160a4830161018090526101c483016104c791613187565b86518382036043190160c48501526104df91906131ac565b908c5160e48401528b51610104840152885161012484016104ff916131cc565b518051610144840152602081015160ff166101648401526040810151610184840152606001516101a483015203818d5a94602095f1928315610c0b578a93610bd2575b506007546040516316c9372360e11b81526004810185905233602482015299906060908b9060449082908f906001600160a01b03165af1978815610a91578b958c9b8d9a610b97575b506001600160a01b036003541660206001600160a01b038b51166024604051809481936304d0a64760e01b835260048301525afa908115610b1a578e91610b5d575b50833b15610b59578d6001600160a01b039160246040518094819363bf6341cf60e01b835216978860048301525af48015610b1a57908e91610b44575b50506001600160a01b03808a51169c6040519d8e61062781612c51565b528d602033910152169b8c60408201528760608201526001600160a01b036004541690813b15610b40576106af8f9160849083604051958694859363577ed67f60e11b85526004850190606080916001600160a01b0381511684526001600160a01b0360208201511660208501526001600160a01b0360408201511660408501520151910152565b5af18015610b1a57908e91610b27575b50506001600160a01b0389511693604051946106da86612c51565b85523360208601528c6040860152876060860152604061075660846001600160a01b03600454169783519889938492630716fa0360e31b84526004840190606080916001600160a01b0381511684526001600160a01b0360208201511660208501526001600160a01b0360408201511660408501520151910152565b5afa948515610b1a57908e949392918596610ade575b506001600160a01b039051169b51915190516003811015610aca578e9f51916040519361079885612c83565b6001600160a01b0387169e8f86526020860152876040860152856060860152608085015260a084015260c08301906107cf916130cf565b60e08201526107dd906132f8565b803b15610a38576040516326b3293f60e01b81526001600160a01b0392909216600483015260248201839052604482018590528b908290606490829034905af1908115610a91578b91610ab5575b50506001600160a01b0360075416803b15610ab1578a809160446040518094819363b38ffd5f60e01b83528960048401528a60248401525af1908115610a91578b91610a9c575b50506001600160a01b038651166040519061088c82612ca0565b81528360208201523360408201528960608201528460808201528860a08201528160c08201526001600160a01b0360045416803b15610a385760408051632b54892b60e01b815283516001600160a01b0390811660048301526020850151602483015291840151821660448201526060840151821660648201526080840151608482015260a084015190911660a482015260c09092015160c48301528b90829060e490829084905af1908115610a91578b91610a78575b50506024916001600160a01b038060055416975116955190519160206001600160a01b0360075416604051958680926302ef145760e51b82528960048301525afa938415610a6d578c94610a3c575b50873b15610a38578b998a966040519c8d9b8c9a8b997f9e0e92e4000000000000000000000000000000000000000000000000000000008b5260048b01523360248b015260448a01526064890152608488015260a487015260c486015260e485015242610104850152610124840161018090526101848401610a1391613187565b83810360031901610144850152610a29916131ac565b9061016483016101b291613109565b8b80fd5b610a5f91945060203d602011610a66575b610a578183612d11565b8101906130f1565b9238610992565b503d610a4d565b6040513d8e823e3d90fd5b81610a8291612d11565b610a8d578938610943565b8980fd5b6040513d8d823e3d90fd5b81610aa691612d11565b610a8d578938610872565b8a80fd5b81610abf91612d11565b610a8d57893861082b565b60248f634e487b7160e01b81526021600452fd5b610b0b9196506001600160a01b03955060403d604011610b13575b610b038183612d11565b810190612f7e565b95909461076c565b503d610af9565b8e604051903d90823e3d90fd5b81610b3191612d11565b610b3c578c386106bf565b8c80fd5b8e80fd5b81610b4e91612d11565b610b3c578c3861060a565b8d80fd5b90506020813d602011610b8f575b81610b7860209383612d11565b81010312610b5957610b8990612f6a565b386105cd565b3d9150610b6b565b9196509850610bbf919a5060603d606011610bcb575b610bb78183612d11565b81019061320e565b9a9195909a983861058b565b503d610bad565b9092506020813d602011610c03575b81610bee60209383612d11565b81010312610bfe57519138610542565b600080fd5b3d9150610be1565b6040513d8c823e3d90fd5b81610c2091612d11565b610a8d578938610442565b8880fd5b8580fd5b8480fd5b5061012036600319011261016857610c4e36612dae565b906001600160a01b0360075416918051926040519363255709e560e11b855260048501528284602481845afa9384156112d05783946112db575b5081516040516316c9372360e11b8152600481019190915233602482015291906060908390604490829087905af19182156112d0578394849185946112a8575b5060206001600160a01b0360035416910160206001600160a01b038251166024604051809581936304d0a64760e01b835260048301525afa91821561129d578692611261575b5073__$9a64d4390e1f317cfd7b279e493df8b9ee$__91823b1561125d57866001600160a01b039160246040518094819363bf6341cf60e01b835216968760048301525af4801561122857908791611248575b50506001600160a01b03808251169360405194610d7d86612c51565b855233602086015216928360408201528760608201526001600160a01b036004541690813b156111b457610e046084899283604051958694859363577ed67f60e11b85526004850190606080916001600160a01b0381511684526001600160a01b0360208201511660208501526001600160a01b0360408201511660408501520151910152565b5af1801561122857908791611233575b50506001600160a01b038151169660405197610e2f89612c51565b88523360208901528360408901528060608901526040610eab60846001600160a01b03600454169a83519b8c938492630716fa0360e31b84526004840190606080916001600160a01b0381511684526001600160a01b0360208201511660208501526001600160a01b0360408201511660408501520151910152565b5afa9485156112285787988896611201575b506001600160a01b0360208201511693604082015199606083015160808401519060038210156111ed578b9c610f36610f40938c9360a08901519360405195610f0587612c83565b6001600160a01b0389169d8e885260208801526040870152886060870152608086015260a085015260c084016130cf565b60e08201526132f8565b8251823b15610ab1576040516326b3293f60e01b81526001600160a01b039290921660048301526024820189905260448201529089908290606490829034905af19081156111b85789916111d8575b50506001600160a01b03600754168151813b15610a8d57899160448392604051948593849263b38ffd5f60e01b845260048401528860248401525af19081156111b85789916111c3575b50506001600160a01b03835116815160405191610ff583612ca0565b825260208201523360408201528560608201528260808201528460a08201528660c08201526001600160a01b0360045416803b15610a8d5760408051632b54892b60e01b815283516001600160a01b0390811660048301526020850151602483015291840151821660448201526060840151821660648201526080840151608482015260a084015190911660a482015260c09092015160c48301528990829060e490829084905af19081156111b857899161119f575b50506001600160a01b038060055416915193511694602460206001600160a01b0360075416604051928380926302ef145760e51b82528960048301525afa908115610c0b578a91611180575b50823b15610a8d578997610144968995611171946040519c8d9b8c9a7f5261bbdb000000000000000000000000000000000000000000000000000000008c5260048c01523360248c015260448b015260648a0152608489015260a488015260c487015260e486015242610104860152610124850190613109565b5af180156101d4576101c35750f35b611199915060203d602011610a6657610a578183612d11565b386110f7565b816111a991612d11565b6111b45787386110ab565b8780fd5b6040513d8b823e3d90fd5b816111cd91612d11565b6111b4578738610fd9565b816111e291612d11565b6111b4578738610f8f565b60248c634e487b7160e01b81526021600452fd5b90955061121e91985060403d604011610b1357610b038183612d11565b9790979438610ebd565b6040513d89823e3d90fd5b8161123d91612d11565b610c2f578538610e14565b8161125291612d11565b610c2f578538610d61565b8680fd5b9091506020813d602011611295575b8161127d60209383612d11565b81010312610c2f5761128e90612f6a565b9038610d0e565b3d9150611270565b6040513d88823e3d90fd5b915092506112c691945060603d606011610bcb57610bb78183612d11565b9194919238610cc8565b6040513d85823e3d90fd5b9093503d8084833e6112ed8183612d11565b8101906020818303126114065780519067ffffffffffffffff8211610c33570161012081830312611406576040519161132583612cbc565b61132e82612f6a565b835261133c60208301612f6a565b602084015260408201516040840152606082015167ffffffffffffffff8111610c2f578161136b918401613028565b6060840152608082015167ffffffffffffffff8111610c2f5781611390918401612f9b565b608084015260a082015167ffffffffffffffff8111610c2f57816113b5918401612f9b565b60a084015260c082015160c084015260e082015167ffffffffffffffff8111610c2f5782916113e891610100940161306d565b60e08401520151600481101561140657610100820152926060610c88565b8380fd5b5034610168578061141a36612ede565b6001600160a01b0360065416803b156101df576101b28392918392604051948580948193631d6e1f8560e31b8352600483016131d9565b5034610168576020366003190112610168576004356001600160a01b0381168091036102255761147f613cde565b6001600160a01b0319600754161760075580f35b506020366003190112610168576004359067ffffffffffffffff8211610168576101c060031983360301126101685760405191610160830183811067ffffffffffffffff82111761211257604052806004013567ffffffffffffffff81116120e6578101366023820112156120e65760048101359061151182612e1b565b9161151f6040519384612d11565b808352602060048185019260051b8401010191368311610c2f57602401905b8282106120fa57505050835261155660248201612d49565b6020840152604481013567ffffffffffffffff81116120e6578101366023820112156120e65760048101359061158b82612e1b565b916115996040519384612d11565b808352602060048185019260051b8401010191368311610c2f57602401905b8282106120ea5750505060408401526115d360648201612d49565b60608401526115e460848201612d49565b608084015260a481013567ffffffffffffffff81116120e65761160d9060043691840101612e4f565b60a084015260c481013567ffffffffffffffff81116120e6576116369060043691840101612e96565b60c084015260e481013560e084015261010481013561010084015261012481013560038110156120e65761012084015261167590369061014401612d6b565b6101408301526001600160a01b0360208301511673__$9a64d4390e1f317cfd7b279e493df8b9ee$__3b15610225576040519063bf6341cf60e01b82526004820152818160248173__$9a64d4390e1f317cfd7b279e493df8b9ee$__5af480156101d4579082916120d1575b5050815173__$9a64d4390e1f317cfd7b279e493df8b9ee$__3b1561022557604051907f11f599a500000000000000000000000000000000000000000000000000000000825282826024810192602060048301528051809452602060448301910193835b8181106120ac57505081929350038173__$9a64d4390e1f317cfd7b279e493df8b9ee$__5af480156101d457908291612097575b5050604082015173__$1472882dd151bacffe3e5240c3a944adb7$__3b1561022557604051907fd0ca35ed00000000000000000000000000000000000000000000000000000000825282826024810192602060048301528051809452602060448301910193835b81811061207b57505081929350038173__$1472882dd151bacffe3e5240c3a944adb7$__5af480156101d457908291612066575b50506001600160a01b0360065416602060405180927f63423f93000000000000000000000000000000000000000000000000000000008252336004830152604060248301528185816118f96118e26118a68b6001600160a01b038a61188783516101c060448a0152610204890190613116565b92015116606486015260408d0151858203604319016084870152613153565b6001600160a01b0360608d01511660a48501526001600160a01b0360808d01511660c485015260a08c01516043198583030160e4860152613187565b60c08b0151838203604319016101048501526131ac565b60e08a01516101248301526101008a01516101448301526119246101208b01516101648401906131cc565b6101408a01518051610184840152602081015160ff166101a484015260408101516101c4840152606001516101e483015203925af19081156101d4578291612034575b50600654604080516316c9372360e11b815260048101849052336024820152918290604490829087906001600160a01b03165af180156112d05783918491612003575b506001600160a01b03600354169460206001600160a01b0381830151166024604051809981936304d0a64760e01b835260048301525afa958615611ff8578596611fbc575b5073__$9a64d4390e1f317cfd7b279e493df8b9ee$__3b15610c335760405163bf6341cf60e01b81526001600160a01b0387166004820152858160248173__$9a64d4390e1f317cfd7b279e493df8b9ee$__5af4801561129d57908691611fa7575b50506001600160a01b036020820151166001600160a01b0360608301511660405191611a7c83612c51565b825233602083015260408201528260608201526001600160a01b036004541690813b1561125d57611b006084889283604051958694859363577ed67f60e11b85526004850190606080916001600160a01b0381511684526001600160a01b0360208201511660208501526001600160a01b0360408201511660408501520151910152565b5af1801561129d57908691611f92575b50506001600160a01b03602082015116916001600160a01b0360608301511660405193611b3c85612c51565b845233602085015260408401528060608401526040611bb760846001600160a01b03600454169583519687938492630716fa0360e31b84526004840190606080916001600160a01b0381511684526001600160a01b0360208201511660208501526001600160a01b0360408201511660408501520151910152565b5afa93841561129d5786938795611f6b575b506001600160a01b036080840151169360e0840151986101008501516101208601516003811015611f57579a611c4d91610f368c9d6101408a01519260405194611c1286612c83565b6001600160a01b0389169c8d875260208701528d60408701526001600160a01b0388166060870152608086015260a085015260c084016130cf565b6001600160a01b0381163b15610c2b576040516326b3293f60e01b81526001600160a01b0392831660048201526024810188905260448101899052918991839160649183913491165af1908115611f4c578891611f37575b5050611edc575b6001600160a01b03602083015116906001600160a01b0360608401511660405192611cd684612ca0565b8352866020840152336040840152606083015260808201528260a08201528360c08201526001600160a01b0360045416803b1561125d5760408051632b54892b60e01b815283516001600160a01b0390811660048301526020850151602483015291840151821660448201526060840151821660648201526080840151608482015260a084015190911660a482015260c09092015160c48301528690829060e490829084905af190811561129d578691611ec7575b50506001600160a01b0360055416908051906001600160a01b036020820151169560246001600160a01b036060840151169560408401519360c060a08201519101519160206001600160a01b0360065416604051958680926302ef145760e51b82528960048301525afa938415610a6d578c94611ea6575b50873b15610a38578b998a966040519c8d9b8c9a8b997fd972fb48000000000000000000000000000000000000000000000000000000008b5260048b01523360248b015260448a0161018090526101848a01611e5e91613116565b9160648a015260848901526003198882030160a4890152611e7e91613153565b9160c487015260e48601524261010486015260031985820301610124860152610a1391613187565b611ec091945060203d602011610a6657610a578183612d11565b9238611e03565b81611ed191612d11565b610c33578438611d8b565b6001600160a01b0360065416803b1561125d578680916024604051809481936305543f8560e01b83528b60048401525af1908115611228578791611f22575b5050611cac565b81611f2c91612d11565b610c2f578538611f1b565b81611f4191612d11565b61125d578638611ca5565b6040513d8a823e3d90fd5b60248b634e487b7160e01b81526021600452fd5b909450611f8891935060403d604011610b1357610b038183612d11565b9290929338611bc9565b81611f9c91612d11565b610c33578438611b10565b81611fb191612d11565b610c33578438611a51565b9095506020813d602011611ff0575b81611fd860209383612d11565b81010312610c3357611fe990612f6a565b94386119ef565b3d9150611fcb565b6040513d87823e3d90fd5b9050612027915060403d60401161202d575b61201f8183612d11565b8101906130b8565b386119aa565b503d612015565b90506020813d60201161205e575b8161204f60209383612d11565b81010312610bfe575138611967565b3d9150612042565b8161207091612d11565b610168578038611814565b85518352602095860195889550879450909201916001016117e0565b816120a191612d11565b610168578038611779565b85516001600160a01b0316835260209586019588955087945090920191600101611745565b816120db91612d11565b6101685780386116e1565b8280fd5b81358152602091820191016115b8565b6020809161210784612d49565b81520191019061153e565b602483634e487b7160e01b81526041600452fd5b5034610168576020366003190112610168576004356001600160a01b03811680910361022557612154613cde565b6001600160a01b0319600654161760065580f35b506101203660031901126101685761217f36612dae565b906001600160a01b0360065416918051906040519163255709e560e11b835260048301528282602481875afa9182156112d05783926127cb575b508051604080516316c9372360e11b8152600481019290925233602483015290948590604490829087905af19182156112d057839484936127a4575b506001600160a01b0360035416946040820160206001600160a01b038251166024604051809a81936304d0a64760e01b835260048301525afa96871561129d578697612768575b5073__$9a64d4390e1f317cfd7b279e493df8b9ee$__96873b1561125d57866001600160a01b039160246040518094819363bf6341cf60e01b8352169b8c60048301525af4801561122857908791612753575b505060a06001600160a01b038251169301926001600160a01b03845116604051916122b983612c51565b825233602083015260408201528560608201526001600160a01b036004541690813b156111b45761233d6084899283604051958694859363577ed67f60e11b85526004850190606080916001600160a01b0381511684526001600160a01b0360208201511660208501526001600160a01b0360408201511660408501520151910152565b5af180156112285790879161273e575b50506001600160a01b03815116966001600160a01b03845116604051986123738a612c51565b89523360208a0152604089015285606089015260406123ee60846001600160a01b03600454169a83519b8c938492630716fa0360e31b84526004840190606080916001600160a01b0381511684526001600160a01b0360208201511660208501526001600160a01b0360408201511660408501520151910152565b5afa9283156112285787988894612717575b506001600160a01b03602087015116916040870151996060880151608089015160038110156111ed579b61247891610f368d9e60a08d0151926040519461244686612c83565b6001600160a01b0388169a8b875260208701528c6040870152886060870152608086015260a085015260c084016130cf565b8751823b15610ab1576040516326b3293f60e01b81526001600160a01b039290921660048301526024820187905260448201529089908290606490829034905af19081156111b8578991612702575b50506126a4575b6001600160a01b0382511685516001600160a01b0386511690604051926124f484612ca0565b8352602083015233604083015260608201528660808201528160a08201528360c08201526001600160a01b0360045416803b15610c2b5760408051632b54892b60e01b815283516001600160a01b0390811660048301526020850151602483015291840151821660448201526060840151821660648201526080840151608482015260a084015190911660a482015260c09092015160c48301528890829060e490829084905af1908115611f4c57889161268f575b50506024946001600160a01b0380806005541692519451169551169660206001600160a01b0360065416604051988980926302ef145760e51b82528860048301525afa9687156111b857899761266e575b50813b15610c2b578896610124958894611171936040519b8c9a8b997fd3eca8ee000000000000000000000000000000000000000000000000000000008b5260048b01523360248b015260448a01526064890152608488015260a487015260c48601524260e4860152610104850190613109565b61268891975060203d602011610a6657610a578183612d11565b95386125fa565b8161269991612d11565b61125d5786386125a9565b6001600160a01b03600654168551813b15610c2b5788916024839260405194859384926305543f8560e01b845260048401525af1908115611f4c5788916126ed575b50506124ce565b816126f791612d11565b61125d5786386126e6565b8161270c91612d11565b6111b45787386124c7565b90935061273491985060403d604011610b1357610b038183612d11565b9790979238612400565b8161274891612d11565b610c2f57853861234d565b8161275d91612d11565b610c2f57853861228f565b9096506020813d60201161279c575b8161278460209383612d11565b81010312610c2f5761279590612f6a565b953861223c565b3d9150612777565b9092506127c191945060403d60401161202d5761201f8183612d11565b93909391386121f5565b9391503d8084863e6127dd8186612d11565b8401936020818603126114065780519067ffffffffffffffff8211610c33570193610140858203126114065760405190610140820182811067ffffffffffffffff821117612a085760405261283186612f6a565b8252602086015167ffffffffffffffff8111610c2f57860181601f82011215610c2f5780519061286082612e1b565b9161286e6040519384612d11565b80835260208084019160051b83010191848311610c2b57602001905b8282106129f05750505060208301526128a560408701612f6a565b6040830152606086015167ffffffffffffffff8111610c2f57816128ca918801612f9b565b6060830152608086015167ffffffffffffffff8111610c2f5786019581601f88011215610c2f578651966128fd88612e1b565b9061290b6040519283612d11565b88825260208083019960051b82010190848211610c2b57602001985b818a106129d8575050869750608084015261294460a08201612f6a565b60a084015260c081015167ffffffffffffffff811161125d5782612969918301612f9b565b60c084015260e081015167ffffffffffffffff811161125d578261298e918301613028565b60e084015261010081015167ffffffffffffffff811161125d57610120926129b791830161306d565b61010084015201516004811015610c335761012082015291935060406121b9565b602080916129e58c612ff8565b815201990198612927565b602080916129fd84612f6a565b81520191019061288a565b602486634e487b7160e01b81526041600452fd5b503461016857602036600319011261016857604051906020820182811067ffffffffffffffff821117612b1c576040526004358083526001600160a01b036007541690813b156120e65782916044839260405194859384927f3ed5027500000000000000000000000000000000000000000000000000000000845233600485015260248401525af180156101d457612b0c575b5080916001600160a01b03600554169051813b156101df5782916024839260405194859384927fb60269d000000000000000000000000000000000000000000000000000000000845260048401525af180156101d4576101c35750f35b81612b1691612d11565b38612aaf565b602482634e487b7160e01b81526041600452fd5b823461016857608036600319011261016857612b4b82612c51565b612b53612d33565b82526024356001600160a01b03811681036102255760208301526044356001600160a01b038116810361022557604083015260643560608301526040612bf560846001600160a01b03600454169483519586938492630716fa0360e31b84526004840190606080916001600160a01b0381511684526001600160a01b0360208201511660208501526001600160a01b0360408201511660408501520151910152565b5afa918215612c44578192612c22575b50604080516001600160a01b039290921682526020820192909252f35b9050612c3d915060403d604011610b1357610b038183612d11565b9082612c05565b50604051903d90823e3d90fd5b6080810190811067ffffffffffffffff821117612c6d57604052565b634e487b7160e01b600052604160045260246000fd5b610100810190811067ffffffffffffffff821117612c6d57604052565b60e0810190811067ffffffffffffffff821117612c6d57604052565b610120810190811067ffffffffffffffff821117612c6d57604052565b60c0810190811067ffffffffffffffff821117612c6d57604052565b6040810190811067ffffffffffffffff821117612c6d57604052565b90601f8019910116810190811067ffffffffffffffff821117612c6d57604052565b600435906001600160a01b0382168203610bfe57565b35906001600160a01b0382168203610bfe57565b359060ff82168203610bfe57565b9190826080910312610bfe57604051612d8381612c51565b606080829480358452612d9860208201612d5d565b6020850152604081013560408501520135910152565b90610120600319830112610bfe57604051612dc881612cd9565b809260043582526024356001600160a01b0381168103610bfe576020830152604435604083015260643560608301526084356003811015610bfe5760a091612e1691608085015260a4612d6b565b910152565b67ffffffffffffffff8111612c6d5760051b60200190565b67ffffffffffffffff8111612c6d57601f01601f191660200190565b81601f82011215610bfe57803590612e6682612e33565b92612e746040519485612d11565b82845260208383010111610bfe57816000926020809301838601378301015290565b9190604083820312610bfe5760405190612eaf82612cf5565b8193612eba81612d5d565b835260208101359167ffffffffffffffff8311610bfe57602092612e169201612e4f565b6020600319820112610bfe5760043567ffffffffffffffff8111610bfe5760608183036003190112610bfe57604051916060830183811067ffffffffffffffff821117612c6d57604052612f3482600401612d49565b83526024820135602084015260448201359167ffffffffffffffff8311610bfe57612f629201600401612e4f565b604082015290565b51906001600160a01b0382168203610bfe57565b9190826040910312610bfe576020612f9583612f6a565b92015190565b9080601f83011215610bfe578151612fb281612e1b565b92612fc06040519485612d11565b81845260208085019260051b820101928311610bfe57602001905b828210612fe85750505090565b8151815260209182019101612fdb565b51908115158203610bfe57565b60005b8381106130185750506000910152565b8181015183820152602001613008565b81601f82011215610bfe57805161303e81612e33565b9261304c6040519485612d11565b81845260208284010111610bfe5761306a9160208085019101613005565b90565b9190604083820312610bfe576040519061308682612cf5565b8193805160ff81168103610bfe57835260208101519167ffffffffffffffff8311610bfe57602092612e169201613028565b9190826040910312610bfe576020612f9583612ff8565b60038210156130db5752565b634e487b7160e01b600052602160045260246000fd5b90816020910312610bfe57516004811015610bfe5790565b9060048210156130db5752565b906020808351928381520192019060005b8181106131345750505090565b82516001600160a01b0316845260209384019390920191600101613127565b906020808351928381520192019060005b8181106131715750505090565b8251845260209384019390920191600101613164565b906020916131a081518092818552858086019101613005565b601f01601f1916010190565b906040602061306a9360ff81511684520151918160208201520190613187565b9060038210156130db5752565b6080604061306a93602084526001600160a01b0381511660208501526020810151828501520151916060808201520190613187565b90816060910312610bfe578051916040612f9560208401612f6a565b156132325750565b613270906040519182917f08c379a0000000000000000000000000000000000000000000000000000000008352602060048401526024830190613187565b0390fd5b6132f69092919260a0806101208301956001600160a01b0381511684526001600160a01b036020820151166020850152604081015160408501526001600160a01b036060820151166060850152608081015160808501520151910190606080918051845260ff6020820151166020850152604081015160408501520151910152565b565b906000916001600160a01b038151168015600014613c5557503331905b6040810191825180821015613b6e575080613a9c575b8251908103908111613a885760c0820180516003811015613a74576001036136d157508460208301916001600160a01b03835116926001600160a01b038551166080860151906040519561337e87612c51565b8652602080870191825260408088018681526060890194855260025491517fdd016b7900000000000000000000000000000000000000000000000000000000815298516001600160a01b0390811660048b01529351841660248a01525160448901529251606488015291869160849183918891165af19384156112d057839461369a575b506001600160a01b03815116916001600160a01b038651166040519361342785612c51565b8452602084015284604084015260608301526001600160a01b0381511680156000146134fa5750506001600160a01b036002541692833b156120e6576134b6916084916040519586948593630f5a9fad60e21b85526004850190606080916001600160a01b0381511684526001600160a01b036020820151166020850152604081015160408501520151910152565b5af18015611ff8576134e5575b506132f69293505b6001600160a01b0360608183511693519201511691613d20565b6134f0858092612d11565b61140657836134c3565b6040516323b872dd60e01b81523360048201523060248201526044810186905292949350909190602090829060649082908c905af18015611f4c5761364f575b505160025460405163095ea7b360e01b81526001600160a01b0391821660048201526024810193909352602091839116818981604481015b03925af1801561129d57613618575b50846001600160a01b036002541691823b156102255760846135ea91836040519586948593630f5a9fad60e21b85526004850190606080916001600160a01b0381511684526001600160a01b036020820151166020850152604081015160408501520151910152565b5af18015611ff857613603575b506132f69293506134cb565b61360e858092612d11565b61140657836135f7565b6020813d602011613647575b8161363160209383612d11565b81010312610c2f5761364290612ff8565b613581565b3d9150613624565b916020833d602011613692575b8161366960209383612d11565b810103126111b4576001600160a01b0360209261368861357295612ff8565b509250509161353a565b3d915061365c565b925092506020823d6020116136c9575b816136b760209383612d11565b81010312610bfe578691519238613402565b3d91506136aa565b516003811015613a60576002146136ee57506132f69293506134cb565b6001600160a01b0382511690602083016001600160a01b0381511660a0850151906040519160a0830183811067ffffffffffffffff821117613a4c57926001600160a01b039260a4926020956040523383528583019889528460408401928984526060850190815260808501928352816001541693826040519c8d998a987ff293357b000000000000000000000000000000000000000000000000000000008a525116600489015251166024870152516044860152511660648401525160848301525afa928315611228578793613a18575b506001600160a01b03815116916001600160a01b038551169060e086015191604051946137ec86612cd9565b33865260208601528560408601526060850152608084015260a08301526001600160a01b0381511690811580613a0f575b1561388c57505085906001600160a01b0360015416803b156120e65761385991604051948580948193637b4efcfd60e01b835260048301613274565b03925af18015611ff857613877575b506132f69293505b83926135f7565b613882858092612d11565b6114065783613868565b839197936138a4575b505050506132f6929350613870565b6040516323b872dd60e01b81523360048201523060248201526044810183905293978894906020908290606490829089905af18015611ff8576139c4575b505160015460405163095ea7b360e01b81526001600160a01b0391821660048201526024810193909352602091839116818681604481015b03925af180156112d05761398d575b506001600160a01b036001541690813b156120e657829161396091604051988980948193637b4efcfd60e01b835260048301613274565b03925af1948515612c44576132f6949561397d575b859481613895565b8161398791612d11565b38613975565b6020813d6020116139bc575b816139a660209383612d11565b810103126120e6576139b790612ff8565b613929565b3d9150613999565b916020833d602011613a07575b816139de60209383612d11565b81010312610c33576001600160a01b036020926139fd61391a95612ff8565b50925050916138e2565b3d91506139d1565b5083151561381d565b9092506020813d602011613a44575b81613a3460209383612d11565b8101031261125d575191386137c0565b3d9150613a27565b60248b634e487b7160e01b81526041600452fd5b602486634e487b7160e01b81526021600452fd5b602487634e487b7160e01b81526021600452fd5b602485634e487b7160e01b81526011600452fd5b81516001600160a01b031680613af55750613af0604051613abe604082612d11565b600181527f3500000000000000000000000000000000000000000000000000000000000000602082015282341461322a565b61332b565b6040516323b872dd60e01b81523360048201523060248201526044810183905290602090829060649082908a905af1801561129d57613b35575b5061332b565b6020813d602011613b66575b81613b4e60209383612d11565b81010312610c2f57613b5f90612ff8565b5038613b2f565b3d9150613b41565b82516001600160a01b0316915081613bcf5750506134cb6132f693948351341015905060405190613ba0604083612d11565b600382527f3130300000000000000000000000000000000000000000000000000000000000602083015261322a565b6040516323b872dd60e01b8152336004820152306024820152604481019190915294906020908690606490829085905af18015612c4457613c1657506132f69293506134cb565b6020853d602011613c4d575b81613c2f60209383612d11565b810103126101685750613c456132f69394612ff8565b5083926135f7565b3d9150613c22565b6020602491604051928380927f70a082310000000000000000000000000000000000000000000000000000000082523360048301525afa908115613cd3578491613ca1575b5090613315565b90506020813d602011613ccb575b81613cbc60209383612d11565b81010312611406575138613c9a565b3d9150613caf565b6040513d86823e3d90fd5b6001600160a01b03600054163303613cf257565b7f118cdaa7000000000000000000000000000000000000000000000000000000006000523360045260246000fd5b6001600160a01b0316919082613d3557505050565b60405163095ea7b360e01b81526001600160a01b03929092166004830152602482015290602090829060449082906000905af18015613daa57613d755750565b6020813d602011613da2575b81613d8e60209383612d11565b81010312610bfe57613d9f90612ff8565b50565b3d9150613d81565b6040513d6000823e3d90fdfea264697066735822122009cdc361bc0a705751f1a84a7cb42d2d30de8487fba0e8cd5bd75229a391145d64736f6c634300081c0033",
  "linkReferences": {
    "contracts/libs/AddressLib.sol": {
      "AddressLib": [
        {
          "length": 20,
          "start": 1488
        },
        {
          "length": 20,
          "start": 3822
        },
        {
          "length": 20,
          "start": 6248
        },
        {
          "length": 20,
          "start": 6299
        },
        {
          "length": 20,
          "start": 6340
        },
        {
          "length": 20,
          "start": 6451
        },
        {
          "length": 20,
          "start": 7119
        },
        {
          "length": 20,
          "start": 7179
        },
        {
          "length": 20,
          "start": 9244
        }
      ]
    },
    "contracts/libs/IntegerLib.sol": {
      "IntegerLib": [
        {
          "length": 20,
          "start": 6495
        },
        {
          "length": 20,
          "start": 6606
        }
      ]
    }
  },
  "deployedLinkReferences": {
    "contracts/libs/AddressLib.sol": {
      "AddressLib": [
        {
          "length": 20,
          "start": 1011
        },
        {
          "length": 20,
          "start": 3345
        },
        {
          "length": 20,
          "start": 5771
        },
        {
          "length": 20,
          "start": 5822
        },
        {
          "length": 20,
          "start": 5863
        },
        {
          "length": 20,
          "start": 5974
        },
        {
          "length": 20,
          "start": 6642
        },
        {
          "length": 20,
          "start": 6702
        },
        {
          "length": 20,
          "start": 8767
        }
      ]
    },
    "contracts/libs/IntegerLib.sol": {
      "IntegerLib": [
        {
          "length": 20,
          "start": 6018
        },
        {
          "length": 20,
          "start": 6129
        }
      ]
    }
  }
}