{
  "_format": "hh-sol-artifact-1",
  "contractName": "Beam",
  "sourceName": "contracts/Beam.sol",
  "abi": [
    {
      "inputs": [
        {
          "internalType": "contract IBeamEvents",
          "name": "events_",
          "type": "address"
        },
        {
          "internalType": "contract IMerchant",
          "name": "merchant_",
          "type": "address"
        },
        {
          "internalType": "contract IOneTimeTransaction",
          "name": "oneTimeTransaction_",
          "type": "address"
        },
        {
          "internalType": "contract IRecurrentTransaction",
          "name": "recurrentTransaction_",
          "type": "address"
        },
        {
          "internalType": "contract IHookManager",
          "name": "hookManager_",
          "type": "address"
        },
        {
          "internalType": "contract IAaveV3",
          "name": "aave_",
          "type": "address"
        },
        {
          "internalType": "contract IUniswap",
          "name": "uniswap_",
          "type": "address"
        }
      ],
      "stateMutability": "nonpayable",
      "type": "constructor"
    },
    {
      "inputs": [
        {
          "internalType": "address",
          "name": "owner",
          "type": "address"
        }
      ],
      "name": "OwnableInvalidOwner",
      "type": "error"
    },
    {
      "inputs": [
        {
          "internalType": "address",
          "name": "account",
          "type": "address"
        }
      ],
      "name": "OwnableUnauthorizedAccount",
      "type": "error"
    },
    {
      "anonymous": false,
      "inputs": [
        {
          "indexed": true,
          "internalType": "address",
          "name": "previousOwner",
          "type": "address"
        },
        {
          "indexed": true,
          "internalType": "address",
          "name": "newOwner",
          "type": "address"
        }
      ],
      "name": "OwnershipTransferred",
      "type": "event"
    },
    {
      "inputs": [
        {
          "components": [
            {
              "internalType": "bytes32",
              "name": "transactionId",
              "type": "bytes32"
            }
          ],
          "internalType": "struct Params.CancelRecurrentTransaction",
          "name": "params",
          "type": "tuple"
        }
      ],
      "name": "cancelRecurrentTransaction",
      "outputs": [],
      "stateMutability": "nonpayable",
      "type": "function"
    },
    {
      "inputs": [
        {
          "components": [
            {
              "internalType": "bytes32",
              "name": "transactionId",
              "type": "bytes32"
            },
            {
              "internalType": "address",
              "name": "tokenB",
              "type": "address"
            },
            {
              "internalType": "bool",
              "name": "mintReceipt",
              "type": "bool"
            },
            {
              "internalType": "uint256",
              "name": "healthFactorMultiplier",
              "type": "uint256"
            },
            {
              "internalType": "enum Enums.TransactionRoute",
              "name": "route",
              "type": "uint8"
            },
            {
              "components": [
                {
                  "internalType": "uint256",
                  "name": "deadline",
                  "type": "uint256"
                },
                {
                  "internalType": "uint8",
                  "name": "v",
                  "type": "uint8"
                },
                {
                  "internalType": "bytes32",
                  "name": "r",
                  "type": "bytes32"
                },
                {
                  "internalType": "bytes32",
                  "name": "s",
                  "type": "bytes32"
                }
              ],
              "internalType": "struct Params.Signature",
              "name": "signature",
              "type": "tuple"
            }
          ],
          "internalType": "struct Params.FulfillOneTimeTransaction",
          "name": "params",
          "type": "tuple"
        }
      ],
      "name": "fulfillOneTimeTransaction",
      "outputs": [],
      "stateMutability": "payable",
      "type": "function"
    },
    {
      "inputs": [
        {
          "components": [
            {
              "internalType": "bytes32",
              "name": "transactionId",
              "type": "bytes32"
            },
            {
              "internalType": "address",
              "name": "tokenB",
              "type": "address"
            },
            {
              "internalType": "bool",
              "name": "mintReceipt",
              "type": "bool"
            },
            {
              "internalType": "uint256",
              "name": "healthFactorMultiplier",
              "type": "uint256"
            },
            {
              "internalType": "enum Enums.TransactionRoute",
              "name": "route",
              "type": "uint8"
            },
            {
              "components": [
                {
                  "internalType": "uint256",
                  "name": "deadline",
                  "type": "uint256"
                },
                {
                  "internalType": "uint8",
                  "name": "v",
                  "type": "uint8"
                },
                {
                  "internalType": "bytes32",
                  "name": "r",
                  "type": "bytes32"
                },
                {
                  "internalType": "bytes32",
                  "name": "s",
                  "type": "bytes32"
                }
              ],
              "internalType": "struct Params.Signature",
              "name": "signature",
              "type": "tuple"
            }
          ],
          "internalType": "struct Params.FulfillRecurrentTransaction",
          "name": "params",
          "type": "tuple"
        }
      ],
      "name": "fulfillRecurrentTransaction",
      "outputs": [],
      "stateMutability": "payable",
      "type": "function"
    },
    {
      "inputs": [
        {
          "components": [
            {
              "internalType": "address",
              "name": "merchant",
              "type": "address"
            },
            {
              "internalType": "address",
              "name": "payer",
              "type": "address"
            },
            {
              "internalType": "address",
              "name": "token",
              "type": "address"
            },
            {
              "internalType": "uint256",
              "name": "amount",
              "type": "uint256"
            }
          ],
          "internalType": "struct Params.AdjustTokenAmount",
          "name": "params",
          "type": "tuple"
        }
      ],
      "name": "getAdjustTokenAmount",
      "outputs": [
        {
          "internalType": "address",
          "name": "adjustedToken",
          "type": "address"
        },
        {
          "internalType": "uint256",
          "name": "adjustedAmount",
          "type": "uint256"
        }
      ],
      "stateMutability": "view",
      "type": "function"
    },
    {
      "inputs": [
        {
          "components": [
            {
              "internalType": "address",
              "name": "to",
              "type": "address"
            },
            {
              "internalType": "bytes32",
              "name": "transactionId",
              "type": "bytes32"
            }
          ],
          "internalType": "struct Params.MintReceipt",
          "name": "params",
          "type": "tuple"
        }
      ],
      "name": "mintOneTimeTransactionReceipt",
      "outputs": [],
      "stateMutability": "nonpayable",
      "type": "function"
    },
    {
      "inputs": [
        {
          "components": [
            {
              "internalType": "address",
              "name": "to",
              "type": "address"
            },
            {
              "internalType": "bytes32",
              "name": "transactionId",
              "type": "bytes32"
            }
          ],
          "internalType": "struct Params.MintReceipt",
          "name": "params",
          "type": "tuple"
        }
      ],
      "name": "mintRecurrentTransactionReceipt",
      "outputs": [],
      "stateMutability": "nonpayable",
      "type": "function"
    },
    {
      "inputs": [
        {
          "components": [
            {
              "internalType": "address[]",
              "name": "payers",
              "type": "address[]"
            },
            {
              "internalType": "address",
              "name": "merchant",
              "type": "address"
            },
            {
              "internalType": "uint256[]",
              "name": "amounts",
              "type": "uint256[]"
            },
            {
              "internalType": "address",
              "name": "token",
              "type": "address"
            },
            {
              "internalType": "address",
              "name": "tokenB",
              "type": "address"
            },
            {
              "internalType": "string",
              "name": "description",
              "type": "string"
            },
            {
              "components": [
                {
                  "internalType": "uint8",
                  "name": "schemaVersion",
                  "type": "uint8"
                },
                {
                  "internalType": "string",
                  "name": "value",
                  "type": "string"
                }
              ],
              "internalType": "struct Types.Metadata",
              "name": "metadata",
              "type": "tuple"
            },
            {
              "internalType": "bool",
              "name": "mintReceipt",
              "type": "bool"
            },
            {
              "internalType": "uint256",
              "name": "healthFactorMultiplier",
              "type": "uint256"
            },
            {
              "internalType": "enum Enums.TransactionRoute",
              "name": "route",
              "type": "uint8"
            },
            {
              "components": [
                {
                  "internalType": "uint256",
                  "name": "deadline",
                  "type": "uint256"
                },
                {
                  "internalType": "uint8",
                  "name": "v",
                  "type": "uint8"
                },
                {
                  "internalType": "bytes32",
                  "name": "r",
                  "type": "bytes32"
                },
                {
                  "internalType": "bytes32",
                  "name": "s",
                  "type": "bytes32"
                }
              ],
              "internalType": "struct Params.Signature",
              "name": "signature",
              "type": "tuple"
            }
          ],
          "internalType": "struct Params.CreateOneTimeTransaction",
          "name": "params",
          "type": "tuple"
        }
      ],
      "name": "oneTimeTransaction",
      "outputs": [],
      "stateMutability": "payable",
      "type": "function"
    },
    {
      "inputs": [],
      "name": "owner",
      "outputs": [
        {
          "internalType": "address",
          "name": "",
          "type": "address"
        }
      ],
      "stateMutability": "view",
      "type": "function"
    },
    {
      "inputs": [
        {
          "components": [
            {
              "internalType": "address",
              "name": "merchant",
              "type": "address"
            },
            {
              "internalType": "address",
              "name": "tokenB",
              "type": "address"
            },
            {
              "internalType": "bytes32",
              "name": "subscriptionId",
              "type": "bytes32"
            },
            {
              "internalType": "string",
              "name": "description",
              "type": "string"
            },
            {
              "components": [
                {
                  "internalType": "uint8",
                  "name": "schemaVersion",
                  "type": "uint8"
                },
                {
                  "internalType": "string",
                  "name": "value",
                  "type": "string"
                }
              ],
              "internalType": "struct Types.Metadata",
              "name": "metadata",
              "type": "tuple"
            },
            {
              "internalType": "bool",
              "name": "mintReceipt",
              "type": "bool"
            },
            {
              "internalType": "uint256",
              "name": "healthFactorMultiplier",
              "type": "uint256"
            },
            {
              "internalType": "enum Enums.TransactionRoute",
              "name": "route",
              "type": "uint8"
            },
            {
              "components": [
                {
                  "internalType": "uint256",
                  "name": "deadline",
                  "type": "uint256"
                },
                {
                  "internalType": "uint8",
                  "name": "v",
                  "type": "uint8"
                },
                {
                  "internalType": "bytes32",
                  "name": "r",
                  "type": "bytes32"
                },
                {
                  "internalType": "bytes32",
                  "name": "s",
                  "type": "bytes32"
                }
              ],
              "internalType": "struct Params.Signature",
              "name": "signature",
              "type": "tuple"
            }
          ],
          "internalType": "struct Params.CreateRecurrentTransaction",
          "name": "params",
          "type": "tuple"
        }
      ],
      "name": "recurrentTransaction",
      "outputs": [],
      "stateMutability": "payable",
      "type": "function"
    },
    {
      "inputs": [],
      "name": "renounceOwnership",
      "outputs": [],
      "stateMutability": "nonpayable",
      "type": "function"
    },
    {
      "inputs": [
        {
          "internalType": "address",
          "name": "newOwner",
          "type": "address"
        }
      ],
      "name": "transferOwnership",
      "outputs": [],
      "stateMutability": "nonpayable",
      "type": "function"
    }
  ],
  "bytecode": "0x6080346101c157601f613c4538819003918201601f19168301916001600160401b038311848410176101c65780849260e0946040528339810103126101c15780516001600160a01b038116908190036101c15760208201516001600160a01b03811691908290036101c15760408301516001600160a01b03811691908290036101c15760608401516001600160a01b03811693908490036101c15760808501516001600160a01b03811691908290036101c15760a08601516001600160a01b03811696908790036101c15760c001516001600160a01b038116908190036101c15733156101ab5760008054336001600160a01b0319821681178355604051999290916001600160a01b0316907f8be0079c531659141344cd1fd0a4f28419497f9722a3daafe3b4186f6b6457e09080a360018060a01b0319600154161760015560018060a01b0319600254161760025560018060a01b0319600354161760035560018060a01b0319600454161760045560018060a01b0319600554161760055560018060a01b0319600654161760065560018060a01b03196007541617600755613a6890816101dd8239f35b631e4fbdf760e01b600052600060045260246000fd5b600080fd5b634e487b7160e01b600052604160045260246000fdfe6080604052600436101561001257600080fd5b6000803560e01c80630b6f8c1914612b345780630bd0c23e14612a0f5780631fd9b2bf146128e95780636d3169a8146120385780636f45fb3b14611764578063715018a6146116fe5780637e1df3971461169f5780638c8804c3146109a35780638da5cb5b1461097d578063c1721dd6146101435763f2fde38b1461009657600080fd5b34610140576020366003190112610140576001600160a01b036100b7612c6f565b6100bf61395a565b168015610114576001600160a01b0382548273ffffffffffffffffffffffffffffffffffffffff198216178455167f8be0079c531659141344cd1fd0a4f28419497f9722a3daafe3b4186f6b6457e08380a380f35b6024827f1e4fbdf700000000000000000000000000000000000000000000000000000000815280600452fd5b80fd5b506101203660031901126101405761015a36612d2f565b906001600160a01b0360075416918051926040519363255709e560e11b855260048501528284602481845afa93841561083f57839461084a575b5081516040808401519051631f2eb46760e21b815260048101929092523360248301521515604482015291906060908390606490829087905af191821561083f57839484918594610807575b5060206001600160a01b0360035416910160206001600160a01b038251166024604051809581936304d0a64760e01b835260048301525afa9182156107fc5786926107c0575b5073__$9a64d4390e1f317cfd7b279e493df8b9ee$__91823b156107bc57866001600160a01b039160246040518094819363bf6341cf60e01b835216968760048301525af48015610783579087916107a7575b50506001600160a01b0380825116936040519461029586612baa565b855233602086015216928360408201528760608201526001600160a01b036004541690813b156106fb5761031c6084899283604051958694859363577ed67f60e11b85526004850190606080916001600160a01b0381511684526001600160a01b0360208201511660208501526001600160a01b0360408201511660408501520151910152565b5af180156107835790879161078e575b50506001600160a01b03815116966040519761034789612baa565b885233602089015283604089015280606089015260406103c360846001600160a01b03600454169a83519b8c938492630716fa0360e31b84526004840190606080916001600160a01b0381511684526001600160a01b0360208201511660208501526001600160a01b0360408201511660408501520151910152565b5afa948515610783578798889661074c575b506001600160a01b036020820151169360608201519960808301516003811015610738578a9b61044c9161044260a0870151916040519361041585612bdc565b6001600160a01b0387169b8c865260208601528d6040860152876060860152608085015260a08401612fcd565b60c0820152613178565b8251823b15610734576040516326b3293f60e01b81526001600160a01b039290921660048301526024820189905260448201529089908290606490829034905af19081156106ff57899161071f575b50506001600160a01b03600754168151813b156106a857899160448392604051948593849263b38ffd5f60e01b845260048401528860248401525af19081156106ff57899161070a575b50506001600160a01b0383511681516040519161050183612bdc565b825260208201523360408201528560608201528260808201528460a08201528660c08201526001600160a01b0360045416803b156106a85760408051632b54892b60e01b815283516001600160a01b0390811660048301526020850151602483015291840151821660448201526060840151821660648201526080840151608482015260a084015190911660a482015260c09092015160c48301528990829060e490829084905af19081156106ff5789916106e6575b50506001600160a01b038060055416915193511694602460206001600160a01b0360075416604051928380926302ef145760e51b82528960048301525afa9081156106db578a916106ac575b50823b156106a857899761014496899561067d946040519c8d9b8c9a7f5261bbdb000000000000000000000000000000000000000000000000000000008c5260048c01523360248c015260448b015260648a0152608489015260a488015260c487015260e486015242610104860152610124850190613007565b5af1801561069d5761068c5750f35b8161069691612c4d565b6101405780f35b6040513d84823e3d90fd5b8980fd5b6106ce915060203d6020116106d4575b6106c68183612c4d565b810190612fef565b38610603565b503d6106bc565b6040513d8c823e3d90fd5b816106f091612c4d565b6106fb5787386105b7565b8780fd5b6040513d8b823e3d90fd5b8161071491612c4d565b6106fb5787386104e5565b8161072991612c4d565b6106fb57873861049b565b8a80fd5b60248b634e487b7160e01b81526021600452fd5b90955061077291985060403d60401161077c575b61076a8183612c4d565b810190612e7c565b97909794386103d5565b503d610760565b6040513d89823e3d90fd5b8161079891612c4d565b6107a357853861032c565b8580fd5b816107b191612c4d565b6107a3578538610279565b8680fd5b9091506020813d6020116107f4575b816107dc60209383612c4d565b810103126107a3576107ed90612e68565b9038610226565b3d91506107cf565b6040513d88823e3d90fd5b9150925061082e91945060603d606011610838575b6108268183612c4d565b810190613066565b91949192386101e0565b503d61081c565b6040513d85823e3d90fd5b9093503d8084833e61085c8183612c4d565b8101906020818303126109755780519067ffffffffffffffff8211610979570161012081830312610975576040519161089483612bf8565b61089d82612e68565b83526108ab60208301612e68565b602084015260408201516040840152606082015167ffffffffffffffff81116107a357816108da918401612f26565b6060840152608082015167ffffffffffffffff81116107a357816108ff918401612e99565b608084015260a082015167ffffffffffffffff81116107a35781610924918401612e99565b60a084015260c082015160c084015260e082015167ffffffffffffffff81116107a3578291610957916101009401612f6b565b60e08401520151600481101561097557610100820152926060610194565b8380fd5b8480fd5b50346101405780600319360112610140576001600160a01b036020915416604051908152f35b506020366003190112610140576004359067ffffffffffffffff8211610140576101c0600319833603011261014057604051610160810181811067ffffffffffffffff82111761168b57604052826004013567ffffffffffffffff811161166f5783013660238201121561166f57600481013590610a2082612e50565b91610a2e6040519384612c4d565b808352602060048185019260051b84010101913683116107a357602401905b828210611673575050508152610a6560248401612c85565b6020820152604483013567ffffffffffffffff811161166f5783013660238201121561166f57600481013590610a9a82612e50565b91610aa86040519384612c4d565b808352602060048185019260051b84010101913683116107a357602401905b82821061165f575050506040820152610ae260648401612c85565b6060820152610af360848401612c85565b6080820190815260a484013567ffffffffffffffff811161097557610b1e9060043691870101612dc1565b60a083015260c484013567ffffffffffffffff811161097557610b479060043691870101612e08565b60c0830152610b5860e48501612cd1565b9160e0810192835261010485013561010082015261012485013594600386101561097957610b93906101208301968752610144369101612cec565b6101408201526001600160a01b0360208201511673__$9a64d4390e1f317cfd7b279e493df8b9ee$__3b15610979576040519063bf6341cf60e01b82526004820152848160248173__$9a64d4390e1f317cfd7b279e493df8b9ee$__5af480156115945790859161164a575b5050805173__$9a64d4390e1f317cfd7b279e493df8b9ee$__3b1561097957604051907f11f599a500000000000000000000000000000000000000000000000000000000825285826024810192602060048301528051809452602060448301910193835b81811061162557505081929350038173__$9a64d4390e1f317cfd7b279e493df8b9ee$__5af4801561159457908591611610575b5050604081015173__$1472882dd151bacffe3e5240c3a944adb7$__3b1561097957604051907fd0ca35ed00000000000000000000000000000000000000000000000000000000825285826024810192602060048301528051809452602060448301910193835b8181106115f457505081929350038173__$1472882dd151bacffe3e5240c3a944adb7$__5af48015611594579085916115df575b50506001600160a01b036006541692602060405180957f3e6b0f0a00000000000000000000000000000000000000000000000000000000825233600483015260406024830152818881610e14610dfd610dc4610d9c8b516101c06044870152610204860190613082565b8b8a01516001600160a01b0316606486015260408c01518582036043190160848701526130bf565b6001600160a01b0360608c01511660a48501526001600160a01b038c511660c485015260a08b01516043198583030160e4860152613014565b60c08a015183820360431901610104850152613039565b87511515610124830152610100890151610144830152610e3a8d51610164840190613059565b6101408901518051610184840152602081015160ff166101a484015260408101516101c4840152606001516101e483015203925af19384156115945790859291839561159f575b50600654905160408051631f2eb46760e21b81526004810188905233602482015291151560448301529093909184916001600160a01b0390911690829081606481015b03925af18015611594578592869161155f575b506001600160a01b03600354169260206001600160a01b0381850151166024604051809781936304d0a64760e01b835260048301525afa938415610783578794611523575b5073__$9a64d4390e1f317cfd7b279e493df8b9ee$__3b156107bc5760405163bf6341cf60e01b81526001600160a01b0385166004820152878160248173__$9a64d4390e1f317cfd7b279e493df8b9ee$__5af480156114aa5790889161150e575b50506001600160a01b036020840151166001600160a01b0360608501511660405191610fa983612baa565b825233602083015260408201528260608201526001600160a01b036004541690813b156114b55761102d60848a9283604051958694859363577ed67f60e11b85526004850190606080916001600160a01b0381511684526001600160a01b0360208201511660208501526001600160a01b0360408201511660408501520151910152565b5af180156114aa579088916114f9575b50506001600160a01b036020840151166001600160a01b036060850151166040519161106883612baa565b8252336020830152604082015282606082015260406110e360846001600160a01b03600454169383519485938492630716fa0360e31b84526004840190606080916001600160a01b0381511684526001600160a01b0360208201511660208501526001600160a01b0360408201511660408501520151910152565b5afa9586156114aa57889189976114cd575b506001600160a01b0390511694610100850151995160038110156114b957899a61116691610442610140890151916040519361113085612bdc565b6001600160a01b0388169b8c865260208601528c60408601526001600160a01b0387166060860152608085015260a08401612fcd565b6001600160a01b0381163b156114b5576040516326b3293f60e01b81526001600160a01b0392831660048201526024810188905260448101899052918991839160649183913491165af19081156114aa578891611495575b505061143a575b6001600160a01b03602083015116906001600160a01b03606084015116604051926111ef84612bdc565b8352866020840152336040840152606083015260808201528260a08201528360c08201526001600160a01b0360045416803b156107bc5760408051632b54892b60e01b815283516001600160a01b0390811660048301526020850151602483015291840151821660448201526060840151821660648201526080840151608482015260a084015190911660a482015260c09092015160c48301528690829060e490829084905af19081156107fc578691611425575b50506001600160a01b0360055416908051906001600160a01b036020820151169560246001600160a01b036060840151169560408401519360c060a08201519101519160206001600160a01b0360065416604051958680926302ef145760e51b82528960048301525afa93841561141a578c946113f9575b50873b156113f5578b998a966040519c8d9b8c9a8b997fd972fb48000000000000000000000000000000000000000000000000000000008b5260048b01523360248b015260448a0161018090526101848a0161137791613082565b9160648a015260848901526003198882030160a4890152611397916130bf565b9160c487015260e486015242610104860152600319858203016101248601526113bf91613014565b838103600319016101448501526113d591613039565b9061016483016113e491613007565b03925af1801561069d5761068c5750f35b8b80fd5b61141391945060203d6020116106d4576106c68183612c4d565b923861131c565b6040513d8e823e3d90fd5b8161142f91612c4d565b6109795784386112a4565b6001600160a01b0360065416803b156107bc578680916024604051809481936305543f8560e01b83528b60048401525af1908115610783578791611480575b50506111c5565b8161148a91612c4d565b6107a3578538611479565b8161149f91612c4d565b6107bc5786386111be565b6040513d8a823e3d90fd5b8880fd5b60248a634e487b7160e01b81526021600452fd5b6114f19197506001600160a01b03925060403d60401161077c5761076a8183612c4d565b9690916110f5565b8161150391612c4d565b6107bc57863861103d565b8161151891612c4d565b6107bc578638610f7e565b9093506020813d602011611557575b8161153f60209383612c4d565b810103126107bc5761155090612e68565b9238610f1c565b3d9150611532565b905061158491925060403d60401161158d575b61157c8183612c4d565b810190612fb6565b91909138610ed7565b503d611572565b6040513d87823e3d90fd5b925093506020823d6020116115d7575b816115bc60209383612c4d565b810103126115d257905192849190610ec4610e81565b600080fd5b3d91506115af565b816115e991612c4d565b610975578338610d32565b855183526020958601958b955087945090920191600101610cfe565b8161161a91612c4d565b610975578338610c97565b85516001600160a01b031683526020958601958b955087945090920191600101610c63565b8161165491612c4d565b610975578338610bff565b8135815260209182019101610ac7565b8280fd5b6020809161168084612c85565b815201910190610a4d565b602483634e487b7160e01b81526041600452fd5b503461014057806116af36612c99565b6001600160a01b0360075416803b156116fa576040516308e2e70160e11b815282516001600160a01b03166004820152602090920151602483015282908290818381604481016113e4565b5050fd5b503461014057806003193601126101405761171761395a565b806001600160a01b03815473ffffffffffffffffffffffffffffffffffffffff1981168355167f8be0079c531659141344cd1fd0a4f28419497f9722a3daafe3b4186f6b6457e08280a380f35b5060203660031901126101405760043567ffffffffffffffff81116120345761018060031982360301126120345781604051916117a083612bf8565b6117ac81600401612c85565b83526117ba60248201612c85565b9260208101938452604081019060448301358252606483013567ffffffffffffffff8111610979576117f29060043691860101612dc1565b60608201908152608484013567ffffffffffffffff81116107a35761181d9060043691870101612e08565b936080830194855261183160a48201612cd1565b9360a0840194855260c084019560c4830135875260e48301359260038410156114b55761186a9060e08701948552610104369101612cec565b986101008601998a5273__$9a64d4390e1f317cfd7b279e493df8b9ee$__966001600160a01b03875116883b15610734576040519063bf6341cf60e01b825260048201528a816024818c5af4908115611ed1578b9161201f575b50506007546001600160a01b0316604051947fff7f9445000000000000000000000000000000000000000000000000000000008652336004870152602486016040905288516001600160a01b0316604487015283516001600160a01b0316606487015251608486015284808d895160a4830161018090526101c4830161194991613014565b87518382036043190160c48501526119619190613039565b908551151560e48401528d516101048401528951610124840161198391613059565b518051610144840152602081015160ff166101648401526040810151610184840152606001516101a483015203818d5a94602095f19384156106db578a94611fe4575b506007549051604051631f2eb46760e21b81526004810186905233602482015290151560448201529b6060918d916001600160a01b0390911690829081606481015b03925af19687156106ff5789948a9c8b99611fb9575b506001600160a01b036003541660206001600160a01b038a51166024604051809481936304d0a64760e01b835260048301525afa90811561141a578c91611f7f575b50823b156113f5578b6001600160a01b039160246040518094819363bf6341cf60e01b835216968760048301525af4801561141a57611f6a575b506001600160a01b03611ab79b9c9d818a51166040519d8e612baa565b8d528c602033910152169a8b60408201528660608201526001600160a01b036004541690813b15611f6657611b3f60848f9283604051958694859363577ed67f60e11b85526004850190606080916001600160a01b0381511684526001600160a01b0360208201511660208501526001600160a01b0360408201511660408501520151910152565b5af18015611f4657908d91611f51575b50506001600160a01b038851169260405193611b6a85612baa565b84523360208501528b60408501528660608501526040611be660846001600160a01b03600454169683519788938492630716fa0360e31b84526004840190606080916001600160a01b0381511684526001600160a01b0360208201511660208501526001600160a01b0360408201511660408501520151910152565b5afa938415611f4657908d9392918495611f1a575b506001600160a01b039051169a5190516003811015611f06578d9e519060405192611c2584612bdc565b6001600160a01b0386169d8e85526020850152866040850152846060850152608084015260a0830190611c5791612fcd565b60c0820152611c6590613178565b803b156113f5576040516326b3293f60e01b81526001600160a01b0392909216600483015260248201839052604482018590528b908290606490829034905af1908115611ed1578b91611ef1575b50506001600160a01b0360075416803b15610734578a809160446040518094819363b38ffd5f60e01b83528960048401528a60248401525af1908115611ed1578b91611edc575b50506001600160a01b0386511660405190611d1482612bdc565b81528360208201523360408201528960608201528460808201528860a08201528160c08201526001600160a01b0360045416803b156113f55760408051632b54892b60e01b815283516001600160a01b0390811660048301526020850151602483015291840151821660448201526060840151821660648201526080840151608482015260a084015190911660a482015260c09092015160c48301528b90829060e490829084905af1908115611ed1578b91611ebc575b50506024916001600160a01b038060055416975116955190519160206001600160a01b0360075416604051958680926302ef145760e51b82528960048301525afa93841561141a578c94611e9b575b50873b156113f5578b998a966040519c8d9b8c9a8b997f9e0e92e4000000000000000000000000000000000000000000000000000000008b5260048b01523360248b015260448a01526064890152608488015260a487015260c486015260e4850152426101048501526101248401610180905261018484016113bf91613014565b611eb591945060203d6020116106d4576106c68183612c4d565b9238611e1a565b81611ec691612c4d565b6106a8578938611dcb565b6040513d8d823e3d90fd5b81611ee691612c4d565b6106a8578938611cfa565b81611efb91612c4d565b6106a8578938611cb3565b60248e634e487b7160e01b81526021600452fd5b611f3e9195506001600160a01b03945060403d60401161077c5761076a8183612c4d565b949093611bfb565b6040513d8f823e3d90fd5b81611f5b91612c4d565b6113f5578b38611b4f565b8d80fd5b611f758c8092612c4d565b6107345738611a9a565b90506020813d602011611fb1575b81611f9a60209383612c4d565b810103126113f557611fab90612e68565b38611a60565b3d9150611f8d565b9195509750611fd8919b5060603d606011610838576108268183612c4d565b9b9194909b9738611a1e565b995092506020893d602011612017575b8161200160209383612c4d565b810103126115d25797518a989092611a086119c6565b3d9150611ff4565b8161202991612c4d565b6106a85789386118c4565b5080fd5b506101203660031901126101405761204f36612d2f565b906001600160a01b0360065416918051906040519163255709e560e11b835260048301528282602481875afa91821561083f57839261269b575b5080516040808301518151631f2eb46760e21b815260048101939093523360248401521515604483015290948590606490829087905af191821561083f5783948493612674575b506001600160a01b0360035416946040820160206001600160a01b038251166024604051809a81936304d0a64760e01b835260048301525afa9687156107fc578697612638575b5073__$9a64d4390e1f317cfd7b279e493df8b9ee$__96873b156107bc57866001600160a01b039160246040518094819363bf6341cf60e01b8352169b8c60048301525af4801561078357908791612623575b505060a06001600160a01b038251169301926001600160a01b038451166040519161219483612baa565b825233602083015260408201528560608201526001600160a01b036004541690813b156106fb576122186084899283604051958694859363577ed67f60e11b85526004850190606080916001600160a01b0381511684526001600160a01b0360208201511660208501526001600160a01b0360408201511660408501520151910152565b5af180156107835790879161260e575b50506001600160a01b03815116966001600160a01b038451166040519861224e8a612baa565b89523360208a0152604089015285606089015260406122c960846001600160a01b03600454169a83519b8c938492630716fa0360e31b84526004840190606080916001600160a01b0381511684526001600160a01b0360208201511660208501526001600160a01b0360408201511660408501520151910152565b5afa92831561078357879888946125e7575b506001600160a01b036020870151169160608701519960808801516003811015610738578a9b6123489161044260a08c0151916040519361231b85612bdc565b6001600160a01b038716998a865260208601528b6040860152876060860152608085015260a08401612fcd565b8751823b15610734576040516326b3293f60e01b81526001600160a01b039290921660048301526024820187905260448201529089908290606490829034905af19081156106ff5789916125d2575b5050612574575b6001600160a01b0382511685516001600160a01b0386511690604051926123c484612bdc565b8352602083015233604083015260608201528660808201528160a08201528360c08201526001600160a01b0360045416803b156114b55760408051632b54892b60e01b815283516001600160a01b0390811660048301526020850151602483015291840151821660448201526060840151821660648201526080840151608482015260a084015190911660a482015260c09092015160c48301528890829060e490829084905af19081156114aa57889161255f575b50506024946001600160a01b0380806005541692519451169551169660206001600160a01b0360065416604051988980926302ef145760e51b82528860048301525afa9687156106ff57899761253e575b50813b156114b557889661012495889461067d936040519b8c9a8b997fd3eca8ee000000000000000000000000000000000000000000000000000000008b5260048b01523360248b015260448a01526064890152608488015260a487015260c48601524260e4860152610104850190613007565b61255891975060203d6020116106d4576106c68183612c4d565b95386124ca565b8161256991612c4d565b6107bc578638612479565b6001600160a01b03600654168551813b156114b55788916024839260405194859384926305543f8560e01b845260048401525af19081156114aa5788916125bd575b505061239e565b816125c791612c4d565b6107bc5786386125b6565b816125dc91612c4d565b6106fb578738612397565b90935061260491985060403d60401161077c5761076a8183612c4d565b97909792386122db565b8161261891612c4d565b6107a3578538612228565b8161262d91612c4d565b6107a357853861216a565b9096506020813d60201161266c575b8161265460209383612c4d565b810103126107a35761266590612e68565b9538612117565b3d9150612647565b90925061269191945060403d60401161158d5761157c8183612c4d565b93909391386120d0565b9391503d8084863e6126ad8186612c4d565b8401936020818603126109755780519067ffffffffffffffff82116109795701610140818603126109755760405194610140860186811067ffffffffffffffff8211176128d55760405261270082612e68565b8652602082015167ffffffffffffffff81116107a357820181601f820112156107a35780519061272f82612e50565b9161273d6040519384612c4d565b80835260208084019160051b830101918483116114b557602001905b8282106128bd57505050602087015261277460408301612e68565b6040870152606082015167ffffffffffffffff81116107a35781612799918401612e99565b6060870152608082015167ffffffffffffffff81116107a357820181601f820112156107a3578051906127cb82612e50565b916127d96040519384612c4d565b80835260208084019160051b830101918483116114b557602001905b8282106128a557505050608087015261281060a08301612e68565b60a087015260c082015167ffffffffffffffff81116107a35781612835918401612e99565b60c087015260e082015167ffffffffffffffff81116107a3578161285a918401612f26565b60e087015261010082015167ffffffffffffffff81116107a3578291612884916101209401612f6b565b61010087015201516004811015610975576101208501529092906040612089565b602080916128b284612ef6565b8152019101906127f5565b602080916128ca84612e68565b815201910190612759565b602486634e487b7160e01b81526041600452fd5b50346101405760203660031901126101405760405190602082019180831067ffffffffffffffff8411176129fb5781926040526004358082526001600160a01b036007541690813b156129f65783916044839260405194859384927f3ed5027500000000000000000000000000000000000000000000000000000000845233600485015260248401525af190811561083f5783916129de575b50506001600160a01b03600554169051813b156116fa5782916024839260405194859384927fb60269d000000000000000000000000000000000000000000000000000000000845260048401525af1801561069d5761068c5750f35b816129e891612c4d565b6129f3578138612982565b50fd5b505050fd5b602482634e487b7160e01b81526041600452fd5b50346101405760803660031901126101405760405190612a2e82612baa565b612a36612c6f565b82526024356001600160a01b03811681036120345760208301526044356001600160a01b038116810361203457604083015260643560608301526040612ad860846001600160a01b03600454169483519586938492630716fa0360e31b84526004840190606080916001600160a01b0381511684526001600160a01b0360208201511660208501526001600160a01b0360408201511660408501520151910152565b5afa918215612b27578192612b05575b50604080516001600160a01b039290921682526020820192909252f35b9050612b20915060403d60401161077c5761076a8183612c4d565b9038612ae8565b50604051903d90823e3d90fd5b50346101405780612b4436612c99565b6001600160a01b0360065416803b156116fa576040516308e2e70160e11b815282516001600160a01b03166004820152602090920151602483015290919081908390604490829084905af18015612b2757612b9c5780f35b612ba591612c4d565b388180f35b6080810190811067ffffffffffffffff821117612bc657604052565b634e487b7160e01b600052604160045260246000fd5b60e0810190811067ffffffffffffffff821117612bc657604052565b610120810190811067ffffffffffffffff821117612bc657604052565b6040810190811067ffffffffffffffff821117612bc657604052565b60c0810190811067ffffffffffffffff821117612bc657604052565b90601f8019910116810190811067ffffffffffffffff821117612bc657604052565b600435906001600160a01b03821682036115d257565b35906001600160a01b03821682036115d257565b60409060031901126115d257604051612cb181612c15565b6004356001600160a01b03811681036115d2578152602435602082015290565b359081151582036115d257565b359060ff821682036115d257565b91908260809103126115d257604051612d0481612baa565b606080829480358452612d1960208201612cde565b6020850152604081013560408501520135910152565b906101206003198301126115d257604051612d4981612c31565b809260043582526024356001600160a01b03811681036115d257602083015260443580151581036115d2576040830152606435606083015260843560038110156115d25760a091612da091608085015260a4612cec565b910152565b67ffffffffffffffff8111612bc657601f01601f191660200190565b81601f820112156115d257803590612dd882612da5565b92612de66040519485612c4d565b828452602083830101116115d257816000926020809301838601378301015290565b91906040838203126115d25760405190612e2182612c15565b8193612e2c81612cde565b835260208101359167ffffffffffffffff83116115d257602092612da09201612dc1565b67ffffffffffffffff8111612bc65760051b60200190565b51906001600160a01b03821682036115d257565b91908260409103126115d2576020612e9383612e68565b92015190565b9080601f830112156115d2578151612eb081612e50565b92612ebe6040519485612c4d565b81845260208085019260051b8201019283116115d257602001905b828210612ee65750505090565b8151815260209182019101612ed9565b519081151582036115d257565b60005b838110612f165750506000910152565b8181015183820152602001612f06565b81601f820112156115d2578051612f3c81612da5565b92612f4a6040519485612c4d565b818452602082840101116115d257612f689160208085019101612f03565b90565b91906040838203126115d25760405190612f8482612c15565b8193805160ff811681036115d257835260208101519167ffffffffffffffff83116115d257602092612da09201612f26565b91908260409103126115d2576020612e9383612ef6565b6003821015612fd95752565b634e487b7160e01b600052602160045260246000fd5b908160209103126115d2575160048110156115d25790565b906004821015612fd95752565b9060209161302d81518092818552858086019101612f03565b601f01601f1916010190565b9060406020612f689360ff81511684520151918160208201520190613014565b906003821015612fd95752565b908160609103126115d2578051916040612e9360208401612e68565b906020808351928381520192019060005b8181106130a05750505090565b82516001600160a01b0316845260209384019390920191600101613093565b906020808351928381520192019060005b8181106130dd5750505090565b82518452602093840193909201916001016130d0565b60405190613102604083612c4d565b600182527f35000000000000000000000000000000000000000000000000000000000000006020830152565b156131365750565b613174906040519182917f08c379a0000000000000000000000000000000000000000000000000000000008352602060048401526024830190613014565b0390fd5b906000916001600160a01b0381511680156000146138d157503331905b604081019182518082101561381b575081516001600160a01b0316806137a257506131ca6131c16130f3565b8234101561312e565b825190810390811161378e5760a082018051600381101561377a57600103613467575060208201906001600160a01b03825116916001600160a01b0384511692604051906060820182811067ffffffffffffffff8211176134535760648a9594936020936001600160a01b039360405281528381019788528660408201878152846002541690856040519b8c9788967f35d260ec00000000000000000000000000000000000000000000000000000000885251166004870152511660248501525160448401525af193841561083f57839461341c575b506001600160a01b038151166001600160a01b0386511694604051916132c583612baa565b8252602082019586526001600160a01b0360408301938285526060840195865251168061339c575b50506001600160a01b0360025416803b15610979576001600160a01b03936084938560405198899788967f3d6a7eb4000000000000000000000000000000000000000000000000000000008852511660048701525116602485015251604484015251606483015234905af1801561159457613387575b506133859293505b6001600160a01b036060818351169351920151169161399c565b565b613392858092612c4d565b6109755783613363565b60025460405163095ea7b360e01b81526001600160a01b03909116600482015260248101929092526020908290604490829089905af18015611594576133e3575b806132ed565b6020813d602011613414575b816133fc60209383612c4d565b810103126109795761340d90612ef6565b50386133dd565b3d91506133ef565b925092506020823d60201161344b575b8161343960209383612c4d565b810103126115d25786915192386132a0565b3d915061342c565b60248a634e487b7160e01b81526041600452fd5b94909451600381101561376657600214613488575b5061338592935061336b565b9291906001600160a01b0381511693602082016001600160a01b038151169660808401516040519860a08a018a811067ffffffffffffffff8211176128d557604052338a5260208a0198895260408a0183815260608b0191825260808b019283526001546001600160a01b0316996040519b7ff293357b000000000000000000000000000000000000000000000000000000008d52516001600160a01b031660048d0152516001600160a01b031660248c01525160448b0152516001600160a01b031660648a01525160848901528780885a9260a491602094fa97881561083f578398613732575b506001600160a01b03825116966001600160a01b03855116918960c0870151926001600160a01b03604051966135a588612c31565b338852602088019c8d52604088019d8e52606088019687526080880194855260a08801958652511691826136b5575b5050506001600160a01b036001541692833b156107a35785969798999a6040519b8c967f7b4efcfd000000000000000000000000000000000000000000000000000000008852516001600160a01b03166004880152516001600160a01b03166024870152516044860152516001600160a01b031660648501525160848401525160a4830161368291606080918051845260ff6020820151166020850152604081015160408501520151910152565b81345a9261012493f1948515612b275761338594956136a5575b5084935061347c565b816136af91612c4d565b3861369c565b60405163095ea7b360e01b81526001600160a01b03929092166004830152602482015290602090829060449082908a905af180156107fc576136f9575b80806135d4565b6020813d60201161372a575b8161371260209383612c4d565b810103126107a35761372390612ef6565b50386136f2565b3d9150613705565b9097506020813d60201161375e575b8161374e60209383612c4d565b8101031261166f57519638613570565b3d9150613741565b602482634e487b7160e01b81526021600452fd5b602487634e487b7160e01b81526021600452fd5b602485634e487b7160e01b81526011600452fd5b6040516323b872dd60e01b81523360048201523060248201526044810183905290602090829060649082908a905af180156107fc576137e2575b506131ca565b6020813d602011613813575b816137fb60209383612c4d565b810103126107a35761380c90612ef6565b50386137dc565b3d91506137ee565b82516001600160a01b031691508161384b57505061338592935061336b82513410156138456130f3565b9061312e565b6040516323b872dd60e01b8152336004820152306024820152604481019190915294906020908690606490829085905af18015612b2757613892575061338592935061336b565b6020853d6020116138c9575b816138ab60209383612c4d565b8101031261014057506138c16133859394612ef6565b50839261347c565b3d915061389e565b6020602491604051928380927f70a082310000000000000000000000000000000000000000000000000000000082523360048301525afa90811561394f57849161391d575b5090613195565b90506020813d602011613947575b8161393860209383612c4d565b81010312610975575138613916565b3d915061392b565b6040513d86823e3d90fd5b6001600160a01b0360005416330361396e57565b7f118cdaa7000000000000000000000000000000000000000000000000000000006000523360045260246000fd5b6001600160a01b03169190826139b157505050565b60405163095ea7b360e01b81526001600160a01b03929092166004830152602482015290602090829060449082906000905af18015613a26576139f15750565b6020813d602011613a1e575b81613a0a60209383612c4d565b810103126115d257613a1b90612ef6565b50565b3d91506139fd565b6040513d6000823e3d90fdfea2646970667358221220cb4ed0b8fd5ec997491aba3d52c6501b4d18fbb49353c6382c70c113ba84ff9e64736f6c634300081c0033",
  "linkReferences": {
    "contracts/libs/AddressLib.sol": {
      "AddressLib": [
        {
          "length": 20,
          "start": 1030
        },
        {
          "length": 20,
          "start": 3462
        },
        {
          "length": 20,
          "start": 3513
        },
        {
          "length": 20,
          "start": 3554
        },
        {
          "length": 20,
          "start": 3665
        },
        {
          "length": 20,
          "start": 4348
        },
        {
          "length": 20,
          "start": 4408
        },
        {
          "length": 20,
          "start": 6738
        },
        {
          "length": 20,
          "start": 8951
        }
      ]
    },
    "contracts/libs/IntegerLib.sol": {
      "IntegerLib": [
        {
          "length": 20,
          "start": 3709
        },
        {
          "length": 20,
          "start": 3820
        }
      ]
    }
  },
  "deployedLinkReferences": {
    "contracts/libs/AddressLib.sol": {
      "AddressLib": [
        {
          "length": 20,
          "start": 553
        },
        {
          "length": 20,
          "start": 2985
        },
        {
          "length": 20,
          "start": 3036
        },
        {
          "length": 20,
          "start": 3077
        },
        {
          "length": 20,
          "start": 3188
        },
        {
          "length": 20,
          "start": 3871
        },
        {
          "length": 20,
          "start": 3931
        },
        {
          "length": 20,
          "start": 6261
        },
        {
          "length": 20,
          "start": 8474
        }
      ]
    },
    "contracts/libs/IntegerLib.sol": {
      "IntegerLib": [
        {
          "length": 20,
          "start": 3232
        },
        {
          "length": 20,
          "start": 3343
        }
      ]
    }
  }
}