{
  "_format": "hh-sol-artifact-1",
  "contractName": "Events",
  "sourceName": "contracts/events/Events.sol",
  "abi": [
    {
      "inputs": [
        {
          "internalType": "address",
          "name": "CONTROLLER",
          "type": "address"
        }
      ],
      "stateMutability": "nonpayable",
      "type": "constructor"
    },
    {
      "inputs": [],
      "name": "AccessControlBadConfirmation",
      "type": "error"
    },
    {
      "inputs": [
        {
          "internalType": "address",
          "name": "account",
          "type": "address"
        },
        {
          "internalType": "bytes32",
          "name": "neededRole",
          "type": "bytes32"
        }
      ],
      "name": "AccessControlUnauthorizedAccount",
      "type": "error"
    },
    {
      "anonymous": false,
      "inputs": [
        {
          "indexed": true,
          "internalType": "address",
          "name": "merchant",
          "type": "address"
        },
        {
          "indexed": false,
          "internalType": "address",
          "name": "hook",
          "type": "address"
        }
      ],
      "name": "HookRegistered",
      "type": "event"
    },
    {
      "anonymous": false,
      "inputs": [
        {
          "indexed": true,
          "internalType": "address",
          "name": "merchant",
          "type": "address"
        },
        {
          "indexed": false,
          "internalType": "address",
          "name": "hook",
          "type": "address"
        }
      ],
      "name": "HookUnRegistered",
      "type": "event"
    },
    {
      "anonymous": false,
      "inputs": [
        {
          "indexed": true,
          "internalType": "address",
          "name": "merchant",
          "type": "address"
        },
        {
          "components": [
            {
              "internalType": "uint8",
              "name": "schemaVersion",
              "type": "uint8"
            },
            {
              "internalType": "string",
              "name": "value",
              "type": "string"
            }
          ],
          "indexed": false,
          "internalType": "struct Types.Metadata",
          "name": "metadata",
          "type": "tuple"
        },
        {
          "indexed": false,
          "internalType": "address",
          "name": "wallet",
          "type": "address"
        },
        {
          "indexed": false,
          "internalType": "address[]",
          "name": "tokens",
          "type": "address[]"
        },
        {
          "indexed": false,
          "internalType": "address[]",
          "name": "signers",
          "type": "address[]"
        },
        {
          "indexed": false,
          "internalType": "uint256",
          "name": "minSigners",
          "type": "uint256"
        }
      ],
      "name": "MerchantCreated",
      "type": "event"
    },
    {
      "anonymous": false,
      "inputs": [
        {
          "indexed": true,
          "internalType": "address",
          "name": "merchant",
          "type": "address"
        },
        {
          "components": [
            {
              "internalType": "uint8",
              "name": "schemaVersion",
              "type": "uint8"
            },
            {
              "internalType": "string",
              "name": "value",
              "type": "string"
            }
          ],
          "indexed": false,
          "internalType": "struct Types.Metadata",
          "name": "metadata",
          "type": "tuple"
        }
      ],
      "name": "MerchantMetadataUpdated",
      "type": "event"
    },
    {
      "anonymous": false,
      "inputs": [
        {
          "indexed": false,
          "internalType": "bytes32",
          "name": "transactionId",
          "type": "bytes32"
        },
        {
          "indexed": false,
          "internalType": "address",
          "name": "payer",
          "type": "address"
        },
        {
          "indexed": false,
          "internalType": "address[]",
          "name": "payers",
          "type": "address[]"
        },
        {
          "indexed": false,
          "internalType": "address",
          "name": "merchant",
          "type": "address"
        },
        {
          "indexed": false,
          "internalType": "address",
          "name": "token",
          "type": "address"
        },
        {
          "indexed": false,
          "internalType": "uint256[]",
          "name": "amounts",
          "type": "uint256[]"
        },
        {
          "indexed": false,
          "internalType": "address",
          "name": "adjustedToken",
          "type": "address"
        },
        {
          "indexed": false,
          "internalType": "uint256",
          "name": "adjustedAmount",
          "type": "uint256"
        },
        {
          "indexed": false,
          "internalType": "uint256",
          "name": "timestamp",
          "type": "uint256"
        },
        {
          "indexed": false,
          "internalType": "string",
          "name": "description",
          "type": "string"
        },
        {
          "components": [
            {
              "internalType": "uint8",
              "name": "schemaVersion",
              "type": "uint8"
            },
            {
              "internalType": "string",
              "name": "value",
              "type": "string"
            }
          ],
          "indexed": false,
          "internalType": "struct Types.Metadata",
          "name": "metadata",
          "type": "tuple"
        },
        {
          "indexed": false,
          "internalType": "enum Enums.TransactionStatus",
          "name": "status",
          "type": "uint8"
        }
      ],
      "name": "OneTimeTransactionCreated",
      "type": "event"
    },
    {
      "anonymous": false,
      "inputs": [
        {
          "indexed": false,
          "internalType": "bytes32",
          "name": "transactionId",
          "type": "bytes32"
        },
        {
          "indexed": false,
          "internalType": "address",
          "name": "payer",
          "type": "address"
        },
        {
          "indexed": false,
          "internalType": "address",
          "name": "merchant",
          "type": "address"
        },
        {
          "indexed": false,
          "internalType": "address",
          "name": "token",
          "type": "address"
        },
        {
          "indexed": false,
          "internalType": "uint256",
          "name": "amount",
          "type": "uint256"
        },
        {
          "indexed": false,
          "internalType": "address",
          "name": "adjustedToken",
          "type": "address"
        },
        {
          "indexed": false,
          "internalType": "uint256",
          "name": "adjustedAmount",
          "type": "uint256"
        },
        {
          "indexed": false,
          "internalType": "uint256",
          "name": "timestamp",
          "type": "uint256"
        },
        {
          "indexed": false,
          "internalType": "enum Enums.TransactionStatus",
          "name": "status",
          "type": "uint8"
        }
      ],
      "name": "OneTimeTransactionFulfilled",
      "type": "event"
    },
    {
      "anonymous": false,
      "inputs": [
        {
          "indexed": false,
          "internalType": "bytes32",
          "name": "transactionId",
          "type": "bytes32"
        }
      ],
      "name": "RecurrentTransactionCancelled",
      "type": "event"
    },
    {
      "anonymous": false,
      "inputs": [
        {
          "indexed": false,
          "internalType": "bytes32",
          "name": "transactionId",
          "type": "bytes32"
        },
        {
          "indexed": false,
          "internalType": "address",
          "name": "payer",
          "type": "address"
        },
        {
          "indexed": false,
          "internalType": "address",
          "name": "merchant",
          "type": "address"
        },
        {
          "indexed": false,
          "internalType": "uint256",
          "name": "dueDate",
          "type": "uint256"
        },
        {
          "indexed": false,
          "internalType": "address",
          "name": "token",
          "type": "address"
        },
        {
          "indexed": false,
          "internalType": "uint256",
          "name": "amount",
          "type": "uint256"
        },
        {
          "indexed": false,
          "internalType": "address",
          "name": "adjustedToken",
          "type": "address"
        },
        {
          "indexed": false,
          "internalType": "uint256",
          "name": "adjustedAmount",
          "type": "uint256"
        },
        {
          "indexed": false,
          "internalType": "uint256",
          "name": "timestamp",
          "type": "uint256"
        },
        {
          "indexed": false,
          "internalType": "string",
          "name": "description",
          "type": "string"
        },
        {
          "components": [
            {
              "internalType": "uint8",
              "name": "schemaVersion",
              "type": "uint8"
            },
            {
              "internalType": "string",
              "name": "value",
              "type": "string"
            }
          ],
          "indexed": false,
          "internalType": "struct Types.Metadata",
          "name": "metadata",
          "type": "tuple"
        },
        {
          "indexed": false,
          "internalType": "enum Enums.TransactionStatus",
          "name": "status",
          "type": "uint8"
        }
      ],
      "name": "RecurrentTransactionCreated",
      "type": "event"
    },
    {
      "anonymous": false,
      "inputs": [
        {
          "indexed": false,
          "internalType": "bytes32",
          "name": "transactionId",
          "type": "bytes32"
        },
        {
          "indexed": false,
          "internalType": "address",
          "name": "payer",
          "type": "address"
        },
        {
          "indexed": false,
          "internalType": "address",
          "name": "merchant",
          "type": "address"
        },
        {
          "indexed": false,
          "internalType": "uint256",
          "name": "dueDate",
          "type": "uint256"
        },
        {
          "indexed": false,
          "internalType": "address",
          "name": "token",
          "type": "address"
        },
        {
          "indexed": false,
          "internalType": "uint256",
          "name": "amount",
          "type": "uint256"
        },
        {
          "indexed": false,
          "internalType": "address",
          "name": "adjustedToken",
          "type": "address"
        },
        {
          "indexed": false,
          "internalType": "uint256",
          "name": "adjustedAmount",
          "type": "uint256"
        },
        {
          "indexed": false,
          "internalType": "uint256",
          "name": "timestamp",
          "type": "uint256"
        },
        {
          "indexed": false,
          "internalType": "enum Enums.TransactionStatus",
          "name": "status",
          "type": "uint8"
        }
      ],
      "name": "RecurrentTransactionFulfilled",
      "type": "event"
    },
    {
      "anonymous": false,
      "inputs": [
        {
          "indexed": true,
          "internalType": "bytes32",
          "name": "role",
          "type": "bytes32"
        },
        {
          "indexed": true,
          "internalType": "bytes32",
          "name": "previousAdminRole",
          "type": "bytes32"
        },
        {
          "indexed": true,
          "internalType": "bytes32",
          "name": "newAdminRole",
          "type": "bytes32"
        }
      ],
      "name": "RoleAdminChanged",
      "type": "event"
    },
    {
      "anonymous": false,
      "inputs": [
        {
          "indexed": true,
          "internalType": "bytes32",
          "name": "role",
          "type": "bytes32"
        },
        {
          "indexed": true,
          "internalType": "address",
          "name": "account",
          "type": "address"
        },
        {
          "indexed": true,
          "internalType": "address",
          "name": "sender",
          "type": "address"
        }
      ],
      "name": "RoleGranted",
      "type": "event"
    },
    {
      "anonymous": false,
      "inputs": [
        {
          "indexed": true,
          "internalType": "bytes32",
          "name": "role",
          "type": "bytes32"
        },
        {
          "indexed": true,
          "internalType": "address",
          "name": "account",
          "type": "address"
        },
        {
          "indexed": true,
          "internalType": "address",
          "name": "sender",
          "type": "address"
        }
      ],
      "name": "RoleRevoked",
      "type": "event"
    },
    {
      "anonymous": false,
      "inputs": [
        {
          "indexed": true,
          "internalType": "address",
          "name": "merchant",
          "type": "address"
        },
        {
          "indexed": false,
          "internalType": "address[]",
          "name": "signers",
          "type": "address[]"
        },
        {
          "indexed": false,
          "internalType": "uint256",
          "name": "minSigners",
          "type": "uint256"
        }
      ],
      "name": "SignersUpdated",
      "type": "event"
    },
    {
      "anonymous": false,
      "inputs": [
        {
          "indexed": true,
          "internalType": "bytes32",
          "name": "subsciptionId",
          "type": "bytes32"
        }
      ],
      "name": "SubsciptionDeleted",
      "type": "event"
    },
    {
      "anonymous": false,
      "inputs": [
        {
          "indexed": true,
          "internalType": "bytes32",
          "name": "subsciptionId",
          "type": "bytes32"
        },
        {
          "indexed": true,
          "internalType": "address",
          "name": "merchant",
          "type": "address"
        },
        {
          "indexed": false,
          "internalType": "uint256",
          "name": "interval",
          "type": "uint256"
        },
        {
          "indexed": false,
          "internalType": "uint256",
          "name": "amount",
          "type": "uint256"
        },
        {
          "indexed": false,
          "internalType": "uint256",
          "name": "gracePeriod",
          "type": "uint256"
        },
        {
          "indexed": false,
          "internalType": "string",
          "name": "description",
          "type": "string"
        }
      ],
      "name": "SubscriptionCreated",
      "type": "event"
    },
    {
      "anonymous": false,
      "inputs": [
        {
          "indexed": true,
          "internalType": "bytes32",
          "name": "subsciptionId",
          "type": "bytes32"
        },
        {
          "indexed": false,
          "internalType": "uint256",
          "name": "amount",
          "type": "uint256"
        },
        {
          "indexed": false,
          "internalType": "uint256",
          "name": "gracePeriod",
          "type": "uint256"
        },
        {
          "indexed": false,
          "internalType": "string",
          "name": "description",
          "type": "string"
        },
        {
          "indexed": false,
          "internalType": "bool",
          "name": "active",
          "type": "bool"
        }
      ],
      "name": "SubscriptionUpdated",
      "type": "event"
    },
    {
      "anonymous": false,
      "inputs": [
        {
          "indexed": true,
          "internalType": "address",
          "name": "merchant",
          "type": "address"
        },
        {
          "indexed": false,
          "internalType": "address[]",
          "name": "tokens",
          "type": "address[]"
        }
      ],
      "name": "TokensUpdated",
      "type": "event"
    },
    {
      "anonymous": false,
      "inputs": [
        {
          "indexed": true,
          "internalType": "address",
          "name": "merchant",
          "type": "address"
        },
        {
          "indexed": false,
          "internalType": "address",
          "name": "token",
          "type": "address"
        },
        {
          "indexed": false,
          "internalType": "address",
          "name": "payer",
          "type": "address"
        },
        {
          "indexed": false,
          "internalType": "uint256",
          "name": "amount",
          "type": "uint256"
        },
        {
          "indexed": false,
          "internalType": "bytes32",
          "name": "transactionId",
          "type": "bytes32"
        }
      ],
      "name": "TransactionReceived",
      "type": "event"
    },
    {
      "anonymous": false,
      "inputs": [
        {
          "indexed": true,
          "internalType": "address",
          "name": "merchant",
          "type": "address"
        },
        {
          "indexed": true,
          "internalType": "uint256",
          "name": "requestId",
          "type": "uint256"
        },
        {
          "indexed": false,
          "internalType": "address",
          "name": "signer",
          "type": "address"
        }
      ],
      "name": "WithdrawRequestApproved",
      "type": "event"
    },
    {
      "anonymous": false,
      "inputs": [
        {
          "indexed": true,
          "internalType": "address",
          "name": "merchant",
          "type": "address"
        },
        {
          "indexed": true,
          "internalType": "uint256",
          "name": "requestId",
          "type": "uint256"
        },
        {
          "indexed": false,
          "internalType": "address",
          "name": "token",
          "type": "address"
        },
        {
          "indexed": false,
          "internalType": "uint256",
          "name": "amount",
          "type": "uint256"
        },
        {
          "indexed": false,
          "internalType": "address",
          "name": "recipient",
          "type": "address"
        },
        {
          "indexed": false,
          "internalType": "address[]",
          "name": "signers",
          "type": "address[]"
        },
        {
          "indexed": false,
          "internalType": "bool",
          "name": "executed",
          "type": "bool"
        }
      ],
      "name": "WithdrawRequestCreated",
      "type": "event"
    },
    {
      "anonymous": false,
      "inputs": [
        {
          "indexed": true,
          "internalType": "address",
          "name": "merchant",
          "type": "address"
        },
        {
          "indexed": true,
          "internalType": "uint256",
          "name": "requestId",
          "type": "uint256"
        }
      ],
      "name": "WithdrawRequestExecuted",
      "type": "event"
    },
    {
      "inputs": [],
      "name": "BEAM_ROLE",
      "outputs": [
        {
          "internalType": "bytes32",
          "name": "",
          "type": "bytes32"
        }
      ],
      "stateMutability": "view",
      "type": "function"
    },
    {
      "inputs": [],
      "name": "DEFAULT_ADMIN_ROLE",
      "outputs": [
        {
          "internalType": "bytes32",
          "name": "",
          "type": "bytes32"
        }
      ],
      "stateMutability": "view",
      "type": "function"
    },
    {
      "inputs": [],
      "name": "HOOK_ROLE",
      "outputs": [
        {
          "internalType": "bytes32",
          "name": "",
          "type": "bytes32"
        }
      ],
      "stateMutability": "view",
      "type": "function"
    },
    {
      "inputs": [],
      "name": "MERCHANT_ROLE",
      "outputs": [
        {
          "internalType": "bytes32",
          "name": "",
          "type": "bytes32"
        }
      ],
      "stateMutability": "view",
      "type": "function"
    },
    {
      "inputs": [],
      "name": "WALLET_ROLE",
      "outputs": [
        {
          "internalType": "bytes32",
          "name": "",
          "type": "bytes32"
        }
      ],
      "stateMutability": "view",
      "type": "function"
    },
    {
      "inputs": [
        {
          "internalType": "bytes32",
          "name": "role",
          "type": "bytes32"
        }
      ],
      "name": "getRoleAdmin",
      "outputs": [
        {
          "internalType": "bytes32",
          "name": "",
          "type": "bytes32"
        }
      ],
      "stateMutability": "view",
      "type": "function"
    },
    {
      "inputs": [
        {
          "internalType": "bytes32",
          "name": "role",
          "type": "bytes32"
        },
        {
          "internalType": "address",
          "name": "account",
          "type": "address"
        }
      ],
      "name": "grantRole",
      "outputs": [],
      "stateMutability": "nonpayable",
      "type": "function"
    },
    {
      "inputs": [
        {
          "internalType": "address",
          "name": "account",
          "type": "address"
        },
        {
          "internalType": "bytes32",
          "name": "role",
          "type": "bytes32"
        }
      ],
      "name": "grantRole",
      "outputs": [],
      "stateMutability": "nonpayable",
      "type": "function"
    },
    {
      "inputs": [
        {
          "internalType": "address",
          "name": "wallet",
          "type": "address"
        }
      ],
      "name": "grantWalletRole",
      "outputs": [],
      "stateMutability": "nonpayable",
      "type": "function"
    },
    {
      "inputs": [
        {
          "internalType": "bytes32",
          "name": "role",
          "type": "bytes32"
        },
        {
          "internalType": "address",
          "name": "account",
          "type": "address"
        }
      ],
      "name": "hasRole",
      "outputs": [
        {
          "internalType": "bool",
          "name": "",
          "type": "bool"
        }
      ],
      "stateMutability": "view",
      "type": "function"
    },
    {
      "inputs": [
        {
          "internalType": "address",
          "name": "merchant",
          "type": "address"
        },
        {
          "internalType": "address",
          "name": "hook",
          "type": "address"
        }
      ],
      "name": "hookRegistered",
      "outputs": [],
      "stateMutability": "nonpayable",
      "type": "function"
    },
    {
      "inputs": [
        {
          "internalType": "address",
          "name": "merchant",
          "type": "address"
        },
        {
          "internalType": "address",
          "name": "hook",
          "type": "address"
        }
      ],
      "name": "hookUnRegistered",
      "outputs": [],
      "stateMutability": "nonpayable",
      "type": "function"
    },
    {
      "inputs": [
        {
          "internalType": "address",
          "name": "merchant",
          "type": "address"
        },
        {
          "components": [
            {
              "internalType": "uint8",
              "name": "schemaVersion",
              "type": "uint8"
            },
            {
              "internalType": "string",
              "name": "value",
              "type": "string"
            }
          ],
          "internalType": "struct Types.Metadata",
          "name": "metadata",
          "type": "tuple"
        },
        {
          "internalType": "address",
          "name": "wallet",
          "type": "address"
        },
        {
          "internalType": "address[]",
          "name": "tokens",
          "type": "address[]"
        },
        {
          "internalType": "address[]",
          "name": "signers",
          "type": "address[]"
        },
        {
          "internalType": "uint256",
          "name": "minSigners",
          "type": "uint256"
        }
      ],
      "name": "merchantCreated",
      "outputs": [],
      "stateMutability": "nonpayable",
      "type": "function"
    },
    {
      "inputs": [
        {
          "internalType": "address",
          "name": "merchant",
          "type": "address"
        },
        {
          "components": [
            {
              "internalType": "uint8",
              "name": "schemaVersion",
              "type": "uint8"
            },
            {
              "internalType": "string",
              "name": "value",
              "type": "string"
            }
          ],
          "internalType": "struct Types.Metadata",
          "name": "metadata",
          "type": "tuple"
        }
      ],
      "name": "merchantUpdated",
      "outputs": [],
      "stateMutability": "nonpayable",
      "type": "function"
    },
    {
      "inputs": [
        {
          "internalType": "bytes32",
          "name": "transactionId",
          "type": "bytes32"
        },
        {
          "internalType": "address",
          "name": "payer",
          "type": "address"
        },
        {
          "internalType": "address[]",
          "name": "payers",
          "type": "address[]"
        },
        {
          "internalType": "address",
          "name": "merchant",
          "type": "address"
        },
        {
          "internalType": "address",
          "name": "token",
          "type": "address"
        },
        {
          "internalType": "uint256[]",
          "name": "amounts",
          "type": "uint256[]"
        },
        {
          "internalType": "address",
          "name": "adjustedToken",
          "type": "address"
        },
        {
          "internalType": "uint256",
          "name": "adjustedAmount",
          "type": "uint256"
        },
        {
          "internalType": "uint256",
          "name": "timestamp",
          "type": "uint256"
        },
        {
          "internalType": "string",
          "name": "description",
          "type": "string"
        },
        {
          "components": [
            {
              "internalType": "uint8",
              "name": "schemaVersion",
              "type": "uint8"
            },
            {
              "internalType": "string",
              "name": "value",
              "type": "string"
            }
          ],
          "internalType": "struct Types.Metadata",
          "name": "metadata",
          "type": "tuple"
        },
        {
          "internalType": "enum Enums.TransactionStatus",
          "name": "status",
          "type": "uint8"
        }
      ],
      "name": "oneTimeTransactionCreated",
      "outputs": [],
      "stateMutability": "nonpayable",
      "type": "function"
    },
    {
      "inputs": [
        {
          "internalType": "bytes32",
          "name": "transactionId",
          "type": "bytes32"
        },
        {
          "internalType": "address",
          "name": "payer",
          "type": "address"
        },
        {
          "internalType": "address",
          "name": "merchant",
          "type": "address"
        },
        {
          "internalType": "address",
          "name": "token",
          "type": "address"
        },
        {
          "internalType": "uint256",
          "name": "amount",
          "type": "uint256"
        },
        {
          "internalType": "address",
          "name": "adjustedToken",
          "type": "address"
        },
        {
          "internalType": "uint256",
          "name": "adjustedAmount",
          "type": "uint256"
        },
        {
          "internalType": "uint256",
          "name": "timestamp",
          "type": "uint256"
        },
        {
          "internalType": "enum Enums.TransactionStatus",
          "name": "status",
          "type": "uint8"
        }
      ],
      "name": "oneTimeTransactionFulfilled",
      "outputs": [],
      "stateMutability": "nonpayable",
      "type": "function"
    },
    {
      "inputs": [
        {
          "internalType": "address",
          "name": "merchant",
          "type": "address"
        },
        {
          "internalType": "address",
          "name": "token",
          "type": "address"
        },
        {
          "internalType": "address",
          "name": "payer",
          "type": "address"
        },
        {
          "internalType": "uint256",
          "name": "amount",
          "type": "uint256"
        },
        {
          "internalType": "bytes32",
          "name": "transactionId",
          "type": "bytes32"
        }
      ],
      "name": "paymentReceived",
      "outputs": [],
      "stateMutability": "nonpayable",
      "type": "function"
    },
    {
      "inputs": [
        {
          "internalType": "bytes32",
          "name": "transactionId",
          "type": "bytes32"
        }
      ],
      "name": "recurrentTransactionCancelled",
      "outputs": [],
      "stateMutability": "nonpayable",
      "type": "function"
    },
    {
      "inputs": [
        {
          "internalType": "bytes32",
          "name": "transactionId",
          "type": "bytes32"
        },
        {
          "internalType": "address",
          "name": "payer",
          "type": "address"
        },
        {
          "internalType": "address",
          "name": "merchant",
          "type": "address"
        },
        {
          "internalType": "uint256",
          "name": "dueDate",
          "type": "uint256"
        },
        {
          "internalType": "address",
          "name": "token",
          "type": "address"
        },
        {
          "internalType": "uint256",
          "name": "amount",
          "type": "uint256"
        },
        {
          "internalType": "address",
          "name": "adjustedToken",
          "type": "address"
        },
        {
          "internalType": "uint256",
          "name": "adjustedAmount",
          "type": "uint256"
        },
        {
          "internalType": "uint256",
          "name": "timestamp",
          "type": "uint256"
        },
        {
          "internalType": "string",
          "name": "description",
          "type": "string"
        },
        {
          "components": [
            {
              "internalType": "uint8",
              "name": "schemaVersion",
              "type": "uint8"
            },
            {
              "internalType": "string",
              "name": "value",
              "type": "string"
            }
          ],
          "internalType": "struct Types.Metadata",
          "name": "metadata",
          "type": "tuple"
        },
        {
          "internalType": "enum Enums.TransactionStatus",
          "name": "status",
          "type": "uint8"
        }
      ],
      "name": "recurrentTransactionCreated",
      "outputs": [],
      "stateMutability": "nonpayable",
      "type": "function"
    },
    {
      "inputs": [
        {
          "internalType": "bytes32",
          "name": "transactionId",
          "type": "bytes32"
        },
        {
          "internalType": "address",
          "name": "payer",
          "type": "address"
        },
        {
          "internalType": "address",
          "name": "merchant",
          "type": "address"
        },
        {
          "internalType": "uint256",
          "name": "dueDate",
          "type": "uint256"
        },
        {
          "internalType": "address",
          "name": "token",
          "type": "address"
        },
        {
          "internalType": "uint256",
          "name": "amount",
          "type": "uint256"
        },
        {
          "internalType": "address",
          "name": "adjustedToken",
          "type": "address"
        },
        {
          "internalType": "uint256",
          "name": "adjustedAmount",
          "type": "uint256"
        },
        {
          "internalType": "uint256",
          "name": "timestamp",
          "type": "uint256"
        },
        {
          "internalType": "enum Enums.TransactionStatus",
          "name": "status",
          "type": "uint8"
        }
      ],
      "name": "recurrentTransactionFulfilled",
      "outputs": [],
      "stateMutability": "nonpayable",
      "type": "function"
    },
    {
      "inputs": [
        {
          "internalType": "bytes32",
          "name": "role",
          "type": "bytes32"
        },
        {
          "internalType": "address",
          "name": "callerConfirmation",
          "type": "address"
        }
      ],
      "name": "renounceRole",
      "outputs": [],
      "stateMutability": "nonpayable",
      "type": "function"
    },
    {
      "inputs": [
        {
          "internalType": "address",
          "name": "account",
          "type": "address"
        },
        {
          "internalType": "bytes32",
          "name": "role",
          "type": "bytes32"
        }
      ],
      "name": "revokeMinterRole",
      "outputs": [],
      "stateMutability": "nonpayable",
      "type": "function"
    },
    {
      "inputs": [
        {
          "internalType": "bytes32",
          "name": "role",
          "type": "bytes32"
        },
        {
          "internalType": "address",
          "name": "account",
          "type": "address"
        }
      ],
      "name": "revokeRole",
      "outputs": [],
      "stateMutability": "nonpayable",
      "type": "function"
    },
    {
      "inputs": [
        {
          "internalType": "address",
          "name": "merchant",
          "type": "address"
        },
        {
          "internalType": "address[]",
          "name": "signers",
          "type": "address[]"
        },
        {
          "internalType": "uint256",
          "name": "minSigners",
          "type": "uint256"
        }
      ],
      "name": "signersUpdated",
      "outputs": [],
      "stateMutability": "nonpayable",
      "type": "function"
    },
    {
      "inputs": [
        {
          "internalType": "bytes32",
          "name": "subsciptionId",
          "type": "bytes32"
        },
        {
          "internalType": "address",
          "name": "merchant",
          "type": "address"
        },
        {
          "internalType": "uint256",
          "name": "interval",
          "type": "uint256"
        },
        {
          "internalType": "uint256",
          "name": "amount",
          "type": "uint256"
        },
        {
          "internalType": "uint256",
          "name": "gracePeriod",
          "type": "uint256"
        },
        {
          "internalType": "string",
          "name": "description",
          "type": "string"
        }
      ],
      "name": "subscriptionCreated",
      "outputs": [],
      "stateMutability": "nonpayable",
      "type": "function"
    },
    {
      "inputs": [
        {
          "internalType": "bytes32",
          "name": "subsciptionId",
          "type": "bytes32"
        }
      ],
      "name": "subscriptionDeleted",
      "outputs": [],
      "stateMutability": "nonpayable",
      "type": "function"
    },
    {
      "inputs": [
        {
          "internalType": "bytes32",
          "name": "subsciptionId",
          "type": "bytes32"
        },
        {
          "internalType": "uint256",
          "name": "amount",
          "type": "uint256"
        },
        {
          "internalType": "uint256",
          "name": "gracePeriod",
          "type": "uint256"
        },
        {
          "internalType": "string",
          "name": "description",
          "type": "string"
        },
        {
          "internalType": "bool",
          "name": "active",
          "type": "bool"
        }
      ],
      "name": "subscriptionUpdated",
      "outputs": [],
      "stateMutability": "nonpayable",
      "type": "function"
    },
    {
      "inputs": [
        {
          "internalType": "bytes4",
          "name": "interfaceId",
          "type": "bytes4"
        }
      ],
      "name": "supportsInterface",
      "outputs": [
        {
          "internalType": "bool",
          "name": "",
          "type": "bool"
        }
      ],
      "stateMutability": "view",
      "type": "function"
    },
    {
      "inputs": [
        {
          "internalType": "address",
          "name": "merchant",
          "type": "address"
        },
        {
          "internalType": "address[]",
          "name": "tokens",
          "type": "address[]"
        }
      ],
      "name": "tokensUpdated",
      "outputs": [],
      "stateMutability": "nonpayable",
      "type": "function"
    },
    {
      "inputs": [
        {
          "internalType": "address",
          "name": "merchant",
          "type": "address"
        },
        {
          "internalType": "uint256",
          "name": "requestId",
          "type": "uint256"
        },
        {
          "internalType": "address",
          "name": "signer",
          "type": "address"
        }
      ],
      "name": "withdrawRequestApproved",
      "outputs": [],
      "stateMutability": "nonpayable",
      "type": "function"
    },
    {
      "inputs": [
        {
          "internalType": "address",
          "name": "merchant",
          "type": "address"
        },
        {
          "internalType": "uint256",
          "name": "requestId",
          "type": "uint256"
        },
        {
          "internalType": "address",
          "name": "token",
          "type": "address"
        },
        {
          "internalType": "uint256",
          "name": "amount",
          "type": "uint256"
        },
        {
          "internalType": "address",
          "name": "recipient",
          "type": "address"
        },
        {
          "internalType": "address[]",
          "name": "signers",
          "type": "address[]"
        },
        {
          "internalType": "bool",
          "name": "executed",
          "type": "bool"
        }
      ],
      "name": "withdrawRequestCreated",
      "outputs": [],
      "stateMutability": "nonpayable",
      "type": "function"
    },
    {
      "inputs": [
        {
          "internalType": "address",
          "name": "merchant",
          "type": "address"
        },
        {
          "internalType": "uint256",
          "name": "requestId",
          "type": "uint256"
        }
      ],
      "name": "withdrawRequestExecuted",
      "outputs": [],
      "stateMutability": "nonpayable",
      "type": "function"
    }
  ],
  "bytecode": "0x60803461006857601f6118d038819003918201601f19168301916001600160401b0383118484101761006d5780849260209460405283398101031261006857516001600160a01b03811681036100685761005890610083565b5060405161179e90816101128239f35b600080fd5b634e487b7160e01b600052604160045260246000fd5b6001600160a01b03811660009081526000805160206118b0833981519152602052604090205460ff1661010b576001600160a01b031660008181526000805160206118b083398151915260205260408120805460ff191660011790553391907f2f8788117e7eff1d82e926ec794901d17c78024a50270940304540a733656f0d8180a4600190565b5060009056fe608080604052600436101561001357600080fd5b60003560e01c90816301ffc9a71461108f575080630c2343ce14610f7f5780631f4bcded14610f33578063248a9ca314610efe578063263d1fa014610e5757806328dc3d8914610db85780632f2ff15d14610d785780633300164514610d2357806336568abe14610cc45780633df5e28914610c3357806341de179c14610c0757806342d59d2714610bcd5780635261bbdb14610b015780637250daaf14610ac657806380d028e9146109f45780638411905a146109cb57806387c2dbae1461094457806391d14854146108f6578063974265d3146108bb5780639e0e92e414610767578063a217fddf1461074b578063ab2742dc1461071f578063ade33fd914610692578063b3d3583914610657578063b60269d014610610578063c6a6602c146105cd578063d3eca8ee146104fe578063d4dc773b1461047d578063d547741f14610436578063d972fb4814610252578063e58e9829146101e65763ed9dbcc91461017f57600080fd5b346101e15760403660031901126101e15761019861112d565b7fc945b44b54bbfab959d715564510fd4547cc9f415994de1c0b476ac7c94617ca60206001600160a01b036101cb611159565b936101d461137d565b81604051951685521692a2005b600080fd5b346101e15760603660031901126101e1576101ff61112d565b610207611143565b61020f6113ef565b6001600160a01b03604051911681527f78487974cc72de5c6bef86fe62e2102f7c904ce24ee2ce517ee055f6ce8f18ab60206001600160a01b03602435941692a3005b346101e1576101803660031901126101e15761026c611159565b60443567ffffffffffffffff81116101e15761028c9036906004016111b1565b61029792919261119b565b906102a061116f565b9360a43567ffffffffffffffff81116101e1576102c19036906004016111b1565b90916102cb611185565b926101243567ffffffffffffffff81116101e1576102ed9036906004016111e2565b98610144359367ffffffffffffffff85116101e157604060031986360301126101e157610164359760048910156101e1576103266114b3565b6040519a6004358c526001600160a01b031660208c015260408b0161018090526101808b019061035592611289565b976001600160a01b031660608a01526001600160a01b0316608089015287870360a08901528387527f07ffffffffffffffffffffffffffffffffffffffffffffffffffffffffffffff84116101e1577f7beb8a64e3d9f4b12c8fdabe8e255ae383c3a0e348b481a32734f2b4d0935d1d986020610431966001600160a01b03610413958c9b6104259960051b80928683013701911660c08b015260e43560e08b0152610104356101008b0152818a8203016101208b01520191611210565b90858203610140870152600401611231565b916101608401906112cf565b0390a1005b346101e15760403660031901126101e15761047b600435610455611159565b9061047661047182600052600060205260016040600020015490565b611525565b6116d9565b005b346101e15760a03660031901126101e15761049661112d565b7f87b6a005c3af0c1e96638e77307beb6d52d33fbfc4619015975ed543f801c0af60806001600160a01b036104c9611159565b93816104d3611143565b6104db6113ef565b8160405197168752166020860152606435604086015260843560608601521692a2005b346101e1576101203660031901126101e157610518611159565b610520611143565b61052861119b565b9160a435926001600160a01b0384168094036101e1576101043560048110156101e1577f3be3e9461fae0d01c4c50446b8ef7aa62bd38045d385b7fbb89d50a83cc75a80946001600160a01b036105ca9381610120976105866114b3565b81604051986004358a52166020890152166040870152166060850152608435608085015260a084015260c43560c084015260e43560e08401526101008301906112cf565ba1005b346101e15760203660031901126101e1576105e661130b565b6004357f3069caa97100f73ac5895ba9f62b50f56346af8ea19525a58a7686226c70d123600080a2005b346101e15760203660031901126101e1576106296114b3565b7fc3c75c4774edd09c7fdd8bae55bab418801f3e47da88adef31bb59b7b70aeb2660206040516004358152a1005b346101e15760003660031901126101e15760206040517f3c4a2d89ed8b4cf4347fec87df1c38410f8fc538bf9fd64c10f2717bc0feff368152f35b346101e15760403660031901126101e1576106ab61112d565b6024359067ffffffffffffffff82116101e157604060031983360301126101e1576001600160a01b037fbea2c9a519cde2922bf069bc90d2ddf5f582d5faa634c63ccfb798662b29178f916106fe61130b565b61071a6040519283926020845216946020830190600401611231565b0390a2005b346101e15760403660031901126101e15761047b61073b61112d565b610743611460565b60243561163f565b346101e15760003660031901126101e157602060405160008152f35b346101e1576101803660031901126101e157610781611159565b610789611143565b9061079261116f565b61079a611185565b6101243567ffffffffffffffff81116101e1576107bb9036906004016111e2565b610144359267ffffffffffffffff84116101e157604060031985360301126101e157610164359460048610156101e1576107f36114b3565b60405197889760043589526001600160a01b031660208901526001600160a01b0316604088015260643560608801526001600160a01b0316608087015260a43560a08701526001600160a01b031660c086015260e43560e0860152610104356101008601526101208501610180905261018085019061087192611210565b83810361014085015261088691600401611231565b906101608301610895916112cf565b037f6014c2ca7d36d8b82c3832d4842375c4720bf3756aae37698cfe7ca499be77b191a1005b346101e15760003660031901126101e15760206040517f6c7da319c9435c5de434cd96129af937695e037ff325442da45308f61d8036988152f35b346101e15760403660031901126101e15761090f611159565b60043560005260006020526001600160a01b0360406000209116600052602052602060ff604060002054166040519015158152f35b346101e15760403660031901126101e15761095d61112d565b6024359067ffffffffffffffff82116101e1576001600160a01b037fd98cf301fb2dcf478796c1ca646449e878f38c267e53debefa9310e84e2059df916109ab61071a9436906004016111b1565b94906109b56113ef565b6040519384936020855216956020840191611289565b346101e15760203660031901126101e15761047b6109e761112d565b6109ef61130b565b61156c565b346101e15760e03660031901126101e157610a0d61112d565b610a15611143565b610a1d61116f565b9060a43567ffffffffffffffff81116101e157610a3e9036906004016111b1565b91909260c435938415158095036101e1577fdbd32aa86478e5dc17d3a10a48f542ba22fcbb506496672a9219632ac0d95315936001600160a01b03610aac93610a856113ef565b8160405196168652606435602087015216604085015260a0606085015260a0840191611289565b926080820152806001600160a01b036024359516930390a3005b346101e15760003660031901126101e15760206040517f67ccde257d75279950abd1d7d68d886f7b7e94dd47233ff6b4e491efb4d3924e8152f35b346101e1576101403660031901126101e157610b1b611159565b610b23611143565b610b2b61116f565b91610b34611185565b916101243560048110156101e1576001600160a01b0361014094817f15b2dfb1057d54cdf3d3f24381a830541fb7466bcd87ac12ed9575f42a968ff797816105ca96610b7e6114b3565b81604051996004358b521660208a0152166040880152606435606088015216608086015260a43560a08601521660c084015260e43560e0840152610104356101008401526101208301906112cf565b346101e15760003660031901126101e15760206040517eea6fd8c10abfb711102b7664a26da281261eb974be3c1d2929cd9c36932d2f8152f35b346101e15760403660031901126101e15761047b610c2361112d565b610c2b611460565b6024356116d9565b346101e15760603660031901126101e157610c4c61112d565b60243567ffffffffffffffff81116101e157610c8d7f6f8c25f4ead087c594c69b3eeda8bf24114aa4cdcd34adfb98ed343c6c5f800f9136906004016111b1565b610c956113ef565b6001600160a01b03610cb4604051938493604085526040850191611289565b94604435602084015216930390a2005b346101e15760403660031901126101e157610cdd611159565b336001600160a01b03821603610cf95761047b906004356116d9565b7f6697b2320000000000000000000000000000000000000000000000000000000060005260046000fd5b346101e15760403660031901126101e157610d3c61112d565b610d446113ef565b6001600160a01b0360243591167fe4316ed18911c398c6a0479d3101bb4b55e9c97d6cd59b334bc4e4e4e066c978600080a3005b346101e15760403660031901126101e15761047b600435610d97611159565b90610db361047182600052600060205260016040600020015490565b61163f565b346101e15760a03660031901126101e15760643567ffffffffffffffff81116101e157610de99036906004016111e2565b90608435918215158093036101e157610e477fcc7e6ad857069b9cfef7c9c246ad520faff518e1b8b8eacf092eaf634efef63f92610e2561130b565b6040519260243584526044356020850152608060408501526080840191611210565b92606082015280600435930390a2005b346101e15760c03660031901126101e157610e70611159565b60a43567ffffffffffffffff81116101e1577f9ae827cd9f8babd31ed814c9626fe0d897fbb482e5ab93436b0c30d7e84e91e5610eb96001600160a01b039236906004016111e2565b929093610ec461130b565b610ef9604051928392604435845260643560208501526084356040850152608060608501521695600435956080840191611210565b0390a3005b346101e15760203660031901126101e1576020610f2b600435600052600060205260016040600020015490565b604051908152f35b346101e15760403660031901126101e157610f4c61112d565b7f4941bb78cc88c86e525a7d4711f15cc16bc7de17a618b8384373bdceb1c9322860206001600160a01b036101cb611159565b346101e15760c03660031901126101e157610f9861112d565b60243567ffffffffffffffff81116101e157604060031982360301126101e157610fc0611143565b9060643567ffffffffffffffff81116101e157610fe19036906004016111b1565b9190926084359067ffffffffffffffff82116101e1577f8fa08b532ce6425030ae6e72e5ab5d1c2cd9d62713e92040877fd2306915a0299461105d9461107161107f9361103a6001600160a01b039636906004016111b1565b93909461104561130b565b876040519a8b9a60a08c5260a08c0190600401611231565b931660208a015288830360408a0152611289565b918583036060870152611289565b9460a435608084015216930390a2005b346101e15760203660031901126101e157600435907fffffffff0000000000000000000000000000000000000000000000000000000082168092036101e157817f7965db0b0000000000000000000000000000000000000000000000000000000060209314908115611103575b5015158152f35b7f01ffc9a700000000000000000000000000000000000000000000000000000000915014836110fc565b600435906001600160a01b03821682036101e157565b604435906001600160a01b03821682036101e157565b602435906001600160a01b03821682036101e157565b608435906001600160a01b03821682036101e157565b60c435906001600160a01b03821682036101e157565b606435906001600160a01b03821682036101e157565b9181601f840112156101e15782359167ffffffffffffffff83116101e1576020808501948460051b0101116101e157565b9181601f840112156101e15782359167ffffffffffffffff83116101e157602083818601950101116101e157565b908060209392818452848401376000828201840152601f01601f1916010190565b803560ff81168091036101e15782526020810135601e19823603018112156101e157016020813591019067ffffffffffffffff81116101e15780360382136101e1576040838160206112869601520191611210565b90565b916020908281520191906000905b8082106112a45750505090565b9091928335906001600160a01b0382168092036101e157602081600193829352019401920190611297565b9060048210156112dc5752565b7f4e487b7100000000000000000000000000000000000000000000000000000000600052602160045260246000fd5b3360009081527face8229bb5383429f76d25c60fcf365f2df6e5595b1ca48828b6fedb2d35f9f8602052604090205460ff161561134457565b63e2517d3f60e01b600052336004527f3c4a2d89ed8b4cf4347fec87df1c38410f8fc538bf9fd64c10f2717bc0feff3660245260446000fd5b3360009081527f8541875a6cfb479f9cdcc5a0cb70b1c3a6d1bcac17c9b549c05dea635618db08602052604090205460ff16156113b657565b63e2517d3f60e01b600052336004527f6c7da319c9435c5de434cd96129af937695e037ff325442da45308f61d80369860245260446000fd5b3360009081527f0bb0a03eacce12bcfe611af7009bd34481df46a976eeb5b81bb9bc3bbde4bfd4602052604090205460ff161561142857565b63e2517d3f60e01b600052336004527eea6fd8c10abfb711102b7664a26da281261eb974be3c1d2929cd9c36932d2f60245260446000fd5b3360009081527fad3228b676f7d3cd4284a5443f17f1962b36e491b30a40b2405849e597ba5fb5602052604090205460ff161561149957565b63e2517d3f60e01b60005233600452600060245260446000fd5b3360009081527f6f9ce3918760707cf803c393e031005014a87ff57792f0c0bf20b3f40f06eecd602052604090205460ff16156114ec57565b63e2517d3f60e01b600052336004527f67ccde257d75279950abd1d7d68d886f7b7e94dd47233ff6b4e491efb4d3924e60245260446000fd5b80600052600060205260406000206001600160a01b03331660005260205260ff60406000205416156115545750565b63e2517d3f60e01b6000523360045260245260446000fd5b6001600160a01b03811660009081527f0bb0a03eacce12bcfe611af7009bd34481df46a976eeb5b81bb9bc3bbde4bfd4602052604090205460ff16611639576001600160a01b031660008181527f0bb0a03eacce12bcfe611af7009bd34481df46a976eeb5b81bb9bc3bbde4bfd460205260408120805460ff191660011790553391907eea6fd8c10abfb711102b7664a26da281261eb974be3c1d2929cd9c36932d2f907f2f8788117e7eff1d82e926ec794901d17c78024a50270940304540a733656f0d9080a4600190565b50600090565b80600052600060205260406000206001600160a01b03831660005260205260ff60406000205416156000146116d25780600052600060205260406000206001600160a01b0383166000526020526040600020600160ff198254161790556001600160a01b03339216907f2f8788117e7eff1d82e926ec794901d17c78024a50270940304540a733656f0d600080a4600190565b5050600090565b80600052600060205260406000206001600160a01b03831660005260205260ff604060002054166000146116d25780600052600060205260406000206001600160a01b038316600052602052604060002060ff1981541690556001600160a01b03339216907ff6391f5c32d9c69d2a47ea670b442974b53935d1edc7fd64eb21e047a839171b600080a460019056fea2646970667358221220337250fb940d0e0ff4c515acb9d472a6d13ddbabe02cbbb9200583738a400deb64736f6c634300081c0033ad3228b676f7d3cd4284a5443f17f1962b36e491b30a40b2405849e597ba5fb5",
  "linkReferences": {},
  "deployedLinkReferences": {}
}