{
  "_format": "hh-sol-artifact-1",
  "contractName": "Events",
  "sourceName": "contracts/events/Events.sol",
  "abi": [
    {
      "inputs": [
        {
          "internalType": "address",
          "name": "CONTROLLER",
          "type": "address"
        }
      ],
      "stateMutability": "nonpayable",
      "type": "constructor"
    },
    {
      "inputs": [],
      "name": "AccessControlBadConfirmation",
      "type": "error"
    },
    {
      "inputs": [
        {
          "internalType": "address",
          "name": "account",
          "type": "address"
        },
        {
          "internalType": "bytes32",
          "name": "neededRole",
          "type": "bytes32"
        }
      ],
      "name": "AccessControlUnauthorizedAccount",
      "type": "error"
    },
    {
      "anonymous": false,
      "inputs": [
        {
          "indexed": true,
          "internalType": "address",
          "name": "merchant",
          "type": "address"
        },
        {
          "indexed": false,
          "internalType": "address",
          "name": "hook",
          "type": "address"
        }
      ],
      "name": "HookRegistered",
      "type": "event"
    },
    {
      "anonymous": false,
      "inputs": [
        {
          "indexed": true,
          "internalType": "address",
          "name": "merchant",
          "type": "address"
        },
        {
          "indexed": false,
          "internalType": "address",
          "name": "hook",
          "type": "address"
        }
      ],
      "name": "HookUnRegistered",
      "type": "event"
    },
    {
      "anonymous": false,
      "inputs": [
        {
          "indexed": true,
          "internalType": "address",
          "name": "merchant",
          "type": "address"
        },
        {
          "components": [
            {
              "internalType": "uint8",
              "name": "schemaVersion",
              "type": "uint8"
            },
            {
              "internalType": "string",
              "name": "value",
              "type": "string"
            }
          ],
          "indexed": false,
          "internalType": "struct Types.Metadata",
          "name": "metadata",
          "type": "tuple"
        },
        {
          "indexed": false,
          "internalType": "address",
          "name": "wallet",
          "type": "address"
        },
        {
          "indexed": false,
          "internalType": "address[]",
          "name": "tokens",
          "type": "address[]"
        },
        {
          "indexed": false,
          "internalType": "address[]",
          "name": "signers",
          "type": "address[]"
        },
        {
          "indexed": false,
          "internalType": "uint256",
          "name": "minSigners",
          "type": "uint256"
        }
      ],
      "name": "MerchantCreated",
      "type": "event"
    },
    {
      "anonymous": false,
      "inputs": [
        {
          "indexed": true,
          "internalType": "address",
          "name": "merchant",
          "type": "address"
        },
        {
          "components": [
            {
              "internalType": "uint8",
              "name": "schemaVersion",
              "type": "uint8"
            },
            {
              "internalType": "string",
              "name": "value",
              "type": "string"
            }
          ],
          "indexed": false,
          "internalType": "struct Types.Metadata",
          "name": "metadata",
          "type": "tuple"
        }
      ],
      "name": "MerchantMetadataUpdated",
      "type": "event"
    },
    {
      "anonymous": false,
      "inputs": [
        {
          "indexed": false,
          "internalType": "bytes32",
          "name": "transactionId",
          "type": "bytes32"
        },
        {
          "indexed": false,
          "internalType": "address",
          "name": "payer",
          "type": "address"
        },
        {
          "indexed": false,
          "internalType": "address[]",
          "name": "payers",
          "type": "address[]"
        },
        {
          "indexed": false,
          "internalType": "address",
          "name": "merchant",
          "type": "address"
        },
        {
          "indexed": false,
          "internalType": "address",
          "name": "token",
          "type": "address"
        },
        {
          "indexed": false,
          "internalType": "uint256[]",
          "name": "amounts",
          "type": "uint256[]"
        },
        {
          "indexed": false,
          "internalType": "address",
          "name": "adjustedToken",
          "type": "address"
        },
        {
          "indexed": false,
          "internalType": "uint256",
          "name": "adjustedAmount",
          "type": "uint256"
        },
        {
          "indexed": false,
          "internalType": "uint256",
          "name": "timestamp",
          "type": "uint256"
        },
        {
          "indexed": false,
          "internalType": "string",
          "name": "description",
          "type": "string"
        },
        {
          "components": [
            {
              "internalType": "uint8",
              "name": "schemaVersion",
              "type": "uint8"
            },
            {
              "internalType": "string",
              "name": "value",
              "type": "string"
            }
          ],
          "indexed": false,
          "internalType": "struct Types.Metadata",
          "name": "metadata",
          "type": "tuple"
        },
        {
          "indexed": false,
          "internalType": "enum Enums.TransactionStatus",
          "name": "status",
          "type": "uint8"
        }
      ],
      "name": "OneTimeTransactionCreated",
      "type": "event"
    },
    {
      "anonymous": false,
      "inputs": [
        {
          "indexed": false,
          "internalType": "bytes32",
          "name": "transactionId",
          "type": "bytes32"
        },
        {
          "indexed": false,
          "internalType": "address",
          "name": "payer",
          "type": "address"
        },
        {
          "indexed": false,
          "internalType": "address",
          "name": "merchant",
          "type": "address"
        },
        {
          "indexed": false,
          "internalType": "address",
          "name": "token",
          "type": "address"
        },
        {
          "indexed": false,
          "internalType": "uint256",
          "name": "amount",
          "type": "uint256"
        },
        {
          "indexed": false,
          "internalType": "address",
          "name": "adjustedToken",
          "type": "address"
        },
        {
          "indexed": false,
          "internalType": "uint256",
          "name": "adjustedAmount",
          "type": "uint256"
        },
        {
          "indexed": false,
          "internalType": "uint256",
          "name": "timestamp",
          "type": "uint256"
        },
        {
          "indexed": false,
          "internalType": "enum Enums.TransactionStatus",
          "name": "status",
          "type": "uint8"
        }
      ],
      "name": "OneTimeTransactionFulfilled",
      "type": "event"
    },
    {
      "anonymous": false,
      "inputs": [
        {
          "indexed": false,
          "internalType": "bytes32",
          "name": "transactionId",
          "type": "bytes32"
        }
      ],
      "name": "RecurrentTransactionCancelled",
      "type": "event"
    },
    {
      "anonymous": false,
      "inputs": [
        {
          "indexed": false,
          "internalType": "bytes32",
          "name": "transactionId",
          "type": "bytes32"
        },
        {
          "indexed": false,
          "internalType": "address",
          "name": "payer",
          "type": "address"
        },
        {
          "indexed": false,
          "internalType": "address",
          "name": "merchant",
          "type": "address"
        },
        {
          "indexed": false,
          "internalType": "uint256",
          "name": "dueDate",
          "type": "uint256"
        },
        {
          "indexed": false,
          "internalType": "address",
          "name": "token",
          "type": "address"
        },
        {
          "indexed": false,
          "internalType": "uint256",
          "name": "amount",
          "type": "uint256"
        },
        {
          "indexed": false,
          "internalType": "address",
          "name": "adjustedToken",
          "type": "address"
        },
        {
          "indexed": false,
          "internalType": "uint256",
          "name": "adjustedAmount",
          "type": "uint256"
        },
        {
          "indexed": false,
          "internalType": "uint256",
          "name": "timestamp",
          "type": "uint256"
        },
        {
          "indexed": false,
          "internalType": "string",
          "name": "description",
          "type": "string"
        },
        {
          "components": [
            {
              "internalType": "uint8",
              "name": "schemaVersion",
              "type": "uint8"
            },
            {
              "internalType": "string",
              "name": "value",
              "type": "string"
            }
          ],
          "indexed": false,
          "internalType": "struct Types.Metadata",
          "name": "metadata",
          "type": "tuple"
        },
        {
          "indexed": false,
          "internalType": "enum Enums.TransactionStatus",
          "name": "status",
          "type": "uint8"
        }
      ],
      "name": "RecurrentTransactionCreated",
      "type": "event"
    },
    {
      "anonymous": false,
      "inputs": [
        {
          "indexed": false,
          "internalType": "bytes32",
          "name": "transactionId",
          "type": "bytes32"
        },
        {
          "indexed": false,
          "internalType": "address",
          "name": "payer",
          "type": "address"
        },
        {
          "indexed": false,
          "internalType": "address",
          "name": "merchant",
          "type": "address"
        },
        {
          "indexed": false,
          "internalType": "uint256",
          "name": "dueDate",
          "type": "uint256"
        },
        {
          "indexed": false,
          "internalType": "address",
          "name": "token",
          "type": "address"
        },
        {
          "indexed": false,
          "internalType": "uint256",
          "name": "amount",
          "type": "uint256"
        },
        {
          "indexed": false,
          "internalType": "address",
          "name": "adjustedToken",
          "type": "address"
        },
        {
          "indexed": false,
          "internalType": "uint256",
          "name": "adjustedAmount",
          "type": "uint256"
        },
        {
          "indexed": false,
          "internalType": "uint256",
          "name": "timestamp",
          "type": "uint256"
        },
        {
          "indexed": false,
          "internalType": "enum Enums.TransactionStatus",
          "name": "status",
          "type": "uint8"
        }
      ],
      "name": "RecurrentTransactionFulfilled",
      "type": "event"
    },
    {
      "anonymous": false,
      "inputs": [
        {
          "indexed": true,
          "internalType": "bytes32",
          "name": "role",
          "type": "bytes32"
        },
        {
          "indexed": true,
          "internalType": "bytes32",
          "name": "previousAdminRole",
          "type": "bytes32"
        },
        {
          "indexed": true,
          "internalType": "bytes32",
          "name": "newAdminRole",
          "type": "bytes32"
        }
      ],
      "name": "RoleAdminChanged",
      "type": "event"
    },
    {
      "anonymous": false,
      "inputs": [
        {
          "indexed": true,
          "internalType": "bytes32",
          "name": "role",
          "type": "bytes32"
        },
        {
          "indexed": true,
          "internalType": "address",
          "name": "account",
          "type": "address"
        },
        {
          "indexed": true,
          "internalType": "address",
          "name": "sender",
          "type": "address"
        }
      ],
      "name": "RoleGranted",
      "type": "event"
    },
    {
      "anonymous": false,
      "inputs": [
        {
          "indexed": true,
          "internalType": "bytes32",
          "name": "role",
          "type": "bytes32"
        },
        {
          "indexed": true,
          "internalType": "address",
          "name": "account",
          "type": "address"
        },
        {
          "indexed": true,
          "internalType": "address",
          "name": "sender",
          "type": "address"
        }
      ],
      "name": "RoleRevoked",
      "type": "event"
    },
    {
      "anonymous": false,
      "inputs": [
        {
          "indexed": true,
          "internalType": "address",
          "name": "merchant",
          "type": "address"
        },
        {
          "indexed": false,
          "internalType": "address[]",
          "name": "signers",
          "type": "address[]"
        },
        {
          "indexed": false,
          "internalType": "uint256",
          "name": "minSigners",
          "type": "uint256"
        }
      ],
      "name": "SignersUpdated",
      "type": "event"
    },
    {
      "anonymous": false,
      "inputs": [
        {
          "indexed": true,
          "internalType": "bytes32",
          "name": "subsciptionId",
          "type": "bytes32"
        }
      ],
      "name": "SubsciptionDeleted",
      "type": "event"
    },
    {
      "anonymous": false,
      "inputs": [
        {
          "indexed": true,
          "internalType": "bytes32",
          "name": "subsciptionId",
          "type": "bytes32"
        },
        {
          "indexed": true,
          "internalType": "address",
          "name": "merchant",
          "type": "address"
        },
        {
          "indexed": false,
          "internalType": "address",
          "name": "token",
          "type": "address"
        },
        {
          "indexed": false,
          "internalType": "uint256",
          "name": "interval",
          "type": "uint256"
        },
        {
          "indexed": false,
          "internalType": "uint256",
          "name": "amount",
          "type": "uint256"
        },
        {
          "indexed": false,
          "internalType": "uint256",
          "name": "gracePeriod",
          "type": "uint256"
        },
        {
          "indexed": false,
          "internalType": "string",
          "name": "description",
          "type": "string"
        }
      ],
      "name": "SubscriptionCreated",
      "type": "event"
    },
    {
      "anonymous": false,
      "inputs": [
        {
          "indexed": true,
          "internalType": "bytes32",
          "name": "subsciptionId",
          "type": "bytes32"
        },
        {
          "indexed": false,
          "internalType": "uint256",
          "name": "amount",
          "type": "uint256"
        },
        {
          "indexed": false,
          "internalType": "uint256",
          "name": "gracePeriod",
          "type": "uint256"
        },
        {
          "indexed": false,
          "internalType": "string",
          "name": "description",
          "type": "string"
        },
        {
          "indexed": false,
          "internalType": "bool",
          "name": "active",
          "type": "bool"
        }
      ],
      "name": "SubscriptionUpdated",
      "type": "event"
    },
    {
      "anonymous": false,
      "inputs": [
        {
          "indexed": true,
          "internalType": "address",
          "name": "merchant",
          "type": "address"
        },
        {
          "indexed": false,
          "internalType": "address[]",
          "name": "tokens",
          "type": "address[]"
        }
      ],
      "name": "TokensUpdated",
      "type": "event"
    },
    {
      "anonymous": false,
      "inputs": [
        {
          "indexed": true,
          "internalType": "address",
          "name": "merchant",
          "type": "address"
        },
        {
          "indexed": false,
          "internalType": "address",
          "name": "token",
          "type": "address"
        },
        {
          "indexed": false,
          "internalType": "address",
          "name": "payer",
          "type": "address"
        },
        {
          "indexed": false,
          "internalType": "uint256",
          "name": "amount",
          "type": "uint256"
        },
        {
          "indexed": false,
          "internalType": "bytes32",
          "name": "transactionId",
          "type": "bytes32"
        }
      ],
      "name": "TransactionReceived",
      "type": "event"
    },
    {
      "anonymous": false,
      "inputs": [
        {
          "indexed": true,
          "internalType": "address",
          "name": "merchant",
          "type": "address"
        },
        {
          "indexed": true,
          "internalType": "uint256",
          "name": "requestId",
          "type": "uint256"
        },
        {
          "indexed": false,
          "internalType": "address",
          "name": "signer",
          "type": "address"
        }
      ],
      "name": "WithdrawRequestApproved",
      "type": "event"
    },
    {
      "anonymous": false,
      "inputs": [
        {
          "indexed": true,
          "internalType": "address",
          "name": "merchant",
          "type": "address"
        },
        {
          "indexed": true,
          "internalType": "uint256",
          "name": "requestId",
          "type": "uint256"
        },
        {
          "indexed": false,
          "internalType": "address",
          "name": "token",
          "type": "address"
        },
        {
          "indexed": false,
          "internalType": "uint256",
          "name": "amount",
          "type": "uint256"
        },
        {
          "indexed": false,
          "internalType": "address",
          "name": "recipient",
          "type": "address"
        },
        {
          "indexed": false,
          "internalType": "address[]",
          "name": "signers",
          "type": "address[]"
        },
        {
          "indexed": false,
          "internalType": "bool",
          "name": "executed",
          "type": "bool"
        }
      ],
      "name": "WithdrawRequestCreated",
      "type": "event"
    },
    {
      "anonymous": false,
      "inputs": [
        {
          "indexed": true,
          "internalType": "address",
          "name": "merchant",
          "type": "address"
        },
        {
          "indexed": true,
          "internalType": "uint256",
          "name": "requestId",
          "type": "uint256"
        }
      ],
      "name": "WithdrawRequestExecuted",
      "type": "event"
    },
    {
      "inputs": [],
      "name": "BEAM_ROLE",
      "outputs": [
        {
          "internalType": "bytes32",
          "name": "",
          "type": "bytes32"
        }
      ],
      "stateMutability": "view",
      "type": "function"
    },
    {
      "inputs": [],
      "name": "DEFAULT_ADMIN_ROLE",
      "outputs": [
        {
          "internalType": "bytes32",
          "name": "",
          "type": "bytes32"
        }
      ],
      "stateMutability": "view",
      "type": "function"
    },
    {
      "inputs": [],
      "name": "HOOK_ROLE",
      "outputs": [
        {
          "internalType": "bytes32",
          "name": "",
          "type": "bytes32"
        }
      ],
      "stateMutability": "view",
      "type": "function"
    },
    {
      "inputs": [],
      "name": "MERCHANT_ROLE",
      "outputs": [
        {
          "internalType": "bytes32",
          "name": "",
          "type": "bytes32"
        }
      ],
      "stateMutability": "view",
      "type": "function"
    },
    {
      "inputs": [],
      "name": "WALLET_ROLE",
      "outputs": [
        {
          "internalType": "bytes32",
          "name": "",
          "type": "bytes32"
        }
      ],
      "stateMutability": "view",
      "type": "function"
    },
    {
      "inputs": [
        {
          "internalType": "bytes32",
          "name": "role",
          "type": "bytes32"
        }
      ],
      "name": "getRoleAdmin",
      "outputs": [
        {
          "internalType": "bytes32",
          "name": "",
          "type": "bytes32"
        }
      ],
      "stateMutability": "view",
      "type": "function"
    },
    {
      "inputs": [
        {
          "internalType": "bytes32",
          "name": "role",
          "type": "bytes32"
        },
        {
          "internalType": "address",
          "name": "account",
          "type": "address"
        }
      ],
      "name": "grantRole",
      "outputs": [],
      "stateMutability": "nonpayable",
      "type": "function"
    },
    {
      "inputs": [
        {
          "internalType": "address",
          "name": "account",
          "type": "address"
        },
        {
          "internalType": "bytes32",
          "name": "role",
          "type": "bytes32"
        }
      ],
      "name": "grantRole",
      "outputs": [],
      "stateMutability": "nonpayable",
      "type": "function"
    },
    {
      "inputs": [
        {
          "internalType": "address",
          "name": "wallet",
          "type": "address"
        }
      ],
      "name": "grantWalletRole",
      "outputs": [],
      "stateMutability": "nonpayable",
      "type": "function"
    },
    {
      "inputs": [
        {
          "internalType": "bytes32",
          "name": "role",
          "type": "bytes32"
        },
        {
          "internalType": "address",
          "name": "account",
          "type": "address"
        }
      ],
      "name": "hasRole",
      "outputs": [
        {
          "internalType": "bool",
          "name": "",
          "type": "bool"
        }
      ],
      "stateMutability": "view",
      "type": "function"
    },
    {
      "inputs": [
        {
          "internalType": "address",
          "name": "merchant",
          "type": "address"
        },
        {
          "internalType": "address",
          "name": "hook",
          "type": "address"
        }
      ],
      "name": "hookRegistered",
      "outputs": [],
      "stateMutability": "nonpayable",
      "type": "function"
    },
    {
      "inputs": [
        {
          "internalType": "address",
          "name": "merchant",
          "type": "address"
        },
        {
          "internalType": "address",
          "name": "hook",
          "type": "address"
        }
      ],
      "name": "hookUnRegistered",
      "outputs": [],
      "stateMutability": "nonpayable",
      "type": "function"
    },
    {
      "inputs": [
        {
          "internalType": "address",
          "name": "merchant",
          "type": "address"
        },
        {
          "components": [
            {
              "internalType": "uint8",
              "name": "schemaVersion",
              "type": "uint8"
            },
            {
              "internalType": "string",
              "name": "value",
              "type": "string"
            }
          ],
          "internalType": "struct Types.Metadata",
          "name": "metadata",
          "type": "tuple"
        },
        {
          "internalType": "address",
          "name": "wallet",
          "type": "address"
        },
        {
          "internalType": "address[]",
          "name": "tokens",
          "type": "address[]"
        },
        {
          "internalType": "address[]",
          "name": "signers",
          "type": "address[]"
        },
        {
          "internalType": "uint256",
          "name": "minSigners",
          "type": "uint256"
        }
      ],
      "name": "merchantCreated",
      "outputs": [],
      "stateMutability": "nonpayable",
      "type": "function"
    },
    {
      "inputs": [
        {
          "internalType": "address",
          "name": "merchant",
          "type": "address"
        },
        {
          "components": [
            {
              "internalType": "uint8",
              "name": "schemaVersion",
              "type": "uint8"
            },
            {
              "internalType": "string",
              "name": "value",
              "type": "string"
            }
          ],
          "internalType": "struct Types.Metadata",
          "name": "metadata",
          "type": "tuple"
        }
      ],
      "name": "merchantUpdated",
      "outputs": [],
      "stateMutability": "nonpayable",
      "type": "function"
    },
    {
      "inputs": [
        {
          "internalType": "bytes32",
          "name": "transactionId",
          "type": "bytes32"
        },
        {
          "internalType": "address",
          "name": "payer",
          "type": "address"
        },
        {
          "internalType": "address[]",
          "name": "payers",
          "type": "address[]"
        },
        {
          "internalType": "address",
          "name": "merchant",
          "type": "address"
        },
        {
          "internalType": "address",
          "name": "token",
          "type": "address"
        },
        {
          "internalType": "uint256[]",
          "name": "amounts",
          "type": "uint256[]"
        },
        {
          "internalType": "address",
          "name": "adjustedToken",
          "type": "address"
        },
        {
          "internalType": "uint256",
          "name": "adjustedAmount",
          "type": "uint256"
        },
        {
          "internalType": "uint256",
          "name": "timestamp",
          "type": "uint256"
        },
        {
          "internalType": "string",
          "name": "description",
          "type": "string"
        },
        {
          "components": [
            {
              "internalType": "uint8",
              "name": "schemaVersion",
              "type": "uint8"
            },
            {
              "internalType": "string",
              "name": "value",
              "type": "string"
            }
          ],
          "internalType": "struct Types.Metadata",
          "name": "metadata",
          "type": "tuple"
        },
        {
          "internalType": "enum Enums.TransactionStatus",
          "name": "status",
          "type": "uint8"
        }
      ],
      "name": "oneTimeTransactionCreated",
      "outputs": [],
      "stateMutability": "nonpayable",
      "type": "function"
    },
    {
      "inputs": [
        {
          "internalType": "bytes32",
          "name": "transactionId",
          "type": "bytes32"
        },
        {
          "internalType": "address",
          "name": "payer",
          "type": "address"
        },
        {
          "internalType": "address",
          "name": "merchant",
          "type": "address"
        },
        {
          "internalType": "address",
          "name": "token",
          "type": "address"
        },
        {
          "internalType": "uint256",
          "name": "amount",
          "type": "uint256"
        },
        {
          "internalType": "address",
          "name": "adjustedToken",
          "type": "address"
        },
        {
          "internalType": "uint256",
          "name": "adjustedAmount",
          "type": "uint256"
        },
        {
          "internalType": "uint256",
          "name": "timestamp",
          "type": "uint256"
        },
        {
          "internalType": "enum Enums.TransactionStatus",
          "name": "status",
          "type": "uint8"
        }
      ],
      "name": "oneTimeTransactionFulfilled",
      "outputs": [],
      "stateMutability": "nonpayable",
      "type": "function"
    },
    {
      "inputs": [
        {
          "internalType": "bytes32",
          "name": "transactionId",
          "type": "bytes32"
        }
      ],
      "name": "recurrentTransactionCancelled",
      "outputs": [],
      "stateMutability": "nonpayable",
      "type": "function"
    },
    {
      "inputs": [
        {
          "internalType": "bytes32",
          "name": "transactionId",
          "type": "bytes32"
        },
        {
          "internalType": "address",
          "name": "payer",
          "type": "address"
        },
        {
          "internalType": "address",
          "name": "merchant",
          "type": "address"
        },
        {
          "internalType": "uint256",
          "name": "dueDate",
          "type": "uint256"
        },
        {
          "internalType": "address",
          "name": "token",
          "type": "address"
        },
        {
          "internalType": "uint256",
          "name": "amount",
          "type": "uint256"
        },
        {
          "internalType": "address",
          "name": "adjustedToken",
          "type": "address"
        },
        {
          "internalType": "uint256",
          "name": "adjustedAmount",
          "type": "uint256"
        },
        {
          "internalType": "uint256",
          "name": "timestamp",
          "type": "uint256"
        },
        {
          "internalType": "string",
          "name": "description",
          "type": "string"
        },
        {
          "components": [
            {
              "internalType": "uint8",
              "name": "schemaVersion",
              "type": "uint8"
            },
            {
              "internalType": "string",
              "name": "value",
              "type": "string"
            }
          ],
          "internalType": "struct Types.Metadata",
          "name": "metadata",
          "type": "tuple"
        },
        {
          "internalType": "enum Enums.TransactionStatus",
          "name": "status",
          "type": "uint8"
        }
      ],
      "name": "recurrentTransactionCreated",
      "outputs": [],
      "stateMutability": "nonpayable",
      "type": "function"
    },
    {
      "inputs": [
        {
          "internalType": "bytes32",
          "name": "transactionId",
          "type": "bytes32"
        },
        {
          "internalType": "address",
          "name": "payer",
          "type": "address"
        },
        {
          "internalType": "address",
          "name": "merchant",
          "type": "address"
        },
        {
          "internalType": "uint256",
          "name": "dueDate",
          "type": "uint256"
        },
        {
          "internalType": "address",
          "name": "token",
          "type": "address"
        },
        {
          "internalType": "uint256",
          "name": "amount",
          "type": "uint256"
        },
        {
          "internalType": "address",
          "name": "adjustedToken",
          "type": "address"
        },
        {
          "internalType": "uint256",
          "name": "adjustedAmount",
          "type": "uint256"
        },
        {
          "internalType": "uint256",
          "name": "timestamp",
          "type": "uint256"
        },
        {
          "internalType": "enum Enums.TransactionStatus",
          "name": "status",
          "type": "uint8"
        }
      ],
      "name": "recurrentTransactionFulfilled",
      "outputs": [],
      "stateMutability": "nonpayable",
      "type": "function"
    },
    {
      "inputs": [
        {
          "internalType": "bytes32",
          "name": "role",
          "type": "bytes32"
        },
        {
          "internalType": "address",
          "name": "callerConfirmation",
          "type": "address"
        }
      ],
      "name": "renounceRole",
      "outputs": [],
      "stateMutability": "nonpayable",
      "type": "function"
    },
    {
      "inputs": [
        {
          "internalType": "address",
          "name": "account",
          "type": "address"
        },
        {
          "internalType": "bytes32",
          "name": "role",
          "type": "bytes32"
        }
      ],
      "name": "revokeMinterRole",
      "outputs": [],
      "stateMutability": "nonpayable",
      "type": "function"
    },
    {
      "inputs": [
        {
          "internalType": "bytes32",
          "name": "role",
          "type": "bytes32"
        },
        {
          "internalType": "address",
          "name": "account",
          "type": "address"
        }
      ],
      "name": "revokeRole",
      "outputs": [],
      "stateMutability": "nonpayable",
      "type": "function"
    },
    {
      "inputs": [
        {
          "internalType": "address",
          "name": "merchant",
          "type": "address"
        },
        {
          "internalType": "address[]",
          "name": "signers",
          "type": "address[]"
        },
        {
          "internalType": "uint256",
          "name": "minSigners",
          "type": "uint256"
        }
      ],
      "name": "signersUpdated",
      "outputs": [],
      "stateMutability": "nonpayable",
      "type": "function"
    },
    {
      "inputs": [
        {
          "internalType": "bytes32",
          "name": "subsciptionId",
          "type": "bytes32"
        },
        {
          "internalType": "address",
          "name": "merchant",
          "type": "address"
        },
        {
          "internalType": "address",
          "name": "token",
          "type": "address"
        },
        {
          "internalType": "uint256",
          "name": "interval",
          "type": "uint256"
        },
        {
          "internalType": "uint256",
          "name": "amount",
          "type": "uint256"
        },
        {
          "internalType": "uint256",
          "name": "gracePeriod",
          "type": "uint256"
        },
        {
          "internalType": "string",
          "name": "description",
          "type": "string"
        }
      ],
      "name": "subscriptionCreated",
      "outputs": [],
      "stateMutability": "nonpayable",
      "type": "function"
    },
    {
      "inputs": [
        {
          "internalType": "bytes32",
          "name": "subsciptionId",
          "type": "bytes32"
        }
      ],
      "name": "subscriptionDeleted",
      "outputs": [],
      "stateMutability": "nonpayable",
      "type": "function"
    },
    {
      "inputs": [
        {
          "internalType": "bytes32",
          "name": "subsciptionId",
          "type": "bytes32"
        },
        {
          "internalType": "uint256",
          "name": "amount",
          "type": "uint256"
        },
        {
          "internalType": "uint256",
          "name": "gracePeriod",
          "type": "uint256"
        },
        {
          "internalType": "string",
          "name": "description",
          "type": "string"
        },
        {
          "internalType": "bool",
          "name": "active",
          "type": "bool"
        }
      ],
      "name": "subscriptionUpdated",
      "outputs": [],
      "stateMutability": "nonpayable",
      "type": "function"
    },
    {
      "inputs": [
        {
          "internalType": "bytes4",
          "name": "interfaceId",
          "type": "bytes4"
        }
      ],
      "name": "supportsInterface",
      "outputs": [
        {
          "internalType": "bool",
          "name": "",
          "type": "bool"
        }
      ],
      "stateMutability": "view",
      "type": "function"
    },
    {
      "inputs": [
        {
          "internalType": "address",
          "name": "merchant",
          "type": "address"
        },
        {
          "internalType": "address[]",
          "name": "tokens",
          "type": "address[]"
        }
      ],
      "name": "tokensUpdated",
      "outputs": [],
      "stateMutability": "nonpayable",
      "type": "function"
    },
    {
      "inputs": [
        {
          "internalType": "address",
          "name": "merchant",
          "type": "address"
        },
        {
          "internalType": "uint256",
          "name": "requestId",
          "type": "uint256"
        },
        {
          "internalType": "address",
          "name": "signer",
          "type": "address"
        }
      ],
      "name": "withdrawRequestApproved",
      "outputs": [],
      "stateMutability": "nonpayable",
      "type": "function"
    },
    {
      "inputs": [
        {
          "internalType": "address",
          "name": "merchant",
          "type": "address"
        },
        {
          "internalType": "uint256",
          "name": "requestId",
          "type": "uint256"
        },
        {
          "internalType": "address",
          "name": "token",
          "type": "address"
        },
        {
          "internalType": "uint256",
          "name": "amount",
          "type": "uint256"
        },
        {
          "internalType": "address",
          "name": "recipient",
          "type": "address"
        },
        {
          "internalType": "address[]",
          "name": "signers",
          "type": "address[]"
        },
        {
          "internalType": "bool",
          "name": "executed",
          "type": "bool"
        }
      ],
      "name": "withdrawRequestCreated",
      "outputs": [],
      "stateMutability": "nonpayable",
      "type": "function"
    },
    {
      "inputs": [
        {
          "internalType": "address",
          "name": "merchant",
          "type": "address"
        },
        {
          "internalType": "uint256",
          "name": "requestId",
          "type": "uint256"
        }
      ],
      "name": "withdrawRequestExecuted",
      "outputs": [],
      "stateMutability": "nonpayable",
      "type": "function"
    }
  ],
  "bytecode": "0x60803461006857601f61185538819003918201601f19168301916001600160401b0383118484101761006d5780849260209460405283398101031261006857516001600160a01b03811681036100685761005890610083565b5060405161172390816101128239f35b600080fd5b634e487b7160e01b600052604160045260246000fd5b6001600160a01b0381166000908152600080516020611835833981519152602052604090205460ff1661010b576001600160a01b0316600081815260008051602061183583398151915260205260408120805460ff191660011790553391907f2f8788117e7eff1d82e926ec794901d17c78024a50270940304540a733656f0d8180a4600190565b5060009056fe608080604052600436101561001357600080fd5b60003560e01c90816301ffc9a714611014575080630c2343ce14610f045780631f4bcded14610eb8578063248a9ca314610e8357806328dc3d8914610de45780632f2ff15d14610da45780633300164514610d4f57806336568abe14610cf05780633df5e28914610c5f57806341de179c14610c3357806342d59d2714610bf95780635261bbdb14610b2d5780637250daaf14610af257806380d028e914610a205780638411905a146109f757806387c2dbae1461097057806391d1485414610922578063974265d3146108e75780639e0e92e414610793578063a217fddf14610777578063ab2742dc1461074b578063ade33fd9146106be578063b3d3583914610683578063b60269d01461063c578063c6a6602c146105f9578063d3eca8ee1461052a578063d547741f146104e3578063d972fb48146102ff578063e58e982914610293578063ed9dbcc9146102315763fe0b67551461017457600080fd5b3461022c5760e036600319011261022c5761018d6110de565b6101956110c8565b60c4359067ffffffffffffffff821161022c576001600160a01b037fc8f5e34ddfbecfa84cc70e367d644ebf5448f87602e3238967fb5d2b9c9e9c80916102276101e483953690600401611167565b9590966101ef611290565b6040519485941684526064356020850152608435604085015260a435606085015260a0608085015216956004359560a0840191611195565b0390a3005b600080fd5b3461022c57604036600319011261022c5761024a6110b2565b7fc945b44b54bbfab959d715564510fd4547cc9f415994de1c0b476ac7c94617ca60206001600160a01b0361027d6110de565b93610286611302565b81604051951685521692a2005b3461022c57606036600319011261022c576102ac6110b2565b6102b46110c8565b6102bc611374565b6001600160a01b03604051911681527f78487974cc72de5c6bef86fe62e2102f7c904ce24ee2ce517ee055f6ce8f18ab60206001600160a01b03602435941692a3005b3461022c5761018036600319011261022c576103196110de565b60443567ffffffffffffffff811161022c57610339903690600401611136565b610344929192611120565b9061034d6110f4565b9360a43567ffffffffffffffff811161022c5761036e903690600401611136565b909161037861110a565b926101243567ffffffffffffffff811161022c5761039a903690600401611167565b98610144359367ffffffffffffffff851161022c576040600319863603011261022c576101643597600489101561022c576103d3611438565b6040519a6004358c526001600160a01b031660208c015260408b0161018090526101808b01906104029261120e565b976001600160a01b031660608a01526001600160a01b0316608089015287870360a08901528387527f07ffffffffffffffffffffffffffffffffffffffffffffffffffffffffffffff841161022c577f7beb8a64e3d9f4b12c8fdabe8e255ae383c3a0e348b481a32734f2b4d0935d1d9860206104de966001600160a01b036104c0958c9b6104d29960051b80928683013701911660c08b015260e43560e08b0152610104356101008b0152818a8203016101208b01520191611195565b908582036101408701526004016111b6565b91610160840190611254565b0390a1005b3461022c57604036600319011261022c576105286004356105026110de565b9061052361051e82600052600060205260016040600020015490565b6114aa565b61165e565b005b3461022c5761012036600319011261022c576105446110de565b61054c6110c8565b610554611120565b9160a435926001600160a01b03841680940361022c5761010435600481101561022c577f3be3e9461fae0d01c4c50446b8ef7aa62bd38045d385b7fbb89d50a83cc75a80946001600160a01b036105f69381610120976105b2611438565b81604051986004358a52166020890152166040870152166060850152608435608085015260a084015260c43560c084015260e43560e0840152610100830190611254565ba1005b3461022c57602036600319011261022c57610612611290565b6004357f3069caa97100f73ac5895ba9f62b50f56346af8ea19525a58a7686226c70d123600080a2005b3461022c57602036600319011261022c57610655611438565b7fc3c75c4774edd09c7fdd8bae55bab418801f3e47da88adef31bb59b7b70aeb2660206040516004358152a1005b3461022c57600036600319011261022c5760206040517f3c4a2d89ed8b4cf4347fec87df1c38410f8fc538bf9fd64c10f2717bc0feff368152f35b3461022c57604036600319011261022c576106d76110b2565b6024359067ffffffffffffffff821161022c576040600319833603011261022c576001600160a01b037fbea2c9a519cde2922bf069bc90d2ddf5f582d5faa634c63ccfb798662b29178f9161072a611290565b61074660405192839260208452169460208301906004016111b6565b0390a2005b3461022c57604036600319011261022c576105286107676110b2565b61076f6113e5565b6024356115c4565b3461022c57600036600319011261022c57602060405160008152f35b3461022c5761018036600319011261022c576107ad6110de565b6107b56110c8565b906107be6110f4565b6107c661110a565b6101243567ffffffffffffffff811161022c576107e7903690600401611167565b610144359267ffffffffffffffff841161022c576040600319853603011261022c576101643594600486101561022c5761081f611438565b60405197889760043589526001600160a01b031660208901526001600160a01b0316604088015260643560608801526001600160a01b0316608087015260a43560a08701526001600160a01b031660c086015260e43560e0860152610104356101008601526101208501610180905261018085019061089d92611195565b8381036101408501526108b2916004016111b6565b9061016083016108c191611254565b037f6014c2ca7d36d8b82c3832d4842375c4720bf3756aae37698cfe7ca499be77b191a1005b3461022c57600036600319011261022c5760206040517f6c7da319c9435c5de434cd96129af937695e037ff325442da45308f61d8036988152f35b3461022c57604036600319011261022c5761093b6110de565b60043560005260006020526001600160a01b0360406000209116600052602052602060ff604060002054166040519015158152f35b3461022c57604036600319011261022c576109896110b2565b6024359067ffffffffffffffff821161022c576001600160a01b037fd98cf301fb2dcf478796c1ca646449e878f38c267e53debefa9310e84e2059df916109d7610746943690600401611136565b94906109e1611374565b604051938493602085521695602084019161120e565b3461022c57602036600319011261022c57610528610a136110b2565b610a1b611290565b6114f1565b3461022c5760e036600319011261022c57610a396110b2565b610a416110c8565b610a496110f4565b9060a43567ffffffffffffffff811161022c57610a6a903690600401611136565b91909260c4359384151580950361022c577fdbd32aa86478e5dc17d3a10a48f542ba22fcbb506496672a9219632ac0d95315936001600160a01b03610ad893610ab1611374565b8160405196168652606435602087015216604085015260a0606085015260a084019161120e565b926080820152806001600160a01b036024359516930390a3005b3461022c57600036600319011261022c5760206040517f67ccde257d75279950abd1d7d68d886f7b7e94dd47233ff6b4e491efb4d3924e8152f35b3461022c5761014036600319011261022c57610b476110de565b610b4f6110c8565b610b576110f4565b91610b6061110a565b9161012435600481101561022c576001600160a01b0361014094817f15b2dfb1057d54cdf3d3f24381a830541fb7466bcd87ac12ed9575f42a968ff797816105f696610baa611438565b81604051996004358b521660208a0152166040880152606435606088015216608086015260a43560a08601521660c084015260e43560e084015261010435610100840152610120830190611254565b3461022c57600036600319011261022c5760206040517eea6fd8c10abfb711102b7664a26da281261eb974be3c1d2929cd9c36932d2f8152f35b3461022c57604036600319011261022c57610528610c4f6110b2565b610c576113e5565b60243561165e565b3461022c57606036600319011261022c57610c786110b2565b60243567ffffffffffffffff811161022c57610cb97f6f8c25f4ead087c594c69b3eeda8bf24114aa4cdcd34adfb98ed343c6c5f800f913690600401611136565b610cc1611374565b6001600160a01b03610ce060405193849360408552604085019161120e565b94604435602084015216930390a2005b3461022c57604036600319011261022c57610d096110de565b336001600160a01b03821603610d25576105289060043561165e565b7f6697b2320000000000000000000000000000000000000000000000000000000060005260046000fd5b3461022c57604036600319011261022c57610d686110b2565b610d70611374565b6001600160a01b0360243591167fe4316ed18911c398c6a0479d3101bb4b55e9c97d6cd59b334bc4e4e4e066c978600080a3005b3461022c57604036600319011261022c57610528600435610dc36110de565b90610ddf61051e82600052600060205260016040600020015490565b6115c4565b3461022c5760a036600319011261022c5760643567ffffffffffffffff811161022c57610e15903690600401611167565b906084359182151580930361022c57610e737fcc7e6ad857069b9cfef7c9c246ad520faff518e1b8b8eacf092eaf634efef63f92610e51611290565b6040519260243584526044356020850152608060408501526080840191611195565b92606082015280600435930390a2005b3461022c57602036600319011261022c576020610eb0600435600052600060205260016040600020015490565b604051908152f35b3461022c57604036600319011261022c57610ed16110b2565b7f4941bb78cc88c86e525a7d4711f15cc16bc7de17a618b8384373bdceb1c9322860206001600160a01b0361027d6110de565b3461022c5760c036600319011261022c57610f1d6110b2565b60243567ffffffffffffffff811161022c576040600319823603011261022c57610f456110c8565b9060643567ffffffffffffffff811161022c57610f66903690600401611136565b9190926084359067ffffffffffffffff821161022c577f8fa08b532ce6425030ae6e72e5ab5d1c2cd9d62713e92040877fd2306915a02994610fe294610ff661100493610fbf6001600160a01b03963690600401611136565b939094610fca611290565b876040519a8b9a60a08c5260a08c01906004016111b6565b931660208a015288830360408a015261120e565b91858303606087015261120e565b9460a435608084015216930390a2005b3461022c57602036600319011261022c57600435907fffffffff00000000000000000000000000000000000000000000000000000000821680920361022c57817f7965db0b0000000000000000000000000000000000000000000000000000000060209314908115611088575b5015158152f35b7f01ffc9a70000000000000000000000000000000000000000000000000000000091501483611081565b600435906001600160a01b038216820361022c57565b604435906001600160a01b038216820361022c57565b602435906001600160a01b038216820361022c57565b608435906001600160a01b038216820361022c57565b60c435906001600160a01b038216820361022c57565b606435906001600160a01b038216820361022c57565b9181601f8401121561022c5782359167ffffffffffffffff831161022c576020808501948460051b01011161022c57565b9181601f8401121561022c5782359167ffffffffffffffff831161022c576020838186019501011161022c57565b908060209392818452848401376000828201840152601f01601f1916010190565b803560ff811680910361022c5782526020810135601e198236030181121561022c57016020813591019067ffffffffffffffff811161022c57803603821361022c5760408381602061120b9601520191611195565b90565b916020908281520191906000905b8082106112295750505090565b9091928335906001600160a01b03821680920361022c5760208160019382935201940192019061121c565b9060048210156112615752565b7f4e487b7100000000000000000000000000000000000000000000000000000000600052602160045260246000fd5b3360009081527face8229bb5383429f76d25c60fcf365f2df6e5595b1ca48828b6fedb2d35f9f8602052604090205460ff16156112c957565b63e2517d3f60e01b600052336004527f3c4a2d89ed8b4cf4347fec87df1c38410f8fc538bf9fd64c10f2717bc0feff3660245260446000fd5b3360009081527f8541875a6cfb479f9cdcc5a0cb70b1c3a6d1bcac17c9b549c05dea635618db08602052604090205460ff161561133b57565b63e2517d3f60e01b600052336004527f6c7da319c9435c5de434cd96129af937695e037ff325442da45308f61d80369860245260446000fd5b3360009081527f0bb0a03eacce12bcfe611af7009bd34481df46a976eeb5b81bb9bc3bbde4bfd4602052604090205460ff16156113ad57565b63e2517d3f60e01b600052336004527eea6fd8c10abfb711102b7664a26da281261eb974be3c1d2929cd9c36932d2f60245260446000fd5b3360009081527fad3228b676f7d3cd4284a5443f17f1962b36e491b30a40b2405849e597ba5fb5602052604090205460ff161561141e57565b63e2517d3f60e01b60005233600452600060245260446000fd5b3360009081527f6f9ce3918760707cf803c393e031005014a87ff57792f0c0bf20b3f40f06eecd602052604090205460ff161561147157565b63e2517d3f60e01b600052336004527f67ccde257d75279950abd1d7d68d886f7b7e94dd47233ff6b4e491efb4d3924e60245260446000fd5b80600052600060205260406000206001600160a01b03331660005260205260ff60406000205416156114d95750565b63e2517d3f60e01b6000523360045260245260446000fd5b6001600160a01b03811660009081527f0bb0a03eacce12bcfe611af7009bd34481df46a976eeb5b81bb9bc3bbde4bfd4602052604090205460ff166115be576001600160a01b031660008181527f0bb0a03eacce12bcfe611af7009bd34481df46a976eeb5b81bb9bc3bbde4bfd460205260408120805460ff191660011790553391907eea6fd8c10abfb711102b7664a26da281261eb974be3c1d2929cd9c36932d2f907f2f8788117e7eff1d82e926ec794901d17c78024a50270940304540a733656f0d9080a4600190565b50600090565b80600052600060205260406000206001600160a01b03831660005260205260ff60406000205416156000146116575780600052600060205260406000206001600160a01b0383166000526020526040600020600160ff198254161790556001600160a01b03339216907f2f8788117e7eff1d82e926ec794901d17c78024a50270940304540a733656f0d600080a4600190565b5050600090565b80600052600060205260406000206001600160a01b03831660005260205260ff604060002054166000146116575780600052600060205260406000206001600160a01b038316600052602052604060002060ff1981541690556001600160a01b03339216907ff6391f5c32d9c69d2a47ea670b442974b53935d1edc7fd64eb21e047a839171b600080a460019056fea264697066735822122087cbb8565195a02c9b7e230b345732fd1197d3191619a856d16cc4ea9998fab164736f6c634300081c0033ad3228b676f7d3cd4284a5443f17f1962b36e491b30a40b2405849e597ba5fb5",
  "linkReferences": {},
  "deployedLinkReferences": {}
}