{
  "_format": "hh-sol-artifact-1",
  "contractName": "HookManager",
  "sourceName": "contracts/HookManger.sol",
  "abi": [
    {
      "inputs": [
        {
          "internalType": "contract IHookEvents",
          "name": "events_",
          "type": "address"
        }
      ],
      "stateMutability": "nonpayable",
      "type": "constructor"
    },
    {
      "inputs": [
        {
          "internalType": "address",
          "name": "owner",
          "type": "address"
        }
      ],
      "name": "OwnableInvalidOwner",
      "type": "error"
    },
    {
      "inputs": [
        {
          "internalType": "address",
          "name": "account",
          "type": "address"
        }
      ],
      "name": "OwnableUnauthorizedAccount",
      "type": "error"
    },
    {
      "anonymous": false,
      "inputs": [
        {
          "indexed": true,
          "internalType": "address",
          "name": "previousOwner",
          "type": "address"
        },
        {
          "indexed": true,
          "internalType": "address",
          "name": "newOwner",
          "type": "address"
        }
      ],
      "name": "OwnershipTransferred",
      "type": "event"
    },
    {
      "inputs": [
        {
          "components": [
            {
              "internalType": "address",
              "name": "merchant",
              "type": "address"
            },
            {
              "internalType": "address",
              "name": "payer",
              "type": "address"
            },
            {
              "internalType": "address",
              "name": "token",
              "type": "address"
            },
            {
              "internalType": "uint256",
              "name": "amount",
              "type": "uint256"
            }
          ],
          "internalType": "struct Params.AdjustTokenAmount",
          "name": "params",
          "type": "tuple"
        }
      ],
      "name": "adjustTokenAmount",
      "outputs": [
        {
          "internalType": "address",
          "name": "adjustedToken",
          "type": "address"
        },
        {
          "internalType": "uint256",
          "name": "adjustedAmount",
          "type": "uint256"
        }
      ],
      "stateMutability": "view",
      "type": "function"
    },
    {
      "inputs": [
        {
          "components": [
            {
              "internalType": "address",
              "name": "merchant",
              "type": "address"
            },
            {
              "internalType": "bytes32",
              "name": "transactionId",
              "type": "bytes32"
            },
            {
              "internalType": "address",
              "name": "payer",
              "type": "address"
            },
            {
              "internalType": "address",
              "name": "token",
              "type": "address"
            },
            {
              "internalType": "uint256",
              "name": "amount",
              "type": "uint256"
            },
            {
              "internalType": "address",
              "name": "adjustedToken",
              "type": "address"
            },
            {
              "internalType": "uint256",
              "name": "adjustedAmount",
              "type": "uint256"
            }
          ],
          "internalType": "struct Params.AfterPayment",
          "name": "params",
          "type": "tuple"
        }
      ],
      "name": "afterPayment",
      "outputs": [],
      "stateMutability": "nonpayable",
      "type": "function"
    },
    {
      "inputs": [
        {
          "components": [
            {
              "internalType": "address",
              "name": "merchant",
              "type": "address"
            },
            {
              "internalType": "address",
              "name": "payer",
              "type": "address"
            },
            {
              "internalType": "address",
              "name": "token",
              "type": "address"
            },
            {
              "internalType": "uint256",
              "name": "amount",
              "type": "uint256"
            }
          ],
          "internalType": "struct Params.BeforePayment",
          "name": "params",
          "type": "tuple"
        }
      ],
      "name": "beforePayment",
      "outputs": [],
      "stateMutability": "nonpayable",
      "type": "function"
    },
    {
      "inputs": [
        {
          "internalType": "address",
          "name": "merchant",
          "type": "address"
        }
      ],
      "name": "getHook",
      "outputs": [
        {
          "internalType": "address",
          "name": "",
          "type": "address"
        }
      ],
      "stateMutability": "view",
      "type": "function"
    },
    {
      "inputs": [],
      "name": "owner",
      "outputs": [
        {
          "internalType": "address",
          "name": "",
          "type": "address"
        }
      ],
      "stateMutability": "view",
      "type": "function"
    },
    {
      "inputs": [
        {
          "components": [
            {
              "internalType": "address",
              "name": "hook",
              "type": "address"
            }
          ],
          "internalType": "struct Params.RegisterHook",
          "name": "params",
          "type": "tuple"
        }
      ],
      "name": "register",
      "outputs": [],
      "stateMutability": "nonpayable",
      "type": "function"
    },
    {
      "inputs": [],
      "name": "renounceOwnership",
      "outputs": [],
      "stateMutability": "nonpayable",
      "type": "function"
    },
    {
      "inputs": [
        {
          "internalType": "address",
          "name": "newOwner",
          "type": "address"
        }
      ],
      "name": "transferOwnership",
      "outputs": [],
      "stateMutability": "nonpayable",
      "type": "function"
    },
    {
      "inputs": [],
      "name": "unRegister",
      "outputs": [],
      "stateMutability": "nonpayable",
      "type": "function"
    }
  ],
  "bytecode": "0x60803460d157601f610d5738819003918201601f19168301916001600160401b0383118484101760d65780849260209460405283398101031260d157516001600160a01b0381169081900360d157331560bb5760008054336001600160a01b0319821681178355604051939290916001600160a01b0316907f8be0079c531659141344cd1fd0a4f28419497f9722a3daafe3b4186f6b6457e09080a3600180546001600160a01b031916919091179055610c6a90816100ed8239f35b631e4fbdf760e01b600052600060045260246000fd5b600080fd5b634e487b7160e01b600052604160045260246000fdfe608080604052600436101561001357600080fd5b600090813560e01c90816326d7b3b414610874575080632b54892b146106ca57806338b7d018146106905780633d4304e61461063d578063715018a6146105d75780638da5cb5b146105b1578063aefdacfe146104b6578063edb78993146101315763f2fde38b1461008457600080fd5b3461012e57602036600319011261012e576001600160a01b036100a5610a22565b6100ad610bf2565b168015610102576001600160a01b0382548273ffffffffffffffffffffffffffffffffffffffff198216178455167f8be0079c531659141344cd1fd0a4f28419497f9722a3daafe3b4186f6b6457e08380a380f35b6024827f1e4fbdf700000000000000000000000000000000000000000000000000000000815280600452fd5b80fd5b503461012e57602036600319011261012e57604051906020820182811067ffffffffffffffff8211176104a257604052610169610a22565b80835273__$9a64d4390e1f317cfd7b279e493df8b9ee$__90813b1561049e576001600160a01b0360248492604051948593849263bf6341cf60e01b84521660048301525af4801561037357908291610489575b505033815260026020526001600160a01b036040822054161591604051604081019381851067ffffffffffffffff8611176103f4578394604052600382527f3730300000000000000000000000000000000000000000000000000000000000602083015215610414575060606001600160a01b038251166004604051809681937fc7b90cc30000000000000000000000000000000000000000000000000000000083525af18015610373578290610382575b8293506001600160a01b038251168352600360205260408320908051151590825460ff62ff0000604061ff006020860151151560081b16940151151560101b1693169062ffffff191617171790556001600160a01b038151163383526002602052604083209073ffffffffffffffffffffffffffffffffffffffff198254161790556001600160a01b03806001541691511690803b1561037e576040517f1f4bcded0000000000000000000000000000000000000000000000000000000081523360048201526001600160a01b03909216602483015282908290818381604481015b03925af18015610373576103625750f35b8161036c916109ea565b61012e5780f35b6040513d84823e3d90fd5b5050fd5b506060833d60601161040c575b8161039c606093836109ea565b81010312610408576040516060810181811067ffffffffffffffff8211176103f457604084956103ea9282526103d181610be5565b84526103df60208201610be5565b602085015201610be5565b604082015261026f565b602484634e487b7160e01b81526041600452fd5b5080fd5b3d915061038f565b905060405180927f08c379a000000000000000000000000000000000000000000000000000000000825260206004830152825192836024840152815b84811061047157505091604492838284010152601f80199101168101030190fd5b60208282018101516044888401015286945001610450565b81610493916109ea565b61012e5780386101bd565b8280fd5b602482634e487b7160e01b81526041600452fd5b503461012e57608036600319011261012e57806104d236610a3d565b6104da610bf2565b6001600160a01b0361050c818351166001600160a01b031660005260026020526001600160a01b036040600020541690565b16808352600360205260ff604084205416610525575050f35b6001600160a01b036020830151169060606001600160a01b0360408501511693015190803b156105ad576040517f674c7f130000000000000000000000000000000000000000000000000000000081526001600160a01b039384166004820152939092166024840152604483015282908290606490829084905af18015610373576103625750f35b8480fd5b503461012e578060031936011261012e576001600160a01b036020915416604051908152f35b503461012e578060031936011261012e576105f0610bf2565b806001600160a01b03815473ffffffffffffffffffffffffffffffffffffffff1981168355167f8be0079c531659141344cd1fd0a4f28419497f9722a3daafe3b4186f6b6457e08280a380f35b503461012e57602036600319011261012e57602061067f61065c610a22565b6001600160a01b031660005260026020526001600160a01b036040600020541690565b6001600160a01b0360405191168152f35b503461012e57608036600319011261012e5760406106b56106b036610a3d565b610ab7565b6001600160a01b038351921682526020820152f35b503461012e5760e036600319011261012e576040519060e082019180831067ffffffffffffffff8411176104a2578192604052610705610a22565b8152602081016024358152604435916001600160a01b038316830361086f5760408101928352606435906001600160a01b03821682036105ad57606081019182526080810193608435855260a4356001600160a01b038116810361086b5760a083019081526001600160a01b036107ad8160c086019560c4358752610788610bf2565b51166001600160a01b031660005260026020526001600160a01b036040600020541690565b1694858852600360205260ff604089205460081c166107ca578780f35b6001600160a01b03808092519451169551169651915116925194803b1561086757879560c4948793604051998a9889977f0acafada0000000000000000000000000000000000000000000000000000000089526004890152602488015260448701526064860152608485015260a48401525af1801561037357610852575b8080808080808780f35b8161085c916109ea565b61012e578038610848565b8780fd5b8680fd5b505050fd5b823461012e578060031936011261012e5733815260026020526001600160a01b036040822054169173__$9a64d4390e1f317cfd7b279e493df8b9ee$__803b1561049e5781602481859363bf6341cf60e01b82528760048301525af48015610373576109da575b508181923b156109cc576040517fce693760000000000000000000000000000000000000000000000000000000008152828160048183865af19081156109cf5783916109b7575b50819052600360205281604081205533825260026020526040822073ffffffffffffffffffffffffffffffffffffffff1981541690556001600160a01b0360015416803b1561037e576040517fed9dbcc90000000000000000000000000000000000000000000000000000000081523360048201526001600160a01b0390921660248301528290829081838160448101610351565b816109c1916109ea565b6109cc578184610922565b50fd5b6040513d85823e3d90fd5b816109e4916109ea565b826108db565b90601f8019910116810190811067ffffffffffffffff821117610a0c57604052565b634e487b7160e01b600052604160045260246000fd5b600435906001600160a01b0382168203610a3857565b600080fd5b6080906003190112610a3857604051906080820182811067ffffffffffffffff821117610a0c57604052816004356001600160a01b0381168103610a385781526024356001600160a01b0381168103610a385760208201526044356001600160a01b0381168103610a385760408201526060606435910152565b906001600160a01b03610aea818451166001600160a01b031660005260026020526001600160a01b036040600020541690565b1680600052600360205260ff60406000205460101c16610b1b575060606001600160a01b0360408401511692015190565b602083015160408085015160609095015181517fc48021a40000000000000000000000000000000000000000000000000000000081526001600160a01b03938416600482015292909516602483015260448201949094529290839060649082905afa918215610bd9576000908193610b9257509190565b9092506040813d604011610bd1575b81610bae604093836109ea565b8101031261049e578051926001600160a01b038416840361012e57506020015190565b3d9150610ba1565b6040513d6000823e3d90fd5b51908115158203610a3857565b6001600160a01b03600054163303610c0657565b7f118cdaa7000000000000000000000000000000000000000000000000000000006000523360045260246000fdfea264697066735822122068481401fea1a28d91a59fc64a6485a8aad14a58a86ec4c581e38026090c5aa564736f6c634300081c0033",
  "linkReferences": {
    "contracts/libs/AddressLib.sol": {
      "AddressLib": [
        {
          "length": 20,
          "start": 603
        },
        {
          "length": 20,
          "start": 2443
        }
      ]
    }
  },
  "deployedLinkReferences": {
    "contracts/libs/AddressLib.sol": {
      "AddressLib": [
        {
          "length": 20,
          "start": 366
        },
        {
          "length": 20,
          "start": 2206
        }
      ]
    }
  }
}