{
  "_format": "hh-sol-artifact-1",
  "contractName": "Merchant",
  "sourceName": "contracts/Merchant.sol",
  "abi": [
    {
      "inputs": [
        {
          "internalType": "contract IMerchantEvents",
          "name": "events_",
          "type": "address"
        },
        {
          "internalType": "contract IWalletEvents",
          "name": "walletEvents_",
          "type": "address"
        }
      ],
      "stateMutability": "nonpayable",
      "type": "constructor"
    },
    {
      "inputs": [],
      "name": "EnforcedPause",
      "type": "error"
    },
    {
      "inputs": [],
      "name": "ExpectedPause",
      "type": "error"
    },
    {
      "inputs": [
        {
          "internalType": "address",
          "name": "owner",
          "type": "address"
        }
      ],
      "name": "OwnableInvalidOwner",
      "type": "error"
    },
    {
      "inputs": [
        {
          "internalType": "address",
          "name": "account",
          "type": "address"
        }
      ],
      "name": "OwnableUnauthorizedAccount",
      "type": "error"
    },
    {
      "anonymous": false,
      "inputs": [
        {
          "indexed": true,
          "internalType": "address",
          "name": "previousOwner",
          "type": "address"
        },
        {
          "indexed": true,
          "internalType": "address",
          "name": "newOwner",
          "type": "address"
        }
      ],
      "name": "OwnershipTransferred",
      "type": "event"
    },
    {
      "anonymous": false,
      "inputs": [
        {
          "indexed": false,
          "internalType": "address",
          "name": "account",
          "type": "address"
        }
      ],
      "name": "Paused",
      "type": "event"
    },
    {
      "anonymous": false,
      "inputs": [
        {
          "indexed": false,
          "internalType": "address",
          "name": "account",
          "type": "address"
        }
      ],
      "name": "Unpaused",
      "type": "event"
    },
    {
      "inputs": [
        {
          "components": [
            {
              "components": [
                {
                  "internalType": "uint8",
                  "name": "schemaVersion",
                  "type": "uint8"
                },
                {
                  "internalType": "string",
                  "name": "value",
                  "type": "string"
                }
              ],
              "internalType": "struct Types.Metadata",
              "name": "metadata",
              "type": "tuple"
            },
            {
              "internalType": "address[]",
              "name": "tokens",
              "type": "address[]"
            },
            {
              "internalType": "address[]",
              "name": "signers",
              "type": "address[]"
            },
            {
              "internalType": "uint256",
              "name": "minSigners",
              "type": "uint256"
            }
          ],
          "internalType": "struct Params.CreateMerchant",
          "name": "params",
          "type": "tuple"
        }
      ],
      "name": "create",
      "outputs": [],
      "stateMutability": "payable",
      "type": "function"
    },
    {
      "inputs": [
        {
          "components": [
            {
              "internalType": "address",
              "name": "token",
              "type": "address"
            },
            {
              "internalType": "uint256",
              "name": "interval",
              "type": "uint256"
            },
            {
              "internalType": "uint256",
              "name": "amount",
              "type": "uint256"
            },
            {
              "internalType": "uint256",
              "name": "gracePeriod",
              "type": "uint256"
            },
            {
              "internalType": "string",
              "name": "description",
              "type": "string"
            }
          ],
          "internalType": "struct Params.CreateSubscription",
          "name": "params",
          "type": "tuple"
        }
      ],
      "name": "createSubscription",
      "outputs": [
        {
          "internalType": "bytes32",
          "name": "subscriptionId",
          "type": "bytes32"
        }
      ],
      "stateMutability": "nonpayable",
      "type": "function"
    },
    {
      "inputs": [
        {
          "components": [
            {
              "internalType": "bytes32",
              "name": "subscriptionId",
              "type": "bytes32"
            }
          ],
          "internalType": "struct Params.DeleteSubscription",
          "name": "params",
          "type": "tuple"
        }
      ],
      "name": "deleteSubscription",
      "outputs": [],
      "stateMutability": "nonpayable",
      "type": "function"
    },
    {
      "inputs": [
        {
          "internalType": "address",
          "name": "merchant",
          "type": "address"
        }
      ],
      "name": "getMerchant",
      "outputs": [
        {
          "components": [
            {
              "components": [
                {
                  "internalType": "uint8",
                  "name": "schemaVersion",
                  "type": "uint8"
                },
                {
                  "internalType": "string",
                  "name": "value",
                  "type": "string"
                }
              ],
              "internalType": "struct Types.Metadata",
              "name": "metadata",
              "type": "tuple"
            },
            {
              "internalType": "address",
              "name": "wallet",
              "type": "address"
            }
          ],
          "internalType": "struct Types.MerchantConfig",
          "name": "",
          "type": "tuple"
        }
      ],
      "stateMutability": "view",
      "type": "function"
    },
    {
      "inputs": [
        {
          "internalType": "bytes32",
          "name": "subscriptionId",
          "type": "bytes32"
        }
      ],
      "name": "getSubscription",
      "outputs": [
        {
          "components": [
            {
              "internalType": "address",
              "name": "token",
              "type": "address"
            },
            {
              "internalType": "uint256",
              "name": "interval",
              "type": "uint256"
            },
            {
              "internalType": "uint256",
              "name": "amount",
              "type": "uint256"
            },
            {
              "internalType": "uint256",
              "name": "gracePeriod",
              "type": "uint256"
            },
            {
              "internalType": "string",
              "name": "description",
              "type": "string"
            },
            {
              "internalType": "address",
              "name": "merchant",
              "type": "address"
            },
            {
              "internalType": "bool",
              "name": "active",
              "type": "bool"
            }
          ],
          "internalType": "struct Types.Subscription",
          "name": "",
          "type": "tuple"
        }
      ],
      "stateMutability": "view",
      "type": "function"
    },
    {
      "inputs": [
        {
          "internalType": "address",
          "name": "merchant",
          "type": "address"
        }
      ],
      "name": "getWallet",
      "outputs": [
        {
          "internalType": "address",
          "name": "",
          "type": "address"
        }
      ],
      "stateMutability": "view",
      "type": "function"
    },
    {
      "inputs": [],
      "name": "owner",
      "outputs": [
        {
          "internalType": "address",
          "name": "",
          "type": "address"
        }
      ],
      "stateMutability": "view",
      "type": "function"
    },
    {
      "inputs": [],
      "name": "pause",
      "outputs": [],
      "stateMutability": "nonpayable",
      "type": "function"
    },
    {
      "inputs": [],
      "name": "paused",
      "outputs": [
        {
          "internalType": "bool",
          "name": "",
          "type": "bool"
        }
      ],
      "stateMutability": "view",
      "type": "function"
    },
    {
      "inputs": [],
      "name": "renounceOwnership",
      "outputs": [],
      "stateMutability": "nonpayable",
      "type": "function"
    },
    {
      "inputs": [
        {
          "internalType": "address",
          "name": "newOwner",
          "type": "address"
        }
      ],
      "name": "transferOwnership",
      "outputs": [],
      "stateMutability": "nonpayable",
      "type": "function"
    },
    {
      "inputs": [],
      "name": "unpause",
      "outputs": [],
      "stateMutability": "nonpayable",
      "type": "function"
    },
    {
      "inputs": [
        {
          "components": [
            {
              "components": [
                {
                  "internalType": "uint8",
                  "name": "schemaVersion",
                  "type": "uint8"
                },
                {
                  "internalType": "string",
                  "name": "value",
                  "type": "string"
                }
              ],
              "internalType": "struct Types.Metadata",
              "name": "metadata",
              "type": "tuple"
            }
          ],
          "internalType": "struct Params.UpdateMerchant",
          "name": "params",
          "type": "tuple"
        }
      ],
      "name": "update",
      "outputs": [],
      "stateMutability": "nonpayable",
      "type": "function"
    },
    {
      "inputs": [
        {
          "components": [
            {
              "internalType": "bytes32",
              "name": "subscriptionId",
              "type": "bytes32"
            },
            {
              "internalType": "uint256",
              "name": "amount",
              "type": "uint256"
            },
            {
              "internalType": "uint256",
              "name": "gracePeriod",
              "type": "uint256"
            },
            {
              "internalType": "string",
              "name": "description",
              "type": "string"
            },
            {
              "internalType": "bool",
              "name": "active",
              "type": "bool"
            }
          ],
          "internalType": "struct Params.UpdateSubscription",
          "name": "params",
          "type": "tuple"
        }
      ],
      "name": "updateSubscription",
      "outputs": [],
      "stateMutability": "nonpayable",
      "type": "function"
    }
  ],
  "bytecode": "0x60803461011057601f61316438819003918201601f19168301916001600160401b038311848410176101155780849260409485528339810103126101105780516001600160a01b038116919082900361011057602001516001600160a01b03811690819003610110576000549133156100fa576001600160a81b0319831633600881811b610100600160a81b03169290921760009081556040519591929190911c6001600160a01b0316907f8be0079c531659141344cd1fd0a4f28419497f9722a3daafe3b4186f6b6457e09080a360018060a01b0319600154161760015560018060a01b03196002541617600255613038908161012c8239f35b631e4fbdf760e01b600052600060045260246000fd5b600080fd5b634e487b7160e01b600052604160045260246000fdfe60a080604052600436101561001357600080fd5b60006080526080513560e01c90816304d0a647146115ba575080631f32768e146114965780632e275b3c1461101d57806331443e0d14610ea15780633f4ba83a14610e16578063595c4e6314610b6c5780635c975abb14610b47578063715018a614610ad75780638456cb5914610a765780638da5cb5b14610a4a5780639ef2dda614610755578063b2734eaf1461067c578063ba4950d8146101a15763f2fde38b146100bf57600080fd5b3461019b57602036600319011261019b576100d86115fe565b6100e0611a78565b6001600160a01b038116908115610169576001600160a01b039074ffffffffffffffffffffffffffffffffffffffff00608051549160081b1674ffffffffffffffffffffffffffffffffffffffff00198216176080515560081c167f8be0079c531659141344cd1fd0a4f28419497f9722a3daafe3b4186f6b6457e0608051608051a360805180f35b7f1e4fbdf700000000000000000000000000000000000000000000000000000000608051526080516004526024608051fd5b60805180fd5b3461019b57602036600319011261019b5760043567ffffffffffffffff811161019b5760a0600319823603011261019b576040516101de816116d8565b6101ea82600401611619565b815260208101916024810135835260408201906044810135825260608301906064810135825260848101359067ffffffffffffffff821161019b5760046102349236920101611716565b9360808401948552610244611a42565b336080515260056020526102746001600160a01b036002604060805120015416151561026e6119cc565b9061192e565b600354936001850180951161066457846003556001600160a01b03815116958251968551978551835190604051936102ab8561166e565b8452602080850193845260408086019c8d5260608601928352608086019384523360a0870152600160c08701528051909c9190610350908e6102ed81836116f4565b600882527f4d65726368616e7400000000000000000000000000000000000000000000000084830152519d8e9283927fd3d1752200000000000000000000000000000000000000000000000000000000845260606004850152606484019061162d565b903360248401526044830152038173__$e8a316a189340483dbc2c3c1eb5060a774$__5af49a8b15610658576080519b610624575b508a6080515260046020528b60805120936001600160a01b03808751161673ffffffffffffffffffffffffffffffffffffffff1986541617855551600185015551600284015551600383015560048201905180519067ffffffffffffffff821161060c576103f38354611850565b601f81116105cd575b506020906001601f841114610559579261043a8360059461048a98979460c0976080519261054e575b50508160011b916000199060031b1c19161790565b90555b01916001600160a01b038060a0830151161673ffffffffffffffffffffffffffffffffffffffff198454161783550151151560ff60a01b1960ff60a01b835492151560a01b169116179055565b6001600160a01b038060015416925116925194519351905193823b1561019b5787519586947ffe0b675500000000000000000000000000000000000000000000000000000000865288600487015233602487015260448601526064850152608484015260a483015260e060c4830152818061050c6080519560e483019061162d565b0391608051905af1801561054257610529575b5060209151908152f35b608051610535916116f4565b60805161019b578261051f565b83513d608051823e3d90fd5b015190503880610425565b90601f1983169184608051528160805120926080515b8181106105b557509361048a97969360c09693600193836005981061059c575b505050811b01905561043d565b015160001960f88460031b161c191690558f808061058f565b9293602060018192878601518155019501930161056f565b6105fc908460805152602060805120601f850160051c81019160208610610602575b601f0160051c01906119b5565b8c6103fc565b90915081906105ef565b634e487b7160e01b6080515260416004526024608051fd5b909a506020813d602011610650575b81610640602093836116f4565b8101031261019b5751998c610385565b3d9150610633565b8c513d608051823e3d90fd5b634e487b7160e01b6080515260116004526024608051fd5b3461019b57602036600319011261019b576001600160a01b0361069d6115fe565b6040516106a9816116a0565b6040516106b5816116a0565b60805181526060602082015281526020608051910152166080515260056020526107496040608051206001600160a01b036002604051926106f5846116a0565b604051610701816116a0565b60ff82541681526107146001830161188a565b60208201528452015416602082019081526001600160a01b03604051938493602085525160406020860152606085019061182d565b91511660408301520390f35b3461019b57602036600319011261019b5760043567ffffffffffffffff811161019b5760a0600319823603011261019b5760405190610793826116d8565b806004013582526020820160248201358152604083019260448301358452606483013567ffffffffffffffff811161019b576107d760849160043691870101611716565b9360608301948552013592831515840361019b57608082019384526107fa611a42565b336080515260056020526108246001600160a01b036002604060805120015416151561026e6119cc565b8151608051526004602052604060805120936005850194610853336001600160a01b038854161461026e611a07565b84516002820155865160038201556004835191019080519067ffffffffffffffff821161060c576108848354611850565b601f8111610a16575b506020906001601f8411146109a75791806108c5926108e99695946080519261099c5750508160011b916000199060031b1c19161790565b90555b51151580959060ff60a01b1960ff60a01b835492151560a01b169116179055565b6001600160a01b03600154169151925194519051823b1561019b57610951916040519687957f28dc3d8900000000000000000000000000000000000000000000000000000000875260048701526024860152604485015260a0606485015260a484019061162d565b9260848301528180608051940391608051905af1801561098f57610976575b60805180f35b608051610982916116f4565b60805161019b5780610970565b6040513d608051823e3d90fd5b015190508b80610425565b90601f1983169184608051528160805120926080515b8181106109fe57509160019391856108e998979694106109e5575b505050811b0190556108c8565b015160001960f88460031b161c191690558a80806109d8565b929360206001819287860151815501950193016109bd565b610a44908460805152602060805120601f850160051c8101916020861061060257601f0160051c01906119b5565b8961088d565b3461019b5760805136600319011261019b5760206001600160a01b036080515460081c16604051908152f35b3461019b5760805136600319011261019b57610a90611a78565b610a98611a42565b600160ff19608051541617608051557f62e78cea01bee320cd4e420270b5ea74000d11b0c9f74754ebdbfc544b05a2586020604051338152a160805180f35b3461019b5760805136600319011261019b57610af1611a78565b608051805474ffffffffffffffffffffffffffffffffffffffff00198116825560081c6001600160a01b03167f8be0079c531659141344cd1fd0a4f28419497f9722a3daafe3b4186f6b6457e08280a360805180f35b3461019b5760805136600319011261019b57602060ff60805154166040519015158152f35b3461019b57602036600319011261019b5760043567ffffffffffffffff811161019b576020600319823603011261019b5760405190610baa826116bc565b80600401359067ffffffffffffffff821161019b576004610bce923692010161176d565b8152610bd8611a42565b33608051526005602052610c026001600160a01b036002604060805120015416151561026e6119cc565b8051336080515260056020526001600160a01b03600260406080512001541660405191610c2e836116a0565b82526020820190815233608051526005602052604060805120915160ff81511660ff1984541617835560206001840191015180519067ffffffffffffffff821161060c57610c7c8354611850565b601f8111610de2575b506020906001601f841114610d6b5792610cc6836001600160a01b03969394879560029760805192610d605750508160011b916000199060031b1c19161790565b90555b51169201911673ffffffffffffffffffffffffffffffffffffffff198254161790556001600160a01b03600154169051813b1561019b5760405180927fade33fd9000000000000000000000000000000000000000000000000000000008252336004830152604060248301528180610d4860805195604483019061182d565b0391608051905af1801561098f576109765760805180f35b015190508a80610425565b90601f1983169184608051528160805120926080515b818110610dca5750936001600160a01b03969360029693600193838a9810610db1575b505050811b019055610cc9565b015160001960f88460031b161c19169055898080610da4565b92936020600181928786015181550195019301610d81565b610e10908460805152602060805120601f850160051c8101916020861061060257601f0160051c01906119b5565b86610c85565b3461019b5760805136600319011261019b57610e30611a78565b6080515460ff811615610e755760ff1916608051557f5db9ee0a495bf2e6ff9c91a7834c1ba4fdd244a5e8aa4e537bd38aeae4b073aa6020604051338152a160805180f35b7f8dfc202b00000000000000000000000000000000000000000000000000000000608051526004608051fd5b3461019b57602036600319011261019b57604051610ebe816116bc565b6004358152610ecb611a42565b33608051526005602052610ef56001600160a01b036002604060805120015416151561026e6119cc565b8051608051526004602052610f20336001600160a01b0360056040608051200154161461026e611a07565b8051608051526004602052604060805120608051815560805160018201556080516002820155608051600382015560048101610f5c8154611850565b80610fcc575b505060056080519101556001600160a01b0360015416905190803b1561019b57604051917fc6a6602c00000000000000000000000000000000000000000000000000000000835260048301528160248160805193608051905af1801561098f576109765760805180f35b601f8111600114610fe5575060805190555b8280610f62565b6110069082608051526001601f602060805120920160051c820191016119b5565b608080518290525160208120918190559055610fde565b602036600319011261019b5760043567ffffffffffffffff811161019b576080600319823603011261019b576040516080810181811067ffffffffffffffff82111761060c57604052816004013567ffffffffffffffff811161019b5761108a906004369185010161176d565b8152602482013567ffffffffffffffff811161019b576110b090600436918501016117bd565b9160208201928352604481013567ffffffffffffffff811161019b576110dc90600436918401016117bd565b926040830193845260646060840192013582526110f7611a42565b6080805133905260056020525160409081902060020154815191949161115a916001600160a01b03161561112b87836116f4565b600382527f3430340000000000000000000000000000000000000000000000000000000000602083015261192e565b6001600160a01b036002541682519086518551875193611545938486019386851067ffffffffffffffff86111761060c576111b46080936111c2938998611abe8a39875233602088015260a08d88015260a0870190611978565b908582036060870152611978565b920152039034f0801561148a576001600160a01b038060015416911690803b1561019b578551907f8411905a0000000000000000000000000000000000000000000000000000000082528260048301528160248160805193608051905af1801561147e5761146c575b50815185519061123a826116a0565b815260208101828152336080515260056020528660805120915160ff81511660ff1984541617835560206001840191015180519067ffffffffffffffff821161060c576112878354611850565b601f8111611438575b506020906001601f8411146113c157926112d1836001600160a01b039693948795600297608051926113b65750508160011b916000199060031b1c19161790565b90555b51169201911673ffffffffffffffffffffffffffffffffffffffff198254161790556001600160a01b0360015416915192519551935193823b1561019b576113736113859261135c988851998a977f0c2343ce0000000000000000000000000000000000000000000000000000000089523360048a015260c060248a015260c489019061182d565b916044880152600319878303016064880152611978565b84810360031901608486015290611978565b9260a48301528180608051940391608051905af19081156113ab57506109765760805180f35b513d608051823e3d90fd5b015190508f80610425565b90601f1983169184608051528160805120926080515b8181106114205750936001600160a01b03969360029693600193838a9810611407575b505050811b0190556112d4565b015160001960f88460031b161c191690558e80806113fa565b929360206001819287860151815501950193016113d7565b611466908460805152602060805120601f850160051c8101916020861061060257601f0160051c01906119b5565b8b611290565b608051611478916116f4565b8661122b565b86513d608051823e3d90fd5b84513d608051823e3d90fd5b3461019b57602036600319011261019b576040516114b38161166e565b60805181526080516020820152608051604082015260805160608201526060608082015260805160a082015260c06080519101526004356080515260046020526001600160a01b036040608051206040519061150e8261166e565b82815416825260018101549060208301918252836115a660028301549260408601938452600381015460608701908152600561154c6004840161188a565b926080890193845201549460a0880196858716885260ff60c08a019760a01c1615158752604051998a9960208b52511660208a01525160408901525160608801525160808701525160e060a087015261010086019061162d565b92511660c084015251151560e08301520390f35b3461019b57602036600319011261019b576020906001600160a01b036115de6115fe565b1660805152600582526001600160a01b0360026040608051200154168152f35b600435906001600160a01b038216820361161457565b600080fd5b35906001600160a01b038216820361161457565b919082519283825260005b848110611659575050826000602080949584010152601f8019910116010190565b80602080928401015182828601015201611638565b60e0810190811067ffffffffffffffff82111761168a57604052565b634e487b7160e01b600052604160045260246000fd5b6040810190811067ffffffffffffffff82111761168a57604052565b6020810190811067ffffffffffffffff82111761168a57604052565b60a0810190811067ffffffffffffffff82111761168a57604052565b90601f8019910116810190811067ffffffffffffffff82111761168a57604052565b81601f820112156116145780359067ffffffffffffffff821161168a576040519261174b601f8401601f1916602001856116f4565b8284526020838301011161161457816000926020809301838601378301015290565b91906040838203126116145760405190611786826116a0565b8193803560ff8116810361161457835260208101359167ffffffffffffffff8311611614576020926117b89201611716565b910152565b9080601f830112156116145781359167ffffffffffffffff831161168a578260051b90604051936117f160208401866116f4565b845260208085019282010192831161161457602001905b8282106118155750505090565b6020809161182284611619565b815201910190611808565b906040602061184d9360ff8151168452015191816020820152019061162d565b90565b90600182811c92168015611880575b602083101461186a57565b634e487b7160e01b600052602260045260246000fd5b91607f169161185f565b906040519182600082549261189e84611850565b808452936001811690811561190c57506001146118c5575b506118c3925003836116f4565b565b90506000929192526020600020906000915b8183106118f05750509060206118c392820101386118b6565b60209193508060019154838589010152019101909184926118d7565b9050602092506118c394915060ff191682840152151560051b820101386118b6565b156119365750565b611974906040519182917f08c379a000000000000000000000000000000000000000000000000000000000835260206004840152602483019061162d565b0390fd5b906020808351928381520192019060005b8181106119965750505090565b82516001600160a01b0316845260209384019390920191600101611989565b8181106119c0575050565b600081556001016119b5565b604051906119db6040836116f4565b600382527f34303500000000000000000000000000000000000000000000000000000000006020830152565b60405190611a166040836116f4565b600182527f32000000000000000000000000000000000000000000000000000000000000006020830152565b60ff60005416611a4e57565b7fd93c06650000000000000000000000000000000000000000000000000000000060005260046000fd5b6001600160a01b0360005460081c163303611a8f57565b7f118cdaa7000000000000000000000000000000000000000000000000000000006000523360045260246000fdfe608060405261154580380380610014816102da565b92833981019060a0818303126102d55780516001600160a01b03811692908390036102d557610045602083016102ff565b60408301519093906001600160401b0381116102d55782610067918501610313565b60608401519092906001600160401b0381116102d55760809161008b918601610313565b930151936001600160a01b031680156102bf57600080546001600160a01b03198116831782556001600160a01b0316907f8be0079c531659141344cd1fd0a4f28419497f9722a3daafe3b4186f6b6457e09080a36101046100ec60406102da565b600381526203830360ec1b602082015285151561037d565b61012a835185111561011660406102da565b9060018252601b60f91b602083015261037d565b600180546001600160a01b0319169190911790558051906001600160401b038211610246576801000000000000000082116102465760025482600255808310610279575b506020016002600052602060002060005b83811061025c5784518690866001600160401b038211610246576801000000000000000082116102465760035482600355808310610200575b506020016003600052602060002060005b8381106101e3578460045560405161116490816103e18239f35b82516001600160a01b0316818301556020909201916001016101c9565b60036000527fc2575a0e9e593c00f959f8c92f12db2869c3395a3b0502d05e2516446f71f85b9081019083015b81811061023a57506101b8565b6000815560010161022d565b634e487b7160e01b600052604160045260246000fd5b82516001600160a01b03168183015560209092019160010161017f565b60026000527f405787fa12a823e0f2b7631cc41b3ba8828b3321ca811111fa75cd3aa3bb5ace9081019083015b8181106102b3575061016e565b600081556001016102a6565b631e4fbdf760e01b600052600060045260246000fd5b600080fd5b6040519190601f01601f191682016001600160401b0381118382101761024657604052565b51906001600160a01b03821682036102d557565b9080601f830112156102d5578151916001600160401b038311610246578260051b906020806103438185016102da565b8096815201928201019283116102d557602001905b8282106103655750505090565b60208091610372846102ff565b815201910190610358565b156103855750565b6040519062461bcd60e51b8252602060048301528181519182602483015260005b8381106103c85750508160006044809484010152601f80199101168101030190fd5b602082820181015160448784010152859350016103a656fe6080604052600436101561001b575b361561001957600080fd5b005b6000803560e01c806311ff708d14610c155780632104ebf11461095057806344cbf177146107a257806347e7ef241461065f578063715018a6146105f95780637df73e27146105d55780638da5cb5b146105af57806394cf795e14610519578063de41691c14610348578063ec4673d114610186578063f2fde38b146100db5763f9eaee0d146100ab575061000e565b346100d85760203660031901126100d85760206100ce6100c9610ea2565b611088565b6040519015158152f35b80fd5b50346100d85760203660031901126100d8576001600160a01b036100fd610ea2565b6101056110ec565b16801561015a576001600160a01b0382548273ffffffffffffffffffffffffffffffffffffffff198216178455167f8be0079c531659141344cd1fd0a4f28419497f9722a3daafe3b4186f6b6457e08380a380f35b6024827f1e4fbdf700000000000000000000000000000000000000000000000000000000815280600452fd5b50346100d85760203660031901126100d857600435906101e66101a833611007565b604051906101b7604083610e6a565b600182527f32000000000000000000000000000000000000000000000000000000000000006020830152610f72565b818152600660205260036040822061023e60ff600583015416156040519061020f604083610e6a565b600182527f34000000000000000000000000000000000000000000000000000000000000006020830152610f72565b600481016001600160a01b0333166000528060205261026f60ff60406000205416156040519061020f604083610e6a565b6001600160a01b0333166000526020526040600020600160ff198254161790550191825492600019841461033457600183940190556001600160a01b0360015416906001600160a01b0383541690823b1561032f57606484928360405195869485937fe58e9829000000000000000000000000000000000000000000000000000000008552600485015260248401523360448401525af18015610324576103135750f35b8161031d91610e6a565b6100d85780f35b6040513d84823e3d90fd5b505050fd5b602483634e487b7160e01b81526011600452fd5b50346100d85760203660031901126100d85760043567ffffffffffffffff81116105155761037a903690600401610ebd565b906103836110ec565b6103ac8251151560405190610399604083610e6a565b60018252603360f81b6020830152610f72565b81519167ffffffffffffffff83116105015768010000000000000000831161050157600254836002558084106104a3575b50602081019260028352825b818110610466578380846001600160a01b0360015416803b156104625761045183929183926040519485809481937f87c2dbae000000000000000000000000000000000000000000000000000000008352336004840152604060248401526044830190610f35565b03925af18015610324576103135750f35b5050fd5b60019060206001600160a01b03875116960195817f405787fa12a823e0f2b7631cc41b3ba8828b3321ca811111fa75cd3aa3bb5ace0155016103e9565b7f405787fa12a823e0f2b7631cc41b3ba8828b3321ca811111fa75cd3aa3bb5ace01837f405787fa12a823e0f2b7631cc41b3ba8828b3321ca811111fa75cd3aa3bb5ace015b8181106104f657506103dd565b8381556001016104e9565b602482634e487b7160e01b81526041600452fd5b5080fd5b50346100d857806003193601126100d85760405180916020600354928381520191600382527fc2575a0e9e593c00f959f8c92f12db2869c3395a3b0502d05e2516446f71f85b915b8181106105905761058c8561057881870382610e6a565b604051918291602083526020830190610f35565b0390f35b82546001600160a01b0316845260209093019260019283019201610561565b50346100d857806003193601126100d8576001600160a01b036020915416604051908152f35b50346100d85760203660031901126100d85760206100ce6105f4610ea2565b611007565b50346100d857806003193601126100d8576106126110ec565b806001600160a01b03815473ffffffffffffffffffffffffffffffffffffffff1981168355167f8be0079c531659141344cd1fd0a4f28419497f9722a3daafe3b4186f6b6457e08280a380f35b5060403660031901126100d85780610675610ea2565b6001600160a01b03602435916106cb61068d82611088565b6040519061069c604083610e6a565b600382527f31303200000000000000000000000000000000000000000000000000000000006020830152610f72565b6106f26040516106dc604082610e6a565b60018152603360f81b6020820152841515610f72565b1680610725575061072291506040519061070d604083610e6a565b60018252603360f81b60208301523414610f72565b80f35b606460209260405194859384927f23b872dd00000000000000000000000000000000000000000000000000000000845233600485015230602485015260448401525af1801561032457610776575080f35b6107979060203d60201161079b575b61078f8183610e6a565b810190610fef565b5080f35b503d610785565b50346100d85760603660031901126100d8576107bc610ea2565b906024356044356001600160a01b03811680910361094c576107dc6110ec565b6108036040516107ed604082610e6a565b60018152603360f81b6020820152821515610f72565b600554936001850180951161093857848495600555845260066020526005604085206001600160a01b03831673ffffffffffffffffffffffffffffffffffffffff19825416178155846001820155600281018473ffffffffffffffffffffffffffffffffffffffff198254161790550160ff1981541690556001600160a01b03600154166001600160a01b038554169260055490604051946108a6602087610e6a565b8786526000368137833b156109345761091d889687936001600160a01b03996040519a8b998a9889977f80d028e9000000000000000000000000000000000000000000000000000000008952600489015260248801521660448601526064850152608484015260e060a484015260e4830190610f35565b8260c483015203925af18015610324576103135750f35b8780fd5b602484634e487b7160e01b81526011600452fd5b8280fd5b50346100d85760203660031901126100d857806004358082526006602052604082206109bd600382015460045411156040519061098e604083610e6a565b600382527f38303100000000000000000000000000000000000000000000000000000000006020830152610f72565b8260058201916109db60ff845416156040519061020f604083610e6a565b80546001600160a01b031680610abc5750818080926001600160a01b0360024792610a2a6001820154948560405191610a15604084610e6a565b60018352603560f81b60208401521015610f72565b015416828215610ab3575bf115610324575b600160ff198254161790556001600160a01b0360015416906001600160a01b0383541690823b1561032f576040517f330016450000000000000000000000000000000000000000000000000000000081526001600160a01b0390921660048301526024820152908290829081838160448101610451565b506108fc610a35565b9150604051907f70a08231000000000000000000000000000000000000000000000000000000008252306004830152602082602481865afa918215610c0a578692610bd0575b5090610b91926001600160a01b03600284610b4260016020970154958660405191610b2e604084610e6a565b60018352603560f81b8a8401521015610f72565b015416876040518096819582947fa9059cbb00000000000000000000000000000000000000000000000000000000845260048401602090939291936001600160a01b0360408201951681520152565b03925af18015610bc557610ba6575b50610a3c565b610bbe9060203d60201161079b5761078f8183610e6a565b5038610ba0565b6040513d86823e3d90fd5b91506020823d602011610c02575b81610beb60209383610e6a565b81010312610bfe57905190610b91610b02565b8580fd5b3d9150610bde565b6040513d88823e3d90fd5b50346100d85760403660031901126100d85760043567ffffffffffffffff811161051557610c47903690600401610ebd565b60243590610c536110ec565b610c96604051610c64604082610e6a565b600381527f38303000000000000000000000000000000000000000000000000000000000006020820152831515610f72565b610cdc815183111560405190610cad604083610e6a565b600182527f36000000000000000000000000000000000000000000000000000000000000006020830152610f72565b805167ffffffffffffffff8111610e5657680100000000000000008111610e565760035481600355808210610df8575b509083916020820160038452835b828110610db857505050826004556001600160a01b036001541690813b1561094c578291610d8691836040518097819582947f3df5e289000000000000000000000000000000000000000000000000000000008452336004850152606060248501526064840190610f35565b90604483015203925af18015610dab57610d9d5780f35b610da691610e6a565b388180f35b50604051903d90823e3d90fd5b81516001600160a01b03167fc2575a0e9e593c00f959f8c92f12db2869c3395a3b0502d05e2516446f71f85b820155869450602090910190600101610d1a565b7fc2575a0e9e593c00f959f8c92f12db2869c3395a3b0502d05e2516446f71f85b01817fc2575a0e9e593c00f959f8c92f12db2869c3395a3b0502d05e2516446f71f85b015b818110610e4b5750610d0c565b858155600101610e3e565b602484634e487b7160e01b81526041600452fd5b90601f8019910116810190811067ffffffffffffffff821117610e8c57604052565b634e487b7160e01b600052604160045260246000fd5b600435906001600160a01b0382168203610eb857565b600080fd5b81601f82011215610eb85780359167ffffffffffffffff8311610e8c578260051b916020830193610ef16040519586610e6a565b8452602080850193820101918211610eb857602001915b818310610f155750505090565b82356001600160a01b0381168103610eb857815260209283019201610f08565b906020808351928381520192019060005b818110610f535750505090565b82516001600160a01b0316845260209384019390920191600101610f46565b15610f7a5750565b604051907f08c379a0000000000000000000000000000000000000000000000000000000008252602060048301528181519182602483015260005b838110610fd75750508160006044809484010152601f80199101168101030190fd5b60208282018101516044878401015285935001610fb5565b90816020910312610eb857518015158103610eb85790565b600354908160005b83811061101f5750505050600090565b60008282101561107457600390527fc2575a0e9e593c00f959f8c92f12db2869c3395a3b0502d05e2516446f71f85b8101546001600160a01b0384811691161461106b5760010161100f565b50505050600190565b80634e487b7160e01b602492526032600452fd5b600254908160005b8381106110a05750505050600090565b60008282101561107457600290527f405787fa12a823e0f2b7631cc41b3ba8828b3321ca811111fa75cd3aa3bb5ace8101546001600160a01b0384811691161461106b57600101611090565b6001600160a01b0360005416330361110057565b7f118cdaa7000000000000000000000000000000000000000000000000000000006000523360045260246000fdfea264697066735822122028656d31d9957d1212d2db7f4ae1a20ed795b0a41fb3c0586eb4d1908a4b079364736f6c634300081c0033a2646970667358221220d30c676678ad007a949dbf199d1a959ecb07bcde6d7ae8549c7936e4a3a19abc64736f6c634300081c0033",
  "linkReferences": {
    "contracts/libs/HashLib.sol": {
      "HashLib": [
        {
          "length": 20,
          "start": 1164
        }
      ]
    }
  },
  "deployedLinkReferences": {
    "contracts/libs/HashLib.sol": {
      "HashLib": [
        {
          "length": 20,
          "start": 864
        }
      ]
    }
  }
}