{
  "_format": "hh-sol-artifact-1",
  "contractName": "OneTimeTransaction",
  "sourceName": "contracts/transactions/OneTimeTransaction.sol",
  "abi": [
    {
      "inputs": [
        {
          "internalType": "contract IReceipt",
          "name": "receipt_",
          "type": "address"
        }
      ],
      "stateMutability": "nonpayable",
      "type": "constructor"
    },
    {
      "inputs": [
        {
          "internalType": "address",
          "name": "owner",
          "type": "address"
        }
      ],
      "name": "OwnableInvalidOwner",
      "type": "error"
    },
    {
      "inputs": [
        {
          "internalType": "address",
          "name": "account",
          "type": "address"
        }
      ],
      "name": "OwnableUnauthorizedAccount",
      "type": "error"
    },
    {
      "anonymous": false,
      "inputs": [
        {
          "indexed": true,
          "internalType": "address",
          "name": "previousOwner",
          "type": "address"
        },
        {
          "indexed": true,
          "internalType": "address",
          "name": "newOwner",
          "type": "address"
        }
      ],
      "name": "OwnershipTransferred",
      "type": "event"
    },
    {
      "inputs": [
        {
          "internalType": "address",
          "name": "payer",
          "type": "address"
        },
        {
          "components": [
            {
              "internalType": "address[]",
              "name": "payers",
              "type": "address[]"
            },
            {
              "internalType": "address",
              "name": "merchant",
              "type": "address"
            },
            {
              "internalType": "uint256[]",
              "name": "amounts",
              "type": "uint256[]"
            },
            {
              "internalType": "address",
              "name": "token",
              "type": "address"
            },
            {
              "internalType": "address",
              "name": "tokenB",
              "type": "address"
            },
            {
              "internalType": "string",
              "name": "description",
              "type": "string"
            },
            {
              "components": [
                {
                  "internalType": "uint8",
                  "name": "schemaVersion",
                  "type": "uint8"
                },
                {
                  "internalType": "string",
                  "name": "value",
                  "type": "string"
                }
              ],
              "internalType": "struct Types.Metadata",
              "name": "metadata",
              "type": "tuple"
            },
            {
              "internalType": "bool",
              "name": "mintReceipt",
              "type": "bool"
            },
            {
              "internalType": "uint256",
              "name": "healthFactorMultiplier",
              "type": "uint256"
            },
            {
              "internalType": "enum Enums.TransactionRoute",
              "name": "route",
              "type": "uint8"
            },
            {
              "components": [
                {
                  "internalType": "uint256",
                  "name": "deadline",
                  "type": "uint256"
                },
                {
                  "internalType": "uint8",
                  "name": "v",
                  "type": "uint8"
                },
                {
                  "internalType": "bytes32",
                  "name": "r",
                  "type": "bytes32"
                },
                {
                  "internalType": "bytes32",
                  "name": "s",
                  "type": "bytes32"
                }
              ],
              "internalType": "struct Params.Signature",
              "name": "signature",
              "type": "tuple"
            }
          ],
          "internalType": "struct Params.CreateOneTimeTransaction",
          "name": "params",
          "type": "tuple"
        }
      ],
      "name": "create",
      "outputs": [
        {
          "internalType": "bytes32",
          "name": "transactionId",
          "type": "bytes32"
        }
      ],
      "stateMutability": "nonpayable",
      "type": "function"
    },
    {
      "inputs": [
        {
          "internalType": "bytes32",
          "name": "transactionId",
          "type": "bytes32"
        }
      ],
      "name": "getStatus",
      "outputs": [
        {
          "internalType": "enum Enums.TransactionStatus",
          "name": "",
          "type": "uint8"
        }
      ],
      "stateMutability": "view",
      "type": "function"
    },
    {
      "inputs": [
        {
          "internalType": "bytes32",
          "name": "transactionId",
          "type": "bytes32"
        }
      ],
      "name": "getTransaction",
      "outputs": [
        {
          "components": [
            {
              "internalType": "address",
              "name": "payer",
              "type": "address"
            },
            {
              "internalType": "address[]",
              "name": "payers",
              "type": "address[]"
            },
            {
              "internalType": "address",
              "name": "merchant",
              "type": "address"
            },
            {
              "internalType": "uint256[]",
              "name": "amounts",
              "type": "uint256[]"
            },
            {
              "internalType": "bool[]",
              "name": "fulfillments",
              "type": "bool[]"
            },
            {
              "internalType": "address",
              "name": "token",
              "type": "address"
            },
            {
              "internalType": "uint256[]",
              "name": "timestamps",
              "type": "uint256[]"
            },
            {
              "internalType": "string",
              "name": "description",
              "type": "string"
            },
            {
              "components": [
                {
                  "internalType": "uint8",
                  "name": "schemaVersion",
                  "type": "uint8"
                },
                {
                  "internalType": "string",
                  "name": "value",
                  "type": "string"
                }
              ],
              "internalType": "struct Types.Metadata",
              "name": "metadata",
              "type": "tuple"
            },
            {
              "internalType": "enum Enums.TransactionStatus",
              "name": "status",
              "type": "uint8"
            }
          ],
          "internalType": "struct Types.OneTimeTransaction",
          "name": "",
          "type": "tuple"
        }
      ],
      "stateMutability": "view",
      "type": "function"
    },
    {
      "inputs": [
        {
          "components": [
            {
              "internalType": "address",
              "name": "to",
              "type": "address"
            },
            {
              "internalType": "bytes32",
              "name": "transactionId",
              "type": "bytes32"
            }
          ],
          "internalType": "struct Params.MintReceipt",
          "name": "params",
          "type": "tuple"
        }
      ],
      "name": "mintReceipt",
      "outputs": [],
      "stateMutability": "nonpayable",
      "type": "function"
    },
    {
      "inputs": [
        {
          "internalType": "bytes32",
          "name": "transactionId",
          "type": "bytes32"
        }
      ],
      "name": "onComplete",
      "outputs": [],
      "stateMutability": "nonpayable",
      "type": "function"
    },
    {
      "inputs": [
        {
          "internalType": "bytes32",
          "name": "transactionId",
          "type": "bytes32"
        },
        {
          "internalType": "address",
          "name": "payer",
          "type": "address"
        },
        {
          "internalType": "bool",
          "name": "wantsReceipt",
          "type": "bool"
        }
      ],
      "name": "onFulfill",
      "outputs": [
        {
          "internalType": "bool",
          "name": "completed",
          "type": "bool"
        },
        {
          "internalType": "uint256",
          "name": "amount",
          "type": "uint256"
        }
      ],
      "stateMutability": "nonpayable",
      "type": "function"
    },
    {
      "inputs": [],
      "name": "owner",
      "outputs": [
        {
          "internalType": "address",
          "name": "",
          "type": "address"
        }
      ],
      "stateMutability": "view",
      "type": "function"
    },
    {
      "inputs": [],
      "name": "renounceOwnership",
      "outputs": [],
      "stateMutability": "nonpayable",
      "type": "function"
    },
    {
      "inputs": [
        {
          "internalType": "address",
          "name": "newOwner",
          "type": "address"
        }
      ],
      "name": "transferOwnership",
      "outputs": [],
      "stateMutability": "nonpayable",
      "type": "function"
    }
  ],
  "bytecode": "0x60803460d157601f611fd938819003918201601f19168301916001600160401b0383118484101760d65780849260209460405283398101031260d157516001600160a01b0381169081900360d157331560bb5760008054336001600160a01b0319821681178355604051939290916001600160a01b0316907f8be0079c531659141344cd1fd0a4f28419497f9722a3daafe3b4186f6b6457e09080a3600180546001600160a01b031916919091179055611eec90816100ed8239f35b631e4fbdf760e01b600052600060045260246000fd5b600080fd5b634e487b7160e01b600052604160045260246000fdfe6080604052600436101561001257600080fd5b6000803560e01c806305543f851461137c57806311c5ce02146112cc5780633e6b0f0a146108075780634aae13ca146104e15780635de28ae0146104aa578063715018a6146104515780637cbad19c146101465780638da5cb5b146101205763f2fde38b1461008057600080fd5b3461011d57602036600319011261011d576001600160a01b036100a16114f0565b6100a9611e74565b1680156100f1576001600160a01b038254826001600160a01b03198216178455167f8be0079c531659141344cd1fd0a4f28419497f9722a3daafe3b4186f6b6457e08380a380f35b6024827f1e4fbdf700000000000000000000000000000000000000000000000000000000815280600452fd5b80fd5b503461011d578060031936011261011d576001600160a01b036020915416604051908152f35b503461011d57606036600319011261011d5760043590602435916001600160a01b03831680930361044d5760443580151581036103d857610185611e74565b818352600360205260ff600a604085200154166004811015610439576101b69060016101af611634565b911461166f565b8280805b8483526003602052600160408420015481101561042f5784835260036020526001600160a01b036101f18260016040872001611e46565b90549060031b1c168714610207576001016101ba565b919293945050936001935b61025460409586519061022588836114ce565b600382527f3130340000000000000000000000000000000000000000000000000000000000602083015261166f565b808352600360205261026b86600687862001611e46565b81549060031b9042821b91600019901b1916179055808352600360205260048584200195865481101561041b576102ef95968452602084208160051c01805460f88360031b169060ff6001831b921b19161790558184526003602052602060048886200188518098819263be26ece960e01b835284600484015260248301906116d1565b038173__$87180faec4dba5ff01f16b425dda1042d6$__5af49586156104115784966103dc575b5061032e908285526003602052600388862001611e46565b90549060031b1c9361034c575b505050825191151582526020820152f35b8551916103588361147f565b825260208201526001600160a01b036001541690813b156103d857855163601eaf3360e01b815281516001600160a01b0316600482015260209091015160248201529082908290604490829084905af180156103ce576103b9575b8061033b565b6103c48280926114ce565b61011d57806103b3565b85513d84823e3d90fd5b8280fd5b61032e9196506104039060203d60201161040a575b6103fb81836114ce565b8101906116b9565b9590610316565b503d6103f1565b87513d86823e3d90fd5b602484634e487b7160e01b81526032600452fd5b5094909192610212565b602484634e487b7160e01b81526021600452fd5b5080fd5b503461011d578060031936011261011d5761046a611e74565b806001600160a01b0381546001600160a01b031981168355167f8be0079c531659141344cd1fd0a4f28419497f9722a3daafe3b4186f6b6457e08280a380f35b503461011d57602036600319011261011d5760ff600a6040602093600435815260038552200154166104df6040518092611611565bf35b503461011d57602036600319011261011d5780610120604051610503816114b1565b82815260606020820152826040820152606080820152606060808201528260a0820152606060c0820152606060e08201526040516105408161147f565b838152606060208201526101008201520152600435815260036020526040812060405161056c816114b1565b6001600160a01b03825416815260018201916040518084602082965493848152019087526020872092875b8181106107e55750506105ac925003846114ce565b602082019283526001600160a01b0360028201541691604081019283526105d560038301611d59565b90606081019182526040516105f8816105f181600488016116d1565b03826114ce565b608082019081526001600160a01b036005850154169060a0830191825261062160068601611d59565b9260c0810193845261063560078701611da4565b9460e0820195865260ff600a6040519861064e8a61147f565b826008820154168a5261066360098201611da4565b60208b01526101008501998a520154169761012083019860048110156107d157899b949b526040519960208b526001600160a01b036101608c0194511660208c0152519261014060408c0152835180915260206101808c01940190855b8181106107b257505090516001600160a01b031660608b01525051888203601f190160808a01526106f1919061159c565b975197601f198882030160a08901526020808a5192838152019901915b81811061079a5750505060206107636107899461074f899a61079698966001600160a01b03604097511660c08d015251601f198c83030160e08d015261159c565b9051898203601f19016101008b01526115d0565b9251601f198885030161012089015260ff815116845201519181602082015201906115d0565b9151610140840190611611565b0390f35b825115158a526020998a01999092019160010161070e565b82516001600160a01b03168652602095860195909201916001016106c0565b60248c634e487b7160e01b81526021600452fd5b84546001600160a01b0316835260019485019488945060209093019201610597565b503461011d57604036600319011261011d576108216114f0565b60243567ffffffffffffffff81116103d8578036036101c06003198201126112c85760405192610160840184811067ffffffffffffffff8211176112b457604052826004013567ffffffffffffffff81116112b0578301366023820112156112b0576004810135906108928261151f565b916108a060405193846114ce565b808352602060048185019260051b840101019136831161127457602401905b8282106112985750505084526108d76024840161150b565b9260208501938452604481013567ffffffffffffffff81116112945781019236602385011215611294576004840135936109108561151f565b9461091e60405196876114ce565b808652602060048188019260051b840101019136831161128057602401905b828210611284575050506040860193845261095a6064830161150b565b916060870192835261096e6084820161150b565b608088015260a481013567ffffffffffffffff8111611274576109979060043691840101611537565b9060a0880191825260c481013567ffffffffffffffff8111611280578101926040600319853603011261128057604051936109d18561147f565b6109dd6004820161158e565b855260248101359067ffffffffffffffff821161127c576004610a039236920101611537565b602085015260c0890193845260e482013580151581036112785760e08a01526101048201356101008a0152610124820135906003821015611278576080916101208b015261014319011261127457604051906080820182811067ffffffffffffffff8211176112605760405261014481013582526101a490610a88610164820161158e565b6020840152610184810135604084015201356060820152610140880152610aad611e74565b600254966001880180981161124c5787600255805196516001600160a01b0316955193875190610adc8261151f565b9160405192610aeb90846114ce565b808352601f1990610afb9061151f565b01366020840137516001600160a01b031691515192610b198461151f565b9360405194610b2890866114ce565b808552601f1990610b389061151f565b013660208601375193519460405196610b50886114b1565b6001600160a01b031687526020870198895260408701978852606087019081526080870191825260a0870192835260c0870193845260e087019485526101008701958652610120870197600189526040998c8b80519d8e610bb183826114ce565b601281526020017f4f6e6554696d655472616e73616374696f6e0000000000000000000000000000905281519e8f927f20bed604000000000000000000000000000000000000000000000000000000008452600484015260448301610c15916115d0565b906024830152038d73__$e8a316a189340483dbc2c3c1eb5060a774$__91815a93602094f49c8d1561124057819d611201575b506001600160a01b038c828f8394526003602052209a5116166001600160a01b03198a54161789556001890190519081519167ffffffffffffffff83116111ed576801000000000000000083116111ed579060208f92610cad85845481865585611cfa565b0191528d60208120905b8381106111d057505050506001600160a01b039051166001600160a01b036002890191166001600160a01b03198254161790556003870190519081519167ffffffffffffffff83116111bc576801000000000000000083116111bc57602090610d2584845481865585611cfa565b01908c5260208c208c5b8381106111a8575050505060048601905180519067ffffffffffffffff821161119457680100000000000000008211611194576020908c8454848655808510611148575b505001918b5260208b208160051c918c5b8381106111035750601f1981169003806110b3575b505050506001600160a01b039051166001600160a01b036005860191166001600160a01b03198254161790556006840190519081519167ffffffffffffffff831161109f5768010000000000000000831161109f57602090610e0084845481865585611cfa565b0190895260208920895b83811061108b575050505060078301905180519067ffffffffffffffff8211611077578190610e398454611d1f565b601f8111611047575b50602090601f8311600114610fe4578a92610fd9575b50508160011b916000199060031b1c19161790555b6008820190519060ff82511660ff1982541617905560206009830191015180519067ffffffffffffffff8211610fc557610ea78354611d1f565b601f8111610f8a575b50602090601f8311600114610f2357600a94939291899183610f18575b50508160011b916000199060031b1c19161790555b0190516004811015610f04576020945060ff8019835416911617905551908152f35b602485634e487b7160e01b81526021600452fd5b015190503880610ecd565b8389528189209190601f1984168a5b818110610f725750916001939185600a9897969410610f59575b505050811b019055610ee2565b015160001960f88460031b161c19169055388080610f4c565b92936020600181928786015181550195019301610f32565b610fb590848a5260208a20601f850160051c81019160208610610fbb575b601f0160051c0190611ce3565b38610eb0565b9091508190610fa8565b602488634e487b7160e01b81526041600452fd5b015190503880610e58565b848b52818b209250601f1984168b5b81811061102f5750908460019594939210611016575b505050811b019055610e6d565b015160001960f88460031b161c19169055388080611009565b92936020600181928786015181550195019301610ff3565b61107190858c5260208c20601f850160051c81019160208610610fbb57601f0160051c0190611ce3565b38610e42565b602489634e487b7160e01b81526041600452fd5b600190602084519401938184015501610e0a565b60248a634e487b7160e01b81526041600452fd5b928c938d5b8181106110d45750505001556001600160a01b03388080610d99565b90919460206110f96001928489511515919060ff809160031b9316831b921b19161790565b96019291016110b8565b8d805b6020811061111b575083820155600101610d84565b9590602061113f6001928985511515919060ff809160031b9316831b921b19161790565b92019601611106565b838287611171945220601f80870160051c82019281881680611178575b500160051c0190611ce3565b8c38610d73565b600019850190815490600019908a0360031b1c16905538611165565b60248c634e487b7160e01b81526041600452fd5b600190602084519401938184015501610d2f565b60248d634e487b7160e01b81526041600452fd5b60019060206001600160a01b038551169401938184015501610cb7565b60248f634e487b7160e01b81526041600452fd5b909c506020813d602011611238575b8161121d602093836114ce565b8101031261123457519b6001600160a01b03610c48565b8c80fd5b3d9150611210565b508b51903d90823e3d90fd5b602489634e487b7160e01b81526011600452fd5b60248b634e487b7160e01b81526041600452fd5b8880fd5b8a80fd5b8b80fd5b8980fd5b813581526020918201910161093d565b8680fd5b602080916112a58461150b565b8152019101906108bf565b8580fd5b602486634e487b7160e01b81526041600452fd5b8380fd5b503461011d57604036600319011261011d57806040516112eb8161147f565b6112f36114f0565b81526024356020820152611305611e74565b6001600160a01b0360015416803b156113785760405163601eaf3360e01b815282516001600160a01b03166004820152602090920151602483015290919081908390604490829084905af1801561136b5761135d5780f35b611366916114ce565b388180f35b50604051903d90823e3d90fd5b5050fd5b503461011d57602036600319011261011d57600435611399611e74565b808252600360205260ff600a60408420015416600481101561146b576113c39060016101af611634565b80825260036020526113f86020600460408520016040518093819263be26ece960e01b835284600484015260248301906116d1565b038173__$87180faec4dba5ff01f16b425dda1042d6$__5af4908115611460578391611441575b501561044d578152600360205260408120600a01805460ff1916600217905580f35b61145a915060203d60201161040a576103fb81836114ce565b3861141f565b6040513d85823e3d90fd5b602483634e487b7160e01b81526021600452fd5b6040810190811067ffffffffffffffff82111761149b57604052565b634e487b7160e01b600052604160045260246000fd5b610140810190811067ffffffffffffffff82111761149b57604052565b90601f8019910116810190811067ffffffffffffffff82111761149b57604052565b600435906001600160a01b038216820361150657565b600080fd5b35906001600160a01b038216820361150657565b67ffffffffffffffff811161149b5760051b60200190565b81601f820112156115065780359067ffffffffffffffff821161149b576040519261156c601f8401601f1916602001856114ce565b8284526020838301011161150657816000926020809301838601378301015290565b359060ff8216820361150657565b906020808351928381520192019060005b8181106115ba5750505090565b82518452602093840193909201916001016115ad565b919082519283825260005b8481106115fc575050826000602080949584010152601f8019910116010190565b806020809284010151828286010152016115db565b90600482101561161e5752565b634e487b7160e01b600052602160045260246000fd5b604051906116436040836114ce565b600382527f31303300000000000000000000000000000000000000000000000000000000006020830152565b156116775750565b6116b5906040519182917f08c379a00000000000000000000000000000000000000000000000000000000083526020600484015260248301906115d0565b0390fd5b90816020910312611506575180151581036115065790565b8054808352600091825260208083209301925b81601f840110611b01575491818110611aeb575b818110611ad2575b818110611ab9575b818110611aa0575b818110611a88575b818110611a6f575b818110611a56575b818110611a3d575b818110611a24575b818110611a0b575b8181106119f2575b8181106119d9575b8181106119c0575b8181106119a7575b81811061198e575b818110611975575b81811061195c575b818110611943575b81811061192a575b818110611911575b8181106118f8575b8181106118df575b8181106118c6575b8181106118ad575b818110611894575b81811061187b575b818110611862575b818110611849575b818110611830575b818110611817575b8181106117fe575b106117f1575090565b60f81c1515815260200190565b92602060019160ff8560f01c16151581520193016117e8565b92602060019160ff8560e81c16151581520193016117e0565b92602060019160ff8560e01c16151581520193016117d8565b92602060019160ff8560d81c16151581520193016117d0565b92602060019160ff8560d01c16151581520193016117c8565b92602060019160ff8560c81c16151581520193016117c0565b92602060019160ff8560c01c16151581520193016117b8565b92602060019160ff8560b81c16151581520193016117b0565b92602060019160ff8560b01c16151581520193016117a8565b92602060019160ff8560a81c16151581520193016117a0565b92602060019160ff8560a01c1615158152019301611798565b92602060019160ff8560981c1615158152019301611790565b92602060019160ff8560901c1615158152019301611788565b92602060019160ff8560881c1615158152019301611780565b92602060019160ff8560801c1615158152019301611778565b92602060019160ff8560781c1615158152019301611770565b92602060019160ff8560701c1615158152019301611768565b92602060019160ff8560681c1615158152019301611760565b92602060019160ff8560601c1615158152019301611758565b92602060019160ff8560581c1615158152019301611750565b92602060019160ff8560501c1615158152019301611748565b92602060019160ff8560481c1615158152019301611740565b92602060019160ff8560401c1615158152019301611738565b92602060019160ff8560381c1615158152019301611730565b92602060019160ff8560301c1615158152019301611728565b92602060019160ff8560281c1615158152019301611720565b92602060019160ff85831c1615158152019301611718565b92602060019160ff8560181c1615158152019301611710565b92602060019160ff8560101c1615158152019301611708565b92602060019160ff8560081c1615158152019301611700565b92602060019160ff8516151581520193016116f8565b926001610400602092865460ff81161515825260ff8160081c1615158583015260ff8160101c161515604083015260ff8160181c161515606083015260ff81861c161515608083015260ff8160281c16151560a083015260ff8160301c16151560c083015260ff8160381c16151560e083015260ff8160401c16151561010083015260ff8160481c16151561012083015260ff8160501c16151561014083015260ff8160581c16151561016083015260ff8160601c16151561018083015260ff8160681c1615156101a083015260ff8160701c1615156101c083015260ff8160781c1615156101e083015260ff8160801c16151561020083015260ff8160881c16151561022083015260ff8160901c16151561024083015260ff8160981c16151561026083015260ff8160a01c16151561028083015260ff8160a81c1615156102a083015260ff8160b01c1615156102c083015260ff8160b81c1615156102e083015260ff8160c01c16151561030083015260ff8160c81c16151561032083015260ff8160d01c16151561034083015260ff8160d81c16151561036083015260ff8160e01c16151561038083015260ff8160e81c1615156103a083015260ff8160f01c1615156103c083015260f81c15156103e08201520194019201916116e4565b818110611cee575050565b60008155600101611ce3565b91818110611d0757505050565b611d1d9260005260206000209182019101611ce3565b565b90600182811c92168015611d4f575b6020831014611d3957565b634e487b7160e01b600052602260045260246000fd5b91607f1691611d2e565b906040519182815491828252602082019060005260206000209260005b818110611d8b575050611d1d925003836114ce565b8454835260019485019487945060209093019201611d76565b9060405191826000825492611db884611d1f565b8084529360018116908115611e245750600114611ddd575b50611d1d925003836114ce565b90506000929192526020600020906000915b818310611e08575050906020611d1d9282010138611dd0565b6020919350806001915483858901015201910190918492611def565b905060209250611d1d94915060ff191682840152151560051b82010138611dd0565b8054821015611e5e5760005260206000200190600090565b634e487b7160e01b600052603260045260246000fd5b6001600160a01b03600054163303611e8857565b7f118cdaa7000000000000000000000000000000000000000000000000000000006000523360045260246000fdfea264697066735822122018a884918b7e2bd18a33acd6b29bce7716179887b406c2a02c54e9366898d93d64736f6c634300081c0033",
  "linkReferences": {
    "contracts/libs/BoolLib.sol": {
      "BoolLib": [
        {
          "length": 20,
          "start": 992
        },
        {
          "length": 20,
          "start": 5353
        }
      ]
    },
    "contracts/libs/HashLib.sol": {
      "HashLib": [
        {
          "length": 20,
          "start": 3340
        }
      ]
    }
  },
  "deployedLinkReferences": {
    "contracts/libs/BoolLib.sol": {
      "BoolLib": [
        {
          "length": 20,
          "start": 755
        },
        {
          "length": 20,
          "start": 5116
        }
      ]
    },
    "contracts/libs/HashLib.sol": {
      "HashLib": [
        {
          "length": 20,
          "start": 3103
        }
      ]
    }
  }
}