{
  "_format": "hh-sol-artifact-1",
  "contractName": "OneTimeTransaction",
  "sourceName": "contracts/transactions/OneTimeTransaction.sol",
  "abi": [
    {
      "inputs": [
        {
          "internalType": "contract IReceipt",
          "name": "receipt_",
          "type": "address"
        }
      ],
      "stateMutability": "nonpayable",
      "type": "constructor"
    },
    {
      "inputs": [
        {
          "internalType": "address",
          "name": "owner",
          "type": "address"
        }
      ],
      "name": "OwnableInvalidOwner",
      "type": "error"
    },
    {
      "inputs": [
        {
          "internalType": "address",
          "name": "account",
          "type": "address"
        }
      ],
      "name": "OwnableUnauthorizedAccount",
      "type": "error"
    },
    {
      "anonymous": false,
      "inputs": [
        {
          "indexed": true,
          "internalType": "address",
          "name": "previousOwner",
          "type": "address"
        },
        {
          "indexed": true,
          "internalType": "address",
          "name": "newOwner",
          "type": "address"
        }
      ],
      "name": "OwnershipTransferred",
      "type": "event"
    },
    {
      "inputs": [
        {
          "internalType": "address",
          "name": "payer",
          "type": "address"
        },
        {
          "components": [
            {
              "internalType": "address[]",
              "name": "payers",
              "type": "address[]"
            },
            {
              "internalType": "address",
              "name": "merchant",
              "type": "address"
            },
            {
              "internalType": "uint256[]",
              "name": "amounts",
              "type": "uint256[]"
            },
            {
              "internalType": "address",
              "name": "token",
              "type": "address"
            },
            {
              "internalType": "address",
              "name": "tokenB",
              "type": "address"
            },
            {
              "internalType": "string",
              "name": "description",
              "type": "string"
            },
            {
              "components": [
                {
                  "internalType": "uint8",
                  "name": "schemaVersion",
                  "type": "uint8"
                },
                {
                  "internalType": "string",
                  "name": "value",
                  "type": "string"
                }
              ],
              "internalType": "struct Types.Metadata",
              "name": "metadata",
              "type": "tuple"
            },
            {
              "internalType": "uint256",
              "name": "slippage",
              "type": "uint256"
            },
            {
              "internalType": "uint256",
              "name": "healthFactorMultiplier",
              "type": "uint256"
            },
            {
              "internalType": "enum Enums.TransactionRoute",
              "name": "route",
              "type": "uint8"
            },
            {
              "components": [
                {
                  "internalType": "uint256",
                  "name": "deadline",
                  "type": "uint256"
                },
                {
                  "internalType": "uint8",
                  "name": "v",
                  "type": "uint8"
                },
                {
                  "internalType": "bytes32",
                  "name": "r",
                  "type": "bytes32"
                },
                {
                  "internalType": "bytes32",
                  "name": "s",
                  "type": "bytes32"
                }
              ],
              "internalType": "struct Params.Signature",
              "name": "signature",
              "type": "tuple"
            }
          ],
          "internalType": "struct Params.CreateOneTimeTransaction",
          "name": "params",
          "type": "tuple"
        }
      ],
      "name": "create",
      "outputs": [
        {
          "internalType": "bytes32",
          "name": "transactionId",
          "type": "bytes32"
        }
      ],
      "stateMutability": "nonpayable",
      "type": "function"
    },
    {
      "inputs": [
        {
          "internalType": "bytes32",
          "name": "transactionId",
          "type": "bytes32"
        }
      ],
      "name": "getStatus",
      "outputs": [
        {
          "internalType": "enum Enums.TransactionStatus",
          "name": "",
          "type": "uint8"
        }
      ],
      "stateMutability": "view",
      "type": "function"
    },
    {
      "inputs": [
        {
          "internalType": "bytes32",
          "name": "transactionId",
          "type": "bytes32"
        }
      ],
      "name": "getTransaction",
      "outputs": [
        {
          "components": [
            {
              "internalType": "address",
              "name": "payer",
              "type": "address"
            },
            {
              "internalType": "address[]",
              "name": "payers",
              "type": "address[]"
            },
            {
              "internalType": "address",
              "name": "merchant",
              "type": "address"
            },
            {
              "internalType": "uint256[]",
              "name": "amounts",
              "type": "uint256[]"
            },
            {
              "internalType": "bool[]",
              "name": "fulfillments",
              "type": "bool[]"
            },
            {
              "internalType": "address",
              "name": "token",
              "type": "address"
            },
            {
              "internalType": "uint256[]",
              "name": "timestamps",
              "type": "uint256[]"
            },
            {
              "internalType": "string",
              "name": "description",
              "type": "string"
            },
            {
              "components": [
                {
                  "internalType": "uint8",
                  "name": "schemaVersion",
                  "type": "uint8"
                },
                {
                  "internalType": "string",
                  "name": "value",
                  "type": "string"
                }
              ],
              "internalType": "struct Types.Metadata",
              "name": "metadata",
              "type": "tuple"
            },
            {
              "internalType": "enum Enums.TransactionStatus",
              "name": "status",
              "type": "uint8"
            }
          ],
          "internalType": "struct Types.OneTimeTransaction",
          "name": "",
          "type": "tuple"
        }
      ],
      "stateMutability": "view",
      "type": "function"
    },
    {
      "inputs": [
        {
          "components": [
            {
              "internalType": "address",
              "name": "to",
              "type": "address"
            },
            {
              "internalType": "bytes32",
              "name": "transactionId",
              "type": "bytes32"
            },
            {
              "internalType": "string",
              "name": "URI",
              "type": "string"
            }
          ],
          "internalType": "struct Params.MintReceipt",
          "name": "params",
          "type": "tuple"
        }
      ],
      "name": "mintReceipt",
      "outputs": [],
      "stateMutability": "nonpayable",
      "type": "function"
    },
    {
      "inputs": [
        {
          "internalType": "bytes32",
          "name": "transactionId",
          "type": "bytes32"
        }
      ],
      "name": "onComplete",
      "outputs": [],
      "stateMutability": "nonpayable",
      "type": "function"
    },
    {
      "inputs": [
        {
          "internalType": "bytes32",
          "name": "transactionId",
          "type": "bytes32"
        },
        {
          "internalType": "address",
          "name": "payer",
          "type": "address"
        }
      ],
      "name": "onFulfill",
      "outputs": [
        {
          "internalType": "bool",
          "name": "completed",
          "type": "bool"
        },
        {
          "internalType": "uint256",
          "name": "amount",
          "type": "uint256"
        }
      ],
      "stateMutability": "nonpayable",
      "type": "function"
    },
    {
      "inputs": [],
      "name": "owner",
      "outputs": [
        {
          "internalType": "address",
          "name": "",
          "type": "address"
        }
      ],
      "stateMutability": "view",
      "type": "function"
    },
    {
      "inputs": [],
      "name": "renounceOwnership",
      "outputs": [],
      "stateMutability": "nonpayable",
      "type": "function"
    },
    {
      "inputs": [
        {
          "internalType": "address",
          "name": "newOwner",
          "type": "address"
        }
      ],
      "name": "transferOwnership",
      "outputs": [],
      "stateMutability": "nonpayable",
      "type": "function"
    }
  ],
  "bytecode": "0x60803460d157601f611fdb38819003918201601f19168301916001600160401b0383118484101760d65780849260209460405283398101031260d157516001600160a01b0381169081900360d157331560bb5760008054336001600160a01b0319821681178355604051939290916001600160a01b0316907f8be0079c531659141344cd1fd0a4f28419497f9722a3daafe3b4186f6b6457e09080a3600180546001600160a01b031916919091179055611eee90816100ed8239f35b631e4fbdf760e01b600052600060045260246000fd5b600080fd5b634e487b7160e01b600052604160045260246000fdfe6080604052600436101561001257600080fd5b6000803560e01c806305543f851461137e5780632d926e46146111135780634aae13ca14610ded5780635de28ae014610db657806363423f93146102fa578063715018a6146102a15780638da5cb5b1461027b578063eb70fc28146101205763f2fde38b1461008057600080fd5b3461011d57602036600319011261011d576001600160a01b036100a1611481565b6100a9611e76565b1680156100f1576001600160a01b038254826001600160a01b03198216178455167f8be0079c531659141344cd1fd0a4f28419497f9722a3daafe3b4186f6b6457e08380a380f35b6024827f1e4fbdf700000000000000000000000000000000000000000000000000000000815280600452fd5b80fd5b503461011d57602036600319011261011d5760043567ffffffffffffffff81116102775760606003198236030112610277576040516060810181811067ffffffffffffffff82111761026357604052829061017d6004840161149c565b815260208101926024810135845260448101359067ffffffffffffffff821161025f5760046101af92369201016115d1565b92604082019384526101bf611e76565b6001600160a01b0360015416803b1561025f576001600160a01b03848094610233604051988996879586947fcab723650000000000000000000000000000000000000000000000000000000086526020600487015251166024850152516044840152516060606484015260848301906114e4565b03925af18015610252576102445780f35b61024d91611597565b388180f35b50604051903d90823e3d90fd5b8380fd5b602484634e487b7160e01b81526041600452fd5b5080fd5b503461011d578060031936011261011d576001600160a01b036020915416604051908152f35b503461011d578060031936011261011d576102ba611e76565b806001600160a01b0381546001600160a01b031981168355167f8be0079c531659141344cd1fd0a4f28419497f9722a3daafe3b4186f6b6457e08280a380f35b503461011d57604036600319011261011d57610314611481565b60243567ffffffffffffffff8111610db2578036036101c060031982011261025f5760405192610160840184811067ffffffffffffffff821117610d9e57604052826004013567ffffffffffffffff8111610d9a57830136602382011215610d9a57600481013590610385826115b9565b916103936040519384611597565b808352602060048185019260051b8401010191368311610d5e57602401905b828210610d825750505084526103ca6024840161149c565b9260208501938452604481013567ffffffffffffffff8111610d7e5781019236602385011215610d7e57600484013593610403856115b9565b946104116040519687611597565b808652602060048188019260051b8401010191368311610d6a57602401905b828210610d6e575050506040860193845261044d6064830161149c565b91606087019283526104616084820161149c565b608088015260a481013567ffffffffffffffff8111610d5e5761048a90600436918401016115d1565b9060a0880191825260c481013567ffffffffffffffff8111610d6a5781019260406003198536030112610d6a57604051936104c48561157b565b6104d060048201611628565b855260248101359067ffffffffffffffff8211610d665760046104f692369201016115d1565b602085015260c0890193845260e482013560e08a01526101048201356101008a0152610124820135906003821015610d62576080916101208b0152610143190112610d5e57604051906080820182811067ffffffffffffffff821117610d4a5760405261014481013582526101a4906105726101648201611628565b6020840152610184810135604084015201356060820152610140880152610597611e76565b6002549660018801809811610d365787600255805196516001600160a01b03169551938751906105c6826115b9565b91604051926105d59084611597565b808352601f19906105e5906115b9565b01366020840137516001600160a01b031691515192610603846115b9565b93604051946106129086611597565b808552601f1990610622906115b9565b01366020860137519351946040519661063a88611548565b6001600160a01b031687526020870198895260408701978852606087019081526080870191825260a0870192835260c0870193845260e087019485526101008701958652610120870197600189526040998c8b80519d8e61069b8382611597565b601281526020017f4f6e6554696d655472616e73616374696f6e0000000000000000000000000000905281519e8f927f20bed6040000000000000000000000000000000000000000000000000000000084526004840152604483016106ff916114e4565b906024830152038d73__$e8a316a189340483dbc2c3c1eb5060a774$__91815a93602094f49c8d15610d2a57819d610ceb575b506001600160a01b038c828f8394526003602052209a5116166001600160a01b03198a54161789556001890190519081519167ffffffffffffffff8311610cd757680100000000000000008311610cd7579060208f9261079785845481865585611e53565b0191528d60208120905b838110610cba57505050506001600160a01b039051166001600160a01b036002890191166001600160a01b03198254161790556003870190519081519167ffffffffffffffff8311610ca657680100000000000000008311610ca65760209061080f84845481865585611e53565b01908c5260208c208c5b838110610c92575050505060048601905180519067ffffffffffffffff8211610c7e57680100000000000000008211610c7e576020908c8454848655808510610c32575b505001918b5260208b208160051c918c5b838110610bed5750601f198116900380610b9d575b505050506001600160a01b039051166001600160a01b036005860191166001600160a01b03198254161790556006840190519081519167ffffffffffffffff8311610b8957680100000000000000008311610b89576020906108ea84845481865585611e53565b0190895260208920895b838110610b75575050505060078301905180519067ffffffffffffffff8211610b615781906109238454611d60565b601f8111610b31575b50602090601f8311600114610ace578a92610ac3575b50508160011b916000199060031b1c19161790555b6008820190519060ff82511660ff1982541617905560206009830191015180519067ffffffffffffffff8211610aaf576109918354611d60565b601f8111610a74575b50602090601f8311600114610a0d57600a94939291899183610a02575b50508160011b916000199060031b1c19161790555b01905160048110156109ee576020945060ff8019835416911617905551908152f35b602485634e487b7160e01b81526021600452fd5b0151905038806109b7565b8389528189209190601f1984168a5b818110610a5c5750916001939185600a9897969410610a43575b505050811b0190556109cc565b015160001960f88460031b161c19169055388080610a36565b92936020600181928786015181550195019301610a1c565b610a9f90848a5260208a20601f850160051c81019160208610610aa5575b601f0160051c0190611e3c565b3861099a565b9091508190610a92565b602488634e487b7160e01b81526041600452fd5b015190503880610942565b848b52818b209250601f1984168b5b818110610b195750908460019594939210610b00575b505050811b019055610957565b015160001960f88460031b161c19169055388080610af3565b92936020600181928786015181550195019301610add565b610b5b90858c5260208c20601f850160051c81019160208610610aa557601f0160051c0190611e3c565b3861092c565b602489634e487b7160e01b81526041600452fd5b6001906020845194019381840155016108f4565b60248a634e487b7160e01b81526041600452fd5b928c938d5b818110610bbe5750505001556001600160a01b03388080610883565b9091946020610be36001928489511515919060ff809160031b9316831b921b19161790565b9601929101610ba2565b8d805b60208110610c0557508382015560010161086e565b95906020610c296001928985511515919060ff809160031b9316831b921b19161790565b92019601610bf0565b838287610c5b945220601f80870160051c82019281881680610c62575b500160051c0190611e3c565b8c3861085d565b600019850190815490600019908a0360031b1c16905538610c4f565b60248c634e487b7160e01b81526041600452fd5b600190602084519401938184015501610819565b60248d634e487b7160e01b81526041600452fd5b60019060206001600160a01b0385511694019381840155016107a1565b60248f634e487b7160e01b81526041600452fd5b909c506020813d602011610d22575b81610d0760209383611597565b81010312610d1e57519b6001600160a01b03610732565b8c80fd5b3d9150610cfa565b508b51903d90823e3d90fd5b602489634e487b7160e01b81526011600452fd5b60248b634e487b7160e01b81526041600452fd5b8880fd5b8a80fd5b8b80fd5b8980fd5b8135815260209182019101610430565b8680fd5b60208091610d8f8461149c565b8152019101906103b2565b8580fd5b602486634e487b7160e01b81526041600452fd5b8280fd5b503461011d57602036600319011261011d5760ff600a604060209360043581526003855220015416610deb6040518092611525565bf35b503461011d57602036600319011261011d5780610120604051610e0f81611548565b82815260606020820152826040820152606080820152606060808201528260a0820152606060c0820152606060e0820152604051610e4c8161157b565b8381526060602082015261010082015201526004358152600360205260408120604051610e7881611548565b6001600160a01b03825416815260018201916040518084602082965493848152019087526020872092875b8181106110f1575050610eb892500384611597565b602082019283526001600160a01b036002820154169160408101928352610ee160038301611d13565b9060608101918252604051610f0481610efd81600488016116d3565b0382611597565b608082019081526001600160a01b036005850154169060a08301918252610f2d60068601611d13565b9260c08101938452610f4160078701611d9a565b9460e0820195865260ff600a60405198610f5a8a61157b565b826008820154168a52610f6f60098201611d9a565b60208b01526101008501998a520154169761012083019860048110156110dd57899b949b526040519960208b526001600160a01b036101608c0194511660208c0152519261014060408c0152835180915260206101808c01940190855b8181106110be57505090516001600160a01b031660608b01525051888203601f190160808a0152610ffd91906114b0565b975197601f198882030160a08901526020808a5192838152019901915b8181106110a657505050602061106f6110959461105b899a6110a298966001600160a01b03604097511660c08d015251601f198c83030160e08d01526114b0565b9051898203601f19016101008b01526114e4565b9251601f198885030161012089015260ff815116845201519181602082015201906114e4565b9151610140840190611525565b0390f35b825115158a526020998a01999092019160010161101a565b82516001600160a01b0316865260209586019590920191600101610fcc565b60248c634e487b7160e01b81526021600452fd5b84546001600160a01b0316835260019485019488945060209093019201610ea3565b503461011d57604036600319011261011d57600435602435906001600160a01b038216809203610db257611145611e76565b808352600360205260ff600a60408520015416600481101561136a5761117690600161116f611636565b9114611671565b829183845b8386526003602052600160408720015481101561135e5783865260036020526001600160a01b036111b282600160408a2001611ce5565b90549060031b1c1683146111c85760010161117b565b92935050506001925b6112136040948551906111e48783611597565b600382527f31303400000000000000000000000000000000000000000000000000000000006020830152611671565b828152600360205261122a82600686842001611ce5565b81549060031b9042821b91600019901b19161790558281526003602052600484822001805483101561134a57906112ae92918152602081208260051c01805460f88460031b169060ff6001831b921b19161790558381526003602052602060048683200186518095819263be26ece960e01b835284600484015260248301906116d3565b038173__$87180faec4dba5ff01f16b425dda1042d6$__5af492831561133e579085918194611304575b5090816112ef949560039352826020522001611ce5565b90549060031b1c825191151582526020820152f35b6112ef94509061132e6003939260203d602011611337575b6113268183611597565b8101906116bb565b945090916112d8565b503d61131c565b508451903d90823e3d90fd5b602482634e487b7160e01b81526032600452fd5b509390509190916111d1565b602484634e487b7160e01b81526021600452fd5b503461011d57602036600319011261011d5760043561139b611e76565b808252600360205260ff600a60408420015416600481101561146d576113c590600161116f611636565b80825260036020526113fa6020600460408520016040518093819263be26ece960e01b835284600484015260248301906116d3565b038173__$87180faec4dba5ff01f16b425dda1042d6$__5af4908115611462578391611443575b5015610277578152600360205260408120600a01805460ff1916600217905580f35b61145c915060203d602011611337576113268183611597565b38611421565b6040513d85823e3d90fd5b602483634e487b7160e01b81526021600452fd5b600435906001600160a01b038216820361149757565b600080fd5b35906001600160a01b038216820361149757565b906020808351928381520192019060005b8181106114ce5750505090565b82518452602093840193909201916001016114c1565b919082519283825260005b848110611510575050826000602080949584010152601f8019910116010190565b806020809284010151828286010152016114ef565b9060048210156115325752565b634e487b7160e01b600052602160045260246000fd5b610140810190811067ffffffffffffffff82111761156557604052565b634e487b7160e01b600052604160045260246000fd5b6040810190811067ffffffffffffffff82111761156557604052565b90601f8019910116810190811067ffffffffffffffff82111761156557604052565b67ffffffffffffffff81116115655760051b60200190565b81601f820112156114975780359067ffffffffffffffff82116115655760405192611606601f8401601f191660200185611597565b8284526020838301011161149757816000926020809301838601378301015290565b359060ff8216820361149757565b60405190611645604083611597565b600382527f31303300000000000000000000000000000000000000000000000000000000006020830152565b156116795750565b6116b7906040519182917f08c379a00000000000000000000000000000000000000000000000000000000083526020600484015260248301906114e4565b0390fd5b90816020910312611497575180151581036114975790565b8054808352600091825260208083209301925b81601f840110611b03575491818110611aed575b818110611ad4575b818110611abb575b818110611aa2575b818110611a8a575b818110611a71575b818110611a58575b818110611a3f575b818110611a26575b818110611a0d575b8181106119f4575b8181106119db575b8181106119c2575b8181106119a9575b818110611990575b818110611977575b81811061195e575b818110611945575b81811061192c575b818110611913575b8181106118fa575b8181106118e1575b8181106118c8575b8181106118af575b818110611896575b81811061187d575b818110611864575b81811061184b575b818110611832575b818110611819575b818110611800575b106117f3575090565b60f81c1515815260200190565b92602060019160ff8560f01c16151581520193016117ea565b92602060019160ff8560e81c16151581520193016117e2565b92602060019160ff8560e01c16151581520193016117da565b92602060019160ff8560d81c16151581520193016117d2565b92602060019160ff8560d01c16151581520193016117ca565b92602060019160ff8560c81c16151581520193016117c2565b92602060019160ff8560c01c16151581520193016117ba565b92602060019160ff8560b81c16151581520193016117b2565b92602060019160ff8560b01c16151581520193016117aa565b92602060019160ff8560a81c16151581520193016117a2565b92602060019160ff8560a01c161515815201930161179a565b92602060019160ff8560981c1615158152019301611792565b92602060019160ff8560901c161515815201930161178a565b92602060019160ff8560881c1615158152019301611782565b92602060019160ff8560801c161515815201930161177a565b92602060019160ff8560781c1615158152019301611772565b92602060019160ff8560701c161515815201930161176a565b92602060019160ff8560681c1615158152019301611762565b92602060019160ff8560601c161515815201930161175a565b92602060019160ff8560581c1615158152019301611752565b92602060019160ff8560501c161515815201930161174a565b92602060019160ff8560481c1615158152019301611742565b92602060019160ff8560401c161515815201930161173a565b92602060019160ff8560381c1615158152019301611732565b92602060019160ff8560301c161515815201930161172a565b92602060019160ff8560281c1615158152019301611722565b92602060019160ff85831c161515815201930161171a565b92602060019160ff8560181c1615158152019301611712565b92602060019160ff8560101c161515815201930161170a565b92602060019160ff8560081c1615158152019301611702565b92602060019160ff8516151581520193016116fa565b926001610400602092865460ff81161515825260ff8160081c1615158583015260ff8160101c161515604083015260ff8160181c161515606083015260ff81861c161515608083015260ff8160281c16151560a083015260ff8160301c16151560c083015260ff8160381c16151560e083015260ff8160401c16151561010083015260ff8160481c16151561012083015260ff8160501c16151561014083015260ff8160581c16151561016083015260ff8160601c16151561018083015260ff8160681c1615156101a083015260ff8160701c1615156101c083015260ff8160781c1615156101e083015260ff8160801c16151561020083015260ff8160881c16151561022083015260ff8160901c16151561024083015260ff8160981c16151561026083015260ff8160a01c16151561028083015260ff8160a81c1615156102a083015260ff8160b01c1615156102c083015260ff8160b81c1615156102e083015260ff8160c01c16151561030083015260ff8160c81c16151561032083015260ff8160d01c16151561034083015260ff8160d81c16151561036083015260ff8160e01c16151561038083015260ff8160e81c1615156103a083015260ff8160f01c1615156103c083015260f81c15156103e08201520194019201916116e6565b8054821015611cfd5760005260206000200190600090565b634e487b7160e01b600052603260045260246000fd5b906040519182815491828252602082019060005260206000209260005b818110611d47575050611d4592500383611597565b565b8454835260019485019487945060209093019201611d30565b90600182811c92168015611d90575b6020831014611d7a57565b634e487b7160e01b600052602260045260246000fd5b91607f1691611d6f565b9060405191826000825492611dae84611d60565b8084529360018116908115611e1a5750600114611dd3575b50611d4592500383611597565b90506000929192526020600020906000915b818310611dfe575050906020611d459282010138611dc6565b6020919350806001915483858901015201910190918492611de5565b905060209250611d4594915060ff191682840152151560051b82010138611dc6565b818110611e47575050565b60008155600101611e3c565b91818110611e6057505050565b611d459260005260206000209182019101611e3c565b6001600160a01b03600054163303611e8a57565b7f118cdaa7000000000000000000000000000000000000000000000000000000006000523360045260246000fdfea2646970667358221220bba1cb9210bfc78c6fb77a1969edd571f8b05a402f3db97fbdd7c6c04083d70564736f6c634300081c0033",
  "linkReferences": {
    "contracts/libs/BoolLib.sol": {
      "BoolLib": [
        {
          "length": 20,
          "start": 5023
        },
        {
          "length": 20,
          "start": 5355
        }
      ]
    },
    "contracts/libs/HashLib.sol": {
      "HashLib": [
        {
          "length": 20,
          "start": 2038
        }
      ]
    }
  },
  "deployedLinkReferences": {
    "contracts/libs/BoolLib.sol": {
      "BoolLib": [
        {
          "length": 20,
          "start": 4786
        },
        {
          "length": 20,
          "start": 5118
        }
      ]
    },
    "contracts/libs/HashLib.sol": {
      "HashLib": [
        {
          "length": 20,
          "start": 1801
        }
      ]
    }
  }
}