{
  "_format": "hh-sol-artifact-1",
  "contractName": "OneTimeTransaction",
  "sourceName": "contracts/transactions/OneTimeTransaction.sol",
  "abi": [
    {
      "inputs": [
        {
          "internalType": "contract IReceipt",
          "name": "receipt_",
          "type": "address"
        }
      ],
      "stateMutability": "nonpayable",
      "type": "constructor"
    },
    {
      "inputs": [
        {
          "internalType": "address",
          "name": "owner",
          "type": "address"
        }
      ],
      "name": "OwnableInvalidOwner",
      "type": "error"
    },
    {
      "inputs": [
        {
          "internalType": "address",
          "name": "account",
          "type": "address"
        }
      ],
      "name": "OwnableUnauthorizedAccount",
      "type": "error"
    },
    {
      "anonymous": false,
      "inputs": [
        {
          "indexed": true,
          "internalType": "address",
          "name": "previousOwner",
          "type": "address"
        },
        {
          "indexed": true,
          "internalType": "address",
          "name": "newOwner",
          "type": "address"
        }
      ],
      "name": "OwnershipTransferred",
      "type": "event"
    },
    {
      "inputs": [
        {
          "internalType": "address",
          "name": "payer",
          "type": "address"
        },
        {
          "components": [
            {
              "internalType": "address[]",
              "name": "payers",
              "type": "address[]"
            },
            {
              "internalType": "address",
              "name": "merchant",
              "type": "address"
            },
            {
              "internalType": "uint256[]",
              "name": "amounts",
              "type": "uint256[]"
            },
            {
              "internalType": "address",
              "name": "token",
              "type": "address"
            },
            {
              "internalType": "address",
              "name": "tokenB",
              "type": "address"
            },
            {
              "internalType": "string",
              "name": "description",
              "type": "string"
            },
            {
              "components": [
                {
                  "internalType": "uint8",
                  "name": "schemaVersion",
                  "type": "uint8"
                },
                {
                  "internalType": "string",
                  "name": "value",
                  "type": "string"
                }
              ],
              "internalType": "struct Types.Metadata",
              "name": "metadata",
              "type": "tuple"
            },
            {
              "internalType": "uint256",
              "name": "healthFactorMultiplier",
              "type": "uint256"
            },
            {
              "internalType": "enum Enums.TransactionRoute",
              "name": "route",
              "type": "uint8"
            },
            {
              "components": [
                {
                  "internalType": "uint256",
                  "name": "deadline",
                  "type": "uint256"
                },
                {
                  "internalType": "uint8",
                  "name": "v",
                  "type": "uint8"
                },
                {
                  "internalType": "bytes32",
                  "name": "r",
                  "type": "bytes32"
                },
                {
                  "internalType": "bytes32",
                  "name": "s",
                  "type": "bytes32"
                }
              ],
              "internalType": "struct Params.Signature",
              "name": "signature",
              "type": "tuple"
            }
          ],
          "internalType": "struct Params.CreateOneTimeTransaction",
          "name": "params",
          "type": "tuple"
        }
      ],
      "name": "create",
      "outputs": [
        {
          "internalType": "bytes32",
          "name": "transactionId",
          "type": "bytes32"
        }
      ],
      "stateMutability": "nonpayable",
      "type": "function"
    },
    {
      "inputs": [
        {
          "internalType": "bytes32",
          "name": "transactionId",
          "type": "bytes32"
        }
      ],
      "name": "getStatus",
      "outputs": [
        {
          "internalType": "enum Enums.TransactionStatus",
          "name": "",
          "type": "uint8"
        }
      ],
      "stateMutability": "view",
      "type": "function"
    },
    {
      "inputs": [
        {
          "internalType": "bytes32",
          "name": "transactionId",
          "type": "bytes32"
        }
      ],
      "name": "getTransaction",
      "outputs": [
        {
          "components": [
            {
              "internalType": "address",
              "name": "payer",
              "type": "address"
            },
            {
              "internalType": "address[]",
              "name": "payers",
              "type": "address[]"
            },
            {
              "internalType": "address",
              "name": "merchant",
              "type": "address"
            },
            {
              "internalType": "uint256[]",
              "name": "amounts",
              "type": "uint256[]"
            },
            {
              "internalType": "bool[]",
              "name": "fulfillments",
              "type": "bool[]"
            },
            {
              "internalType": "address",
              "name": "token",
              "type": "address"
            },
            {
              "internalType": "uint256[]",
              "name": "timestamps",
              "type": "uint256[]"
            },
            {
              "internalType": "string",
              "name": "description",
              "type": "string"
            },
            {
              "components": [
                {
                  "internalType": "uint8",
                  "name": "schemaVersion",
                  "type": "uint8"
                },
                {
                  "internalType": "string",
                  "name": "value",
                  "type": "string"
                }
              ],
              "internalType": "struct Types.Metadata",
              "name": "metadata",
              "type": "tuple"
            },
            {
              "internalType": "enum Enums.TransactionStatus",
              "name": "status",
              "type": "uint8"
            }
          ],
          "internalType": "struct Types.OneTimeTransaction",
          "name": "",
          "type": "tuple"
        }
      ],
      "stateMutability": "view",
      "type": "function"
    },
    {
      "inputs": [
        {
          "components": [
            {
              "internalType": "address",
              "name": "to",
              "type": "address"
            },
            {
              "internalType": "bytes32",
              "name": "transactionId",
              "type": "bytes32"
            },
            {
              "internalType": "string",
              "name": "URI",
              "type": "string"
            }
          ],
          "internalType": "struct Params.MintReceipt",
          "name": "params",
          "type": "tuple"
        }
      ],
      "name": "mintReceipt",
      "outputs": [],
      "stateMutability": "nonpayable",
      "type": "function"
    },
    {
      "inputs": [
        {
          "internalType": "bytes32",
          "name": "transactionId",
          "type": "bytes32"
        }
      ],
      "name": "onComplete",
      "outputs": [],
      "stateMutability": "nonpayable",
      "type": "function"
    },
    {
      "inputs": [
        {
          "internalType": "bytes32",
          "name": "transactionId",
          "type": "bytes32"
        },
        {
          "internalType": "address",
          "name": "payer",
          "type": "address"
        }
      ],
      "name": "onFulfill",
      "outputs": [
        {
          "internalType": "bool",
          "name": "completed",
          "type": "bool"
        },
        {
          "internalType": "uint256",
          "name": "amount",
          "type": "uint256"
        }
      ],
      "stateMutability": "nonpayable",
      "type": "function"
    },
    {
      "inputs": [],
      "name": "owner",
      "outputs": [
        {
          "internalType": "address",
          "name": "",
          "type": "address"
        }
      ],
      "stateMutability": "view",
      "type": "function"
    },
    {
      "inputs": [],
      "name": "renounceOwnership",
      "outputs": [],
      "stateMutability": "nonpayable",
      "type": "function"
    },
    {
      "inputs": [
        {
          "internalType": "address",
          "name": "newOwner",
          "type": "address"
        }
      ],
      "name": "transferOwnership",
      "outputs": [],
      "stateMutability": "nonpayable",
      "type": "function"
    }
  ],
  "bytecode": "0x60803460d157601f611fa938819003918201601f19168301916001600160401b0383118484101760d65780849260209460405283398101031260d157516001600160a01b0381169081900360d157331560bb5760008054336001600160a01b0319821681178355604051939290916001600160a01b0316907f8be0079c531659141344cd1fd0a4f28419497f9722a3daafe3b4186f6b6457e09080a3600180546001600160a01b031916919091179055611ebc90816100ed8239f35b631e4fbdf760e01b600052600060045260246000fd5b600080fd5b634e487b7160e01b600052604160045260246000fdfe6080604052600436101561001257600080fd5b6000803560e01c806305543f851461134c5780632d926e46146110e15780634aae13ca14610dbb5780635de28ae014610d84578063715018a614610d2b5780638da5cb5b14610d05578063cc5a7dc51461027b578063eb70fc28146101205763f2fde38b1461008057600080fd5b3461011d57602036600319011261011d576001600160a01b036100a161144f565b6100a9611e44565b1680156100f1576001600160a01b038254826001600160a01b03198216178455167f8be0079c531659141344cd1fd0a4f28419497f9722a3daafe3b4186f6b6457e08380a380f35b6024827f1e4fbdf700000000000000000000000000000000000000000000000000000000815280600452fd5b80fd5b503461011d57602036600319011261011d5760043567ffffffffffffffff81116102775760606003198236030112610277576040516060810181811067ffffffffffffffff82111761026357604052829061017d6004840161146a565b815260208101926024810135845260448101359067ffffffffffffffff821161025f5760046101af923692010161159f565b92604082019384526101bf611e44565b6001600160a01b0360015416803b1561025f576001600160a01b03848094610233604051988996879586947fcab723650000000000000000000000000000000000000000000000000000000086526020600487015251166024850152516044840152516060606484015260848301906114b2565b03925af18015610252576102445780f35b61024d91611565565b388180f35b50604051903d90823e3d90fd5b8380fd5b602484634e487b7160e01b81526041600452fd5b5080fd5b503461011d57604036600319011261011d5761029561144f565b60243567ffffffffffffffff8111610d01578036036101a060031982011261025f57604051926102c484611516565b826004013567ffffffffffffffff8111610cfd57830136602382011215610cfd576004810135906102f482611587565b916103026040519384611565565b808352602060048185019260051b8401010191368311610cc157602401905b828210610ce55750505084526103396024840161146a565b9260208501938452604481013567ffffffffffffffff8111610ce15781019236602385011215610ce15760048401359361037285611587565b946103806040519687611565565b808652602060048188019260051b8401010191368311610ccd57602401905b828210610cd157505050604086019384526103bc6064830161146a565b91606087019283526103d06084820161146a565b608088015260a481013567ffffffffffffffff8111610cc1576103f9906004369184010161159f565b9060a0880191825260c481013567ffffffffffffffff8111610ccd5781019260406003198536030112610ccd576040519361043385611549565b61043f600482016115f6565b855260248101359067ffffffffffffffff8211610cc9576004610465923692010161159f565b602085015260c0890193845260e482013560e08a0152610104820135906003821015610cc5576080916101008b0152610123190112610cc157604051906080820182811067ffffffffffffffff821117610cad576040526101248101358252610184906104d561014482016115f6565b60208401526101648101356040840152013560608201526101208801526104fa611e44565b6002549660018801809811610c995787600255805196516001600160a01b031695519387519061052982611587565b91604051926105389084611565565b808352601f199061054890611587565b01366020840137516001600160a01b03169151519261056684611587565b93604051946105759086611565565b808552601f199061058590611587565b01366020860137519351946040519661059d88611516565b6001600160a01b031687526020870198895260408701978852606087019081526080870191825260a0870192835260c0870193845260e087019485526101008701958652610120870197600189526040998c8b80519d8e6105fe8382611565565b601281526020017f4f6e6554696d655472616e73616374696f6e0000000000000000000000000000905281519e8f927f20bed604000000000000000000000000000000000000000000000000000000008452600484015260448301610662916114b2565b906024830152038d73__$e8a316a189340483dbc2c3c1eb5060a774$__91815a93602094f49c8d15610c8d57819d610c4e575b506001600160a01b038c828f8394526003602052209a5116166001600160a01b03198a54161789556001890190519081519167ffffffffffffffff8311610c3a57680100000000000000008311610c3a579060208f926106fa85845481865585611e21565b0191528d60208120905b838110610c1d57505050506001600160a01b039051166001600160a01b036002890191166001600160a01b03198254161790556003870190519081519167ffffffffffffffff8311610c0957680100000000000000008311610c095760209061077284845481865585611e21565b01908c5260208c208c5b838110610bf5575050505060048601905180519067ffffffffffffffff8211610be157680100000000000000008211610be1576020908c8454848655808510610b95575b505001918b5260208b208160051c918c5b838110610b505750601f198116900380610b00575b505050506001600160a01b039051166001600160a01b036005860191166001600160a01b03198254161790556006840190519081519167ffffffffffffffff8311610aec57680100000000000000008311610aec5760209061084d84845481865585611e21565b0190895260208920895b838110610ad8575050505060078301905180519067ffffffffffffffff8211610ac45781906108868454611d2e565b601f8111610a94575b50602090601f8311600114610a31578a92610a26575b50508160011b916000199060031b1c19161790555b6008820190519060ff82511660ff1982541617905560206009830191015180519067ffffffffffffffff8211610a12576108f48354611d2e565b601f81116109d7575b50602090601f831160011461097057600a94939291899183610965575b50508160011b916000199060031b1c19161790555b0190516004811015610951576020945060ff8019835416911617905551908152f35b602485634e487b7160e01b81526021600452fd5b01519050388061091a565b8389528189209190601f1984168a5b8181106109bf5750916001939185600a98979694106109a6575b505050811b01905561092f565b015160001960f88460031b161c19169055388080610999565b9293602060018192878601518155019501930161097f565b610a0290848a5260208a20601f850160051c81019160208610610a08575b601f0160051c0190611e0a565b386108fd565b90915081906109f5565b602488634e487b7160e01b81526041600452fd5b0151905038806108a5565b848b52818b209250601f1984168b5b818110610a7c5750908460019594939210610a63575b505050811b0190556108ba565b015160001960f88460031b161c19169055388080610a56565b92936020600181928786015181550195019301610a40565b610abe90858c5260208c20601f850160051c81019160208610610a0857601f0160051c0190611e0a565b3861088f565b602489634e487b7160e01b81526041600452fd5b600190602084519401938184015501610857565b60248a634e487b7160e01b81526041600452fd5b928c938d5b818110610b215750505001556001600160a01b033880806107e6565b9091946020610b466001928489511515919060ff809160031b9316831b921b19161790565b9601929101610b05565b8d805b60208110610b685750838201556001016107d1565b95906020610b8c6001928985511515919060ff809160031b9316831b921b19161790565b92019601610b53565b838287610bbe945220601f80870160051c82019281881680610bc5575b500160051c0190611e0a565b8c386107c0565b600019850190815490600019908a0360031b1c16905538610bb2565b60248c634e487b7160e01b81526041600452fd5b60019060208451940193818401550161077c565b60248d634e487b7160e01b81526041600452fd5b60019060206001600160a01b038551169401938184015501610704565b60248f634e487b7160e01b81526041600452fd5b909c506020813d602011610c85575b81610c6a60209383611565565b81010312610c8157519b6001600160a01b03610695565b8c80fd5b3d9150610c5d565b508b51903d90823e3d90fd5b602489634e487b7160e01b81526011600452fd5b60248b634e487b7160e01b81526041600452fd5b8880fd5b8a80fd5b8b80fd5b8980fd5b813581526020918201910161039f565b8680fd5b60208091610cf28461146a565b815201910190610321565b8580fd5b8280fd5b503461011d578060031936011261011d576001600160a01b036020915416604051908152f35b503461011d578060031936011261011d57610d44611e44565b806001600160a01b0381546001600160a01b031981168355167f8be0079c531659141344cd1fd0a4f28419497f9722a3daafe3b4186f6b6457e08280a380f35b503461011d57602036600319011261011d5760ff600a604060209360043581526003855220015416610db960405180926114f3565bf35b503461011d57602036600319011261011d5780610120604051610ddd81611516565b82815260606020820152826040820152606080820152606060808201528260a0820152606060c0820152606060e0820152604051610e1a81611549565b8381526060602082015261010082015201526004358152600360205260408120604051610e4681611516565b6001600160a01b03825416815260018201916040518084602082965493848152019087526020872092875b8181106110bf575050610e8692500384611565565b602082019283526001600160a01b036002820154169160408101928352610eaf60038301611ce1565b9060608101918252604051610ed281610ecb81600488016116a1565b0382611565565b608082019081526001600160a01b036005850154169060a08301918252610efb60068601611ce1565b9260c08101938452610f0f60078701611d68565b9460e0820195865260ff600a60405198610f288a611549565b826008820154168a52610f3d60098201611d68565b60208b01526101008501998a520154169761012083019860048110156110ab57899b949b526040519960208b526001600160a01b036101608c0194511660208c0152519261014060408c0152835180915260206101808c01940190855b81811061108c57505090516001600160a01b031660608b01525051888203601f190160808a0152610fcb919061147e565b975197601f198882030160a08901526020808a5192838152019901915b81811061107457505050602061103d61106394611029899a61107098966001600160a01b03604097511660c08d015251601f198c83030160e08d015261147e565b9051898203601f19016101008b01526114b2565b9251601f198885030161012089015260ff815116845201519181602082015201906114b2565b91516101408401906114f3565b0390f35b825115158a526020998a019990920191600101610fe8565b82516001600160a01b0316865260209586019590920191600101610f9a565b60248c634e487b7160e01b81526021600452fd5b84546001600160a01b0316835260019485019488945060209093019201610e71565b503461011d57604036600319011261011d57600435602435906001600160a01b038216809203610d0157611113611e44565b808352600360205260ff600a6040852001541660048110156113385761114490600161113d611604565b911461163f565b829183845b8386526003602052600160408720015481101561132c5783865260036020526001600160a01b0361118082600160408a2001611cb3565b90549060031b1c16831461119657600101611149565b92935050506001925b6111e16040948551906111b28783611565565b600382527f3130340000000000000000000000000000000000000000000000000000000000602083015261163f565b82815260036020526111f882600686842001611cb3565b81549060031b9042821b91600019901b191617905582815260036020526004848220018054831015611318579061127c92918152602081208260051c01805460f88460031b169060ff6001831b921b19161790558381526003602052602060048683200186518095819263be26ece960e01b835284600484015260248301906116a1565b038173__$87180faec4dba5ff01f16b425dda1042d6$__5af492831561130c5790859181946112d2575b5090816112bd949560039352826020522001611cb3565b90549060031b1c825191151582526020820152f35b6112bd9450906112fc6003939260203d602011611305575b6112f48183611565565b810190611689565b945090916112a6565b503d6112ea565b508451903d90823e3d90fd5b602482634e487b7160e01b81526032600452fd5b5093905091909161119f565b602484634e487b7160e01b81526021600452fd5b503461011d57602036600319011261011d57600435611369611e44565b808252600360205260ff600a60408420015416600481101561143b5761139390600161113d611604565b80825260036020526113c86020600460408520016040518093819263be26ece960e01b835284600484015260248301906116a1565b038173__$87180faec4dba5ff01f16b425dda1042d6$__5af4908115611430578391611411575b5015610277578152600360205260408120600a01805460ff1916600217905580f35b61142a915060203d602011611305576112f48183611565565b386113ef565b6040513d85823e3d90fd5b602483634e487b7160e01b81526021600452fd5b600435906001600160a01b038216820361146557565b600080fd5b35906001600160a01b038216820361146557565b906020808351928381520192019060005b81811061149c5750505090565b825184526020938401939092019160010161148f565b919082519283825260005b8481106114de575050826000602080949584010152601f8019910116010190565b806020809284010151828286010152016114bd565b9060048210156115005752565b634e487b7160e01b600052602160045260246000fd5b610140810190811067ffffffffffffffff82111761153357604052565b634e487b7160e01b600052604160045260246000fd5b6040810190811067ffffffffffffffff82111761153357604052565b90601f8019910116810190811067ffffffffffffffff82111761153357604052565b67ffffffffffffffff81116115335760051b60200190565b81601f820112156114655780359067ffffffffffffffff821161153357604051926115d4601f8401601f191660200185611565565b8284526020838301011161146557816000926020809301838601378301015290565b359060ff8216820361146557565b60405190611613604083611565565b600382527f31303300000000000000000000000000000000000000000000000000000000006020830152565b156116475750565b611685906040519182917f08c379a00000000000000000000000000000000000000000000000000000000083526020600484015260248301906114b2565b0390fd5b90816020910312611465575180151581036114655790565b8054808352600091825260208083209301925b81601f840110611ad1575491818110611abb575b818110611aa2575b818110611a89575b818110611a70575b818110611a58575b818110611a3f575b818110611a26575b818110611a0d575b8181106119f4575b8181106119db575b8181106119c2575b8181106119a9575b818110611990575b818110611977575b81811061195e575b818110611945575b81811061192c575b818110611913575b8181106118fa575b8181106118e1575b8181106118c8575b8181106118af575b818110611896575b81811061187d575b818110611864575b81811061184b575b818110611832575b818110611819575b818110611800575b8181106117e7575b8181106117ce575b106117c1575090565b60f81c1515815260200190565b92602060019160ff8560f01c16151581520193016117b8565b92602060019160ff8560e81c16151581520193016117b0565b92602060019160ff8560e01c16151581520193016117a8565b92602060019160ff8560d81c16151581520193016117a0565b92602060019160ff8560d01c1615158152019301611798565b92602060019160ff8560c81c1615158152019301611790565b92602060019160ff8560c01c1615158152019301611788565b92602060019160ff8560b81c1615158152019301611780565b92602060019160ff8560b01c1615158152019301611778565b92602060019160ff8560a81c1615158152019301611770565b92602060019160ff8560a01c1615158152019301611768565b92602060019160ff8560981c1615158152019301611760565b92602060019160ff8560901c1615158152019301611758565b92602060019160ff8560881c1615158152019301611750565b92602060019160ff8560801c1615158152019301611748565b92602060019160ff8560781c1615158152019301611740565b92602060019160ff8560701c1615158152019301611738565b92602060019160ff8560681c1615158152019301611730565b92602060019160ff8560601c1615158152019301611728565b92602060019160ff8560581c1615158152019301611720565b92602060019160ff8560501c1615158152019301611718565b92602060019160ff8560481c1615158152019301611710565b92602060019160ff8560401c1615158152019301611708565b92602060019160ff8560381c1615158152019301611700565b92602060019160ff8560301c16151581520193016116f8565b92602060019160ff8560281c16151581520193016116f0565b92602060019160ff85831c16151581520193016116e8565b92602060019160ff8560181c16151581520193016116e0565b92602060019160ff8560101c16151581520193016116d8565b92602060019160ff8560081c16151581520193016116d0565b92602060019160ff8516151581520193016116c8565b926001610400602092865460ff81161515825260ff8160081c1615158583015260ff8160101c161515604083015260ff8160181c161515606083015260ff81861c161515608083015260ff8160281c16151560a083015260ff8160301c16151560c083015260ff8160381c16151560e083015260ff8160401c16151561010083015260ff8160481c16151561012083015260ff8160501c16151561014083015260ff8160581c16151561016083015260ff8160601c16151561018083015260ff8160681c1615156101a083015260ff8160701c1615156101c083015260ff8160781c1615156101e083015260ff8160801c16151561020083015260ff8160881c16151561022083015260ff8160901c16151561024083015260ff8160981c16151561026083015260ff8160a01c16151561028083015260ff8160a81c1615156102a083015260ff8160b01c1615156102c083015260ff8160b81c1615156102e083015260ff8160c01c16151561030083015260ff8160c81c16151561032083015260ff8160d01c16151561034083015260ff8160d81c16151561036083015260ff8160e01c16151561038083015260ff8160e81c1615156103a083015260ff8160f01c1615156103c083015260f81c15156103e08201520194019201916116b4565b8054821015611ccb5760005260206000200190600090565b634e487b7160e01b600052603260045260246000fd5b906040519182815491828252602082019060005260206000209260005b818110611d15575050611d1392500383611565565b565b8454835260019485019487945060209093019201611cfe565b90600182811c92168015611d5e575b6020831014611d4857565b634e487b7160e01b600052602260045260246000fd5b91607f1691611d3d565b9060405191826000825492611d7c84611d2e565b8084529360018116908115611de85750600114611da1575b50611d1392500383611565565b90506000929192526020600020906000915b818310611dcc575050906020611d139282010138611d94565b6020919350806001915483858901015201910190918492611db3565b905060209250611d1394915060ff191682840152151560051b82010138611d94565b818110611e15575050565b60008155600101611e0a565b91818110611e2e57505050565b611d139260005260206000209182019101611e0a565b6001600160a01b03600054163303611e5857565b7f118cdaa7000000000000000000000000000000000000000000000000000000006000523360045260246000fdfea264697066735822122030c68fda8503b3bfd028746ed8970afd920da42aa81185085d6a77c002d0735d64736f6c634300081c0033",
  "linkReferences": {
    "contracts/libs/BoolLib.sol": {
      "BoolLib": [
        {
          "length": 20,
          "start": 4973
        },
        {
          "length": 20,
          "start": 5305
        }
      ]
    },
    "contracts/libs/HashLib.sol": {
      "HashLib": [
        {
          "length": 20,
          "start": 1881
        }
      ]
    }
  },
  "deployedLinkReferences": {
    "contracts/libs/BoolLib.sol": {
      "BoolLib": [
        {
          "length": 20,
          "start": 4736
        },
        {
          "length": 20,
          "start": 5068
        }
      ]
    },
    "contracts/libs/HashLib.sol": {
      "HashLib": [
        {
          "length": 20,
          "start": 1644
        }
      ]
    }
  }
}