{
  "_format": "hh-sol-artifact-1",
  "contractName": "HashLib",
  "sourceName": "contracts/libs/HashLib.sol",
  "abi": [
    {
      "inputs": [
        {
          "internalType": "string",
          "name": "base",
          "type": "string"
        },
        {
          "internalType": "uint256",
          "name": "identifier",
          "type": "uint256"
        }
      ],
      "name": "generate",
      "outputs": [
        {
          "internalType": "bytes32",
          "name": "",
          "type": "bytes32"
        }
      ],
      "stateMutability": "pure",
      "type": "function"
    },
    {
      "inputs": [
        {
          "internalType": "string",
          "name": "base",
          "type": "string"
        },
        {
          "internalType": "address",
          "name": "user",
          "type": "address"
        },
        {
          "internalType": "uint256",
          "name": "identifier",
          "type": "uint256"
        }
      ],
      "name": "generateWithAddress",
      "outputs": [
        {
          "internalType": "bytes32",
          "name": "",
          "type": "bytes32"
        }
      ],
      "stateMutability": "pure",
      "type": "function"
    }
  ],
  "bytecode": "0x60808060405234601957610207908161001f823930815050f35b600080fdfe608080604052600436101561001357600080fd5b60003560e01c90816320bed604146100d1575063d3d175221461003557600080fd5b60603660031901126100cc5760043567ffffffffffffffff81116100cc57610061903690600401610131565b6024359173ffffffffffffffffffffffffffffffffffffffff83168093036100cc576100c16100a5916020946040519384928784019660608852608085019161015f565b906040830152604435606083015203601f198101835282610180565b519020604051908152f35b600080fd5b60403660031901126100cc5760043567ffffffffffffffff81116100cc57816100c160209361010761011b943690600401610131565b94908683019560408752606084019161015f565b602435604083015203601f198101835282610180565b9181601f840112156100cc5782359167ffffffffffffffff83116100cc57602083818601950101116100cc57565b908060209392818452848401376000828201840152601f01601f1916010190565b90601f8019910116810190811067ffffffffffffffff8211176101a257604052565b7f4e487b7100000000000000000000000000000000000000000000000000000000600052604160045260246000fdfea26469706673582212203638b0d8a65f4ca347fe7558151a17a8017011b52ac3641b4f08503d484f6c3064736f6c634300081c0033",
  "linkReferences": {},
  "deployedLinkReferences": {}
}