{
  "_format": "hh-sol-artifact-1",
  "contractName": "BoolLib",
  "sourceName": "contracts/libs/BoolLib.sol",
  "abi": [
    {
      "inputs": [
        {
          "internalType": "bool[]",
          "name": "value",
          "type": "bool[]"
        }
      ],
      "name": "every",
      "outputs": [
        {
          "internalType": "bool",
          "name": "",
          "type": "bool"
        }
      ],
      "stateMutability": "pure",
      "type": "function"
    },
    {
      "inputs": [
        {
          "internalType": "bool[]",
          "name": "value",
          "type": "bool[]"
        }
      ],
      "name": "none",
      "outputs": [
        {
          "internalType": "bool",
          "name": "",
          "type": "bool"
        }
      ],
      "stateMutability": "pure",
      "type": "function"
    }
  ],
  "bytecode": "0x608080604052346019576101a5908161001f823930815050f35b600080fdfe6080604052600436101561001257600080fd5b60003560e01c8063875d1de1146100505763be26ece91461003257600080fd5b602061004661004036610064565b90610142565b6040519015158152f35b602061004661005e36610064565b90610109565b9060206003198301126100b85760043567ffffffffffffffff81116100b857826023820112156100b85780600401359267ffffffffffffffff84116100b85760248460051b830101116100b8576024019190565b600080fd5b91908110156100cd5760051b0190565b7f4e487b7100000000000000000000000000000000000000000000000000000000600052603260045260246000fd5b3580151581036100b85790565b60005b82811061011b57505050600190565b61012e6101298285856100bd565b6100fc565b61013a5760010161010c565b505050600090565b60005b82811061015457505050600190565b6101626101298285856100bd565b1561013a5760010161014556fea2646970667358221220a62628755afa0935eac9f43fc245dd7e604a1cba041375716b924ab43b64574e64736f6c634300081c0033",
  "linkReferences": {},
  "deployedLinkReferences": {}
}