{
  "_format": "hh-sol-artifact-1",
  "contractName": "Receipt",
  "sourceName": "contracts/modules/Receipt.sol",
  "abi": [
    {
      "inputs": [
        {
          "internalType": "string",
          "name": "baseURI_",
          "type": "string"
        }
      ],
      "stateMutability": "nonpayable",
      "type": "constructor"
    },
    {
      "inputs": [
        {
          "internalType": "address",
          "name": "sender",
          "type": "address"
        },
        {
          "internalType": "uint256",
          "name": "tokenId",
          "type": "uint256"
        },
        {
          "internalType": "address",
          "name": "owner",
          "type": "address"
        }
      ],
      "name": "ERC721IncorrectOwner",
      "type": "error"
    },
    {
      "inputs": [
        {
          "internalType": "address",
          "name": "operator",
          "type": "address"
        },
        {
          "internalType": "uint256",
          "name": "tokenId",
          "type": "uint256"
        }
      ],
      "name": "ERC721InsufficientApproval",
      "type": "error"
    },
    {
      "inputs": [
        {
          "internalType": "address",
          "name": "approver",
          "type": "address"
        }
      ],
      "name": "ERC721InvalidApprover",
      "type": "error"
    },
    {
      "inputs": [
        {
          "internalType": "address",
          "name": "operator",
          "type": "address"
        }
      ],
      "name": "ERC721InvalidOperator",
      "type": "error"
    },
    {
      "inputs": [
        {
          "internalType": "address",
          "name": "owner",
          "type": "address"
        }
      ],
      "name": "ERC721InvalidOwner",
      "type": "error"
    },
    {
      "inputs": [
        {
          "internalType": "address",
          "name": "receiver",
          "type": "address"
        }
      ],
      "name": "ERC721InvalidReceiver",
      "type": "error"
    },
    {
      "inputs": [
        {
          "internalType": "address",
          "name": "sender",
          "type": "address"
        }
      ],
      "name": "ERC721InvalidSender",
      "type": "error"
    },
    {
      "inputs": [
        {
          "internalType": "uint256",
          "name": "tokenId",
          "type": "uint256"
        }
      ],
      "name": "ERC721NonexistentToken",
      "type": "error"
    },
    {
      "inputs": [
        {
          "internalType": "address",
          "name": "owner",
          "type": "address"
        }
      ],
      "name": "OwnableInvalidOwner",
      "type": "error"
    },
    {
      "inputs": [
        {
          "internalType": "address",
          "name": "account",
          "type": "address"
        }
      ],
      "name": "OwnableUnauthorizedAccount",
      "type": "error"
    },
    {
      "anonymous": false,
      "inputs": [
        {
          "indexed": true,
          "internalType": "address",
          "name": "owner",
          "type": "address"
        },
        {
          "indexed": true,
          "internalType": "address",
          "name": "approved",
          "type": "address"
        },
        {
          "indexed": true,
          "internalType": "uint256",
          "name": "tokenId",
          "type": "uint256"
        }
      ],
      "name": "Approval",
      "type": "event"
    },
    {
      "anonymous": false,
      "inputs": [
        {
          "indexed": true,
          "internalType": "address",
          "name": "owner",
          "type": "address"
        },
        {
          "indexed": true,
          "internalType": "address",
          "name": "operator",
          "type": "address"
        },
        {
          "indexed": false,
          "internalType": "bool",
          "name": "approved",
          "type": "bool"
        }
      ],
      "name": "ApprovalForAll",
      "type": "event"
    },
    {
      "anonymous": false,
      "inputs": [
        {
          "indexed": true,
          "internalType": "address",
          "name": "previousOwner",
          "type": "address"
        },
        {
          "indexed": true,
          "internalType": "address",
          "name": "newOwner",
          "type": "address"
        }
      ],
      "name": "OwnershipTransferred",
      "type": "event"
    },
    {
      "anonymous": false,
      "inputs": [
        {
          "indexed": true,
          "internalType": "address",
          "name": "to",
          "type": "address"
        },
        {
          "indexed": false,
          "internalType": "uint256",
          "name": "tokenId",
          "type": "uint256"
        },
        {
          "indexed": false,
          "internalType": "bytes32",
          "name": "transactionId",
          "type": "bytes32"
        }
      ],
      "name": "ReceiptMinted",
      "type": "event"
    },
    {
      "anonymous": false,
      "inputs": [
        {
          "indexed": true,
          "internalType": "address",
          "name": "from",
          "type": "address"
        },
        {
          "indexed": true,
          "internalType": "address",
          "name": "to",
          "type": "address"
        },
        {
          "indexed": true,
          "internalType": "uint256",
          "name": "tokenId",
          "type": "uint256"
        }
      ],
      "name": "Transfer",
      "type": "event"
    },
    {
      "inputs": [
        {
          "internalType": "address",
          "name": "to",
          "type": "address"
        },
        {
          "internalType": "uint256",
          "name": "tokenId",
          "type": "uint256"
        }
      ],
      "name": "approve",
      "outputs": [],
      "stateMutability": "nonpayable",
      "type": "function"
    },
    {
      "inputs": [
        {
          "internalType": "address",
          "name": "owner",
          "type": "address"
        }
      ],
      "name": "balanceOf",
      "outputs": [
        {
          "internalType": "uint256",
          "name": "",
          "type": "uint256"
        }
      ],
      "stateMutability": "view",
      "type": "function"
    },
    {
      "inputs": [],
      "name": "baseURI",
      "outputs": [
        {
          "internalType": "string",
          "name": "",
          "type": "string"
        }
      ],
      "stateMutability": "view",
      "type": "function"
    },
    {
      "inputs": [
        {
          "internalType": "uint256",
          "name": "tokenId",
          "type": "uint256"
        }
      ],
      "name": "getApproved",
      "outputs": [
        {
          "internalType": "address",
          "name": "",
          "type": "address"
        }
      ],
      "stateMutability": "view",
      "type": "function"
    },
    {
      "inputs": [
        {
          "internalType": "address",
          "name": "owner",
          "type": "address"
        },
        {
          "internalType": "address",
          "name": "operator",
          "type": "address"
        }
      ],
      "name": "isApprovedForAll",
      "outputs": [
        {
          "internalType": "bool",
          "name": "",
          "type": "bool"
        }
      ],
      "stateMutability": "view",
      "type": "function"
    },
    {
      "inputs": [
        {
          "components": [
            {
              "internalType": "address",
              "name": "to",
              "type": "address"
            },
            {
              "internalType": "bytes32",
              "name": "transactionId",
              "type": "bytes32"
            },
            {
              "internalType": "string",
              "name": "URI",
              "type": "string"
            }
          ],
          "internalType": "struct Params.MintReceipt",
          "name": "params",
          "type": "tuple"
        }
      ],
      "name": "mint",
      "outputs": [],
      "stateMutability": "nonpayable",
      "type": "function"
    },
    {
      "inputs": [],
      "name": "name",
      "outputs": [
        {
          "internalType": "string",
          "name": "",
          "type": "string"
        }
      ],
      "stateMutability": "view",
      "type": "function"
    },
    {
      "inputs": [],
      "name": "owner",
      "outputs": [
        {
          "internalType": "address",
          "name": "",
          "type": "address"
        }
      ],
      "stateMutability": "view",
      "type": "function"
    },
    {
      "inputs": [
        {
          "internalType": "uint256",
          "name": "tokenId",
          "type": "uint256"
        }
      ],
      "name": "ownerOf",
      "outputs": [
        {
          "internalType": "address",
          "name": "",
          "type": "address"
        }
      ],
      "stateMutability": "view",
      "type": "function"
    },
    {
      "inputs": [],
      "name": "renounceOwnership",
      "outputs": [],
      "stateMutability": "nonpayable",
      "type": "function"
    },
    {
      "inputs": [
        {
          "internalType": "address",
          "name": "from",
          "type": "address"
        },
        {
          "internalType": "address",
          "name": "to",
          "type": "address"
        },
        {
          "internalType": "uint256",
          "name": "tokenId",
          "type": "uint256"
        }
      ],
      "name": "safeTransferFrom",
      "outputs": [],
      "stateMutability": "nonpayable",
      "type": "function"
    },
    {
      "inputs": [
        {
          "internalType": "address",
          "name": "from",
          "type": "address"
        },
        {
          "internalType": "address",
          "name": "to",
          "type": "address"
        },
        {
          "internalType": "uint256",
          "name": "tokenId",
          "type": "uint256"
        },
        {
          "internalType": "bytes",
          "name": "data",
          "type": "bytes"
        }
      ],
      "name": "safeTransferFrom",
      "outputs": [],
      "stateMutability": "nonpayable",
      "type": "function"
    },
    {
      "inputs": [
        {
          "internalType": "address",
          "name": "operator",
          "type": "address"
        },
        {
          "internalType": "bool",
          "name": "approved",
          "type": "bool"
        }
      ],
      "name": "setApprovalForAll",
      "outputs": [],
      "stateMutability": "nonpayable",
      "type": "function"
    },
    {
      "inputs": [
        {
          "internalType": "bytes4",
          "name": "interfaceId",
          "type": "bytes4"
        }
      ],
      "name": "supportsInterface",
      "outputs": [
        {
          "internalType": "bool",
          "name": "",
          "type": "bool"
        }
      ],
      "stateMutability": "view",
      "type": "function"
    },
    {
      "inputs": [],
      "name": "symbol",
      "outputs": [
        {
          "internalType": "string",
          "name": "",
          "type": "string"
        }
      ],
      "stateMutability": "view",
      "type": "function"
    },
    {
      "inputs": [
        {
          "internalType": "uint256",
          "name": "tokenId",
          "type": "uint256"
        }
      ],
      "name": "tokenURI",
      "outputs": [
        {
          "internalType": "string",
          "name": "",
          "type": "string"
        }
      ],
      "stateMutability": "view",
      "type": "function"
    },
    {
      "inputs": [
        {
          "internalType": "address",
          "name": "from",
          "type": "address"
        },
        {
          "internalType": "address",
          "name": "to",
          "type": "address"
        },
        {
          "internalType": "uint256",
          "name": "tokenId",
          "type": "uint256"
        }
      ],
      "name": "transferFrom",
      "outputs": [],
      "stateMutability": "nonpayable",
      "type": "function"
    },
    {
      "inputs": [
        {
          "internalType": "address",
          "name": "newOwner",
          "type": "address"
        }
      ],
      "name": "transferOwnership",
      "outputs": [],
      "stateMutability": "nonpayable",
      "type": "function"
    }
  ],
  "bytecode": "0x608060405234610549576117d1803803806100198161054e565b928339810190602081830312610549578051906001600160401b038211610549570181601f82011215610549578051906001600160401b0382116103485761006a601f8301601f191660200161054e565b92828452602083830101116105495760005b828110610534578360006020858301015260406100988161054e565b91600c83526b1099585b48149958d95a5c1d60a21b60208401526100bb8261054e565b6005815264109354941560da1b602082015283519092906001600160401b03811161034857600054600181811c9116801561052a575b602082101461032857601f81116104c6575b50602094601f821160011461046057948192939495600092610455575b50508160011b916000199060031b1c1916176000555b82516001600160401b03811161034857600154600181811c9116801561044b575b602082101461032857601f81116103e6575b506020601f821160011461037f5781929394600092610374575b50508160011b916000199060031b1c1916176001555b331561035e5760068054336001600160a01b0319821681179092556001600160a01b03167f8be0079c531659141344cd1fd0a4f28419497f9722a3daafe3b4186f6b6457e0600080a381516001600160401b03811161034857600754600181811c9116801561033e575b602082101461032857601f81116102c3575b50602092601f821160011461025e5792819293600092610253575b50508160011b916000199060031b1c1916176007555b5161125d90816105748239f35b015190508380610230565b601f198216936007600052806000209160005b8681106102ab5750836001959610610292575b505050811b01600755610246565b015160001960f88460031b161c19169055838080610284565b91926020600181928685015181550194019201610271565b60076000527fa66cc928b5edb82af9bd49922954155ab7b0942694bea4ce44661d9a8736c688601f830160051c8101916020841061031e575b601f0160051c01905b8181106103125750610215565b60008155600101610305565b90915081906102fc565b634e487b7160e01b600052602260045260246000fd5b90607f1690610203565b634e487b7160e01b600052604160045260246000fd5b631e4fbdf760e01b600052600060045260246000fd5b015190508480610183565b601f198216906001600052806000209160005b8181106103ce575095836001959697106103b5575b505050811b01600155610199565b015160001960f88460031b161c191690558480806103a7565b9192602060018192868b015181550194019201610392565b60016000527fb10e2d527612073b26eecdfd717e6a320cf44b4afac2b0732d9fcbe2b7fa0cf6601f830160051c81019160208410610441575b601f0160051c01905b8181106104355750610169565b60008155600101610428565b909150819061041f565b90607f1690610157565b015190508580610120565b601f1982169560008052806000209160005b8881106104ae57508360019596979810610495575b505050811b01600055610136565b015160001960f88460031b161c19169055858080610487565b91926020600181928685015181550194019201610472565b600080527f290decd9548b62a8d60345a988386fc84ba6bc95484008f6362f93160ef3e563601f830160051c81019160208410610520575b601f0160051c01905b8181106105145750610103565b60008155600101610507565b90915081906104fe565b90607f16906100f1565b8060208092840101518282870101520161007c565b600080fd5b6040519190601f01601f191682016001600160401b038111838210176103485760405256fe608080604052600436101561001357600080fd5b60003560e01c90816301ffc9a714610c425750806306fdde0314610b9d578063081812fc14610b5e578063095ea7b314610a4f57806323b872dd14610a3857806342842e0e14610a0e5780636352211e146109df5780636c0360eb1461093757806370a08231146108c8578063715018a61461086d5780638da5cb5b1461084657806395d89b4114610779578063a22cb465146106bf578063b88d4fde1461065d578063c87b56dd14610581578063cab72365146101e9578063e985e9c51461018c5763f2fde38b146100e557600080fd5b34610187576020366003190112610187576001600160a01b03610106610d52565b61010e6111e5565b168015610158576001600160a01b03600654826001600160a01b0319821617600655167f8be0079c531659141344cd1fd0a4f28419497f9722a3daafe3b4186f6b6457e0600080a3005b7f1e4fbdf700000000000000000000000000000000000000000000000000000000600052600060045260246000fd5b600080fd5b34610187576040366003190112610187576101a5610d52565b6001600160a01b036101b5610d68565b911660005260056020526001600160a01b0360406000209116600052602052602060ff604060002054166040519015158152f35b346101875760203660031901126101875760043567ffffffffffffffff8111610187576060600319823603011261018757604051906060820182811067ffffffffffffffff8211176104d65760405280600401356001600160a01b038116810361018757825260208201906024810135825260448101359067ffffffffffffffff821161018757013660238201121561018757610290903690602460048201359101610df6565b6040830190815261029f6111e5565b6008546001810180911161056b57806008556001600160a01b0384511680156105555760009180835260026020526001600160a01b0360408420541691827fddf252ad1be2c89b69c2b068fc378daa952ba7f163c4a11628f55a4df523b3ef811515958661051b575b838152600360205260408120600181540190558481526002602052604081206001600160a01b0385166001600160a01b031982541617905580a4506104ec57519160085460005260096020526040600020835167ffffffffffffffff81116104d6576103748254610e2d565b601f811161048e575b506020601f82116001146103fa579181604094926001600160a01b03947fcf56fb85b778fed39213679777369b9dadb3455c07cfda36549140f432b7e04c97986000926103ef575b50508160011b916000199060031b1c19161790555b511692600854905182519182526020820152a2005b0151905088806103c5565b601f1982169583600052816000209660005b8181106104765750927fcf56fb85b778fed39213679777369b9dadb3455c07cfda36549140f432b7e04c96976001600160a01b03959360019383604099971061045d575b505050811b0190556103da565b015160001960f88460031b161c19169055888080610450565b8383015189556001909801976020938401930161040c565b826000526020600020601f830160051c810191602084106104cc575b601f0160051c01905b8181106104c0575061037d565b600081556001016104b3565b90915081906104aa565b634e487b7160e01b600052604160045260246000fd5b7f73c6ac6e00000000000000000000000000000000000000000000000000000000600052600060045260246000fd5b61053c85600052600460205260406000206001600160a01b03198154169055565b8281526003602052604081208054600019019055610308565b633250574960e11b600052600060045260246000fd5b634e487b7160e01b600052601160045260246000fd5b346101875760203660031901126101875760043560005260096020526040600020604051906000908054906105b582610e2d565b808552916001811690811561063657506001146105f5575b6105f1846105dd81860382610db8565b604051918291602083526020830190610d11565b0390f35b600090815260208120939250905b80821061061c575090915081016020016105dd826105cd565b919260018160209254838588010152019101909291610603565b60ff191660208087019190915292151560051b850190920192506105dd91508390506105cd565b3461018757608036600319011261018757610676610d52565b61067e610d68565b6064359167ffffffffffffffff83116101875736602384011215610187576106b36106bd933690602481600401359101610df6565b9160443591611035565b005b34610187576040366003190112610187576106d8610d52565b60243590811515809203610187576001600160a01b031690811561074b57336000526005602052604060002082600052602052604060002060ff1981541660ff83161790556040519081527f17307eab39ab6107e8899845ad3d59bd9653f200f220920489ca2b5937696c3160203392a3005b507f5b08ba180000000000000000000000000000000000000000000000000000000060005260045260246000fd5b3461018757600036600319011261018757604051600060015461079b81610e2d565b808452906001811690811561082257506001146107c3575b6105f1836105dd81850382610db8565b600160009081527fb10e2d527612073b26eecdfd717e6a320cf44b4afac2b0732d9fcbe2b7fa0cf6939250905b808210610808575090915081016020016105dd6107b3565b9192600181602092548385880101520191019092916107f0565b60ff191660208086019190915291151560051b840190910191506105dd90506107b3565b346101875760003660031901126101875760206001600160a01b0360065416604051908152f35b34610187576000366003190112610187576108866111e5565b60006001600160a01b036006546001600160a01b03198116600655167f8be0079c531659141344cd1fd0a4f28419497f9722a3daafe3b4186f6b6457e08280a3005b34610187576020366003190112610187576001600160a01b036108e9610d52565b1680156109085760005260036020526020604060002054604051908152f35b7f89c62b6400000000000000000000000000000000000000000000000000000000600052600060045260246000fd5b3461018757600036600319011261018757604051600060075461095981610e2d565b80845290600181169081156108225750600114610980576105f1836105dd81850382610db8565b600760009081527fa66cc928b5edb82af9bd49922954155ab7b0942694bea4ce44661d9a8736c688939250905b8082106109c5575090915081016020016105dd6107b3565b9192600181602092548385880101520191019092916109ad565b346101875760203660031901126101875760206109fd6004356111ae565b6001600160a01b0360405191168152f35b34610187576106bd610a1f36610d7e565b9060405192610a2f602085610db8565b60008452611035565b34610187576106bd610a4936610d7e565b91610e67565b3461018757604036600319011261018757610a68610d52565b602435610a74816111ae565b33151580610b4b575b80610b14575b610ae65781906001600160a01b0380851691167f8c5be1e5ebec7d5bd14f71427d1e84f3dd0314c0f7b2291e5b200ac8c7c3b925600080a460005260046020526001600160a01b03604060002091166001600160a01b0319825416179055600080f35b7fa9fbf51f000000000000000000000000000000000000000000000000000000006000523360045260246000fd5b506001600160a01b038116600052600560205260406000206001600160a01b03331660005260205260ff6040600020541615610a83565b50336001600160a01b0382161415610a7d565b3461018757602036600319011261018757600435610b7b816111ae565b50600052600460205260206001600160a01b0360406000205416604051908152f35b346101875760003660031901126101875760405160008054610bbe81610e2d565b80845290600181169081156108225750600114610be5576105f1836105dd81850382610db8565b60008080527f290decd9548b62a8d60345a988386fc84ba6bc95484008f6362f93160ef3e563939250905b808210610c28575090915081016020016105dd6107b3565b919260018160209254838588010152019101909291610c10565b3461018757602036600319011261018757600435907fffffffff00000000000000000000000000000000000000000000000000000000821680920361018757817f80ac58cd0000000000000000000000000000000000000000000000000000000060209314908115610ce7575b8115610cbd575b5015158152f35b7f01ffc9a70000000000000000000000000000000000000000000000000000000091501483610cb6565b7f5b5e139f0000000000000000000000000000000000000000000000000000000081149150610caf565b919082519283825260005b848110610d3d575050826000602080949584010152601f8019910116010190565b80602080928401015182828601015201610d1c565b600435906001600160a01b038216820361018757565b602435906001600160a01b038216820361018757565b6060906003190112610187576004356001600160a01b038116810361018757906024356001600160a01b0381168103610187579060443590565b90601f8019910116810190811067ffffffffffffffff8211176104d657604052565b67ffffffffffffffff81116104d657601f01601f191660200190565b929192610e0282610dda565b91610e106040519384610db8565b829481845281830111610187578281602093846000960137010152565b90600182811c92168015610e5d575b6020831014610e4757565b634e487b7160e01b600052602260045260246000fd5b91607f1691610e3c565b91906001600160a01b0316918215610555576000908282526002602052826001600160a01b03604084205416948533151580610f7a575b507fddf252ad1be2c89b69c2b068fc378daa952ba7f163c4a11628f55a4df523b3ef6001600160a01b039582610f40575b83815260036020526040812060018154019055848152600260205260408120846001600160a01b031982541617905580a416808303610f0d57505050565b7f64283d7b0000000000000000000000000000000000000000000000000000000060005260045260245260445260646000fd5b610f6185600052600460205260406000206001600160a01b03198154169055565b8281526003602052604081208054600019019055610ecf565b91939492505080610fde575b15610f9657919083908538610e9e565b839085610faf57602491637e27328960e01b8252600452fd5b6044917f177e802f00000000000000000000000000000000000000000000000000000000825233600452602452fd5b50338514801561100c575b80610f8657508381526004602052336001600160a01b0360408320541614610f86565b508481526005602052604081206001600160a01b033316825260205260ff604082205416610fe9565b90611041838284610e67565b803b61104e575b50505050565b6020916110946001600160a01b03809316956040519586948594630a85bd0160e11b86523360048701521660248501526044840152608060648401526084830190610d11565b03816000865af1809160009161114c575b50906110fe57503d156110f7573d6110bc81610dda565b906110ca6040519283610db8565b81523d6000602083013e5b805190816110f25782633250574960e11b60005260045260246000fd5b602001fd5b60606110d5565b7fffffffff00000000000000000000000000000000000000000000000000000000630a85bd0160e11b911603611138575038808080611048565b633250574960e11b60005260045260246000fd5b6020813d6020116111a6575b8161116560209383610db8565b810103126111a25751907fffffffff000000000000000000000000000000000000000000000000000000008216820361119f5750386110a5565b80fd5b5080fd5b3d9150611158565b8060005260026020526001600160a01b03604060002054169081156111d1575090565b637e27328960e01b60005260045260246000fd5b6001600160a01b036006541633036111f957565b7f118cdaa7000000000000000000000000000000000000000000000000000000006000523360045260246000fdfea264697066735822122015c8abf65a0aa756004efc878c9502e3aa7d3176475af421c58f2f0c1e75fe5a64736f6c634300081c0033",
  "linkReferences": {},
  "deployedLinkReferences": {}
}