{
  "_format": "hh-sol-artifact-1",
  "contractName": "Receipt",
  "sourceName": "contracts/modules/Receipt.sol",
  "abi": [
    {
      "inputs": [
        {
          "internalType": "string",
          "name": "baseURI_",
          "type": "string"
        },
        {
          "internalType": "address",
          "name": "CONTROLLER",
          "type": "address"
        }
      ],
      "stateMutability": "nonpayable",
      "type": "constructor"
    },
    {
      "inputs": [],
      "name": "AccessControlBadConfirmation",
      "type": "error"
    },
    {
      "inputs": [
        {
          "internalType": "address",
          "name": "account",
          "type": "address"
        },
        {
          "internalType": "bytes32",
          "name": "neededRole",
          "type": "bytes32"
        }
      ],
      "name": "AccessControlUnauthorizedAccount",
      "type": "error"
    },
    {
      "inputs": [
        {
          "internalType": "address",
          "name": "sender",
          "type": "address"
        },
        {
          "internalType": "uint256",
          "name": "tokenId",
          "type": "uint256"
        },
        {
          "internalType": "address",
          "name": "owner",
          "type": "address"
        }
      ],
      "name": "ERC721IncorrectOwner",
      "type": "error"
    },
    {
      "inputs": [
        {
          "internalType": "address",
          "name": "operator",
          "type": "address"
        },
        {
          "internalType": "uint256",
          "name": "tokenId",
          "type": "uint256"
        }
      ],
      "name": "ERC721InsufficientApproval",
      "type": "error"
    },
    {
      "inputs": [
        {
          "internalType": "address",
          "name": "approver",
          "type": "address"
        }
      ],
      "name": "ERC721InvalidApprover",
      "type": "error"
    },
    {
      "inputs": [
        {
          "internalType": "address",
          "name": "operator",
          "type": "address"
        }
      ],
      "name": "ERC721InvalidOperator",
      "type": "error"
    },
    {
      "inputs": [
        {
          "internalType": "address",
          "name": "owner",
          "type": "address"
        }
      ],
      "name": "ERC721InvalidOwner",
      "type": "error"
    },
    {
      "inputs": [
        {
          "internalType": "address",
          "name": "receiver",
          "type": "address"
        }
      ],
      "name": "ERC721InvalidReceiver",
      "type": "error"
    },
    {
      "inputs": [
        {
          "internalType": "address",
          "name": "sender",
          "type": "address"
        }
      ],
      "name": "ERC721InvalidSender",
      "type": "error"
    },
    {
      "inputs": [
        {
          "internalType": "uint256",
          "name": "tokenId",
          "type": "uint256"
        }
      ],
      "name": "ERC721NonexistentToken",
      "type": "error"
    },
    {
      "anonymous": false,
      "inputs": [
        {
          "indexed": true,
          "internalType": "address",
          "name": "owner",
          "type": "address"
        },
        {
          "indexed": true,
          "internalType": "address",
          "name": "approved",
          "type": "address"
        },
        {
          "indexed": true,
          "internalType": "uint256",
          "name": "tokenId",
          "type": "uint256"
        }
      ],
      "name": "Approval",
      "type": "event"
    },
    {
      "anonymous": false,
      "inputs": [
        {
          "indexed": true,
          "internalType": "address",
          "name": "owner",
          "type": "address"
        },
        {
          "indexed": true,
          "internalType": "address",
          "name": "operator",
          "type": "address"
        },
        {
          "indexed": false,
          "internalType": "bool",
          "name": "approved",
          "type": "bool"
        }
      ],
      "name": "ApprovalForAll",
      "type": "event"
    },
    {
      "anonymous": false,
      "inputs": [
        {
          "indexed": true,
          "internalType": "address",
          "name": "to",
          "type": "address"
        },
        {
          "indexed": false,
          "internalType": "uint256",
          "name": "tokenId",
          "type": "uint256"
        },
        {
          "indexed": false,
          "internalType": "bytes32",
          "name": "transactionId",
          "type": "bytes32"
        }
      ],
      "name": "ReceiptMinted",
      "type": "event"
    },
    {
      "anonymous": false,
      "inputs": [
        {
          "indexed": true,
          "internalType": "bytes32",
          "name": "role",
          "type": "bytes32"
        },
        {
          "indexed": true,
          "internalType": "bytes32",
          "name": "previousAdminRole",
          "type": "bytes32"
        },
        {
          "indexed": true,
          "internalType": "bytes32",
          "name": "newAdminRole",
          "type": "bytes32"
        }
      ],
      "name": "RoleAdminChanged",
      "type": "event"
    },
    {
      "anonymous": false,
      "inputs": [
        {
          "indexed": true,
          "internalType": "bytes32",
          "name": "role",
          "type": "bytes32"
        },
        {
          "indexed": true,
          "internalType": "address",
          "name": "account",
          "type": "address"
        },
        {
          "indexed": true,
          "internalType": "address",
          "name": "sender",
          "type": "address"
        }
      ],
      "name": "RoleGranted",
      "type": "event"
    },
    {
      "anonymous": false,
      "inputs": [
        {
          "indexed": true,
          "internalType": "bytes32",
          "name": "role",
          "type": "bytes32"
        },
        {
          "indexed": true,
          "internalType": "address",
          "name": "account",
          "type": "address"
        },
        {
          "indexed": true,
          "internalType": "address",
          "name": "sender",
          "type": "address"
        }
      ],
      "name": "RoleRevoked",
      "type": "event"
    },
    {
      "anonymous": false,
      "inputs": [
        {
          "indexed": true,
          "internalType": "address",
          "name": "from",
          "type": "address"
        },
        {
          "indexed": true,
          "internalType": "address",
          "name": "to",
          "type": "address"
        },
        {
          "indexed": true,
          "internalType": "uint256",
          "name": "tokenId",
          "type": "uint256"
        }
      ],
      "name": "Transfer",
      "type": "event"
    },
    {
      "inputs": [],
      "name": "DEFAULT_ADMIN_ROLE",
      "outputs": [
        {
          "internalType": "bytes32",
          "name": "",
          "type": "bytes32"
        }
      ],
      "stateMutability": "view",
      "type": "function"
    },
    {
      "inputs": [],
      "name": "MINTER_ROLE",
      "outputs": [
        {
          "internalType": "bytes32",
          "name": "",
          "type": "bytes32"
        }
      ],
      "stateMutability": "view",
      "type": "function"
    },
    {
      "inputs": [
        {
          "internalType": "address",
          "name": "to",
          "type": "address"
        },
        {
          "internalType": "uint256",
          "name": "tokenId",
          "type": "uint256"
        }
      ],
      "name": "approve",
      "outputs": [],
      "stateMutability": "nonpayable",
      "type": "function"
    },
    {
      "inputs": [
        {
          "internalType": "address",
          "name": "owner",
          "type": "address"
        }
      ],
      "name": "balanceOf",
      "outputs": [
        {
          "internalType": "uint256",
          "name": "",
          "type": "uint256"
        }
      ],
      "stateMutability": "view",
      "type": "function"
    },
    {
      "inputs": [],
      "name": "baseURI",
      "outputs": [
        {
          "internalType": "string",
          "name": "",
          "type": "string"
        }
      ],
      "stateMutability": "view",
      "type": "function"
    },
    {
      "inputs": [
        {
          "internalType": "uint256",
          "name": "tokenId",
          "type": "uint256"
        }
      ],
      "name": "getApproved",
      "outputs": [
        {
          "internalType": "address",
          "name": "",
          "type": "address"
        }
      ],
      "stateMutability": "view",
      "type": "function"
    },
    {
      "inputs": [
        {
          "internalType": "bytes32",
          "name": "role",
          "type": "bytes32"
        }
      ],
      "name": "getRoleAdmin",
      "outputs": [
        {
          "internalType": "bytes32",
          "name": "",
          "type": "bytes32"
        }
      ],
      "stateMutability": "view",
      "type": "function"
    },
    {
      "inputs": [
        {
          "internalType": "bytes32",
          "name": "role",
          "type": "bytes32"
        },
        {
          "internalType": "address",
          "name": "account",
          "type": "address"
        }
      ],
      "name": "grantRole",
      "outputs": [],
      "stateMutability": "nonpayable",
      "type": "function"
    },
    {
      "inputs": [
        {
          "internalType": "address",
          "name": "account",
          "type": "address"
        },
        {
          "internalType": "bytes32",
          "name": "role",
          "type": "bytes32"
        }
      ],
      "name": "grantRole",
      "outputs": [],
      "stateMutability": "nonpayable",
      "type": "function"
    },
    {
      "inputs": [
        {
          "internalType": "bytes32",
          "name": "role",
          "type": "bytes32"
        },
        {
          "internalType": "address",
          "name": "account",
          "type": "address"
        }
      ],
      "name": "hasRole",
      "outputs": [
        {
          "internalType": "bool",
          "name": "",
          "type": "bool"
        }
      ],
      "stateMutability": "view",
      "type": "function"
    },
    {
      "inputs": [
        {
          "internalType": "address",
          "name": "owner",
          "type": "address"
        },
        {
          "internalType": "address",
          "name": "operator",
          "type": "address"
        }
      ],
      "name": "isApprovedForAll",
      "outputs": [
        {
          "internalType": "bool",
          "name": "",
          "type": "bool"
        }
      ],
      "stateMutability": "view",
      "type": "function"
    },
    {
      "inputs": [
        {
          "components": [
            {
              "internalType": "address",
              "name": "to",
              "type": "address"
            },
            {
              "internalType": "bytes32",
              "name": "transactionId",
              "type": "bytes32"
            },
            {
              "internalType": "string",
              "name": "URI",
              "type": "string"
            }
          ],
          "internalType": "struct Params.MintReceipt",
          "name": "params",
          "type": "tuple"
        }
      ],
      "name": "mint",
      "outputs": [],
      "stateMutability": "nonpayable",
      "type": "function"
    },
    {
      "inputs": [],
      "name": "name",
      "outputs": [
        {
          "internalType": "string",
          "name": "",
          "type": "string"
        }
      ],
      "stateMutability": "view",
      "type": "function"
    },
    {
      "inputs": [
        {
          "internalType": "uint256",
          "name": "tokenId",
          "type": "uint256"
        }
      ],
      "name": "ownerOf",
      "outputs": [
        {
          "internalType": "address",
          "name": "",
          "type": "address"
        }
      ],
      "stateMutability": "view",
      "type": "function"
    },
    {
      "inputs": [
        {
          "internalType": "bytes32",
          "name": "role",
          "type": "bytes32"
        },
        {
          "internalType": "address",
          "name": "callerConfirmation",
          "type": "address"
        }
      ],
      "name": "renounceRole",
      "outputs": [],
      "stateMutability": "nonpayable",
      "type": "function"
    },
    {
      "inputs": [
        {
          "internalType": "bytes32",
          "name": "role",
          "type": "bytes32"
        },
        {
          "internalType": "address",
          "name": "account",
          "type": "address"
        }
      ],
      "name": "revokeRole",
      "outputs": [],
      "stateMutability": "nonpayable",
      "type": "function"
    },
    {
      "inputs": [
        {
          "internalType": "address",
          "name": "from",
          "type": "address"
        },
        {
          "internalType": "address",
          "name": "to",
          "type": "address"
        },
        {
          "internalType": "uint256",
          "name": "tokenId",
          "type": "uint256"
        }
      ],
      "name": "safeTransferFrom",
      "outputs": [],
      "stateMutability": "nonpayable",
      "type": "function"
    },
    {
      "inputs": [
        {
          "internalType": "address",
          "name": "from",
          "type": "address"
        },
        {
          "internalType": "address",
          "name": "to",
          "type": "address"
        },
        {
          "internalType": "uint256",
          "name": "tokenId",
          "type": "uint256"
        },
        {
          "internalType": "bytes",
          "name": "data",
          "type": "bytes"
        }
      ],
      "name": "safeTransferFrom",
      "outputs": [],
      "stateMutability": "nonpayable",
      "type": "function"
    },
    {
      "inputs": [
        {
          "internalType": "address",
          "name": "operator",
          "type": "address"
        },
        {
          "internalType": "bool",
          "name": "approved",
          "type": "bool"
        }
      ],
      "name": "setApprovalForAll",
      "outputs": [],
      "stateMutability": "nonpayable",
      "type": "function"
    },
    {
      "inputs": [
        {
          "internalType": "bytes4",
          "name": "interfaceId",
          "type": "bytes4"
        }
      ],
      "name": "supportsInterface",
      "outputs": [
        {
          "internalType": "bool",
          "name": "",
          "type": "bool"
        }
      ],
      "stateMutability": "view",
      "type": "function"
    },
    {
      "inputs": [],
      "name": "symbol",
      "outputs": [
        {
          "internalType": "string",
          "name": "",
          "type": "string"
        }
      ],
      "stateMutability": "view",
      "type": "function"
    },
    {
      "inputs": [
        {
          "internalType": "uint256",
          "name": "tokenId",
          "type": "uint256"
        }
      ],
      "name": "tokenURI",
      "outputs": [
        {
          "internalType": "string",
          "name": "",
          "type": "string"
        }
      ],
      "stateMutability": "view",
      "type": "function"
    },
    {
      "inputs": [
        {
          "internalType": "address",
          "name": "from",
          "type": "address"
        },
        {
          "internalType": "address",
          "name": "to",
          "type": "address"
        },
        {
          "internalType": "uint256",
          "name": "tokenId",
          "type": "uint256"
        }
      ],
      "name": "transferFrom",
      "outputs": [],
      "stateMutability": "nonpayable",
      "type": "function"
    }
  ],
  "bytecode": "0x60806040523461050457611b5d803803806100198161051e565b9283398101906040818303126105045780516001600160401b03811161050457810182601f82011215610504578051906001600160401b0382116103235761006a601f8301601f191660200161051e565b93828552602083830101116105045760005b82811061050957846020856000828785010152015160018060a01b0381168103610504576040906100ac8261051e565b92600c84526b1099585b48149958d95a5c1d60a21b60208501526100cf8361051e565b6005815264109354941560da1b6020820152845190946001600160401b0382116103235760005490600182811c921680156104fa575b60208310146103035781601f84931161048b575b50602090601f83116001146104255760009261041a575b50508160011b916000199060031b1c1916176000555b83516001600160401b03811161032357600154600181811c91168015610410575b602082101461030357601f81116103ab575b50602094601f821160011461034457948192939495600092610339575b50508160011b916000199060031b1c1916176001555b8051906001600160401b03821161032357600754600181811c91168015610319575b602082101461030357601f811161029e575b50602090601f83116001146102315761021893929160009183610226575b50508160011b916000199060031b1c191617600755610543565b505161156b90816105d28239f35b0151905085806101fe565b90601f198316916007600052816000209260005b81811061028657509160019391856102189796941061026d575b505050811b01600755610543565b015160001960f88460031b161c1916905585808061025f565b92936020600181928786015181550195019301610245565b60076000527fa66cc928b5edb82af9bd49922954155ab7b0942694bea4ce44661d9a8736c688601f840160051c810191602085106102f9575b601f0160051c01905b8181106102ed57506101e0565b600081556001016102e0565b90915081906102d7565b634e487b7160e01b600052602260045260246000fd5b90607f16906101ce565b634e487b7160e01b600052604160045260246000fd5b015190508580610196565b601f198216956001600052806000209160005b8881106103935750836001959697981061037a575b505050811b016001556101ac565b015160001960f88460031b161c1916905585808061036c565b91926020600181928685015181550194019201610357565b60016000527fb10e2d527612073b26eecdfd717e6a320cf44b4afac2b0732d9fcbe2b7fa0cf6601f830160051c81019160208410610406575b601f0160051c01905b8181106103fa5750610179565b600081556001016103ed565b90915081906103e4565b90607f1690610167565b015190508680610130565b60008080528281209350601f198516905b818110610473575090846001959493921061045a575b505050811b01600055610146565b015160001960f88460031b161c1916905586808061044c565b92936020600181928786015181550195019301610436565b600080529091507f290decd9548b62a8d60345a988386fc84ba6bc95484008f6362f93160ef3e563601f840160051c810191602085106104f0575b90601f859493920160051c01905b8181106104e15750610119565b600081558493506001016104d4565b90915081906104c6565b91607f1691610105565b600080fd5b8060208092840101518282880101520161007c565b6040519190601f01601f191682016001600160401b0381118382101761032357604052565b6001600160a01b0381166000908152600080516020611b3d833981519152602052604090205460ff166105cb576001600160a01b03166000818152600080516020611b3d83398151915260205260408120805460ff191660011790553391907f2f8788117e7eff1d82e926ec794901d17c78024a50270940304540a733656f0d8180a4600190565b5060009056fe608080604052600436101561001357600080fd5b60003560e01c90816301ffc9a714610def5750806306fdde0314610d4a578063081812fc14610d0b578063095ea7b314610bfc57806323b872dd14610be5578063248a9ca314610bb05780632f2ff15d14610b7057806336568abe14610b1157806342842e0e14610ae75780636352211e14610ab85780636c0360eb14610a1057806370a08231146109a157806391d148541461095357806395d89b4114610886578063a217fddf1461086a578063a22cb465146107b0578063ab2742dc1461073a578063b88d4fde146106da578063c87b56dd146105fe578063cab7236514610200578063d5391393146101c5578063d547741f1461017e5763e985e9c51461011c57600080fd5b3461017957604036600319011261017957610135610f32565b6001600160a01b03610145610f48565b911660005260056020526001600160a01b0360406000209116600052602052602060ff604060002054166040519015158152f35b600080fd5b34610179576040366003190112610179576101c360043561019d610f48565b906101be6101b982600052600660205260016040600020015490565b6113c5565b6114a6565b005b346101795760003660031901126101795760206040517f9f2df0fed2c77648de5860a4cc508cd0818c85b8b8a1ab4ceeef8d981c8956a68152f35b346101795760203660031901126101795760043567ffffffffffffffff8111610179576060600319823603011261017957604051906060820182811067ffffffffffffffff82111761051a5760405280600401356001600160a01b038116810361017957825260208201906024810135825260448101359067ffffffffffffffff8211610179570136602382011215610179576102a7903690602460048201359101610fd6565b60408381019182523360009081527f3195c024b2ddd6d9b8f6c836aa52f67fe69376c8903d009b80229b3ce4425f51602052205460ff16156105c557600854600181018091116105af57806008556001600160a01b0384511680156105995760009180835260026020526001600160a01b0360408420541691827fddf252ad1be2c89b69c2b068fc378daa952ba7f163c4a11628f55a4df523b3ef811515958661055f575b838152600360205260408120600181540190558481526002602052604081206001600160a01b0385166001600160a01b031982541617905580a45061053057519160085460005260096020526040600020835167ffffffffffffffff811161051a576103b8825461100d565b601f81116104d2575b506020601f821160011461043e579181604094926001600160a01b03947fcf56fb85b778fed39213679777369b9dadb3455c07cfda36549140f432b7e04c9798600092610433575b50508160011b916000199060031b1c19161790555b511692600854905182519182526020820152a2005b015190508880610409565b601f1982169583600052816000209660005b8181106104ba5750927fcf56fb85b778fed39213679777369b9dadb3455c07cfda36549140f432b7e04c96976001600160a01b0395936001938360409997106104a1575b505050811b01905561041e565b015160001960f88460031b161c19169055888080610494565b83830151895560019098019760209384019301610450565b826000526020600020601f830160051c81019160208410610510575b601f0160051c01905b81811061050457506103c1565b600081556001016104f7565b90915081906104ee565b634e487b7160e01b600052604160045260246000fd5b7f73c6ac6e00000000000000000000000000000000000000000000000000000000600052600060045260246000fd5b61058085600052600460205260406000206001600160a01b03198154169055565b828152600360205260408120805460001901905561034c565b633250574960e11b600052600060045260246000fd5b634e487b7160e01b600052601160045260246000fd5b63e2517d3f60e01b600052336004527f9f2df0fed2c77648de5860a4cc508cd0818c85b8b8a1ab4ceeef8d981c8956a660245260446000fd5b346101795760203660031901126101795760043560005260096020526040600020604051906000908054906106328261100d565b80855291600181169081156106b35750600114610672575b61066e8461065a81860382610f98565b604051918291602083526020830190610ef1565b0390f35b600090815260208120939250905b8082106106995750909150810160200161065a8261064a565b919260018160209254838588010152019101909291610680565b60ff191660208087019190915292151560051b8501909201925061065a915083905061064a565b34610179576080366003190112610179576106f3610f32565b6106fb610f48565b6064359167ffffffffffffffff83116101795736602384011215610179576107306101c3933690602481600401359101610fd6565b9160443591611215565b3461017957604036600319011261017957610753610f32565b3360009081527f54cdd369e4e8a8515e52ca72ec816c2101831ad1f18bf44102ed171459c9b4f8602052604090205460ff1615610796576101c39060243561140c565b63e2517d3f60e01b60005233600452600060245260446000fd5b34610179576040366003190112610179576107c9610f32565b60243590811515809203610179576001600160a01b031690811561083c57336000526005602052604060002082600052602052604060002060ff1981541660ff83161790556040519081527f17307eab39ab6107e8899845ad3d59bd9653f200f220920489ca2b5937696c3160203392a3005b507f5b08ba180000000000000000000000000000000000000000000000000000000060005260045260246000fd5b3461017957600036600319011261017957602060405160008152f35b346101795760003660031901126101795760405160006001546108a88161100d565b808452906001811690811561092f57506001146108d0575b61066e8361065a81850382610f98565b600160009081527fb10e2d527612073b26eecdfd717e6a320cf44b4afac2b0732d9fcbe2b7fa0cf6939250905b8082106109155750909150810160200161065a6108c0565b9192600181602092548385880101520191019092916108fd565b60ff191660208086019190915291151560051b8401909101915061065a90506108c0565b346101795760403660031901126101795761096c610f48565b60043560005260066020526001600160a01b0360406000209116600052602052602060ff604060002054166040519015158152f35b34610179576020366003190112610179576001600160a01b036109c2610f32565b1680156109e15760005260036020526020604060002054604051908152f35b7f89c62b6400000000000000000000000000000000000000000000000000000000600052600060045260246000fd5b34610179576000366003190112610179576040516000600754610a328161100d565b808452906001811690811561092f5750600114610a595761066e8361065a81850382610f98565b600760009081527fa66cc928b5edb82af9bd49922954155ab7b0942694bea4ce44661d9a8736c688939250905b808210610a9e5750909150810160200161065a6108c0565b919260018160209254838588010152019101909291610a86565b34610179576020366003190112610179576020610ad660043561138e565b6001600160a01b0360405191168152f35b34610179576101c3610af836610f5e565b9060405192610b08602085610f98565b60008452611215565b3461017957604036600319011261017957610b2a610f48565b336001600160a01b03821603610b46576101c3906004356114a6565b7f6697b2320000000000000000000000000000000000000000000000000000000060005260046000fd5b34610179576040366003190112610179576101c3600435610b8f610f48565b90610bab6101b982600052600660205260016040600020015490565b61140c565b34610179576020366003190112610179576020610bdd600435600052600660205260016040600020015490565b604051908152f35b34610179576101c3610bf636610f5e565b91611047565b3461017957604036600319011261017957610c15610f32565b602435610c218161138e565b33151580610cf8575b80610cc1575b610c935781906001600160a01b0380851691167f8c5be1e5ebec7d5bd14f71427d1e84f3dd0314c0f7b2291e5b200ac8c7c3b925600080a460005260046020526001600160a01b03604060002091166001600160a01b0319825416179055600080f35b7fa9fbf51f000000000000000000000000000000000000000000000000000000006000523360045260246000fd5b506001600160a01b038116600052600560205260406000206001600160a01b03331660005260205260ff6040600020541615610c30565b50336001600160a01b0382161415610c2a565b3461017957602036600319011261017957600435610d288161138e565b50600052600460205260206001600160a01b0360406000205416604051908152f35b346101795760003660031901126101795760405160008054610d6b8161100d565b808452906001811690811561092f5750600114610d925761066e8361065a81850382610f98565b60008080527f290decd9548b62a8d60345a988386fc84ba6bc95484008f6362f93160ef3e563939250905b808210610dd55750909150810160200161065a6108c0565b919260018160209254838588010152019101909291610dbd565b3461017957602036600319011261017957600435907fffffffff00000000000000000000000000000000000000000000000000000000821680920361017957817f7965db0b0000000000000000000000000000000000000000000000000000000060209314908115610e63575b5015158152f35b7f80ac58cd00000000000000000000000000000000000000000000000000000000811491508115610ec7575b8115610e9d575b5083610e5c565b7f01ffc9a70000000000000000000000000000000000000000000000000000000091501483610e96565b7f5b5e139f0000000000000000000000000000000000000000000000000000000081149150610e8f565b919082519283825260005b848110610f1d575050826000602080949584010152601f8019910116010190565b80602080928401015182828601015201610efc565b600435906001600160a01b038216820361017957565b602435906001600160a01b038216820361017957565b6060906003190112610179576004356001600160a01b038116810361017957906024356001600160a01b0381168103610179579060443590565b90601f8019910116810190811067ffffffffffffffff82111761051a57604052565b67ffffffffffffffff811161051a57601f01601f191660200190565b929192610fe282610fba565b91610ff06040519384610f98565b829481845281830111610179578281602093846000960137010152565b90600182811c9216801561103d575b602083101461102757565b634e487b7160e01b600052602260045260246000fd5b91607f169161101c565b91906001600160a01b0316918215610599576000908282526002602052826001600160a01b0360408420541694853315158061115a575b507fddf252ad1be2c89b69c2b068fc378daa952ba7f163c4a11628f55a4df523b3ef6001600160a01b039582611120575b83815260036020526040812060018154019055848152600260205260408120846001600160a01b031982541617905580a4168083036110ed57505050565b7f64283d7b0000000000000000000000000000000000000000000000000000000060005260045260245260445260646000fd5b61114185600052600460205260406000206001600160a01b03198154169055565b82815260036020526040812080546000190190556110af565b919394925050806111be575b156111765791908390853861107e565b83908561118f57602491637e27328960e01b8252600452fd5b6044917f177e802f00000000000000000000000000000000000000000000000000000000825233600452602452fd5b5033851480156111ec575b8061116657508381526004602052336001600160a01b0360408320541614611166565b508481526005602052604081206001600160a01b033316825260205260ff6040822054166111c9565b90611221838284611047565b803b61122e575b50505050565b6020916112746001600160a01b03809316956040519586948594630a85bd0160e11b86523360048701521660248501526044840152608060648401526084830190610ef1565b03816000865af1809160009161132c575b50906112de57503d156112d7573d61129c81610fba565b906112aa6040519283610f98565b81523d6000602083013e5b805190816112d25782633250574960e11b60005260045260246000fd5b602001fd5b60606112b5565b7fffffffff00000000000000000000000000000000000000000000000000000000630a85bd0160e11b911603611318575038808080611228565b633250574960e11b60005260045260246000fd5b6020813d602011611386575b8161134560209383610f98565b810103126113825751907fffffffff000000000000000000000000000000000000000000000000000000008216820361137f575038611285565b80fd5b5080fd5b3d9150611338565b8060005260026020526001600160a01b03604060002054169081156113b1575090565b637e27328960e01b60005260045260246000fd5b80600052600660205260406000206001600160a01b03331660005260205260ff60406000205416156113f45750565b63e2517d3f60e01b6000523360045260245260446000fd5b80600052600660205260406000206001600160a01b03831660005260205260ff604060002054161560001461149f5780600052600660205260406000206001600160a01b0383166000526020526040600020600160ff198254161790556001600160a01b03339216907f2f8788117e7eff1d82e926ec794901d17c78024a50270940304540a733656f0d600080a4600190565b5050600090565b80600052600660205260406000206001600160a01b03831660005260205260ff6040600020541660001461149f5780600052600660205260406000206001600160a01b038316600052602052604060002060ff1981541690556001600160a01b03339216907ff6391f5c32d9c69d2a47ea670b442974b53935d1edc7fd64eb21e047a839171b600080a460019056fea2646970667358221220c83b3db2dcbb9d1cb28f042b27bba52052cff5161bb460b6b3d0e24c2039c16164736f6c634300081c003354cdd369e4e8a8515e52ca72ec816c2101831ad1f18bf44102ed171459c9b4f8",
  "linkReferences": {},
  "deployedLinkReferences": {}
}