{
  "_format": "hh-sol-artifact-1",
  "contractName": "Receipt",
  "sourceName": "contracts/modules/Receipt.sol",
  "abi": [
    {
      "inputs": [
        {
          "internalType": "string",
          "name": "baseURI_",
          "type": "string"
        }
      ],
      "stateMutability": "nonpayable",
      "type": "constructor"
    },
    {
      "inputs": [
        {
          "internalType": "address",
          "name": "sender",
          "type": "address"
        },
        {
          "internalType": "uint256",
          "name": "tokenId",
          "type": "uint256"
        },
        {
          "internalType": "address",
          "name": "owner",
          "type": "address"
        }
      ],
      "name": "ERC721IncorrectOwner",
      "type": "error"
    },
    {
      "inputs": [
        {
          "internalType": "address",
          "name": "operator",
          "type": "address"
        },
        {
          "internalType": "uint256",
          "name": "tokenId",
          "type": "uint256"
        }
      ],
      "name": "ERC721InsufficientApproval",
      "type": "error"
    },
    {
      "inputs": [
        {
          "internalType": "address",
          "name": "approver",
          "type": "address"
        }
      ],
      "name": "ERC721InvalidApprover",
      "type": "error"
    },
    {
      "inputs": [
        {
          "internalType": "address",
          "name": "operator",
          "type": "address"
        }
      ],
      "name": "ERC721InvalidOperator",
      "type": "error"
    },
    {
      "inputs": [
        {
          "internalType": "address",
          "name": "owner",
          "type": "address"
        }
      ],
      "name": "ERC721InvalidOwner",
      "type": "error"
    },
    {
      "inputs": [
        {
          "internalType": "address",
          "name": "receiver",
          "type": "address"
        }
      ],
      "name": "ERC721InvalidReceiver",
      "type": "error"
    },
    {
      "inputs": [
        {
          "internalType": "address",
          "name": "sender",
          "type": "address"
        }
      ],
      "name": "ERC721InvalidSender",
      "type": "error"
    },
    {
      "inputs": [
        {
          "internalType": "uint256",
          "name": "tokenId",
          "type": "uint256"
        }
      ],
      "name": "ERC721NonexistentToken",
      "type": "error"
    },
    {
      "inputs": [
        {
          "internalType": "address",
          "name": "owner",
          "type": "address"
        }
      ],
      "name": "OwnableInvalidOwner",
      "type": "error"
    },
    {
      "inputs": [
        {
          "internalType": "address",
          "name": "account",
          "type": "address"
        }
      ],
      "name": "OwnableUnauthorizedAccount",
      "type": "error"
    },
    {
      "anonymous": false,
      "inputs": [
        {
          "indexed": true,
          "internalType": "address",
          "name": "owner",
          "type": "address"
        },
        {
          "indexed": true,
          "internalType": "address",
          "name": "approved",
          "type": "address"
        },
        {
          "indexed": true,
          "internalType": "uint256",
          "name": "tokenId",
          "type": "uint256"
        }
      ],
      "name": "Approval",
      "type": "event"
    },
    {
      "anonymous": false,
      "inputs": [
        {
          "indexed": true,
          "internalType": "address",
          "name": "owner",
          "type": "address"
        },
        {
          "indexed": true,
          "internalType": "address",
          "name": "operator",
          "type": "address"
        },
        {
          "indexed": false,
          "internalType": "bool",
          "name": "approved",
          "type": "bool"
        }
      ],
      "name": "ApprovalForAll",
      "type": "event"
    },
    {
      "anonymous": false,
      "inputs": [
        {
          "indexed": true,
          "internalType": "address",
          "name": "previousOwner",
          "type": "address"
        },
        {
          "indexed": true,
          "internalType": "address",
          "name": "newOwner",
          "type": "address"
        }
      ],
      "name": "OwnershipTransferred",
      "type": "event"
    },
    {
      "anonymous": false,
      "inputs": [
        {
          "indexed": true,
          "internalType": "address",
          "name": "to",
          "type": "address"
        },
        {
          "indexed": false,
          "internalType": "uint256",
          "name": "tokenId",
          "type": "uint256"
        },
        {
          "indexed": false,
          "internalType": "bytes32",
          "name": "transactionId",
          "type": "bytes32"
        }
      ],
      "name": "ReceiptMinted",
      "type": "event"
    },
    {
      "anonymous": false,
      "inputs": [
        {
          "indexed": true,
          "internalType": "address",
          "name": "from",
          "type": "address"
        },
        {
          "indexed": true,
          "internalType": "address",
          "name": "to",
          "type": "address"
        },
        {
          "indexed": true,
          "internalType": "uint256",
          "name": "tokenId",
          "type": "uint256"
        }
      ],
      "name": "Transfer",
      "type": "event"
    },
    {
      "inputs": [
        {
          "internalType": "address",
          "name": "to",
          "type": "address"
        },
        {
          "internalType": "uint256",
          "name": "tokenId",
          "type": "uint256"
        }
      ],
      "name": "approve",
      "outputs": [],
      "stateMutability": "nonpayable",
      "type": "function"
    },
    {
      "inputs": [
        {
          "internalType": "address",
          "name": "owner",
          "type": "address"
        }
      ],
      "name": "balanceOf",
      "outputs": [
        {
          "internalType": "uint256",
          "name": "",
          "type": "uint256"
        }
      ],
      "stateMutability": "view",
      "type": "function"
    },
    {
      "inputs": [],
      "name": "baseURI",
      "outputs": [
        {
          "internalType": "string",
          "name": "",
          "type": "string"
        }
      ],
      "stateMutability": "view",
      "type": "function"
    },
    {
      "inputs": [
        {
          "internalType": "uint256",
          "name": "tokenId",
          "type": "uint256"
        }
      ],
      "name": "getApproved",
      "outputs": [
        {
          "internalType": "address",
          "name": "",
          "type": "address"
        }
      ],
      "stateMutability": "view",
      "type": "function"
    },
    {
      "inputs": [
        {
          "internalType": "address",
          "name": "owner",
          "type": "address"
        },
        {
          "internalType": "address",
          "name": "operator",
          "type": "address"
        }
      ],
      "name": "isApprovedForAll",
      "outputs": [
        {
          "internalType": "bool",
          "name": "",
          "type": "bool"
        }
      ],
      "stateMutability": "view",
      "type": "function"
    },
    {
      "inputs": [
        {
          "components": [
            {
              "internalType": "address",
              "name": "to",
              "type": "address"
            },
            {
              "internalType": "bytes32",
              "name": "transactionId",
              "type": "bytes32"
            }
          ],
          "internalType": "struct Params.MintReceipt",
          "name": "params",
          "type": "tuple"
        }
      ],
      "name": "mint",
      "outputs": [],
      "stateMutability": "nonpayable",
      "type": "function"
    },
    {
      "inputs": [],
      "name": "name",
      "outputs": [
        {
          "internalType": "string",
          "name": "",
          "type": "string"
        }
      ],
      "stateMutability": "view",
      "type": "function"
    },
    {
      "inputs": [],
      "name": "owner",
      "outputs": [
        {
          "internalType": "address",
          "name": "",
          "type": "address"
        }
      ],
      "stateMutability": "view",
      "type": "function"
    },
    {
      "inputs": [
        {
          "internalType": "uint256",
          "name": "tokenId",
          "type": "uint256"
        }
      ],
      "name": "ownerOf",
      "outputs": [
        {
          "internalType": "address",
          "name": "",
          "type": "address"
        }
      ],
      "stateMutability": "view",
      "type": "function"
    },
    {
      "inputs": [],
      "name": "renounceOwnership",
      "outputs": [],
      "stateMutability": "nonpayable",
      "type": "function"
    },
    {
      "inputs": [
        {
          "internalType": "address",
          "name": "from",
          "type": "address"
        },
        {
          "internalType": "address",
          "name": "to",
          "type": "address"
        },
        {
          "internalType": "uint256",
          "name": "tokenId",
          "type": "uint256"
        }
      ],
      "name": "safeTransferFrom",
      "outputs": [],
      "stateMutability": "nonpayable",
      "type": "function"
    },
    {
      "inputs": [
        {
          "internalType": "address",
          "name": "from",
          "type": "address"
        },
        {
          "internalType": "address",
          "name": "to",
          "type": "address"
        },
        {
          "internalType": "uint256",
          "name": "tokenId",
          "type": "uint256"
        },
        {
          "internalType": "bytes",
          "name": "data",
          "type": "bytes"
        }
      ],
      "name": "safeTransferFrom",
      "outputs": [],
      "stateMutability": "nonpayable",
      "type": "function"
    },
    {
      "inputs": [
        {
          "internalType": "address",
          "name": "operator",
          "type": "address"
        },
        {
          "internalType": "bool",
          "name": "approved",
          "type": "bool"
        }
      ],
      "name": "setApprovalForAll",
      "outputs": [],
      "stateMutability": "nonpayable",
      "type": "function"
    },
    {
      "inputs": [
        {
          "internalType": "bytes4",
          "name": "interfaceId",
          "type": "bytes4"
        }
      ],
      "name": "supportsInterface",
      "outputs": [
        {
          "internalType": "bool",
          "name": "",
          "type": "bool"
        }
      ],
      "stateMutability": "view",
      "type": "function"
    },
    {
      "inputs": [],
      "name": "symbol",
      "outputs": [
        {
          "internalType": "string",
          "name": "",
          "type": "string"
        }
      ],
      "stateMutability": "view",
      "type": "function"
    },
    {
      "inputs": [
        {
          "internalType": "uint256",
          "name": "tokenId",
          "type": "uint256"
        }
      ],
      "name": "tokenURI",
      "outputs": [
        {
          "internalType": "string",
          "name": "",
          "type": "string"
        }
      ],
      "stateMutability": "view",
      "type": "function"
    },
    {
      "inputs": [
        {
          "internalType": "address",
          "name": "from",
          "type": "address"
        },
        {
          "internalType": "address",
          "name": "to",
          "type": "address"
        },
        {
          "internalType": "uint256",
          "name": "tokenId",
          "type": "uint256"
        }
      ],
      "name": "transferFrom",
      "outputs": [],
      "stateMutability": "nonpayable",
      "type": "function"
    },
    {
      "inputs": [
        {
          "internalType": "address",
          "name": "newOwner",
          "type": "address"
        }
      ],
      "name": "transferOwnership",
      "outputs": [],
      "stateMutability": "nonpayable",
      "type": "function"
    }
  ],
  "bytecode": "0x60806040523461054957611908803803806100198161054e565b928339810190602081830312610549578051906001600160401b038211610549570181601f82011215610549578051906001600160401b0382116103485761006a601f8301601f191660200161054e565b92828452602083830101116105495760005b828110610534578360006020858301015260406100988161054e565b91600c83526b1099585b48149958d95a5c1d60a21b60208401526100bb8261054e565b6005815264109354941560da1b602082015283519092906001600160401b03811161034857600054600181811c9116801561052a575b602082101461032857601f81116104c6575b50602094601f821160011461046057948192939495600092610455575b50508160011b916000199060031b1c1916176000555b82516001600160401b03811161034857600154600181811c9116801561044b575b602082101461032857601f81116103e6575b506020601f821160011461037f5781929394600092610374575b50508160011b916000199060031b1c1916176001555b331561035e5760068054336001600160a01b0319821681179092556001600160a01b03167f8be0079c531659141344cd1fd0a4f28419497f9722a3daafe3b4186f6b6457e0600080a381516001600160401b03811161034857600754600181811c9116801561033e575b602082101461032857601f81116102c3575b50602092601f821160011461025e5792819293600092610253575b50508160011b916000199060031b1c1916176007555b5161139490816105748239f35b015190508380610230565b601f198216936007600052806000209160005b8681106102ab5750836001959610610292575b505050811b01600755610246565b015160001960f88460031b161c19169055838080610284565b91926020600181928685015181550194019201610271565b60076000527fa66cc928b5edb82af9bd49922954155ab7b0942694bea4ce44661d9a8736c688601f830160051c8101916020841061031e575b601f0160051c01905b8181106103125750610215565b60008155600101610305565b90915081906102fc565b634e487b7160e01b600052602260045260246000fd5b90607f1690610203565b634e487b7160e01b600052604160045260246000fd5b631e4fbdf760e01b600052600060045260246000fd5b015190508480610183565b601f198216906001600052806000209160005b8181106103ce575095836001959697106103b5575b505050811b01600155610199565b015160001960f88460031b161c191690558480806103a7565b9192602060018192868b015181550194019201610392565b60016000527fb10e2d527612073b26eecdfd717e6a320cf44b4afac2b0732d9fcbe2b7fa0cf6601f830160051c81019160208410610441575b601f0160051c01905b8181106104355750610169565b60008155600101610428565b909150819061041f565b90607f1690610157565b015190508580610120565b601f1982169560008052806000209160005b8881106104ae57508360019596979810610495575b505050811b01600055610136565b015160001960f88460031b161c19169055858080610487565b91926020600181928685015181550194019201610472565b600080527f290decd9548b62a8d60345a988386fc84ba6bc95484008f6362f93160ef3e563601f830160051c81019160208410610520575b601f0160051c01905b8181106105145750610103565b60008155600101610507565b90915081906104fe565b90607f16906100f1565b8060208092840101518282870101520161007c565b600080fd5b6040519190601f01601f191682016001600160401b038111838210176103485760405256fe608080604052600436101561001357600080fd5b60003560e01c90816301ffc9a714610d845750806306fdde0314610cdf578063081812fc14610ca0578063095ea7b314610b9157806323b872dd14610b7a57806342842e0e14610b50578063601eaf331461069f5780636352211e146106705780636c0360eb146105c857806370a0823114610559578063715018a6146104fe5780638da5cb5b146104d757806395d89b411461040a578063a22cb46514610350578063b88d4fde146102c5578063c87b56dd146101e9578063e985e9c51461018c5763f2fde38b146100e557600080fd5b34610187576020366003190112610187576001600160a01b03610106610e94565b61010e61131c565b168015610158576001600160a01b03600654826001600160a01b0319821617600655167f8be0079c531659141344cd1fd0a4f28419497f9722a3daafe3b4186f6b6457e0600080a3005b7f1e4fbdf700000000000000000000000000000000000000000000000000000000600052600060045260246000fd5b600080fd5b34610187576040366003190112610187576101a5610e94565b6001600160a01b036101b5610eaa565b911660005260056020526001600160a01b0360406000209116600052602052602060ff604060002054166040519015158152f35b3461018757602036600319011261018757600435600052600960205260406000206040519060009080549061021d82610f4e565b808552916001811690811561029e575060011461025d575b6102598461024581860382610efa565b604051918291602083526020830190610e53565b0390f35b600090815260208120939250905b8082106102845750909150810160200161024582610235565b91926001816020925483858801015201910190929161026b565b60ff191660208087019190915292151560051b850190920192506102459150839050610235565b34610187576080366003190112610187576102de610e94565b6102e6610eaa565b6064359167ffffffffffffffff831161018757366023840112156101875782600401359161031383610f32565b926103216040519485610efa565b808452366024828701011161018757602081600092602461034e980183880137850101526044359161116c565b005b3461018757604036600319011261018757610369610e94565b60243590811515809203610187576001600160a01b03169081156103dc57336000526005602052604060002082600052602052604060002060ff1981541660ff83161790556040519081527f17307eab39ab6107e8899845ad3d59bd9653f200f220920489ca2b5937696c3160203392a3005b507f5b08ba180000000000000000000000000000000000000000000000000000000060005260045260246000fd5b3461018757600036600319011261018757604051600060015461042c81610f4e565b80845290600181169081156104b35750600114610454575b6102598361024581850382610efa565b600160009081527fb10e2d527612073b26eecdfd717e6a320cf44b4afac2b0732d9fcbe2b7fa0cf6939250905b80821061049957509091508101602001610245610444565b919260018160209254838588010152019101909291610481565b60ff191660208086019190915291151560051b840190910191506102459050610444565b346101875760003660031901126101875760206001600160a01b0360065416604051908152f35b346101875760003660031901126101875761051761131c565b60006001600160a01b036006546001600160a01b03198116600655167f8be0079c531659141344cd1fd0a4f28419497f9722a3daafe3b4186f6b6457e08280a3005b34610187576020366003190112610187576001600160a01b0361057a610e94565b1680156105995760005260036020526020604060002054604051908152f35b7f89c62b6400000000000000000000000000000000000000000000000000000000600052600060045260246000fd5b346101875760003660031901126101875760405160006007546105ea81610f4e565b80845290600181169081156104b35750600114610611576102598361024581850382610efa565b600760009081527fa66cc928b5edb82af9bd49922954155ab7b0942694bea4ce44661d9a8736c688939250905b80821061065657509091508101602001610245610444565b91926001816020925483858801015201910190929161063e565b3461018757602036600319011261018757602061068e6004356112e5565b6001600160a01b0360405191168152f35b346101875760403660031901126101875760006040516040810181811067ffffffffffffffff821117610b3c576040526106d7610e94565b8152602081019060243582526106eb61131c565b60085460018101809111610b2857806008556001600160a01b03825116908115610b155780855260026020526001600160a01b03604086205416908115159283610adb575b808752600360205260408720600181540190558187526002602052604087206001600160a01b0382166001600160a01b0319825416179055827fddf252ad1be2c89b69c2b068fc378daa952ba7f163c4a11628f55a4df523b3ef8880a450610aaf57600854808185927a184f03e93ff9f4daa797ed6e38ed64bf6a1f010000000000000000821015610a87575b806d04ee2d6d415b85acef8100000000600a921015610a6c575b662386f26fc10000811015610a58575b6305f5e100811015610a47575b612710811015610a38575b6064811015610a2a575b1015610a1f575b600a6021600185019461082286610f32565b956108306040519788610efa565b80875261083f601f1991610f32565b013660208801378501015b60001901917f30313233343536373839616263646566000000000000000000000000000000008282061a835304801561088657600a909161084a565b505084526009602052604084209080519067ffffffffffffffff8211610a0b576108b08354610f4e565b601f81116109c6575b50602090601f83116001146109365792826001600160a01b03937fcf56fb85b778fed39213679777369b9dadb3455c07cfda36549140f432b7e04c96936040968a9261092b575b50508160011b916000199060031b1c19161790555b511692600854905182519182526020820152a280f35b015190508980610900565b8387528187209190601f198416885b8181106109ae5750937fcf56fb85b778fed39213679777369b9dadb3455c07cfda36549140f432b7e04c969360409693600193836001600160a01b039810610995575b505050811b019055610915565b015160001960f88460031b161c19169055898080610988565b92936020600181928786015181550195019301610945565b83875260208720601f840160051c81019160208510610a01575b601f0160051c01905b8181106109f657506108b9565b8781556001016109e9565b90915081906109e0565b602486634e487b7160e01b81526041600452fd5b600190920191610810565b606460029104940193610809565b612710600491049401936107ff565b6305f5e100600891049401936107f4565b662386f26fc10000601091049401936107e7565b6d04ee2d6d415b85acef8100000000602091049401936107d7565b50604092507a184f03e93ff9f4daa797ed6e38ed64bf6a1f01000000000000000081046107bd565b6024837f73c6ac6e00000000000000000000000000000000000000000000000000000000815280600452fd5b610afc82600052600460205260406000206001600160a01b03198154169055565b8287526003602052604087208054600019019055610730565b602485633250574960e11b815280600452fd5b602484634e487b7160e01b81526011600452fd5b602483634e487b7160e01b81526041600452fd5b346101875761034e610b6136610ec0565b9060405192610b71602085610efa565b6000845261116c565b346101875761034e610b8b36610ec0565b91610f88565b3461018757604036600319011261018757610baa610e94565b602435610bb6816112e5565b33151580610c8d575b80610c56575b610c285781906001600160a01b0380851691167f8c5be1e5ebec7d5bd14f71427d1e84f3dd0314c0f7b2291e5b200ac8c7c3b925600080a460005260046020526001600160a01b03604060002091166001600160a01b0319825416179055600080f35b7fa9fbf51f000000000000000000000000000000000000000000000000000000006000523360045260246000fd5b506001600160a01b038116600052600560205260406000206001600160a01b03331660005260205260ff6040600020541615610bc5565b50336001600160a01b0382161415610bbf565b3461018757602036600319011261018757600435610cbd816112e5565b50600052600460205260206001600160a01b0360406000205416604051908152f35b346101875760003660031901126101875760405160008054610d0081610f4e565b80845290600181169081156104b35750600114610d27576102598361024581850382610efa565b60008080527f290decd9548b62a8d60345a988386fc84ba6bc95484008f6362f93160ef3e563939250905b808210610d6a57509091508101602001610245610444565b919260018160209254838588010152019101909291610d52565b3461018757602036600319011261018757600435907fffffffff00000000000000000000000000000000000000000000000000000000821680920361018757817f80ac58cd0000000000000000000000000000000000000000000000000000000060209314908115610e29575b8115610dff575b5015158152f35b7f01ffc9a70000000000000000000000000000000000000000000000000000000091501483610df8565b7f5b5e139f0000000000000000000000000000000000000000000000000000000081149150610df1565b919082519283825260005b848110610e7f575050826000602080949584010152601f8019910116010190565b80602080928401015182828601015201610e5e565b600435906001600160a01b038216820361018757565b602435906001600160a01b038216820361018757565b6060906003190112610187576004356001600160a01b038116810361018757906024356001600160a01b0381168103610187579060443590565b90601f8019910116810190811067ffffffffffffffff821117610f1c57604052565b634e487b7160e01b600052604160045260246000fd5b67ffffffffffffffff8111610f1c57601f01601f191660200190565b90600182811c92168015610f7e575b6020831014610f6857565b634e487b7160e01b600052602260045260246000fd5b91607f1691610f5d565b91906001600160a01b0316918215611156576000908282526002602052826001600160a01b0360408420541694853315158061109b575b507fddf252ad1be2c89b69c2b068fc378daa952ba7f163c4a11628f55a4df523b3ef6001600160a01b039582611061575b83815260036020526040812060018154019055848152600260205260408120846001600160a01b031982541617905580a41680830361102e57505050565b7f64283d7b0000000000000000000000000000000000000000000000000000000060005260045260245260445260646000fd5b61108285600052600460205260406000206001600160a01b03198154169055565b8281526003602052604081208054600019019055610ff0565b919394925050806110ff575b156110b757919083908538610fbf565b8390856110d057602491637e27328960e01b8252600452fd5b6044917f177e802f00000000000000000000000000000000000000000000000000000000825233600452602452fd5b50338514801561112d575b806110a757508381526004602052336001600160a01b03604083205416146110a7565b508481526005602052604081206001600160a01b033316825260205260ff60408220541661110a565b633250574960e11b600052600060045260246000fd5b90611178838284610f88565b803b611185575b50505050565b6020916111cb6001600160a01b03809316956040519586948594630a85bd0160e11b86523360048701521660248501526044840152608060648401526084830190610e53565b03816000865af18091600091611283575b509061123557503d1561122e573d6111f381610f32565b906112016040519283610efa565b81523d6000602083013e5b805190816112295782633250574960e11b60005260045260246000fd5b602001fd5b606061120c565b7fffffffff00000000000000000000000000000000000000000000000000000000630a85bd0160e11b91160361126f57503880808061117f565b633250574960e11b60005260045260246000fd5b6020813d6020116112dd575b8161129c60209383610efa565b810103126112d95751907fffffffff00000000000000000000000000000000000000000000000000000000821682036112d65750386111dc565b80fd5b5080fd5b3d915061128f565b8060005260026020526001600160a01b0360406000205416908115611308575090565b637e27328960e01b60005260045260246000fd5b6001600160a01b0360065416330361133057565b7f118cdaa7000000000000000000000000000000000000000000000000000000006000523360045260246000fdfea2646970667358221220e261c69436a7cfc629e839250e791faf82b86cc50f7eb3a5347a1ab9015caaf064736f6c634300081c0033",
  "linkReferences": {},
  "deployedLinkReferences": {}
}