{
  "_format": "hh-sol-artifact-1",
  "contractName": "RecurrentTransaction",
  "sourceName": "contracts/transactions/RecurrentTransaction.sol",
  "abi": [
    {
      "inputs": [
        {
          "internalType": "contract IReceipt",
          "name": "receipt_",
          "type": "address"
        },
        {
          "internalType": "contract IMerchant",
          "name": "merchant_",
          "type": "address"
        }
      ],
      "stateMutability": "nonpayable",
      "type": "constructor"
    },
    {
      "inputs": [
        {
          "internalType": "address",
          "name": "owner",
          "type": "address"
        }
      ],
      "name": "OwnableInvalidOwner",
      "type": "error"
    },
    {
      "inputs": [
        {
          "internalType": "address",
          "name": "account",
          "type": "address"
        }
      ],
      "name": "OwnableUnauthorizedAccount",
      "type": "error"
    },
    {
      "anonymous": false,
      "inputs": [
        {
          "indexed": true,
          "internalType": "address",
          "name": "previousOwner",
          "type": "address"
        },
        {
          "indexed": true,
          "internalType": "address",
          "name": "newOwner",
          "type": "address"
        }
      ],
      "name": "OwnershipTransferred",
      "type": "event"
    },
    {
      "inputs": [
        {
          "internalType": "address",
          "name": "payer",
          "type": "address"
        },
        {
          "components": [
            {
              "internalType": "address",
              "name": "merchant",
              "type": "address"
            },
            {
              "internalType": "address",
              "name": "tokenB",
              "type": "address"
            },
            {
              "internalType": "bytes32",
              "name": "subscriptionId",
              "type": "bytes32"
            },
            {
              "internalType": "string",
              "name": "description",
              "type": "string"
            },
            {
              "components": [
                {
                  "internalType": "uint8",
                  "name": "schemaVersion",
                  "type": "uint8"
                },
                {
                  "internalType": "string",
                  "name": "value",
                  "type": "string"
                }
              ],
              "internalType": "struct Types.Metadata",
              "name": "metadata",
              "type": "tuple"
            },
            {
              "internalType": "bool",
              "name": "mintReceipt",
              "type": "bool"
            },
            {
              "internalType": "uint256",
              "name": "healthFactorMultiplier",
              "type": "uint256"
            },
            {
              "internalType": "enum Enums.TransactionRoute",
              "name": "route",
              "type": "uint8"
            },
            {
              "components": [
                {
                  "internalType": "uint256",
                  "name": "deadline",
                  "type": "uint256"
                },
                {
                  "internalType": "uint8",
                  "name": "v",
                  "type": "uint8"
                },
                {
                  "internalType": "bytes32",
                  "name": "r",
                  "type": "bytes32"
                },
                {
                  "internalType": "bytes32",
                  "name": "s",
                  "type": "bytes32"
                }
              ],
              "internalType": "struct Params.Signature",
              "name": "signature",
              "type": "tuple"
            }
          ],
          "internalType": "struct Params.CreateRecurrentTransaction",
          "name": "params",
          "type": "tuple"
        }
      ],
      "name": "create",
      "outputs": [
        {
          "internalType": "bytes32",
          "name": "transactionId",
          "type": "bytes32"
        }
      ],
      "stateMutability": "nonpayable",
      "type": "function"
    },
    {
      "inputs": [
        {
          "internalType": "bytes32",
          "name": "transactionId",
          "type": "bytes32"
        }
      ],
      "name": "getStatus",
      "outputs": [
        {
          "internalType": "enum Enums.TransactionStatus",
          "name": "",
          "type": "uint8"
        }
      ],
      "stateMutability": "view",
      "type": "function"
    },
    {
      "inputs": [
        {
          "internalType": "bytes32",
          "name": "transactionId",
          "type": "bytes32"
        }
      ],
      "name": "getTransaction",
      "outputs": [
        {
          "components": [
            {
              "internalType": "address",
              "name": "payer",
              "type": "address"
            },
            {
              "internalType": "address",
              "name": "merchant",
              "type": "address"
            },
            {
              "internalType": "bytes32",
              "name": "subscriptionId",
              "type": "bytes32"
            },
            {
              "internalType": "string",
              "name": "description",
              "type": "string"
            },
            {
              "internalType": "uint256[]",
              "name": "timestamps",
              "type": "uint256[]"
            },
            {
              "internalType": "uint256[]",
              "name": "amounts",
              "type": "uint256[]"
            },
            {
              "internalType": "uint256",
              "name": "dueDate",
              "type": "uint256"
            },
            {
              "components": [
                {
                  "internalType": "uint8",
                  "name": "schemaVersion",
                  "type": "uint8"
                },
                {
                  "internalType": "string",
                  "name": "value",
                  "type": "string"
                }
              ],
              "internalType": "struct Types.Metadata",
              "name": "metadata",
              "type": "tuple"
            },
            {
              "internalType": "enum Enums.TransactionStatus",
              "name": "status",
              "type": "uint8"
            }
          ],
          "internalType": "struct Types.RecurrentTransaction",
          "name": "",
          "type": "tuple"
        }
      ],
      "stateMutability": "view",
      "type": "function"
    },
    {
      "inputs": [
        {
          "components": [
            {
              "internalType": "address",
              "name": "to",
              "type": "address"
            },
            {
              "internalType": "bytes32",
              "name": "transactionId",
              "type": "bytes32"
            }
          ],
          "internalType": "struct Params.MintReceipt",
          "name": "params",
          "type": "tuple"
        }
      ],
      "name": "mintReceipt",
      "outputs": [],
      "stateMutability": "nonpayable",
      "type": "function"
    },
    {
      "inputs": [
        {
          "internalType": "address",
          "name": "payer",
          "type": "address"
        },
        {
          "internalType": "bytes32",
          "name": "transactionId",
          "type": "bytes32"
        }
      ],
      "name": "onCancel",
      "outputs": [],
      "stateMutability": "nonpayable",
      "type": "function"
    },
    {
      "inputs": [
        {
          "internalType": "bytes32",
          "name": "transactionId",
          "type": "bytes32"
        },
        {
          "internalType": "uint256",
          "name": "amount",
          "type": "uint256"
        }
      ],
      "name": "onComplete",
      "outputs": [],
      "stateMutability": "nonpayable",
      "type": "function"
    },
    {
      "inputs": [
        {
          "internalType": "bytes32",
          "name": "transactionId",
          "type": "bytes32"
        },
        {
          "internalType": "address",
          "name": "payer",
          "type": "address"
        },
        {
          "internalType": "bool",
          "name": "wantsReceipt",
          "type": "bool"
        }
      ],
      "name": "onFulfill",
      "outputs": [
        {
          "internalType": "uint256",
          "name": "amount",
          "type": "uint256"
        },
        {
          "internalType": "address",
          "name": "token",
          "type": "address"
        },
        {
          "internalType": "uint256",
          "name": "dueDate",
          "type": "uint256"
        }
      ],
      "stateMutability": "nonpayable",
      "type": "function"
    },
    {
      "inputs": [],
      "name": "owner",
      "outputs": [
        {
          "internalType": "address",
          "name": "",
          "type": "address"
        }
      ],
      "stateMutability": "view",
      "type": "function"
    },
    {
      "inputs": [],
      "name": "renounceOwnership",
      "outputs": [],
      "stateMutability": "nonpayable",
      "type": "function"
    },
    {
      "inputs": [
        {
          "internalType": "address",
          "name": "newOwner",
          "type": "address"
        }
      ],
      "name": "transferOwnership",
      "outputs": [],
      "stateMutability": "nonpayable",
      "type": "function"
    }
  ],
  "bytecode": "0x6080346100f957601f61164b38819003918201601f19168301916001600160401b038311848410176100fe5780849260409485528339810103126100f95780516001600160a01b03811691908290036100f957602001516001600160a01b038116908190036100f95733156100e35760008054336001600160a01b0319821681178355604051949290916001600160a01b0316907f8be0079c531659141344cd1fd0a4f28419497f9722a3daafe3b4186f6b6457e09080a360018060a01b0319600154161760015560018060a01b0319600254161760025561153690816101158239f35b631e4fbdf760e01b600052600060045260246000fd5b600080fd5b634e487b7160e01b600052604160045260246000fdfe608080604052600436101561001357600080fd5b60009081803560e01c91826311c5ce021461100857505080633ed5027514610f565780634aae13ca14610d555780635de28ae014610d1e578063715018a614610cb85780637cbad19c146109385780638da5cb5b14610912578063b38ffd5f1461087b578063f2fde38b146107d05763ff7f94451461009157600080fd5b346107cd5760403660031901126107cd576100aa611127565b906024359167ffffffffffffffff83116107cb57823603926101806003198501126107bb57604051926100dc846110e8565b6100e882600401611142565b84526100f660248301611142565b6020850152604084019260448301358452606483013567ffffffffffffffff81116107bb5761012b9060043691860101611211565b9260608601938452608481013567ffffffffffffffff81116107c757810196604060031989360301126107c75760405197610165896110b6565b61017160048201611258565b8952602481013567ffffffffffffffff81116107c35761019691369101600401611211565b60208901526080870197885260a482013580151581036107bf5760a088015260c482013560c088015260e482013560038110156107bf5760e0880152608061010319909101126107bb57604051906080820182811067ffffffffffffffff82111761061a576040526101048101358252610164906102176101248201611258565b602084015261014481013560408401520135606082015261010086015261023c6114be565b60035494600186018096116107a75785600355516001600160a01b031693519251956020966040519161026f8984611105565b8483526000368137604051906102858a83611105565b858252600036813751926040519461029c866110e8565b6001600160a01b0316855289850197885260408501968752606085019283526080850190815260a0850191825260c085019242845260e08601948552610100860197600189526040998c8b516102f28d82611105565b601481528181017f526563757272656e745472616e73616374696f6e00000000000000000000000090528c80519e8f9283927f20bed60400000000000000000000000000000000000000000000000000000000845260048401526044830161035991611179565b906024830152038173__$e8a316a189340483dbc2c3c1eb5060a774$__5af49b8c1561079d57899c610761575b508b895260048d528a89209751885473ffffffffffffffffffffffffffffffffffffffff199081166001600160a01b03928316178a55915160018a0180549093169116179055516002870155518051600387019167ffffffffffffffff821161074d578c82916103f68554611326565b601f811161071f575b5081601f84116001146106b957508a926106ae575b50508160011b916000199060031b1c19161790555b51805190600486019067ffffffffffffffff831161069a5768010000000000000000831161069a578b908254848455808510610680575b50019087528a8720875b83811061066e57505050506005840190519081519167ffffffffffffffff831161065a5768010000000000000000831161065a578a908254848455808510610640575b5001908652898620865b83811061062e57505050505160068301556007820190519060ff82511660ff19825416179055866008830191015180519067ffffffffffffffff821161061a576105018354611326565b601f81116105e1575b508890601f831160011461057a5760099493929186918361056f575b50508160011b916000199060031b1c19161790555b01915190600482101561055b575060ff8019835416911617905551908152f35b80634e487b7160e01b602492526021600452fd5b015190503880610526565b8386528986209190601f198416875b8c8282106105cb575050916001939185600998979694106105b2575b505050811b01905561053b565b015160001960f88460031b161c191690553880806105a5565b6001859682939686015181550195019301610589565b61060a908487528a8720601f850160051c8101918c8610610610575b601f0160051c01906114a7565b3861050a565b90915081906105fd565b602485634e487b7160e01b81526041600452fd5b825182820155918b01916001016104b7565b8389528289206106549181019086016114a7565b386104ad565b602487634e487b7160e01b81526041600452fd5b825182820155918c019160010161046a565b838a52828a206106949181019086016114a7565b38610460565b602488634e487b7160e01b81526041600452fd5b015190503880610414565b858c52808c209350601f198516908c905b8282106107075750509084600195949392106106ee575b505050811b019055610429565b015160001960f88460031b161c191690553880806106e1565b806001869782949787015181550196019401906106ca565b61074790868d52838d20601f860160051c81019185871061061057601f0160051c01906114a7565b386103ff565b602489634e487b7160e01b81526041600452fd5b909c809c5081813d8311610796575b61077a8183611105565b8101031261079257519a9b6001600160a01b03610386565b8880fd5b503d610770565b8b513d8b823e3d90fd5b602483634e487b7160e01b81526011600452fd5b8280fd5b8480fd5b8580fd5b8380fd5b505b80fd5b50346107cd5760203660031901126107cd576001600160a01b036107f2611127565b6107fa6114be565b16801561084f576001600160a01b0382548273ffffffffffffffffffffffffffffffffffffffff198216178455167f8be0079c531659141344cd1fd0a4f28419497f9722a3daafe3b4186f6b6457e08380a380f35b6024827f1e4fbdf700000000000000000000000000000000000000000000000000000000815280600452fd5b50346107cd5760403660031901126107cd576004356108986114be565b808252600460205260ff60096040842001541660048110156108fe576108c99060016108c2611266565b91146112a1565b80825260046020526108e2600460408420014290611463565b815260046020526108fb60243560056040842001611463565b80f35b602483634e487b7160e01b81526021600452fd5b50346107cd57806003193601126107cd576001600160a01b036020915416604051908152f35b50346107cd5760603660031901126107cd57600435906024356001600160a01b0381168091036107cb576044359182151583036107cd576109776114be565b838152600460205260ff6009604083200154166004811015610ca4576109a19060016108c2611266565b83815260046020526109ca826001600160a01b03604084205416146109c46112eb565b906112a1565b6001600160a01b03600254169284825260046020528160026040822001546024604051809781937f1f32768e00000000000000000000000000000000000000000000000000000000835260048301525afa938415610c99578294610b8b575b5060c0840151151591610a74604093845190610a458683611105565b600382527f323031000000000000000000000000000000000000000000000000000000000060208301526112a1565b858152600460205282812060060154421115610b765742935b60208601518501809511610b6257868252600460205284600685842001556001600160a01b038487015196511692610ad5575b50506060945081519384526020840152820152f35b8196845191610ae3836110b6565b825260208201526001600160a01b036001541690813b156107bb57845163601eaf3360e01b815281516001600160a01b03166004820152602090910151602482015291908290604490829084905af18015610b5857610b43575b80610ac0565b610b4e868092611105565b6107bf5784610b3d565b83513d88823e3d90fd5b602482634e487b7160e01b81526011600452fd5b85815260046020526006838220015493610a8d565b9093503d8083833e610b9d8183611105565b8101906020818303126107bb5780519067ffffffffffffffff82116107c7570160e0818303126107bb576040519160e0830183811067ffffffffffffffff82111761061a57604052610bee8261144f565b8352602082015160208401526040820151604084015260608201516060840152608082015167ffffffffffffffff81116107bf57820181601f820112156107bf57805190610c3b826111f5565b92610c496040519485611105565b828452602083830101116107c3578291610c6c9160208060c09796019101611156565b6080840152610c7d60a0820161144f565b60a0840152015180151581036107bb5760c08201529238610a29565b6040513d84823e3d90fd5b602482634e487b7160e01b81526021600452fd5b50346107cd57806003193601126107cd57610cd16114be565b806001600160a01b03815473ffffffffffffffffffffffffffffffffffffffff1981168355167f8be0079c531659141344cd1fd0a4f28419497f9722a3daafe3b4186f6b6457e08280a380f35b50346107cd5760203660031901126107cd5760ff6009604060209360043581526004855220015416610d5360405180926111d2565bf35b50346107cd5760203660031901126107cd5780610100604051610d77816110e8565b82815282602082015282604082015260608082015260606080820152606060a08201528260c0820152604051610dac816110b6565b8381526060602082015260e0820152015260043581526004602052604081209060405190610dd9826110e8565b6001600160a01b0383541682526001600160a01b03600184015416926020830193845260028101549060408401918252610e1560038201611360565b60608501908152610e2860048301611404565b60808601908152610e3b60058401611404565b9160a0870192835260068401549460c0880195865260ff600960405196610e61886110b6565b826007820154168852610e7660088201611360565b602089015260e08b01978852015416610100890197600482101561055b5750875260405198899860208a52516001600160a01b031660208a0152516001600160a01b03166040890152516060880152516080870161012090526101408701610edd91611179565b9051868203601f190160a0880152610ef5919061119e565b9051858203601f190160c0870152610f0d919061119e565b915160e085015251601f1984830301610100850152805160ff16825260200151906020810160409052604001610f4291611179565b90516101208301610f52916111d2565b0390f35b50346107cd5760403660031901126107cd57610f70611127565b60243590610f7c6114be565b818352600460205260ff6009604085200154166004811015610ff45790610faa610fd89260016108c2611266565b82845260046020526001600160a01b036040852054166001600160a01b03610fd06112eb565b9216146112a1565b8152600460205260408120600901805460ff1916600317905580f35b602484634e487b7160e01b81526021600452fd5b8190346110b35760403660031901126110b357611024816110b6565b61102c611127565b8152602435602082015261103e6114be565b6001600160a01b0360015416803b156110b15760405163601eaf3360e01b815282516001600160a01b03166004820152602090920151602483015290919081908390604490829084905af180156110a4576110965780f35b61109f91611105565b818180f35b50604051903d90823e3d90fd5b505b50fd5b6040810190811067ffffffffffffffff8211176110d257604052565b634e487b7160e01b600052604160045260246000fd5b610120810190811067ffffffffffffffff8211176110d257604052565b90601f8019910116810190811067ffffffffffffffff8211176110d257604052565b600435906001600160a01b038216820361113d57565b600080fd5b35906001600160a01b038216820361113d57565b60005b8381106111695750506000910152565b8181015183820152602001611159565b9060209161119281518092818552858086019101611156565b601f01601f1916010190565b906020808351928381520192019060005b8181106111bc5750505090565b82518452602093840193909201916001016111af565b9060048210156111df5752565b634e487b7160e01b600052602160045260246000fd5b67ffffffffffffffff81116110d257601f01601f191660200190565b81601f8201121561113d57803590611228826111f5565b926112366040519485611105565b8284526020838301011161113d57816000926020809301838601378301015290565b359060ff8216820361113d57565b60405190611275604083611105565b600382527f31303300000000000000000000000000000000000000000000000000000000006020830152565b156112a95750565b6112e7906040519182917f08c379a0000000000000000000000000000000000000000000000000000000008352602060048401526024830190611179565b0390fd5b604051906112fa604083611105565b600382527f31303400000000000000000000000000000000000000000000000000000000006020830152565b90600182811c92168015611356575b602083101461134057565b634e487b7160e01b600052602260045260246000fd5b91607f1691611335565b906040519182600082549261137484611326565b80845293600181169081156113e2575060011461139b575b5061139992500383611105565b565b90506000929192526020600020906000915b8183106113c6575050906020611399928201013861138c565b60209193508060019154838589010152019101909184926113ad565b90506020925061139994915060ff191682840152151560051b8201013861138c565b906040519182815491828252602082019060005260206000209260005b81811061143657505061139992500383611105565b8454835260019485019487945060209093019201611421565b51906001600160a01b038216820361113d57565b805490680100000000000000008210156110d257600182018082558210156114915760005260206000200155565b634e487b7160e01b600052603260045260246000fd5b8181106114b2575050565b600081556001016114a7565b6001600160a01b036000541633036114d257565b7f118cdaa7000000000000000000000000000000000000000000000000000000006000523360045260246000fdfea26469706673582212209c3abd60ff06c3766d12c90b6ceaec795d38be5f9459ea117895fe5d087edc3964736f6c634300081c0033",
  "linkReferences": {
    "contracts/libs/HashLib.sol": {
      "HashLib": [
        {
          "length": 20,
          "start": 1144
        }
      ]
    }
  },
  "deployedLinkReferences": {
    "contracts/libs/HashLib.sol": {
      "HashLib": [
        {
          "length": 20,
          "start": 867
        }
      ]
    }
  }
}