{
  "_format": "hh-sol-artifact-1",
  "contractName": "RecurrentTransaction",
  "sourceName": "contracts/transactions/RecurrentTransaction.sol",
  "abi": [
    {
      "inputs": [
        {
          "internalType": "contract IReceipt",
          "name": "receipt_",
          "type": "address"
        },
        {
          "internalType": "contract IMerchant",
          "name": "merchant_",
          "type": "address"
        }
      ],
      "stateMutability": "nonpayable",
      "type": "constructor"
    },
    {
      "inputs": [
        {
          "internalType": "address",
          "name": "owner",
          "type": "address"
        }
      ],
      "name": "OwnableInvalidOwner",
      "type": "error"
    },
    {
      "inputs": [
        {
          "internalType": "address",
          "name": "account",
          "type": "address"
        }
      ],
      "name": "OwnableUnauthorizedAccount",
      "type": "error"
    },
    {
      "anonymous": false,
      "inputs": [
        {
          "indexed": true,
          "internalType": "address",
          "name": "previousOwner",
          "type": "address"
        },
        {
          "indexed": true,
          "internalType": "address",
          "name": "newOwner",
          "type": "address"
        }
      ],
      "name": "OwnershipTransferred",
      "type": "event"
    },
    {
      "inputs": [
        {
          "internalType": "address",
          "name": "payer",
          "type": "address"
        },
        {
          "components": [
            {
              "internalType": "address",
              "name": "merchant",
              "type": "address"
            },
            {
              "internalType": "address",
              "name": "tokenB",
              "type": "address"
            },
            {
              "internalType": "bytes32",
              "name": "subscriptionId",
              "type": "bytes32"
            },
            {
              "internalType": "string",
              "name": "description",
              "type": "string"
            },
            {
              "components": [
                {
                  "internalType": "uint8",
                  "name": "schemaVersion",
                  "type": "uint8"
                },
                {
                  "internalType": "string",
                  "name": "value",
                  "type": "string"
                }
              ],
              "internalType": "struct Types.Metadata",
              "name": "metadata",
              "type": "tuple"
            },
            {
              "internalType": "uint256",
              "name": "slippage",
              "type": "uint256"
            },
            {
              "internalType": "uint256",
              "name": "healthFactorMultiplier",
              "type": "uint256"
            },
            {
              "internalType": "enum Enums.TransactionRoute",
              "name": "route",
              "type": "uint8"
            },
            {
              "components": [
                {
                  "internalType": "uint256",
                  "name": "deadline",
                  "type": "uint256"
                },
                {
                  "internalType": "uint8",
                  "name": "v",
                  "type": "uint8"
                },
                {
                  "internalType": "bytes32",
                  "name": "r",
                  "type": "bytes32"
                },
                {
                  "internalType": "bytes32",
                  "name": "s",
                  "type": "bytes32"
                }
              ],
              "internalType": "struct Params.Signature",
              "name": "signature",
              "type": "tuple"
            }
          ],
          "internalType": "struct Params.CreateRecurrentTransaction",
          "name": "params",
          "type": "tuple"
        }
      ],
      "name": "create",
      "outputs": [
        {
          "internalType": "bytes32",
          "name": "transactionId",
          "type": "bytes32"
        }
      ],
      "stateMutability": "nonpayable",
      "type": "function"
    },
    {
      "inputs": [
        {
          "internalType": "bytes32",
          "name": "transactionId",
          "type": "bytes32"
        }
      ],
      "name": "getStatus",
      "outputs": [
        {
          "internalType": "enum Enums.TransactionStatus",
          "name": "",
          "type": "uint8"
        }
      ],
      "stateMutability": "view",
      "type": "function"
    },
    {
      "inputs": [
        {
          "internalType": "bytes32",
          "name": "transactionId",
          "type": "bytes32"
        }
      ],
      "name": "getTransaction",
      "outputs": [
        {
          "components": [
            {
              "internalType": "address",
              "name": "payer",
              "type": "address"
            },
            {
              "internalType": "address",
              "name": "merchant",
              "type": "address"
            },
            {
              "internalType": "bytes32",
              "name": "subscriptionId",
              "type": "bytes32"
            },
            {
              "internalType": "string",
              "name": "description",
              "type": "string"
            },
            {
              "internalType": "uint256[]",
              "name": "timestamps",
              "type": "uint256[]"
            },
            {
              "internalType": "uint256[]",
              "name": "amounts",
              "type": "uint256[]"
            },
            {
              "internalType": "uint256",
              "name": "dueDate",
              "type": "uint256"
            },
            {
              "components": [
                {
                  "internalType": "uint8",
                  "name": "schemaVersion",
                  "type": "uint8"
                },
                {
                  "internalType": "string",
                  "name": "value",
                  "type": "string"
                }
              ],
              "internalType": "struct Types.Metadata",
              "name": "metadata",
              "type": "tuple"
            },
            {
              "internalType": "enum Enums.TransactionStatus",
              "name": "status",
              "type": "uint8"
            }
          ],
          "internalType": "struct Types.RecurrentTransaction",
          "name": "",
          "type": "tuple"
        }
      ],
      "stateMutability": "view",
      "type": "function"
    },
    {
      "inputs": [
        {
          "components": [
            {
              "internalType": "address",
              "name": "to",
              "type": "address"
            },
            {
              "internalType": "bytes32",
              "name": "transactionId",
              "type": "bytes32"
            },
            {
              "internalType": "string",
              "name": "URI",
              "type": "string"
            }
          ],
          "internalType": "struct Params.MintReceipt",
          "name": "params",
          "type": "tuple"
        }
      ],
      "name": "mintReceipt",
      "outputs": [],
      "stateMutability": "nonpayable",
      "type": "function"
    },
    {
      "inputs": [
        {
          "internalType": "address",
          "name": "payer",
          "type": "address"
        },
        {
          "internalType": "bytes32",
          "name": "transactionId",
          "type": "bytes32"
        }
      ],
      "name": "onCancel",
      "outputs": [],
      "stateMutability": "nonpayable",
      "type": "function"
    },
    {
      "inputs": [
        {
          "internalType": "bytes32",
          "name": "transactionId",
          "type": "bytes32"
        },
        {
          "internalType": "uint256",
          "name": "amount",
          "type": "uint256"
        }
      ],
      "name": "onComplete",
      "outputs": [],
      "stateMutability": "nonpayable",
      "type": "function"
    },
    {
      "inputs": [
        {
          "internalType": "bytes32",
          "name": "transactionId",
          "type": "bytes32"
        },
        {
          "internalType": "address",
          "name": "payer",
          "type": "address"
        }
      ],
      "name": "onFulfill",
      "outputs": [
        {
          "internalType": "uint256",
          "name": "amount",
          "type": "uint256"
        },
        {
          "internalType": "address",
          "name": "token",
          "type": "address"
        },
        {
          "internalType": "uint256",
          "name": "dueDate",
          "type": "uint256"
        }
      ],
      "stateMutability": "nonpayable",
      "type": "function"
    },
    {
      "inputs": [],
      "name": "owner",
      "outputs": [
        {
          "internalType": "address",
          "name": "",
          "type": "address"
        }
      ],
      "stateMutability": "view",
      "type": "function"
    },
    {
      "inputs": [],
      "name": "renounceOwnership",
      "outputs": [],
      "stateMutability": "nonpayable",
      "type": "function"
    },
    {
      "inputs": [
        {
          "internalType": "address",
          "name": "newOwner",
          "type": "address"
        }
      ],
      "name": "transferOwnership",
      "outputs": [],
      "stateMutability": "nonpayable",
      "type": "function"
    }
  ],
  "bytecode": "0x6080346100f957601f61164138819003918201601f19168301916001600160401b038311848410176100fe5780849260409485528339810103126100f95780516001600160a01b03811691908290036100f957602001516001600160a01b038116908190036100f95733156100e35760008054336001600160a01b0319821681178355604051949290916001600160a01b0316907f8be0079c531659141344cd1fd0a4f28419497f9722a3daafe3b4186f6b6457e09080a360018060a01b0319600154161760015560018060a01b0319600254161760025561152c90816101158239f35b631e4fbdf760e01b600052600060045260246000fd5b600080fd5b634e487b7160e01b600052604160045260246000fdfe6080604052600436101561001257600080fd5b6000803560e01c80632d926e4614610dce5780633ed5027514610d1c5780634aae13ca14610b1b5780635de28ae014610ae4578063715018a614610a7e5780638da5cb5b14610a58578063b38ffd5f146109c1578063eb70fc281461086e578063eccad175146101385763f2fde38b1461008b57600080fd5b34610135576020366003190112610135576001600160a01b036100ac6110ac565b6100b46114b4565b168015610109576001600160a01b0382548273ffffffffffffffffffffffffffffffffffffffff198216178455167f8be0079c531659141344cd1fd0a4f28419497f9722a3daafe3b4186f6b6457e08380a380f35b6024827f1e4fbdf700000000000000000000000000000000000000000000000000000000815280600452fd5b80fd5b5034610135576040366003190112610135576101526110ac565b906024359167ffffffffffffffff831161086a578236039261018060031985011261085a57604051926101848461117a565b610190826004016110c7565b845261019e602483016110c7565b6020850152604084019260448301358452606483013567ffffffffffffffff811161085a576101d39060043691860101611207565b9260608601938452608481013567ffffffffffffffff81116108665781019660406003198936030112610866576040519761020d896111ad565b6102196004820161124e565b8952602481013567ffffffffffffffff81116108625761023e91369101600401611207565b60208901526080870197885260a482013560a088015260c482013560c088015260e4820135600381101561085e5760e08801526080610103199091011261085a57604051906080820182811067ffffffffffffffff8211176106b9576040526101048101358252610164906102b6610124820161124e565b60208401526101448101356040840152013560608201526101008601526102db6114b4565b60035494600186018096116108465785600355516001600160a01b031693519251956020966040519161030e89846111c9565b8483526000368137604051906103248a836111c9565b858252600036813751926040519461033b8661117a565b6001600160a01b0316855289850197885260408501968752606085019283526080850190815260a0850191825260c085019242845260e08601948552610100860197600189526040998c8b516103918d826111c9565b601481528181017f526563757272656e745472616e73616374696f6e00000000000000000000000090528c80519e8f9283927f20bed6040000000000000000000000000000000000000000000000000000000084526004840152604483016103f8916110fe565b906024830152038173__$e8a316a189340483dbc2c3c1eb5060a774$__5af49b8c1561083c57899c610800575b508b895260048d528a89209751885473ffffffffffffffffffffffffffffffffffffffff199081166001600160a01b03928316178a55915160018a0180549093169116179055516002870155518051600387019167ffffffffffffffff82116107ec578c82916104958554611330565b601f81116107be575b5081601f841160011461075857508a9261074d575b50508160011b916000199060031b1c19161790555b51805190600486019067ffffffffffffffff831161073957680100000000000000008311610739578b90825484845580851061071f575b50019087528a8720875b83811061070d57505050506005840190519081519167ffffffffffffffff83116106f9576801000000000000000083116106f9578a9082548484558085106106df575b5001908652898620865b8381106106cd57505050505160068301556007820190519060ff82511660ff19825416179055866008830191015180519067ffffffffffffffff82116106b9576105a08354611330565b601f8111610680575b508890601f83116001146106195760099493929186918361060e575b50508160011b916000199060031b1c19161790555b0191519060048210156105fa575060ff8019835416911617905551908152f35b80634e487b7160e01b602492526021600452fd5b0151905038806105c5565b8386528986209190601f198416875b8c82821061066a57505091600193918560099897969410610651575b505050811b0190556105da565b015160001960f88460031b161c19169055388080610644565b6001859682939686015181550195019301610628565b6106a9908487528a8720601f850160051c8101918c86106106af575b601f0160051c019061149d565b386105a9565b909150819061069c565b602485634e487b7160e01b81526041600452fd5b825182820155918b0191600101610556565b8389528289206106f391810190860161149d565b3861054c565b602487634e487b7160e01b81526041600452fd5b825182820155918c0191600101610509565b838a52828a2061073391810190860161149d565b386104ff565b602488634e487b7160e01b81526041600452fd5b0151905038806104b3565b858c52808c209350601f198516908c905b8282106107a657505090846001959493921061078d575b505050811b0190556104c8565b015160001960f88460031b161c19169055388080610780565b80600186978294978701518155019601940190610769565b6107e690868d52838d20601f860160051c8101918587106106af57601f0160051c019061149d565b3861049e565b602489634e487b7160e01b81526041600452fd5b909c809c5081813d8311610835575b61081981836111c9565b8101031261083157519a9b6001600160a01b03610425565b8880fd5b503d61080f565b8b513d8b823e3d90fd5b602483634e487b7160e01b81526011600452fd5b8280fd5b8480fd5b8580fd5b8380fd5b5080fd5b50346101355760203660031901126101355760043567ffffffffffffffff811161086a576060600319823603011261086a576040516060810181811067ffffffffffffffff8211176109ad5760405282906108cb600484016110c7565b815260208101926024810135845260448101359067ffffffffffffffff82116108665760046108fd9236920101611207565b926040820193845261090d6114b4565b6001600160a01b0360015416803b15610866576001600160a01b03848094610981604051988996879586947fcab723650000000000000000000000000000000000000000000000000000000086526020600487015251166024850152516044840152516060606484015260848301906110fe565b03925af180156109a0576109925780f35b61099b916111c9565b388180f35b50604051903d90823e3d90fd5b602484634e487b7160e01b81526041600452fd5b5034610135576040366003190112610135576004356109de6114b4565b808252600460205260ff6009604084200154166004811015610a4457610a0f906001610a0861125c565b9114611297565b8082526004602052610a28600460408420014290611459565b81526004602052610a4160243560056040842001611459565b80f35b602483634e487b7160e01b81526021600452fd5b50346101355780600319360112610135576001600160a01b036020915416604051908152f35b5034610135578060031936011261013557610a976114b4565b806001600160a01b03815473ffffffffffffffffffffffffffffffffffffffff1981168355167f8be0079c531659141344cd1fd0a4f28419497f9722a3daafe3b4186f6b6457e08280a380f35b50346101355760203660031901126101355760ff6009604060209360043581526004855220015416610b196040518092611157565bf35b50346101355760203660031901126101355780610100604051610b3d8161117a565b82815282602082015282604082015260608082015260606080820152606060a08201528260c0820152604051610b72816111ad565b8381526060602082015260e0820152015260043581526004602052604081209060405190610b9f8261117a565b6001600160a01b0383541682526001600160a01b03600184015416926020830193845260028101549060408401918252610bdb6003820161136a565b60608501908152610bee6004830161140e565b60808601908152610c016005840161140e565b9160a0870192835260068401549460c0880195865260ff600960405196610c27886111ad565b826007820154168852610c3c6008820161136a565b602089015260e08b0197885201541661010089019760048210156105fa5750875260405198899860208a52516001600160a01b031660208a0152516001600160a01b03166040890152516060880152516080870161012090526101408701610ca3916110fe565b9051868203601f190160a0880152610cbb9190611123565b9051858203601f190160c0870152610cd39190611123565b915160e085015251601f1984830301610100850152805160ff16825260200151906020810160409052604001610d08916110fe565b90516101208301610d1891611157565b0390f35b503461013557604036600319011261013557610d366110ac565b60243590610d426114b4565b818352600460205260ff6009604085200154166004811015610dba5790610d70610d9e926001610a0861125c565b82845260046020526001600160a01b036040852054166001600160a01b03610d966112e1565b921614611297565b8152600460205260408120600901805460ff1916600317905580f35b602484634e487b7160e01b81526021600452fd5b5034610135576040366003190112610135576004356024356001600160a01b03811680910361085a57610dff6114b4565b818352600460205260ff6009604085200154166004811015610dba5790610e2d610e52926001610a0861125c565b82845260046020526001600160a01b0360408520541614610e4c6112e1565b90611297565b6001600160a01b03600254169080835260046020528260026040822001546024604051809581937f1f32768e00000000000000000000000000000000000000000000000000000000835260048301525afa9182156110a1578392610f7b575b5060c08201511515610efb604091825190610ecc84836111c9565b600382527f32303100000000000000000000000000000000000000000000000000000000006020830152611297565b818452600460205280842060060154421115610f665742915b60208401518301809311610f52576006828685936060985260046020522001556001600160a01b038184015193511681519384526020840152820152f35b602485634e487b7160e01b81526011600452fd5b81845260046020526006818520015491610f14565b9091503d8084833e610f8d81836111c9565b8101906020818303126108665780519067ffffffffffffffff821161085e57019060e082820312610866576040519160e0830183811067ffffffffffffffff82111761108d57604052610fdf8161131c565b8352602081015160208401526040810151604084015260608101516060840152608081015167ffffffffffffffff81116108625781019180601f840112156108625782519261102d846111eb565b9161103b60405193846111c9565b848352602085830101116110895760c09361105c91602080850191016110db565b608084015261106d60a0820161131c565b60a0840152015180151581036108665760c08201529038610eb1565b8680fd5b602486634e487b7160e01b81526041600452fd5b6040513d85823e3d90fd5b600435906001600160a01b03821682036110c257565b600080fd5b35906001600160a01b03821682036110c257565b60005b8381106110ee5750506000910152565b81810151838201526020016110de565b90602091611117815180928185528580860191016110db565b601f01601f1916010190565b906020808351928381520192019060005b8181106111415750505090565b8251845260209384019390920191600101611134565b9060048210156111645752565b634e487b7160e01b600052602160045260246000fd5b610120810190811067ffffffffffffffff82111761119757604052565b634e487b7160e01b600052604160045260246000fd5b6040810190811067ffffffffffffffff82111761119757604052565b90601f8019910116810190811067ffffffffffffffff82111761119757604052565b67ffffffffffffffff811161119757601f01601f191660200190565b81601f820112156110c25780359061121e826111eb565b9261122c60405194856111c9565b828452602083830101116110c257816000926020809301838601378301015290565b359060ff821682036110c257565b6040519061126b6040836111c9565b600382527f31303300000000000000000000000000000000000000000000000000000000006020830152565b1561129f5750565b6112dd906040519182917f08c379a00000000000000000000000000000000000000000000000000000000083526020600484015260248301906110fe565b0390fd5b604051906112f06040836111c9565b600382527f31303400000000000000000000000000000000000000000000000000000000006020830152565b51906001600160a01b03821682036110c257565b90600182811c92168015611360575b602083101461134a57565b634e487b7160e01b600052602260045260246000fd5b91607f169161133f565b906040519182600082549261137e84611330565b80845293600181169081156113ec57506001146113a5575b506113a3925003836111c9565b565b90506000929192526020600020906000915b8183106113d05750509060206113a39282010138611396565b60209193508060019154838589010152019101909184926113b7565b9050602092506113a394915060ff191682840152151560051b82010138611396565b906040519182815491828252602082019060005260206000209260005b8181106114405750506113a3925003836111c9565b845483526001948501948794506020909301920161142b565b8054906801000000000000000082101561119757600182018082558210156114875760005260206000200155565b634e487b7160e01b600052603260045260246000fd5b8181106114a8575050565b6000815560010161149d565b6001600160a01b036000541633036114c857565b7f118cdaa7000000000000000000000000000000000000000000000000000000006000523360045260246000fdfea2646970667358221220396c61051122c9755d8e402e82d2079a4f85253dc7d1bbb23401e05887fab00c64736f6c634300081c0033",
  "linkReferences": {
    "contracts/libs/HashLib.sol": {
      "HashLib": [
        {
          "length": 20,
          "start": 1303
        }
      ]
    }
  },
  "deployedLinkReferences": {
    "contracts/libs/HashLib.sol": {
      "HashLib": [
        {
          "length": 20,
          "start": 1026
        }
      ]
    }
  }
}