{
  "_format": "hh-sol-artifact-1",
  "contractName": "RecurrentTransaction",
  "sourceName": "contracts/transactions/RecurrentTransaction.sol",
  "abi": [
    {
      "inputs": [
        {
          "internalType": "contract IReceipt",
          "name": "receipt_",
          "type": "address"
        },
        {
          "internalType": "contract IMerchant",
          "name": "merchant_",
          "type": "address"
        }
      ],
      "stateMutability": "nonpayable",
      "type": "constructor"
    },
    {
      "inputs": [
        {
          "internalType": "address",
          "name": "owner",
          "type": "address"
        }
      ],
      "name": "OwnableInvalidOwner",
      "type": "error"
    },
    {
      "inputs": [
        {
          "internalType": "address",
          "name": "account",
          "type": "address"
        }
      ],
      "name": "OwnableUnauthorizedAccount",
      "type": "error"
    },
    {
      "anonymous": false,
      "inputs": [
        {
          "indexed": true,
          "internalType": "address",
          "name": "previousOwner",
          "type": "address"
        },
        {
          "indexed": true,
          "internalType": "address",
          "name": "newOwner",
          "type": "address"
        }
      ],
      "name": "OwnershipTransferred",
      "type": "event"
    },
    {
      "inputs": [
        {
          "internalType": "address",
          "name": "payer",
          "type": "address"
        },
        {
          "components": [
            {
              "internalType": "address",
              "name": "merchant",
              "type": "address"
            },
            {
              "internalType": "address",
              "name": "tokenB",
              "type": "address"
            },
            {
              "internalType": "bytes32",
              "name": "subscriptionId",
              "type": "bytes32"
            },
            {
              "internalType": "string",
              "name": "description",
              "type": "string"
            },
            {
              "components": [
                {
                  "internalType": "uint8",
                  "name": "schemaVersion",
                  "type": "uint8"
                },
                {
                  "internalType": "string",
                  "name": "value",
                  "type": "string"
                }
              ],
              "internalType": "struct Types.Metadata",
              "name": "metadata",
              "type": "tuple"
            },
            {
              "internalType": "uint256",
              "name": "healthFactorMultiplier",
              "type": "uint256"
            },
            {
              "internalType": "enum Enums.TransactionRoute",
              "name": "route",
              "type": "uint8"
            },
            {
              "components": [
                {
                  "internalType": "uint256",
                  "name": "deadline",
                  "type": "uint256"
                },
                {
                  "internalType": "uint8",
                  "name": "v",
                  "type": "uint8"
                },
                {
                  "internalType": "bytes32",
                  "name": "r",
                  "type": "bytes32"
                },
                {
                  "internalType": "bytes32",
                  "name": "s",
                  "type": "bytes32"
                }
              ],
              "internalType": "struct Params.Signature",
              "name": "signature",
              "type": "tuple"
            }
          ],
          "internalType": "struct Params.CreateRecurrentTransaction",
          "name": "params",
          "type": "tuple"
        }
      ],
      "name": "create",
      "outputs": [
        {
          "internalType": "bytes32",
          "name": "transactionId",
          "type": "bytes32"
        }
      ],
      "stateMutability": "nonpayable",
      "type": "function"
    },
    {
      "inputs": [
        {
          "internalType": "bytes32",
          "name": "transactionId",
          "type": "bytes32"
        }
      ],
      "name": "getStatus",
      "outputs": [
        {
          "internalType": "enum Enums.TransactionStatus",
          "name": "",
          "type": "uint8"
        }
      ],
      "stateMutability": "view",
      "type": "function"
    },
    {
      "inputs": [
        {
          "internalType": "bytes32",
          "name": "transactionId",
          "type": "bytes32"
        }
      ],
      "name": "getTransaction",
      "outputs": [
        {
          "components": [
            {
              "internalType": "address",
              "name": "payer",
              "type": "address"
            },
            {
              "internalType": "address",
              "name": "merchant",
              "type": "address"
            },
            {
              "internalType": "bytes32",
              "name": "subscriptionId",
              "type": "bytes32"
            },
            {
              "internalType": "string",
              "name": "description",
              "type": "string"
            },
            {
              "internalType": "uint256[]",
              "name": "timestamps",
              "type": "uint256[]"
            },
            {
              "internalType": "uint256[]",
              "name": "amounts",
              "type": "uint256[]"
            },
            {
              "internalType": "uint256",
              "name": "dueDate",
              "type": "uint256"
            },
            {
              "components": [
                {
                  "internalType": "uint8",
                  "name": "schemaVersion",
                  "type": "uint8"
                },
                {
                  "internalType": "string",
                  "name": "value",
                  "type": "string"
                }
              ],
              "internalType": "struct Types.Metadata",
              "name": "metadata",
              "type": "tuple"
            },
            {
              "internalType": "enum Enums.TransactionStatus",
              "name": "status",
              "type": "uint8"
            }
          ],
          "internalType": "struct Types.RecurrentTransaction",
          "name": "",
          "type": "tuple"
        }
      ],
      "stateMutability": "view",
      "type": "function"
    },
    {
      "inputs": [
        {
          "components": [
            {
              "internalType": "address",
              "name": "to",
              "type": "address"
            },
            {
              "internalType": "bytes32",
              "name": "transactionId",
              "type": "bytes32"
            },
            {
              "internalType": "string",
              "name": "URI",
              "type": "string"
            }
          ],
          "internalType": "struct Params.MintReceipt",
          "name": "params",
          "type": "tuple"
        }
      ],
      "name": "mintReceipt",
      "outputs": [],
      "stateMutability": "nonpayable",
      "type": "function"
    },
    {
      "inputs": [
        {
          "internalType": "address",
          "name": "payer",
          "type": "address"
        },
        {
          "internalType": "bytes32",
          "name": "transactionId",
          "type": "bytes32"
        }
      ],
      "name": "onCancel",
      "outputs": [],
      "stateMutability": "nonpayable",
      "type": "function"
    },
    {
      "inputs": [
        {
          "internalType": "bytes32",
          "name": "transactionId",
          "type": "bytes32"
        },
        {
          "internalType": "uint256",
          "name": "amount",
          "type": "uint256"
        }
      ],
      "name": "onComplete",
      "outputs": [],
      "stateMutability": "nonpayable",
      "type": "function"
    },
    {
      "inputs": [
        {
          "internalType": "bytes32",
          "name": "transactionId",
          "type": "bytes32"
        },
        {
          "internalType": "address",
          "name": "payer",
          "type": "address"
        }
      ],
      "name": "onFulfill",
      "outputs": [
        {
          "internalType": "uint256",
          "name": "amount",
          "type": "uint256"
        },
        {
          "internalType": "address",
          "name": "token",
          "type": "address"
        },
        {
          "internalType": "uint256",
          "name": "dueDate",
          "type": "uint256"
        }
      ],
      "stateMutability": "nonpayable",
      "type": "function"
    },
    {
      "inputs": [],
      "name": "owner",
      "outputs": [
        {
          "internalType": "address",
          "name": "",
          "type": "address"
        }
      ],
      "stateMutability": "view",
      "type": "function"
    },
    {
      "inputs": [],
      "name": "renounceOwnership",
      "outputs": [],
      "stateMutability": "nonpayable",
      "type": "function"
    },
    {
      "inputs": [
        {
          "internalType": "address",
          "name": "newOwner",
          "type": "address"
        }
      ],
      "name": "transferOwnership",
      "outputs": [],
      "stateMutability": "nonpayable",
      "type": "function"
    }
  ],
  "bytecode": "0x6080346100f957601f61165838819003918201601f19168301916001600160401b038311848410176100fe5780849260409485528339810103126100f95780516001600160a01b03811691908290036100f957602001516001600160a01b038116908190036100f95733156100e35760008054336001600160a01b0319821681178355604051949290916001600160a01b0316907f8be0079c531659141344cd1fd0a4f28419497f9722a3daafe3b4186f6b6457e09080a360018060a01b0319600154161760015560018060a01b0319600254161760025561154390816101158239f35b631e4fbdf760e01b600052600060045260246000fd5b600080fd5b634e487b7160e01b600052604160045260246000fdfe6080604052600436101561001257600080fd5b6000803560e01c80632d926e4614610de55780633ed5027514610d335780634aae13ca14610b325780635de28ae014610afb578063715018a614610a955780638441a89c146103505780638da5cb5b1461032a578063b38ffd5f14610293578063eb70fc28146101385763f2fde38b1461008b57600080fd5b34610135576020366003190112610135576001600160a01b036100ac6110c3565b6100b46114cb565b168015610109576001600160a01b0382548273ffffffffffffffffffffffffffffffffffffffff198216178455167f8be0079c531659141344cd1fd0a4f28419497f9722a3daafe3b4186f6b6457e08380a380f35b6024827f1e4fbdf700000000000000000000000000000000000000000000000000000000815280600452fd5b80fd5b50346101355760203660031901126101355760043567ffffffffffffffff811161028f576060600319823603011261028f576040516060810181811067ffffffffffffffff82111761027b576040528290610195600484016110de565b815260208101926024810135845260448101359067ffffffffffffffff82116102775760046101c7923692010161121e565b92604082019384526101d76114cb565b6001600160a01b0360015416803b15610277576001600160a01b0384809461024b604051988996879586947fcab72365000000000000000000000000000000000000000000000000000000008652602060048701525116602485015251604484015251606060648401526084830190611115565b03925af1801561026a5761025c5780f35b610265916111e0565b388180f35b50604051903d90823e3d90fd5b8380fd5b602484634e487b7160e01b81526041600452fd5b5080fd5b5034610135576040366003190112610135576004356102b06114cb565b808252600460205260ff6009604084200154166004811015610316576102e19060016102da611273565b91146112ae565b80825260046020526102fa600460408420014290611487565b8152600460205261031360243560056040842001611487565b80f35b602483634e487b7160e01b81526021600452fd5b50346101355780600319360112610135576001600160a01b036020915416604051908152f35b50346101355760403660031901126101355761036a6110c3565b906024359167ffffffffffffffff831161028f5782360392610160600319850112610a755760405192610100840184811067ffffffffffffffff821117610a81576040526103ba826004016110de565b84526103c8602483016110de565b6020850152604084019260448301358452606483013567ffffffffffffffff8111610a75576103fd906004369186010161121e565b9260608601938452608481013567ffffffffffffffff811161027757810196604060031989360301126102775760405197610437896111c4565b61044360048201611265565b8952602481013567ffffffffffffffff8111610a7d576104689136910160040161121e565b60208901526080870197885260a482013560a088015260c48201356003811015610a795760c0880152608060e31990910112610a7557604051906080820182811067ffffffffffffffff8211176108d45760405260e48101358252610144906104d46101048201611265565b602084015261012481013560408401520135606082015260e08601526104f86114cb565b6003549460018601809611610a615785600355516001600160a01b031693519251956020966040519161052b89846111e0565b84835284368137604051906105408a836111e0565b8582528536813751926040519461055686611191565b6001600160a01b0316855289850197885260408501968752606085019283526080850190815260a0850191825260c085019242845260e08601948552610100860197600189526040998c8b516105ac8d826111e0565b601481528181017f526563757272656e745472616e73616374696f6e00000000000000000000000090528c80519e8f9283927f20bed60400000000000000000000000000000000000000000000000000000000845260048401526044830161061391611115565b906024830152038173__$e8a316a189340483dbc2c3c1eb5060a774$__5af49b8c15610a5757899c610a1b575b508b895260048d528a89209751885473ffffffffffffffffffffffffffffffffffffffff199081166001600160a01b03928316178a55915160018a0180549093169116179055516002870155518051600387019167ffffffffffffffff8211610a07578c82916106b08554611347565b601f81116109d9575b5081601f841160011461097357508a92610968575b50508160011b916000199060031b1c19161790555b51805190600486019067ffffffffffffffff831161095457680100000000000000008311610954578b90825484845580851061093a575b50019087528a8720875b83811061092857505050506005840190519081519167ffffffffffffffff831161091457680100000000000000008311610914578a9082548484558085106108fa575b5001908652898620865b8381106108e857505050505160068301556007820190519060ff82511660ff19825416179055866008830191015180519067ffffffffffffffff82116108d4576107bb8354611347565b601f811161089b575b508890601f831160011461083457600994939291869183610829575b50508160011b916000199060031b1c19161790555b019151906004821015610815575060ff8019835416911617905551908152f35b80634e487b7160e01b602492526021600452fd5b0151905038806107e0565b8386528986209190601f198416875b8c8282106108855750509160019391856009989796941061086c575b505050811b0190556107f5565b015160001960f88460031b161c1916905538808061085f565b6001859682939686015181550195019301610843565b6108c4908487528a8720601f850160051c8101918c86106108ca575b601f0160051c0190611470565b386107c4565b90915081906108b7565b602485634e487b7160e01b81526041600452fd5b825182820155918b0191600101610771565b83895282892061090e918101908601611470565b38610767565b602487634e487b7160e01b81526041600452fd5b825182820155918c0191600101610724565b838a52828a2061094e918101908601611470565b3861071a565b602488634e487b7160e01b81526041600452fd5b0151905038806106ce565b858c52808c209350601f198516908c905b8282106109c15750509084600195949392106109a8575b505050811b0190556106e3565b015160001960f88460031b161c1916905538808061099b565b80600186978294978701518155019601940190610984565b610a0190868d52838d20601f860160051c8101918587106108ca57601f0160051c0190611470565b386106b9565b602489634e487b7160e01b81526041600452fd5b909c809c5081813d8311610a50575b610a3481836111e0565b81010312610a4c57519a9b6001600160a01b03610640565b8880fd5b503d610a2a565b8b513d8b823e3d90fd5b602483634e487b7160e01b81526011600452fd5b8280fd5b8480fd5b8580fd5b602482634e487b7160e01b81526041600452fd5b5034610135578060031936011261013557610aae6114cb565b806001600160a01b03815473ffffffffffffffffffffffffffffffffffffffff1981168355167f8be0079c531659141344cd1fd0a4f28419497f9722a3daafe3b4186f6b6457e08280a380f35b50346101355760203660031901126101355760ff6009604060209360043581526004855220015416610b30604051809261116e565bf35b50346101355760203660031901126101355780610100604051610b5481611191565b82815282602082015282604082015260608082015260606080820152606060a08201528260c0820152604051610b89816111c4565b8381526060602082015260e0820152015260043581526004602052604081209060405190610bb682611191565b6001600160a01b0383541682526001600160a01b03600184015416926020830193845260028101549060408401918252610bf260038201611381565b60608501908152610c0560048301611425565b60808601908152610c1860058401611425565b9160a0870192835260068401549460c0880195865260ff600960405196610c3e886111c4565b826007820154168852610c5360088201611381565b602089015260e08b0197885201541661010089019760048210156108155750875260405198899860208a52516001600160a01b031660208a0152516001600160a01b03166040890152516060880152516080870161012090526101408701610cba91611115565b9051868203601f190160a0880152610cd2919061113a565b9051858203601f190160c0870152610cea919061113a565b915160e085015251601f1984830301610100850152805160ff16825260200151906020810160409052604001610d1f91611115565b90516101208301610d2f9161116e565b0390f35b503461013557604036600319011261013557610d4d6110c3565b60243590610d596114cb565b818352600460205260ff6009604085200154166004811015610dd15790610d87610db59260016102da611273565b82845260046020526001600160a01b036040852054166001600160a01b03610dad6112f8565b9216146112ae565b8152600460205260408120600901805460ff1916600317905580f35b602484634e487b7160e01b81526021600452fd5b5034610135576040366003190112610135576004356024356001600160a01b038116809103610a7557610e166114cb565b818352600460205260ff6009604085200154166004811015610dd15790610e44610e699260016102da611273565b82845260046020526001600160a01b0360408520541614610e636112f8565b906112ae565b6001600160a01b03600254169080835260046020528260026040822001546024604051809581937f1f32768e00000000000000000000000000000000000000000000000000000000835260048301525afa9182156110b8578392610f92575b5060c08201511515610f12604091825190610ee384836111e0565b600382527f323031000000000000000000000000000000000000000000000000000000000060208301526112ae565b818452600460205280842060060154421115610f7d5742915b60208401518301809311610f69576006828685936060985260046020522001556001600160a01b038184015193511681519384526020840152820152f35b602485634e487b7160e01b81526011600452fd5b81845260046020526006818520015491610f2b565b9091503d8084833e610fa481836111e0565b8101906020818303126102775780519067ffffffffffffffff8211610a7957019060e082820312610277576040519160e0830183811067ffffffffffffffff8211176110a457604052610ff681611333565b8352602081015160208401526040810151604084015260608101516060840152608081015167ffffffffffffffff8111610a7d5781019180601f84011215610a7d5782519261104484611202565b9161105260405193846111e0565b848352602085830101116110a05760c09361107391602080850191016110f2565b608084015261108460a08201611333565b60a0840152015180151581036102775760c08201529038610ec8565b8680fd5b602486634e487b7160e01b81526041600452fd5b6040513d85823e3d90fd5b600435906001600160a01b03821682036110d957565b600080fd5b35906001600160a01b03821682036110d957565b60005b8381106111055750506000910152565b81810151838201526020016110f5565b9060209161112e815180928185528580860191016110f2565b601f01601f1916010190565b906020808351928381520192019060005b8181106111585750505090565b825184526020938401939092019160010161114b565b90600482101561117b5752565b634e487b7160e01b600052602160045260246000fd5b610120810190811067ffffffffffffffff8211176111ae57604052565b634e487b7160e01b600052604160045260246000fd5b6040810190811067ffffffffffffffff8211176111ae57604052565b90601f8019910116810190811067ffffffffffffffff8211176111ae57604052565b67ffffffffffffffff81116111ae57601f01601f191660200190565b81601f820112156110d95780359061123582611202565b9261124360405194856111e0565b828452602083830101116110d957816000926020809301838601378301015290565b359060ff821682036110d957565b604051906112826040836111e0565b600382527f31303300000000000000000000000000000000000000000000000000000000006020830152565b156112b65750565b6112f4906040519182917f08c379a0000000000000000000000000000000000000000000000000000000008352602060048401526024830190611115565b0390fd5b604051906113076040836111e0565b600382527f31303400000000000000000000000000000000000000000000000000000000006020830152565b51906001600160a01b03821682036110d957565b90600182811c92168015611377575b602083101461136157565b634e487b7160e01b600052602260045260246000fd5b91607f1691611356565b906040519182600082549261139584611347565b808452936001811690811561140357506001146113bc575b506113ba925003836111e0565b565b90506000929192526020600020906000915b8183106113e75750509060206113ba92820101386113ad565b60209193508060019154838589010152019101909184926113ce565b9050602092506113ba94915060ff191682840152151560051b820101386113ad565b906040519182815491828252602082019060005260206000209260005b8181106114575750506113ba925003836111e0565b8454835260019485019487945060209093019201611442565b81811061147b575050565b60008155600101611470565b805490680100000000000000008210156111ae57600182018082558210156114b55760005260206000200155565b634e487b7160e01b600052603260045260246000fd5b6001600160a01b036000541633036114df57565b7f118cdaa7000000000000000000000000000000000000000000000000000000006000523360045260246000fdfea26469706673582212208a859010926c68973a3f631b9b870ecebf6f93980ff2fe935b9d23f5e102a8b764736f6c634300081c0033",
  "linkReferences": {
    "contracts/libs/HashLib.sol": {
      "HashLib": [
        {
          "length": 20,
          "start": 1842
        }
      ]
    }
  },
  "deployedLinkReferences": {
    "contracts/libs/HashLib.sol": {
      "HashLib": [
        {
          "length": 20,
          "start": 1565
        }
      ]
    }
  }
}