{
  "_format": "hh-sol-artifact-1",
  "contractName": "UniswapV2",
  "sourceName": "contracts/modules/UniswapV2.sol",
  "abi": [
    {
      "inputs": [
        {
          "internalType": "address",
          "name": "router_",
          "type": "address"
        }
      ],
      "stateMutability": "nonpayable",
      "type": "constructor"
    },
    {
      "inputs": [
        {
          "components": [
            {
              "internalType": "address",
              "name": "tokenIn",
              "type": "address"
            },
            {
              "internalType": "address",
              "name": "tokenOut",
              "type": "address"
            },
            {
              "internalType": "uint256",
              "name": "amountInMax",
              "type": "uint256"
            },
            {
              "internalType": "uint256",
              "name": "amountOut",
              "type": "uint256"
            }
          ],
          "internalType": "struct Params.ExecuteSwap",
          "name": "params",
          "type": "tuple"
        }
      ],
      "name": "execute",
      "outputs": [],
      "stateMutability": "payable",
      "type": "function"
    },
    {
      "inputs": [
        {
          "components": [
            {
              "internalType": "address",
              "name": "tokenIn",
              "type": "address"
            },
            {
              "internalType": "address",
              "name": "tokenOut",
              "type": "address"
            },
            {
              "internalType": "uint256",
              "name": "amountOut",
              "type": "uint256"
            },
            {
              "internalType": "uint256",
              "name": "slippage",
              "type": "uint256"
            }
          ],
          "internalType": "struct Params.RequiredAmountIn",
          "name": "params",
          "type": "tuple"
        }
      ],
      "name": "requiredAmountIn",
      "outputs": [
        {
          "internalType": "uint256",
          "name": "amountIn",
          "type": "uint256"
        }
      ],
      "stateMutability": "view",
      "type": "function"
    },
    {
      "stateMutability": "payable",
      "type": "receive"
    }
  ],
  "bytecode": "0x60a03461008e57601f610b4638819003918201601f19168301916001600160401b038311848410176100935780849260209460405283398101031261008e57516001600160a01b0381169081900361008e57608052604051610a9c90816100aa8239608051818181609c01528181610115015281816101b5015281816104460152818161063f01526108060152f35b600080fd5b634e487b7160e01b600052604160045260246000fdfe6080604052600436101561001b575b361561001957600080fd5b005b60003560e01c80633d6a7eb4146102d25763dd016b790361000e57346102cd5760803660031901126102cd5761005036610327565b604051606061005f81836102ef565b60028252601f19810136602084013782516001600160a01b0316806102c857506040516315ab88c960e31b81526020816004816001600160a01b037f0000000000000000000000000000000000000000000000000000000000000000165afa908115610262576000916102a9575b505b6001600160a01b036100e084610920565b9116905260208301516001600160a01b03168061029d57506040516315ab88c960e31b81526020816004816001600160a01b037f0000000000000000000000000000000000000000000000000000000000000000165afa928315610262576101a993600092839161026e575b505b6001600160a01b0361015f83610943565b91169052604085015160405194859283927f1f00ca7400000000000000000000000000000000000000000000000000000000845260048401526040602484015260448301906109d9565b03816001600160a01b037f0000000000000000000000000000000000000000000000000000000000000000165afa9182156102625760009261023d575b506101f082610920565b519201519182810292818404149015171561022757610210606491610920565b519104810180911161022757602090604051908152f35b634e487b7160e01b600052601160045260246000fd5b61025b9192503d806000833e61025381836102ef565b810190610953565b90386101e6565b6040513d6000823e3d90fd5b610290915060203d602011610296575b61028881836102ef565b810190610901565b3861014c565b503d61027e565b6101a99260009161014e565b6102c2915060203d6020116102965761028881836102ef565b386100cd565b6100cf565b600080fd5b60803660031901126102cd576100196102ea36610327565b610391565b90601f8019910116810190811067ffffffffffffffff82111761031157604052565b634e487b7160e01b600052604160045260246000fd5b60809060031901126102cd57604051906080820182811067ffffffffffffffff82111761031157604052816004356001600160a01b03811681036102cd5781526024356001600160a01b03811681036102cd57602082015260443560408201526060606435910152565b6001600160a01b0381511660208201906001600160a01b038251168082146000146103bc5750505050565b816105cc5750506001600160a01b0360609151169101516040516040810181811067ffffffffffffffff82111761031157604052600181527f3300000000000000000000000000000000000000000000000000000000000000602082015234156105575750604051906104306060836102ef565b6002825260403660208401376001600160a01b037f000000000000000000000000000000000000000000000000000000000000000016926040516315ab88c960e31b8152602081600481885afa90811561026257600091610538575b506001600160a01b0361049e85610920565b911690526104ab83610943565b5260014201928342116102275760009261050292604051958694859384937ffb3bdb4100000000000000000000000000000000000000000000000000000000855260048501526080602485015260848401906109d9565b903360448401526064830152039134905af18015610262576105215750565b610535903d806000833e61025381836102ef565b50565b610551915060203d6020116102965761028881836102ef565b3861048c565b604051907f08c379a0000000000000000000000000000000000000000000000000000000008252602060048301528181519182602483015260005b8381106105b45750508160006044809484010152601f80199101168101030190fd5b60208282018101516044878401015285935001610592565b90929150806107aa5750805160408083015160609093015190516323b872dd60e01b8152336004820152306024820152604481018490526001600160a01b039092169350906020816064816000885af180156102625761078d575b5060405163095ea7b360e01b81526001600160a01b037f0000000000000000000000000000000000000000000000000000000000000000166004820181905260248201849052906020816044816000895af1801561026257610760575b50604051936106946060866102ef565b6002855260403660208701376106a985610920565b526040516315ab88c960e31b8152602081600481855afa90811561026257600091610741575b506001600160a01b036106e186610943565b9116905260014201938442116102275760008094610730604051978896879586947f4a25d94a000000000000000000000000000000000000000000000000000000008652339260048701610a2e565b03925af18015610262576105215750565b61075a915060203d6020116102965761028881836102ef565b386106cf565b6107819060203d602011610786575b61077981836102ef565b810190610a16565b610684565b503d61076f565b6107a59060203d6020116107865761077981836102ef565b610627565b60408281015160609093015190516323b872dd60e01b8152336004820152306024820152604481018490529091906020816064816000895af18015610262576108e4575b5060405163095ea7b360e01b81526001600160a01b037f0000000000000000000000000000000000000000000000000000000000000000166004820181905260248201859052919060208160448160008a5af18015610262576108c7575b506040519461085c6060876102ef565b60028652604036602088013761087186610920565b5261087b85610943565b5260014201938442116102275760008094610730604051978896879586947f8803dbee000000000000000000000000000000000000000000000000000000008652339260048701610a2e565b6108df9060203d6020116107865761077981836102ef565b61084c565b6108fc9060203d6020116107865761077981836102ef565b6107ee565b908160209103126102cd57516001600160a01b03811681036102cd5790565b80511561092d5760200190565b634e487b7160e01b600052603260045260246000fd5b80516001101561092d5760400190565b6020818303126102cd5780519067ffffffffffffffff82116102cd57019080601f830112156102cd5781519167ffffffffffffffff8311610311578260051b9060208201936109a560405195866102ef565b84526020808501928201019283116102cd57602001905b8282106109c95750505090565b81518152602091820191016109bc565b906020808351928381520192019060005b8181106109f75750505090565b82516001600160a01b03168452602093840193909201916001016109ea565b908160209103126102cd575180151581036102cd5790565b91608093610a5b916001600160a01b0393989796988552602085015260a0604085015260a08401906109d9565b95166060820152015256fea2646970667358221220873ed81e9aff2a6e369ae887bbfa43d8a60e99ce6230b46900080d9a50e67fa664736f6c634300081c0033",
  "linkReferences": {},
  "deployedLinkReferences": {}
}