{
  "_format": "hh-sol-artifact-1",
  "contractName": "UniswapV2",
  "sourceName": "contracts/modules/UniswapV2.sol",
  "abi": [
    {
      "inputs": [
        {
          "internalType": "address",
          "name": "router_",
          "type": "address"
        }
      ],
      "stateMutability": "nonpayable",
      "type": "constructor"
    },
    {
      "inputs": [
        {
          "components": [
            {
              "internalType": "address",
              "name": "tokenIn",
              "type": "address"
            },
            {
              "internalType": "address",
              "name": "tokenOut",
              "type": "address"
            },
            {
              "internalType": "uint256",
              "name": "amountIn",
              "type": "uint256"
            },
            {
              "internalType": "uint256",
              "name": "amountOutMin",
              "type": "uint256"
            }
          ],
          "internalType": "struct Params.ExecuteSwap",
          "name": "params",
          "type": "tuple"
        }
      ],
      "name": "execute",
      "outputs": [],
      "stateMutability": "payable",
      "type": "function"
    },
    {
      "inputs": [
        {
          "components": [
            {
              "internalType": "address",
              "name": "tokenIn",
              "type": "address"
            },
            {
              "internalType": "address",
              "name": "tokenOut",
              "type": "address"
            },
            {
              "internalType": "uint256",
              "name": "amountOut",
              "type": "uint256"
            }
          ],
          "internalType": "struct Params.RequiredAmountIn",
          "name": "params",
          "type": "tuple"
        }
      ],
      "name": "requiredAmountIn",
      "outputs": [
        {
          "internalType": "uint256",
          "name": "amountIn",
          "type": "uint256"
        }
      ],
      "stateMutability": "view",
      "type": "function"
    },
    {
      "stateMutability": "payable",
      "type": "receive"
    }
  ],
  "bytecode": "0x60a03461008f57601f610b8c38819003918201601f19168301916001600160401b038311848410176100945780849260209460405283398101031261008f57516001600160a01b0381169081900361008f57608052604051610ae190816100ab8239608051818181610153015281816101c1015281816102590152818161057a0152818161079501526109600152f35b600080fd5b634e487b7160e01b600052604160045260246000fdfe608080604052600436101561001d575b50361561001b57600080fd5b005b60003560e01c90816335d260ec146100b75750633d6a7eb414610040573861000f565b60803660031901126100b25760006040516080810181811067ffffffffffffffff82111761009e5760405261009b90610077610384565b815261008161039a565b6020820152604435604082015260643560608201526104c5565b80f35b602483634e487b7160e01b81526041600452fd5b600080fd5b346100b25760603660031901126100b2576000906060810181811067ffffffffffffffff82111761009e576040526100ed610384565b8152816100f861039a565b9160208101928352604081019260443584526001600160a01b036040519261012160608561034c565b60028452604036602086013751168061033d5750604051906315ab88c960e31b82526020826004816001600160a01b037f0000000000000000000000000000000000000000000000000000000000000000165afa8015610332576001600160a01b03928591610313575b505b82610197856103cf565b911690525116806103095750604051926315ab88c960e31b84526020846004816001600160a01b037f0000000000000000000000000000000000000000000000000000000000000000165afa80156102fe5761024d9484916102cf575b505b6001600160a01b03610207846103f2565b911690525160405193849283927f1f00ca740000000000000000000000000000000000000000000000000000000084526004840152604060248401526044830190610488565b03816001600160a01b037f0000000000000000000000000000000000000000000000000000000000000000165afa9081156102c457906102989183602094926102a1575b50506103cf565b51604051908152f35b6102bd92503d8091833e6102b5818361034c565b810190610402565b8380610291565b6040513d84823e3d90fd5b6102f1915060203d6020116102f7575b6102e9818361034c565b8101906103b0565b866101f4565b503d6102df565b6040513d85823e3d90fd5b9261024d936101f6565b61032c915060203d6020116102f7576102e9818361034c565b8761018b565b6040513d86823e3d90fd5b906001600160a01b039161018d565b90601f8019910116810190811067ffffffffffffffff82111761036e57604052565b634e487b7160e01b600052604160045260246000fd5b600435906001600160a01b03821682036100b257565b602435906001600160a01b03821682036100b257565b908160209103126100b257516001600160a01b03811681036100b25790565b8051156103dc5760200190565b634e487b7160e01b600052603260045260246000fd5b8051600110156103dc5760400190565b6020818303126100b25780519067ffffffffffffffff82116100b257019080601f830112156100b25781519167ffffffffffffffff831161036e578260051b906020820193610454604051958661034c565b84526020808501928201019283116100b257602001905b8282106104785750505090565b815181526020918201910161046b565b906020808351928381520192019060005b8181106104a65750505090565b82516001600160a01b0316845260209384019390920191600101610499565b6001600160a01b0381511660208201906001600160a01b038251168082146000146104f05750505050565b816107225750506001600160a01b0360609151169101516040516040810181811067ffffffffffffffff82111761036e57604052600181527f3300000000000000000000000000000000000000000000000000000000000000602082015234156106ad57506040519061056460608361034c565b6002825260403660208401376001600160a01b037f000000000000000000000000000000000000000000000000000000000000000016926040516315ab88c960e31b8152602081600481885afa90811561066c5760009161068e575b506001600160a01b036105d2856103cf565b911690526105df836103f2565b5260014201928342116106785760009261063692604051958694859384937f7ff36ab50000000000000000000000000000000000000000000000000000000085526004850152608060248501526084840190610488565b903360448401526064830152039134905af1801561066c576106555750565b610669903d806000833e6102b5818361034c565b50565b6040513d6000823e3d90fd5b634e487b7160e01b600052601160045260246000fd5b6106a7915060203d6020116102f7576102e9818361034c565b386105c0565b604051907f08c379a0000000000000000000000000000000000000000000000000000000008252602060048301528181519182602483015260005b83811061070a5750508160006044809484010152601f80199101168101030190fd5b602082820181015160448784010152859350016106e8565b90915080610900575050805160408083015160609093015190516323b872dd60e01b8152336004820152306024820152604481018490526001600160a01b039092169290916020816064816000885af1801561066c576108e3575b5060405163095ea7b360e01b81526001600160a01b037f0000000000000000000000000000000000000000000000000000000000000000166004820181905260248201839052906020816044816000895af1801561066c576108b6575b50604051936107ea60608661034c565b6002855260403660208701376107ff856103cf565b526040516315ab88c960e31b8152602081600481855afa90811561066c57600091610897575b506001600160a01b03610837866103f2565b9116905260014201938442116106785760008094610886604051978896879586947f18cbafe5000000000000000000000000000000000000000000000000000000008652339260048701610a73565b03925af1801561066c576106555750565b6108b0915060203d6020116102f7576102e9818361034c565b38610825565b6108d79060203d6020116108dc575b6108cf818361034c565b810190610a5b565b6107da565b503d6108c5565b6108fb9060203d6020116108dc576108cf818361034c565b61077d565b60408381015160609094015190516323b872dd60e01b815233600482015230602482015260448101859052929390929091906020816064816000895af1801561066c57610a3e575b5060405163095ea7b360e01b81526001600160a01b037f0000000000000000000000000000000000000000000000000000000000000000166004820181905260248201849052919060208160448160008a5af1801561066c57610a21575b50604051946109b660608761034c565b6002865260403660208801376109cb866103cf565b526109d5856103f2565b5260014201938442116106785760008094610886604051978896879586947f38ed1739000000000000000000000000000000000000000000000000000000008652339260048701610a73565b610a399060203d6020116108dc576108cf818361034c565b6109a6565b610a569060203d6020116108dc576108cf818361034c565b610948565b908160209103126100b2575180151581036100b25790565b91608093610aa0916001600160a01b0393989796988552602085015260a0604085015260a0840190610488565b95166060820152015256fea2646970667358221220aa841357dfb05e05a788e659c3427c019bc95967af699afcd9244234a9d2937464736f6c634300081c0033",
  "linkReferences": {},
  "deployedLinkReferences": {}
}